{
	"contracts/MyProject.sol": {
		"RemittanceEscrowSecret": {
			"abi": [
				{
					"inputs": [
						{
							"internalType": "uint256",
							"name": "_feeBps",
							"type": "uint256"
						}
					],
					"stateMutability": "nonpayable",
					"type": "constructor"
				},
				{
					"anonymous": false,
					"inputs": [
						{
							"indexed": true,
							"internalType": "uint256",
							"name": "id",
							"type": "uint256"
						},
						{
							"indexed": true,
							"internalType": "address",
							"name": "recipient",
							"type": "address"
						},
						{
							"indexed": false,
							"internalType": "uint256",
							"name": "payout",
							"type": "uint256"
						},
						{
							"indexed": false,
							"internalType": "uint256",
							"name": "feeToOwner",
							"type": "uint256"
						}
					],
					"name": "Claimed",
					"type": "event"
				},
				{
					"anonymous": false,
					"inputs": [
						{
							"indexed": true,
							"internalType": "uint256",
							"name": "id",
							"type": "uint256"
						},
						{
							"indexed": true,
							"internalType": "address",
							"name": "sender",
							"type": "address"
						},
						{
							"indexed": false,
							"internalType": "address",
							"name": "token",
							"type": "address"
						},
						{
							"indexed": false,
							"internalType": "uint256",
							"name": "amountExpected",
							"type": "uint256"
						},
						{
							"indexed": false,
							"internalType": "uint256",
							"name": "amountReceived",
							"type": "uint256"
						},
						{
							"indexed": true,
							"internalType": "address",
							"name": "recipient",
							"type": "address"
						},
						{
							"indexed": false,
							"internalType": "uint256",
							"name": "deadline",
							"type": "uint256"
						},
						{
							"indexed": false,
							"internalType": "bytes32",
							"name": "secretHash",
							"type": "bytes32"
						}
					],
					"name": "Deposited",
					"type": "event"
				},
				{
					"anonymous": false,
					"inputs": [
						{
							"indexed": false,
							"internalType": "uint256",
							"name": "oldFeeBps",
							"type": "uint256"
						},
						{
							"indexed": false,
							"internalType": "uint256",
							"name": "newFeeBps",
							"type": "uint256"
						}
					],
					"name": "FeeChanged",
					"type": "event"
				},
				{
					"anonymous": false,
					"inputs": [
						{
							"indexed": false,
							"internalType": "uint256",
							"name": "amount",
							"type": "uint256"
						}
					],
					"name": "OwnerWithdrawNative",
					"type": "event"
				},
				{
					"anonymous": false,
					"inputs": [
						{
							"indexed": true,
							"internalType": "address",
							"name": "previousOwner",
							"type": "address"
						},
						{
							"indexed": true,
							"internalType": "address",
							"name": "newOwner",
							"type": "address"
						}
					],
					"name": "OwnershipTransferred",
					"type": "event"
				},
				{
					"anonymous": false,
					"inputs": [
						{
							"indexed": true,
							"internalType": "uint256",
							"name": "id",
							"type": "uint256"
						},
						{
							"indexed": true,
							"internalType": "address",
							"name": "sender",
							"type": "address"
						},
						{
							"indexed": false,
							"internalType": "uint256",
							"name": "amount",
							"type": "uint256"
						}
					],
					"name": "Refunded",
					"type": "event"
				},
				{
					"stateMutability": "payable",
					"type": "fallback"
				},
				{
					"inputs": [
						{
							"internalType": "uint256",
							"name": "id",
							"type": "uint256"
						},
						{
							"internalType": "string",
							"name": "secret",
							"type": "string"
						}
					],
					"name": "claim",
					"outputs": [],
					"stateMutability": "nonpayable",
					"type": "function"
				},
				{
					"inputs": [
						{
							"internalType": "address",
							"name": "token",
							"type": "address"
						},
						{
							"internalType": "uint256",
							"name": "amountExpected",
							"type": "uint256"
						},
						{
							"internalType": "address",
							"name": "recipient",
							"type": "address"
						},
						{
							"internalType": "uint256",
							"name": "deadline",
							"type": "uint256"
						},
						{
							"internalType": "bytes32",
							"name": "secretHash",
							"type": "bytes32"
						}
					],
					"name": "deposit",
					"outputs": [
						{
							"internalType": "uint256",
							"name": "id",
							"type": "uint256"
						}
					],
					"stateMutability": "nonpayable",
					"type": "function"
				},
				{
					"inputs": [],
					"name": "feeBps",
					"outputs": [
						{
							"internalType": "uint256",
							"name": "",
							"type": "uint256"
						}
					],
					"stateMutability": "view",
					"type": "function"
				},
				{
					"inputs": [
						{
							"internalType": "uint256",
							"name": "id",
							"type": "uint256"
						}
					],
					"name": "getPayment",
					"outputs": [
						{
							"components": [
								{
									"internalType": "address",
									"name": "sender",
									"type": "address"
								},
								{
									"internalType": "address",
									"name": "token",
									"type": "address"
								},
								{
									"internalType": "uint256",
									"name": "amountExpected",
									"type": "uint256"
								},
								{
									"internalType": "uint256",
									"name": "amountReceived",
									"type": "uint256"
								},
								{
									"internalType": "address",
									"name": "recipient",
									"type": "address"
								},
								{
									"internalType": "uint256",
									"name": "createdAt",
									"type": "uint256"
								},
								{
									"internalType": "uint256",
									"name": "deadline",
									"type": "uint256"
								},
								{
									"internalType": "bytes32",
									"name": "secretHash",
									"type": "bytes32"
								},
								{
									"internalType": "bool",
									"name": "claimed",
									"type": "bool"
								},
								{
									"internalType": "bool",
									"name": "refunded",
									"type": "bool"
								}
							],
							"internalType": "struct RemittanceEscrowSecret.Payment",
							"name": "",
							"type": "tuple"
						}
					],
					"stateMutability": "view",
					"type": "function"
				},
				{
					"inputs": [],
					"name": "nextId",
					"outputs": [
						{
							"internalType": "uint256",
							"name": "",
							"type": "uint256"
						}
					],
					"stateMutability": "view",
					"type": "function"
				},
				{
					"inputs": [],
					"name": "owner",
					"outputs": [
						{
							"internalType": "address",
							"name": "",
							"type": "address"
						}
					],
					"stateMutability": "view",
					"type": "function"
				},
				{
					"inputs": [
						{
							"internalType": "uint256",
							"name": "",
							"type": "uint256"
						}
					],
					"name": "payments",
					"outputs": [
						{
							"internalType": "address",
							"name": "sender",
							"type": "address"
						},
						{
							"internalType": "address",
							"name": "token",
							"type": "address"
						},
						{
							"internalType": "uint256",
							"name": "amountExpected",
							"type": "uint256"
						},
						{
							"internalType": "uint256",
							"name": "amountReceived",
							"type": "uint256"
						},
						{
							"internalType": "address",
							"name": "recipient",
							"type": "address"
						},
						{
							"internalType": "uint256",
							"name": "createdAt",
							"type": "uint256"
						},
						{
							"internalType": "uint256",
							"name": "deadline",
							"type": "uint256"
						},
						{
							"internalType": "bytes32",
							"name": "secretHash",
							"type": "bytes32"
						},
						{
							"internalType": "bool",
							"name": "claimed",
							"type": "bool"
						},
						{
							"internalType": "bool",
							"name": "refunded",
							"type": "bool"
						}
					],
					"stateMutability": "view",
					"type": "function"
				},
				{
					"inputs": [
						{
							"internalType": "uint256",
							"name": "id",
							"type": "uint256"
						}
					],
					"name": "refund",
					"outputs": [],
					"stateMutability": "nonpayable",
					"type": "function"
				},
				{
					"inputs": [],
					"name": "renounceOwnership",
					"outputs": [],
					"stateMutability": "nonpayable",
					"type": "function"
				},
				{
					"inputs": [
						{
							"internalType": "uint256",
							"name": "newFeeBps",
							"type": "uint256"
						}
					],
					"name": "setFeeBps",
					"outputs": [],
					"stateMutability": "nonpayable",
					"type": "function"
				},
				{
					"inputs": [
						{
							"internalType": "address",
							"name": "newOwner",
							"type": "address"
						}
					],
					"name": "transferOwnership",
					"outputs": [],
					"stateMutability": "nonpayable",
					"type": "function"
				},
				{
					"inputs": [
						{
							"internalType": "uint256",
							"name": "amount",
							"type": "uint256"
						}
					],
					"name": "withdrawNative",
					"outputs": [],
					"stateMutability": "nonpayable",
					"type": "function"
				},
				{
					"stateMutability": "payable",
					"type": "receive"
				}
			],
			"devdoc": {
				"kind": "dev",
				"methods": {
					"claim(uint256,string)": {
						"params": {
							"id": "mã thanh toán",
							"secret": "bytes bất kỳ; hợp lệ khi keccak256(abi.encodePacked(secret, recipient)) == secretHash"
						}
					},
					"deposit(address,uint256,address,uint256,bytes32)": {
						"params": {
							"amountExpected": "số lượng dự định chuyểnFrom",
							"deadline": "hạn cuối claim (>= block.timestamp + 60)",
							"recipient": "người nhận",
							"secretHash": "hash bí mật: khuyến nghị = keccak256(abi.encodePacked(secret, recipient))",
							"token": "địa chỉ ERC20 stablecoin (ví dụ cUSD)"
						},
						"returns": {
							"id": "mã thanh toán"
						}
					},
					"refund(uint256)": {
						"params": {
							"id": "mã thanh toán"
						}
					}
				},
				"version": 1
			},
			"evm": {
				"assembly": "    /* \"contracts/MyProject.sol\":3475:9886  contract RemittanceEscrowSecret is SimpleOwnable, SimpleReentrancyGuard {... */\n  mstore(0x40, 0x80)\n    /* \"contracts/MyProject.sol\":5196:5330  constructor(uint256 _feeBps) {... */\n  callvalue\n  dup1\n  iszero\n  tag_1\n  jumpi\n  revert(0x00, 0x00)\ntag_1:\n  pop\n  mload(0x40)\n  sub(codesize, bytecodeSize)\n  dup1\n  bytecodeSize\n  dup4\n  codecopy\n  dup2\n  dup2\n  add\n  0x40\n  mstore\n  dup2\n  add\n  swap1\n  tag_2\n  swap2\n  swap1\n  tag_3\n  jump\t// in\ntag_2:\n    /* \"contracts/MyProject.sol\":2563:2573  msg.sender */\n  caller\n    /* \"contracts/MyProject.sol\":2554:2560  _owner */\n  0x00\n  0x00\n    /* \"contracts/MyProject.sol\":2554:2573  _owner = msg.sender */\n  0x0100\n  exp\n  dup2\n  sload\n  dup2\n  0xffffffffffffffffffffffffffffffffffffffff\n  mul\n  not\n  and\n  swap1\n  dup4\n  0xffffffffffffffffffffffffffffffffffffffff\n  and\n  mul\n  or\n  swap1\n  sstore\n  pop\n    /* \"contracts/MyProject.sol\":2621:2627  _owner */\n  0x00\n  0x00\n  swap1\n  sload\n  swap1\n  0x0100\n  exp\n  swap1\n  div\n  0xffffffffffffffffffffffffffffffffffffffff\n  and\n    /* \"contracts/MyProject.sol\":2588:2628  OwnershipTransferred(address(0), _owner) */\n  0xffffffffffffffffffffffffffffffffffffffff\n  and\n    /* \"contracts/MyProject.sol\":2617:2618  0 */\n  0x00\n    /* \"contracts/MyProject.sol\":2588:2628  OwnershipTransferred(address(0), _owner) */\n  0xffffffffffffffffffffffffffffffffffffffff\n  and\n  0x8be0079c531659141344cd1fd0a4f28419497f9722a3daafe3b4186f6b6457e0\n  mload(0x40)\n  mload(0x40)\n  dup1\n  swap2\n  sub\n  swap1\n  log3\n    /* \"contracts/MyProject.sol\":3301:3302  1 */\n  0x01\n    /* \"contracts/MyProject.sol\":3291:3298  _status */\n  dup1\n    /* \"contracts/MyProject.sol\":3291:3302  _status = 1 */\n  dup2\n  swap1\n  sstore\n  pop\n    /* \"contracts/MyProject.sol\":5254:5259  10000 */\n  0x2710\n    /* \"contracts/MyProject.sol\":5243:5250  _feeBps */\n  dup2\n    /* \"contracts/MyProject.sol\":5243:5259  _feeBps <= 10000 */\n  gt\n  iszero\n    /* \"contracts/MyProject.sol\":5235:5277  require(_feeBps <= 10000, \"feeBps<=10000\") */\n  tag_10\n  jumpi\n  mload(0x40)\n  0x08c379a000000000000000000000000000000000000000000000000000000000\n  dup2\n  mstore\n  0x04\n  add\n  tag_11\n  swap1\n  tag_12\n  jump\t// in\ntag_11:\n  mload(0x40)\n  dup1\n  swap2\n  sub\n  swap1\n  revert\ntag_10:\n    /* \"contracts/MyProject.sol\":5296:5303  _feeBps */\n  dup1\n    /* \"contracts/MyProject.sol\":5287:5293  feeBps */\n  0x02\n    /* \"contracts/MyProject.sol\":5287:5303  feeBps = _feeBps */\n  dup2\n  swap1\n  sstore\n  pop\n    /* \"contracts/MyProject.sol\":5322:5323  1 */\n  0x01\n    /* \"contracts/MyProject.sol\":5313:5319  nextId */\n  0x03\n    /* \"contracts/MyProject.sol\":5313:5323  nextId = 1 */\n  dup2\n  swap1\n  sstore\n  pop\n    /* \"contracts/MyProject.sol\":5196:5330  constructor(uint256 _feeBps) {... */\n  pop\n    /* \"contracts/MyProject.sol\":3475:9886  contract RemittanceEscrowSecret is SimpleOwnable, SimpleReentrancyGuard {... */\n  jump(tag_13)\n    /* \"#utility.yul\":88:205   */\ntag_15:\n    /* \"#utility.yul\":197:198   */\n  0x00\n    /* \"#utility.yul\":194:195   */\n  0x00\n    /* \"#utility.yul\":187:199   */\n  revert\n    /* \"#utility.yul\":334:411   */\ntag_17:\n    /* \"#utility.yul\":371:378   */\n  0x00\n    /* \"#utility.yul\":400:405   */\n  dup2\n    /* \"#utility.yul\":389:405   */\n  swap1\n  pop\n    /* \"#utility.yul\":334:411   */\n  swap2\n  swap1\n  pop\n  jump\t// out\n    /* \"#utility.yul\":417:539   */\ntag_18:\n    /* \"#utility.yul\":490:514   */\n  tag_29\n    /* \"#utility.yul\":508:513   */\n  dup2\n    /* \"#utility.yul\":490:514   */\n  tag_17\n  jump\t// in\ntag_29:\n    /* \"#utility.yul\":483:488   */\n  dup2\n    /* \"#utility.yul\":480:515   */\n  eq\n    /* \"#utility.yul\":470:533   */\n  tag_30\n  jumpi\n    /* \"#utility.yul\":529:530   */\n  0x00\n    /* \"#utility.yul\":526:527   */\n  0x00\n    /* \"#utility.yul\":519:531   */\n  revert\n    /* \"#utility.yul\":470:533   */\ntag_30:\n    /* \"#utility.yul\":417:539   */\n  pop\n  jump\t// out\n    /* \"#utility.yul\":545:688   */\ntag_19:\n    /* \"#utility.yul\":602:607   */\n  0x00\n    /* \"#utility.yul\":633:639   */\n  dup2\n    /* \"#utility.yul\":627:640   */\n  mload\n    /* \"#utility.yul\":618:640   */\n  swap1\n  pop\n    /* \"#utility.yul\":649:682   */\n  tag_32\n    /* \"#utility.yul\":676:681   */\n  dup2\n    /* \"#utility.yul\":649:682   */\n  tag_18\n  jump\t// in\ntag_32:\n    /* \"#utility.yul\":545:688   */\n  swap3\n  swap2\n  pop\n  pop\n  jump\t// out\n    /* \"#utility.yul\":694:1045   */\ntag_3:\n    /* \"#utility.yul\":764:770   */\n  0x00\n    /* \"#utility.yul\":813:815   */\n  0x20\n    /* \"#utility.yul\":801:810   */\n  dup3\n    /* \"#utility.yul\":792:799   */\n  dup5\n    /* \"#utility.yul\":788:811   */\n  sub\n    /* \"#utility.yul\":784:816   */\n  slt\n    /* \"#utility.yul\":781:900   */\n  iszero\n  tag_34\n  jumpi\n    /* \"#utility.yul\":819:898   */\n  tag_35\n  tag_15\n  jump\t// in\ntag_35:\n    /* \"#utility.yul\":781:900   */\ntag_34:\n    /* \"#utility.yul\":939:940   */\n  0x00\n    /* \"#utility.yul\":964:1028   */\n  tag_36\n    /* \"#utility.yul\":1020:1027   */\n  dup5\n    /* \"#utility.yul\":1011:1017   */\n  dup3\n    /* \"#utility.yul\":1000:1009   */\n  dup6\n    /* \"#utility.yul\":996:1018   */\n  add\n    /* \"#utility.yul\":964:1028   */\n  tag_19\n  jump\t// in\ntag_36:\n    /* \"#utility.yul\":954:1028   */\n  swap2\n  pop\n    /* \"#utility.yul\":910:1038   */\n  pop\n    /* \"#utility.yul\":694:1045   */\n  swap3\n  swap2\n  pop\n  pop\n  jump\t// out\n    /* \"#utility.yul\":1051:1220   */\ntag_20:\n    /* \"#utility.yul\":1135:1146   */\n  0x00\n    /* \"#utility.yul\":1169:1175   */\n  dup3\n    /* \"#utility.yul\":1164:1167   */\n  dup3\n    /* \"#utility.yul\":1157:1176   */\n  mstore\n    /* \"#utility.yul\":1209:1213   */\n  0x20\n    /* \"#utility.yul\":1204:1207   */\n  dup3\n    /* \"#utility.yul\":1200:1214   */\n  add\n    /* \"#utility.yul\":1185:1214   */\n  swap1\n  pop\n    /* \"#utility.yul\":1051:1220   */\n  swap3\n  swap2\n  pop\n  pop\n  jump\t// out\n    /* \"#utility.yul\":1226:1389   */\ntag_21:\n    /* \"#utility.yul\":1366:1381   */\n  0x6665654270733c3d313030303000000000000000000000000000000000000000\n    /* \"#utility.yul\":1362:1363   */\n  0x00\n    /* \"#utility.yul\":1354:1360   */\n  dup3\n    /* \"#utility.yul\":1350:1364   */\n  add\n    /* \"#utility.yul\":1343:1382   */\n  mstore\n    /* \"#utility.yul\":1226:1389   */\n  pop\n  jump\t// out\n    /* \"#utility.yul\":1395:1761   */\ntag_22:\n    /* \"#utility.yul\":1537:1540   */\n  0x00\n    /* \"#utility.yul\":1558:1625   */\n  tag_40\n    /* \"#utility.yul\":1622:1624   */\n  0x0d\n    /* \"#utility.yul\":1617:1620   */\n  dup4\n    /* \"#utility.yul\":1558:1625   */\n  tag_20\n  jump\t// in\ntag_40:\n    /* \"#utility.yul\":1551:1625   */\n  swap2\n  pop\n    /* \"#utility.yul\":1634:1727   */\n  tag_41\n    /* \"#utility.yul\":1723:1726   */\n  dup3\n    /* \"#utility.yul\":1634:1727   */\n  tag_21\n  jump\t// in\ntag_41:\n    /* \"#utility.yul\":1752:1754   */\n  0x20\n    /* \"#utility.yul\":1747:1750   */\n  dup3\n    /* \"#utility.yul\":1743:1755   */\n  add\n    /* \"#utility.yul\":1736:1755   */\n  swap1\n  pop\n    /* \"#utility.yul\":1395:1761   */\n  swap2\n  swap1\n  pop\n  jump\t// out\n    /* \"#utility.yul\":1767:2186   */\ntag_12:\n    /* \"#utility.yul\":1933:1937   */\n  0x00\n    /* \"#utility.yul\":1971:1973   */\n  0x20\n    /* \"#utility.yul\":1960:1969   */\n  dup3\n    /* \"#utility.yul\":1956:1974   */\n  add\n    /* \"#utility.yul\":1948:1974   */\n  swap1\n  pop\n    /* \"#utility.yul\":2020:2029   */\n  dup2\n    /* \"#utility.yul\":2014:2018   */\n  dup2\n    /* \"#utility.yul\":2010:2030   */\n  sub\n    /* \"#utility.yul\":2006:2007   */\n  0x00\n    /* \"#utility.yul\":1995:2004   */\n  dup4\n    /* \"#utility.yul\":1991:2008   */\n  add\n    /* \"#utility.yul\":1984:2031   */\n  mstore\n    /* \"#utility.yul\":2048:2179   */\n  tag_43\n    /* \"#utility.yul\":2174:2178   */\n  dup2\n    /* \"#utility.yul\":2048:2179   */\n  tag_22\n  jump\t// in\ntag_43:\n    /* \"#utility.yul\":2040:2179   */\n  swap1\n  pop\n    /* \"#utility.yul\":1767:2186   */\n  swap2\n  swap1\n  pop\n  jump\t// out\n    /* \"contracts/MyProject.sol\":3475:9886  contract RemittanceEscrowSecret is SimpleOwnable, SimpleReentrancyGuard {... */\ntag_13:\n  dataSize(sub_0)\n  dup1\n  dataOffset(sub_0)\n  0x00\n  codecopy\n  0x00\n  return\nstop\n\nsub_0: assembly {\n        /* \"contracts/MyProject.sol\":3475:9886  contract RemittanceEscrowSecret is SimpleOwnable, SimpleReentrancyGuard {... */\n      mstore(0x40, 0x80)\n      jumpi(tag_1, lt(calldatasize, 0x04))\n      shr(0xe0, calldataload(0x00))\n      dup1\n      0x72c27b62\n      gt\n      tag_15\n      jumpi\n      dup1\n      0x72c27b62\n      eq\n      tag_9\n      jumpi\n      dup1\n      0x84276d81\n      eq\n      tag_10\n      jumpi\n      dup1\n      0x87d81789\n      eq\n      tag_11\n      jumpi\n      dup1\n      0x8da5cb5b\n      eq\n      tag_12\n      jumpi\n      dup1\n      0x96f6044b\n      eq\n      tag_13\n      jumpi\n      dup1\n      0xf2fde38b\n      eq\n      tag_14\n      jumpi\n      jump(tag_2)\n    tag_15:\n      dup1\n      0x24a9d853\n      eq\n      tag_3\n      jumpi\n      dup1\n      0x268b15ed\n      eq\n      tag_4\n      jumpi\n      dup1\n      0x278ecde1\n      eq\n      tag_5\n      jumpi\n      dup1\n      0x3280a836\n      eq\n      tag_6\n      jumpi\n      dup1\n      0x61b8ce8c\n      eq\n      tag_7\n      jumpi\n      dup1\n      0x715018a6\n      eq\n      tag_8\n      jumpi\n      jump(tag_2)\n    tag_1:\n    tag_2:\n      stop\n        /* \"contracts/MyProject.sol\":3625:3646  uint256 public feeBps */\n    tag_3:\n      callvalue\n      dup1\n      iszero\n      tag_20\n      jumpi\n      revert(0x00, 0x00)\n    tag_20:\n      pop\n      tag_21\n      tag_22\n      jump\t// in\n    tag_21:\n      mload(0x40)\n      tag_23\n      swap2\n      swap1\n      tag_24\n      jump\t// in\n    tag_23:\n      mload(0x40)\n      dup1\n      swap2\n      sub\n      swap1\n      return\n        /* \"contracts/MyProject.sol\":7541:8445  function claim(uint256 id, string calldata secret) external nonReentrant {... */\n    tag_4:\n      callvalue\n      dup1\n      iszero\n      tag_25\n      jumpi\n      revert(0x00, 0x00)\n    tag_25:\n      pop\n      tag_26\n      0x04\n      dup1\n      calldatasize\n      sub\n      dup2\n      add\n      swap1\n      tag_27\n      swap2\n      swap1\n      tag_28\n      jump\t// in\n    tag_27:\n      tag_29\n      jump\t// in\n    tag_26:\n      stop\n        /* \"contracts/MyProject.sol\":8561:9157  function refund(uint256 id) external nonReentrant {... */\n    tag_5:\n      callvalue\n      dup1\n      iszero\n      tag_30\n      jumpi\n      revert(0x00, 0x00)\n    tag_30:\n      pop\n      tag_31\n      0x04\n      dup1\n      calldatasize\n      sub\n      dup2\n      add\n      swap1\n      tag_32\n      swap2\n      swap1\n      tag_33\n      jump\t// in\n    tag_32:\n      tag_34\n      jump\t// in\n    tag_31:\n      stop\n        /* \"contracts/MyProject.sol\":9777:9884  function getPayment(uint256 id) external view returns (Payment memory) {... */\n    tag_6:\n      callvalue\n      dup1\n      iszero\n      tag_35\n      jumpi\n      revert(0x00, 0x00)\n    tag_35:\n      pop\n      tag_36\n      0x04\n      dup1\n      calldatasize\n      sub\n      dup2\n      add\n      swap1\n      tag_37\n      swap2\n      swap1\n      tag_33\n      jump\t// in\n    tag_37:\n      tag_38\n      jump\t// in\n    tag_36:\n      mload(0x40)\n      tag_39\n      swap2\n      swap1\n      tag_40\n      jump\t// in\n    tag_39:\n      mload(0x40)\n      dup1\n      swap2\n      sub\n      swap1\n      return\n        /* \"contracts/MyProject.sol\":3664:3685  uint256 public nextId */\n    tag_7:\n      callvalue\n      dup1\n      iszero\n      tag_41\n      jumpi\n      revert(0x00, 0x00)\n    tag_41:\n      pop\n      tag_42\n      tag_43\n      jump\t// in\n    tag_42:\n      mload(0x40)\n      tag_44\n      swap2\n      swap1\n      tag_24\n      jump\t// in\n    tag_44:\n      mload(0x40)\n      dup1\n      swap2\n      sub\n      swap1\n      return\n        /* \"contracts/MyProject.sol\":3032:3169  function renounceOwnership() public onlyOwner {... */\n    tag_8:\n      callvalue\n      dup1\n      iszero\n      tag_45\n      jumpi\n      revert(0x00, 0x00)\n    tag_45:\n      pop\n      tag_46\n      tag_47\n      jump\t// in\n    tag_46:\n      stop\n        /* \"contracts/MyProject.sol\":9213:9403  function setFeeBps(uint256 newFeeBps) external onlyOwner {... */\n    tag_9:\n      callvalue\n      dup1\n      iszero\n      tag_48\n      jumpi\n      revert(0x00, 0x00)\n    tag_48:\n      pop\n      tag_49\n      0x04\n      dup1\n      calldatasize\n      sub\n      dup2\n      add\n      swap1\n      tag_50\n      swap2\n      swap1\n      tag_33\n      jump\t// in\n    tag_50:\n      tag_51\n      jump\t// in\n    tag_49:\n      stop\n        /* \"contracts/MyProject.sol\":9463:9687  function withdrawNative(uint256 amount) external onlyOwner {... */\n    tag_10:\n      callvalue\n      dup1\n      iszero\n      tag_52\n      jumpi\n      revert(0x00, 0x00)\n    tag_52:\n      pop\n      tag_53\n      0x04\n      dup1\n      calldatasize\n      sub\n      dup2\n      add\n      swap1\n      tag_54\n      swap2\n      swap1\n      tag_33\n      jump\t// in\n    tag_54:\n      tag_55\n      jump\t// in\n    tag_53:\n      stop\n        /* \"contracts/MyProject.sol\":4441:4484  mapping(uint256 => Payment) public payments */\n    tag_11:\n      callvalue\n      dup1\n      iszero\n      tag_56\n      jumpi\n      revert(0x00, 0x00)\n    tag_56:\n      pop\n      tag_57\n      0x04\n      dup1\n      calldatasize\n      sub\n      dup2\n      add\n      swap1\n      tag_58\n      swap2\n      swap1\n      tag_33\n      jump\t// in\n    tag_58:\n      tag_59\n      jump\t// in\n    tag_57:\n      mload(0x40)\n      tag_60\n      swap11\n      swap10\n      swap9\n      swap8\n      swap7\n      swap6\n      swap5\n      swap4\n      swap3\n      swap2\n      swap1\n      tag_61\n      jump\t// in\n    tag_60:\n      mload(0x40)\n      dup1\n      swap2\n      sub\n      swap1\n      return\n        /* \"contracts/MyProject.sol\":2641:2718  function owner() public view returns (address) {... */\n    tag_12:\n      callvalue\n      dup1\n      iszero\n      tag_62\n      jumpi\n      revert(0x00, 0x00)\n    tag_62:\n      pop\n      tag_63\n      tag_64\n      jump\t// in\n    tag_63:\n      mload(0x40)\n      tag_65\n      swap2\n      swap1\n      tag_66\n      jump\t// in\n    tag_65:\n      mload(0x40)\n      dup1\n      swap2\n      sub\n      swap1\n      return\n        /* \"contracts/MyProject.sol\":5776:7295  function deposit(... */\n    tag_13:\n      callvalue\n      dup1\n      iszero\n      tag_67\n      jumpi\n      revert(0x00, 0x00)\n    tag_67:\n      pop\n      tag_68\n      0x04\n      dup1\n      calldatasize\n      sub\n      dup2\n      add\n      swap1\n      tag_69\n      swap2\n      swap1\n      tag_70\n      jump\t// in\n    tag_69:\n      tag_71\n      jump\t// in\n    tag_68:\n      mload(0x40)\n      tag_72\n      swap2\n      swap1\n      tag_24\n      jump\t// in\n    tag_72:\n      mload(0x40)\n      dup1\n      swap2\n      sub\n      swap1\n      return\n        /* \"contracts/MyProject.sol\":2822:3026  function transferOwnership(address newOwner) public onlyOwner {... */\n    tag_14:\n      callvalue\n      dup1\n      iszero\n      tag_73\n      jumpi\n      revert(0x00, 0x00)\n    tag_73:\n      pop\n      tag_74\n      0x04\n      dup1\n      calldatasize\n      sub\n      dup2\n      add\n      swap1\n      tag_75\n      swap2\n      swap1\n      tag_76\n      jump\t// in\n    tag_75:\n      tag_77\n      jump\t// in\n    tag_74:\n      stop\n        /* \"contracts/MyProject.sol\":3625:3646  uint256 public feeBps */\n    tag_22:\n      sload(0x02)\n      dup2\n      jump\t// out\n        /* \"contracts/MyProject.sol\":7541:8445  function claim(uint256 id, string calldata secret) external nonReentrant {... */\n    tag_29:\n        /* \"contracts/MyProject.sol\":3396:3397  1 */\n      0x01\n        /* \"contracts/MyProject.sol\":3385:3392  _status */\n      dup1\n      sload\n        /* \"contracts/MyProject.sol\":3385:3397  _status == 1 */\n      eq\n        /* \"contracts/MyProject.sol\":3377:3411  require(_status == 1, \"reentrant\") */\n      tag_79\n      jumpi\n      mload(0x40)\n      0x08c379a000000000000000000000000000000000000000000000000000000000\n      dup2\n      mstore\n      0x04\n      add\n      tag_80\n      swap1\n      tag_81\n      jump\t// in\n    tag_80:\n      mload(0x40)\n      dup1\n      swap2\n      sub\n      swap1\n      revert\n    tag_79:\n        /* \"contracts/MyProject.sol\":3431:3432  2 */\n      0x02\n        /* \"contracts/MyProject.sol\":3421:3428  _status */\n      0x01\n        /* \"contracts/MyProject.sol\":3421:3432  _status = 2 */\n      dup2\n      swap1\n      sstore\n      pop\n        /* \"contracts/MyProject.sol\":7624:7641  Payment storage p */\n      0x00\n        /* \"contracts/MyProject.sol\":7644:7652  payments */\n      0x04\n        /* \"contracts/MyProject.sol\":7644:7656  payments[id] */\n      0x00\n        /* \"contracts/MyProject.sol\":7653:7655  id */\n      dup6\n        /* \"contracts/MyProject.sol\":7644:7656  payments[id] */\n      dup2\n      mstore\n      0x20\n      add\n      swap1\n      dup2\n      mstore\n      0x20\n      add\n      0x00\n      keccak256\n        /* \"contracts/MyProject.sol\":7624:7656  Payment storage p = payments[id] */\n      swap1\n      pop\n        /* \"contracts/MyProject.sol\":7693:7694  0 */\n      0x00\n        /* \"contracts/MyProject.sol\":7674:7675  p */\n      dup2\n        /* \"contracts/MyProject.sol\":7674:7690  p.amountReceived */\n      0x03\n      add\n      sload\n        /* \"contracts/MyProject.sol\":7674:7694  p.amountReceived > 0 */\n      gt\n        /* \"contracts/MyProject.sol\":7666:7716  require(p.amountReceived > 0, \"not found or zero\") */\n      tag_83\n      jumpi\n      mload(0x40)\n      0x08c379a000000000000000000000000000000000000000000000000000000000\n      dup2\n      mstore\n      0x04\n      add\n      tag_84\n      swap1\n      tag_85\n      jump\t// in\n    tag_84:\n      mload(0x40)\n      dup1\n      swap2\n      sub\n      swap1\n      revert\n    tag_83:\n        /* \"contracts/MyProject.sol\":7735:7736  p */\n      dup1\n        /* \"contracts/MyProject.sol\":7735:7744  p.claimed */\n      0x08\n      add\n      0x00\n      swap1\n      sload\n      swap1\n      0x0100\n      exp\n      swap1\n      div\n      0xff\n      and\n        /* \"contracts/MyProject.sol\":7734:7744  !p.claimed */\n      iszero\n        /* \"contracts/MyProject.sol\":7726:7764  require(!p.claimed, \"already claimed\") */\n      tag_86\n      jumpi\n      mload(0x40)\n      0x08c379a000000000000000000000000000000000000000000000000000000000\n      dup2\n      mstore\n      0x04\n      add\n      tag_87\n      swap1\n      tag_88\n      jump\t// in\n    tag_87:\n      mload(0x40)\n      dup1\n      swap2\n      sub\n      swap1\n      revert\n    tag_86:\n        /* \"contracts/MyProject.sol\":7783:7784  p */\n      dup1\n        /* \"contracts/MyProject.sol\":7783:7793  p.refunded */\n      0x08\n      add\n      0x01\n      swap1\n      sload\n      swap1\n      0x0100\n      exp\n      swap1\n      div\n      0xff\n      and\n        /* \"contracts/MyProject.sol\":7782:7793  !p.refunded */\n      iszero\n        /* \"contracts/MyProject.sol\":7774:7814  require(!p.refunded, \"already refunded\") */\n      tag_89\n      jumpi\n      mload(0x40)\n      0x08c379a000000000000000000000000000000000000000000000000000000000\n      dup2\n      mstore\n      0x04\n      add\n      tag_90\n      swap1\n      tag_91\n      jump\t// in\n    tag_90:\n      mload(0x40)\n      dup1\n      swap2\n      sub\n      swap1\n      revert\n    tag_89:\n        /* \"contracts/MyProject.sol\":7851:7852  p */\n      dup1\n        /* \"contracts/MyProject.sol\":7851:7861  p.deadline */\n      0x06\n      add\n      sload\n        /* \"contracts/MyProject.sol\":7832:7847  block.timestamp */\n      timestamp\n        /* \"contracts/MyProject.sol\":7832:7861  block.timestamp <= p.deadline */\n      gt\n      iszero\n        /* \"contracts/MyProject.sol\":7824:7879  require(block.timestamp <= p.deadline, \"past deadline\") */\n      tag_92\n      jumpi\n      mload(0x40)\n      0x08c379a000000000000000000000000000000000000000000000000000000000\n      dup2\n      mstore\n      0x04\n      add\n      tag_93\n      swap1\n      tag_94\n      jump\t// in\n    tag_93:\n      mload(0x40)\n      dup1\n      swap2\n      sub\n      swap1\n      revert\n    tag_92:\n        /* \"contracts/MyProject.sol\":7911:7912  p */\n      dup1\n        /* \"contracts/MyProject.sol\":7911:7922  p.recipient */\n      0x04\n      add\n      0x00\n      swap1\n      sload\n      swap1\n      0x0100\n      exp\n      swap1\n      div\n      0xffffffffffffffffffffffffffffffffffffffff\n      and\n        /* \"contracts/MyProject.sol\":7897:7922  msg.sender == p.recipient */\n      0xffffffffffffffffffffffffffffffffffffffff\n      and\n        /* \"contracts/MyProject.sol\":7897:7907  msg.sender */\n      caller\n        /* \"contracts/MyProject.sol\":7897:7922  msg.sender == p.recipient */\n      0xffffffffffffffffffffffffffffffffffffffff\n      and\n      eq\n        /* \"contracts/MyProject.sol\":7889:7940  require(msg.sender == p.recipient, \"not recipient\") */\n      tag_95\n      jumpi\n      mload(0x40)\n      0x08c379a000000000000000000000000000000000000000000000000000000000\n      dup2\n      mstore\n      0x04\n      add\n      tag_96\n      swap1\n      tag_97\n      jump\t// in\n    tag_96:\n      mload(0x40)\n      dup1\n      swap2\n      sub\n      swap1\n      revert\n    tag_95:\n        /* \"contracts/MyProject.sol\":7997:8006  bytes32 h */\n      0x00\n        /* \"contracts/MyProject.sol\":8042:8048  secret */\n      dup4\n      dup4\n        /* \"contracts/MyProject.sol\":8051:8052  p */\n      dup4\n        /* \"contracts/MyProject.sol\":8051:8062  p.recipient */\n      0x04\n      add\n      0x00\n      swap1\n      sload\n      swap1\n      0x0100\n      exp\n      swap1\n      div\n      0xffffffffffffffffffffffffffffffffffffffff\n      and\n        /* \"contracts/MyProject.sol\":8019:8063  abi.encodePacked(bytes(secret), p.recipient) */\n      add(0x20, mload(0x40))\n      tag_98\n      swap4\n      swap3\n      swap2\n      swap1\n      tag_99\n      jump\t// in\n    tag_98:\n      mload(0x40)\n      0x20\n      dup2\n      dup4\n      sub\n      sub\n      dup2\n      mstore\n      swap1\n      0x40\n      mstore\n        /* \"contracts/MyProject.sol\":8009:8064  keccak256(abi.encodePacked(bytes(secret), p.recipient)) */\n      dup1\n      mload\n      swap1\n      0x20\n      add\n      keccak256\n        /* \"contracts/MyProject.sol\":7997:8064  bytes32 h = keccak256(abi.encodePacked(bytes(secret), p.recipient)) */\n      swap1\n      pop\n        /* \"contracts/MyProject.sol\":8087:8088  p */\n      dup2\n        /* \"contracts/MyProject.sol\":8087:8099  p.secretHash */\n      0x07\n      add\n      sload\n        /* \"contracts/MyProject.sol\":8082:8083  h */\n      dup2\n        /* \"contracts/MyProject.sol\":8082:8099  h == p.secretHash */\n      eq\n        /* \"contracts/MyProject.sol\":8074:8118  require(h == p.secretHash, \"invalid secret\") */\n      tag_100\n      jumpi\n      mload(0x40)\n      0x08c379a000000000000000000000000000000000000000000000000000000000\n      dup2\n      mstore\n      0x04\n      add\n      tag_101\n      swap1\n      tag_102\n      jump\t// in\n    tag_101:\n      mload(0x40)\n      dup1\n      swap2\n      sub\n      swap1\n      revert\n    tag_100:\n        /* \"contracts/MyProject.sol\":8141:8145  true */\n      0x01\n        /* \"contracts/MyProject.sol\":8129:8130  p */\n      dup3\n        /* \"contracts/MyProject.sol\":8129:8138  p.claimed */\n      0x08\n      add\n      0x00\n        /* \"contracts/MyProject.sol\":8129:8145  p.claimed = true */\n      0x0100\n      exp\n      dup2\n      sload\n      dup2\n      0xff\n      mul\n      not\n      and\n      swap1\n      dup4\n      iszero\n      iszero\n      mul\n      or\n      swap1\n      sstore\n      pop\n        /* \"contracts/MyProject.sol\":8156:8167  uint256 fee */\n      0x00\n        /* \"contracts/MyProject.sol\":8200:8205  10000 */\n      0x2710\n        /* \"contracts/MyProject.sol\":8190:8196  feeBps */\n      sload(0x02)\n        /* \"contracts/MyProject.sol\":8171:8172  p */\n      dup5\n        /* \"contracts/MyProject.sol\":8171:8187  p.amountReceived */\n      0x03\n      add\n      sload\n        /* \"contracts/MyProject.sol\":8171:8196  p.amountReceived * feeBps */\n      tag_103\n      swap2\n      swap1\n      tag_104\n      jump\t// in\n    tag_103:\n        /* \"contracts/MyProject.sol\":8170:8205  (p.amountReceived * feeBps) / 10000 */\n      tag_105\n      swap2\n      swap1\n      tag_106\n      jump\t// in\n    tag_105:\n        /* \"contracts/MyProject.sol\":8156:8205  uint256 fee = (p.amountReceived * feeBps) / 10000 */\n      swap1\n      pop\n        /* \"contracts/MyProject.sol\":8215:8229  uint256 payout */\n      0x00\n        /* \"contracts/MyProject.sol\":8251:8254  fee */\n      dup2\n        /* \"contracts/MyProject.sol\":8232:8233  p */\n      dup5\n        /* \"contracts/MyProject.sol\":8232:8248  p.amountReceived */\n      0x03\n      add\n      sload\n        /* \"contracts/MyProject.sol\":8232:8254  p.amountReceived - fee */\n      tag_107\n      swap2\n      swap1\n      tag_108\n      jump\t// in\n    tag_107:\n        /* \"contracts/MyProject.sol\":8215:8254  uint256 payout = p.amountReceived - fee */\n      swap1\n      pop\n        /* \"contracts/MyProject.sol\":8265:8317  SafeERC20.safeTransfer(p.token, p.recipient, payout) */\n      tag_109\n        /* \"contracts/MyProject.sol\":8288:8289  p */\n      dup5\n        /* \"contracts/MyProject.sol\":8288:8295  p.token */\n      0x01\n      add\n      0x00\n      swap1\n      sload\n      swap1\n      0x0100\n      exp\n      swap1\n      div\n      0xffffffffffffffffffffffffffffffffffffffff\n      and\n        /* \"contracts/MyProject.sol\":8297:8298  p */\n      dup6\n        /* \"contracts/MyProject.sol\":8297:8308  p.recipient */\n      0x04\n      add\n      0x00\n      swap1\n      sload\n      swap1\n      0x0100\n      exp\n      swap1\n      div\n      0xffffffffffffffffffffffffffffffffffffffff\n      and\n        /* \"contracts/MyProject.sol\":8310:8316  payout */\n      dup4\n        /* \"contracts/MyProject.sol\":8265:8287  SafeERC20.safeTransfer */\n      tag_110\n        /* \"contracts/MyProject.sol\":8265:8317  SafeERC20.safeTransfer(p.token, p.recipient, payout) */\n      jump\t// in\n    tag_109:\n        /* \"contracts/MyProject.sol\":8337:8338  0 */\n      0x00\n        /* \"contracts/MyProject.sol\":8331:8334  fee */\n      dup3\n        /* \"contracts/MyProject.sol\":8331:8338  fee > 0 */\n      gt\n        /* \"contracts/MyProject.sol\":8327:8385  if (fee > 0) SafeERC20.safeTransfer(p.token, owner(), fee) */\n      iszero\n      tag_111\n      jumpi\n        /* \"contracts/MyProject.sol\":8340:8385  SafeERC20.safeTransfer(p.token, owner(), fee) */\n      tag_112\n        /* \"contracts/MyProject.sol\":8363:8364  p */\n      dup5\n        /* \"contracts/MyProject.sol\":8363:8370  p.token */\n      0x01\n      add\n      0x00\n      swap1\n      sload\n      swap1\n      0x0100\n      exp\n      swap1\n      div\n      0xffffffffffffffffffffffffffffffffffffffff\n      and\n        /* \"contracts/MyProject.sol\":8372:8379  owner() */\n      tag_113\n        /* \"contracts/MyProject.sol\":8372:8377  owner */\n      tag_64\n        /* \"contracts/MyProject.sol\":8372:8379  owner() */\n      jump\t// in\n    tag_113:\n        /* \"contracts/MyProject.sol\":8381:8384  fee */\n      dup5\n        /* \"contracts/MyProject.sol\":8340:8362  SafeERC20.safeTransfer */\n      tag_110\n        /* \"contracts/MyProject.sol\":8340:8385  SafeERC20.safeTransfer(p.token, owner(), fee) */\n      jump\t// in\n    tag_112:\n        /* \"contracts/MyProject.sol\":8327:8385  if (fee > 0) SafeERC20.safeTransfer(p.token, owner(), fee) */\n    tag_111:\n        /* \"contracts/MyProject.sol\":8413:8414  p */\n      dup4\n        /* \"contracts/MyProject.sol\":8413:8424  p.recipient */\n      0x04\n      add\n      0x00\n      swap1\n      sload\n      swap1\n      0x0100\n      exp\n      swap1\n      div\n      0xffffffffffffffffffffffffffffffffffffffff\n      and\n        /* \"contracts/MyProject.sol\":8401:8438  Claimed(id, p.recipient, payout, fee) */\n      0xffffffffffffffffffffffffffffffffffffffff\n      and\n        /* \"contracts/MyProject.sol\":8409:8411  id */\n      dup8\n        /* \"contracts/MyProject.sol\":8401:8438  Claimed(id, p.recipient, payout, fee) */\n      0xd9cb1e2714d65a111c0f20f060176ad657496bd47a3de04ec7c3d4ca232112ac\n        /* \"contracts/MyProject.sol\":8426:8432  payout */\n      dup4\n        /* \"contracts/MyProject.sol\":8434:8437  fee */\n      dup6\n        /* \"contracts/MyProject.sol\":8401:8438  Claimed(id, p.recipient, payout, fee) */\n      mload(0x40)\n      tag_114\n      swap3\n      swap2\n      swap1\n      tag_115\n      jump\t// in\n    tag_114:\n      mload(0x40)\n      dup1\n      swap2\n      sub\n      swap1\n      log3\n        /* \"contracts/MyProject.sol\":7614:8445  {... */\n      pop\n      pop\n      pop\n      pop\n        /* \"contracts/MyProject.sol\":3463:3464  1 */\n      0x01\n        /* \"contracts/MyProject.sol\":3453:3460  _status */\n      dup1\n        /* \"contracts/MyProject.sol\":3453:3464  _status = 1 */\n      dup2\n      swap1\n      sstore\n      pop\n        /* \"contracts/MyProject.sol\":7541:8445  function claim(uint256 id, string calldata secret) external nonReentrant {... */\n      pop\n      pop\n      pop\n      jump\t// out\n        /* \"contracts/MyProject.sol\":8561:9157  function refund(uint256 id) external nonReentrant {... */\n    tag_34:\n        /* \"contracts/MyProject.sol\":3396:3397  1 */\n      0x01\n        /* \"contracts/MyProject.sol\":3385:3392  _status */\n      dup1\n      sload\n        /* \"contracts/MyProject.sol\":3385:3397  _status == 1 */\n      eq\n        /* \"contracts/MyProject.sol\":3377:3411  require(_status == 1, \"reentrant\") */\n      tag_117\n      jumpi\n      mload(0x40)\n      0x08c379a000000000000000000000000000000000000000000000000000000000\n      dup2\n      mstore\n      0x04\n      add\n      tag_118\n      swap1\n      tag_81\n      jump\t// in\n    tag_118:\n      mload(0x40)\n      dup1\n      swap2\n      sub\n      swap1\n      revert\n    tag_117:\n        /* \"contracts/MyProject.sol\":3431:3432  2 */\n      0x02\n        /* \"contracts/MyProject.sol\":3421:3428  _status */\n      0x01\n        /* \"contracts/MyProject.sol\":3421:3432  _status = 2 */\n      dup2\n      swap1\n      sstore\n      pop\n        /* \"contracts/MyProject.sol\":8621:8638  Payment storage p */\n      0x00\n        /* \"contracts/MyProject.sol\":8641:8649  payments */\n      0x04\n        /* \"contracts/MyProject.sol\":8641:8653  payments[id] */\n      0x00\n        /* \"contracts/MyProject.sol\":8650:8652  id */\n      dup4\n        /* \"contracts/MyProject.sol\":8641:8653  payments[id] */\n      dup2\n      mstore\n      0x20\n      add\n      swap1\n      dup2\n      mstore\n      0x20\n      add\n      0x00\n      keccak256\n        /* \"contracts/MyProject.sol\":8621:8653  Payment storage p = payments[id] */\n      swap1\n      pop\n        /* \"contracts/MyProject.sol\":8690:8691  0 */\n      0x00\n        /* \"contracts/MyProject.sol\":8671:8672  p */\n      dup2\n        /* \"contracts/MyProject.sol\":8671:8687  p.amountReceived */\n      0x03\n      add\n      sload\n        /* \"contracts/MyProject.sol\":8671:8691  p.amountReceived > 0 */\n      gt\n        /* \"contracts/MyProject.sol\":8663:8713  require(p.amountReceived > 0, \"not found or zero\") */\n      tag_120\n      jumpi\n      mload(0x40)\n      0x08c379a000000000000000000000000000000000000000000000000000000000\n      dup2\n      mstore\n      0x04\n      add\n      tag_121\n      swap1\n      tag_85\n      jump\t// in\n    tag_121:\n      mload(0x40)\n      dup1\n      swap2\n      sub\n      swap1\n      revert\n    tag_120:\n        /* \"contracts/MyProject.sol\":8732:8733  p */\n      dup1\n        /* \"contracts/MyProject.sol\":8732:8741  p.claimed */\n      0x08\n      add\n      0x00\n      swap1\n      sload\n      swap1\n      0x0100\n      exp\n      swap1\n      div\n      0xff\n      and\n        /* \"contracts/MyProject.sol\":8731:8741  !p.claimed */\n      iszero\n        /* \"contracts/MyProject.sol\":8723:8761  require(!p.claimed, \"already claimed\") */\n      tag_122\n      jumpi\n      mload(0x40)\n      0x08c379a000000000000000000000000000000000000000000000000000000000\n      dup2\n      mstore\n      0x04\n      add\n      tag_123\n      swap1\n      tag_88\n      jump\t// in\n    tag_123:\n      mload(0x40)\n      dup1\n      swap2\n      sub\n      swap1\n      revert\n    tag_122:\n        /* \"contracts/MyProject.sol\":8780:8781  p */\n      dup1\n        /* \"contracts/MyProject.sol\":8780:8790  p.refunded */\n      0x08\n      add\n      0x01\n      swap1\n      sload\n      swap1\n      0x0100\n      exp\n      swap1\n      div\n      0xff\n      and\n        /* \"contracts/MyProject.sol\":8779:8790  !p.refunded */\n      iszero\n        /* \"contracts/MyProject.sol\":8771:8811  require(!p.refunded, \"already refunded\") */\n      tag_124\n      jumpi\n      mload(0x40)\n      0x08c379a000000000000000000000000000000000000000000000000000000000\n      dup2\n      mstore\n      0x04\n      add\n      tag_125\n      swap1\n      tag_91\n      jump\t// in\n    tag_125:\n      mload(0x40)\n      dup1\n      swap2\n      sub\n      swap1\n      revert\n    tag_124:\n        /* \"contracts/MyProject.sol\":8847:8848  p */\n      dup1\n        /* \"contracts/MyProject.sol\":8847:8857  p.deadline */\n      0x06\n      add\n      sload\n        /* \"contracts/MyProject.sol\":8829:8844  block.timestamp */\n      timestamp\n        /* \"contracts/MyProject.sol\":8829:8857  block.timestamp > p.deadline */\n      gt\n        /* \"contracts/MyProject.sol\":8821:8873  require(block.timestamp > p.deadline, \"not expired\") */\n      tag_126\n      jumpi\n      mload(0x40)\n      0x08c379a000000000000000000000000000000000000000000000000000000000\n      dup2\n      mstore\n      0x04\n      add\n      tag_127\n      swap1\n      tag_128\n      jump\t// in\n    tag_127:\n      mload(0x40)\n      dup1\n      swap2\n      sub\n      swap1\n      revert\n    tag_126:\n        /* \"contracts/MyProject.sol\":8905:8906  p */\n      dup1\n        /* \"contracts/MyProject.sol\":8905:8913  p.sender */\n      0x00\n      add\n      0x00\n      swap1\n      sload\n      swap1\n      0x0100\n      exp\n      swap1\n      div\n      0xffffffffffffffffffffffffffffffffffffffff\n      and\n        /* \"contracts/MyProject.sol\":8891:8913  msg.sender == p.sender */\n      0xffffffffffffffffffffffffffffffffffffffff\n      and\n        /* \"contracts/MyProject.sol\":8891:8901  msg.sender */\n      caller\n        /* \"contracts/MyProject.sol\":8891:8913  msg.sender == p.sender */\n      0xffffffffffffffffffffffffffffffffffffffff\n      and\n      eq\n        /* \"contracts/MyProject.sol\":8883:8928  require(msg.sender == p.sender, \"not sender\") */\n      tag_129\n      jumpi\n      mload(0x40)\n      0x08c379a000000000000000000000000000000000000000000000000000000000\n      dup2\n      mstore\n      0x04\n      add\n      tag_130\n      swap1\n      tag_131\n      jump\t// in\n    tag_130:\n      mload(0x40)\n      dup1\n      swap2\n      sub\n      swap1\n      revert\n    tag_129:\n        /* \"contracts/MyProject.sol\":8952:8956  true */\n      0x01\n        /* \"contracts/MyProject.sol\":8939:8940  p */\n      dup2\n        /* \"contracts/MyProject.sol\":8939:8949  p.refunded */\n      0x08\n      add\n      0x01\n        /* \"contracts/MyProject.sol\":8939:8956  p.refunded = true */\n      0x0100\n      exp\n      dup2\n      sload\n      dup2\n      0xff\n      mul\n      not\n      and\n      swap1\n      dup4\n      iszero\n      iszero\n      mul\n      or\n      swap1\n      sstore\n      pop\n        /* \"contracts/MyProject.sol\":9035:9094  SafeERC20.safeTransfer(p.token, p.sender, p.amountReceived) */\n      tag_132\n        /* \"contracts/MyProject.sol\":9058:9059  p */\n      dup2\n        /* \"contracts/MyProject.sol\":9058:9065  p.token */\n      0x01\n      add\n      0x00\n      swap1\n      sload\n      swap1\n      0x0100\n      exp\n      swap1\n      div\n      0xffffffffffffffffffffffffffffffffffffffff\n      and\n        /* \"contracts/MyProject.sol\":9067:9068  p */\n      dup3\n        /* \"contracts/MyProject.sol\":9067:9075  p.sender */\n      0x00\n      add\n      0x00\n      swap1\n      sload\n      swap1\n      0x0100\n      exp\n      swap1\n      div\n      0xffffffffffffffffffffffffffffffffffffffff\n      and\n        /* \"contracts/MyProject.sol\":9077:9078  p */\n      dup4\n        /* \"contracts/MyProject.sol\":9077:9093  p.amountReceived */\n      0x03\n      add\n      sload\n        /* \"contracts/MyProject.sol\":9035:9057  SafeERC20.safeTransfer */\n      tag_110\n        /* \"contracts/MyProject.sol\":9035:9094  SafeERC20.safeTransfer(p.token, p.sender, p.amountReceived) */\n      jump\t// in\n    tag_132:\n        /* \"contracts/MyProject.sol\":9123:9124  p */\n      dup1\n        /* \"contracts/MyProject.sol\":9123:9131  p.sender */\n      0x00\n      add\n      0x00\n      swap1\n      sload\n      swap1\n      0x0100\n      exp\n      swap1\n      div\n      0xffffffffffffffffffffffffffffffffffffffff\n      and\n        /* \"contracts/MyProject.sol\":9110:9150  Refunded(id, p.sender, p.amountReceived) */\n      0xffffffffffffffffffffffffffffffffffffffff\n      and\n        /* \"contracts/MyProject.sol\":9119:9121  id */\n      dup3\n        /* \"contracts/MyProject.sol\":9110:9150  Refunded(id, p.sender, p.amountReceived) */\n      0x7ca5472b7ea78c2c0141c5a12ee6d170cf4ce8ed06be3d22c8252ddfc7a6a2c4\n        /* \"contracts/MyProject.sol\":9133:9134  p */\n      dup4\n        /* \"contracts/MyProject.sol\":9133:9149  p.amountReceived */\n      0x03\n      add\n      sload\n        /* \"contracts/MyProject.sol\":9110:9150  Refunded(id, p.sender, p.amountReceived) */\n      mload(0x40)\n      tag_133\n      swap2\n      swap1\n      tag_24\n      jump\t// in\n    tag_133:\n      mload(0x40)\n      dup1\n      swap2\n      sub\n      swap1\n      log3\n        /* \"contracts/MyProject.sol\":8611:9157  {... */\n      pop\n        /* \"contracts/MyProject.sol\":3463:3464  1 */\n      0x01\n        /* \"contracts/MyProject.sol\":3453:3460  _status */\n      dup1\n        /* \"contracts/MyProject.sol\":3453:3464  _status = 1 */\n      dup2\n      swap1\n      sstore\n      pop\n        /* \"contracts/MyProject.sol\":8561:9157  function refund(uint256 id) external nonReentrant {... */\n      pop\n      jump\t// out\n        /* \"contracts/MyProject.sol\":9777:9884  function getPayment(uint256 id) external view returns (Payment memory) {... */\n    tag_38:\n        /* \"contracts/MyProject.sol\":9832:9846  Payment memory */\n      tag_134\n      tag_135\n      jump\t// in\n    tag_134:\n        /* \"contracts/MyProject.sol\":9865:9873  payments */\n      0x04\n        /* \"contracts/MyProject.sol\":9865:9877  payments[id] */\n      0x00\n        /* \"contracts/MyProject.sol\":9874:9876  id */\n      dup4\n        /* \"contracts/MyProject.sol\":9865:9877  payments[id] */\n      dup2\n      mstore\n      0x20\n      add\n      swap1\n      dup2\n      mstore\n      0x20\n      add\n      0x00\n      keccak256\n        /* \"contracts/MyProject.sol\":9858:9877  return payments[id] */\n      mload(0x40)\n      dup1\n      0x0140\n      add\n      0x40\n      mstore\n      swap1\n      dup2\n      0x00\n      dup3\n      add\n      0x00\n      swap1\n      sload\n      swap1\n      0x0100\n      exp\n      swap1\n      div\n      0xffffffffffffffffffffffffffffffffffffffff\n      and\n      0xffffffffffffffffffffffffffffffffffffffff\n      and\n      0xffffffffffffffffffffffffffffffffffffffff\n      and\n      dup2\n      mstore\n      0x20\n      add\n      0x01\n      dup3\n      add\n      0x00\n      swap1\n      sload\n      swap1\n      0x0100\n      exp\n      swap1\n      div\n      0xffffffffffffffffffffffffffffffffffffffff\n      and\n      0xffffffffffffffffffffffffffffffffffffffff\n      and\n      0xffffffffffffffffffffffffffffffffffffffff\n      and\n      dup2\n      mstore\n      0x20\n      add\n      0x02\n      dup3\n      add\n      sload\n      dup2\n      mstore\n      0x20\n      add\n      0x03\n      dup3\n      add\n      sload\n      dup2\n      mstore\n      0x20\n      add\n      0x04\n      dup3\n      add\n      0x00\n      swap1\n      sload\n      swap1\n      0x0100\n      exp\n      swap1\n      div\n      0xffffffffffffffffffffffffffffffffffffffff\n      and\n      0xffffffffffffffffffffffffffffffffffffffff\n      and\n      0xffffffffffffffffffffffffffffffffffffffff\n      and\n      dup2\n      mstore\n      0x20\n      add\n      0x05\n      dup3\n      add\n      sload\n      dup2\n      mstore\n      0x20\n      add\n      0x06\n      dup3\n      add\n      sload\n      dup2\n      mstore\n      0x20\n      add\n      0x07\n      dup3\n      add\n      sload\n      dup2\n      mstore\n      0x20\n      add\n      0x08\n      dup3\n      add\n      0x00\n      swap1\n      sload\n      swap1\n      0x0100\n      exp\n      swap1\n      div\n      0xff\n      and\n      iszero\n      iszero\n      iszero\n      iszero\n      dup2\n      mstore\n      0x20\n      add\n      0x08\n      dup3\n      add\n      0x01\n      swap1\n      sload\n      swap1\n      0x0100\n      exp\n      swap1\n      div\n      0xff\n      and\n      iszero\n      iszero\n      iszero\n      iszero\n      dup2\n      mstore\n      pop\n      pop\n      swap1\n      pop\n        /* \"contracts/MyProject.sol\":9777:9884  function getPayment(uint256 id) external view returns (Payment memory) {... */\n      swap2\n      swap1\n      pop\n      jump\t// out\n        /* \"contracts/MyProject.sol\":3664:3685  uint256 public nextId */\n    tag_43:\n      sload(0x03)\n      dup2\n      jump\t// out\n        /* \"contracts/MyProject.sol\":3032:3169  function renounceOwnership() public onlyOwner {... */\n    tag_47:\n        /* \"contracts/MyProject.sol\":2777:2783  _owner */\n      0x00\n      0x00\n      swap1\n      sload\n      swap1\n      0x0100\n      exp\n      swap1\n      div\n      0xffffffffffffffffffffffffffffffffffffffff\n      and\n        /* \"contracts/MyProject.sol\":2763:2783  msg.sender == _owner */\n      0xffffffffffffffffffffffffffffffffffffffff\n      and\n        /* \"contracts/MyProject.sol\":2763:2773  msg.sender */\n      caller\n        /* \"contracts/MyProject.sol\":2763:2783  msg.sender == _owner */\n      0xffffffffffffffffffffffffffffffffffffffff\n      and\n      eq\n        /* \"contracts/MyProject.sol\":2755:2798  require(msg.sender == _owner, \"only owner\") */\n      tag_138\n      jumpi\n      mload(0x40)\n      0x08c379a000000000000000000000000000000000000000000000000000000000\n      dup2\n      mstore\n      0x04\n      add\n      tag_139\n      swap1\n      tag_140\n      jump\t// in\n    tag_139:\n      mload(0x40)\n      dup1\n      swap2\n      sub\n      swap1\n      revert\n    tag_138:\n        /* \"contracts/MyProject.sol\":3130:3131  0 */\n      0x00\n        /* \"contracts/MyProject.sol\":3093:3133  OwnershipTransferred(_owner, address(0)) */\n      0xffffffffffffffffffffffffffffffffffffffff\n      and\n        /* \"contracts/MyProject.sol\":3114:3120  _owner */\n      0x00\n      0x00\n      swap1\n      sload\n      swap1\n      0x0100\n      exp\n      swap1\n      div\n      0xffffffffffffffffffffffffffffffffffffffff\n      and\n        /* \"contracts/MyProject.sol\":3093:3133  OwnershipTransferred(_owner, address(0)) */\n      0xffffffffffffffffffffffffffffffffffffffff\n      and\n      0x8be0079c531659141344cd1fd0a4f28419497f9722a3daafe3b4186f6b6457e0\n      mload(0x40)\n      mload(0x40)\n      dup1\n      swap2\n      sub\n      swap1\n      log3\n        /* \"contracts/MyProject.sol\":3160:3161  0 */\n      0x00\n        /* \"contracts/MyProject.sol\":3143:3149  _owner */\n      0x00\n      0x00\n        /* \"contracts/MyProject.sol\":3143:3162  _owner = address(0) */\n      0x0100\n      exp\n      dup2\n      sload\n      dup2\n      0xffffffffffffffffffffffffffffffffffffffff\n      mul\n      not\n      and\n      swap1\n      dup4\n      0xffffffffffffffffffffffffffffffffffffffff\n      and\n      mul\n      or\n      swap1\n      sstore\n      pop\n        /* \"contracts/MyProject.sol\":3032:3169  function renounceOwnership() public onlyOwner {... */\n      jump\t// out\n        /* \"contracts/MyProject.sol\":9213:9403  function setFeeBps(uint256 newFeeBps) external onlyOwner {... */\n    tag_51:\n        /* \"contracts/MyProject.sol\":2777:2783  _owner */\n      0x00\n      0x00\n      swap1\n      sload\n      swap1\n      0x0100\n      exp\n      swap1\n      div\n      0xffffffffffffffffffffffffffffffffffffffff\n      and\n        /* \"contracts/MyProject.sol\":2763:2783  msg.sender == _owner */\n      0xffffffffffffffffffffffffffffffffffffffff\n      and\n        /* \"contracts/MyProject.sol\":2763:2773  msg.sender */\n      caller\n        /* \"contracts/MyProject.sol\":2763:2783  msg.sender == _owner */\n      0xffffffffffffffffffffffffffffffffffffffff\n      and\n      eq\n        /* \"contracts/MyProject.sol\":2755:2798  require(msg.sender == _owner, \"only owner\") */\n      tag_143\n      jumpi\n      mload(0x40)\n      0x08c379a000000000000000000000000000000000000000000000000000000000\n      dup2\n      mstore\n      0x04\n      add\n      tag_144\n      swap1\n      tag_140\n      jump\t// in\n    tag_144:\n      mload(0x40)\n      dup1\n      swap2\n      sub\n      swap1\n      revert\n    tag_143:\n        /* \"contracts/MyProject.sol\":9301:9306  10000 */\n      0x2710\n        /* \"contracts/MyProject.sol\":9288:9297  newFeeBps */\n      dup2\n        /* \"contracts/MyProject.sol\":9288:9306  newFeeBps <= 10000 */\n      gt\n      iszero\n        /* \"contracts/MyProject.sol\":9280:9324  require(newFeeBps <= 10000, \"feeBps<=10000\") */\n      tag_146\n      jumpi\n      mload(0x40)\n      0x08c379a000000000000000000000000000000000000000000000000000000000\n      dup2\n      mstore\n      0x04\n      add\n      tag_147\n      swap1\n      tag_148\n      jump\t// in\n    tag_147:\n      mload(0x40)\n      dup1\n      swap2\n      sub\n      swap1\n      revert\n    tag_146:\n        /* \"contracts/MyProject.sol\":9339:9368  FeeChanged(feeBps, newFeeBps) */\n      0x5fc463da23c1b063e66f9e352006a7fbe8db7223c455dc429e881a2dfe2f94f1\n        /* \"contracts/MyProject.sol\":9350:9356  feeBps */\n      sload(0x02)\n        /* \"contracts/MyProject.sol\":9358:9367  newFeeBps */\n      dup3\n        /* \"contracts/MyProject.sol\":9339:9368  FeeChanged(feeBps, newFeeBps) */\n      mload(0x40)\n      tag_149\n      swap3\n      swap2\n      swap1\n      tag_115\n      jump\t// in\n    tag_149:\n      mload(0x40)\n      dup1\n      swap2\n      sub\n      swap1\n      log1\n        /* \"contracts/MyProject.sol\":9387:9396  newFeeBps */\n      dup1\n        /* \"contracts/MyProject.sol\":9378:9384  feeBps */\n      0x02\n        /* \"contracts/MyProject.sol\":9378:9396  feeBps = newFeeBps */\n      dup2\n      swap1\n      sstore\n      pop\n        /* \"contracts/MyProject.sol\":9213:9403  function setFeeBps(uint256 newFeeBps) external onlyOwner {... */\n      pop\n      jump\t// out\n        /* \"contracts/MyProject.sol\":9463:9687  function withdrawNative(uint256 amount) external onlyOwner {... */\n    tag_55:\n        /* \"contracts/MyProject.sol\":2777:2783  _owner */\n      0x00\n      0x00\n      swap1\n      sload\n      swap1\n      0x0100\n      exp\n      swap1\n      div\n      0xffffffffffffffffffffffffffffffffffffffff\n      and\n        /* \"contracts/MyProject.sol\":2763:2783  msg.sender == _owner */\n      0xffffffffffffffffffffffffffffffffffffffff\n      and\n        /* \"contracts/MyProject.sol\":2763:2773  msg.sender */\n      caller\n        /* \"contracts/MyProject.sol\":2763:2783  msg.sender == _owner */\n      0xffffffffffffffffffffffffffffffffffffffff\n      and\n      eq\n        /* \"contracts/MyProject.sol\":2755:2798  require(msg.sender == _owner, \"only owner\") */\n      tag_151\n      jumpi\n      mload(0x40)\n      0x08c379a000000000000000000000000000000000000000000000000000000000\n      dup2\n      mstore\n      0x04\n      add\n      tag_152\n      swap1\n      tag_140\n      jump\t// in\n    tag_152:\n      mload(0x40)\n      dup1\n      swap2\n      sub\n      swap1\n      revert\n    tag_151:\n        /* \"contracts/MyProject.sol\":9565:9571  amount */\n      dup1\n        /* \"contracts/MyProject.sol\":9540:9561  address(this).balance */\n      selfbalance\n        /* \"contracts/MyProject.sol\":9540:9571  address(this).balance >= amount */\n      lt\n      iszero\n        /* \"contracts/MyProject.sol\":9532:9595  require(address(this).balance >= amount, \"insufficient native\") */\n      tag_154\n      jumpi\n      mload(0x40)\n      0x08c379a000000000000000000000000000000000000000000000000000000000\n      dup2\n      mstore\n      0x04\n      add\n      tag_155\n      swap1\n      tag_156\n      jump\t// in\n    tag_155:\n      mload(0x40)\n      dup1\n      swap2\n      sub\n      swap1\n      revert\n    tag_154:\n        /* \"contracts/MyProject.sol\":9613:9620  owner() */\n      tag_157\n        /* \"contracts/MyProject.sol\":9613:9618  owner */\n      tag_64\n        /* \"contracts/MyProject.sol\":9613:9620  owner() */\n      jump\t// in\n    tag_157:\n        /* \"contracts/MyProject.sol\":9605:9630  payable(owner()).transfer */\n      0xffffffffffffffffffffffffffffffffffffffff\n      and\n        /* \"contracts/MyProject.sol\":9605:9638  payable(owner()).transfer(amount) */\n      0x08fc\n        /* \"contracts/MyProject.sol\":9631:9637  amount */\n      dup3\n        /* \"contracts/MyProject.sol\":9605:9638  payable(owner()).transfer(amount) */\n      swap1\n      dup2\n      iszero\n      mul\n      swap1\n      mload(0x40)\n      0x00\n      mload(0x40)\n      dup1\n      dup4\n      sub\n      dup2\n      dup6\n      dup9\n      dup9\n      call\n      swap4\n      pop\n      pop\n      pop\n      pop\n      iszero\n      dup1\n      iszero\n      tag_159\n      jumpi\n      returndatacopy(0x00, 0x00, returndatasize)\n      revert(0x00, returndatasize)\n    tag_159:\n      pop\n        /* \"contracts/MyProject.sol\":9653:9680  OwnerWithdrawNative(amount) */\n      0x6e4c84161cdb053c0fd0ad9dfd1b7e4e50a718125358c96a036c95a19eb0a905\n        /* \"contracts/MyProject.sol\":9673:9679  amount */\n      dup2\n        /* \"contracts/MyProject.sol\":9653:9680  OwnerWithdrawNative(amount) */\n      mload(0x40)\n      tag_160\n      swap2\n      swap1\n      tag_24\n      jump\t// in\n    tag_160:\n      mload(0x40)\n      dup1\n      swap2\n      sub\n      swap1\n      log1\n        /* \"contracts/MyProject.sol\":9463:9687  function withdrawNative(uint256 amount) external onlyOwner {... */\n      pop\n      jump\t// out\n        /* \"contracts/MyProject.sol\":4441:4484  mapping(uint256 => Payment) public payments */\n    tag_59:\n      mstore(0x20, 0x04)\n      dup1\n      0x00\n      mstore\n      keccak256(0x00, 0x40)\n      0x00\n      swap2\n      pop\n      swap1\n      pop\n      dup1\n      0x00\n      add\n      0x00\n      swap1\n      sload\n      swap1\n      0x0100\n      exp\n      swap1\n      div\n      0xffffffffffffffffffffffffffffffffffffffff\n      and\n      swap1\n      dup1\n      0x01\n      add\n      0x00\n      swap1\n      sload\n      swap1\n      0x0100\n      exp\n      swap1\n      div\n      0xffffffffffffffffffffffffffffffffffffffff\n      and\n      swap1\n      dup1\n      0x02\n      add\n      sload\n      swap1\n      dup1\n      0x03\n      add\n      sload\n      swap1\n      dup1\n      0x04\n      add\n      0x00\n      swap1\n      sload\n      swap1\n      0x0100\n      exp\n      swap1\n      div\n      0xffffffffffffffffffffffffffffffffffffffff\n      and\n      swap1\n      dup1\n      0x05\n      add\n      sload\n      swap1\n      dup1\n      0x06\n      add\n      sload\n      swap1\n      dup1\n      0x07\n      add\n      sload\n      swap1\n      dup1\n      0x08\n      add\n      0x00\n      swap1\n      sload\n      swap1\n      0x0100\n      exp\n      swap1\n      div\n      0xff\n      and\n      swap1\n      dup1\n      0x08\n      add\n      0x01\n      swap1\n      sload\n      swap1\n      0x0100\n      exp\n      swap1\n      div\n      0xff\n      and\n      swap1\n      pop\n      dup11\n      jump\t// out\n        /* \"contracts/MyProject.sol\":2641:2718  function owner() public view returns (address) {... */\n    tag_64:\n        /* \"contracts/MyProject.sol\":2679:2686  address */\n      0x00\n        /* \"contracts/MyProject.sol\":2705:2711  _owner */\n      0x00\n      0x00\n      swap1\n      sload\n      swap1\n      0x0100\n      exp\n      swap1\n      div\n      0xffffffffffffffffffffffffffffffffffffffff\n      and\n        /* \"contracts/MyProject.sol\":2698:2711  return _owner */\n      swap1\n      pop\n        /* \"contracts/MyProject.sol\":2641:2718  function owner() public view returns (address) {... */\n      swap1\n      jump\t// out\n        /* \"contracts/MyProject.sol\":5776:7295  function deposit(... */\n    tag_71:\n        /* \"contracts/MyProject.sol\":5953:5963  uint256 id */\n      0x00\n        /* \"contracts/MyProject.sol\":6000:6001  0 */\n      0x00\n        /* \"contracts/MyProject.sol\":5983:6002  token != address(0) */\n      0xffffffffffffffffffffffffffffffffffffffff\n      and\n        /* \"contracts/MyProject.sol\":5983:5988  token */\n      dup7\n        /* \"contracts/MyProject.sol\":5983:6002  token != address(0) */\n      0xffffffffffffffffffffffffffffffffffffffff\n      and\n      sub\n        /* \"contracts/MyProject.sol\":5975:6017  require(token != address(0), \"token zero\") */\n      tag_163\n      jumpi\n      mload(0x40)\n      0x08c379a000000000000000000000000000000000000000000000000000000000\n      dup2\n      mstore\n      0x04\n      add\n      tag_164\n      swap1\n      tag_165\n      jump\t// in\n    tag_164:\n      mload(0x40)\n      dup1\n      swap2\n      sub\n      swap1\n      revert\n    tag_163:\n        /* \"contracts/MyProject.sol\":6052:6053  0 */\n      0x00\n        /* \"contracts/MyProject.sol\":6035:6049  amountExpected */\n      dup6\n        /* \"contracts/MyProject.sol\":6035:6053  amountExpected > 0 */\n      gt\n        /* \"contracts/MyProject.sol\":6027:6066  require(amountExpected > 0, \"amount>0\") */\n      tag_166\n      jumpi\n      mload(0x40)\n      0x08c379a000000000000000000000000000000000000000000000000000000000\n      dup2\n      mstore\n      0x04\n      add\n      tag_167\n      swap1\n      tag_168\n      jump\t// in\n    tag_167:\n      mload(0x40)\n      dup1\n      swap2\n      sub\n      swap1\n      revert\n    tag_166:\n        /* \"contracts/MyProject.sol\":6105:6106  0 */\n      0x00\n        /* \"contracts/MyProject.sol\":6084:6107  recipient != address(0) */\n      0xffffffffffffffffffffffffffffffffffffffff\n      and\n        /* \"contracts/MyProject.sol\":6084:6093  recipient */\n      dup5\n        /* \"contracts/MyProject.sol\":6084:6107  recipient != address(0) */\n      0xffffffffffffffffffffffffffffffffffffffff\n      and\n      sub\n        /* \"contracts/MyProject.sol\":6076:6126  require(recipient != address(0), \"recipient zero\") */\n      tag_169\n      jumpi\n      mload(0x40)\n      0x08c379a000000000000000000000000000000000000000000000000000000000\n      dup2\n      mstore\n      0x04\n      add\n      tag_170\n      swap1\n      tag_171\n      jump\t// in\n    tag_170:\n      mload(0x40)\n      dup1\n      swap2\n      sub\n      swap1\n      revert\n    tag_169:\n        /* \"contracts/MyProject.sol\":6166:6167  0 */\n      0x00\n        /* \"contracts/MyProject.sol\":6158:6168  bytes32(0) */\n      0x00\n      shl\n        /* \"contracts/MyProject.sol\":6144:6154  secretHash */\n      dup3\n        /* \"contracts/MyProject.sol\":6144:6168  secretHash != bytes32(0) */\n      sub\n        /* \"contracts/MyProject.sol\":6136:6188  require(secretHash != bytes32(0), \"secretHash zero\") */\n      tag_172\n      jumpi\n      mload(0x40)\n      0x08c379a000000000000000000000000000000000000000000000000000000000\n      dup2\n      mstore\n      0x04\n      add\n      tag_173\n      swap1\n      tag_174\n      jump\t// in\n    tag_173:\n      mload(0x40)\n      dup1\n      swap2\n      sub\n      swap1\n      revert\n    tag_172:\n        /* \"contracts/MyProject.sol\":6236:6238  60 */\n      0x3c\n        /* \"contracts/MyProject.sol\":6218:6233  block.timestamp */\n      timestamp\n        /* \"contracts/MyProject.sol\":6218:6238  block.timestamp + 60 */\n      tag_175\n      swap2\n      swap1\n      tag_176\n      jump\t// in\n    tag_175:\n        /* \"contracts/MyProject.sol\":6206:6214  deadline */\n      dup4\n        /* \"contracts/MyProject.sol\":6206:6238  deadline >= block.timestamp + 60 */\n      lt\n      iszero\n        /* \"contracts/MyProject.sol\":6198:6260  require(deadline >= block.timestamp + 60, \"deadline too soon\") */\n      tag_177\n      jumpi\n      mload(0x40)\n      0x08c379a000000000000000000000000000000000000000000000000000000000\n      dup2\n      mstore\n      0x04\n      add\n      tag_178\n      swap1\n      tag_179\n      jump\t// in\n    tag_178:\n      mload(0x40)\n      dup1\n      swap2\n      sub\n      swap1\n      revert\n    tag_177:\n        /* \"contracts/MyProject.sol\":6300:6317  uint256 balBefore */\n      0x00\n        /* \"contracts/MyProject.sol\":6327:6332  token */\n      dup7\n        /* \"contracts/MyProject.sol\":6320:6343  IERC20(token).balanceOf */\n      0xffffffffffffffffffffffffffffffffffffffff\n      and\n      0x70a08231\n        /* \"contracts/MyProject.sol\":6352:6356  this */\n      address\n        /* \"contracts/MyProject.sol\":6320:6358  IERC20(token).balanceOf(address(this)) */\n      mload(0x40)\n      dup3\n      0xffffffff\n      and\n      0xe0\n      shl\n      dup2\n      mstore\n      0x04\n      add\n      tag_180\n      swap2\n      swap1\n      tag_66\n      jump\t// in\n    tag_180:\n      0x20\n      mload(0x40)\n      dup1\n      dup4\n      sub\n      dup2\n      dup7\n      gas\n      staticcall\n      iszero\n      dup1\n      iszero\n      tag_182\n      jumpi\n      returndatacopy(0x00, 0x00, returndatasize)\n      revert(0x00, returndatasize)\n    tag_182:\n      pop\n      pop\n      pop\n      pop\n      mload(0x40)\n      returndatasize\n      not(0x1f)\n      0x1f\n      dup3\n      add\n      and\n      dup3\n      add\n      dup1\n      0x40\n      mstore\n      pop\n      dup2\n      add\n      swap1\n      tag_183\n      swap2\n      swap1\n      tag_184\n      jump\t// in\n    tag_183:\n        /* \"contracts/MyProject.sol\":6300:6358  uint256 balBefore = IERC20(token).balanceOf(address(this)) */\n      swap1\n      pop\n        /* \"contracts/MyProject.sol\":6418:6494  SafeERC20.safeTransferFrom(token, msg.sender, address(this), amountExpected) */\n      tag_185\n        /* \"contracts/MyProject.sol\":6445:6450  token */\n      dup8\n        /* \"contracts/MyProject.sol\":6452:6462  msg.sender */\n      caller\n        /* \"contracts/MyProject.sol\":6472:6476  this */\n      address\n        /* \"contracts/MyProject.sol\":6479:6493  amountExpected */\n      dup10\n        /* \"contracts/MyProject.sol\":6418:6444  SafeERC20.safeTransferFrom */\n      tag_186\n        /* \"contracts/MyProject.sol\":6418:6494  SafeERC20.safeTransferFrom(token, msg.sender, address(this), amountExpected) */\n      jump\t// in\n    tag_185:\n        /* \"contracts/MyProject.sol\":6529:6545  uint256 balAfter */\n      0x00\n        /* \"contracts/MyProject.sol\":6555:6560  token */\n      dup8\n        /* \"contracts/MyProject.sol\":6548:6571  IERC20(token).balanceOf */\n      0xffffffffffffffffffffffffffffffffffffffff\n      and\n      0x70a08231\n        /* \"contracts/MyProject.sol\":6580:6584  this */\n      address\n        /* \"contracts/MyProject.sol\":6548:6586  IERC20(token).balanceOf(address(this)) */\n      mload(0x40)\n      dup3\n      0xffffffff\n      and\n      0xe0\n      shl\n      dup2\n      mstore\n      0x04\n      add\n      tag_187\n      swap2\n      swap1\n      tag_66\n      jump\t// in\n    tag_187:\n      0x20\n      mload(0x40)\n      dup1\n      dup4\n      sub\n      dup2\n      dup7\n      gas\n      staticcall\n      iszero\n      dup1\n      iszero\n      tag_189\n      jumpi\n      returndatacopy(0x00, 0x00, returndatasize)\n      revert(0x00, returndatasize)\n    tag_189:\n      pop\n      pop\n      pop\n      pop\n      mload(0x40)\n      returndatasize\n      not(0x1f)\n      0x1f\n      dup3\n      add\n      and\n      dup3\n      add\n      dup1\n      0x40\n      mstore\n      pop\n      dup2\n      add\n      swap1\n      tag_190\n      swap2\n      swap1\n      tag_184\n      jump\t// in\n    tag_190:\n        /* \"contracts/MyProject.sol\":6529:6586  uint256 balAfter = IERC20(token).balanceOf(address(this)) */\n      swap1\n      pop\n        /* \"contracts/MyProject.sol\":6616:6625  balBefore */\n      dup2\n        /* \"contracts/MyProject.sol\":6604:6612  balAfter */\n      dup2\n        /* \"contracts/MyProject.sol\":6604:6625  balAfter >= balBefore */\n      lt\n      iszero\n        /* \"contracts/MyProject.sol\":6596:6652  require(balAfter >= balBefore, \"balance after < before\") */\n      tag_191\n      jumpi\n      mload(0x40)\n      0x08c379a000000000000000000000000000000000000000000000000000000000\n      dup2\n      mstore\n      0x04\n      add\n      tag_192\n      swap1\n      tag_193\n      jump\t// in\n    tag_192:\n      mload(0x40)\n      dup1\n      swap2\n      sub\n      swap1\n      revert\n    tag_191:\n        /* \"contracts/MyProject.sol\":6663:6679  uint256 received */\n      0x00\n        /* \"contracts/MyProject.sol\":6693:6702  balBefore */\n      dup3\n        /* \"contracts/MyProject.sol\":6682:6690  balAfter */\n      dup3\n        /* \"contracts/MyProject.sol\":6682:6702  balAfter - balBefore */\n      tag_194\n      swap2\n      swap1\n      tag_108\n      jump\t// in\n    tag_194:\n        /* \"contracts/MyProject.sol\":6663:6702  uint256 received = balAfter - balBefore */\n      swap1\n      pop\n        /* \"contracts/MyProject.sol\":6731:6732  0 */\n      0x00\n        /* \"contracts/MyProject.sol\":6720:6728  received */\n      dup2\n        /* \"contracts/MyProject.sol\":6720:6732  received > 0 */\n      gt\n        /* \"contracts/MyProject.sol\":6712:6750  require(received > 0, \"received zero\") */\n      tag_195\n      jumpi\n      mload(0x40)\n      0x08c379a000000000000000000000000000000000000000000000000000000000\n      dup2\n      mstore\n      0x04\n      add\n      tag_196\n      swap1\n      tag_197\n      jump\t// in\n    tag_196:\n      mload(0x40)\n      dup1\n      swap2\n      sub\n      swap1\n      revert\n    tag_195:\n        /* \"contracts/MyProject.sol\":6766:6772  nextId */\n      sload(0x03)\n        /* \"contracts/MyProject.sol\":6761:6772  id = nextId */\n      swap4\n      pop\n        /* \"contracts/MyProject.sol\":6797:7155  Payment({... */\n      mload(0x40)\n      dup1\n      0x0140\n      add\n      0x40\n      mstore\n      dup1\n        /* \"contracts/MyProject.sol\":6827:6837  msg.sender */\n      caller\n        /* \"contracts/MyProject.sol\":6797:7155  Payment({... */\n      0xffffffffffffffffffffffffffffffffffffffff\n      and\n      dup2\n      mstore\n      0x20\n      add\n        /* \"contracts/MyProject.sol\":6858:6863  token */\n      dup11\n        /* \"contracts/MyProject.sol\":6797:7155  Payment({... */\n      0xffffffffffffffffffffffffffffffffffffffff\n      and\n      dup2\n      mstore\n      0x20\n      add\n        /* \"contracts/MyProject.sol\":6893:6907  amountExpected */\n      dup10\n        /* \"contracts/MyProject.sol\":6797:7155  Payment({... */\n      dup2\n      mstore\n      0x20\n      add\n        /* \"contracts/MyProject.sol\":6937:6945  received */\n      dup3\n        /* \"contracts/MyProject.sol\":6797:7155  Payment({... */\n      dup2\n      mstore\n      0x20\n      add\n        /* \"contracts/MyProject.sol\":6970:6979  recipient */\n      dup9\n        /* \"contracts/MyProject.sol\":6797:7155  Payment({... */\n      0xffffffffffffffffffffffffffffffffffffffff\n      and\n      dup2\n      mstore\n      0x20\n      add\n        /* \"contracts/MyProject.sol\":7004:7019  block.timestamp */\n      timestamp\n        /* \"contracts/MyProject.sol\":6797:7155  Payment({... */\n      dup2\n      mstore\n      0x20\n      add\n        /* \"contracts/MyProject.sol\":7043:7051  deadline */\n      dup8\n        /* \"contracts/MyProject.sol\":6797:7155  Payment({... */\n      dup2\n      mstore\n      0x20\n      add\n        /* \"contracts/MyProject.sol\":7077:7087  secretHash */\n      dup7\n        /* \"contracts/MyProject.sol\":6797:7155  Payment({... */\n      dup2\n      mstore\n      0x20\n      add\n        /* \"contracts/MyProject.sol\":7110:7115  false */\n      0x00\n        /* \"contracts/MyProject.sol\":6797:7155  Payment({... */\n      iszero\n      iszero\n      dup2\n      mstore\n      0x20\n      add\n        /* \"contracts/MyProject.sol\":7139:7144  false */\n      0x00\n        /* \"contracts/MyProject.sol\":6797:7155  Payment({... */\n      iszero\n      iszero\n      dup2\n      mstore\n      pop\n        /* \"contracts/MyProject.sol\":6782:6790  payments */\n      0x04\n        /* \"contracts/MyProject.sol\":6782:6794  payments[id] */\n      0x00\n        /* \"contracts/MyProject.sol\":6791:6793  id */\n      dup7\n        /* \"contracts/MyProject.sol\":6782:6794  payments[id] */\n      dup2\n      mstore\n      0x20\n      add\n      swap1\n      dup2\n      mstore\n      0x20\n      add\n      0x00\n      keccak256\n        /* \"contracts/MyProject.sol\":6782:7155  payments[id] = Payment({... */\n      0x00\n      dup3\n      add\n      mload\n      dup2\n      0x00\n      add\n      exp(0x0100, 0x00)\n      dup2\n      sload\n      dup2\n      0xffffffffffffffffffffffffffffffffffffffff\n      mul\n      not\n      and\n      swap1\n      dup4\n      0xffffffffffffffffffffffffffffffffffffffff\n      and\n      mul\n      or\n      swap1\n      sstore\n      pop\n      0x20\n      dup3\n      add\n      mload\n      dup2\n      0x01\n      add\n      exp(0x0100, 0x00)\n      dup2\n      sload\n      dup2\n      0xffffffffffffffffffffffffffffffffffffffff\n      mul\n      not\n      and\n      swap1\n      dup4\n      0xffffffffffffffffffffffffffffffffffffffff\n      and\n      mul\n      or\n      swap1\n      sstore\n      pop\n      0x40\n      dup3\n      add\n      mload\n      dup2\n      0x02\n      add\n      sstore\n      0x60\n      dup3\n      add\n      mload\n      dup2\n      0x03\n      add\n      sstore\n      0x80\n      dup3\n      add\n      mload\n      dup2\n      0x04\n      add\n      exp(0x0100, 0x00)\n      dup2\n      sload\n      dup2\n      0xffffffffffffffffffffffffffffffffffffffff\n      mul\n      not\n      and\n      swap1\n      dup4\n      0xffffffffffffffffffffffffffffffffffffffff\n      and\n      mul\n      or\n      swap1\n      sstore\n      pop\n      0xa0\n      dup3\n      add\n      mload\n      dup2\n      0x05\n      add\n      sstore\n      0xc0\n      dup3\n      add\n      mload\n      dup2\n      0x06\n      add\n      sstore\n      0xe0\n      dup3\n      add\n      mload\n      dup2\n      0x07\n      add\n      sstore\n      0x0100\n      dup3\n      add\n      mload\n      dup2\n      0x08\n      add\n      exp(0x0100, 0x00)\n      dup2\n      sload\n      dup2\n      0xff\n      mul\n      not\n      and\n      swap1\n      dup4\n      iszero\n      iszero\n      mul\n      or\n      swap1\n      sstore\n      pop\n      0x0120\n      dup3\n      add\n      mload\n      dup2\n      0x08\n      add\n      exp(0x0100, 0x01)\n      dup2\n      sload\n      dup2\n      0xff\n      mul\n      not\n      and\n      swap1\n      dup4\n      iszero\n      iszero\n      mul\n      or\n      swap1\n      sstore\n      pop\n      swap1\n      pop\n      pop\n        /* \"contracts/MyProject.sol\":7180:7181  1 */\n      0x01\n        /* \"contracts/MyProject.sol\":7175:7177  id */\n      dup5\n        /* \"contracts/MyProject.sol\":7175:7181  id + 1 */\n      tag_198\n      swap2\n      swap1\n      tag_176\n      jump\t// in\n    tag_198:\n        /* \"contracts/MyProject.sol\":7166:7172  nextId */\n      0x03\n        /* \"contracts/MyProject.sol\":7166:7181  nextId = id + 1 */\n      dup2\n      swap1\n      sstore\n      pop\n        /* \"contracts/MyProject.sol\":7256:7265  recipient */\n      dup7\n        /* \"contracts/MyProject.sol\":7197:7288  Deposited(id, msg.sender, token, amountExpected, received, recipient, deadline, secretHash) */\n      0xffffffffffffffffffffffffffffffffffffffff\n      and\n        /* \"contracts/MyProject.sol\":7211:7221  msg.sender */\n      caller\n        /* \"contracts/MyProject.sol\":7197:7288  Deposited(id, msg.sender, token, amountExpected, received, recipient, deadline, secretHash) */\n      0xffffffffffffffffffffffffffffffffffffffff\n      and\n        /* \"contracts/MyProject.sol\":7207:7209  id */\n      dup6\n        /* \"contracts/MyProject.sol\":7197:7288  Deposited(id, msg.sender, token, amountExpected, received, recipient, deadline, secretHash) */\n      0xe755fad85d92901aa2860686122031fbcb9aacf69e6894126bd1ebb35ab08db0\n        /* \"contracts/MyProject.sol\":7223:7228  token */\n      dup13\n        /* \"contracts/MyProject.sol\":7230:7244  amountExpected */\n      dup13\n        /* \"contracts/MyProject.sol\":7246:7254  received */\n      dup7\n        /* \"contracts/MyProject.sol\":7267:7275  deadline */\n      dup13\n        /* \"contracts/MyProject.sol\":7277:7287  secretHash */\n      dup13\n        /* \"contracts/MyProject.sol\":7197:7288  Deposited(id, msg.sender, token, amountExpected, received, recipient, deadline, secretHash) */\n      mload(0x40)\n      tag_199\n      swap6\n      swap5\n      swap4\n      swap3\n      swap2\n      swap1\n      tag_200\n      jump\t// in\n    tag_199:\n      mload(0x40)\n      dup1\n      swap2\n      sub\n      swap1\n      log4\n        /* \"contracts/MyProject.sol\":5965:7295  {... */\n      pop\n      pop\n      pop\n        /* \"contracts/MyProject.sol\":5776:7295  function deposit(... */\n      swap6\n      swap5\n      pop\n      pop\n      pop\n      pop\n      pop\n      jump\t// out\n        /* \"contracts/MyProject.sol\":2822:3026  function transferOwnership(address newOwner) public onlyOwner {... */\n    tag_77:\n        /* \"contracts/MyProject.sol\":2777:2783  _owner */\n      0x00\n      0x00\n      swap1\n      sload\n      swap1\n      0x0100\n      exp\n      swap1\n      div\n      0xffffffffffffffffffffffffffffffffffffffff\n      and\n        /* \"contracts/MyProject.sol\":2763:2783  msg.sender == _owner */\n      0xffffffffffffffffffffffffffffffffffffffff\n      and\n        /* \"contracts/MyProject.sol\":2763:2773  msg.sender */\n      caller\n        /* \"contracts/MyProject.sol\":2763:2783  msg.sender == _owner */\n      0xffffffffffffffffffffffffffffffffffffffff\n      and\n      eq\n        /* \"contracts/MyProject.sol\":2755:2798  require(msg.sender == _owner, \"only owner\") */\n      tag_202\n      jumpi\n      mload(0x40)\n      0x08c379a000000000000000000000000000000000000000000000000000000000\n      dup2\n      mstore\n      0x04\n      add\n      tag_203\n      swap1\n      tag_140\n      jump\t// in\n    tag_203:\n      mload(0x40)\n      dup1\n      swap2\n      sub\n      swap1\n      revert\n    tag_202:\n        /* \"contracts/MyProject.sol\":2922:2923  0 */\n      0x00\n        /* \"contracts/MyProject.sol\":2902:2924  newOwner != address(0) */\n      0xffffffffffffffffffffffffffffffffffffffff\n      and\n        /* \"contracts/MyProject.sol\":2902:2910  newOwner */\n      dup2\n        /* \"contracts/MyProject.sol\":2902:2924  newOwner != address(0) */\n      0xffffffffffffffffffffffffffffffffffffffff\n      and\n      sub\n        /* \"contracts/MyProject.sol\":2894:2939  require(newOwner != address(0), \"zero owner\") */\n      tag_205\n      jumpi\n      mload(0x40)\n      0x08c379a000000000000000000000000000000000000000000000000000000000\n      dup2\n      mstore\n      0x04\n      add\n      tag_206\n      swap1\n      tag_207\n      jump\t// in\n    tag_206:\n      mload(0x40)\n      dup1\n      swap2\n      sub\n      swap1\n      revert\n    tag_205:\n        /* \"contracts/MyProject.sol\":2983:2991  newOwner */\n      dup1\n        /* \"contracts/MyProject.sol\":2954:2992  OwnershipTransferred(_owner, newOwner) */\n      0xffffffffffffffffffffffffffffffffffffffff\n      and\n        /* \"contracts/MyProject.sol\":2975:2981  _owner */\n      0x00\n      0x00\n      swap1\n      sload\n      swap1\n      0x0100\n      exp\n      swap1\n      div\n      0xffffffffffffffffffffffffffffffffffffffff\n      and\n        /* \"contracts/MyProject.sol\":2954:2992  OwnershipTransferred(_owner, newOwner) */\n      0xffffffffffffffffffffffffffffffffffffffff\n      and\n      0x8be0079c531659141344cd1fd0a4f28419497f9722a3daafe3b4186f6b6457e0\n      mload(0x40)\n      mload(0x40)\n      dup1\n      swap2\n      sub\n      swap1\n      log3\n        /* \"contracts/MyProject.sol\":3011:3019  newOwner */\n      dup1\n        /* \"contracts/MyProject.sol\":3002:3008  _owner */\n      0x00\n      0x00\n        /* \"contracts/MyProject.sol\":3002:3019  _owner = newOwner */\n      0x0100\n      exp\n      dup2\n      sload\n      dup2\n      0xffffffffffffffffffffffffffffffffffffffff\n      mul\n      not\n      and\n      swap1\n      dup4\n      0xffffffffffffffffffffffffffffffffffffffff\n      and\n      mul\n      or\n      swap1\n      sstore\n      pop\n        /* \"contracts/MyProject.sol\":2822:3026  function transferOwnership(address newOwner) public onlyOwner {... */\n      pop\n      jump\t// out\n        /* \"contracts/MyProject.sol\":1773:1950  function safeTransfer(address token, address to, uint256 value) internal {... */\n    tag_110:\n        /* \"contracts/MyProject.sol\":1856:1943  _callOptionalReturn(token, abi.encodeWithSelector(IERC20.transfer.selector, to, value)) */\n      tag_209\n        /* \"contracts/MyProject.sol\":1876:1881  token */\n      dup4\n        /* \"contracts/MyProject.sol\":1906:1930  IERC20.transfer.selector */\n      shl(0xe0, 0xa9059cbb)\n        /* \"contracts/MyProject.sol\":1932:1934  to */\n      dup5\n        /* \"contracts/MyProject.sol\":1936:1941  value */\n      dup5\n        /* \"contracts/MyProject.sol\":1883:1942  abi.encodeWithSelector(IERC20.transfer.selector, to, value) */\n      add(0x24, mload(0x40))\n      tag_210\n      swap3\n      swap2\n      swap1\n      tag_211\n      jump\t// in\n    tag_210:\n      mload(0x40)\n      0x20\n      dup2\n      dup4\n      sub\n      sub\n      dup2\n      mstore\n      swap1\n      0x40\n      mstore\n      swap1\n      not(0xffffffffffffffffffffffffffffffffffffffffffffffffffffffff)\n      and\n      0x20\n      dup3\n      add\n      dup1\n      mload\n      0xffffffffffffffffffffffffffffffffffffffffffffffffffffffff\n      dup4\n      dup2\n      dup4\n      and\n      or\n      dup4\n      mstore\n      pop\n      pop\n      pop\n      pop\n        /* \"contracts/MyProject.sol\":1856:1875  _callOptionalReturn */\n      tag_212\n        /* \"contracts/MyProject.sol\":1856:1943  _callOptionalReturn(token, abi.encodeWithSelector(IERC20.transfer.selector, to, value)) */\n      jump\t// in\n    tag_209:\n        /* \"contracts/MyProject.sol\":1773:1950  function safeTransfer(address token, address to, uint256 value) internal {... */\n      pop\n      pop\n      pop\n      jump\t// out\n        /* \"contracts/MyProject.sol\":1956:2161  function safeTransferFrom(address token, address from, address to, uint256 value) internal {... */\n    tag_186:\n        /* \"contracts/MyProject.sol\":2057:2154  _callOptionalReturn(token, abi.encodeWithSelector(IERC20.transferFrom.selector, from, to, value)) */\n      tag_214\n        /* \"contracts/MyProject.sol\":2077:2082  token */\n      dup5\n        /* \"contracts/MyProject.sol\":2107:2135  IERC20.transferFrom.selector */\n      shl(0xe0, 0x23b872dd)\n        /* \"contracts/MyProject.sol\":2137:2141  from */\n      dup6\n        /* \"contracts/MyProject.sol\":2143:2145  to */\n      dup6\n        /* \"contracts/MyProject.sol\":2147:2152  value */\n      dup6\n        /* \"contracts/MyProject.sol\":2084:2153  abi.encodeWithSelector(IERC20.transferFrom.selector, from, to, value) */\n      add(0x24, mload(0x40))\n      tag_215\n      swap4\n      swap3\n      swap2\n      swap1\n      tag_216\n      jump\t// in\n    tag_215:\n      mload(0x40)\n      0x20\n      dup2\n      dup4\n      sub\n      sub\n      dup2\n      mstore\n      swap1\n      0x40\n      mstore\n      swap1\n      not(0xffffffffffffffffffffffffffffffffffffffffffffffffffffffff)\n      and\n      0x20\n      dup3\n      add\n      dup1\n      mload\n      0xffffffffffffffffffffffffffffffffffffffffffffffffffffffff\n      dup4\n      dup2\n      dup4\n      and\n      or\n      dup4\n      mstore\n      pop\n      pop\n      pop\n      pop\n        /* \"contracts/MyProject.sol\":2057:2076  _callOptionalReturn */\n      tag_212\n        /* \"contracts/MyProject.sol\":2057:2154  _callOptionalReturn(token, abi.encodeWithSelector(IERC20.transferFrom.selector, from, to, value)) */\n      jump\t// in\n    tag_214:\n        /* \"contracts/MyProject.sol\":1956:2161  function safeTransferFrom(address token, address from, address to, uint256 value) internal {... */\n      pop\n      pop\n      pop\n      pop\n      jump\t// out\n        /* \"contracts/MyProject.sol\":1427:1767  function _callOptionalReturn(address token, bytes memory data) private {... */\n    tag_212:\n        /* \"contracts/MyProject.sol\":1509:1521  bool success */\n      0x00\n        /* \"contracts/MyProject.sol\":1523:1546  bytes memory returndata */\n      0x00\n        /* \"contracts/MyProject.sol\":1550:1555  token */\n      dup4\n        /* \"contracts/MyProject.sol\":1550:1560  token.call */\n      0xffffffffffffffffffffffffffffffffffffffff\n      and\n        /* \"contracts/MyProject.sol\":1561:1565  data */\n      dup4\n        /* \"contracts/MyProject.sol\":1550:1566  token.call(data) */\n      mload(0x40)\n      tag_218\n      swap2\n      swap1\n      tag_219\n      jump\t// in\n    tag_218:\n      0x00\n      mload(0x40)\n      dup1\n      dup4\n      sub\n      dup2\n      0x00\n      dup7\n      gas\n      call\n      swap2\n      pop\n      pop\n      returndatasize\n      dup1\n      0x00\n      dup2\n      eq\n      tag_222\n      jumpi\n      mload(0x40)\n      swap2\n      pop\n      and(add(returndatasize, 0x3f), not(0x1f))\n      dup3\n      add\n      0x40\n      mstore\n      returndatasize\n      dup3\n      mstore\n      returndatasize\n      0x00\n      0x20\n      dup5\n      add\n      returndatacopy\n      jump(tag_221)\n    tag_222:\n      0x60\n      swap2\n      pop\n    tag_221:\n      pop\n        /* \"contracts/MyProject.sol\":1508:1566  (bool success, bytes memory returndata) = token.call(data) */\n      swap2\n      pop\n      swap2\n      pop\n        /* \"contracts/MyProject.sol\":1584:1591  success */\n      dup2\n        /* \"contracts/MyProject.sol\":1576:1624  require(success, \"ERC20: low-level call failed\") */\n      tag_223\n      jumpi\n      mload(0x40)\n      0x08c379a000000000000000000000000000000000000000000000000000000000\n      dup2\n      mstore\n      0x04\n      add\n      tag_224\n      swap1\n      tag_225\n      jump\t// in\n    tag_224:\n      mload(0x40)\n      dup1\n      swap2\n      sub\n      swap1\n      revert\n    tag_223:\n        /* \"contracts/MyProject.sol\":1658:1659  0 */\n      0x00\n        /* \"contracts/MyProject.sol\":1638:1648  returndata */\n      dup2\n        /* \"contracts/MyProject.sol\":1638:1655  returndata.length */\n      mload\n        /* \"contracts/MyProject.sol\":1638:1659  returndata.length > 0 */\n      gt\n        /* \"contracts/MyProject.sol\":1634:1761  if (returndata.length > 0) {... */\n      iszero\n      tag_226\n      jumpi\n        /* \"contracts/MyProject.sol\":1694:1704  returndata */\n      dup1\n        /* \"contracts/MyProject.sol\":1683:1713  abi.decode(returndata, (bool)) */\n      dup1\n      0x20\n      add\n      swap1\n      mload\n      dup2\n      add\n      swap1\n      tag_227\n      swap2\n      swap1\n      tag_228\n      jump\t// in\n    tag_227:\n        /* \"contracts/MyProject.sol\":1675:1750  require(abi.decode(returndata, (bool)), \"ERC20: operation did not succeed\") */\n      tag_229\n      jumpi\n      mload(0x40)\n      0x08c379a000000000000000000000000000000000000000000000000000000000\n      dup2\n      mstore\n      0x04\n      add\n      tag_230\n      swap1\n      tag_231\n      jump\t// in\n    tag_230:\n      mload(0x40)\n      dup1\n      swap2\n      sub\n      swap1\n      revert\n    tag_229:\n        /* \"contracts/MyProject.sol\":1634:1761  if (returndata.length > 0) {... */\n    tag_226:\n        /* \"contracts/MyProject.sol\":1498:1767  {... */\n      pop\n      pop\n        /* \"contracts/MyProject.sol\":1427:1767  function _callOptionalReturn(address token, bytes memory data) private {... */\n      pop\n      pop\n      jump\t// out\n    tag_135:\n      mload(0x40)\n      dup1\n      0x0140\n      add\n      0x40\n      mstore\n      dup1\n      and(0xffffffffffffffffffffffffffffffffffffffff, 0x00)\n      dup2\n      mstore\n      0x20\n      add\n      and(0xffffffffffffffffffffffffffffffffffffffff, 0x00)\n      dup2\n      mstore\n      0x20\n      add\n      0x00\n      dup2\n      mstore\n      0x20\n      add\n      0x00\n      dup2\n      mstore\n      0x20\n      add\n      and(0xffffffffffffffffffffffffffffffffffffffff, 0x00)\n      dup2\n      mstore\n      0x20\n      add\n      0x00\n      dup2\n      mstore\n      0x20\n      add\n      0x00\n      dup2\n      mstore\n      0x20\n      add\n      0x00\n      dup2\n      mstore\n      0x20\n      add\n      iszero(iszero(0x00))\n      dup2\n      mstore\n      0x20\n      add\n      iszero(iszero(0x00))\n      dup2\n      mstore\n      pop\n      swap1\n      jump\t// out\n        /* \"#utility.yul\":7:84   */\n    tag_232:\n        /* \"#utility.yul\":44:51   */\n      0x00\n        /* \"#utility.yul\":73:78   */\n      dup2\n        /* \"#utility.yul\":62:78   */\n      swap1\n      pop\n        /* \"#utility.yul\":7:84   */\n      swap2\n      swap1\n      pop\n      jump\t// out\n        /* \"#utility.yul\":90:208   */\n    tag_233:\n        /* \"#utility.yul\":177:201   */\n      tag_322\n        /* \"#utility.yul\":195:200   */\n      dup2\n        /* \"#utility.yul\":177:201   */\n      tag_232\n      jump\t// in\n    tag_322:\n        /* \"#utility.yul\":172:175   */\n      dup3\n        /* \"#utility.yul\":165:202   */\n      mstore\n        /* \"#utility.yul\":90:208   */\n      pop\n      pop\n      jump\t// out\n        /* \"#utility.yul\":214:436   */\n    tag_24:\n        /* \"#utility.yul\":307:311   */\n      0x00\n        /* \"#utility.yul\":345:347   */\n      0x20\n        /* \"#utility.yul\":334:343   */\n      dup3\n        /* \"#utility.yul\":330:348   */\n      add\n        /* \"#utility.yul\":322:348   */\n      swap1\n      pop\n        /* \"#utility.yul\":358:429   */\n      tag_324\n        /* \"#utility.yul\":426:427   */\n      0x00\n        /* \"#utility.yul\":415:424   */\n      dup4\n        /* \"#utility.yul\":411:428   */\n      add\n        /* \"#utility.yul\":402:408   */\n      dup5\n        /* \"#utility.yul\":358:429   */\n      tag_233\n      jump\t// in\n    tag_324:\n        /* \"#utility.yul\":214:436   */\n      swap3\n      swap2\n      pop\n      pop\n      jump\t// out\n        /* \"#utility.yul\":523:640   */\n    tag_235:\n        /* \"#utility.yul\":632:633   */\n      0x00\n        /* \"#utility.yul\":629:630   */\n      0x00\n        /* \"#utility.yul\":622:634   */\n      revert\n        /* \"#utility.yul\":646:763   */\n    tag_236:\n        /* \"#utility.yul\":755:756   */\n      0x00\n        /* \"#utility.yul\":752:753   */\n      0x00\n        /* \"#utility.yul\":745:757   */\n      revert\n        /* \"#utility.yul\":769:891   */\n    tag_237:\n        /* \"#utility.yul\":842:866   */\n      tag_329\n        /* \"#utility.yul\":860:865   */\n      dup2\n        /* \"#utility.yul\":842:866   */\n      tag_232\n      jump\t// in\n    tag_329:\n        /* \"#utility.yul\":835:840   */\n      dup2\n        /* \"#utility.yul\":832:867   */\n      eq\n        /* \"#utility.yul\":822:885   */\n      tag_330\n      jumpi\n        /* \"#utility.yul\":881:882   */\n      0x00\n        /* \"#utility.yul\":878:879   */\n      0x00\n        /* \"#utility.yul\":871:883   */\n      revert\n        /* \"#utility.yul\":822:885   */\n    tag_330:\n        /* \"#utility.yul\":769:891   */\n      pop\n      jump\t// out\n        /* \"#utility.yul\":897:1036   */\n    tag_238:\n        /* \"#utility.yul\":943:948   */\n      0x00\n        /* \"#utility.yul\":981:987   */\n      dup2\n        /* \"#utility.yul\":968:988   */\n      calldataload\n        /* \"#utility.yul\":959:988   */\n      swap1\n      pop\n        /* \"#utility.yul\":997:1030   */\n      tag_332\n        /* \"#utility.yul\":1024:1029   */\n      dup2\n        /* \"#utility.yul\":997:1030   */\n      tag_237\n      jump\t// in\n    tag_332:\n        /* \"#utility.yul\":897:1036   */\n      swap3\n      swap2\n      pop\n      pop\n      jump\t// out\n        /* \"#utility.yul\":1042:1159   */\n    tag_239:\n        /* \"#utility.yul\":1151:1152   */\n      0x00\n        /* \"#utility.yul\":1148:1149   */\n      0x00\n        /* \"#utility.yul\":1141:1153   */\n      revert\n        /* \"#utility.yul\":1165:1282   */\n    tag_240:\n        /* \"#utility.yul\":1274:1275   */\n      0x00\n        /* \"#utility.yul\":1271:1272   */\n      0x00\n        /* \"#utility.yul\":1264:1276   */\n      revert\n        /* \"#utility.yul\":1288:1405   */\n    tag_241:\n        /* \"#utility.yul\":1397:1398   */\n      0x00\n        /* \"#utility.yul\":1394:1395   */\n      0x00\n        /* \"#utility.yul\":1387:1399   */\n      revert\n        /* \"#utility.yul\":1425:1978   */\n    tag_242:\n        /* \"#utility.yul\":1483:1491   */\n      0x00\n        /* \"#utility.yul\":1493:1499   */\n      0x00\n        /* \"#utility.yul\":1543:1546   */\n      dup4\n        /* \"#utility.yul\":1536:1540   */\n      0x1f\n        /* \"#utility.yul\":1528:1534   */\n      dup5\n        /* \"#utility.yul\":1524:1541   */\n      add\n        /* \"#utility.yul\":1520:1547   */\n      slt\n        /* \"#utility.yul\":1510:1632   */\n      tag_337\n      jumpi\n        /* \"#utility.yul\":1551:1630   */\n      tag_338\n      tag_239\n      jump\t// in\n    tag_338:\n        /* \"#utility.yul\":1510:1632   */\n    tag_337:\n        /* \"#utility.yul\":1664:1670   */\n      dup3\n        /* \"#utility.yul\":1651:1671   */\n      calldataload\n        /* \"#utility.yul\":1641:1671   */\n      swap1\n      pop\n        /* \"#utility.yul\":1694:1712   */\n      0xffffffffffffffff\n        /* \"#utility.yul\":1686:1692   */\n      dup2\n        /* \"#utility.yul\":1683:1713   */\n      gt\n        /* \"#utility.yul\":1680:1797   */\n      iszero\n      tag_339\n      jumpi\n        /* \"#utility.yul\":1716:1795   */\n      tag_340\n      tag_240\n      jump\t// in\n    tag_340:\n        /* \"#utility.yul\":1680:1797   */\n    tag_339:\n        /* \"#utility.yul\":1830:1834   */\n      0x20\n        /* \"#utility.yul\":1822:1828   */\n      dup4\n        /* \"#utility.yul\":1818:1835   */\n      add\n        /* \"#utility.yul\":1806:1835   */\n      swap2\n      pop\n        /* \"#utility.yul\":1884:1887   */\n      dup4\n        /* \"#utility.yul\":1876:1880   */\n      0x01\n        /* \"#utility.yul\":1868:1874   */\n      dup3\n        /* \"#utility.yul\":1864:1881   */\n      mul\n        /* \"#utility.yul\":1854:1862   */\n      dup4\n        /* \"#utility.yul\":1850:1882   */\n      add\n        /* \"#utility.yul\":1847:1888   */\n      gt\n        /* \"#utility.yul\":1844:1972   */\n      iszero\n      tag_341\n      jumpi\n        /* \"#utility.yul\":1891:1970   */\n      tag_342\n      tag_241\n      jump\t// in\n    tag_342:\n        /* \"#utility.yul\":1844:1972   */\n    tag_341:\n        /* \"#utility.yul\":1425:1978   */\n      swap3\n      pop\n      swap3\n      swap1\n      pop\n      jump\t// out\n        /* \"#utility.yul\":1984:2658   */\n    tag_28:\n        /* \"#utility.yul\":2064:2070   */\n      0x00\n        /* \"#utility.yul\":2072:2078   */\n      0x00\n        /* \"#utility.yul\":2080:2086   */\n      0x00\n        /* \"#utility.yul\":2129:2131   */\n      0x40\n        /* \"#utility.yul\":2117:2126   */\n      dup5\n        /* \"#utility.yul\":2108:2115   */\n      dup7\n        /* \"#utility.yul\":2104:2127   */\n      sub\n        /* \"#utility.yul\":2100:2132   */\n      slt\n        /* \"#utility.yul\":2097:2216   */\n      iszero\n      tag_344\n      jumpi\n        /* \"#utility.yul\":2135:2214   */\n      tag_345\n      tag_235\n      jump\t// in\n    tag_345:\n        /* \"#utility.yul\":2097:2216   */\n    tag_344:\n        /* \"#utility.yul\":2255:2256   */\n      0x00\n        /* \"#utility.yul\":2280:2333   */\n      tag_346\n        /* \"#utility.yul\":2325:2332   */\n      dup7\n        /* \"#utility.yul\":2316:2322   */\n      dup3\n        /* \"#utility.yul\":2305:2314   */\n      dup8\n        /* \"#utility.yul\":2301:2323   */\n      add\n        /* \"#utility.yul\":2280:2333   */\n      tag_238\n      jump\t// in\n    tag_346:\n        /* \"#utility.yul\":2270:2333   */\n      swap4\n      pop\n        /* \"#utility.yul\":2226:2343   */\n      pop\n        /* \"#utility.yul\":2410:2412   */\n      0x20\n        /* \"#utility.yul\":2399:2408   */\n      dup5\n        /* \"#utility.yul\":2395:2413   */\n      add\n        /* \"#utility.yul\":2382:2414   */\n      calldataload\n        /* \"#utility.yul\":2441:2459   */\n      0xffffffffffffffff\n        /* \"#utility.yul\":2433:2439   */\n      dup2\n        /* \"#utility.yul\":2430:2460   */\n      gt\n        /* \"#utility.yul\":2427:2544   */\n      iszero\n      tag_347\n      jumpi\n        /* \"#utility.yul\":2463:2542   */\n      tag_348\n      tag_236\n      jump\t// in\n    tag_348:\n        /* \"#utility.yul\":2427:2544   */\n    tag_347:\n        /* \"#utility.yul\":2576:2641   */\n      tag_349\n        /* \"#utility.yul\":2633:2640   */\n      dup7\n        /* \"#utility.yul\":2624:2630   */\n      dup3\n        /* \"#utility.yul\":2613:2622   */\n      dup8\n        /* \"#utility.yul\":2609:2631   */\n      add\n        /* \"#utility.yul\":2576:2641   */\n      tag_242\n      jump\t// in\n    tag_349:\n        /* \"#utility.yul\":2558:2641   */\n      swap3\n      pop\n      swap3\n      pop\n        /* \"#utility.yul\":2353:2651   */\n      pop\n        /* \"#utility.yul\":1984:2658   */\n      swap3\n      pop\n      swap3\n      pop\n      swap3\n      jump\t// out\n        /* \"#utility.yul\":2664:2993   */\n    tag_33:\n        /* \"#utility.yul\":2723:2729   */\n      0x00\n        /* \"#utility.yul\":2772:2774   */\n      0x20\n        /* \"#utility.yul\":2760:2769   */\n      dup3\n        /* \"#utility.yul\":2751:2758   */\n      dup5\n        /* \"#utility.yul\":2747:2770   */\n      sub\n        /* \"#utility.yul\":2743:2775   */\n      slt\n        /* \"#utility.yul\":2740:2859   */\n      iszero\n      tag_351\n      jumpi\n        /* \"#utility.yul\":2778:2857   */\n      tag_352\n      tag_235\n      jump\t// in\n    tag_352:\n        /* \"#utility.yul\":2740:2859   */\n    tag_351:\n        /* \"#utility.yul\":2898:2899   */\n      0x00\n        /* \"#utility.yul\":2923:2976   */\n      tag_353\n        /* \"#utility.yul\":2968:2975   */\n      dup5\n        /* \"#utility.yul\":2959:2965   */\n      dup3\n        /* \"#utility.yul\":2948:2957   */\n      dup6\n        /* \"#utility.yul\":2944:2966   */\n      add\n        /* \"#utility.yul\":2923:2976   */\n      tag_238\n      jump\t// in\n    tag_353:\n        /* \"#utility.yul\":2913:2976   */\n      swap2\n      pop\n        /* \"#utility.yul\":2869:2986   */\n      pop\n        /* \"#utility.yul\":2664:2993   */\n      swap3\n      swap2\n      pop\n      pop\n      jump\t// out\n        /* \"#utility.yul\":2999:3125   */\n    tag_243:\n        /* \"#utility.yul\":3036:3043   */\n      0x00\n        /* \"#utility.yul\":3076:3118   */\n      0xffffffffffffffffffffffffffffffffffffffff\n        /* \"#utility.yul\":3069:3074   */\n      dup3\n        /* \"#utility.yul\":3065:3119   */\n      and\n        /* \"#utility.yul\":3054:3119   */\n      swap1\n      pop\n        /* \"#utility.yul\":2999:3125   */\n      swap2\n      swap1\n      pop\n      jump\t// out\n        /* \"#utility.yul\":3131:3227   */\n    tag_244:\n        /* \"#utility.yul\":3168:3175   */\n      0x00\n        /* \"#utility.yul\":3197:3221   */\n      tag_356\n        /* \"#utility.yul\":3215:3220   */\n      dup3\n        /* \"#utility.yul\":3197:3221   */\n      tag_243\n      jump\t// in\n    tag_356:\n        /* \"#utility.yul\":3186:3221   */\n      swap1\n      pop\n        /* \"#utility.yul\":3131:3227   */\n      swap2\n      swap1\n      pop\n      jump\t// out\n        /* \"#utility.yul\":3233:3341   */\n    tag_245:\n        /* \"#utility.yul\":3310:3334   */\n      tag_358\n        /* \"#utility.yul\":3328:3333   */\n      dup2\n        /* \"#utility.yul\":3310:3334   */\n      tag_244\n      jump\t// in\n    tag_358:\n        /* \"#utility.yul\":3305:3308   */\n      dup3\n        /* \"#utility.yul\":3298:3335   */\n      mstore\n        /* \"#utility.yul\":3233:3341   */\n      pop\n      pop\n      jump\t// out\n        /* \"#utility.yul\":3347:3455   */\n    tag_246:\n        /* \"#utility.yul\":3424:3448   */\n      tag_360\n        /* \"#utility.yul\":3442:3447   */\n      dup2\n        /* \"#utility.yul\":3424:3448   */\n      tag_232\n      jump\t// in\n    tag_360:\n        /* \"#utility.yul\":3419:3422   */\n      dup3\n        /* \"#utility.yul\":3412:3449   */\n      mstore\n        /* \"#utility.yul\":3347:3455   */\n      pop\n      pop\n      jump\t// out\n        /* \"#utility.yul\":3461:3538   */\n    tag_247:\n        /* \"#utility.yul\":3498:3505   */\n      0x00\n        /* \"#utility.yul\":3527:3532   */\n      dup2\n        /* \"#utility.yul\":3516:3532   */\n      swap1\n      pop\n        /* \"#utility.yul\":3461:3538   */\n      swap2\n      swap1\n      pop\n      jump\t// out\n        /* \"#utility.yul\":3544:3652   */\n    tag_248:\n        /* \"#utility.yul\":3621:3645   */\n      tag_363\n        /* \"#utility.yul\":3639:3644   */\n      dup2\n        /* \"#utility.yul\":3621:3645   */\n      tag_247\n      jump\t// in\n    tag_363:\n        /* \"#utility.yul\":3616:3619   */\n      dup3\n        /* \"#utility.yul\":3609:3646   */\n      mstore\n        /* \"#utility.yul\":3544:3652   */\n      pop\n      pop\n      jump\t// out\n        /* \"#utility.yul\":3658:3748   */\n    tag_249:\n        /* \"#utility.yul\":3692:3699   */\n      0x00\n        /* \"#utility.yul\":3735:3740   */\n      dup2\n        /* \"#utility.yul\":3728:3741   */\n      iszero\n        /* \"#utility.yul\":3721:3742   */\n      iszero\n        /* \"#utility.yul\":3710:3742   */\n      swap1\n      pop\n        /* \"#utility.yul\":3658:3748   */\n      swap2\n      swap1\n      pop\n      jump\t// out\n        /* \"#utility.yul\":3754:3853   */\n    tag_250:\n        /* \"#utility.yul\":3825:3846   */\n      tag_366\n        /* \"#utility.yul\":3840:3845   */\n      dup2\n        /* \"#utility.yul\":3825:3846   */\n      tag_249\n      jump\t// in\n    tag_366:\n        /* \"#utility.yul\":3820:3823   */\n      dup3\n        /* \"#utility.yul\":3813:3847   */\n      mstore\n        /* \"#utility.yul\":3754:3853   */\n      pop\n      pop\n      jump\t// out\n        /* \"#utility.yul\":3945:5890   */\n    tag_251:\n        /* \"#utility.yul\":4090:4096   */\n      0x0140\n        /* \"#utility.yul\":4085:4088   */\n      dup3\n        /* \"#utility.yul\":4081:4097   */\n      add\n        /* \"#utility.yul\":4181:4185   */\n      0x00\n        /* \"#utility.yul\":4174:4179   */\n      dup3\n        /* \"#utility.yul\":4170:4186   */\n      add\n        /* \"#utility.yul\":4164:4187   */\n      mload\n        /* \"#utility.yul\":4200:4263   */\n      tag_368\n        /* \"#utility.yul\":4257:4261   */\n      0x00\n        /* \"#utility.yul\":4252:4255   */\n      dup6\n        /* \"#utility.yul\":4248:4262   */\n      add\n        /* \"#utility.yul\":4234:4246   */\n      dup3\n        /* \"#utility.yul\":4200:4263   */\n      tag_245\n      jump\t// in\n    tag_368:\n        /* \"#utility.yul\":4107:4273   */\n      pop\n        /* \"#utility.yul\":4356:4360   */\n      0x20\n        /* \"#utility.yul\":4349:4354   */\n      dup3\n        /* \"#utility.yul\":4345:4361   */\n      add\n        /* \"#utility.yul\":4339:4362   */\n      mload\n        /* \"#utility.yul\":4375:4438   */\n      tag_369\n        /* \"#utility.yul\":4432:4436   */\n      0x20\n        /* \"#utility.yul\":4427:4430   */\n      dup6\n        /* \"#utility.yul\":4423:4437   */\n      add\n        /* \"#utility.yul\":4409:4421   */\n      dup3\n        /* \"#utility.yul\":4375:4438   */\n      tag_245\n      jump\t// in\n    tag_369:\n        /* \"#utility.yul\":4283:4448   */\n      pop\n        /* \"#utility.yul\":4540:4544   */\n      0x40\n        /* \"#utility.yul\":4533:4538   */\n      dup3\n        /* \"#utility.yul\":4529:4545   */\n      add\n        /* \"#utility.yul\":4523:4546   */\n      mload\n        /* \"#utility.yul\":4559:4622   */\n      tag_370\n        /* \"#utility.yul\":4616:4620   */\n      0x40\n        /* \"#utility.yul\":4611:4614   */\n      dup6\n        /* \"#utility.yul\":4607:4621   */\n      add\n        /* \"#utility.yul\":4593:4605   */\n      dup3\n        /* \"#utility.yul\":4559:4622   */\n      tag_246\n      jump\t// in\n    tag_370:\n        /* \"#utility.yul\":4458:4632   */\n      pop\n        /* \"#utility.yul\":4724:4728   */\n      0x60\n        /* \"#utility.yul\":4717:4722   */\n      dup3\n        /* \"#utility.yul\":4713:4729   */\n      add\n        /* \"#utility.yul\":4707:4730   */\n      mload\n        /* \"#utility.yul\":4743:4806   */\n      tag_371\n        /* \"#utility.yul\":4800:4804   */\n      0x60\n        /* \"#utility.yul\":4795:4798   */\n      dup6\n        /* \"#utility.yul\":4791:4805   */\n      add\n        /* \"#utility.yul\":4777:4789   */\n      dup3\n        /* \"#utility.yul\":4743:4806   */\n      tag_246\n      jump\t// in\n    tag_371:\n        /* \"#utility.yul\":4642:4816   */\n      pop\n        /* \"#utility.yul\":4903:4907   */\n      0x80\n        /* \"#utility.yul\":4896:4901   */\n      dup3\n        /* \"#utility.yul\":4892:4908   */\n      add\n        /* \"#utility.yul\":4886:4909   */\n      mload\n        /* \"#utility.yul\":4922:4985   */\n      tag_372\n        /* \"#utility.yul\":4979:4983   */\n      0x80\n        /* \"#utility.yul\":4974:4977   */\n      dup6\n        /* \"#utility.yul\":4970:4984   */\n      add\n        /* \"#utility.yul\":4956:4968   */\n      dup3\n        /* \"#utility.yul\":4922:4985   */\n      tag_245\n      jump\t// in\n    tag_372:\n        /* \"#utility.yul\":4826:4995   */\n      pop\n        /* \"#utility.yul\":5082:5086   */\n      0xa0\n        /* \"#utility.yul\":5075:5080   */\n      dup3\n        /* \"#utility.yul\":5071:5087   */\n      add\n        /* \"#utility.yul\":5065:5088   */\n      mload\n        /* \"#utility.yul\":5101:5164   */\n      tag_373\n        /* \"#utility.yul\":5158:5162   */\n      0xa0\n        /* \"#utility.yul\":5153:5156   */\n      dup6\n        /* \"#utility.yul\":5149:5163   */\n      add\n        /* \"#utility.yul\":5135:5147   */\n      dup3\n        /* \"#utility.yul\":5101:5164   */\n      tag_246\n      jump\t// in\n    tag_373:\n        /* \"#utility.yul\":5005:5174   */\n      pop\n        /* \"#utility.yul\":5260:5264   */\n      0xc0\n        /* \"#utility.yul\":5253:5258   */\n      dup3\n        /* \"#utility.yul\":5249:5265   */\n      add\n        /* \"#utility.yul\":5243:5266   */\n      mload\n        /* \"#utility.yul\":5279:5342   */\n      tag_374\n        /* \"#utility.yul\":5336:5340   */\n      0xc0\n        /* \"#utility.yul\":5331:5334   */\n      dup6\n        /* \"#utility.yul\":5327:5341   */\n      add\n        /* \"#utility.yul\":5313:5325   */\n      dup3\n        /* \"#utility.yul\":5279:5342   */\n      tag_246\n      jump\t// in\n    tag_374:\n        /* \"#utility.yul\":5184:5352   */\n      pop\n        /* \"#utility.yul\":5440:5444   */\n      0xe0\n        /* \"#utility.yul\":5433:5438   */\n      dup3\n        /* \"#utility.yul\":5429:5445   */\n      add\n        /* \"#utility.yul\":5423:5446   */\n      mload\n        /* \"#utility.yul\":5459:5522   */\n      tag_375\n        /* \"#utility.yul\":5516:5520   */\n      0xe0\n        /* \"#utility.yul\":5511:5514   */\n      dup6\n        /* \"#utility.yul\":5507:5521   */\n      add\n        /* \"#utility.yul\":5493:5505   */\n      dup3\n        /* \"#utility.yul\":5459:5522   */\n      tag_248\n      jump\t// in\n    tag_375:\n        /* \"#utility.yul\":5362:5532   */\n      pop\n        /* \"#utility.yul\":5617:5623   */\n      0x0100\n        /* \"#utility.yul\":5610:5615   */\n      dup3\n        /* \"#utility.yul\":5606:5624   */\n      add\n        /* \"#utility.yul\":5600:5625   */\n      mload\n        /* \"#utility.yul\":5638:5697   */\n      tag_376\n        /* \"#utility.yul\":5689:5695   */\n      0x0100\n        /* \"#utility.yul\":5684:5687   */\n      dup6\n        /* \"#utility.yul\":5680:5696   */\n      add\n        /* \"#utility.yul\":5666:5678   */\n      dup3\n        /* \"#utility.yul\":5638:5697   */\n      tag_250\n      jump\t// in\n    tag_376:\n        /* \"#utility.yul\":5542:5707   */\n      pop\n        /* \"#utility.yul\":5793:5799   */\n      0x0120\n        /* \"#utility.yul\":5786:5791   */\n      dup3\n        /* \"#utility.yul\":5782:5800   */\n      add\n        /* \"#utility.yul\":5776:5801   */\n      mload\n        /* \"#utility.yul\":5814:5873   */\n      tag_377\n        /* \"#utility.yul\":5865:5871   */\n      0x0120\n        /* \"#utility.yul\":5860:5863   */\n      dup6\n        /* \"#utility.yul\":5856:5872   */\n      add\n        /* \"#utility.yul\":5842:5854   */\n      dup3\n        /* \"#utility.yul\":5814:5873   */\n      tag_250\n      jump\t// in\n    tag_377:\n        /* \"#utility.yul\":5717:5883   */\n      pop\n        /* \"#utility.yul\":4059:5890   */\n      pop\n        /* \"#utility.yul\":3945:5890   */\n      pop\n      pop\n      jump\t// out\n        /* \"#utility.yul\":5896:6215   */\n    tag_40:\n        /* \"#utility.yul\":6037:6041   */\n      0x00\n        /* \"#utility.yul\":6075:6078   */\n      0x0140\n        /* \"#utility.yul\":6064:6073   */\n      dup3\n        /* \"#utility.yul\":6060:6079   */\n      add\n        /* \"#utility.yul\":6052:6079   */\n      swap1\n      pop\n        /* \"#utility.yul\":6089:6208   */\n      tag_379\n        /* \"#utility.yul\":6205:6206   */\n      0x00\n        /* \"#utility.yul\":6194:6203   */\n      dup4\n        /* \"#utility.yul\":6190:6207   */\n      add\n        /* \"#utility.yul\":6181:6187   */\n      dup5\n        /* \"#utility.yul\":6089:6208   */\n      tag_251\n      jump\t// in\n    tag_379:\n        /* \"#utility.yul\":5896:6215   */\n      swap3\n      swap2\n      pop\n      pop\n      jump\t// out\n        /* \"#utility.yul\":6221:6339   */\n    tag_252:\n        /* \"#utility.yul\":6308:6332   */\n      tag_381\n        /* \"#utility.yul\":6326:6331   */\n      dup2\n        /* \"#utility.yul\":6308:6332   */\n      tag_244\n      jump\t// in\n    tag_381:\n        /* \"#utility.yul\":6303:6306   */\n      dup3\n        /* \"#utility.yul\":6296:6333   */\n      mstore\n        /* \"#utility.yul\":6221:6339   */\n      pop\n      pop\n      jump\t// out\n        /* \"#utility.yul\":6345:6463   */\n    tag_253:\n        /* \"#utility.yul\":6432:6456   */\n      tag_383\n        /* \"#utility.yul\":6450:6455   */\n      dup2\n        /* \"#utility.yul\":6432:6456   */\n      tag_247\n      jump\t// in\n    tag_383:\n        /* \"#utility.yul\":6427:6430   */\n      dup3\n        /* \"#utility.yul\":6420:6457   */\n      mstore\n        /* \"#utility.yul\":6345:6463   */\n      pop\n      pop\n      jump\t// out\n        /* \"#utility.yul\":6469:6578   */\n    tag_254:\n        /* \"#utility.yul\":6550:6571   */\n      tag_385\n        /* \"#utility.yul\":6565:6570   */\n      dup2\n        /* \"#utility.yul\":6550:6571   */\n      tag_249\n      jump\t// in\n    tag_385:\n        /* \"#utility.yul\":6545:6548   */\n      dup3\n        /* \"#utility.yul\":6538:6572   */\n      mstore\n        /* \"#utility.yul\":6469:6578   */\n      pop\n      pop\n      jump\t// out\n        /* \"#utility.yul\":6584:7779   */\n    tag_61:\n        /* \"#utility.yul\":6917:6921   */\n      0x00\n        /* \"#utility.yul\":6955:6958   */\n      0x0140\n        /* \"#utility.yul\":6944:6953   */\n      dup3\n        /* \"#utility.yul\":6940:6959   */\n      add\n        /* \"#utility.yul\":6932:6959   */\n      swap1\n      pop\n        /* \"#utility.yul\":6969:7040   */\n      tag_387\n        /* \"#utility.yul\":7037:7038   */\n      0x00\n        /* \"#utility.yul\":7026:7035   */\n      dup4\n        /* \"#utility.yul\":7022:7039   */\n      add\n        /* \"#utility.yul\":7013:7019   */\n      dup14\n        /* \"#utility.yul\":6969:7040   */\n      tag_252\n      jump\t// in\n    tag_387:\n        /* \"#utility.yul\":7050:7122   */\n      tag_388\n        /* \"#utility.yul\":7118:7120   */\n      0x20\n        /* \"#utility.yul\":7107:7116   */\n      dup4\n        /* \"#utility.yul\":7103:7121   */\n      add\n        /* \"#utility.yul\":7094:7100   */\n      dup13\n        /* \"#utility.yul\":7050:7122   */\n      tag_252\n      jump\t// in\n    tag_388:\n        /* \"#utility.yul\":7132:7204   */\n      tag_389\n        /* \"#utility.yul\":7200:7202   */\n      0x40\n        /* \"#utility.yul\":7189:7198   */\n      dup4\n        /* \"#utility.yul\":7185:7203   */\n      add\n        /* \"#utility.yul\":7176:7182   */\n      dup12\n        /* \"#utility.yul\":7132:7204   */\n      tag_233\n      jump\t// in\n    tag_389:\n        /* \"#utility.yul\":7214:7286   */\n      tag_390\n        /* \"#utility.yul\":7282:7284   */\n      0x60\n        /* \"#utility.yul\":7271:7280   */\n      dup4\n        /* \"#utility.yul\":7267:7285   */\n      add\n        /* \"#utility.yul\":7258:7264   */\n      dup11\n        /* \"#utility.yul\":7214:7286   */\n      tag_233\n      jump\t// in\n    tag_390:\n        /* \"#utility.yul\":7296:7369   */\n      tag_391\n        /* \"#utility.yul\":7364:7367   */\n      0x80\n        /* \"#utility.yul\":7353:7362   */\n      dup4\n        /* \"#utility.yul\":7349:7368   */\n      add\n        /* \"#utility.yul\":7340:7346   */\n      dup10\n        /* \"#utility.yul\":7296:7369   */\n      tag_252\n      jump\t// in\n    tag_391:\n        /* \"#utility.yul\":7379:7452   */\n      tag_392\n        /* \"#utility.yul\":7447:7450   */\n      0xa0\n        /* \"#utility.yul\":7436:7445   */\n      dup4\n        /* \"#utility.yul\":7432:7451   */\n      add\n        /* \"#utility.yul\":7423:7429   */\n      dup9\n        /* \"#utility.yul\":7379:7452   */\n      tag_233\n      jump\t// in\n    tag_392:\n        /* \"#utility.yul\":7462:7535   */\n      tag_393\n        /* \"#utility.yul\":7530:7533   */\n      0xc0\n        /* \"#utility.yul\":7519:7528   */\n      dup4\n        /* \"#utility.yul\":7515:7534   */\n      add\n        /* \"#utility.yul\":7506:7512   */\n      dup8\n        /* \"#utility.yul\":7462:7535   */\n      tag_233\n      jump\t// in\n    tag_393:\n        /* \"#utility.yul\":7545:7618   */\n      tag_394\n        /* \"#utility.yul\":7613:7616   */\n      0xe0\n        /* \"#utility.yul\":7602:7611   */\n      dup4\n        /* \"#utility.yul\":7598:7617   */\n      add\n        /* \"#utility.yul\":7589:7595   */\n      dup7\n        /* \"#utility.yul\":7545:7618   */\n      tag_253\n      jump\t// in\n    tag_394:\n        /* \"#utility.yul\":7628:7695   */\n      tag_395\n        /* \"#utility.yul\":7690:7693   */\n      0x0100\n        /* \"#utility.yul\":7679:7688   */\n      dup4\n        /* \"#utility.yul\":7675:7694   */\n      add\n        /* \"#utility.yul\":7666:7672   */\n      dup6\n        /* \"#utility.yul\":7628:7695   */\n      tag_254\n      jump\t// in\n    tag_395:\n        /* \"#utility.yul\":7705:7772   */\n      tag_396\n        /* \"#utility.yul\":7767:7770   */\n      0x0120\n        /* \"#utility.yul\":7756:7765   */\n      dup4\n        /* \"#utility.yul\":7752:7771   */\n      add\n        /* \"#utility.yul\":7743:7749   */\n      dup5\n        /* \"#utility.yul\":7705:7772   */\n      tag_254\n      jump\t// in\n    tag_396:\n        /* \"#utility.yul\":6584:7779   */\n      swap12\n      swap11\n      pop\n      pop\n      pop\n      pop\n      pop\n      pop\n      pop\n      pop\n      pop\n      pop\n      pop\n      jump\t// out\n        /* \"#utility.yul\":7785:8007   */\n    tag_66:\n        /* \"#utility.yul\":7878:7882   */\n      0x00\n        /* \"#utility.yul\":7916:7918   */\n      0x20\n        /* \"#utility.yul\":7905:7914   */\n      dup3\n        /* \"#utility.yul\":7901:7919   */\n      add\n        /* \"#utility.yul\":7893:7919   */\n      swap1\n      pop\n        /* \"#utility.yul\":7929:8000   */\n      tag_398\n        /* \"#utility.yul\":7997:7998   */\n      0x00\n        /* \"#utility.yul\":7986:7995   */\n      dup4\n        /* \"#utility.yul\":7982:7999   */\n      add\n        /* \"#utility.yul\":7973:7979   */\n      dup5\n        /* \"#utility.yul\":7929:8000   */\n      tag_252\n      jump\t// in\n    tag_398:\n        /* \"#utility.yul\":7785:8007   */\n      swap3\n      swap2\n      pop\n      pop\n      jump\t// out\n        /* \"#utility.yul\":8013:8135   */\n    tag_255:\n        /* \"#utility.yul\":8086:8110   */\n      tag_400\n        /* \"#utility.yul\":8104:8109   */\n      dup2\n        /* \"#utility.yul\":8086:8110   */\n      tag_244\n      jump\t// in\n    tag_400:\n        /* \"#utility.yul\":8079:8084   */\n      dup2\n        /* \"#utility.yul\":8076:8111   */\n      eq\n        /* \"#utility.yul\":8066:8129   */\n      tag_401\n      jumpi\n        /* \"#utility.yul\":8125:8126   */\n      0x00\n        /* \"#utility.yul\":8122:8123   */\n      0x00\n        /* \"#utility.yul\":8115:8127   */\n      revert\n        /* \"#utility.yul\":8066:8129   */\n    tag_401:\n        /* \"#utility.yul\":8013:8135   */\n      pop\n      jump\t// out\n        /* \"#utility.yul\":8141:8280   */\n    tag_256:\n        /* \"#utility.yul\":8187:8192   */\n      0x00\n        /* \"#utility.yul\":8225:8231   */\n      dup2\n        /* \"#utility.yul\":8212:8232   */\n      calldataload\n        /* \"#utility.yul\":8203:8232   */\n      swap1\n      pop\n        /* \"#utility.yul\":8241:8274   */\n      tag_403\n        /* \"#utility.yul\":8268:8273   */\n      dup2\n        /* \"#utility.yul\":8241:8274   */\n      tag_255\n      jump\t// in\n    tag_403:\n        /* \"#utility.yul\":8141:8280   */\n      swap3\n      swap2\n      pop\n      pop\n      jump\t// out\n        /* \"#utility.yul\":8286:8408   */\n    tag_257:\n        /* \"#utility.yul\":8359:8383   */\n      tag_405\n        /* \"#utility.yul\":8377:8382   */\n      dup2\n        /* \"#utility.yul\":8359:8383   */\n      tag_247\n      jump\t// in\n    tag_405:\n        /* \"#utility.yul\":8352:8357   */\n      dup2\n        /* \"#utility.yul\":8349:8384   */\n      eq\n        /* \"#utility.yul\":8339:8402   */\n      tag_406\n      jumpi\n        /* \"#utility.yul\":8398:8399   */\n      0x00\n        /* \"#utility.yul\":8395:8396   */\n      0x00\n        /* \"#utility.yul\":8388:8400   */\n      revert\n        /* \"#utility.yul\":8339:8402   */\n    tag_406:\n        /* \"#utility.yul\":8286:8408   */\n      pop\n      jump\t// out\n        /* \"#utility.yul\":8414:8553   */\n    tag_258:\n        /* \"#utility.yul\":8460:8465   */\n      0x00\n        /* \"#utility.yul\":8498:8504   */\n      dup2\n        /* \"#utility.yul\":8485:8505   */\n      calldataload\n        /* \"#utility.yul\":8476:8505   */\n      swap1\n      pop\n        /* \"#utility.yul\":8514:8547   */\n      tag_408\n        /* \"#utility.yul\":8541:8546   */\n      dup2\n        /* \"#utility.yul\":8514:8547   */\n      tag_257\n      jump\t// in\n    tag_408:\n        /* \"#utility.yul\":8414:8553   */\n      swap3\n      swap2\n      pop\n      pop\n      jump\t// out\n        /* \"#utility.yul\":8559:9470   */\n    tag_70:\n        /* \"#utility.yul\":8654:8660   */\n      0x00\n        /* \"#utility.yul\":8662:8668   */\n      0x00\n        /* \"#utility.yul\":8670:8676   */\n      0x00\n        /* \"#utility.yul\":8678:8684   */\n      0x00\n        /* \"#utility.yul\":8686:8692   */\n      0x00\n        /* \"#utility.yul\":8735:8738   */\n      0xa0\n        /* \"#utility.yul\":8723:8732   */\n      dup7\n        /* \"#utility.yul\":8714:8721   */\n      dup9\n        /* \"#utility.yul\":8710:8733   */\n      sub\n        /* \"#utility.yul\":8706:8739   */\n      slt\n        /* \"#utility.yul\":8703:8823   */\n      iszero\n      tag_410\n      jumpi\n        /* \"#utility.yul\":8742:8821   */\n      tag_411\n      tag_235\n      jump\t// in\n    tag_411:\n        /* \"#utility.yul\":8703:8823   */\n    tag_410:\n        /* \"#utility.yul\":8862:8863   */\n      0x00\n        /* \"#utility.yul\":8887:8940   */\n      tag_412\n        /* \"#utility.yul\":8932:8939   */\n      dup9\n        /* \"#utility.yul\":8923:8929   */\n      dup3\n        /* \"#utility.yul\":8912:8921   */\n      dup10\n        /* \"#utility.yul\":8908:8930   */\n      add\n        /* \"#utility.yul\":8887:8940   */\n      tag_256\n      jump\t// in\n    tag_412:\n        /* \"#utility.yul\":8877:8940   */\n      swap6\n      pop\n        /* \"#utility.yul\":8833:8950   */\n      pop\n        /* \"#utility.yul\":8989:8991   */\n      0x20\n        /* \"#utility.yul\":9015:9068   */\n      tag_413\n        /* \"#utility.yul\":9060:9067   */\n      dup9\n        /* \"#utility.yul\":9051:9057   */\n      dup3\n        /* \"#utility.yul\":9040:9049   */\n      dup10\n        /* \"#utility.yul\":9036:9058   */\n      add\n        /* \"#utility.yul\":9015:9068   */\n      tag_238\n      jump\t// in\n    tag_413:\n        /* \"#utility.yul\":9005:9068   */\n      swap5\n      pop\n        /* \"#utility.yul\":8960:9078   */\n      pop\n        /* \"#utility.yul\":9117:9119   */\n      0x40\n        /* \"#utility.yul\":9143:9196   */\n      tag_414\n        /* \"#utility.yul\":9188:9195   */\n      dup9\n        /* \"#utility.yul\":9179:9185   */\n      dup3\n        /* \"#utility.yul\":9168:9177   */\n      dup10\n        /* \"#utility.yul\":9164:9186   */\n      add\n        /* \"#utility.yul\":9143:9196   */\n      tag_256\n      jump\t// in\n    tag_414:\n        /* \"#utility.yul\":9133:9196   */\n      swap4\n      pop\n        /* \"#utility.yul\":9088:9206   */\n      pop\n        /* \"#utility.yul\":9245:9247   */\n      0x60\n        /* \"#utility.yul\":9271:9324   */\n      tag_415\n        /* \"#utility.yul\":9316:9323   */\n      dup9\n        /* \"#utility.yul\":9307:9313   */\n      dup3\n        /* \"#utility.yul\":9296:9305   */\n      dup10\n        /* \"#utility.yul\":9292:9314   */\n      add\n        /* \"#utility.yul\":9271:9324   */\n      tag_238\n      jump\t// in\n    tag_415:\n        /* \"#utility.yul\":9261:9324   */\n      swap3\n      pop\n        /* \"#utility.yul\":9216:9334   */\n      pop\n        /* \"#utility.yul\":9373:9376   */\n      0x80\n        /* \"#utility.yul\":9400:9453   */\n      tag_416\n        /* \"#utility.yul\":9445:9452   */\n      dup9\n        /* \"#utility.yul\":9436:9442   */\n      dup3\n        /* \"#utility.yul\":9425:9434   */\n      dup10\n        /* \"#utility.yul\":9421:9443   */\n      add\n        /* \"#utility.yul\":9400:9453   */\n      tag_258\n      jump\t// in\n    tag_416:\n        /* \"#utility.yul\":9390:9453   */\n      swap2\n      pop\n        /* \"#utility.yul\":9344:9463   */\n      pop\n        /* \"#utility.yul\":8559:9470   */\n      swap3\n      swap6\n      pop\n      swap3\n      swap6\n      swap1\n      swap4\n      pop\n      jump\t// out\n        /* \"#utility.yul\":9476:9805   */\n    tag_76:\n        /* \"#utility.yul\":9535:9541   */\n      0x00\n        /* \"#utility.yul\":9584:9586   */\n      0x20\n        /* \"#utility.yul\":9572:9581   */\n      dup3\n        /* \"#utility.yul\":9563:9570   */\n      dup5\n        /* \"#utility.yul\":9559:9582   */\n      sub\n        /* \"#utility.yul\":9555:9587   */\n      slt\n        /* \"#utility.yul\":9552:9671   */\n      iszero\n      tag_418\n      jumpi\n        /* \"#utility.yul\":9590:9669   */\n      tag_419\n      tag_235\n      jump\t// in\n    tag_419:\n        /* \"#utility.yul\":9552:9671   */\n    tag_418:\n        /* \"#utility.yul\":9710:9711   */\n      0x00\n        /* \"#utility.yul\":9735:9788   */\n      tag_420\n        /* \"#utility.yul\":9780:9787   */\n      dup5\n        /* \"#utility.yul\":9771:9777   */\n      dup3\n        /* \"#utility.yul\":9760:9769   */\n      dup6\n        /* \"#utility.yul\":9756:9778   */\n      add\n        /* \"#utility.yul\":9735:9788   */\n      tag_256\n      jump\t// in\n    tag_420:\n        /* \"#utility.yul\":9725:9788   */\n      swap2\n      pop\n        /* \"#utility.yul\":9681:9798   */\n      pop\n        /* \"#utility.yul\":9476:9805   */\n      swap3\n      swap2\n      pop\n      pop\n      jump\t// out\n        /* \"#utility.yul\":9811:9980   */\n    tag_259:\n        /* \"#utility.yul\":9895:9906   */\n      0x00\n        /* \"#utility.yul\":9929:9935   */\n      dup3\n        /* \"#utility.yul\":9924:9927   */\n      dup3\n        /* \"#utility.yul\":9917:9936   */\n      mstore\n        /* \"#utility.yul\":9969:9973   */\n      0x20\n        /* \"#utility.yul\":9964:9967   */\n      dup3\n        /* \"#utility.yul\":9960:9974   */\n      add\n        /* \"#utility.yul\":9945:9974   */\n      swap1\n      pop\n        /* \"#utility.yul\":9811:9980   */\n      swap3\n      swap2\n      pop\n      pop\n      jump\t// out\n        /* \"#utility.yul\":9986:10145   */\n    tag_260:\n        /* \"#utility.yul\":10126:10137   */\n      0x7265656e7472616e740000000000000000000000000000000000000000000000\n        /* \"#utility.yul\":10122:10123   */\n      0x00\n        /* \"#utility.yul\":10114:10120   */\n      dup3\n        /* \"#utility.yul\":10110:10124   */\n      add\n        /* \"#utility.yul\":10103:10138   */\n      mstore\n        /* \"#utility.yul\":9986:10145   */\n      pop\n      jump\t// out\n        /* \"#utility.yul\":10151:10516   */\n    tag_261:\n        /* \"#utility.yul\":10293:10296   */\n      0x00\n        /* \"#utility.yul\":10314:10380   */\n      tag_424\n        /* \"#utility.yul\":10378:10379   */\n      0x09\n        /* \"#utility.yul\":10373:10376   */\n      dup4\n        /* \"#utility.yul\":10314:10380   */\n      tag_259\n      jump\t// in\n    tag_424:\n        /* \"#utility.yul\":10307:10380   */\n      swap2\n      pop\n        /* \"#utility.yul\":10389:10482   */\n      tag_425\n        /* \"#utility.yul\":10478:10481   */\n      dup3\n        /* \"#utility.yul\":10389:10482   */\n      tag_260\n      jump\t// in\n    tag_425:\n        /* \"#utility.yul\":10507:10509   */\n      0x20\n        /* \"#utility.yul\":10502:10505   */\n      dup3\n        /* \"#utility.yul\":10498:10510   */\n      add\n        /* \"#utility.yul\":10491:10510   */\n      swap1\n      pop\n        /* \"#utility.yul\":10151:10516   */\n      swap2\n      swap1\n      pop\n      jump\t// out\n        /* \"#utility.yul\":10522:10941   */\n    tag_81:\n        /* \"#utility.yul\":10688:10692   */\n      0x00\n        /* \"#utility.yul\":10726:10728   */\n      0x20\n        /* \"#utility.yul\":10715:10724   */\n      dup3\n        /* \"#utility.yul\":10711:10729   */\n      add\n        /* \"#utility.yul\":10703:10729   */\n      swap1\n      pop\n        /* \"#utility.yul\":10775:10784   */\n      dup2\n        /* \"#utility.yul\":10769:10773   */\n      dup2\n        /* \"#utility.yul\":10765:10785   */\n      sub\n        /* \"#utility.yul\":10761:10762   */\n      0x00\n        /* \"#utility.yul\":10750:10759   */\n      dup4\n        /* \"#utility.yul\":10746:10763   */\n      add\n        /* \"#utility.yul\":10739:10786   */\n      mstore\n        /* \"#utility.yul\":10803:10934   */\n      tag_427\n        /* \"#utility.yul\":10929:10933   */\n      dup2\n        /* \"#utility.yul\":10803:10934   */\n      tag_261\n      jump\t// in\n    tag_427:\n        /* \"#utility.yul\":10795:10934   */\n      swap1\n      pop\n        /* \"#utility.yul\":10522:10941   */\n      swap2\n      swap1\n      pop\n      jump\t// out\n        /* \"#utility.yul\":10947:11114   */\n    tag_262:\n        /* \"#utility.yul\":11087:11106   */\n      0x6e6f7420666f756e64206f72207a65726f000000000000000000000000000000\n        /* \"#utility.yul\":11083:11084   */\n      0x00\n        /* \"#utility.yul\":11075:11081   */\n      dup3\n        /* \"#utility.yul\":11071:11085   */\n      add\n        /* \"#utility.yul\":11064:11107   */\n      mstore\n        /* \"#utility.yul\":10947:11114   */\n      pop\n      jump\t// out\n        /* \"#utility.yul\":11120:11486   */\n    tag_263:\n        /* \"#utility.yul\":11262:11265   */\n      0x00\n        /* \"#utility.yul\":11283:11350   */\n      tag_430\n        /* \"#utility.yul\":11347:11349   */\n      0x11\n        /* \"#utility.yul\":11342:11345   */\n      dup4\n        /* \"#utility.yul\":11283:11350   */\n      tag_259\n      jump\t// in\n    tag_430:\n        /* \"#utility.yul\":11276:11350   */\n      swap2\n      pop\n        /* \"#utility.yul\":11359:11452   */\n      tag_431\n        /* \"#utility.yul\":11448:11451   */\n      dup3\n        /* \"#utility.yul\":11359:11452   */\n      tag_262\n      jump\t// in\n    tag_431:\n        /* \"#utility.yul\":11477:11479   */\n      0x20\n        /* \"#utility.yul\":11472:11475   */\n      dup3\n        /* \"#utility.yul\":11468:11480   */\n      add\n        /* \"#utility.yul\":11461:11480   */\n      swap1\n      pop\n        /* \"#utility.yul\":11120:11486   */\n      swap2\n      swap1\n      pop\n      jump\t// out\n        /* \"#utility.yul\":11492:11911   */\n    tag_85:\n        /* \"#utility.yul\":11658:11662   */\n      0x00\n        /* \"#utility.yul\":11696:11698   */\n      0x20\n        /* \"#utility.yul\":11685:11694   */\n      dup3\n        /* \"#utility.yul\":11681:11699   */\n      add\n        /* \"#utility.yul\":11673:11699   */\n      swap1\n      pop\n        /* \"#utility.yul\":11745:11754   */\n      dup2\n        /* \"#utility.yul\":11739:11743   */\n      dup2\n        /* \"#utility.yul\":11735:11755   */\n      sub\n        /* \"#utility.yul\":11731:11732   */\n      0x00\n        /* \"#utility.yul\":11720:11729   */\n      dup4\n        /* \"#utility.yul\":11716:11733   */\n      add\n        /* \"#utility.yul\":11709:11756   */\n      mstore\n        /* \"#utility.yul\":11773:11904   */\n      tag_433\n        /* \"#utility.yul\":11899:11903   */\n      dup2\n        /* \"#utility.yul\":11773:11904   */\n      tag_263\n      jump\t// in\n    tag_433:\n        /* \"#utility.yul\":11765:11904   */\n      swap1\n      pop\n        /* \"#utility.yul\":11492:11911   */\n      swap2\n      swap1\n      pop\n      jump\t// out\n        /* \"#utility.yul\":11917:12082   */\n    tag_264:\n        /* \"#utility.yul\":12057:12074   */\n      0x616c726561647920636c61696d65640000000000000000000000000000000000\n        /* \"#utility.yul\":12053:12054   */\n      0x00\n        /* \"#utility.yul\":12045:12051   */\n      dup3\n        /* \"#utility.yul\":12041:12055   */\n      add\n        /* \"#utility.yul\":12034:12075   */\n      mstore\n        /* \"#utility.yul\":11917:12082   */\n      pop\n      jump\t// out\n        /* \"#utility.yul\":12088:12454   */\n    tag_265:\n        /* \"#utility.yul\":12230:12233   */\n      0x00\n        /* \"#utility.yul\":12251:12318   */\n      tag_436\n        /* \"#utility.yul\":12315:12317   */\n      0x0f\n        /* \"#utility.yul\":12310:12313   */\n      dup4\n        /* \"#utility.yul\":12251:12318   */\n      tag_259\n      jump\t// in\n    tag_436:\n        /* \"#utility.yul\":12244:12318   */\n      swap2\n      pop\n        /* \"#utility.yul\":12327:12420   */\n      tag_437\n        /* \"#utility.yul\":12416:12419   */\n      dup3\n        /* \"#utility.yul\":12327:12420   */\n      tag_264\n      jump\t// in\n    tag_437:\n        /* \"#utility.yul\":12445:12447   */\n      0x20\n        /* \"#utility.yul\":12440:12443   */\n      dup3\n        /* \"#utility.yul\":12436:12448   */\n      add\n        /* \"#utility.yul\":12429:12448   */\n      swap1\n      pop\n        /* \"#utility.yul\":12088:12454   */\n      swap2\n      swap1\n      pop\n      jump\t// out\n        /* \"#utility.yul\":12460:12879   */\n    tag_88:\n        /* \"#utility.yul\":12626:12630   */\n      0x00\n        /* \"#utility.yul\":12664:12666   */\n      0x20\n        /* \"#utility.yul\":12653:12662   */\n      dup3\n        /* \"#utility.yul\":12649:12667   */\n      add\n        /* \"#utility.yul\":12641:12667   */\n      swap1\n      pop\n        /* \"#utility.yul\":12713:12722   */\n      dup2\n        /* \"#utility.yul\":12707:12711   */\n      dup2\n        /* \"#utility.yul\":12703:12723   */\n      sub\n        /* \"#utility.yul\":12699:12700   */\n      0x00\n        /* \"#utility.yul\":12688:12697   */\n      dup4\n        /* \"#utility.yul\":12684:12701   */\n      add\n        /* \"#utility.yul\":12677:12724   */\n      mstore\n        /* \"#utility.yul\":12741:12872   */\n      tag_439\n        /* \"#utility.yul\":12867:12871   */\n      dup2\n        /* \"#utility.yul\":12741:12872   */\n      tag_265\n      jump\t// in\n    tag_439:\n        /* \"#utility.yul\":12733:12872   */\n      swap1\n      pop\n        /* \"#utility.yul\":12460:12879   */\n      swap2\n      swap1\n      pop\n      jump\t// out\n        /* \"#utility.yul\":12885:13051   */\n    tag_266:\n        /* \"#utility.yul\":13025:13043   */\n      0x616c726561647920726566756e64656400000000000000000000000000000000\n        /* \"#utility.yul\":13021:13022   */\n      0x00\n        /* \"#utility.yul\":13013:13019   */\n      dup3\n        /* \"#utility.yul\":13009:13023   */\n      add\n        /* \"#utility.yul\":13002:13044   */\n      mstore\n        /* \"#utility.yul\":12885:13051   */\n      pop\n      jump\t// out\n        /* \"#utility.yul\":13057:13423   */\n    tag_267:\n        /* \"#utility.yul\":13199:13202   */\n      0x00\n        /* \"#utility.yul\":13220:13287   */\n      tag_442\n        /* \"#utility.yul\":13284:13286   */\n      0x10\n        /* \"#utility.yul\":13279:13282   */\n      dup4\n        /* \"#utility.yul\":13220:13287   */\n      tag_259\n      jump\t// in\n    tag_442:\n        /* \"#utility.yul\":13213:13287   */\n      swap2\n      pop\n        /* \"#utility.yul\":13296:13389   */\n      tag_443\n        /* \"#utility.yul\":13385:13388   */\n      dup3\n        /* \"#utility.yul\":13296:13389   */\n      tag_266\n      jump\t// in\n    tag_443:\n        /* \"#utility.yul\":13414:13416   */\n      0x20\n        /* \"#utility.yul\":13409:13412   */\n      dup3\n        /* \"#utility.yul\":13405:13417   */\n      add\n        /* \"#utility.yul\":13398:13417   */\n      swap1\n      pop\n        /* \"#utility.yul\":13057:13423   */\n      swap2\n      swap1\n      pop\n      jump\t// out\n        /* \"#utility.yul\":13429:13848   */\n    tag_91:\n        /* \"#utility.yul\":13595:13599   */\n      0x00\n        /* \"#utility.yul\":13633:13635   */\n      0x20\n        /* \"#utility.yul\":13622:13631   */\n      dup3\n        /* \"#utility.yul\":13618:13636   */\n      add\n        /* \"#utility.yul\":13610:13636   */\n      swap1\n      pop\n        /* \"#utility.yul\":13682:13691   */\n      dup2\n        /* \"#utility.yul\":13676:13680   */\n      dup2\n        /* \"#utility.yul\":13672:13692   */\n      sub\n        /* \"#utility.yul\":13668:13669   */\n      0x00\n        /* \"#utility.yul\":13657:13666   */\n      dup4\n        /* \"#utility.yul\":13653:13670   */\n      add\n        /* \"#utility.yul\":13646:13693   */\n      mstore\n        /* \"#utility.yul\":13710:13841   */\n      tag_445\n        /* \"#utility.yul\":13836:13840   */\n      dup2\n        /* \"#utility.yul\":13710:13841   */\n      tag_267\n      jump\t// in\n    tag_445:\n        /* \"#utility.yul\":13702:13841   */\n      swap1\n      pop\n        /* \"#utility.yul\":13429:13848   */\n      swap2\n      swap1\n      pop\n      jump\t// out\n        /* \"#utility.yul\":13854:14017   */\n    tag_268:\n        /* \"#utility.yul\":13994:14009   */\n      0x7061737420646561646c696e6500000000000000000000000000000000000000\n        /* \"#utility.yul\":13990:13991   */\n      0x00\n        /* \"#utility.yul\":13982:13988   */\n      dup3\n        /* \"#utility.yul\":13978:13992   */\n      add\n        /* \"#utility.yul\":13971:14010   */\n      mstore\n        /* \"#utility.yul\":13854:14017   */\n      pop\n      jump\t// out\n        /* \"#utility.yul\":14023:14389   */\n    tag_269:\n        /* \"#utility.yul\":14165:14168   */\n      0x00\n        /* \"#utility.yul\":14186:14253   */\n      tag_448\n        /* \"#utility.yul\":14250:14252   */\n      0x0d\n        /* \"#utility.yul\":14245:14248   */\n      dup4\n        /* \"#utility.yul\":14186:14253   */\n      tag_259\n      jump\t// in\n    tag_448:\n        /* \"#utility.yul\":14179:14253   */\n      swap2\n      pop\n        /* \"#utility.yul\":14262:14355   */\n      tag_449\n        /* \"#utility.yul\":14351:14354   */\n      dup3\n        /* \"#utility.yul\":14262:14355   */\n      tag_268\n      jump\t// in\n    tag_449:\n        /* \"#utility.yul\":14380:14382   */\n      0x20\n        /* \"#utility.yul\":14375:14378   */\n      dup3\n        /* \"#utility.yul\":14371:14383   */\n      add\n        /* \"#utility.yul\":14364:14383   */\n      swap1\n      pop\n        /* \"#utility.yul\":14023:14389   */\n      swap2\n      swap1\n      pop\n      jump\t// out\n        /* \"#utility.yul\":14395:14814   */\n    tag_94:\n        /* \"#utility.yul\":14561:14565   */\n      0x00\n        /* \"#utility.yul\":14599:14601   */\n      0x20\n        /* \"#utility.yul\":14588:14597   */\n      dup3\n        /* \"#utility.yul\":14584:14602   */\n      add\n        /* \"#utility.yul\":14576:14602   */\n      swap1\n      pop\n        /* \"#utility.yul\":14648:14657   */\n      dup2\n        /* \"#utility.yul\":14642:14646   */\n      dup2\n        /* \"#utility.yul\":14638:14658   */\n      sub\n        /* \"#utility.yul\":14634:14635   */\n      0x00\n        /* \"#utility.yul\":14623:14632   */\n      dup4\n        /* \"#utility.yul\":14619:14636   */\n      add\n        /* \"#utility.yul\":14612:14659   */\n      mstore\n        /* \"#utility.yul\":14676:14807   */\n      tag_451\n        /* \"#utility.yul\":14802:14806   */\n      dup2\n        /* \"#utility.yul\":14676:14807   */\n      tag_269\n      jump\t// in\n    tag_451:\n        /* \"#utility.yul\":14668:14807   */\n      swap1\n      pop\n        /* \"#utility.yul\":14395:14814   */\n      swap2\n      swap1\n      pop\n      jump\t// out\n        /* \"#utility.yul\":14820:14983   */\n    tag_270:\n        /* \"#utility.yul\":14960:14975   */\n      0x6e6f7420726563697069656e7400000000000000000000000000000000000000\n        /* \"#utility.yul\":14956:14957   */\n      0x00\n        /* \"#utility.yul\":14948:14954   */\n      dup3\n        /* \"#utility.yul\":14944:14958   */\n      add\n        /* \"#utility.yul\":14937:14976   */\n      mstore\n        /* \"#utility.yul\":14820:14983   */\n      pop\n      jump\t// out\n        /* \"#utility.yul\":14989:15355   */\n    tag_271:\n        /* \"#utility.yul\":15131:15134   */\n      0x00\n        /* \"#utility.yul\":15152:15219   */\n      tag_454\n        /* \"#utility.yul\":15216:15218   */\n      0x0d\n        /* \"#utility.yul\":15211:15214   */\n      dup4\n        /* \"#utility.yul\":15152:15219   */\n      tag_259\n      jump\t// in\n    tag_454:\n        /* \"#utility.yul\":15145:15219   */\n      swap2\n      pop\n        /* \"#utility.yul\":15228:15321   */\n      tag_455\n        /* \"#utility.yul\":15317:15320   */\n      dup3\n        /* \"#utility.yul\":15228:15321   */\n      tag_270\n      jump\t// in\n    tag_455:\n        /* \"#utility.yul\":15346:15348   */\n      0x20\n        /* \"#utility.yul\":15341:15344   */\n      dup3\n        /* \"#utility.yul\":15337:15349   */\n      add\n        /* \"#utility.yul\":15330:15349   */\n      swap1\n      pop\n        /* \"#utility.yul\":14989:15355   */\n      swap2\n      swap1\n      pop\n      jump\t// out\n        /* \"#utility.yul\":15361:15780   */\n    tag_97:\n        /* \"#utility.yul\":15527:15531   */\n      0x00\n        /* \"#utility.yul\":15565:15567   */\n      0x20\n        /* \"#utility.yul\":15554:15563   */\n      dup3\n        /* \"#utility.yul\":15550:15568   */\n      add\n        /* \"#utility.yul\":15542:15568   */\n      swap1\n      pop\n        /* \"#utility.yul\":15614:15623   */\n      dup2\n        /* \"#utility.yul\":15608:15612   */\n      dup2\n        /* \"#utility.yul\":15604:15624   */\n      sub\n        /* \"#utility.yul\":15600:15601   */\n      0x00\n        /* \"#utility.yul\":15589:15598   */\n      dup4\n        /* \"#utility.yul\":15585:15602   */\n      add\n        /* \"#utility.yul\":15578:15625   */\n      mstore\n        /* \"#utility.yul\":15642:15773   */\n      tag_457\n        /* \"#utility.yul\":15768:15772   */\n      dup2\n        /* \"#utility.yul\":15642:15773   */\n      tag_271\n      jump\t// in\n    tag_457:\n        /* \"#utility.yul\":15634:15773   */\n      swap1\n      pop\n        /* \"#utility.yul\":15361:15780   */\n      swap2\n      swap1\n      pop\n      jump\t// out\n        /* \"#utility.yul\":15786:15933   */\n    tag_272:\n        /* \"#utility.yul\":15887:15898   */\n      0x00\n        /* \"#utility.yul\":15924:15927   */\n      dup2\n        /* \"#utility.yul\":15909:15927   */\n      swap1\n      pop\n        /* \"#utility.yul\":15786:15933   */\n      swap3\n      swap2\n      pop\n      pop\n      jump\t// out\n        /* \"#utility.yul\":15939:16087   */\n    tag_273:\n        /* \"#utility.yul\":16037:16043   */\n      dup3\n        /* \"#utility.yul\":16032:16035   */\n      dup2\n        /* \"#utility.yul\":16027:16030   */\n      dup4\n        /* \"#utility.yul\":16014:16044   */\n      calldatacopy\n        /* \"#utility.yul\":16078:16079   */\n      0x00\n        /* \"#utility.yul\":16069:16075   */\n      dup4\n        /* \"#utility.yul\":16064:16067   */\n      dup4\n        /* \"#utility.yul\":16060:16076   */\n      add\n        /* \"#utility.yul\":16053:16080   */\n      mstore\n        /* \"#utility.yul\":15939:16087   */\n      pop\n      pop\n      pop\n      jump\t// out\n        /* \"#utility.yul\":16115:16442   */\n    tag_274:\n        /* \"#utility.yul\":16229:16232   */\n      0x00\n        /* \"#utility.yul\":16250:16338   */\n      tag_461\n        /* \"#utility.yul\":16331:16337   */\n      dup4\n        /* \"#utility.yul\":16326:16329   */\n      dup6\n        /* \"#utility.yul\":16250:16338   */\n      tag_272\n      jump\t// in\n    tag_461:\n        /* \"#utility.yul\":16243:16338   */\n      swap4\n      pop\n        /* \"#utility.yul\":16348:16404   */\n      tag_462\n        /* \"#utility.yul\":16397:16403   */\n      dup4\n        /* \"#utility.yul\":16392:16395   */\n      dup6\n        /* \"#utility.yul\":16385:16390   */\n      dup5\n        /* \"#utility.yul\":16348:16404   */\n      tag_273\n      jump\t// in\n    tag_462:\n        /* \"#utility.yul\":16429:16435   */\n      dup3\n        /* \"#utility.yul\":16424:16427   */\n      dup5\n        /* \"#utility.yul\":16420:16436   */\n      add\n        /* \"#utility.yul\":16413:16436   */\n      swap1\n      pop\n        /* \"#utility.yul\":16115:16442   */\n      swap4\n      swap3\n      pop\n      pop\n      pop\n      jump\t// out\n        /* \"#utility.yul\":16448:16542   */\n    tag_275:\n        /* \"#utility.yul\":16481:16489   */\n      0x00\n        /* \"#utility.yul\":16529:16534   */\n      dup2\n        /* \"#utility.yul\":16525:16527   */\n      0x60\n        /* \"#utility.yul\":16521:16535   */\n      shl\n        /* \"#utility.yul\":16500:16535   */\n      swap1\n      pop\n        /* \"#utility.yul\":16448:16542   */\n      swap2\n      swap1\n      pop\n      jump\t// out\n        /* \"#utility.yul\":16548:16642   */\n    tag_276:\n        /* \"#utility.yul\":16587:16594   */\n      0x00\n        /* \"#utility.yul\":16616:16636   */\n      tag_465\n        /* \"#utility.yul\":16630:16635   */\n      dup3\n        /* \"#utility.yul\":16616:16636   */\n      tag_275\n      jump\t// in\n    tag_465:\n        /* \"#utility.yul\":16605:16636   */\n      swap1\n      pop\n        /* \"#utility.yul\":16548:16642   */\n      swap2\n      swap1\n      pop\n      jump\t// out\n        /* \"#utility.yul\":16648:16748   */\n    tag_277:\n        /* \"#utility.yul\":16687:16694   */\n      0x00\n        /* \"#utility.yul\":16716:16742   */\n      tag_467\n        /* \"#utility.yul\":16736:16741   */\n      dup3\n        /* \"#utility.yul\":16716:16742   */\n      tag_276\n      jump\t// in\n    tag_467:\n        /* \"#utility.yul\":16705:16742   */\n      swap1\n      pop\n        /* \"#utility.yul\":16648:16748   */\n      swap2\n      swap1\n      pop\n      jump\t// out\n        /* \"#utility.yul\":16754:16911   */\n    tag_278:\n        /* \"#utility.yul\":16859:16904   */\n      tag_469\n        /* \"#utility.yul\":16879:16903   */\n      tag_470\n        /* \"#utility.yul\":16897:16902   */\n      dup3\n        /* \"#utility.yul\":16879:16903   */\n      tag_244\n      jump\t// in\n    tag_470:\n        /* \"#utility.yul\":16859:16904   */\n      tag_277\n      jump\t// in\n    tag_469:\n        /* \"#utility.yul\":16854:16857   */\n      dup3\n        /* \"#utility.yul\":16847:16905   */\n      mstore\n        /* \"#utility.yul\":16754:16911   */\n      pop\n      pop\n      jump\t// out\n        /* \"#utility.yul\":16917:17349   */\n    tag_99:\n        /* \"#utility.yul\":17085:17088   */\n      0x00\n        /* \"#utility.yul\":17107:17210   */\n      tag_472\n        /* \"#utility.yul\":17206:17209   */\n      dup3\n        /* \"#utility.yul\":17197:17203   */\n      dup6\n        /* \"#utility.yul\":17189:17195   */\n      dup8\n        /* \"#utility.yul\":17107:17210   */\n      tag_274\n      jump\t// in\n    tag_472:\n        /* \"#utility.yul\":17100:17210   */\n      swap2\n      pop\n        /* \"#utility.yul\":17220:17295   */\n      tag_473\n        /* \"#utility.yul\":17291:17294   */\n      dup3\n        /* \"#utility.yul\":17282:17288   */\n      dup5\n        /* \"#utility.yul\":17220:17295   */\n      tag_278\n      jump\t// in\n    tag_473:\n        /* \"#utility.yul\":17320:17322   */\n      0x14\n        /* \"#utility.yul\":17315:17318   */\n      dup3\n        /* \"#utility.yul\":17311:17323   */\n      add\n        /* \"#utility.yul\":17304:17323   */\n      swap2\n      pop\n        /* \"#utility.yul\":17340:17343   */\n      dup2\n        /* \"#utility.yul\":17333:17343   */\n      swap1\n      pop\n        /* \"#utility.yul\":16917:17349   */\n      swap5\n      swap4\n      pop\n      pop\n      pop\n      pop\n      jump\t// out\n        /* \"#utility.yul\":17355:17519   */\n    tag_279:\n        /* \"#utility.yul\":17495:17511   */\n      0x696e76616c696420736563726574000000000000000000000000000000000000\n        /* \"#utility.yul\":17491:17492   */\n      0x00\n        /* \"#utility.yul\":17483:17489   */\n      dup3\n        /* \"#utility.yul\":17479:17493   */\n      add\n        /* \"#utility.yul\":17472:17512   */\n      mstore\n        /* \"#utility.yul\":17355:17519   */\n      pop\n      jump\t// out\n        /* \"#utility.yul\":17525:17891   */\n    tag_280:\n        /* \"#utility.yul\":17667:17670   */\n      0x00\n        /* \"#utility.yul\":17688:17755   */\n      tag_476\n        /* \"#utility.yul\":17752:17754   */\n      0x0e\n        /* \"#utility.yul\":17747:17750   */\n      dup4\n        /* \"#utility.yul\":17688:17755   */\n      tag_259\n      jump\t// in\n    tag_476:\n        /* \"#utility.yul\":17681:17755   */\n      swap2\n      pop\n        /* \"#utility.yul\":17764:17857   */\n      tag_477\n        /* \"#utility.yul\":17853:17856   */\n      dup3\n        /* \"#utility.yul\":17764:17857   */\n      tag_279\n      jump\t// in\n    tag_477:\n        /* \"#utility.yul\":17882:17884   */\n      0x20\n        /* \"#utility.yul\":17877:17880   */\n      dup3\n        /* \"#utility.yul\":17873:17885   */\n      add\n        /* \"#utility.yul\":17866:17885   */\n      swap1\n      pop\n        /* \"#utility.yul\":17525:17891   */\n      swap2\n      swap1\n      pop\n      jump\t// out\n        /* \"#utility.yul\":17897:18316   */\n    tag_102:\n        /* \"#utility.yul\":18063:18067   */\n      0x00\n        /* \"#utility.yul\":18101:18103   */\n      0x20\n        /* \"#utility.yul\":18090:18099   */\n      dup3\n        /* \"#utility.yul\":18086:18104   */\n      add\n        /* \"#utility.yul\":18078:18104   */\n      swap1\n      pop\n        /* \"#utility.yul\":18150:18159   */\n      dup2\n        /* \"#utility.yul\":18144:18148   */\n      dup2\n        /* \"#utility.yul\":18140:18160   */\n      sub\n        /* \"#utility.yul\":18136:18137   */\n      0x00\n        /* \"#utility.yul\":18125:18134   */\n      dup4\n        /* \"#utility.yul\":18121:18138   */\n      add\n        /* \"#utility.yul\":18114:18161   */\n      mstore\n        /* \"#utility.yul\":18178:18309   */\n      tag_479\n        /* \"#utility.yul\":18304:18308   */\n      dup2\n        /* \"#utility.yul\":18178:18309   */\n      tag_280\n      jump\t// in\n    tag_479:\n        /* \"#utility.yul\":18170:18309   */\n      swap1\n      pop\n        /* \"#utility.yul\":17897:18316   */\n      swap2\n      swap1\n      pop\n      jump\t// out\n        /* \"#utility.yul\":18322:18502   */\n    tag_281:\n        /* \"#utility.yul\":18370:18447   */\n      0x4e487b7100000000000000000000000000000000000000000000000000000000\n        /* \"#utility.yul\":18367:18368   */\n      0x00\n        /* \"#utility.yul\":18360:18448   */\n      mstore\n        /* \"#utility.yul\":18467:18471   */\n      0x11\n        /* \"#utility.yul\":18464:18465   */\n      0x04\n        /* \"#utility.yul\":18457:18472   */\n      mstore\n        /* \"#utility.yul\":18491:18495   */\n      0x24\n        /* \"#utility.yul\":18488:18489   */\n      0x00\n        /* \"#utility.yul\":18481:18496   */\n      revert\n        /* \"#utility.yul\":18508:18918   */\n    tag_104:\n        /* \"#utility.yul\":18548:18555   */\n      0x00\n        /* \"#utility.yul\":18571:18591   */\n      tag_482\n        /* \"#utility.yul\":18589:18590   */\n      dup3\n        /* \"#utility.yul\":18571:18591   */\n      tag_232\n      jump\t// in\n    tag_482:\n        /* \"#utility.yul\":18566:18591   */\n      swap2\n      pop\n        /* \"#utility.yul\":18605:18625   */\n      tag_483\n        /* \"#utility.yul\":18623:18624   */\n      dup4\n        /* \"#utility.yul\":18605:18625   */\n      tag_232\n      jump\t// in\n    tag_483:\n        /* \"#utility.yul\":18600:18625   */\n      swap3\n      pop\n        /* \"#utility.yul\":18660:18661   */\n      dup3\n        /* \"#utility.yul\":18657:18658   */\n      dup3\n        /* \"#utility.yul\":18653:18662   */\n      mul\n        /* \"#utility.yul\":18682:18712   */\n      tag_484\n        /* \"#utility.yul\":18700:18711   */\n      dup2\n        /* \"#utility.yul\":18682:18712   */\n      tag_232\n      jump\t// in\n    tag_484:\n        /* \"#utility.yul\":18671:18712   */\n      swap2\n      pop\n        /* \"#utility.yul\":18861:18862   */\n      dup3\n        /* \"#utility.yul\":18852:18859   */\n      dup3\n        /* \"#utility.yul\":18848:18863   */\n      div\n        /* \"#utility.yul\":18845:18846   */\n      dup5\n        /* \"#utility.yul\":18842:18864   */\n      eq\n        /* \"#utility.yul\":18822:18823   */\n      dup4\n        /* \"#utility.yul\":18815:18824   */\n      iszero\n        /* \"#utility.yul\":18795:18878   */\n      or\n        /* \"#utility.yul\":18772:18911   */\n      tag_485\n      jumpi\n        /* \"#utility.yul\":18891:18909   */\n      tag_486\n      tag_281\n      jump\t// in\n    tag_486:\n        /* \"#utility.yul\":18772:18911   */\n    tag_485:\n        /* \"#utility.yul\":18556:18918   */\n      pop\n        /* \"#utility.yul\":18508:18918   */\n      swap3\n      swap2\n      pop\n      pop\n      jump\t// out\n        /* \"#utility.yul\":18924:19104   */\n    tag_282:\n        /* \"#utility.yul\":18972:19049   */\n      0x4e487b7100000000000000000000000000000000000000000000000000000000\n        /* \"#utility.yul\":18969:18970   */\n      0x00\n        /* \"#utility.yul\":18962:19050   */\n      mstore\n        /* \"#utility.yul\":19069:19073   */\n      0x12\n        /* \"#utility.yul\":19066:19067   */\n      0x04\n        /* \"#utility.yul\":19059:19074   */\n      mstore\n        /* \"#utility.yul\":19093:19097   */\n      0x24\n        /* \"#utility.yul\":19090:19091   */\n      0x00\n        /* \"#utility.yul\":19083:19098   */\n      revert\n        /* \"#utility.yul\":19110:19295   */\n    tag_106:\n        /* \"#utility.yul\":19150:19151   */\n      0x00\n        /* \"#utility.yul\":19167:19187   */\n      tag_489\n        /* \"#utility.yul\":19185:19186   */\n      dup3\n        /* \"#utility.yul\":19167:19187   */\n      tag_232\n      jump\t// in\n    tag_489:\n        /* \"#utility.yul\":19162:19187   */\n      swap2\n      pop\n        /* \"#utility.yul\":19201:19221   */\n      tag_490\n        /* \"#utility.yul\":19219:19220   */\n      dup4\n        /* \"#utility.yul\":19201:19221   */\n      tag_232\n      jump\t// in\n    tag_490:\n        /* \"#utility.yul\":19196:19221   */\n      swap3\n      pop\n        /* \"#utility.yul\":19240:19241   */\n      dup3\n        /* \"#utility.yul\":19230:19265   */\n      tag_491\n      jumpi\n        /* \"#utility.yul\":19245:19263   */\n      tag_492\n      tag_282\n      jump\t// in\n    tag_492:\n        /* \"#utility.yul\":19230:19265   */\n    tag_491:\n        /* \"#utility.yul\":19287:19288   */\n      dup3\n        /* \"#utility.yul\":19284:19285   */\n      dup3\n        /* \"#utility.yul\":19280:19289   */\n      div\n        /* \"#utility.yul\":19275:19289   */\n      swap1\n      pop\n        /* \"#utility.yul\":19110:19295   */\n      swap3\n      swap2\n      pop\n      pop\n      jump\t// out\n        /* \"#utility.yul\":19301:19495   */\n    tag_108:\n        /* \"#utility.yul\":19341:19345   */\n      0x00\n        /* \"#utility.yul\":19361:19381   */\n      tag_494\n        /* \"#utility.yul\":19379:19380   */\n      dup3\n        /* \"#utility.yul\":19361:19381   */\n      tag_232\n      jump\t// in\n    tag_494:\n        /* \"#utility.yul\":19356:19381   */\n      swap2\n      pop\n        /* \"#utility.yul\":19395:19415   */\n      tag_495\n        /* \"#utility.yul\":19413:19414   */\n      dup4\n        /* \"#utility.yul\":19395:19415   */\n      tag_232\n      jump\t// in\n    tag_495:\n        /* \"#utility.yul\":19390:19415   */\n      swap3\n      pop\n        /* \"#utility.yul\":19439:19440   */\n      dup3\n        /* \"#utility.yul\":19436:19437   */\n      dup3\n        /* \"#utility.yul\":19432:19441   */\n      sub\n        /* \"#utility.yul\":19424:19441   */\n      swap1\n      pop\n        /* \"#utility.yul\":19463:19464   */\n      dup2\n        /* \"#utility.yul\":19457:19461   */\n      dup2\n        /* \"#utility.yul\":19454:19465   */\n      gt\n        /* \"#utility.yul\":19451:19488   */\n      iszero\n      tag_496\n      jumpi\n        /* \"#utility.yul\":19468:19486   */\n      tag_497\n      tag_281\n      jump\t// in\n    tag_497:\n        /* \"#utility.yul\":19451:19488   */\n    tag_496:\n        /* \"#utility.yul\":19301:19495   */\n      swap3\n      swap2\n      pop\n      pop\n      jump\t// out\n        /* \"#utility.yul\":19501:19833   */\n    tag_115:\n        /* \"#utility.yul\":19622:19626   */\n      0x00\n        /* \"#utility.yul\":19660:19662   */\n      0x40\n        /* \"#utility.yul\":19649:19658   */\n      dup3\n        /* \"#utility.yul\":19645:19663   */\n      add\n        /* \"#utility.yul\":19637:19663   */\n      swap1\n      pop\n        /* \"#utility.yul\":19673:19744   */\n      tag_499\n        /* \"#utility.yul\":19741:19742   */\n      0x00\n        /* \"#utility.yul\":19730:19739   */\n      dup4\n        /* \"#utility.yul\":19726:19743   */\n      add\n        /* \"#utility.yul\":19717:19723   */\n      dup6\n        /* \"#utility.yul\":19673:19744   */\n      tag_233\n      jump\t// in\n    tag_499:\n        /* \"#utility.yul\":19754:19826   */\n      tag_500\n        /* \"#utility.yul\":19822:19824   */\n      0x20\n        /* \"#utility.yul\":19811:19820   */\n      dup4\n        /* \"#utility.yul\":19807:19825   */\n      add\n        /* \"#utility.yul\":19798:19804   */\n      dup5\n        /* \"#utility.yul\":19754:19826   */\n      tag_233\n      jump\t// in\n    tag_500:\n        /* \"#utility.yul\":19501:19833   */\n      swap4\n      swap3\n      pop\n      pop\n      pop\n      jump\t// out\n        /* \"#utility.yul\":19839:20000   */\n    tag_283:\n        /* \"#utility.yul\":19979:19992   */\n      0x6e6f742065787069726564000000000000000000000000000000000000000000\n        /* \"#utility.yul\":19975:19976   */\n      0x00\n        /* \"#utility.yul\":19967:19973   */\n      dup3\n        /* \"#utility.yul\":19963:19977   */\n      add\n        /* \"#utility.yul\":19956:19993   */\n      mstore\n        /* \"#utility.yul\":19839:20000   */\n      pop\n      jump\t// out\n        /* \"#utility.yul\":20006:20372   */\n    tag_284:\n        /* \"#utility.yul\":20148:20151   */\n      0x00\n        /* \"#utility.yul\":20169:20236   */\n      tag_503\n        /* \"#utility.yul\":20233:20235   */\n      0x0b\n        /* \"#utility.yul\":20228:20231   */\n      dup4\n        /* \"#utility.yul\":20169:20236   */\n      tag_259\n      jump\t// in\n    tag_503:\n        /* \"#utility.yul\":20162:20236   */\n      swap2\n      pop\n        /* \"#utility.yul\":20245:20338   */\n      tag_504\n        /* \"#utility.yul\":20334:20337   */\n      dup3\n        /* \"#utility.yul\":20245:20338   */\n      tag_283\n      jump\t// in\n    tag_504:\n        /* \"#utility.yul\":20363:20365   */\n      0x20\n        /* \"#utility.yul\":20358:20361   */\n      dup3\n        /* \"#utility.yul\":20354:20366   */\n      add\n        /* \"#utility.yul\":20347:20366   */\n      swap1\n      pop\n        /* \"#utility.yul\":20006:20372   */\n      swap2\n      swap1\n      pop\n      jump\t// out\n        /* \"#utility.yul\":20378:20797   */\n    tag_128:\n        /* \"#utility.yul\":20544:20548   */\n      0x00\n        /* \"#utility.yul\":20582:20584   */\n      0x20\n        /* \"#utility.yul\":20571:20580   */\n      dup3\n        /* \"#utility.yul\":20567:20585   */\n      add\n        /* \"#utility.yul\":20559:20585   */\n      swap1\n      pop\n        /* \"#utility.yul\":20631:20640   */\n      dup2\n        /* \"#utility.yul\":20625:20629   */\n      dup2\n        /* \"#utility.yul\":20621:20641   */\n      sub\n        /* \"#utility.yul\":20617:20618   */\n      0x00\n        /* \"#utility.yul\":20606:20615   */\n      dup4\n        /* \"#utility.yul\":20602:20619   */\n      add\n        /* \"#utility.yul\":20595:20642   */\n      mstore\n        /* \"#utility.yul\":20659:20790   */\n      tag_506\n        /* \"#utility.yul\":20785:20789   */\n      dup2\n        /* \"#utility.yul\":20659:20790   */\n      tag_284\n      jump\t// in\n    tag_506:\n        /* \"#utility.yul\":20651:20790   */\n      swap1\n      pop\n        /* \"#utility.yul\":20378:20797   */\n      swap2\n      swap1\n      pop\n      jump\t// out\n        /* \"#utility.yul\":20803:20963   */\n    tag_285:\n        /* \"#utility.yul\":20943:20955   */\n      0x6e6f742073656e64657200000000000000000000000000000000000000000000\n        /* \"#utility.yul\":20939:20940   */\n      0x00\n        /* \"#utility.yul\":20931:20937   */\n      dup3\n        /* \"#utility.yul\":20927:20941   */\n      add\n        /* \"#utility.yul\":20920:20956   */\n      mstore\n        /* \"#utility.yul\":20803:20963   */\n      pop\n      jump\t// out\n        /* \"#utility.yul\":20969:21335   */\n    tag_286:\n        /* \"#utility.yul\":21111:21114   */\n      0x00\n        /* \"#utility.yul\":21132:21199   */\n      tag_509\n        /* \"#utility.yul\":21196:21198   */\n      0x0a\n        /* \"#utility.yul\":21191:21194   */\n      dup4\n        /* \"#utility.yul\":21132:21199   */\n      tag_259\n      jump\t// in\n    tag_509:\n        /* \"#utility.yul\":21125:21199   */\n      swap2\n      pop\n        /* \"#utility.yul\":21208:21301   */\n      tag_510\n        /* \"#utility.yul\":21297:21300   */\n      dup3\n        /* \"#utility.yul\":21208:21301   */\n      tag_285\n      jump\t// in\n    tag_510:\n        /* \"#utility.yul\":21326:21328   */\n      0x20\n        /* \"#utility.yul\":21321:21324   */\n      dup3\n        /* \"#utility.yul\":21317:21329   */\n      add\n        /* \"#utility.yul\":21310:21329   */\n      swap1\n      pop\n        /* \"#utility.yul\":20969:21335   */\n      swap2\n      swap1\n      pop\n      jump\t// out\n        /* \"#utility.yul\":21341:21760   */\n    tag_131:\n        /* \"#utility.yul\":21507:21511   */\n      0x00\n        /* \"#utility.yul\":21545:21547   */\n      0x20\n        /* \"#utility.yul\":21534:21543   */\n      dup3\n        /* \"#utility.yul\":21530:21548   */\n      add\n        /* \"#utility.yul\":21522:21548   */\n      swap1\n      pop\n        /* \"#utility.yul\":21594:21603   */\n      dup2\n        /* \"#utility.yul\":21588:21592   */\n      dup2\n        /* \"#utility.yul\":21584:21604   */\n      sub\n        /* \"#utility.yul\":21580:21581   */\n      0x00\n        /* \"#utility.yul\":21569:21578   */\n      dup4\n        /* \"#utility.yul\":21565:21582   */\n      add\n        /* \"#utility.yul\":21558:21605   */\n      mstore\n        /* \"#utility.yul\":21622:21753   */\n      tag_512\n        /* \"#utility.yul\":21748:21752   */\n      dup2\n        /* \"#utility.yul\":21622:21753   */\n      tag_286\n      jump\t// in\n    tag_512:\n        /* \"#utility.yul\":21614:21753   */\n      swap1\n      pop\n        /* \"#utility.yul\":21341:21760   */\n      swap2\n      swap1\n      pop\n      jump\t// out\n        /* \"#utility.yul\":21766:21926   */\n    tag_287:\n        /* \"#utility.yul\":21906:21918   */\n      0x6f6e6c79206f776e657200000000000000000000000000000000000000000000\n        /* \"#utility.yul\":21902:21903   */\n      0x00\n        /* \"#utility.yul\":21894:21900   */\n      dup3\n        /* \"#utility.yul\":21890:21904   */\n      add\n        /* \"#utility.yul\":21883:21919   */\n      mstore\n        /* \"#utility.yul\":21766:21926   */\n      pop\n      jump\t// out\n        /* \"#utility.yul\":21932:22298   */\n    tag_288:\n        /* \"#utility.yul\":22074:22077   */\n      0x00\n        /* \"#utility.yul\":22095:22162   */\n      tag_515\n        /* \"#utility.yul\":22159:22161   */\n      0x0a\n        /* \"#utility.yul\":22154:22157   */\n      dup4\n        /* \"#utility.yul\":22095:22162   */\n      tag_259\n      jump\t// in\n    tag_515:\n        /* \"#utility.yul\":22088:22162   */\n      swap2\n      pop\n        /* \"#utility.yul\":22171:22264   */\n      tag_516\n        /* \"#utility.yul\":22260:22263   */\n      dup3\n        /* \"#utility.yul\":22171:22264   */\n      tag_287\n      jump\t// in\n    tag_516:\n        /* \"#utility.yul\":22289:22291   */\n      0x20\n        /* \"#utility.yul\":22284:22287   */\n      dup3\n        /* \"#utility.yul\":22280:22292   */\n      add\n        /* \"#utility.yul\":22273:22292   */\n      swap1\n      pop\n        /* \"#utility.yul\":21932:22298   */\n      swap2\n      swap1\n      pop\n      jump\t// out\n        /* \"#utility.yul\":22304:22723   */\n    tag_140:\n        /* \"#utility.yul\":22470:22474   */\n      0x00\n        /* \"#utility.yul\":22508:22510   */\n      0x20\n        /* \"#utility.yul\":22497:22506   */\n      dup3\n        /* \"#utility.yul\":22493:22511   */\n      add\n        /* \"#utility.yul\":22485:22511   */\n      swap1\n      pop\n        /* \"#utility.yul\":22557:22566   */\n      dup2\n        /* \"#utility.yul\":22551:22555   */\n      dup2\n        /* \"#utility.yul\":22547:22567   */\n      sub\n        /* \"#utility.yul\":22543:22544   */\n      0x00\n        /* \"#utility.yul\":22532:22541   */\n      dup4\n        /* \"#utility.yul\":22528:22545   */\n      add\n        /* \"#utility.yul\":22521:22568   */\n      mstore\n        /* \"#utility.yul\":22585:22716   */\n      tag_518\n        /* \"#utility.yul\":22711:22715   */\n      dup2\n        /* \"#utility.yul\":22585:22716   */\n      tag_288\n      jump\t// in\n    tag_518:\n        /* \"#utility.yul\":22577:22716   */\n      swap1\n      pop\n        /* \"#utility.yul\":22304:22723   */\n      swap2\n      swap1\n      pop\n      jump\t// out\n        /* \"#utility.yul\":22729:22892   */\n    tag_289:\n        /* \"#utility.yul\":22869:22884   */\n      0x6665654270733c3d313030303000000000000000000000000000000000000000\n        /* \"#utility.yul\":22865:22866   */\n      0x00\n        /* \"#utility.yul\":22857:22863   */\n      dup3\n        /* \"#utility.yul\":22853:22867   */\n      add\n        /* \"#utility.yul\":22846:22885   */\n      mstore\n        /* \"#utility.yul\":22729:22892   */\n      pop\n      jump\t// out\n        /* \"#utility.yul\":22898:23264   */\n    tag_290:\n        /* \"#utility.yul\":23040:23043   */\n      0x00\n        /* \"#utility.yul\":23061:23128   */\n      tag_521\n        /* \"#utility.yul\":23125:23127   */\n      0x0d\n        /* \"#utility.yul\":23120:23123   */\n      dup4\n        /* \"#utility.yul\":23061:23128   */\n      tag_259\n      jump\t// in\n    tag_521:\n        /* \"#utility.yul\":23054:23128   */\n      swap2\n      pop\n        /* \"#utility.yul\":23137:23230   */\n      tag_522\n        /* \"#utility.yul\":23226:23229   */\n      dup3\n        /* \"#utility.yul\":23137:23230   */\n      tag_289\n      jump\t// in\n    tag_522:\n        /* \"#utility.yul\":23255:23257   */\n      0x20\n        /* \"#utility.yul\":23250:23253   */\n      dup3\n        /* \"#utility.yul\":23246:23258   */\n      add\n        /* \"#utility.yul\":23239:23258   */\n      swap1\n      pop\n        /* \"#utility.yul\":22898:23264   */\n      swap2\n      swap1\n      pop\n      jump\t// out\n        /* \"#utility.yul\":23270:23689   */\n    tag_148:\n        /* \"#utility.yul\":23436:23440   */\n      0x00\n        /* \"#utility.yul\":23474:23476   */\n      0x20\n        /* \"#utility.yul\":23463:23472   */\n      dup3\n        /* \"#utility.yul\":23459:23477   */\n      add\n        /* \"#utility.yul\":23451:23477   */\n      swap1\n      pop\n        /* \"#utility.yul\":23523:23532   */\n      dup2\n        /* \"#utility.yul\":23517:23521   */\n      dup2\n        /* \"#utility.yul\":23513:23533   */\n      sub\n        /* \"#utility.yul\":23509:23510   */\n      0x00\n        /* \"#utility.yul\":23498:23507   */\n      dup4\n        /* \"#utility.yul\":23494:23511   */\n      add\n        /* \"#utility.yul\":23487:23534   */\n      mstore\n        /* \"#utility.yul\":23551:23682   */\n      tag_524\n        /* \"#utility.yul\":23677:23681   */\n      dup2\n        /* \"#utility.yul\":23551:23682   */\n      tag_290\n      jump\t// in\n    tag_524:\n        /* \"#utility.yul\":23543:23682   */\n      swap1\n      pop\n        /* \"#utility.yul\":23270:23689   */\n      swap2\n      swap1\n      pop\n      jump\t// out\n        /* \"#utility.yul\":23695:23864   */\n    tag_291:\n        /* \"#utility.yul\":23835:23856   */\n      0x696e73756666696369656e74206e617469766500000000000000000000000000\n        /* \"#utility.yul\":23831:23832   */\n      0x00\n        /* \"#utility.yul\":23823:23829   */\n      dup3\n        /* \"#utility.yul\":23819:23833   */\n      add\n        /* \"#utility.yul\":23812:23857   */\n      mstore\n        /* \"#utility.yul\":23695:23864   */\n      pop\n      jump\t// out\n        /* \"#utility.yul\":23870:24236   */\n    tag_292:\n        /* \"#utility.yul\":24012:24015   */\n      0x00\n        /* \"#utility.yul\":24033:24100   */\n      tag_527\n        /* \"#utility.yul\":24097:24099   */\n      0x13\n        /* \"#utility.yul\":24092:24095   */\n      dup4\n        /* \"#utility.yul\":24033:24100   */\n      tag_259\n      jump\t// in\n    tag_527:\n        /* \"#utility.yul\":24026:24100   */\n      swap2\n      pop\n        /* \"#utility.yul\":24109:24202   */\n      tag_528\n        /* \"#utility.yul\":24198:24201   */\n      dup3\n        /* \"#utility.yul\":24109:24202   */\n      tag_291\n      jump\t// in\n    tag_528:\n        /* \"#utility.yul\":24227:24229   */\n      0x20\n        /* \"#utility.yul\":24222:24225   */\n      dup3\n        /* \"#utility.yul\":24218:24230   */\n      add\n        /* \"#utility.yul\":24211:24230   */\n      swap1\n      pop\n        /* \"#utility.yul\":23870:24236   */\n      swap2\n      swap1\n      pop\n      jump\t// out\n        /* \"#utility.yul\":24242:24661   */\n    tag_156:\n        /* \"#utility.yul\":24408:24412   */\n      0x00\n        /* \"#utility.yul\":24446:24448   */\n      0x20\n        /* \"#utility.yul\":24435:24444   */\n      dup3\n        /* \"#utility.yul\":24431:24449   */\n      add\n        /* \"#utility.yul\":24423:24449   */\n      swap1\n      pop\n        /* \"#utility.yul\":24495:24504   */\n      dup2\n        /* \"#utility.yul\":24489:24493   */\n      dup2\n        /* \"#utility.yul\":24485:24505   */\n      sub\n        /* \"#utility.yul\":24481:24482   */\n      0x00\n        /* \"#utility.yul\":24470:24479   */\n      dup4\n        /* \"#utility.yul\":24466:24483   */\n      add\n        /* \"#utility.yul\":24459:24506   */\n      mstore\n        /* \"#utility.yul\":24523:24654   */\n      tag_530\n        /* \"#utility.yul\":24649:24653   */\n      dup2\n        /* \"#utility.yul\":24523:24654   */\n      tag_292\n      jump\t// in\n    tag_530:\n        /* \"#utility.yul\":24515:24654   */\n      swap1\n      pop\n        /* \"#utility.yul\":24242:24661   */\n      swap2\n      swap1\n      pop\n      jump\t// out\n        /* \"#utility.yul\":24667:24827   */\n    tag_293:\n        /* \"#utility.yul\":24807:24819   */\n      0x746f6b656e207a65726f00000000000000000000000000000000000000000000\n        /* \"#utility.yul\":24803:24804   */\n      0x00\n        /* \"#utility.yul\":24795:24801   */\n      dup3\n        /* \"#utility.yul\":24791:24805   */\n      add\n        /* \"#utility.yul\":24784:24820   */\n      mstore\n        /* \"#utility.yul\":24667:24827   */\n      pop\n      jump\t// out\n        /* \"#utility.yul\":24833:25199   */\n    tag_294:\n        /* \"#utility.yul\":24975:24978   */\n      0x00\n        /* \"#utility.yul\":24996:25063   */\n      tag_533\n        /* \"#utility.yul\":25060:25062   */\n      0x0a\n        /* \"#utility.yul\":25055:25058   */\n      dup4\n        /* \"#utility.yul\":24996:25063   */\n      tag_259\n      jump\t// in\n    tag_533:\n        /* \"#utility.yul\":24989:25063   */\n      swap2\n      pop\n        /* \"#utility.yul\":25072:25165   */\n      tag_534\n        /* \"#utility.yul\":25161:25164   */\n      dup3\n        /* \"#utility.yul\":25072:25165   */\n      tag_293\n      jump\t// in\n    tag_534:\n        /* \"#utility.yul\":25190:25192   */\n      0x20\n        /* \"#utility.yul\":25185:25188   */\n      dup3\n        /* \"#utility.yul\":25181:25193   */\n      add\n        /* \"#utility.yul\":25174:25193   */\n      swap1\n      pop\n        /* \"#utility.yul\":24833:25199   */\n      swap2\n      swap1\n      pop\n      jump\t// out\n        /* \"#utility.yul\":25205:25624   */\n    tag_165:\n        /* \"#utility.yul\":25371:25375   */\n      0x00\n        /* \"#utility.yul\":25409:25411   */\n      0x20\n        /* \"#utility.yul\":25398:25407   */\n      dup3\n        /* \"#utility.yul\":25394:25412   */\n      add\n        /* \"#utility.yul\":25386:25412   */\n      swap1\n      pop\n        /* \"#utility.yul\":25458:25467   */\n      dup2\n        /* \"#utility.yul\":25452:25456   */\n      dup2\n        /* \"#utility.yul\":25448:25468   */\n      sub\n        /* \"#utility.yul\":25444:25445   */\n      0x00\n        /* \"#utility.yul\":25433:25442   */\n      dup4\n        /* \"#utility.yul\":25429:25446   */\n      add\n        /* \"#utility.yul\":25422:25469   */\n      mstore\n        /* \"#utility.yul\":25486:25617   */\n      tag_536\n        /* \"#utility.yul\":25612:25616   */\n      dup2\n        /* \"#utility.yul\":25486:25617   */\n      tag_294\n      jump\t// in\n    tag_536:\n        /* \"#utility.yul\":25478:25617   */\n      swap1\n      pop\n        /* \"#utility.yul\":25205:25624   */\n      swap2\n      swap1\n      pop\n      jump\t// out\n        /* \"#utility.yul\":25630:25788   */\n    tag_295:\n        /* \"#utility.yul\":25770:25780   */\n      0x616d6f756e743e30000000000000000000000000000000000000000000000000\n        /* \"#utility.yul\":25766:25767   */\n      0x00\n        /* \"#utility.yul\":25758:25764   */\n      dup3\n        /* \"#utility.yul\":25754:25768   */\n      add\n        /* \"#utility.yul\":25747:25781   */\n      mstore\n        /* \"#utility.yul\":25630:25788   */\n      pop\n      jump\t// out\n        /* \"#utility.yul\":25794:26159   */\n    tag_296:\n        /* \"#utility.yul\":25936:25939   */\n      0x00\n        /* \"#utility.yul\":25957:26023   */\n      tag_539\n        /* \"#utility.yul\":26021:26022   */\n      0x08\n        /* \"#utility.yul\":26016:26019   */\n      dup4\n        /* \"#utility.yul\":25957:26023   */\n      tag_259\n      jump\t// in\n    tag_539:\n        /* \"#utility.yul\":25950:26023   */\n      swap2\n      pop\n        /* \"#utility.yul\":26032:26125   */\n      tag_540\n        /* \"#utility.yul\":26121:26124   */\n      dup3\n        /* \"#utility.yul\":26032:26125   */\n      tag_295\n      jump\t// in\n    tag_540:\n        /* \"#utility.yul\":26150:26152   */\n      0x20\n        /* \"#utility.yul\":26145:26148   */\n      dup3\n        /* \"#utility.yul\":26141:26153   */\n      add\n        /* \"#utility.yul\":26134:26153   */\n      swap1\n      pop\n        /* \"#utility.yul\":25794:26159   */\n      swap2\n      swap1\n      pop\n      jump\t// out\n        /* \"#utility.yul\":26165:26584   */\n    tag_168:\n        /* \"#utility.yul\":26331:26335   */\n      0x00\n        /* \"#utility.yul\":26369:26371   */\n      0x20\n        /* \"#utility.yul\":26358:26367   */\n      dup3\n        /* \"#utility.yul\":26354:26372   */\n      add\n        /* \"#utility.yul\":26346:26372   */\n      swap1\n      pop\n        /* \"#utility.yul\":26418:26427   */\n      dup2\n        /* \"#utility.yul\":26412:26416   */\n      dup2\n        /* \"#utility.yul\":26408:26428   */\n      sub\n        /* \"#utility.yul\":26404:26405   */\n      0x00\n        /* \"#utility.yul\":26393:26402   */\n      dup4\n        /* \"#utility.yul\":26389:26406   */\n      add\n        /* \"#utility.yul\":26382:26429   */\n      mstore\n        /* \"#utility.yul\":26446:26577   */\n      tag_542\n        /* \"#utility.yul\":26572:26576   */\n      dup2\n        /* \"#utility.yul\":26446:26577   */\n      tag_296\n      jump\t// in\n    tag_542:\n        /* \"#utility.yul\":26438:26577   */\n      swap1\n      pop\n        /* \"#utility.yul\":26165:26584   */\n      swap2\n      swap1\n      pop\n      jump\t// out\n        /* \"#utility.yul\":26590:26754   */\n    tag_297:\n        /* \"#utility.yul\":26730:26746   */\n      0x726563697069656e74207a65726f000000000000000000000000000000000000\n        /* \"#utility.yul\":26726:26727   */\n      0x00\n        /* \"#utility.yul\":26718:26724   */\n      dup3\n        /* \"#utility.yul\":26714:26728   */\n      add\n        /* \"#utility.yul\":26707:26747   */\n      mstore\n        /* \"#utility.yul\":26590:26754   */\n      pop\n      jump\t// out\n        /* \"#utility.yul\":26760:27126   */\n    tag_298:\n        /* \"#utility.yul\":26902:26905   */\n      0x00\n        /* \"#utility.yul\":26923:26990   */\n      tag_545\n        /* \"#utility.yul\":26987:26989   */\n      0x0e\n        /* \"#utility.yul\":26982:26985   */\n      dup4\n        /* \"#utility.yul\":26923:26990   */\n      tag_259\n      jump\t// in\n    tag_545:\n        /* \"#utility.yul\":26916:26990   */\n      swap2\n      pop\n        /* \"#utility.yul\":26999:27092   */\n      tag_546\n        /* \"#utility.yul\":27088:27091   */\n      dup3\n        /* \"#utility.yul\":26999:27092   */\n      tag_297\n      jump\t// in\n    tag_546:\n        /* \"#utility.yul\":27117:27119   */\n      0x20\n        /* \"#utility.yul\":27112:27115   */\n      dup3\n        /* \"#utility.yul\":27108:27120   */\n      add\n        /* \"#utility.yul\":27101:27120   */\n      swap1\n      pop\n        /* \"#utility.yul\":26760:27126   */\n      swap2\n      swap1\n      pop\n      jump\t// out\n        /* \"#utility.yul\":27132:27551   */\n    tag_171:\n        /* \"#utility.yul\":27298:27302   */\n      0x00\n        /* \"#utility.yul\":27336:27338   */\n      0x20\n        /* \"#utility.yul\":27325:27334   */\n      dup3\n        /* \"#utility.yul\":27321:27339   */\n      add\n        /* \"#utility.yul\":27313:27339   */\n      swap1\n      pop\n        /* \"#utility.yul\":27385:27394   */\n      dup2\n        /* \"#utility.yul\":27379:27383   */\n      dup2\n        /* \"#utility.yul\":27375:27395   */\n      sub\n        /* \"#utility.yul\":27371:27372   */\n      0x00\n        /* \"#utility.yul\":27360:27369   */\n      dup4\n        /* \"#utility.yul\":27356:27373   */\n      add\n        /* \"#utility.yul\":27349:27396   */\n      mstore\n        /* \"#utility.yul\":27413:27544   */\n      tag_548\n        /* \"#utility.yul\":27539:27543   */\n      dup2\n        /* \"#utility.yul\":27413:27544   */\n      tag_298\n      jump\t// in\n    tag_548:\n        /* \"#utility.yul\":27405:27544   */\n      swap1\n      pop\n        /* \"#utility.yul\":27132:27551   */\n      swap2\n      swap1\n      pop\n      jump\t// out\n        /* \"#utility.yul\":27557:27722   */\n    tag_299:\n        /* \"#utility.yul\":27697:27714   */\n      0x73656372657448617368207a65726f0000000000000000000000000000000000\n        /* \"#utility.yul\":27693:27694   */\n      0x00\n        /* \"#utility.yul\":27685:27691   */\n      dup3\n        /* \"#utility.yul\":27681:27695   */\n      add\n        /* \"#utility.yul\":27674:27715   */\n      mstore\n        /* \"#utility.yul\":27557:27722   */\n      pop\n      jump\t// out\n        /* \"#utility.yul\":27728:28094   */\n    tag_300:\n        /* \"#utility.yul\":27870:27873   */\n      0x00\n        /* \"#utility.yul\":27891:27958   */\n      tag_551\n        /* \"#utility.yul\":27955:27957   */\n      0x0f\n        /* \"#utility.yul\":27950:27953   */\n      dup4\n        /* \"#utility.yul\":27891:27958   */\n      tag_259\n      jump\t// in\n    tag_551:\n        /* \"#utility.yul\":27884:27958   */\n      swap2\n      pop\n        /* \"#utility.yul\":27967:28060   */\n      tag_552\n        /* \"#utility.yul\":28056:28059   */\n      dup3\n        /* \"#utility.yul\":27967:28060   */\n      tag_299\n      jump\t// in\n    tag_552:\n        /* \"#utility.yul\":28085:28087   */\n      0x20\n        /* \"#utility.yul\":28080:28083   */\n      dup3\n        /* \"#utility.yul\":28076:28088   */\n      add\n        /* \"#utility.yul\":28069:28088   */\n      swap1\n      pop\n        /* \"#utility.yul\":27728:28094   */\n      swap2\n      swap1\n      pop\n      jump\t// out\n        /* \"#utility.yul\":28100:28519   */\n    tag_174:\n        /* \"#utility.yul\":28266:28270   */\n      0x00\n        /* \"#utility.yul\":28304:28306   */\n      0x20\n        /* \"#utility.yul\":28293:28302   */\n      dup3\n        /* \"#utility.yul\":28289:28307   */\n      add\n        /* \"#utility.yul\":28281:28307   */\n      swap1\n      pop\n        /* \"#utility.yul\":28353:28362   */\n      dup2\n        /* \"#utility.yul\":28347:28351   */\n      dup2\n        /* \"#utility.yul\":28343:28363   */\n      sub\n        /* \"#utility.yul\":28339:28340   */\n      0x00\n        /* \"#utility.yul\":28328:28337   */\n      dup4\n        /* \"#utility.yul\":28324:28341   */\n      add\n        /* \"#utility.yul\":28317:28364   */\n      mstore\n        /* \"#utility.yul\":28381:28512   */\n      tag_554\n        /* \"#utility.yul\":28507:28511   */\n      dup2\n        /* \"#utility.yul\":28381:28512   */\n      tag_300\n      jump\t// in\n    tag_554:\n        /* \"#utility.yul\":28373:28512   */\n      swap1\n      pop\n        /* \"#utility.yul\":28100:28519   */\n      swap2\n      swap1\n      pop\n      jump\t// out\n        /* \"#utility.yul\":28525:28716   */\n    tag_176:\n        /* \"#utility.yul\":28565:28568   */\n      0x00\n        /* \"#utility.yul\":28584:28604   */\n      tag_556\n        /* \"#utility.yul\":28602:28603   */\n      dup3\n        /* \"#utility.yul\":28584:28604   */\n      tag_232\n      jump\t// in\n    tag_556:\n        /* \"#utility.yul\":28579:28604   */\n      swap2\n      pop\n        /* \"#utility.yul\":28618:28638   */\n      tag_557\n        /* \"#utility.yul\":28636:28637   */\n      dup4\n        /* \"#utility.yul\":28618:28638   */\n      tag_232\n      jump\t// in\n    tag_557:\n        /* \"#utility.yul\":28613:28638   */\n      swap3\n      pop\n        /* \"#utility.yul\":28661:28662   */\n      dup3\n        /* \"#utility.yul\":28658:28659   */\n      dup3\n        /* \"#utility.yul\":28654:28663   */\n      add\n        /* \"#utility.yul\":28647:28663   */\n      swap1\n      pop\n        /* \"#utility.yul\":28682:28685   */\n      dup1\n        /* \"#utility.yul\":28679:28680   */\n      dup3\n        /* \"#utility.yul\":28676:28686   */\n      gt\n        /* \"#utility.yul\":28673:28709   */\n      iszero\n      tag_558\n      jumpi\n        /* \"#utility.yul\":28689:28707   */\n      tag_559\n      tag_281\n      jump\t// in\n    tag_559:\n        /* \"#utility.yul\":28673:28709   */\n    tag_558:\n        /* \"#utility.yul\":28525:28716   */\n      swap3\n      swap2\n      pop\n      pop\n      jump\t// out\n        /* \"#utility.yul\":28722:28889   */\n    tag_301:\n        /* \"#utility.yul\":28862:28881   */\n      0x646561646c696e6520746f6f20736f6f6e000000000000000000000000000000\n        /* \"#utility.yul\":28858:28859   */\n      0x00\n        /* \"#utility.yul\":28850:28856   */\n      dup3\n        /* \"#utility.yul\":28846:28860   */\n      add\n        /* \"#utility.yul\":28839:28882   */\n      mstore\n        /* \"#utility.yul\":28722:28889   */\n      pop\n      jump\t// out\n        /* \"#utility.yul\":28895:29261   */\n    tag_302:\n        /* \"#utility.yul\":29037:29040   */\n      0x00\n        /* \"#utility.yul\":29058:29125   */\n      tag_562\n        /* \"#utility.yul\":29122:29124   */\n      0x11\n        /* \"#utility.yul\":29117:29120   */\n      dup4\n        /* \"#utility.yul\":29058:29125   */\n      tag_259\n      jump\t// in\n    tag_562:\n        /* \"#utility.yul\":29051:29125   */\n      swap2\n      pop\n        /* \"#utility.yul\":29134:29227   */\n      tag_563\n        /* \"#utility.yul\":29223:29226   */\n      dup3\n        /* \"#utility.yul\":29134:29227   */\n      tag_301\n      jump\t// in\n    tag_563:\n        /* \"#utility.yul\":29252:29254   */\n      0x20\n        /* \"#utility.yul\":29247:29250   */\n      dup3\n        /* \"#utility.yul\":29243:29255   */\n      add\n        /* \"#utility.yul\":29236:29255   */\n      swap1\n      pop\n        /* \"#utility.yul\":28895:29261   */\n      swap2\n      swap1\n      pop\n      jump\t// out\n        /* \"#utility.yul\":29267:29686   */\n    tag_179:\n        /* \"#utility.yul\":29433:29437   */\n      0x00\n        /* \"#utility.yul\":29471:29473   */\n      0x20\n        /* \"#utility.yul\":29460:29469   */\n      dup3\n        /* \"#utility.yul\":29456:29474   */\n      add\n        /* \"#utility.yul\":29448:29474   */\n      swap1\n      pop\n        /* \"#utility.yul\":29520:29529   */\n      dup2\n        /* \"#utility.yul\":29514:29518   */\n      dup2\n        /* \"#utility.yul\":29510:29530   */\n      sub\n        /* \"#utility.yul\":29506:29507   */\n      0x00\n        /* \"#utility.yul\":29495:29504   */\n      dup4\n        /* \"#utility.yul\":29491:29508   */\n      add\n        /* \"#utility.yul\":29484:29531   */\n      mstore\n        /* \"#utility.yul\":29548:29679   */\n      tag_565\n        /* \"#utility.yul\":29674:29678   */\n      dup2\n        /* \"#utility.yul\":29548:29679   */\n      tag_302\n      jump\t// in\n    tag_565:\n        /* \"#utility.yul\":29540:29679   */\n      swap1\n      pop\n        /* \"#utility.yul\":29267:29686   */\n      swap2\n      swap1\n      pop\n      jump\t// out\n        /* \"#utility.yul\":29692:29835   */\n    tag_303:\n        /* \"#utility.yul\":29749:29754   */\n      0x00\n        /* \"#utility.yul\":29780:29786   */\n      dup2\n        /* \"#utility.yul\":29774:29787   */\n      mload\n        /* \"#utility.yul\":29765:29787   */\n      swap1\n      pop\n        /* \"#utility.yul\":29796:29829   */\n      tag_567\n        /* \"#utility.yul\":29823:29828   */\n      dup2\n        /* \"#utility.yul\":29796:29829   */\n      tag_237\n      jump\t// in\n    tag_567:\n        /* \"#utility.yul\":29692:29835   */\n      swap3\n      swap2\n      pop\n      pop\n      jump\t// out\n        /* \"#utility.yul\":29841:30192   */\n    tag_184:\n        /* \"#utility.yul\":29911:29917   */\n      0x00\n        /* \"#utility.yul\":29960:29962   */\n      0x20\n        /* \"#utility.yul\":29948:29957   */\n      dup3\n        /* \"#utility.yul\":29939:29946   */\n      dup5\n        /* \"#utility.yul\":29935:29958   */\n      sub\n        /* \"#utility.yul\":29931:29963   */\n      slt\n        /* \"#utility.yul\":29928:30047   */\n      iszero\n      tag_569\n      jumpi\n        /* \"#utility.yul\":29966:30045   */\n      tag_570\n      tag_235\n      jump\t// in\n    tag_570:\n        /* \"#utility.yul\":29928:30047   */\n    tag_569:\n        /* \"#utility.yul\":30086:30087   */\n      0x00\n        /* \"#utility.yul\":30111:30175   */\n      tag_571\n        /* \"#utility.yul\":30167:30174   */\n      dup5\n        /* \"#utility.yul\":30158:30164   */\n      dup3\n        /* \"#utility.yul\":30147:30156   */\n      dup6\n        /* \"#utility.yul\":30143:30165   */\n      add\n        /* \"#utility.yul\":30111:30175   */\n      tag_303\n      jump\t// in\n    tag_571:\n        /* \"#utility.yul\":30101:30175   */\n      swap2\n      pop\n        /* \"#utility.yul\":30057:30185   */\n      pop\n        /* \"#utility.yul\":29841:30192   */\n      swap3\n      swap2\n      pop\n      pop\n      jump\t// out\n        /* \"#utility.yul\":30198:30370   */\n    tag_304:\n        /* \"#utility.yul\":30338:30362   */\n      0x62616c616e6365206166746572203c206265666f726500000000000000000000\n        /* \"#utility.yul\":30334:30335   */\n      0x00\n        /* \"#utility.yul\":30326:30332   */\n      dup3\n        /* \"#utility.yul\":30322:30336   */\n      add\n        /* \"#utility.yul\":30315:30363   */\n      mstore\n        /* \"#utility.yul\":30198:30370   */\n      pop\n      jump\t// out\n        /* \"#utility.yul\":30376:30742   */\n    tag_305:\n        /* \"#utility.yul\":30518:30521   */\n      0x00\n        /* \"#utility.yul\":30539:30606   */\n      tag_574\n        /* \"#utility.yul\":30603:30605   */\n      0x16\n        /* \"#utility.yul\":30598:30601   */\n      dup4\n        /* \"#utility.yul\":30539:30606   */\n      tag_259\n      jump\t// in\n    tag_574:\n        /* \"#utility.yul\":30532:30606   */\n      swap2\n      pop\n        /* \"#utility.yul\":30615:30708   */\n      tag_575\n        /* \"#utility.yul\":30704:30707   */\n      dup3\n        /* \"#utility.yul\":30615:30708   */\n      tag_304\n      jump\t// in\n    tag_575:\n        /* \"#utility.yul\":30733:30735   */\n      0x20\n        /* \"#utility.yul\":30728:30731   */\n      dup3\n        /* \"#utility.yul\":30724:30736   */\n      add\n        /* \"#utility.yul\":30717:30736   */\n      swap1\n      pop\n        /* \"#utility.yul\":30376:30742   */\n      swap2\n      swap1\n      pop\n      jump\t// out\n        /* \"#utility.yul\":30748:31167   */\n    tag_193:\n        /* \"#utility.yul\":30914:30918   */\n      0x00\n        /* \"#utility.yul\":30952:30954   */\n      0x20\n        /* \"#utility.yul\":30941:30950   */\n      dup3\n        /* \"#utility.yul\":30937:30955   */\n      add\n        /* \"#utility.yul\":30929:30955   */\n      swap1\n      pop\n        /* \"#utility.yul\":31001:31010   */\n      dup2\n        /* \"#utility.yul\":30995:30999   */\n      dup2\n        /* \"#utility.yul\":30991:31011   */\n      sub\n        /* \"#utility.yul\":30987:30988   */\n      0x00\n        /* \"#utility.yul\":30976:30985   */\n      dup4\n        /* \"#utility.yul\":30972:30989   */\n      add\n        /* \"#utility.yul\":30965:31012   */\n      mstore\n        /* \"#utility.yul\":31029:31160   */\n      tag_577\n        /* \"#utility.yul\":31155:31159   */\n      dup2\n        /* \"#utility.yul\":31029:31160   */\n      tag_305\n      jump\t// in\n    tag_577:\n        /* \"#utility.yul\":31021:31160   */\n      swap1\n      pop\n        /* \"#utility.yul\":30748:31167   */\n      swap2\n      swap1\n      pop\n      jump\t// out\n        /* \"#utility.yul\":31173:31336   */\n    tag_306:\n        /* \"#utility.yul\":31313:31328   */\n      0x7265636569766564207a65726f00000000000000000000000000000000000000\n        /* \"#utility.yul\":31309:31310   */\n      0x00\n        /* \"#utility.yul\":31301:31307   */\n      dup3\n        /* \"#utility.yul\":31297:31311   */\n      add\n        /* \"#utility.yul\":31290:31329   */\n      mstore\n        /* \"#utility.yul\":31173:31336   */\n      pop\n      jump\t// out\n        /* \"#utility.yul\":31342:31708   */\n    tag_307:\n        /* \"#utility.yul\":31484:31487   */\n      0x00\n        /* \"#utility.yul\":31505:31572   */\n      tag_580\n        /* \"#utility.yul\":31569:31571   */\n      0x0d\n        /* \"#utility.yul\":31564:31567   */\n      dup4\n        /* \"#utility.yul\":31505:31572   */\n      tag_259\n      jump\t// in\n    tag_580:\n        /* \"#utility.yul\":31498:31572   */\n      swap2\n      pop\n        /* \"#utility.yul\":31581:31674   */\n      tag_581\n        /* \"#utility.yul\":31670:31673   */\n      dup3\n        /* \"#utility.yul\":31581:31674   */\n      tag_306\n      jump\t// in\n    tag_581:\n        /* \"#utility.yul\":31699:31701   */\n      0x20\n        /* \"#utility.yul\":31694:31697   */\n      dup3\n        /* \"#utility.yul\":31690:31702   */\n      add\n        /* \"#utility.yul\":31683:31702   */\n      swap1\n      pop\n        /* \"#utility.yul\":31342:31708   */\n      swap2\n      swap1\n      pop\n      jump\t// out\n        /* \"#utility.yul\":31714:32133   */\n    tag_197:\n        /* \"#utility.yul\":31880:31884   */\n      0x00\n        /* \"#utility.yul\":31918:31920   */\n      0x20\n        /* \"#utility.yul\":31907:31916   */\n      dup3\n        /* \"#utility.yul\":31903:31921   */\n      add\n        /* \"#utility.yul\":31895:31921   */\n      swap1\n      pop\n        /* \"#utility.yul\":31967:31976   */\n      dup2\n        /* \"#utility.yul\":31961:31965   */\n      dup2\n        /* \"#utility.yul\":31957:31977   */\n      sub\n        /* \"#utility.yul\":31953:31954   */\n      0x00\n        /* \"#utility.yul\":31942:31951   */\n      dup4\n        /* \"#utility.yul\":31938:31955   */\n      add\n        /* \"#utility.yul\":31931:31978   */\n      mstore\n        /* \"#utility.yul\":31995:32126   */\n      tag_583\n        /* \"#utility.yul\":32121:32125   */\n      dup2\n        /* \"#utility.yul\":31995:32126   */\n      tag_307\n      jump\t// in\n    tag_583:\n        /* \"#utility.yul\":31987:32126   */\n      swap1\n      pop\n        /* \"#utility.yul\":31714:32133   */\n      swap2\n      swap1\n      pop\n      jump\t// out\n        /* \"#utility.yul\":32139:32803   */\n    tag_200:\n        /* \"#utility.yul\":32344:32348   */\n      0x00\n        /* \"#utility.yul\":32382:32385   */\n      0xa0\n        /* \"#utility.yul\":32371:32380   */\n      dup3\n        /* \"#utility.yul\":32367:32386   */\n      add\n        /* \"#utility.yul\":32359:32386   */\n      swap1\n      pop\n        /* \"#utility.yul\":32396:32467   */\n      tag_585\n        /* \"#utility.yul\":32464:32465   */\n      0x00\n        /* \"#utility.yul\":32453:32462   */\n      dup4\n        /* \"#utility.yul\":32449:32466   */\n      add\n        /* \"#utility.yul\":32440:32446   */\n      dup9\n        /* \"#utility.yul\":32396:32467   */\n      tag_252\n      jump\t// in\n    tag_585:\n        /* \"#utility.yul\":32477:32549   */\n      tag_586\n        /* \"#utility.yul\":32545:32547   */\n      0x20\n        /* \"#utility.yul\":32534:32543   */\n      dup4\n        /* \"#utility.yul\":32530:32548   */\n      add\n        /* \"#utility.yul\":32521:32527   */\n      dup8\n        /* \"#utility.yul\":32477:32549   */\n      tag_233\n      jump\t// in\n    tag_586:\n        /* \"#utility.yul\":32559:32631   */\n      tag_587\n        /* \"#utility.yul\":32627:32629   */\n      0x40\n        /* \"#utility.yul\":32616:32625   */\n      dup4\n        /* \"#utility.yul\":32612:32630   */\n      add\n        /* \"#utility.yul\":32603:32609   */\n      dup7\n        /* \"#utility.yul\":32559:32631   */\n      tag_233\n      jump\t// in\n    tag_587:\n        /* \"#utility.yul\":32641:32713   */\n      tag_588\n        /* \"#utility.yul\":32709:32711   */\n      0x60\n        /* \"#utility.yul\":32698:32707   */\n      dup4\n        /* \"#utility.yul\":32694:32712   */\n      add\n        /* \"#utility.yul\":32685:32691   */\n      dup6\n        /* \"#utility.yul\":32641:32713   */\n      tag_233\n      jump\t// in\n    tag_588:\n        /* \"#utility.yul\":32723:32796   */\n      tag_589\n        /* \"#utility.yul\":32791:32794   */\n      0x80\n        /* \"#utility.yul\":32780:32789   */\n      dup4\n        /* \"#utility.yul\":32776:32795   */\n      add\n        /* \"#utility.yul\":32767:32773   */\n      dup5\n        /* \"#utility.yul\":32723:32796   */\n      tag_253\n      jump\t// in\n    tag_589:\n        /* \"#utility.yul\":32139:32803   */\n      swap7\n      swap6\n      pop\n      pop\n      pop\n      pop\n      pop\n      pop\n      jump\t// out\n        /* \"#utility.yul\":32809:32969   */\n    tag_308:\n        /* \"#utility.yul\":32949:32961   */\n      0x7a65726f206f776e657200000000000000000000000000000000000000000000\n        /* \"#utility.yul\":32945:32946   */\n      0x00\n        /* \"#utility.yul\":32937:32943   */\n      dup3\n        /* \"#utility.yul\":32933:32947   */\n      add\n        /* \"#utility.yul\":32926:32962   */\n      mstore\n        /* \"#utility.yul\":32809:32969   */\n      pop\n      jump\t// out\n        /* \"#utility.yul\":32975:33341   */\n    tag_309:\n        /* \"#utility.yul\":33117:33120   */\n      0x00\n        /* \"#utility.yul\":33138:33205   */\n      tag_592\n        /* \"#utility.yul\":33202:33204   */\n      0x0a\n        /* \"#utility.yul\":33197:33200   */\n      dup4\n        /* \"#utility.yul\":33138:33205   */\n      tag_259\n      jump\t// in\n    tag_592:\n        /* \"#utility.yul\":33131:33205   */\n      swap2\n      pop\n        /* \"#utility.yul\":33214:33307   */\n      tag_593\n        /* \"#utility.yul\":33303:33306   */\n      dup3\n        /* \"#utility.yul\":33214:33307   */\n      tag_308\n      jump\t// in\n    tag_593:\n        /* \"#utility.yul\":33332:33334   */\n      0x20\n        /* \"#utility.yul\":33327:33330   */\n      dup3\n        /* \"#utility.yul\":33323:33335   */\n      add\n        /* \"#utility.yul\":33316:33335   */\n      swap1\n      pop\n        /* \"#utility.yul\":32975:33341   */\n      swap2\n      swap1\n      pop\n      jump\t// out\n        /* \"#utility.yul\":33347:33766   */\n    tag_207:\n        /* \"#utility.yul\":33513:33517   */\n      0x00\n        /* \"#utility.yul\":33551:33553   */\n      0x20\n        /* \"#utility.yul\":33540:33549   */\n      dup3\n        /* \"#utility.yul\":33536:33554   */\n      add\n        /* \"#utility.yul\":33528:33554   */\n      swap1\n      pop\n        /* \"#utility.yul\":33600:33609   */\n      dup2\n        /* \"#utility.yul\":33594:33598   */\n      dup2\n        /* \"#utility.yul\":33590:33610   */\n      sub\n        /* \"#utility.yul\":33586:33587   */\n      0x00\n        /* \"#utility.yul\":33575:33584   */\n      dup4\n        /* \"#utility.yul\":33571:33588   */\n      add\n        /* \"#utility.yul\":33564:33611   */\n      mstore\n        /* \"#utility.yul\":33628:33759   */\n      tag_595\n        /* \"#utility.yul\":33754:33758   */\n      dup2\n        /* \"#utility.yul\":33628:33759   */\n      tag_309\n      jump\t// in\n    tag_595:\n        /* \"#utility.yul\":33620:33759   */\n      swap1\n      pop\n        /* \"#utility.yul\":33347:33766   */\n      swap2\n      swap1\n      pop\n      jump\t// out\n        /* \"#utility.yul\":33772:34104   */\n    tag_211:\n        /* \"#utility.yul\":33893:33897   */\n      0x00\n        /* \"#utility.yul\":33931:33933   */\n      0x40\n        /* \"#utility.yul\":33920:33929   */\n      dup3\n        /* \"#utility.yul\":33916:33934   */\n      add\n        /* \"#utility.yul\":33908:33934   */\n      swap1\n      pop\n        /* \"#utility.yul\":33944:34015   */\n      tag_597\n        /* \"#utility.yul\":34012:34013   */\n      0x00\n        /* \"#utility.yul\":34001:34010   */\n      dup4\n        /* \"#utility.yul\":33997:34014   */\n      add\n        /* \"#utility.yul\":33988:33994   */\n      dup6\n        /* \"#utility.yul\":33944:34015   */\n      tag_252\n      jump\t// in\n    tag_597:\n        /* \"#utility.yul\":34025:34097   */\n      tag_598\n        /* \"#utility.yul\":34093:34095   */\n      0x20\n        /* \"#utility.yul\":34082:34091   */\n      dup4\n        /* \"#utility.yul\":34078:34096   */\n      add\n        /* \"#utility.yul\":34069:34075   */\n      dup5\n        /* \"#utility.yul\":34025:34097   */\n      tag_233\n      jump\t// in\n    tag_598:\n        /* \"#utility.yul\":33772:34104   */\n      swap4\n      swap3\n      pop\n      pop\n      pop\n      jump\t// out\n        /* \"#utility.yul\":34110:34552   */\n    tag_216:\n        /* \"#utility.yul\":34259:34263   */\n      0x00\n        /* \"#utility.yul\":34297:34299   */\n      0x60\n        /* \"#utility.yul\":34286:34295   */\n      dup3\n        /* \"#utility.yul\":34282:34300   */\n      add\n        /* \"#utility.yul\":34274:34300   */\n      swap1\n      pop\n        /* \"#utility.yul\":34310:34381   */\n      tag_600\n        /* \"#utility.yul\":34378:34379   */\n      0x00\n        /* \"#utility.yul\":34367:34376   */\n      dup4\n        /* \"#utility.yul\":34363:34380   */\n      add\n        /* \"#utility.yul\":34354:34360   */\n      dup7\n        /* \"#utility.yul\":34310:34381   */\n      tag_252\n      jump\t// in\n    tag_600:\n        /* \"#utility.yul\":34391:34463   */\n      tag_601\n        /* \"#utility.yul\":34459:34461   */\n      0x20\n        /* \"#utility.yul\":34448:34457   */\n      dup4\n        /* \"#utility.yul\":34444:34462   */\n      add\n        /* \"#utility.yul\":34435:34441   */\n      dup6\n        /* \"#utility.yul\":34391:34463   */\n      tag_252\n      jump\t// in\n    tag_601:\n        /* \"#utility.yul\":34473:34545   */\n      tag_602\n        /* \"#utility.yul\":34541:34543   */\n      0x40\n        /* \"#utility.yul\":34530:34539   */\n      dup4\n        /* \"#utility.yul\":34526:34544   */\n      add\n        /* \"#utility.yul\":34517:34523   */\n      dup5\n        /* \"#utility.yul\":34473:34545   */\n      tag_233\n      jump\t// in\n    tag_602:\n        /* \"#utility.yul\":34110:34552   */\n      swap5\n      swap4\n      pop\n      pop\n      pop\n      pop\n      jump\t// out\n        /* \"#utility.yul\":34558:34656   */\n    tag_310:\n        /* \"#utility.yul\":34609:34615   */\n      0x00\n        /* \"#utility.yul\":34643:34648   */\n      dup2\n        /* \"#utility.yul\":34637:34649   */\n      mload\n        /* \"#utility.yul\":34627:34649   */\n      swap1\n      pop\n        /* \"#utility.yul\":34558:34656   */\n      swap2\n      swap1\n      pop\n      jump\t// out\n        /* \"#utility.yul\":34662:34801   */\n    tag_311:\n        /* \"#utility.yul\":34751:34757   */\n      dup3\n        /* \"#utility.yul\":34746:34749   */\n      dup2\n        /* \"#utility.yul\":34741:34744   */\n      dup4\n        /* \"#utility.yul\":34735:34758   */\n      mcopy\n        /* \"#utility.yul\":34792:34793   */\n      0x00\n        /* \"#utility.yul\":34783:34789   */\n      dup4\n        /* \"#utility.yul\":34778:34781   */\n      dup4\n        /* \"#utility.yul\":34774:34790   */\n      add\n        /* \"#utility.yul\":34767:34794   */\n      mstore\n        /* \"#utility.yul\":34662:34801   */\n      pop\n      pop\n      pop\n      jump\t// out\n        /* \"#utility.yul\":34807:35193   */\n    tag_312:\n        /* \"#utility.yul\":34911:34914   */\n      0x00\n        /* \"#utility.yul\":34939:34977   */\n      tag_606\n        /* \"#utility.yul\":34971:34976   */\n      dup3\n        /* \"#utility.yul\":34939:34977   */\n      tag_310\n      jump\t// in\n    tag_606:\n        /* \"#utility.yul\":34993:35081   */\n      tag_607\n        /* \"#utility.yul\":35074:35080   */\n      dup2\n        /* \"#utility.yul\":35069:35072   */\n      dup6\n        /* \"#utility.yul\":34993:35081   */\n      tag_272\n      jump\t// in\n    tag_607:\n        /* \"#utility.yul\":34986:35081   */\n      swap4\n      pop\n        /* \"#utility.yul\":35090:35155   */\n      tag_608\n        /* \"#utility.yul\":35148:35154   */\n      dup2\n        /* \"#utility.yul\":35143:35146   */\n      dup6\n        /* \"#utility.yul\":35136:35140   */\n      0x20\n        /* \"#utility.yul\":35129:35134   */\n      dup7\n        /* \"#utility.yul\":35125:35141   */\n      add\n        /* \"#utility.yul\":35090:35155   */\n      tag_311\n      jump\t// in\n    tag_608:\n        /* \"#utility.yul\":35180:35186   */\n      dup1\n        /* \"#utility.yul\":35175:35178   */\n      dup5\n        /* \"#utility.yul\":35171:35187   */\n      add\n        /* \"#utility.yul\":35164:35187   */\n      swap2\n      pop\n        /* \"#utility.yul\":34915:35193   */\n      pop\n        /* \"#utility.yul\":34807:35193   */\n      swap3\n      swap2\n      pop\n      pop\n      jump\t// out\n        /* \"#utility.yul\":35199:35470   */\n    tag_219:\n        /* \"#utility.yul\":35329:35332   */\n      0x00\n        /* \"#utility.yul\":35351:35444   */\n      tag_610\n        /* \"#utility.yul\":35440:35443   */\n      dup3\n        /* \"#utility.yul\":35431:35437   */\n      dup5\n        /* \"#utility.yul\":35351:35444   */\n      tag_312\n      jump\t// in\n    tag_610:\n        /* \"#utility.yul\":35344:35444   */\n      swap2\n      pop\n        /* \"#utility.yul\":35461:35464   */\n      dup2\n        /* \"#utility.yul\":35454:35464   */\n      swap1\n      pop\n        /* \"#utility.yul\":35199:35470   */\n      swap3\n      swap2\n      pop\n      pop\n      jump\t// out\n        /* \"#utility.yul\":35476:35654   */\n    tag_313:\n        /* \"#utility.yul\":35616:35646   */\n      0x45524332303a206c6f772d6c6576656c2063616c6c206661696c656400000000\n        /* \"#utility.yul\":35612:35613   */\n      0x00\n        /* \"#utility.yul\":35604:35610   */\n      dup3\n        /* \"#utility.yul\":35600:35614   */\n      add\n        /* \"#utility.yul\":35593:35647   */\n      mstore\n        /* \"#utility.yul\":35476:35654   */\n      pop\n      jump\t// out\n        /* \"#utility.yul\":35660:36026   */\n    tag_314:\n        /* \"#utility.yul\":35802:35805   */\n      0x00\n        /* \"#utility.yul\":35823:35890   */\n      tag_613\n        /* \"#utility.yul\":35887:35889   */\n      0x1c\n        /* \"#utility.yul\":35882:35885   */\n      dup4\n        /* \"#utility.yul\":35823:35890   */\n      tag_259\n      jump\t// in\n    tag_613:\n        /* \"#utility.yul\":35816:35890   */\n      swap2\n      pop\n        /* \"#utility.yul\":35899:35992   */\n      tag_614\n        /* \"#utility.yul\":35988:35991   */\n      dup3\n        /* \"#utility.yul\":35899:35992   */\n      tag_313\n      jump\t// in\n    tag_614:\n        /* \"#utility.yul\":36017:36019   */\n      0x20\n        /* \"#utility.yul\":36012:36015   */\n      dup3\n        /* \"#utility.yul\":36008:36020   */\n      add\n        /* \"#utility.yul\":36001:36020   */\n      swap1\n      pop\n        /* \"#utility.yul\":35660:36026   */\n      swap2\n      swap1\n      pop\n      jump\t// out\n        /* \"#utility.yul\":36032:36451   */\n    tag_225:\n        /* \"#utility.yul\":36198:36202   */\n      0x00\n        /* \"#utility.yul\":36236:36238   */\n      0x20\n        /* \"#utility.yul\":36225:36234   */\n      dup3\n        /* \"#utility.yul\":36221:36239   */\n      add\n        /* \"#utility.yul\":36213:36239   */\n      swap1\n      pop\n        /* \"#utility.yul\":36285:36294   */\n      dup2\n        /* \"#utility.yul\":36279:36283   */\n      dup2\n        /* \"#utility.yul\":36275:36295   */\n      sub\n        /* \"#utility.yul\":36271:36272   */\n      0x00\n        /* \"#utility.yul\":36260:36269   */\n      dup4\n        /* \"#utility.yul\":36256:36273   */\n      add\n        /* \"#utility.yul\":36249:36296   */\n      mstore\n        /* \"#utility.yul\":36313:36444   */\n      tag_616\n        /* \"#utility.yul\":36439:36443   */\n      dup2\n        /* \"#utility.yul\":36313:36444   */\n      tag_314\n      jump\t// in\n    tag_616:\n        /* \"#utility.yul\":36305:36444   */\n      swap1\n      pop\n        /* \"#utility.yul\":36032:36451   */\n      swap2\n      swap1\n      pop\n      jump\t// out\n        /* \"#utility.yul\":36457:36573   */\n    tag_315:\n        /* \"#utility.yul\":36527:36548   */\n      tag_618\n        /* \"#utility.yul\":36542:36547   */\n      dup2\n        /* \"#utility.yul\":36527:36548   */\n      tag_249\n      jump\t// in\n    tag_618:\n        /* \"#utility.yul\":36520:36525   */\n      dup2\n        /* \"#utility.yul\":36517:36549   */\n      eq\n        /* \"#utility.yul\":36507:36567   */\n      tag_619\n      jumpi\n        /* \"#utility.yul\":36563:36564   */\n      0x00\n        /* \"#utility.yul\":36560:36561   */\n      0x00\n        /* \"#utility.yul\":36553:36565   */\n      revert\n        /* \"#utility.yul\":36507:36567   */\n    tag_619:\n        /* \"#utility.yul\":36457:36573   */\n      pop\n      jump\t// out\n        /* \"#utility.yul\":36579:36716   */\n    tag_316:\n        /* \"#utility.yul\":36633:36638   */\n      0x00\n        /* \"#utility.yul\":36664:36670   */\n      dup2\n        /* \"#utility.yul\":36658:36671   */\n      mload\n        /* \"#utility.yul\":36649:36671   */\n      swap1\n      pop\n        /* \"#utility.yul\":36680:36710   */\n      tag_621\n        /* \"#utility.yul\":36704:36709   */\n      dup2\n        /* \"#utility.yul\":36680:36710   */\n      tag_315\n      jump\t// in\n    tag_621:\n        /* \"#utility.yul\":36579:36716   */\n      swap3\n      swap2\n      pop\n      pop\n      jump\t// out\n        /* \"#utility.yul\":36722:37067   */\n    tag_228:\n        /* \"#utility.yul\":36789:36795   */\n      0x00\n        /* \"#utility.yul\":36838:36840   */\n      0x20\n        /* \"#utility.yul\":36826:36835   */\n      dup3\n        /* \"#utility.yul\":36817:36824   */\n      dup5\n        /* \"#utility.yul\":36813:36836   */\n      sub\n        /* \"#utility.yul\":36809:36841   */\n      slt\n        /* \"#utility.yul\":36806:36925   */\n      iszero\n      tag_623\n      jumpi\n        /* \"#utility.yul\":36844:36923   */\n      tag_624\n      tag_235\n      jump\t// in\n    tag_624:\n        /* \"#utility.yul\":36806:36925   */\n    tag_623:\n        /* \"#utility.yul\":36964:36965   */\n      0x00\n        /* \"#utility.yul\":36989:37050   */\n      tag_625\n        /* \"#utility.yul\":37042:37049   */\n      dup5\n        /* \"#utility.yul\":37033:37039   */\n      dup3\n        /* \"#utility.yul\":37022:37031   */\n      dup6\n        /* \"#utility.yul\":37018:37040   */\n      add\n        /* \"#utility.yul\":36989:37050   */\n      tag_316\n      jump\t// in\n    tag_625:\n        /* \"#utility.yul\":36979:37050   */\n      swap2\n      pop\n        /* \"#utility.yul\":36935:37060   */\n      pop\n        /* \"#utility.yul\":36722:37067   */\n      swap3\n      swap2\n      pop\n      pop\n      jump\t// out\n        /* \"#utility.yul\":37073:37255   */\n    tag_317:\n        /* \"#utility.yul\":37213:37247   */\n      0x45524332303a206f7065726174696f6e20646964206e6f742073756363656564\n        /* \"#utility.yul\":37209:37210   */\n      0x00\n        /* \"#utility.yul\":37201:37207   */\n      dup3\n        /* \"#utility.yul\":37197:37211   */\n      add\n        /* \"#utility.yul\":37190:37248   */\n      mstore\n        /* \"#utility.yul\":37073:37255   */\n      pop\n      jump\t// out\n        /* \"#utility.yul\":37261:37627   */\n    tag_318:\n        /* \"#utility.yul\":37403:37406   */\n      0x00\n        /* \"#utility.yul\":37424:37491   */\n      tag_628\n        /* \"#utility.yul\":37488:37490   */\n      0x20\n        /* \"#utility.yul\":37483:37486   */\n      dup4\n        /* \"#utility.yul\":37424:37491   */\n      tag_259\n      jump\t// in\n    tag_628:\n        /* \"#utility.yul\":37417:37491   */\n      swap2\n      pop\n        /* \"#utility.yul\":37500:37593   */\n      tag_629\n        /* \"#utility.yul\":37589:37592   */\n      dup3\n        /* \"#utility.yul\":37500:37593   */\n      tag_317\n      jump\t// in\n    tag_629:\n        /* \"#utility.yul\":37618:37620   */\n      0x20\n        /* \"#utility.yul\":37613:37616   */\n      dup3\n        /* \"#utility.yul\":37609:37621   */\n      add\n        /* \"#utility.yul\":37602:37621   */\n      swap1\n      pop\n        /* \"#utility.yul\":37261:37627   */\n      swap2\n      swap1\n      pop\n      jump\t// out\n        /* \"#utility.yul\":37633:38052   */\n    tag_231:\n        /* \"#utility.yul\":37799:37803   */\n      0x00\n        /* \"#utility.yul\":37837:37839   */\n      0x20\n        /* \"#utility.yul\":37826:37835   */\n      dup3\n        /* \"#utility.yul\":37822:37840   */\n      add\n        /* \"#utility.yul\":37814:37840   */\n      swap1\n      pop\n        /* \"#utility.yul\":37886:37895   */\n      dup2\n        /* \"#utility.yul\":37880:37884   */\n      dup2\n        /* \"#utility.yul\":37876:37896   */\n      sub\n        /* \"#utility.yul\":37872:37873   */\n      0x00\n        /* \"#utility.yul\":37861:37870   */\n      dup4\n        /* \"#utility.yul\":37857:37874   */\n      add\n        /* \"#utility.yul\":37850:37897   */\n      mstore\n        /* \"#utility.yul\":37914:38045   */\n      tag_631\n        /* \"#utility.yul\":38040:38044   */\n      dup2\n        /* \"#utility.yul\":37914:38045   */\n      tag_318\n      jump\t// in\n    tag_631:\n        /* \"#utility.yul\":37906:38045   */\n      swap1\n      pop\n        /* \"#utility.yul\":37633:38052   */\n      swap2\n      swap1\n      pop\n      jump\t// out\n\n    auxdata: 0xa264697066735822122032a819415ee5cb9b330e94cae61971e484ace9dcf917009dd030538857e0099564736f6c634300081e0033\n}\n",
				"bytecode": {
					"linkReferences": {},
					"object": "608060405234801561000f575f5ffd5b50604051612de2380380612de283398181016040528101906100319190610182565b335f5f6101000a81548173ffffffffffffffffffffffffffffffffffffffff021916908373ffffffffffffffffffffffffffffffffffffffff1602179055505f5f9054906101000a900473ffffffffffffffffffffffffffffffffffffffff1673ffffffffffffffffffffffffffffffffffffffff165f73ffffffffffffffffffffffffffffffffffffffff167f8be0079c531659141344cd1fd0a4f28419497f9722a3daafe3b4186f6b6457e060405160405180910390a360018081905550612710811115610136576040517f08c379a000000000000000000000000000000000000000000000000000000000815260040161012d90610207565b60405180910390fd5b80600281905550600160038190555050610225565b5f5ffd5b5f819050919050565b6101618161014f565b811461016b575f5ffd5b50565b5f8151905061017c81610158565b92915050565b5f602082840312156101975761019661014b565b5b5f6101a48482850161016e565b91505092915050565b5f82825260208201905092915050565b7f6665654270733c3d3130303030000000000000000000000000000000000000005f82015250565b5f6101f1600d836101ad565b91506101fc826101bd565b602082019050919050565b5f6020820190508181035f83015261021e816101e5565b9050919050565b612bb0806102325f395ff3fe6080604052600436106100aa575f3560e01c806372c27b621161006357806372c27b62146101a357806384276d81146101cb57806387d81789146101f35780638da5cb5b1461023857806396f6044b14610262578063f2fde38b1461029e576100ab565b806324a9d853146100ad578063268b15ed146100d7578063278ecde1146100ff5780633280a8361461012757806361b8ce8c14610163578063715018a61461018d576100ab565b5b005b3480156100b8575f5ffd5b506100c16102c6565b6040516100ce9190611a6b565b60405180910390f35b3480156100e2575f5ffd5b506100fd60048036038101906100f89190611b17565b6102cc565b005b34801561010a575f5ffd5b5061012560048036038101906101209190611b74565b6106e8565b005b348015610132575f5ffd5b5061014d60048036038101906101489190611b74565b6109f8565b60405161015a9190611ce9565b60405180910390f35b34801561016e575f5ffd5b50610177610b89565b6040516101849190611a6b565b60405180910390f35b348015610198575f5ffd5b506101a1610b8f565b005b3480156101ae575f5ffd5b506101c960048036038101906101c49190611b74565b610cd8565b005b3480156101d6575f5ffd5b506101f160048036038101906101ec9190611b74565b610df0565b005b3480156101fe575f5ffd5b5061021960048036038101906102149190611b74565b610f46565b60405161022f9a99989796959493929190611d30565b60405180910390f35b348015610243575f5ffd5b5061024c61100c565b6040516102599190611dca565b60405180910390f35b34801561026d575f5ffd5b5061028860048036038101906102839190611e37565b611033565b6040516102959190611a6b565b60405180910390f35b3480156102a9575f5ffd5b506102c460048036038101906102bf9190611eae565b6115f0565b005b60025481565b6001805414610310576040517f08c379a000000000000000000000000000000000000000000000000000000000815260040161030790611f33565b60405180910390fd5b60026001819055505f60045f8581526020019081526020015f2090505f816003015411610372576040517f08c379a000000000000000000000000000000000000000000000000000000000815260040161036990611f9b565b60405180910390fd5b806008015f9054906101000a900460ff16156103c3576040517f08c379a00000000000000000000000000000000000000000000000000000000081526004016103ba90612003565b60405180910390fd5b8060080160019054906101000a900460ff1615610415576040517f08c379a000000000000000000000000000000000000000000000000000000000815260040161040c9061206b565b60405180910390fd5b806006015442111561045c576040517f08c379a0000000000000000000000000000000000000000000000000000000008152600401610453906120d3565b60405180910390fd5b806004015f9054906101000a900473ffffffffffffffffffffffffffffffffffffffff1673ffffffffffffffffffffffffffffffffffffffff163373ffffffffffffffffffffffffffffffffffffffff16146104ed576040517f08c379a00000000000000000000000000000000000000000000000000000000081526004016104e49061213b565b60405180910390fd5b5f8383836004015f9054906101000a900473ffffffffffffffffffffffffffffffffffffffff16604051602001610526939291906121da565b60405160208183030381529060405280519060200120905081600701548114610584576040517f08c379a000000000000000000000000000000000000000000000000000000000815260040161057b9061224d565b60405180910390fd5b6001826008015f6101000a81548160ff0219169083151502179055505f61271060025484600301546105b69190612298565b6105c09190612306565b90505f8184600301546105d39190612336565b9050610626846001015f9054906101000a900473ffffffffffffffffffffffffffffffffffffffff16856004015f9054906101000a900473ffffffffffffffffffffffffffffffffffffffff16836117a8565b5f82111561066457610663846001015f9054906101000a900473ffffffffffffffffffffffffffffffffffffffff1661065d61100c565b846117a8565b5b836004015f9054906101000a900473ffffffffffffffffffffffffffffffffffffffff1673ffffffffffffffffffffffffffffffffffffffff16877fd9cb1e2714d65a111c0f20f060176ad657496bd47a3de04ec7c3d4ca232112ac83856040516106d0929190612369565b60405180910390a35050505060018081905550505050565b600180541461072c576040517f08c379a000000000000000000000000000000000000000000000000000000000815260040161072390611f33565b60405180910390fd5b60026001819055505f60045f8381526020019081526020015f2090505f81600301541161078e576040517f08c379a000000000000000000000000000000000000000000000000000000000815260040161078590611f9b565b60405180910390fd5b806008015f9054906101000a900460ff16156107df576040517f08c379a00000000000000000000000000000000000000000000000000000000081526004016107d690612003565b60405180910390fd5b8060080160019054906101000a900460ff1615610831576040517f08c379a00000000000000000000000000000000000000000000000000000000081526004016108289061206b565b60405180910390fd5b80600601544211610877576040517f08c379a000000000000000000000000000000000000000000000000000000000815260040161086e906123da565b60405180910390fd5b805f015f9054906101000a900473ffffffffffffffffffffffffffffffffffffffff1673ffffffffffffffffffffffffffffffffffffffff163373ffffffffffffffffffffffffffffffffffffffff1614610907576040517f08c379a00000000000000000000000000000000000000000000000000000000081526004016108fe90612442565b60405180910390fd5b60018160080160016101000a81548160ff021916908315150217905550610978816001015f9054906101000a900473ffffffffffffffffffffffffffffffffffffffff16825f015f9054906101000a900473ffffffffffffffffffffffffffffffffffffffff1683600301546117a8565b805f015f9054906101000a900473ffffffffffffffffffffffffffffffffffffffff1673ffffffffffffffffffffffffffffffffffffffff16827f7ca5472b7ea78c2c0141c5a12ee6d170cf4ce8ed06be3d22c8252ddfc7a6a2c483600301546040516109e59190611a6b565b60405180910390a3506001808190555050565b610a006119c4565b60045f8381526020019081526020015f20604051806101400160405290815f82015f9054906101000a900473ffffffffffffffffffffffffffffffffffffffff1673ffffffffffffffffffffffffffffffffffffffff1673ffffffffffffffffffffffffffffffffffffffff168152602001600182015f9054906101000a900473ffffffffffffffffffffffffffffffffffffffff1673ffffffffffffffffffffffffffffffffffffffff1673ffffffffffffffffffffffffffffffffffffffff1681526020016002820154815260200160038201548152602001600482015f9054906101000a900473ffffffffffffffffffffffffffffffffffffffff1673ffffffffffffffffffffffffffffffffffffffff1673ffffffffffffffffffffffffffffffffffffffff168152602001600582015481526020016006820154815260200160078201548152602001600882015f9054906101000a900460ff161515151581526020016008820160019054906101000a900460ff1615151515815250509050919050565b60035481565b5f5f9054906101000a900473ffffffffffffffffffffffffffffffffffffffff1673ffffffffffffffffffffffffffffffffffffffff163373ffffffffffffffffffffffffffffffffffffffff1614610c1d576040517f08c379a0000000000000000000000000000000000000000000000000000000008152600401610c14906124aa565b60405180910390fd5b5f73ffffffffffffffffffffffffffffffffffffffff165f5f9054906101000a900473ffffffffffffffffffffffffffffffffffffffff1673ffffffffffffffffffffffffffffffffffffffff167f8be0079c531659141344cd1fd0a4f28419497f9722a3daafe3b4186f6b6457e060405160405180910390a35f5f5f6101000a81548173ffffffffffffffffffffffffffffffffffffffff021916908373ffffffffffffffffffffffffffffffffffffffff160217905550565b5f5f9054906101000a900473ffffffffffffffffffffffffffffffffffffffff1673ffffffffffffffffffffffffffffffffffffffff163373ffffffffffffffffffffffffffffffffffffffff1614610d66576040517f08c379a0000000000000000000000000000000000000000000000000000000008152600401610d5d906124aa565b60405180910390fd5b612710811115610dab576040517f08c379a0000000000000000000000000000000000000000000000000000000008152600401610da290612512565b60405180910390fd5b7f5fc463da23c1b063e66f9e352006a7fbe8db7223c455dc429e881a2dfe2f94f160025482604051610dde929190612369565b60405180910390a18060028190555050565b5f5f9054906101000a900473ffffffffffffffffffffffffffffffffffffffff1673ffffffffffffffffffffffffffffffffffffffff163373ffffffffffffffffffffffffffffffffffffffff1614610e7e576040517f08c379a0000000000000000000000000000000000000000000000000000000008152600401610e75906124aa565b60405180910390fd5b80471015610ec1576040517f08c379a0000000000000000000000000000000000000000000000000000000008152600401610eb89061257a565b60405180910390fd5b610ec961100c565b73ffffffffffffffffffffffffffffffffffffffff166108fc8290811502906040515f60405180830381858888f19350505050158015610f0b573d5f5f3e3d5ffd5b507f6e4c84161cdb053c0fd0ad9dfd1b7e4e50a718125358c96a036c95a19eb0a90581604051610f3b9190611a6b565b60405180910390a150565b6004602052805f5260405f205f91509050805f015f9054906101000a900473ffffffffffffffffffffffffffffffffffffffff1690806001015f9054906101000a900473ffffffffffffffffffffffffffffffffffffffff1690806002015490806003015490806004015f9054906101000a900473ffffffffffffffffffffffffffffffffffffffff1690806005015490806006015490806007015490806008015f9054906101000a900460ff16908060080160019054906101000a900460ff1690508a565b5f5f5f9054906101000a900473ffffffffffffffffffffffffffffffffffffffff16905090565b5f5f73ffffffffffffffffffffffffffffffffffffffff168673ffffffffffffffffffffffffffffffffffffffff16036110a2576040517f08c379a0000000000000000000000000000000000000000000000000000000008152600401611099906125e2565b60405180910390fd5b5f85116110e4576040517f08c379a00000000000000000000000000000000000000000000000000000000081526004016110db9061264a565b60405180910390fd5b5f73ffffffffffffffffffffffffffffffffffffffff168473ffffffffffffffffffffffffffffffffffffffff1603611152576040517f08c379a0000000000000000000000000000000000000000000000000000000008152600401611149906126b2565b60405180910390fd5b5f5f1b8203611196576040517f08c379a000000000000000000000000000000000000000000000000000000000815260040161118d9061271a565b60405180910390fd5b603c426111a39190612738565b8310156111e5576040517f08c379a00000000000000000000000000000000000000000000000000000000081526004016111dc906127b5565b60405180910390fd5b5f8673ffffffffffffffffffffffffffffffffffffffff166370a08231306040518263ffffffff1660e01b815260040161121f9190611dca565b602060405180830381865afa15801561123a573d5f5f3e3d5ffd5b505050506040513d601f19601f8201168201806040525081019061125e91906127e7565b905061126c8733308961182e565b5f8773ffffffffffffffffffffffffffffffffffffffff166370a08231306040518263ffffffff1660e01b81526004016112a69190611dca565b602060405180830381865afa1580156112c1573d5f5f3e3d5ffd5b505050506040513d601f19601f820116820180604052508101906112e591906127e7565b90508181101561132a576040517f08c379a00000000000000000000000000000000000000000000000000000000081526004016113219061285c565b60405180910390fd5b5f82826113379190612336565b90505f811161137b576040517f08c379a0000000000000000000000000000000000000000000000000000000008152600401611372906128c4565b60405180910390fd5b60035493506040518061014001604052803373ffffffffffffffffffffffffffffffffffffffff1681526020018a73ffffffffffffffffffffffffffffffffffffffff1681526020018981526020018281526020018873ffffffffffffffffffffffffffffffffffffffff1681526020014281526020018781526020018681526020015f151581526020015f151581525060045f8681526020019081526020015f205f820151815f015f6101000a81548173ffffffffffffffffffffffffffffffffffffffff021916908373ffffffffffffffffffffffffffffffffffffffff1602179055506020820151816001015f6101000a81548173ffffffffffffffffffffffffffffffffffffffff021916908373ffffffffffffffffffffffffffffffffffffffff16021790555060408201518160020155606082015181600301556080820151816004015f6101000a81548173ffffffffffffffffffffffffffffffffffffffff021916908373ffffffffffffffffffffffffffffffffffffffff16021790555060a0820151816005015560c0820151816006015560e08201518160070155610100820151816008015f6101000a81548160ff0219169083151502179055506101208201518160080160016101000a81548160ff0219169083151502179055509050506001846115709190612738565b6003819055508673ffffffffffffffffffffffffffffffffffffffff163373ffffffffffffffffffffffffffffffffffffffff16857fe755fad85d92901aa2860686122031fbcb9aacf69e6894126bd1ebb35ab08db08c8c868c8c6040516115dc9594939291906128e2565b60405180910390a450505095945050505050565b5f5f9054906101000a900473ffffffffffffffffffffffffffffffffffffffff1673ffffffffffffffffffffffffffffffffffffffff163373ffffffffffffffffffffffffffffffffffffffff161461167e576040517f08c379a0000000000000000000000000000000000000000000000000000000008152600401611675906124aa565b60405180910390fd5b5f73ffffffffffffffffffffffffffffffffffffffff168173ffffffffffffffffffffffffffffffffffffffff16036116ec576040517f08c379a00000000000000000000000000000000000000000000000000000000081526004016116e39061297d565b60405180910390fd5b8073ffffffffffffffffffffffffffffffffffffffff165f5f9054906101000a900473ffffffffffffffffffffffffffffffffffffffff1673ffffffffffffffffffffffffffffffffffffffff167f8be0079c531659141344cd1fd0a4f28419497f9722a3daafe3b4186f6b6457e060405160405180910390a3805f5f6101000a81548173ffffffffffffffffffffffffffffffffffffffff021916908373ffffffffffffffffffffffffffffffffffffffff16021790555050565b6118298363a9059cbb60e01b84846040516024016117c792919061299b565b604051602081830303815290604052907bffffffffffffffffffffffffffffffffffffffffffffffffffffffff19166020820180517bffffffffffffffffffffffffffffffffffffffffffffffffffffffff83818316178352505050506118b7565b505050565b6118b1846323b872dd60e01b85858560405160240161184f939291906129c2565b604051602081830303815290604052907bffffffffffffffffffffffffffffffffffffffffffffffffffffffff19166020820180517bffffffffffffffffffffffffffffffffffffffffffffffffffffffff83818316178352505050506118b7565b50505050565b5f5f8373ffffffffffffffffffffffffffffffffffffffff16836040516118de9190612a3f565b5f604051808303815f865af19150503d805f8114611917576040519150601f19603f3d011682016040523d82523d5f602084013e61191c565b606091505b509150915081611961576040517f08c379a000000000000000000000000000000000000000000000000000000000815260040161195890612a9f565b60405180910390fd5b5f815111156119be578080602001905181019061197e9190612ae7565b6119bd576040517f08c379a00000000000000000000000000000000000000000000000000000000081526004016119b490612b5c565b60405180910390fd5b5b50505050565b6040518061014001604052805f73ffffffffffffffffffffffffffffffffffffffff1681526020015f73ffffffffffffffffffffffffffffffffffffffff1681526020015f81526020015f81526020015f73ffffffffffffffffffffffffffffffffffffffff1681526020015f81526020015f81526020015f81526020015f151581526020015f151581525090565b5f819050919050565b611a6581611a53565b82525050565b5f602082019050611a7e5f830184611a5c565b92915050565b5f5ffd5b5f5ffd5b611a9581611a53565b8114611a9f575f5ffd5b50565b5f81359050611ab081611a8c565b92915050565b5f5ffd5b5f5ffd5b5f5ffd5b5f5f83601f840112611ad757611ad6611ab6565b5b8235905067ffffffffffffffff811115611af457611af3611aba565b5b602083019150836001820283011115611b1057611b0f611abe565b5b9250929050565b5f5f5f60408486031215611b2e57611b2d611a84565b5b5f611b3b86828701611aa2565b935050602084013567ffffffffffffffff811115611b5c57611b5b611a88565b5b611b6886828701611ac2565b92509250509250925092565b5f60208284031215611b8957611b88611a84565b5b5f611b9684828501611aa2565b91505092915050565b5f73ffffffffffffffffffffffffffffffffffffffff82169050919050565b5f611bc882611b9f565b9050919050565b611bd881611bbe565b82525050565b611be781611a53565b82525050565b5f819050919050565b611bff81611bed565b82525050565b5f8115159050919050565b611c1981611c05565b82525050565b61014082015f820151611c345f850182611bcf565b506020820151611c476020850182611bcf565b506040820151611c5a6040850182611bde565b506060820151611c6d6060850182611bde565b506080820151611c806080850182611bcf565b5060a0820151611c9360a0850182611bde565b5060c0820151611ca660c0850182611bde565b5060e0820151611cb960e0850182611bf6565b50610100820151611cce610100850182611c10565b50610120820151611ce3610120850182611c10565b50505050565b5f61014082019050611cfd5f830184611c1f565b92915050565b611d0c81611bbe565b82525050565b611d1b81611bed565b82525050565b611d2a81611c05565b82525050565b5f61014082019050611d445f83018d611d03565b611d51602083018c611d03565b611d5e604083018b611a5c565b611d6b606083018a611a5c565b611d786080830189611d03565b611d8560a0830188611a5c565b611d9260c0830187611a5c565b611d9f60e0830186611d12565b611dad610100830185611d21565b611dbb610120830184611d21565b9b9a5050505050505050505050565b5f602082019050611ddd5f830184611d03565b92915050565b611dec81611bbe565b8114611df6575f5ffd5b50565b5f81359050611e0781611de3565b92915050565b611e1681611bed565b8114611e20575f5ffd5b50565b5f81359050611e3181611e0d565b92915050565b5f5f5f5f5f60a08688031215611e5057611e4f611a84565b5b5f611e5d88828901611df9565b9550506020611e6e88828901611aa2565b9450506040611e7f88828901611df9565b9350506060611e9088828901611aa2565b9250506080611ea188828901611e23565b9150509295509295909350565b5f60208284031215611ec357611ec2611a84565b5b5f611ed084828501611df9565b91505092915050565b5f82825260208201905092915050565b7f7265656e7472616e7400000000000000000000000000000000000000000000005f82015250565b5f611f1d600983611ed9565b9150611f2882611ee9565b602082019050919050565b5f6020820190508181035f830152611f4a81611f11565b9050919050565b7f6e6f7420666f756e64206f72207a65726f0000000000000000000000000000005f82015250565b5f611f85601183611ed9565b9150611f9082611f51565b602082019050919050565b5f6020820190508181035f830152611fb281611f79565b9050919050565b7f616c726561647920636c61696d656400000000000000000000000000000000005f82015250565b5f611fed600f83611ed9565b9150611ff882611fb9565b602082019050919050565b5f6020820190508181035f83015261201a81611fe1565b9050919050565b7f616c726561647920726566756e646564000000000000000000000000000000005f82015250565b5f612055601083611ed9565b915061206082612021565b602082019050919050565b5f6020820190508181035f83015261208281612049565b9050919050565b7f7061737420646561646c696e65000000000000000000000000000000000000005f82015250565b5f6120bd600d83611ed9565b91506120c882612089565b602082019050919050565b5f6020820190508181035f8301526120ea816120b1565b9050919050565b7f6e6f7420726563697069656e74000000000000000000000000000000000000005f82015250565b5f612125600d83611ed9565b9150612130826120f1565b602082019050919050565b5f6020820190508181035f83015261215281612119565b9050919050565b5f81905092915050565b828183375f83830152505050565b5f61217c8385612159565b9350612189838584612163565b82840190509392505050565b5f8160601b9050919050565b5f6121ab82612195565b9050919050565b5f6121bc826121a1565b9050919050565b6121d46121cf82611bbe565b6121b2565b82525050565b5f6121e6828587612171565b91506121f282846121c3565b601482019150819050949350505050565b7f696e76616c6964207365637265740000000000000000000000000000000000005f82015250565b5f612237600e83611ed9565b915061224282612203565b602082019050919050565b5f6020820190508181035f8301526122648161222b565b9050919050565b7f4e487b71000000000000000000000000000000000000000000000000000000005f52601160045260245ffd5b5f6122a282611a53565b91506122ad83611a53565b92508282026122bb81611a53565b915082820484148315176122d2576122d161226b565b5b5092915050565b7f4e487b71000000000000000000000000000000000000000000000000000000005f52601260045260245ffd5b5f61231082611a53565b915061231b83611a53565b92508261232b5761232a6122d9565b5b828204905092915050565b5f61234082611a53565b915061234b83611a53565b92508282039050818111156123635761236261226b565b5b92915050565b5f60408201905061237c5f830185611a5c565b6123896020830184611a5c565b9392505050565b7f6e6f7420657870697265640000000000000000000000000000000000000000005f82015250565b5f6123c4600b83611ed9565b91506123cf82612390565b602082019050919050565b5f6020820190508181035f8301526123f1816123b8565b9050919050565b7f6e6f742073656e646572000000000000000000000000000000000000000000005f82015250565b5f61242c600a83611ed9565b9150612437826123f8565b602082019050919050565b5f6020820190508181035f83015261245981612420565b9050919050565b7f6f6e6c79206f776e6572000000000000000000000000000000000000000000005f82015250565b5f612494600a83611ed9565b915061249f82612460565b602082019050919050565b5f6020820190508181035f8301526124c181612488565b9050919050565b7f6665654270733c3d3130303030000000000000000000000000000000000000005f82015250565b5f6124fc600d83611ed9565b9150612507826124c8565b602082019050919050565b5f6020820190508181035f830152612529816124f0565b9050919050565b7f696e73756666696369656e74206e6174697665000000000000000000000000005f82015250565b5f612564601383611ed9565b915061256f82612530565b602082019050919050565b5f6020820190508181035f83015261259181612558565b9050919050565b7f746f6b656e207a65726f000000000000000000000000000000000000000000005f82015250565b5f6125cc600a83611ed9565b91506125d782612598565b602082019050919050565b5f6020820190508181035f8301526125f9816125c0565b9050919050565b7f616d6f756e743e300000000000000000000000000000000000000000000000005f82015250565b5f612634600883611ed9565b915061263f82612600565b602082019050919050565b5f6020820190508181035f83015261266181612628565b9050919050565b7f726563697069656e74207a65726f0000000000000000000000000000000000005f82015250565b5f61269c600e83611ed9565b91506126a782612668565b602082019050919050565b5f6020820190508181035f8301526126c981612690565b9050919050565b7f73656372657448617368207a65726f00000000000000000000000000000000005f82015250565b5f612704600f83611ed9565b915061270f826126d0565b602082019050919050565b5f6020820190508181035f830152612731816126f8565b9050919050565b5f61274282611a53565b915061274d83611a53565b92508282019050808211156127655761276461226b565b5b92915050565b7f646561646c696e6520746f6f20736f6f6e0000000000000000000000000000005f82015250565b5f61279f601183611ed9565b91506127aa8261276b565b602082019050919050565b5f6020820190508181035f8301526127cc81612793565b9050919050565b5f815190506127e181611a8c565b92915050565b5f602082840312156127fc576127fb611a84565b5b5f612809848285016127d3565b91505092915050565b7f62616c616e6365206166746572203c206265666f7265000000000000000000005f82015250565b5f612846601683611ed9565b915061285182612812565b602082019050919050565b5f6020820190508181035f8301526128738161283a565b9050919050565b7f7265636569766564207a65726f000000000000000000000000000000000000005f82015250565b5f6128ae600d83611ed9565b91506128b98261287a565b602082019050919050565b5f6020820190508181035f8301526128db816128a2565b9050919050565b5f60a0820190506128f55f830188611d03565b6129026020830187611a5c565b61290f6040830186611a5c565b61291c6060830185611a5c565b6129296080830184611d12565b9695505050505050565b7f7a65726f206f776e6572000000000000000000000000000000000000000000005f82015250565b5f612967600a83611ed9565b915061297282612933565b602082019050919050565b5f6020820190508181035f8301526129948161295b565b9050919050565b5f6040820190506129ae5f830185611d03565b6129bb6020830184611a5c565b9392505050565b5f6060820190506129d55f830186611d03565b6129e26020830185611d03565b6129ef6040830184611a5c565b949350505050565b5f81519050919050565b8281835e5f83830152505050565b5f612a19826129f7565b612a238185612159565b9350612a33818560208601612a01565b80840191505092915050565b5f612a4a8284612a0f565b915081905092915050565b7f45524332303a206c6f772d6c6576656c2063616c6c206661696c6564000000005f82015250565b5f612a89601c83611ed9565b9150612a9482612a55565b602082019050919050565b5f6020820190508181035f830152612ab681612a7d565b9050919050565b612ac681611c05565b8114612ad0575f5ffd5b50565b5f81519050612ae181612abd565b92915050565b5f60208284031215612afc57612afb611a84565b5b5f612b0984828501612ad3565b91505092915050565b7f45524332303a206f7065726174696f6e20646964206e6f7420737563636565645f82015250565b5f612b46602083611ed9565b9150612b5182612b12565b602082019050919050565b5f6020820190508181035f830152612b7381612b3a565b905091905056fea264697066735822122032a819415ee5cb9b330e94cae61971e484ace9dcf917009dd030538857e0099564736f6c634300081e0033",
					"opcodes": "PUSH1 0x80 PUSH1 0x40 MSTORE CALLVALUE DUP1 ISZERO PUSH2 0xF JUMPI PUSH0 PUSH0 REVERT JUMPDEST POP PUSH1 0x40 MLOAD PUSH2 0x2DE2 CODESIZE SUB DUP1 PUSH2 0x2DE2 DUP4 CODECOPY DUP2 DUP2 ADD PUSH1 0x40 MSTORE DUP2 ADD SWAP1 PUSH2 0x31 SWAP2 SWAP1 PUSH2 0x182 JUMP JUMPDEST CALLER PUSH0 PUSH0 PUSH2 0x100 EXP DUP2 SLOAD DUP2 PUSH20 0xFFFFFFFFFFFFFFFFFFFFFFFFFFFFFFFFFFFFFFFF MUL NOT AND SWAP1 DUP4 PUSH20 0xFFFFFFFFFFFFFFFFFFFFFFFFFFFFFFFFFFFFFFFF AND MUL OR SWAP1 SSTORE POP PUSH0 PUSH0 SWAP1 SLOAD SWAP1 PUSH2 0x100 EXP SWAP1 DIV PUSH20 0xFFFFFFFFFFFFFFFFFFFFFFFFFFFFFFFFFFFFFFFF AND PUSH20 0xFFFFFFFFFFFFFFFFFFFFFFFFFFFFFFFFFFFFFFFF AND PUSH0 PUSH20 0xFFFFFFFFFFFFFFFFFFFFFFFFFFFFFFFFFFFFFFFF AND PUSH32 0x8BE0079C531659141344CD1FD0A4F28419497F9722A3DAAFE3B4186F6B6457E0 PUSH1 0x40 MLOAD PUSH1 0x40 MLOAD DUP1 SWAP2 SUB SWAP1 LOG3 PUSH1 0x1 DUP1 DUP2 SWAP1 SSTORE POP PUSH2 0x2710 DUP2 GT ISZERO PUSH2 0x136 JUMPI PUSH1 0x40 MLOAD PUSH32 0x8C379A000000000000000000000000000000000000000000000000000000000 DUP2 MSTORE PUSH1 0x4 ADD PUSH2 0x12D SWAP1 PUSH2 0x207 JUMP JUMPDEST PUSH1 0x40 MLOAD DUP1 SWAP2 SUB SWAP1 REVERT JUMPDEST DUP1 PUSH1 0x2 DUP2 SWAP1 SSTORE POP PUSH1 0x1 PUSH1 0x3 DUP2 SWAP1 SSTORE POP POP PUSH2 0x225 JUMP JUMPDEST PUSH0 PUSH0 REVERT JUMPDEST PUSH0 DUP2 SWAP1 POP SWAP2 SWAP1 POP JUMP JUMPDEST PUSH2 0x161 DUP2 PUSH2 0x14F JUMP JUMPDEST DUP2 EQ PUSH2 0x16B JUMPI PUSH0 PUSH0 REVERT JUMPDEST POP JUMP JUMPDEST PUSH0 DUP2 MLOAD SWAP1 POP PUSH2 0x17C DUP2 PUSH2 0x158 JUMP JUMPDEST SWAP3 SWAP2 POP POP JUMP JUMPDEST PUSH0 PUSH1 0x20 DUP3 DUP5 SUB SLT ISZERO PUSH2 0x197 JUMPI PUSH2 0x196 PUSH2 0x14B JUMP JUMPDEST JUMPDEST PUSH0 PUSH2 0x1A4 DUP5 DUP3 DUP6 ADD PUSH2 0x16E JUMP JUMPDEST SWAP2 POP POP SWAP3 SWAP2 POP POP JUMP JUMPDEST PUSH0 DUP3 DUP3 MSTORE PUSH1 0x20 DUP3 ADD SWAP1 POP SWAP3 SWAP2 POP POP JUMP JUMPDEST PUSH32 0x6665654270733C3D313030303000000000000000000000000000000000000000 PUSH0 DUP3 ADD MSTORE POP JUMP JUMPDEST PUSH0 PUSH2 0x1F1 PUSH1 0xD DUP4 PUSH2 0x1AD JUMP JUMPDEST SWAP2 POP PUSH2 0x1FC DUP3 PUSH2 0x1BD JUMP JUMPDEST PUSH1 0x20 DUP3 ADD SWAP1 POP SWAP2 SWAP1 POP JUMP JUMPDEST PUSH0 PUSH1 0x20 DUP3 ADD SWAP1 POP DUP2 DUP2 SUB PUSH0 DUP4 ADD MSTORE PUSH2 0x21E DUP2 PUSH2 0x1E5 JUMP JUMPDEST SWAP1 POP SWAP2 SWAP1 POP JUMP JUMPDEST PUSH2 0x2BB0 DUP1 PUSH2 0x232 PUSH0 CODECOPY PUSH0 RETURN INVALID PUSH1 0x80 PUSH1 0x40 MSTORE PUSH1 0x4 CALLDATASIZE LT PUSH2 0xAA JUMPI PUSH0 CALLDATALOAD PUSH1 0xE0 SHR DUP1 PUSH4 0x72C27B62 GT PUSH2 0x63 JUMPI DUP1 PUSH4 0x72C27B62 EQ PUSH2 0x1A3 JUMPI DUP1 PUSH4 0x84276D81 EQ PUSH2 0x1CB JUMPI DUP1 PUSH4 0x87D81789 EQ PUSH2 0x1F3 JUMPI DUP1 PUSH4 0x8DA5CB5B EQ PUSH2 0x238 JUMPI DUP1 PUSH4 0x96F6044B EQ PUSH2 0x262 JUMPI DUP1 PUSH4 0xF2FDE38B EQ PUSH2 0x29E JUMPI PUSH2 0xAB JUMP JUMPDEST DUP1 PUSH4 0x24A9D853 EQ PUSH2 0xAD JUMPI DUP1 PUSH4 0x268B15ED EQ PUSH2 0xD7 JUMPI DUP1 PUSH4 0x278ECDE1 EQ PUSH2 0xFF JUMPI DUP1 PUSH4 0x3280A836 EQ PUSH2 0x127 JUMPI DUP1 PUSH4 0x61B8CE8C EQ PUSH2 0x163 JUMPI DUP1 PUSH4 0x715018A6 EQ PUSH2 0x18D JUMPI PUSH2 0xAB JUMP JUMPDEST JUMPDEST STOP JUMPDEST CALLVALUE DUP1 ISZERO PUSH2 0xB8 JUMPI PUSH0 PUSH0 REVERT JUMPDEST POP PUSH2 0xC1 PUSH2 0x2C6 JUMP JUMPDEST PUSH1 0x40 MLOAD PUSH2 0xCE SWAP2 SWAP1 PUSH2 0x1A6B JUMP JUMPDEST PUSH1 0x40 MLOAD DUP1 SWAP2 SUB SWAP1 RETURN JUMPDEST CALLVALUE DUP1 ISZERO PUSH2 0xE2 JUMPI PUSH0 PUSH0 REVERT JUMPDEST POP PUSH2 0xFD PUSH1 0x4 DUP1 CALLDATASIZE SUB DUP2 ADD SWAP1 PUSH2 0xF8 SWAP2 SWAP1 PUSH2 0x1B17 JUMP JUMPDEST PUSH2 0x2CC JUMP JUMPDEST STOP JUMPDEST CALLVALUE DUP1 ISZERO PUSH2 0x10A JUMPI PUSH0 PUSH0 REVERT JUMPDEST POP PUSH2 0x125 PUSH1 0x4 DUP1 CALLDATASIZE SUB DUP2 ADD SWAP1 PUSH2 0x120 SWAP2 SWAP1 PUSH2 0x1B74 JUMP JUMPDEST PUSH2 0x6E8 JUMP JUMPDEST STOP JUMPDEST CALLVALUE DUP1 ISZERO PUSH2 0x132 JUMPI PUSH0 PUSH0 REVERT JUMPDEST POP PUSH2 0x14D PUSH1 0x4 DUP1 CALLDATASIZE SUB DUP2 ADD SWAP1 PUSH2 0x148 SWAP2 SWAP1 PUSH2 0x1B74 JUMP JUMPDEST PUSH2 0x9F8 JUMP JUMPDEST PUSH1 0x40 MLOAD PUSH2 0x15A SWAP2 SWAP1 PUSH2 0x1CE9 JUMP JUMPDEST PUSH1 0x40 MLOAD DUP1 SWAP2 SUB SWAP1 RETURN JUMPDEST CALLVALUE DUP1 ISZERO PUSH2 0x16E JUMPI PUSH0 PUSH0 REVERT JUMPDEST POP PUSH2 0x177 PUSH2 0xB89 JUMP JUMPDEST PUSH1 0x40 MLOAD PUSH2 0x184 SWAP2 SWAP1 PUSH2 0x1A6B JUMP JUMPDEST PUSH1 0x40 MLOAD DUP1 SWAP2 SUB SWAP1 RETURN JUMPDEST CALLVALUE DUP1 ISZERO PUSH2 0x198 JUMPI PUSH0 PUSH0 REVERT JUMPDEST POP PUSH2 0x1A1 PUSH2 0xB8F JUMP JUMPDEST STOP JUMPDEST CALLVALUE DUP1 ISZERO PUSH2 0x1AE JUMPI PUSH0 PUSH0 REVERT JUMPDEST POP PUSH2 0x1C9 PUSH1 0x4 DUP1 CALLDATASIZE SUB DUP2 ADD SWAP1 PUSH2 0x1C4 SWAP2 SWAP1 PUSH2 0x1B74 JUMP JUMPDEST PUSH2 0xCD8 JUMP JUMPDEST STOP JUMPDEST CALLVALUE DUP1 ISZERO PUSH2 0x1D6 JUMPI PUSH0 PUSH0 REVERT JUMPDEST POP PUSH2 0x1F1 PUSH1 0x4 DUP1 CALLDATASIZE SUB DUP2 ADD SWAP1 PUSH2 0x1EC SWAP2 SWAP1 PUSH2 0x1B74 JUMP JUMPDEST PUSH2 0xDF0 JUMP JUMPDEST STOP JUMPDEST CALLVALUE DUP1 ISZERO PUSH2 0x1FE JUMPI PUSH0 PUSH0 REVERT JUMPDEST POP PUSH2 0x219 PUSH1 0x4 DUP1 CALLDATASIZE SUB DUP2 ADD SWAP1 PUSH2 0x214 SWAP2 SWAP1 PUSH2 0x1B74 JUMP JUMPDEST PUSH2 0xF46 JUMP JUMPDEST PUSH1 0x40 MLOAD PUSH2 0x22F SWAP11 SWAP10 SWAP9 SWAP8 SWAP7 SWAP6 SWAP5 SWAP4 SWAP3 SWAP2 SWAP1 PUSH2 0x1D30 JUMP JUMPDEST PUSH1 0x40 MLOAD DUP1 SWAP2 SUB SWAP1 RETURN JUMPDEST CALLVALUE DUP1 ISZERO PUSH2 0x243 JUMPI PUSH0 PUSH0 REVERT JUMPDEST POP PUSH2 0x24C PUSH2 0x100C JUMP JUMPDEST PUSH1 0x40 MLOAD PUSH2 0x259 SWAP2 SWAP1 PUSH2 0x1DCA JUMP JUMPDEST PUSH1 0x40 MLOAD DUP1 SWAP2 SUB SWAP1 RETURN JUMPDEST CALLVALUE DUP1 ISZERO PUSH2 0x26D JUMPI PUSH0 PUSH0 REVERT JUMPDEST POP PUSH2 0x288 PUSH1 0x4 DUP1 CALLDATASIZE SUB DUP2 ADD SWAP1 PUSH2 0x283 SWAP2 SWAP1 PUSH2 0x1E37 JUMP JUMPDEST PUSH2 0x1033 JUMP JUMPDEST PUSH1 0x40 MLOAD PUSH2 0x295 SWAP2 SWAP1 PUSH2 0x1A6B JUMP JUMPDEST PUSH1 0x40 MLOAD DUP1 SWAP2 SUB SWAP1 RETURN JUMPDEST CALLVALUE DUP1 ISZERO PUSH2 0x2A9 JUMPI PUSH0 PUSH0 REVERT JUMPDEST POP PUSH2 0x2C4 PUSH1 0x4 DUP1 CALLDATASIZE SUB DUP2 ADD SWAP1 PUSH2 0x2BF SWAP2 SWAP1 PUSH2 0x1EAE JUMP JUMPDEST PUSH2 0x15F0 JUMP JUMPDEST STOP JUMPDEST PUSH1 0x2 SLOAD DUP2 JUMP JUMPDEST PUSH1 0x1 DUP1 SLOAD EQ PUSH2 0x310 JUMPI PUSH1 0x40 MLOAD PUSH32 0x8C379A000000000000000000000000000000000000000000000000000000000 DUP2 MSTORE PUSH1 0x4 ADD PUSH2 0x307 SWAP1 PUSH2 0x1F33 JUMP JUMPDEST PUSH1 0x40 MLOAD DUP1 SWAP2 SUB SWAP1 REVERT JUMPDEST PUSH1 0x2 PUSH1 0x1 DUP2 SWAP1 SSTORE POP PUSH0 PUSH1 0x4 PUSH0 DUP6 DUP2 MSTORE PUSH1 0x20 ADD SWAP1 DUP2 MSTORE PUSH1 0x20 ADD PUSH0 KECCAK256 SWAP1 POP PUSH0 DUP2 PUSH1 0x3 ADD SLOAD GT PUSH2 0x372 JUMPI PUSH1 0x40 MLOAD PUSH32 0x8C379A000000000000000000000000000000000000000000000000000000000 DUP2 MSTORE PUSH1 0x4 ADD PUSH2 0x369 SWAP1 PUSH2 0x1F9B JUMP JUMPDEST PUSH1 0x40 MLOAD DUP1 SWAP2 SUB SWAP1 REVERT JUMPDEST DUP1 PUSH1 0x8 ADD PUSH0 SWAP1 SLOAD SWAP1 PUSH2 0x100 EXP SWAP1 DIV PUSH1 0xFF AND ISZERO PUSH2 0x3C3 JUMPI PUSH1 0x40 MLOAD PUSH32 0x8C379A000000000000000000000000000000000000000000000000000000000 DUP2 MSTORE PUSH1 0x4 ADD PUSH2 0x3BA SWAP1 PUSH2 0x2003 JUMP JUMPDEST PUSH1 0x40 MLOAD DUP1 SWAP2 SUB SWAP1 REVERT JUMPDEST DUP1 PUSH1 0x8 ADD PUSH1 0x1 SWAP1 SLOAD SWAP1 PUSH2 0x100 EXP SWAP1 DIV PUSH1 0xFF AND ISZERO PUSH2 0x415 JUMPI PUSH1 0x40 MLOAD PUSH32 0x8C379A000000000000000000000000000000000000000000000000000000000 DUP2 MSTORE PUSH1 0x4 ADD PUSH2 0x40C SWAP1 PUSH2 0x206B JUMP JUMPDEST PUSH1 0x40 MLOAD DUP1 SWAP2 SUB SWAP1 REVERT JUMPDEST DUP1 PUSH1 0x6 ADD SLOAD TIMESTAMP GT ISZERO PUSH2 0x45C JUMPI PUSH1 0x40 MLOAD PUSH32 0x8C379A000000000000000000000000000000000000000000000000000000000 DUP2 MSTORE PUSH1 0x4 ADD PUSH2 0x453 SWAP1 PUSH2 0x20D3 JUMP JUMPDEST PUSH1 0x40 MLOAD DUP1 SWAP2 SUB SWAP1 REVERT JUMPDEST DUP1 PUSH1 0x4 ADD PUSH0 SWAP1 SLOAD SWAP1 PUSH2 0x100 EXP SWAP1 DIV PUSH20 0xFFFFFFFFFFFFFFFFFFFFFFFFFFFFFFFFFFFFFFFF AND PUSH20 0xFFFFFFFFFFFFFFFFFFFFFFFFFFFFFFFFFFFFFFFF AND CALLER PUSH20 0xFFFFFFFFFFFFFFFFFFFFFFFFFFFFFFFFFFFFFFFF AND EQ PUSH2 0x4ED JUMPI PUSH1 0x40 MLOAD PUSH32 0x8C379A000000000000000000000000000000000000000000000000000000000 DUP2 MSTORE PUSH1 0x4 ADD PUSH2 0x4E4 SWAP1 PUSH2 0x213B JUMP JUMPDEST PUSH1 0x40 MLOAD DUP1 SWAP2 SUB SWAP1 REVERT JUMPDEST PUSH0 DUP4 DUP4 DUP4 PUSH1 0x4 ADD PUSH0 SWAP1 SLOAD SWAP1 PUSH2 0x100 EXP SWAP1 DIV PUSH20 0xFFFFFFFFFFFFFFFFFFFFFFFFFFFFFFFFFFFFFFFF AND PUSH1 0x40 MLOAD PUSH1 0x20 ADD PUSH2 0x526 SWAP4 SWAP3 SWAP2 SWAP1 PUSH2 0x21DA JUMP JUMPDEST PUSH1 0x40 MLOAD PUSH1 0x20 DUP2 DUP4 SUB SUB DUP2 MSTORE SWAP1 PUSH1 0x40 MSTORE DUP1 MLOAD SWAP1 PUSH1 0x20 ADD KECCAK256 SWAP1 POP DUP2 PUSH1 0x7 ADD SLOAD DUP2 EQ PUSH2 0x584 JUMPI PUSH1 0x40 MLOAD PUSH32 0x8C379A000000000000000000000000000000000000000000000000000000000 DUP2 MSTORE PUSH1 0x4 ADD PUSH2 0x57B SWAP1 PUSH2 0x224D JUMP JUMPDEST PUSH1 0x40 MLOAD DUP1 SWAP2 SUB SWAP1 REVERT JUMPDEST PUSH1 0x1 DUP3 PUSH1 0x8 ADD PUSH0 PUSH2 0x100 EXP DUP2 SLOAD DUP2 PUSH1 0xFF MUL NOT AND SWAP1 DUP4 ISZERO ISZERO MUL OR SWAP1 SSTORE POP PUSH0 PUSH2 0x2710 PUSH1 0x2 SLOAD DUP5 PUSH1 0x3 ADD SLOAD PUSH2 0x5B6 SWAP2 SWAP1 PUSH2 0x2298 JUMP JUMPDEST PUSH2 0x5C0 SWAP2 SWAP1 PUSH2 0x2306 JUMP JUMPDEST SWAP1 POP PUSH0 DUP2 DUP5 PUSH1 0x3 ADD SLOAD PUSH2 0x5D3 SWAP2 SWAP1 PUSH2 0x2336 JUMP JUMPDEST SWAP1 POP PUSH2 0x626 DUP5 PUSH1 0x1 ADD PUSH0 SWAP1 SLOAD SWAP1 PUSH2 0x100 EXP SWAP1 DIV PUSH20 0xFFFFFFFFFFFFFFFFFFFFFFFFFFFFFFFFFFFFFFFF AND DUP6 PUSH1 0x4 ADD PUSH0 SWAP1 SLOAD SWAP1 PUSH2 0x100 EXP SWAP1 DIV PUSH20 0xFFFFFFFFFFFFFFFFFFFFFFFFFFFFFFFFFFFFFFFF AND DUP4 PUSH2 0x17A8 JUMP JUMPDEST PUSH0 DUP3 GT ISZERO PUSH2 0x664 JUMPI PUSH2 0x663 DUP5 PUSH1 0x1 ADD PUSH0 SWAP1 SLOAD SWAP1 PUSH2 0x100 EXP SWAP1 DIV PUSH20 0xFFFFFFFFFFFFFFFFFFFFFFFFFFFFFFFFFFFFFFFF AND PUSH2 0x65D PUSH2 0x100C JUMP JUMPDEST DUP5 PUSH2 0x17A8 JUMP JUMPDEST JUMPDEST DUP4 PUSH1 0x4 ADD PUSH0 SWAP1 SLOAD SWAP1 PUSH2 0x100 EXP SWAP1 DIV PUSH20 0xFFFFFFFFFFFFFFFFFFFFFFFFFFFFFFFFFFFFFFFF AND PUSH20 0xFFFFFFFFFFFFFFFFFFFFFFFFFFFFFFFFFFFFFFFF AND DUP8 PUSH32 0xD9CB1E2714D65A111C0F20F060176AD657496BD47A3DE04EC7C3D4CA232112AC DUP4 DUP6 PUSH1 0x40 MLOAD PUSH2 0x6D0 SWAP3 SWAP2 SWAP1 PUSH2 0x2369 JUMP JUMPDEST PUSH1 0x40 MLOAD DUP1 SWAP2 SUB SWAP1 LOG3 POP POP POP POP PUSH1 0x1 DUP1 DUP2 SWAP1 SSTORE POP POP POP POP JUMP JUMPDEST PUSH1 0x1 DUP1 SLOAD EQ PUSH2 0x72C JUMPI PUSH1 0x40 MLOAD PUSH32 0x8C379A000000000000000000000000000000000000000000000000000000000 DUP2 MSTORE PUSH1 0x4 ADD PUSH2 0x723 SWAP1 PUSH2 0x1F33 JUMP JUMPDEST PUSH1 0x40 MLOAD DUP1 SWAP2 SUB SWAP1 REVERT JUMPDEST PUSH1 0x2 PUSH1 0x1 DUP2 SWAP1 SSTORE POP PUSH0 PUSH1 0x4 PUSH0 DUP4 DUP2 MSTORE PUSH1 0x20 ADD SWAP1 DUP2 MSTORE PUSH1 0x20 ADD PUSH0 KECCAK256 SWAP1 POP PUSH0 DUP2 PUSH1 0x3 ADD SLOAD GT PUSH2 0x78E JUMPI PUSH1 0x40 MLOAD PUSH32 0x8C379A000000000000000000000000000000000000000000000000000000000 DUP2 MSTORE PUSH1 0x4 ADD PUSH2 0x785 SWAP1 PUSH2 0x1F9B JUMP JUMPDEST PUSH1 0x40 MLOAD DUP1 SWAP2 SUB SWAP1 REVERT JUMPDEST DUP1 PUSH1 0x8 ADD PUSH0 SWAP1 SLOAD SWAP1 PUSH2 0x100 EXP SWAP1 DIV PUSH1 0xFF AND ISZERO PUSH2 0x7DF JUMPI PUSH1 0x40 MLOAD PUSH32 0x8C379A000000000000000000000000000000000000000000000000000000000 DUP2 MSTORE PUSH1 0x4 ADD PUSH2 0x7D6 SWAP1 PUSH2 0x2003 JUMP JUMPDEST PUSH1 0x40 MLOAD DUP1 SWAP2 SUB SWAP1 REVERT JUMPDEST DUP1 PUSH1 0x8 ADD PUSH1 0x1 SWAP1 SLOAD SWAP1 PUSH2 0x100 EXP SWAP1 DIV PUSH1 0xFF AND ISZERO PUSH2 0x831 JUMPI PUSH1 0x40 MLOAD PUSH32 0x8C379A000000000000000000000000000000000000000000000000000000000 DUP2 MSTORE PUSH1 0x4 ADD PUSH2 0x828 SWAP1 PUSH2 0x206B JUMP JUMPDEST PUSH1 0x40 MLOAD DUP1 SWAP2 SUB SWAP1 REVERT JUMPDEST DUP1 PUSH1 0x6 ADD SLOAD TIMESTAMP GT PUSH2 0x877 JUMPI PUSH1 0x40 MLOAD PUSH32 0x8C379A000000000000000000000000000000000000000000000000000000000 DUP2 MSTORE PUSH1 0x4 ADD PUSH2 0x86E SWAP1 PUSH2 0x23DA JUMP JUMPDEST PUSH1 0x40 MLOAD DUP1 SWAP2 SUB SWAP1 REVERT JUMPDEST DUP1 PUSH0 ADD PUSH0 SWAP1 SLOAD SWAP1 PUSH2 0x100 EXP SWAP1 DIV PUSH20 0xFFFFFFFFFFFFFFFFFFFFFFFFFFFFFFFFFFFFFFFF AND PUSH20 0xFFFFFFFFFFFFFFFFFFFFFFFFFFFFFFFFFFFFFFFF AND CALLER PUSH20 0xFFFFFFFFFFFFFFFFFFFFFFFFFFFFFFFFFFFFFFFF AND EQ PUSH2 0x907 JUMPI PUSH1 0x40 MLOAD PUSH32 0x8C379A000000000000000000000000000000000000000000000000000000000 DUP2 MSTORE PUSH1 0x4 ADD PUSH2 0x8FE SWAP1 PUSH2 0x2442 JUMP JUMPDEST PUSH1 0x40 MLOAD DUP1 SWAP2 SUB SWAP1 REVERT JUMPDEST PUSH1 0x1 DUP2 PUSH1 0x8 ADD PUSH1 0x1 PUSH2 0x100 EXP DUP2 SLOAD DUP2 PUSH1 0xFF MUL NOT AND SWAP1 DUP4 ISZERO ISZERO MUL OR SWAP1 SSTORE POP PUSH2 0x978 DUP2 PUSH1 0x1 ADD PUSH0 SWAP1 SLOAD SWAP1 PUSH2 0x100 EXP SWAP1 DIV PUSH20 0xFFFFFFFFFFFFFFFFFFFFFFFFFFFFFFFFFFFFFFFF AND DUP3 PUSH0 ADD PUSH0 SWAP1 SLOAD SWAP1 PUSH2 0x100 EXP SWAP1 DIV PUSH20 0xFFFFFFFFFFFFFFFFFFFFFFFFFFFFFFFFFFFFFFFF AND DUP4 PUSH1 0x3 ADD SLOAD PUSH2 0x17A8 JUMP JUMPDEST DUP1 PUSH0 ADD PUSH0 SWAP1 SLOAD SWAP1 PUSH2 0x100 EXP SWAP1 DIV PUSH20 0xFFFFFFFFFFFFFFFFFFFFFFFFFFFFFFFFFFFFFFFF AND PUSH20 0xFFFFFFFFFFFFFFFFFFFFFFFFFFFFFFFFFFFFFFFF AND DUP3 PUSH32 0x7CA5472B7EA78C2C0141C5A12EE6D170CF4CE8ED06BE3D22C8252DDFC7A6A2C4 DUP4 PUSH1 0x3 ADD SLOAD PUSH1 0x40 MLOAD PUSH2 0x9E5 SWAP2 SWAP1 PUSH2 0x1A6B JUMP JUMPDEST PUSH1 0x40 MLOAD DUP1 SWAP2 SUB SWAP1 LOG3 POP PUSH1 0x1 DUP1 DUP2 SWAP1 SSTORE POP POP JUMP JUMPDEST PUSH2 0xA00 PUSH2 0x19C4 JUMP JUMPDEST PUSH1 0x4 PUSH0 DUP4 DUP2 MSTORE PUSH1 0x20 ADD SWAP1 DUP2 MSTORE PUSH1 0x20 ADD PUSH0 KECCAK256 PUSH1 0x40 MLOAD DUP1 PUSH2 0x140 ADD PUSH1 0x40 MSTORE SWAP1 DUP2 PUSH0 DUP3 ADD PUSH0 SWAP1 SLOAD SWAP1 PUSH2 0x100 EXP SWAP1 DIV PUSH20 0xFFFFFFFFFFFFFFFFFFFFFFFFFFFFFFFFFFFFFFFF AND PUSH20 0xFFFFFFFFFFFFFFFFFFFFFFFFFFFFFFFFFFFFFFFF AND PUSH20 0xFFFFFFFFFFFFFFFFFFFFFFFFFFFFFFFFFFFFFFFF AND DUP2 MSTORE PUSH1 0x20 ADD PUSH1 0x1 DUP3 ADD PUSH0 SWAP1 SLOAD SWAP1 PUSH2 0x100 EXP SWAP1 DIV PUSH20 0xFFFFFFFFFFFFFFFFFFFFFFFFFFFFFFFFFFFFFFFF AND PUSH20 0xFFFFFFFFFFFFFFFFFFFFFFFFFFFFFFFFFFFFFFFF AND PUSH20 0xFFFFFFFFFFFFFFFFFFFFFFFFFFFFFFFFFFFFFFFF AND DUP2 MSTORE PUSH1 0x20 ADD PUSH1 0x2 DUP3 ADD SLOAD DUP2 MSTORE PUSH1 0x20 ADD PUSH1 0x3 DUP3 ADD SLOAD DUP2 MSTORE PUSH1 0x20 ADD PUSH1 0x4 DUP3 ADD PUSH0 SWAP1 SLOAD SWAP1 PUSH2 0x100 EXP SWAP1 DIV PUSH20 0xFFFFFFFFFFFFFFFFFFFFFFFFFFFFFFFFFFFFFFFF AND PUSH20 0xFFFFFFFFFFFFFFFFFFFFFFFFFFFFFFFFFFFFFFFF AND PUSH20 0xFFFFFFFFFFFFFFFFFFFFFFFFFFFFFFFFFFFFFFFF AND DUP2 MSTORE PUSH1 0x20 ADD PUSH1 0x5 DUP3 ADD SLOAD DUP2 MSTORE PUSH1 0x20 ADD PUSH1 0x6 DUP3 ADD SLOAD DUP2 MSTORE PUSH1 0x20 ADD PUSH1 0x7 DUP3 ADD SLOAD DUP2 MSTORE PUSH1 0x20 ADD PUSH1 0x8 DUP3 ADD PUSH0 SWAP1 SLOAD SWAP1 PUSH2 0x100 EXP SWAP1 DIV PUSH1 0xFF AND ISZERO ISZERO ISZERO ISZERO DUP2 MSTORE PUSH1 0x20 ADD PUSH1 0x8 DUP3 ADD PUSH1 0x1 SWAP1 SLOAD SWAP1 PUSH2 0x100 EXP SWAP1 DIV PUSH1 0xFF AND ISZERO ISZERO ISZERO ISZERO DUP2 MSTORE POP POP SWAP1 POP SWAP2 SWAP1 POP JUMP JUMPDEST PUSH1 0x3 SLOAD DUP2 JUMP JUMPDEST PUSH0 PUSH0 SWAP1 SLOAD SWAP1 PUSH2 0x100 EXP SWAP1 DIV PUSH20 0xFFFFFFFFFFFFFFFFFFFFFFFFFFFFFFFFFFFFFFFF AND PUSH20 0xFFFFFFFFFFFFFFFFFFFFFFFFFFFFFFFFFFFFFFFF AND CALLER PUSH20 0xFFFFFFFFFFFFFFFFFFFFFFFFFFFFFFFFFFFFFFFF AND EQ PUSH2 0xC1D JUMPI PUSH1 0x40 MLOAD PUSH32 0x8C379A000000000000000000000000000000000000000000000000000000000 DUP2 MSTORE PUSH1 0x4 ADD PUSH2 0xC14 SWAP1 PUSH2 0x24AA JUMP JUMPDEST PUSH1 0x40 MLOAD DUP1 SWAP2 SUB SWAP1 REVERT JUMPDEST PUSH0 PUSH20 0xFFFFFFFFFFFFFFFFFFFFFFFFFFFFFFFFFFFFFFFF AND PUSH0 PUSH0 SWAP1 SLOAD SWAP1 PUSH2 0x100 EXP SWAP1 DIV PUSH20 0xFFFFFFFFFFFFFFFFFFFFFFFFFFFFFFFFFFFFFFFF AND PUSH20 0xFFFFFFFFFFFFFFFFFFFFFFFFFFFFFFFFFFFFFFFF AND PUSH32 0x8BE0079C531659141344CD1FD0A4F28419497F9722A3DAAFE3B4186F6B6457E0 PUSH1 0x40 MLOAD PUSH1 0x40 MLOAD DUP1 SWAP2 SUB SWAP1 LOG3 PUSH0 PUSH0 PUSH0 PUSH2 0x100 EXP DUP2 SLOAD DUP2 PUSH20 0xFFFFFFFFFFFFFFFFFFFFFFFFFFFFFFFFFFFFFFFF MUL NOT AND SWAP1 DUP4 PUSH20 0xFFFFFFFFFFFFFFFFFFFFFFFFFFFFFFFFFFFFFFFF AND MUL OR SWAP1 SSTORE POP JUMP JUMPDEST PUSH0 PUSH0 SWAP1 SLOAD SWAP1 PUSH2 0x100 EXP SWAP1 DIV PUSH20 0xFFFFFFFFFFFFFFFFFFFFFFFFFFFFFFFFFFFFFFFF AND PUSH20 0xFFFFFFFFFFFFFFFFFFFFFFFFFFFFFFFFFFFFFFFF AND CALLER PUSH20 0xFFFFFFFFFFFFFFFFFFFFFFFFFFFFFFFFFFFFFFFF AND EQ PUSH2 0xD66 JUMPI PUSH1 0x40 MLOAD PUSH32 0x8C379A000000000000000000000000000000000000000000000000000000000 DUP2 MSTORE PUSH1 0x4 ADD PUSH2 0xD5D SWAP1 PUSH2 0x24AA JUMP JUMPDEST PUSH1 0x40 MLOAD DUP1 SWAP2 SUB SWAP1 REVERT JUMPDEST PUSH2 0x2710 DUP2 GT ISZERO PUSH2 0xDAB JUMPI PUSH1 0x40 MLOAD PUSH32 0x8C379A000000000000000000000000000000000000000000000000000000000 DUP2 MSTORE PUSH1 0x4 ADD PUSH2 0xDA2 SWAP1 PUSH2 0x2512 JUMP JUMPDEST PUSH1 0x40 MLOAD DUP1 SWAP2 SUB SWAP1 REVERT JUMPDEST PUSH32 0x5FC463DA23C1B063E66F9E352006A7FBE8DB7223C455DC429E881A2DFE2F94F1 PUSH1 0x2 SLOAD DUP3 PUSH1 0x40 MLOAD PUSH2 0xDDE SWAP3 SWAP2 SWAP1 PUSH2 0x2369 JUMP JUMPDEST PUSH1 0x40 MLOAD DUP1 SWAP2 SUB SWAP1 LOG1 DUP1 PUSH1 0x2 DUP2 SWAP1 SSTORE POP POP JUMP JUMPDEST PUSH0 PUSH0 SWAP1 SLOAD SWAP1 PUSH2 0x100 EXP SWAP1 DIV PUSH20 0xFFFFFFFFFFFFFFFFFFFFFFFFFFFFFFFFFFFFFFFF AND PUSH20 0xFFFFFFFFFFFFFFFFFFFFFFFFFFFFFFFFFFFFFFFF AND CALLER PUSH20 0xFFFFFFFFFFFFFFFFFFFFFFFFFFFFFFFFFFFFFFFF AND EQ PUSH2 0xE7E JUMPI PUSH1 0x40 MLOAD PUSH32 0x8C379A000000000000000000000000000000000000000000000000000000000 DUP2 MSTORE PUSH1 0x4 ADD PUSH2 0xE75 SWAP1 PUSH2 0x24AA JUMP JUMPDEST PUSH1 0x40 MLOAD DUP1 SWAP2 SUB SWAP1 REVERT JUMPDEST DUP1 SELFBALANCE LT ISZERO PUSH2 0xEC1 JUMPI PUSH1 0x40 MLOAD PUSH32 0x8C379A000000000000000000000000000000000000000000000000000000000 DUP2 MSTORE PUSH1 0x4 ADD PUSH2 0xEB8 SWAP1 PUSH2 0x257A JUMP JUMPDEST PUSH1 0x40 MLOAD DUP1 SWAP2 SUB SWAP1 REVERT JUMPDEST PUSH2 0xEC9 PUSH2 0x100C JUMP JUMPDEST PUSH20 0xFFFFFFFFFFFFFFFFFFFFFFFFFFFFFFFFFFFFFFFF AND PUSH2 0x8FC DUP3 SWAP1 DUP2 ISZERO MUL SWAP1 PUSH1 0x40 MLOAD PUSH0 PUSH1 0x40 MLOAD DUP1 DUP4 SUB DUP2 DUP6 DUP9 DUP9 CALL SWAP4 POP POP POP POP ISZERO DUP1 ISZERO PUSH2 0xF0B JUMPI RETURNDATASIZE PUSH0 PUSH0 RETURNDATACOPY RETURNDATASIZE PUSH0 REVERT JUMPDEST POP PUSH32 0x6E4C84161CDB053C0FD0AD9DFD1B7E4E50A718125358C96A036C95A19EB0A905 DUP2 PUSH1 0x40 MLOAD PUSH2 0xF3B SWAP2 SWAP1 PUSH2 0x1A6B JUMP JUMPDEST PUSH1 0x40 MLOAD DUP1 SWAP2 SUB SWAP1 LOG1 POP JUMP JUMPDEST PUSH1 0x4 PUSH1 0x20 MSTORE DUP1 PUSH0 MSTORE PUSH1 0x40 PUSH0 KECCAK256 PUSH0 SWAP2 POP SWAP1 POP DUP1 PUSH0 ADD PUSH0 SWAP1 SLOAD SWAP1 PUSH2 0x100 EXP SWAP1 DIV PUSH20 0xFFFFFFFFFFFFFFFFFFFFFFFFFFFFFFFFFFFFFFFF AND SWAP1 DUP1 PUSH1 0x1 ADD PUSH0 SWAP1 SLOAD SWAP1 PUSH2 0x100 EXP SWAP1 DIV PUSH20 0xFFFFFFFFFFFFFFFFFFFFFFFFFFFFFFFFFFFFFFFF AND SWAP1 DUP1 PUSH1 0x2 ADD SLOAD SWAP1 DUP1 PUSH1 0x3 ADD SLOAD SWAP1 DUP1 PUSH1 0x4 ADD PUSH0 SWAP1 SLOAD SWAP1 PUSH2 0x100 EXP SWAP1 DIV PUSH20 0xFFFFFFFFFFFFFFFFFFFFFFFFFFFFFFFFFFFFFFFF AND SWAP1 DUP1 PUSH1 0x5 ADD SLOAD SWAP1 DUP1 PUSH1 0x6 ADD SLOAD SWAP1 DUP1 PUSH1 0x7 ADD SLOAD SWAP1 DUP1 PUSH1 0x8 ADD PUSH0 SWAP1 SLOAD SWAP1 PUSH2 0x100 EXP SWAP1 DIV PUSH1 0xFF AND SWAP1 DUP1 PUSH1 0x8 ADD PUSH1 0x1 SWAP1 SLOAD SWAP1 PUSH2 0x100 EXP SWAP1 DIV PUSH1 0xFF AND SWAP1 POP DUP11 JUMP JUMPDEST PUSH0 PUSH0 PUSH0 SWAP1 SLOAD SWAP1 PUSH2 0x100 EXP SWAP1 DIV PUSH20 0xFFFFFFFFFFFFFFFFFFFFFFFFFFFFFFFFFFFFFFFF AND SWAP1 POP SWAP1 JUMP JUMPDEST PUSH0 PUSH0 PUSH20 0xFFFFFFFFFFFFFFFFFFFFFFFFFFFFFFFFFFFFFFFF AND DUP7 PUSH20 0xFFFFFFFFFFFFFFFFFFFFFFFFFFFFFFFFFFFFFFFF AND SUB PUSH2 0x10A2 JUMPI PUSH1 0x40 MLOAD PUSH32 0x8C379A000000000000000000000000000000000000000000000000000000000 DUP2 MSTORE PUSH1 0x4 ADD PUSH2 0x1099 SWAP1 PUSH2 0x25E2 JUMP JUMPDEST PUSH1 0x40 MLOAD DUP1 SWAP2 SUB SWAP1 REVERT JUMPDEST PUSH0 DUP6 GT PUSH2 0x10E4 JUMPI PUSH1 0x40 MLOAD PUSH32 0x8C379A000000000000000000000000000000000000000000000000000000000 DUP2 MSTORE PUSH1 0x4 ADD PUSH2 0x10DB SWAP1 PUSH2 0x264A JUMP JUMPDEST PUSH1 0x40 MLOAD DUP1 SWAP2 SUB SWAP1 REVERT JUMPDEST PUSH0 PUSH20 0xFFFFFFFFFFFFFFFFFFFFFFFFFFFFFFFFFFFFFFFF AND DUP5 PUSH20 0xFFFFFFFFFFFFFFFFFFFFFFFFFFFFFFFFFFFFFFFF AND SUB PUSH2 0x1152 JUMPI PUSH1 0x40 MLOAD PUSH32 0x8C379A000000000000000000000000000000000000000000000000000000000 DUP2 MSTORE PUSH1 0x4 ADD PUSH2 0x1149 SWAP1 PUSH2 0x26B2 JUMP JUMPDEST PUSH1 0x40 MLOAD DUP1 SWAP2 SUB SWAP1 REVERT JUMPDEST PUSH0 PUSH0 SHL DUP3 SUB PUSH2 0x1196 JUMPI PUSH1 0x40 MLOAD PUSH32 0x8C379A000000000000000000000000000000000000000000000000000000000 DUP2 MSTORE PUSH1 0x4 ADD PUSH2 0x118D SWAP1 PUSH2 0x271A JUMP JUMPDEST PUSH1 0x40 MLOAD DUP1 SWAP2 SUB SWAP1 REVERT JUMPDEST PUSH1 0x3C TIMESTAMP PUSH2 0x11A3 SWAP2 SWAP1 PUSH2 0x2738 JUMP JUMPDEST DUP4 LT ISZERO PUSH2 0x11E5 JUMPI PUSH1 0x40 MLOAD PUSH32 0x8C379A000000000000000000000000000000000000000000000000000000000 DUP2 MSTORE PUSH1 0x4 ADD PUSH2 0x11DC SWAP1 PUSH2 0x27B5 JUMP JUMPDEST PUSH1 0x40 MLOAD DUP1 SWAP2 SUB SWAP1 REVERT JUMPDEST PUSH0 DUP7 PUSH20 0xFFFFFFFFFFFFFFFFFFFFFFFFFFFFFFFFFFFFFFFF AND PUSH4 0x70A08231 ADDRESS PUSH1 0x40 MLOAD DUP3 PUSH4 0xFFFFFFFF AND PUSH1 0xE0 SHL DUP2 MSTORE PUSH1 0x4 ADD PUSH2 0x121F SWAP2 SWAP1 PUSH2 0x1DCA JUMP JUMPDEST PUSH1 0x20 PUSH1 0x40 MLOAD DUP1 DUP4 SUB DUP2 DUP7 GAS STATICCALL ISZERO DUP1 ISZERO PUSH2 0x123A JUMPI RETURNDATASIZE PUSH0 PUSH0 RETURNDATACOPY RETURNDATASIZE PUSH0 REVERT JUMPDEST POP POP POP POP PUSH1 0x40 MLOAD RETURNDATASIZE PUSH1 0x1F NOT PUSH1 0x1F DUP3 ADD AND DUP3 ADD DUP1 PUSH1 0x40 MSTORE POP DUP2 ADD SWAP1 PUSH2 0x125E SWAP2 SWAP1 PUSH2 0x27E7 JUMP JUMPDEST SWAP1 POP PUSH2 0x126C DUP8 CALLER ADDRESS DUP10 PUSH2 0x182E JUMP JUMPDEST PUSH0 DUP8 PUSH20 0xFFFFFFFFFFFFFFFFFFFFFFFFFFFFFFFFFFFFFFFF AND PUSH4 0x70A08231 ADDRESS PUSH1 0x40 MLOAD DUP3 PUSH4 0xFFFFFFFF AND PUSH1 0xE0 SHL DUP2 MSTORE PUSH1 0x4 ADD PUSH2 0x12A6 SWAP2 SWAP1 PUSH2 0x1DCA JUMP JUMPDEST PUSH1 0x20 PUSH1 0x40 MLOAD DUP1 DUP4 SUB DUP2 DUP7 GAS STATICCALL ISZERO DUP1 ISZERO PUSH2 0x12C1 JUMPI RETURNDATASIZE PUSH0 PUSH0 RETURNDATACOPY RETURNDATASIZE PUSH0 REVERT JUMPDEST POP POP POP POP PUSH1 0x40 MLOAD RETURNDATASIZE PUSH1 0x1F NOT PUSH1 0x1F DUP3 ADD AND DUP3 ADD DUP1 PUSH1 0x40 MSTORE POP DUP2 ADD SWAP1 PUSH2 0x12E5 SWAP2 SWAP1 PUSH2 0x27E7 JUMP JUMPDEST SWAP1 POP DUP2 DUP2 LT ISZERO PUSH2 0x132A JUMPI PUSH1 0x40 MLOAD PUSH32 0x8C379A000000000000000000000000000000000000000000000000000000000 DUP2 MSTORE PUSH1 0x4 ADD PUSH2 0x1321 SWAP1 PUSH2 0x285C JUMP JUMPDEST PUSH1 0x40 MLOAD DUP1 SWAP2 SUB SWAP1 REVERT JUMPDEST PUSH0 DUP3 DUP3 PUSH2 0x1337 SWAP2 SWAP1 PUSH2 0x2336 JUMP JUMPDEST SWAP1 POP PUSH0 DUP2 GT PUSH2 0x137B JUMPI PUSH1 0x40 MLOAD PUSH32 0x8C379A000000000000000000000000000000000000000000000000000000000 DUP2 MSTORE PUSH1 0x4 ADD PUSH2 0x1372 SWAP1 PUSH2 0x28C4 JUMP JUMPDEST PUSH1 0x40 MLOAD DUP1 SWAP2 SUB SWAP1 REVERT JUMPDEST PUSH1 0x3 SLOAD SWAP4 POP PUSH1 0x40 MLOAD DUP1 PUSH2 0x140 ADD PUSH1 0x40 MSTORE DUP1 CALLER PUSH20 0xFFFFFFFFFFFFFFFFFFFFFFFFFFFFFFFFFFFFFFFF AND DUP2 MSTORE PUSH1 0x20 ADD DUP11 PUSH20 0xFFFFFFFFFFFFFFFFFFFFFFFFFFFFFFFFFFFFFFFF AND DUP2 MSTORE PUSH1 0x20 ADD DUP10 DUP2 MSTORE PUSH1 0x20 ADD DUP3 DUP2 MSTORE PUSH1 0x20 ADD DUP9 PUSH20 0xFFFFFFFFFFFFFFFFFFFFFFFFFFFFFFFFFFFFFFFF AND DUP2 MSTORE PUSH1 0x20 ADD TIMESTAMP DUP2 MSTORE PUSH1 0x20 ADD DUP8 DUP2 MSTORE PUSH1 0x20 ADD DUP7 DUP2 MSTORE PUSH1 0x20 ADD PUSH0 ISZERO ISZERO DUP2 MSTORE PUSH1 0x20 ADD PUSH0 ISZERO ISZERO DUP2 MSTORE POP PUSH1 0x4 PUSH0 DUP7 DUP2 MSTORE PUSH1 0x20 ADD SWAP1 DUP2 MSTORE PUSH1 0x20 ADD PUSH0 KECCAK256 PUSH0 DUP3 ADD MLOAD DUP2 PUSH0 ADD PUSH0 PUSH2 0x100 EXP DUP2 SLOAD DUP2 PUSH20 0xFFFFFFFFFFFFFFFFFFFFFFFFFFFFFFFFFFFFFFFF MUL NOT AND SWAP1 DUP4 PUSH20 0xFFFFFFFFFFFFFFFFFFFFFFFFFFFFFFFFFFFFFFFF AND MUL OR SWAP1 SSTORE POP PUSH1 0x20 DUP3 ADD MLOAD DUP2 PUSH1 0x1 ADD PUSH0 PUSH2 0x100 EXP DUP2 SLOAD DUP2 PUSH20 0xFFFFFFFFFFFFFFFFFFFFFFFFFFFFFFFFFFFFFFFF MUL NOT AND SWAP1 DUP4 PUSH20 0xFFFFFFFFFFFFFFFFFFFFFFFFFFFFFFFFFFFFFFFF AND MUL OR SWAP1 SSTORE POP PUSH1 0x40 DUP3 ADD MLOAD DUP2 PUSH1 0x2 ADD SSTORE PUSH1 0x60 DUP3 ADD MLOAD DUP2 PUSH1 0x3 ADD SSTORE PUSH1 0x80 DUP3 ADD MLOAD DUP2 PUSH1 0x4 ADD PUSH0 PUSH2 0x100 EXP DUP2 SLOAD DUP2 PUSH20 0xFFFFFFFFFFFFFFFFFFFFFFFFFFFFFFFFFFFFFFFF MUL NOT AND SWAP1 DUP4 PUSH20 0xFFFFFFFFFFFFFFFFFFFFFFFFFFFFFFFFFFFFFFFF AND MUL OR SWAP1 SSTORE POP PUSH1 0xA0 DUP3 ADD MLOAD DUP2 PUSH1 0x5 ADD SSTORE PUSH1 0xC0 DUP3 ADD MLOAD DUP2 PUSH1 0x6 ADD SSTORE PUSH1 0xE0 DUP3 ADD MLOAD DUP2 PUSH1 0x7 ADD SSTORE PUSH2 0x100 DUP3 ADD MLOAD DUP2 PUSH1 0x8 ADD PUSH0 PUSH2 0x100 EXP DUP2 SLOAD DUP2 PUSH1 0xFF MUL NOT AND SWAP1 DUP4 ISZERO ISZERO MUL OR SWAP1 SSTORE POP PUSH2 0x120 DUP3 ADD MLOAD DUP2 PUSH1 0x8 ADD PUSH1 0x1 PUSH2 0x100 EXP DUP2 SLOAD DUP2 PUSH1 0xFF MUL NOT AND SWAP1 DUP4 ISZERO ISZERO MUL OR SWAP1 SSTORE POP SWAP1 POP POP PUSH1 0x1 DUP5 PUSH2 0x1570 SWAP2 SWAP1 PUSH2 0x2738 JUMP JUMPDEST PUSH1 0x3 DUP2 SWAP1 SSTORE POP DUP7 PUSH20 0xFFFFFFFFFFFFFFFFFFFFFFFFFFFFFFFFFFFFFFFF AND CALLER PUSH20 0xFFFFFFFFFFFFFFFFFFFFFFFFFFFFFFFFFFFFFFFF AND DUP6 PUSH32 0xE755FAD85D92901AA2860686122031FBCB9AACF69E6894126BD1EBB35AB08DB0 DUP13 DUP13 DUP7 DUP13 DUP13 PUSH1 0x40 MLOAD PUSH2 0x15DC SWAP6 SWAP5 SWAP4 SWAP3 SWAP2 SWAP1 PUSH2 0x28E2 JUMP JUMPDEST PUSH1 0x40 MLOAD DUP1 SWAP2 SUB SWAP1 LOG4 POP POP POP SWAP6 SWAP5 POP POP POP POP POP JUMP JUMPDEST PUSH0 PUSH0 SWAP1 SLOAD SWAP1 PUSH2 0x100 EXP SWAP1 DIV PUSH20 0xFFFFFFFFFFFFFFFFFFFFFFFFFFFFFFFFFFFFFFFF AND PUSH20 0xFFFFFFFFFFFFFFFFFFFFFFFFFFFFFFFFFFFFFFFF AND CALLER PUSH20 0xFFFFFFFFFFFFFFFFFFFFFFFFFFFFFFFFFFFFFFFF AND EQ PUSH2 0x167E JUMPI PUSH1 0x40 MLOAD PUSH32 0x8C379A000000000000000000000000000000000000000000000000000000000 DUP2 MSTORE PUSH1 0x4 ADD PUSH2 0x1675 SWAP1 PUSH2 0x24AA JUMP JUMPDEST PUSH1 0x40 MLOAD DUP1 SWAP2 SUB SWAP1 REVERT JUMPDEST PUSH0 PUSH20 0xFFFFFFFFFFFFFFFFFFFFFFFFFFFFFFFFFFFFFFFF AND DUP2 PUSH20 0xFFFFFFFFFFFFFFFFFFFFFFFFFFFFFFFFFFFFFFFF AND SUB PUSH2 0x16EC JUMPI PUSH1 0x40 MLOAD PUSH32 0x8C379A000000000000000000000000000000000000000000000000000000000 DUP2 MSTORE PUSH1 0x4 ADD PUSH2 0x16E3 SWAP1 PUSH2 0x297D JUMP JUMPDEST PUSH1 0x40 MLOAD DUP1 SWAP2 SUB SWAP1 REVERT JUMPDEST DUP1 PUSH20 0xFFFFFFFFFFFFFFFFFFFFFFFFFFFFFFFFFFFFFFFF AND PUSH0 PUSH0 SWAP1 SLOAD SWAP1 PUSH2 0x100 EXP SWAP1 DIV PUSH20 0xFFFFFFFFFFFFFFFFFFFFFFFFFFFFFFFFFFFFFFFF AND PUSH20 0xFFFFFFFFFFFFFFFFFFFFFFFFFFFFFFFFFFFFFFFF AND PUSH32 0x8BE0079C531659141344CD1FD0A4F28419497F9722A3DAAFE3B4186F6B6457E0 PUSH1 0x40 MLOAD PUSH1 0x40 MLOAD DUP1 SWAP2 SUB SWAP1 LOG3 DUP1 PUSH0 PUSH0 PUSH2 0x100 EXP DUP2 SLOAD DUP2 PUSH20 0xFFFFFFFFFFFFFFFFFFFFFFFFFFFFFFFFFFFFFFFF MUL NOT AND SWAP1 DUP4 PUSH20 0xFFFFFFFFFFFFFFFFFFFFFFFFFFFFFFFFFFFFFFFF AND MUL OR SWAP1 SSTORE POP POP JUMP JUMPDEST PUSH2 0x1829 DUP4 PUSH4 0xA9059CBB PUSH1 0xE0 SHL DUP5 DUP5 PUSH1 0x40 MLOAD PUSH1 0x24 ADD PUSH2 0x17C7 SWAP3 SWAP2 SWAP1 PUSH2 0x299B JUMP JUMPDEST PUSH1 0x40 MLOAD PUSH1 0x20 DUP2 DUP4 SUB SUB DUP2 MSTORE SWAP1 PUSH1 0x40 MSTORE SWAP1 PUSH28 0xFFFFFFFFFFFFFFFFFFFFFFFFFFFFFFFFFFFFFFFFFFFFFFFFFFFFFFFF NOT AND PUSH1 0x20 DUP3 ADD DUP1 MLOAD PUSH28 0xFFFFFFFFFFFFFFFFFFFFFFFFFFFFFFFFFFFFFFFFFFFFFFFFFFFFFFFF DUP4 DUP2 DUP4 AND OR DUP4 MSTORE POP POP POP POP PUSH2 0x18B7 JUMP JUMPDEST POP POP POP JUMP JUMPDEST PUSH2 0x18B1 DUP5 PUSH4 0x23B872DD PUSH1 0xE0 SHL DUP6 DUP6 DUP6 PUSH1 0x40 MLOAD PUSH1 0x24 ADD PUSH2 0x184F SWAP4 SWAP3 SWAP2 SWAP1 PUSH2 0x29C2 JUMP JUMPDEST PUSH1 0x40 MLOAD PUSH1 0x20 DUP2 DUP4 SUB SUB DUP2 MSTORE SWAP1 PUSH1 0x40 MSTORE SWAP1 PUSH28 0xFFFFFFFFFFFFFFFFFFFFFFFFFFFFFFFFFFFFFFFFFFFFFFFFFFFFFFFF NOT AND PUSH1 0x20 DUP3 ADD DUP1 MLOAD PUSH28 0xFFFFFFFFFFFFFFFFFFFFFFFFFFFFFFFFFFFFFFFFFFFFFFFFFFFFFFFF DUP4 DUP2 DUP4 AND OR DUP4 MSTORE POP POP POP POP PUSH2 0x18B7 JUMP JUMPDEST POP POP POP POP JUMP JUMPDEST PUSH0 PUSH0 DUP4 PUSH20 0xFFFFFFFFFFFFFFFFFFFFFFFFFFFFFFFFFFFFFFFF AND DUP4 PUSH1 0x40 MLOAD PUSH2 0x18DE SWAP2 SWAP1 PUSH2 0x2A3F JUMP JUMPDEST PUSH0 PUSH1 0x40 MLOAD DUP1 DUP4 SUB DUP2 PUSH0 DUP7 GAS CALL SWAP2 POP POP RETURNDATASIZE DUP1 PUSH0 DUP2 EQ PUSH2 0x1917 JUMPI PUSH1 0x40 MLOAD SWAP2 POP PUSH1 0x1F NOT PUSH1 0x3F RETURNDATASIZE ADD AND DUP3 ADD PUSH1 0x40 MSTORE RETURNDATASIZE DUP3 MSTORE RETURNDATASIZE PUSH0 PUSH1 0x20 DUP5 ADD RETURNDATACOPY PUSH2 0x191C JUMP JUMPDEST PUSH1 0x60 SWAP2 POP JUMPDEST POP SWAP2 POP SWAP2 POP DUP2 PUSH2 0x1961 JUMPI PUSH1 0x40 MLOAD PUSH32 0x8C379A000000000000000000000000000000000000000000000000000000000 DUP2 MSTORE PUSH1 0x4 ADD PUSH2 0x1958 SWAP1 PUSH2 0x2A9F JUMP JUMPDEST PUSH1 0x40 MLOAD DUP1 SWAP2 SUB SWAP1 REVERT JUMPDEST PUSH0 DUP2 MLOAD GT ISZERO PUSH2 0x19BE JUMPI DUP1 DUP1 PUSH1 0x20 ADD SWAP1 MLOAD DUP2 ADD SWAP1 PUSH2 0x197E SWAP2 SWAP1 PUSH2 0x2AE7 JUMP JUMPDEST PUSH2 0x19BD JUMPI PUSH1 0x40 MLOAD PUSH32 0x8C379A000000000000000000000000000000000000000000000000000000000 DUP2 MSTORE PUSH1 0x4 ADD PUSH2 0x19B4 SWAP1 PUSH2 0x2B5C JUMP JUMPDEST PUSH1 0x40 MLOAD DUP1 SWAP2 SUB SWAP1 REVERT JUMPDEST JUMPDEST POP POP POP POP JUMP JUMPDEST PUSH1 0x40 MLOAD DUP1 PUSH2 0x140 ADD PUSH1 0x40 MSTORE DUP1 PUSH0 PUSH20 0xFFFFFFFFFFFFFFFFFFFFFFFFFFFFFFFFFFFFFFFF AND DUP2 MSTORE PUSH1 0x20 ADD PUSH0 PUSH20 0xFFFFFFFFFFFFFFFFFFFFFFFFFFFFFFFFFFFFFFFF AND DUP2 MSTORE PUSH1 0x20 ADD PUSH0 DUP2 MSTORE PUSH1 0x20 ADD PUSH0 DUP2 MSTORE PUSH1 0x20 ADD PUSH0 PUSH20 0xFFFFFFFFFFFFFFFFFFFFFFFFFFFFFFFFFFFFFFFF AND DUP2 MSTORE PUSH1 0x20 ADD PUSH0 DUP2 MSTORE PUSH1 0x20 ADD PUSH0 DUP2 MSTORE PUSH1 0x20 ADD PUSH0 DUP2 MSTORE PUSH1 0x20 ADD PUSH0 ISZERO ISZERO DUP2 MSTORE PUSH1 0x20 ADD PUSH0 ISZERO ISZERO DUP2 MSTORE POP SWAP1 JUMP JUMPDEST PUSH0 DUP2 SWAP1 POP SWAP2 SWAP1 POP JUMP JUMPDEST PUSH2 0x1A65 DUP2 PUSH2 0x1A53 JUMP JUMPDEST DUP3 MSTORE POP POP JUMP JUMPDEST PUSH0 PUSH1 0x20 DUP3 ADD SWAP1 POP PUSH2 0x1A7E PUSH0 DUP4 ADD DUP5 PUSH2 0x1A5C JUMP JUMPDEST SWAP3 SWAP2 POP POP JUMP JUMPDEST PUSH0 PUSH0 REVERT JUMPDEST PUSH0 PUSH0 REVERT JUMPDEST PUSH2 0x1A95 DUP2 PUSH2 0x1A53 JUMP JUMPDEST DUP2 EQ PUSH2 0x1A9F JUMPI PUSH0 PUSH0 REVERT JUMPDEST POP JUMP JUMPDEST PUSH0 DUP2 CALLDATALOAD SWAP1 POP PUSH2 0x1AB0 DUP2 PUSH2 0x1A8C JUMP JUMPDEST SWAP3 SWAP2 POP POP JUMP JUMPDEST PUSH0 PUSH0 REVERT JUMPDEST PUSH0 PUSH0 REVERT JUMPDEST PUSH0 PUSH0 REVERT JUMPDEST PUSH0 PUSH0 DUP4 PUSH1 0x1F DUP5 ADD SLT PUSH2 0x1AD7 JUMPI PUSH2 0x1AD6 PUSH2 0x1AB6 JUMP JUMPDEST JUMPDEST DUP3 CALLDATALOAD SWAP1 POP PUSH8 0xFFFFFFFFFFFFFFFF DUP2 GT ISZERO PUSH2 0x1AF4 JUMPI PUSH2 0x1AF3 PUSH2 0x1ABA JUMP JUMPDEST JUMPDEST PUSH1 0x20 DUP4 ADD SWAP2 POP DUP4 PUSH1 0x1 DUP3 MUL DUP4 ADD GT ISZERO PUSH2 0x1B10 JUMPI PUSH2 0x1B0F PUSH2 0x1ABE JUMP JUMPDEST JUMPDEST SWAP3 POP SWAP3 SWAP1 POP JUMP JUMPDEST PUSH0 PUSH0 PUSH0 PUSH1 0x40 DUP5 DUP7 SUB SLT ISZERO PUSH2 0x1B2E JUMPI PUSH2 0x1B2D PUSH2 0x1A84 JUMP JUMPDEST JUMPDEST PUSH0 PUSH2 0x1B3B DUP7 DUP3 DUP8 ADD PUSH2 0x1AA2 JUMP JUMPDEST SWAP4 POP POP PUSH1 0x20 DUP5 ADD CALLDATALOAD PUSH8 0xFFFFFFFFFFFFFFFF DUP2 GT ISZERO PUSH2 0x1B5C JUMPI PUSH2 0x1B5B PUSH2 0x1A88 JUMP JUMPDEST JUMPDEST PUSH2 0x1B68 DUP7 DUP3 DUP8 ADD PUSH2 0x1AC2 JUMP JUMPDEST SWAP3 POP SWAP3 POP POP SWAP3 POP SWAP3 POP SWAP3 JUMP JUMPDEST PUSH0 PUSH1 0x20 DUP3 DUP5 SUB SLT ISZERO PUSH2 0x1B89 JUMPI PUSH2 0x1B88 PUSH2 0x1A84 JUMP JUMPDEST JUMPDEST PUSH0 PUSH2 0x1B96 DUP5 DUP3 DUP6 ADD PUSH2 0x1AA2 JUMP JUMPDEST SWAP2 POP POP SWAP3 SWAP2 POP POP JUMP JUMPDEST PUSH0 PUSH20 0xFFFFFFFFFFFFFFFFFFFFFFFFFFFFFFFFFFFFFFFF DUP3 AND SWAP1 POP SWAP2 SWAP1 POP JUMP JUMPDEST PUSH0 PUSH2 0x1BC8 DUP3 PUSH2 0x1B9F JUMP JUMPDEST SWAP1 POP SWAP2 SWAP1 POP JUMP JUMPDEST PUSH2 0x1BD8 DUP2 PUSH2 0x1BBE JUMP JUMPDEST DUP3 MSTORE POP POP JUMP JUMPDEST PUSH2 0x1BE7 DUP2 PUSH2 0x1A53 JUMP JUMPDEST DUP3 MSTORE POP POP JUMP JUMPDEST PUSH0 DUP2 SWAP1 POP SWAP2 SWAP1 POP JUMP JUMPDEST PUSH2 0x1BFF DUP2 PUSH2 0x1BED JUMP JUMPDEST DUP3 MSTORE POP POP JUMP JUMPDEST PUSH0 DUP2 ISZERO ISZERO SWAP1 POP SWAP2 SWAP1 POP JUMP JUMPDEST PUSH2 0x1C19 DUP2 PUSH2 0x1C05 JUMP JUMPDEST DUP3 MSTORE POP POP JUMP JUMPDEST PUSH2 0x140 DUP3 ADD PUSH0 DUP3 ADD MLOAD PUSH2 0x1C34 PUSH0 DUP6 ADD DUP3 PUSH2 0x1BCF JUMP JUMPDEST POP PUSH1 0x20 DUP3 ADD MLOAD PUSH2 0x1C47 PUSH1 0x20 DUP6 ADD DUP3 PUSH2 0x1BCF JUMP JUMPDEST POP PUSH1 0x40 DUP3 ADD MLOAD PUSH2 0x1C5A PUSH1 0x40 DUP6 ADD DUP3 PUSH2 0x1BDE JUMP JUMPDEST POP PUSH1 0x60 DUP3 ADD MLOAD PUSH2 0x1C6D PUSH1 0x60 DUP6 ADD DUP3 PUSH2 0x1BDE JUMP JUMPDEST POP PUSH1 0x80 DUP3 ADD MLOAD PUSH2 0x1C80 PUSH1 0x80 DUP6 ADD DUP3 PUSH2 0x1BCF JUMP JUMPDEST POP PUSH1 0xA0 DUP3 ADD MLOAD PUSH2 0x1C93 PUSH1 0xA0 DUP6 ADD DUP3 PUSH2 0x1BDE JUMP JUMPDEST POP PUSH1 0xC0 DUP3 ADD MLOAD PUSH2 0x1CA6 PUSH1 0xC0 DUP6 ADD DUP3 PUSH2 0x1BDE JUMP JUMPDEST POP PUSH1 0xE0 DUP3 ADD MLOAD PUSH2 0x1CB9 PUSH1 0xE0 DUP6 ADD DUP3 PUSH2 0x1BF6 JUMP JUMPDEST POP PUSH2 0x100 DUP3 ADD MLOAD PUSH2 0x1CCE PUSH2 0x100 DUP6 ADD DUP3 PUSH2 0x1C10 JUMP JUMPDEST POP PUSH2 0x120 DUP3 ADD MLOAD PUSH2 0x1CE3 PUSH2 0x120 DUP6 ADD DUP3 PUSH2 0x1C10 JUMP JUMPDEST POP POP POP POP JUMP JUMPDEST PUSH0 PUSH2 0x140 DUP3 ADD SWAP1 POP PUSH2 0x1CFD PUSH0 DUP4 ADD DUP5 PUSH2 0x1C1F JUMP JUMPDEST SWAP3 SWAP2 POP POP JUMP JUMPDEST PUSH2 0x1D0C DUP2 PUSH2 0x1BBE JUMP JUMPDEST DUP3 MSTORE POP POP JUMP JUMPDEST PUSH2 0x1D1B DUP2 PUSH2 0x1BED JUMP JUMPDEST DUP3 MSTORE POP POP JUMP JUMPDEST PUSH2 0x1D2A DUP2 PUSH2 0x1C05 JUMP JUMPDEST DUP3 MSTORE POP POP JUMP JUMPDEST PUSH0 PUSH2 0x140 DUP3 ADD SWAP1 POP PUSH2 0x1D44 PUSH0 DUP4 ADD DUP14 PUSH2 0x1D03 JUMP JUMPDEST PUSH2 0x1D51 PUSH1 0x20 DUP4 ADD DUP13 PUSH2 0x1D03 JUMP JUMPDEST PUSH2 0x1D5E PUSH1 0x40 DUP4 ADD DUP12 PUSH2 0x1A5C JUMP JUMPDEST PUSH2 0x1D6B PUSH1 0x60 DUP4 ADD DUP11 PUSH2 0x1A5C JUMP JUMPDEST PUSH2 0x1D78 PUSH1 0x80 DUP4 ADD DUP10 PUSH2 0x1D03 JUMP JUMPDEST PUSH2 0x1D85 PUSH1 0xA0 DUP4 ADD DUP9 PUSH2 0x1A5C JUMP JUMPDEST PUSH2 0x1D92 PUSH1 0xC0 DUP4 ADD DUP8 PUSH2 0x1A5C JUMP JUMPDEST PUSH2 0x1D9F PUSH1 0xE0 DUP4 ADD DUP7 PUSH2 0x1D12 JUMP JUMPDEST PUSH2 0x1DAD PUSH2 0x100 DUP4 ADD DUP6 PUSH2 0x1D21 JUMP JUMPDEST PUSH2 0x1DBB PUSH2 0x120 DUP4 ADD DUP5 PUSH2 0x1D21 JUMP JUMPDEST SWAP12 SWAP11 POP POP POP POP POP POP POP POP POP POP POP JUMP JUMPDEST PUSH0 PUSH1 0x20 DUP3 ADD SWAP1 POP PUSH2 0x1DDD PUSH0 DUP4 ADD DUP5 PUSH2 0x1D03 JUMP JUMPDEST SWAP3 SWAP2 POP POP JUMP JUMPDEST PUSH2 0x1DEC DUP2 PUSH2 0x1BBE JUMP JUMPDEST DUP2 EQ PUSH2 0x1DF6 JUMPI PUSH0 PUSH0 REVERT JUMPDEST POP JUMP JUMPDEST PUSH0 DUP2 CALLDATALOAD SWAP1 POP PUSH2 0x1E07 DUP2 PUSH2 0x1DE3 JUMP JUMPDEST SWAP3 SWAP2 POP POP JUMP JUMPDEST PUSH2 0x1E16 DUP2 PUSH2 0x1BED JUMP JUMPDEST DUP2 EQ PUSH2 0x1E20 JUMPI PUSH0 PUSH0 REVERT JUMPDEST POP JUMP JUMPDEST PUSH0 DUP2 CALLDATALOAD SWAP1 POP PUSH2 0x1E31 DUP2 PUSH2 0x1E0D JUMP JUMPDEST SWAP3 SWAP2 POP POP JUMP JUMPDEST PUSH0 PUSH0 PUSH0 PUSH0 PUSH0 PUSH1 0xA0 DUP7 DUP9 SUB SLT ISZERO PUSH2 0x1E50 JUMPI PUSH2 0x1E4F PUSH2 0x1A84 JUMP JUMPDEST JUMPDEST PUSH0 PUSH2 0x1E5D DUP9 DUP3 DUP10 ADD PUSH2 0x1DF9 JUMP JUMPDEST SWAP6 POP POP PUSH1 0x20 PUSH2 0x1E6E DUP9 DUP3 DUP10 ADD PUSH2 0x1AA2 JUMP JUMPDEST SWAP5 POP POP PUSH1 0x40 PUSH2 0x1E7F DUP9 DUP3 DUP10 ADD PUSH2 0x1DF9 JUMP JUMPDEST SWAP4 POP POP PUSH1 0x60 PUSH2 0x1E90 DUP9 DUP3 DUP10 ADD PUSH2 0x1AA2 JUMP JUMPDEST SWAP3 POP POP PUSH1 0x80 PUSH2 0x1EA1 DUP9 DUP3 DUP10 ADD PUSH2 0x1E23 JUMP JUMPDEST SWAP2 POP POP SWAP3 SWAP6 POP SWAP3 SWAP6 SWAP1 SWAP4 POP JUMP JUMPDEST PUSH0 PUSH1 0x20 DUP3 DUP5 SUB SLT ISZERO PUSH2 0x1EC3 JUMPI PUSH2 0x1EC2 PUSH2 0x1A84 JUMP JUMPDEST JUMPDEST PUSH0 PUSH2 0x1ED0 DUP5 DUP3 DUP6 ADD PUSH2 0x1DF9 JUMP JUMPDEST SWAP2 POP POP SWAP3 SWAP2 POP POP JUMP JUMPDEST PUSH0 DUP3 DUP3 MSTORE PUSH1 0x20 DUP3 ADD SWAP1 POP SWAP3 SWAP2 POP POP JUMP JUMPDEST PUSH32 0x7265656E7472616E740000000000000000000000000000000000000000000000 PUSH0 DUP3 ADD MSTORE POP JUMP JUMPDEST PUSH0 PUSH2 0x1F1D PUSH1 0x9 DUP4 PUSH2 0x1ED9 JUMP JUMPDEST SWAP2 POP PUSH2 0x1F28 DUP3 PUSH2 0x1EE9 JUMP JUMPDEST PUSH1 0x20 DUP3 ADD SWAP1 POP SWAP2 SWAP1 POP JUMP JUMPDEST PUSH0 PUSH1 0x20 DUP3 ADD SWAP1 POP DUP2 DUP2 SUB PUSH0 DUP4 ADD MSTORE PUSH2 0x1F4A DUP2 PUSH2 0x1F11 JUMP JUMPDEST SWAP1 POP SWAP2 SWAP1 POP JUMP JUMPDEST PUSH32 0x6E6F7420666F756E64206F72207A65726F000000000000000000000000000000 PUSH0 DUP3 ADD MSTORE POP JUMP JUMPDEST PUSH0 PUSH2 0x1F85 PUSH1 0x11 DUP4 PUSH2 0x1ED9 JUMP JUMPDEST SWAP2 POP PUSH2 0x1F90 DUP3 PUSH2 0x1F51 JUMP JUMPDEST PUSH1 0x20 DUP3 ADD SWAP1 POP SWAP2 SWAP1 POP JUMP JUMPDEST PUSH0 PUSH1 0x20 DUP3 ADD SWAP1 POP DUP2 DUP2 SUB PUSH0 DUP4 ADD MSTORE PUSH2 0x1FB2 DUP2 PUSH2 0x1F79 JUMP JUMPDEST SWAP1 POP SWAP2 SWAP1 POP JUMP JUMPDEST PUSH32 0x616C726561647920636C61696D65640000000000000000000000000000000000 PUSH0 DUP3 ADD MSTORE POP JUMP JUMPDEST PUSH0 PUSH2 0x1FED PUSH1 0xF DUP4 PUSH2 0x1ED9 JUMP JUMPDEST SWAP2 POP PUSH2 0x1FF8 DUP3 PUSH2 0x1FB9 JUMP JUMPDEST PUSH1 0x20 DUP3 ADD SWAP1 POP SWAP2 SWAP1 POP JUMP JUMPDEST PUSH0 PUSH1 0x20 DUP3 ADD SWAP1 POP DUP2 DUP2 SUB PUSH0 DUP4 ADD MSTORE PUSH2 0x201A DUP2 PUSH2 0x1FE1 JUMP JUMPDEST SWAP1 POP SWAP2 SWAP1 POP JUMP JUMPDEST PUSH32 0x616C726561647920726566756E64656400000000000000000000000000000000 PUSH0 DUP3 ADD MSTORE POP JUMP JUMPDEST PUSH0 PUSH2 0x2055 PUSH1 0x10 DUP4 PUSH2 0x1ED9 JUMP JUMPDEST SWAP2 POP PUSH2 0x2060 DUP3 PUSH2 0x2021 JUMP JUMPDEST PUSH1 0x20 DUP3 ADD SWAP1 POP SWAP2 SWAP1 POP JUMP JUMPDEST PUSH0 PUSH1 0x20 DUP3 ADD SWAP1 POP DUP2 DUP2 SUB PUSH0 DUP4 ADD MSTORE PUSH2 0x2082 DUP2 PUSH2 0x2049 JUMP JUMPDEST SWAP1 POP SWAP2 SWAP1 POP JUMP JUMPDEST PUSH32 0x7061737420646561646C696E6500000000000000000000000000000000000000 PUSH0 DUP3 ADD MSTORE POP JUMP JUMPDEST PUSH0 PUSH2 0x20BD PUSH1 0xD DUP4 PUSH2 0x1ED9 JUMP JUMPDEST SWAP2 POP PUSH2 0x20C8 DUP3 PUSH2 0x2089 JUMP JUMPDEST PUSH1 0x20 DUP3 ADD SWAP1 POP SWAP2 SWAP1 POP JUMP JUMPDEST PUSH0 PUSH1 0x20 DUP3 ADD SWAP1 POP DUP2 DUP2 SUB PUSH0 DUP4 ADD MSTORE PUSH2 0x20EA DUP2 PUSH2 0x20B1 JUMP JUMPDEST SWAP1 POP SWAP2 SWAP1 POP JUMP JUMPDEST PUSH32 0x6E6F7420726563697069656E7400000000000000000000000000000000000000 PUSH0 DUP3 ADD MSTORE POP JUMP JUMPDEST PUSH0 PUSH2 0x2125 PUSH1 0xD DUP4 PUSH2 0x1ED9 JUMP JUMPDEST SWAP2 POP PUSH2 0x2130 DUP3 PUSH2 0x20F1 JUMP JUMPDEST PUSH1 0x20 DUP3 ADD SWAP1 POP SWAP2 SWAP1 POP JUMP JUMPDEST PUSH0 PUSH1 0x20 DUP3 ADD SWAP1 POP DUP2 DUP2 SUB PUSH0 DUP4 ADD MSTORE PUSH2 0x2152 DUP2 PUSH2 0x2119 JUMP JUMPDEST SWAP1 POP SWAP2 SWAP1 POP JUMP JUMPDEST PUSH0 DUP2 SWAP1 POP SWAP3 SWAP2 POP POP JUMP JUMPDEST DUP3 DUP2 DUP4 CALLDATACOPY PUSH0 DUP4 DUP4 ADD MSTORE POP POP POP JUMP JUMPDEST PUSH0 PUSH2 0x217C DUP4 DUP6 PUSH2 0x2159 JUMP JUMPDEST SWAP4 POP PUSH2 0x2189 DUP4 DUP6 DUP5 PUSH2 0x2163 JUMP JUMPDEST DUP3 DUP5 ADD SWAP1 POP SWAP4 SWAP3 POP POP POP JUMP JUMPDEST PUSH0 DUP2 PUSH1 0x60 SHL SWAP1 POP SWAP2 SWAP1 POP JUMP JUMPDEST PUSH0 PUSH2 0x21AB DUP3 PUSH2 0x2195 JUMP JUMPDEST SWAP1 POP SWAP2 SWAP1 POP JUMP JUMPDEST PUSH0 PUSH2 0x21BC DUP3 PUSH2 0x21A1 JUMP JUMPDEST SWAP1 POP SWAP2 SWAP1 POP JUMP JUMPDEST PUSH2 0x21D4 PUSH2 0x21CF DUP3 PUSH2 0x1BBE JUMP JUMPDEST PUSH2 0x21B2 JUMP JUMPDEST DUP3 MSTORE POP POP JUMP JUMPDEST PUSH0 PUSH2 0x21E6 DUP3 DUP6 DUP8 PUSH2 0x2171 JUMP JUMPDEST SWAP2 POP PUSH2 0x21F2 DUP3 DUP5 PUSH2 0x21C3 JUMP JUMPDEST PUSH1 0x14 DUP3 ADD SWAP2 POP DUP2 SWAP1 POP SWAP5 SWAP4 POP POP POP POP JUMP JUMPDEST PUSH32 0x696E76616C696420736563726574000000000000000000000000000000000000 PUSH0 DUP3 ADD MSTORE POP JUMP JUMPDEST PUSH0 PUSH2 0x2237 PUSH1 0xE DUP4 PUSH2 0x1ED9 JUMP JUMPDEST SWAP2 POP PUSH2 0x2242 DUP3 PUSH2 0x2203 JUMP JUMPDEST PUSH1 0x20 DUP3 ADD SWAP1 POP SWAP2 SWAP1 POP JUMP JUMPDEST PUSH0 PUSH1 0x20 DUP3 ADD SWAP1 POP DUP2 DUP2 SUB PUSH0 DUP4 ADD MSTORE PUSH2 0x2264 DUP2 PUSH2 0x222B JUMP JUMPDEST SWAP1 POP SWAP2 SWAP1 POP JUMP JUMPDEST PUSH32 0x4E487B7100000000000000000000000000000000000000000000000000000000 PUSH0 MSTORE PUSH1 0x11 PUSH1 0x4 MSTORE PUSH1 0x24 PUSH0 REVERT JUMPDEST PUSH0 PUSH2 0x22A2 DUP3 PUSH2 0x1A53 JUMP JUMPDEST SWAP2 POP PUSH2 0x22AD DUP4 PUSH2 0x1A53 JUMP JUMPDEST SWAP3 POP DUP3 DUP3 MUL PUSH2 0x22BB DUP2 PUSH2 0x1A53 JUMP JUMPDEST SWAP2 POP DUP3 DUP3 DIV DUP5 EQ DUP4 ISZERO OR PUSH2 0x22D2 JUMPI PUSH2 0x22D1 PUSH2 0x226B JUMP JUMPDEST JUMPDEST POP SWAP3 SWAP2 POP POP JUMP JUMPDEST PUSH32 0x4E487B7100000000000000000000000000000000000000000000000000000000 PUSH0 MSTORE PUSH1 0x12 PUSH1 0x4 MSTORE PUSH1 0x24 PUSH0 REVERT JUMPDEST PUSH0 PUSH2 0x2310 DUP3 PUSH2 0x1A53 JUMP JUMPDEST SWAP2 POP PUSH2 0x231B DUP4 PUSH2 0x1A53 JUMP JUMPDEST SWAP3 POP DUP3 PUSH2 0x232B JUMPI PUSH2 0x232A PUSH2 0x22D9 JUMP JUMPDEST JUMPDEST DUP3 DUP3 DIV SWAP1 POP SWAP3 SWAP2 POP POP JUMP JUMPDEST PUSH0 PUSH2 0x2340 DUP3 PUSH2 0x1A53 JUMP JUMPDEST SWAP2 POP PUSH2 0x234B DUP4 PUSH2 0x1A53 JUMP JUMPDEST SWAP3 POP DUP3 DUP3 SUB SWAP1 POP DUP2 DUP2 GT ISZERO PUSH2 0x2363 JUMPI PUSH2 0x2362 PUSH2 0x226B JUMP JUMPDEST JUMPDEST SWAP3 SWAP2 POP POP JUMP JUMPDEST PUSH0 PUSH1 0x40 DUP3 ADD SWAP1 POP PUSH2 0x237C PUSH0 DUP4 ADD DUP6 PUSH2 0x1A5C JUMP JUMPDEST PUSH2 0x2389 PUSH1 0x20 DUP4 ADD DUP5 PUSH2 0x1A5C JUMP JUMPDEST SWAP4 SWAP3 POP POP POP JUMP JUMPDEST PUSH32 0x6E6F742065787069726564000000000000000000000000000000000000000000 PUSH0 DUP3 ADD MSTORE POP JUMP JUMPDEST PUSH0 PUSH2 0x23C4 PUSH1 0xB DUP4 PUSH2 0x1ED9 JUMP JUMPDEST SWAP2 POP PUSH2 0x23CF DUP3 PUSH2 0x2390 JUMP JUMPDEST PUSH1 0x20 DUP3 ADD SWAP1 POP SWAP2 SWAP1 POP JUMP JUMPDEST PUSH0 PUSH1 0x20 DUP3 ADD SWAP1 POP DUP2 DUP2 SUB PUSH0 DUP4 ADD MSTORE PUSH2 0x23F1 DUP2 PUSH2 0x23B8 JUMP JUMPDEST SWAP1 POP SWAP2 SWAP1 POP JUMP JUMPDEST PUSH32 0x6E6F742073656E64657200000000000000000000000000000000000000000000 PUSH0 DUP3 ADD MSTORE POP JUMP JUMPDEST PUSH0 PUSH2 0x242C PUSH1 0xA DUP4 PUSH2 0x1ED9 JUMP JUMPDEST SWAP2 POP PUSH2 0x2437 DUP3 PUSH2 0x23F8 JUMP JUMPDEST PUSH1 0x20 DUP3 ADD SWAP1 POP SWAP2 SWAP1 POP JUMP JUMPDEST PUSH0 PUSH1 0x20 DUP3 ADD SWAP1 POP DUP2 DUP2 SUB PUSH0 DUP4 ADD MSTORE PUSH2 0x2459 DUP2 PUSH2 0x2420 JUMP JUMPDEST SWAP1 POP SWAP2 SWAP1 POP JUMP JUMPDEST PUSH32 0x6F6E6C79206F776E657200000000000000000000000000000000000000000000 PUSH0 DUP3 ADD MSTORE POP JUMP JUMPDEST PUSH0 PUSH2 0x2494 PUSH1 0xA DUP4 PUSH2 0x1ED9 JUMP JUMPDEST SWAP2 POP PUSH2 0x249F DUP3 PUSH2 0x2460 JUMP JUMPDEST PUSH1 0x20 DUP3 ADD SWAP1 POP SWAP2 SWAP1 POP JUMP JUMPDEST PUSH0 PUSH1 0x20 DUP3 ADD SWAP1 POP DUP2 DUP2 SUB PUSH0 DUP4 ADD MSTORE PUSH2 0x24C1 DUP2 PUSH2 0x2488 JUMP JUMPDEST SWAP1 POP SWAP2 SWAP1 POP JUMP JUMPDEST PUSH32 0x6665654270733C3D313030303000000000000000000000000000000000000000 PUSH0 DUP3 ADD MSTORE POP JUMP JUMPDEST PUSH0 PUSH2 0x24FC PUSH1 0xD DUP4 PUSH2 0x1ED9 JUMP JUMPDEST SWAP2 POP PUSH2 0x2507 DUP3 PUSH2 0x24C8 JUMP JUMPDEST PUSH1 0x20 DUP3 ADD SWAP1 POP SWAP2 SWAP1 POP JUMP JUMPDEST PUSH0 PUSH1 0x20 DUP3 ADD SWAP1 POP DUP2 DUP2 SUB PUSH0 DUP4 ADD MSTORE PUSH2 0x2529 DUP2 PUSH2 0x24F0 JUMP JUMPDEST SWAP1 POP SWAP2 SWAP1 POP JUMP JUMPDEST PUSH32 0x696E73756666696369656E74206E617469766500000000000000000000000000 PUSH0 DUP3 ADD MSTORE POP JUMP JUMPDEST PUSH0 PUSH2 0x2564 PUSH1 0x13 DUP4 PUSH2 0x1ED9 JUMP JUMPDEST SWAP2 POP PUSH2 0x256F DUP3 PUSH2 0x2530 JUMP JUMPDEST PUSH1 0x20 DUP3 ADD SWAP1 POP SWAP2 SWAP1 POP JUMP JUMPDEST PUSH0 PUSH1 0x20 DUP3 ADD SWAP1 POP DUP2 DUP2 SUB PUSH0 DUP4 ADD MSTORE PUSH2 0x2591 DUP2 PUSH2 0x2558 JUMP JUMPDEST SWAP1 POP SWAP2 SWAP1 POP JUMP JUMPDEST PUSH32 0x746F6B656E207A65726F00000000000000000000000000000000000000000000 PUSH0 DUP3 ADD MSTORE POP JUMP JUMPDEST PUSH0 PUSH2 0x25CC PUSH1 0xA DUP4 PUSH2 0x1ED9 JUMP JUMPDEST SWAP2 POP PUSH2 0x25D7 DUP3 PUSH2 0x2598 JUMP JUMPDEST PUSH1 0x20 DUP3 ADD SWAP1 POP SWAP2 SWAP1 POP JUMP JUMPDEST PUSH0 PUSH1 0x20 DUP3 ADD SWAP1 POP DUP2 DUP2 SUB PUSH0 DUP4 ADD MSTORE PUSH2 0x25F9 DUP2 PUSH2 0x25C0 JUMP JUMPDEST SWAP1 POP SWAP2 SWAP1 POP JUMP JUMPDEST PUSH32 0x616D6F756E743E30000000000000000000000000000000000000000000000000 PUSH0 DUP3 ADD MSTORE POP JUMP JUMPDEST PUSH0 PUSH2 0x2634 PUSH1 0x8 DUP4 PUSH2 0x1ED9 JUMP JUMPDEST SWAP2 POP PUSH2 0x263F DUP3 PUSH2 0x2600 JUMP JUMPDEST PUSH1 0x20 DUP3 ADD SWAP1 POP SWAP2 SWAP1 POP JUMP JUMPDEST PUSH0 PUSH1 0x20 DUP3 ADD SWAP1 POP DUP2 DUP2 SUB PUSH0 DUP4 ADD MSTORE PUSH2 0x2661 DUP2 PUSH2 0x2628 JUMP JUMPDEST SWAP1 POP SWAP2 SWAP1 POP JUMP JUMPDEST PUSH32 0x726563697069656E74207A65726F000000000000000000000000000000000000 PUSH0 DUP3 ADD MSTORE POP JUMP JUMPDEST PUSH0 PUSH2 0x269C PUSH1 0xE DUP4 PUSH2 0x1ED9 JUMP JUMPDEST SWAP2 POP PUSH2 0x26A7 DUP3 PUSH2 0x2668 JUMP JUMPDEST PUSH1 0x20 DUP3 ADD SWAP1 POP SWAP2 SWAP1 POP JUMP JUMPDEST PUSH0 PUSH1 0x20 DUP3 ADD SWAP1 POP DUP2 DUP2 SUB PUSH0 DUP4 ADD MSTORE PUSH2 0x26C9 DUP2 PUSH2 0x2690 JUMP JUMPDEST SWAP1 POP SWAP2 SWAP1 POP JUMP JUMPDEST PUSH32 0x73656372657448617368207A65726F0000000000000000000000000000000000 PUSH0 DUP3 ADD MSTORE POP JUMP JUMPDEST PUSH0 PUSH2 0x2704 PUSH1 0xF DUP4 PUSH2 0x1ED9 JUMP JUMPDEST SWAP2 POP PUSH2 0x270F DUP3 PUSH2 0x26D0 JUMP JUMPDEST PUSH1 0x20 DUP3 ADD SWAP1 POP SWAP2 SWAP1 POP JUMP JUMPDEST PUSH0 PUSH1 0x20 DUP3 ADD SWAP1 POP DUP2 DUP2 SUB PUSH0 DUP4 ADD MSTORE PUSH2 0x2731 DUP2 PUSH2 0x26F8 JUMP JUMPDEST SWAP1 POP SWAP2 SWAP1 POP JUMP JUMPDEST PUSH0 PUSH2 0x2742 DUP3 PUSH2 0x1A53 JUMP JUMPDEST SWAP2 POP PUSH2 0x274D DUP4 PUSH2 0x1A53 JUMP JUMPDEST SWAP3 POP DUP3 DUP3 ADD SWAP1 POP DUP1 DUP3 GT ISZERO PUSH2 0x2765 JUMPI PUSH2 0x2764 PUSH2 0x226B JUMP JUMPDEST JUMPDEST SWAP3 SWAP2 POP POP JUMP JUMPDEST PUSH32 0x646561646C696E6520746F6F20736F6F6E000000000000000000000000000000 PUSH0 DUP3 ADD MSTORE POP JUMP JUMPDEST PUSH0 PUSH2 0x279F PUSH1 0x11 DUP4 PUSH2 0x1ED9 JUMP JUMPDEST SWAP2 POP PUSH2 0x27AA DUP3 PUSH2 0x276B JUMP JUMPDEST PUSH1 0x20 DUP3 ADD SWAP1 POP SWAP2 SWAP1 POP JUMP JUMPDEST PUSH0 PUSH1 0x20 DUP3 ADD SWAP1 POP DUP2 DUP2 SUB PUSH0 DUP4 ADD MSTORE PUSH2 0x27CC DUP2 PUSH2 0x2793 JUMP JUMPDEST SWAP1 POP SWAP2 SWAP1 POP JUMP JUMPDEST PUSH0 DUP2 MLOAD SWAP1 POP PUSH2 0x27E1 DUP2 PUSH2 0x1A8C JUMP JUMPDEST SWAP3 SWAP2 POP POP JUMP JUMPDEST PUSH0 PUSH1 0x20 DUP3 DUP5 SUB SLT ISZERO PUSH2 0x27FC JUMPI PUSH2 0x27FB PUSH2 0x1A84 JUMP JUMPDEST JUMPDEST PUSH0 PUSH2 0x2809 DUP5 DUP3 DUP6 ADD PUSH2 0x27D3 JUMP JUMPDEST SWAP2 POP POP SWAP3 SWAP2 POP POP JUMP JUMPDEST PUSH32 0x62616C616E6365206166746572203C206265666F726500000000000000000000 PUSH0 DUP3 ADD MSTORE POP JUMP JUMPDEST PUSH0 PUSH2 0x2846 PUSH1 0x16 DUP4 PUSH2 0x1ED9 JUMP JUMPDEST SWAP2 POP PUSH2 0x2851 DUP3 PUSH2 0x2812 JUMP JUMPDEST PUSH1 0x20 DUP3 ADD SWAP1 POP SWAP2 SWAP1 POP JUMP JUMPDEST PUSH0 PUSH1 0x20 DUP3 ADD SWAP1 POP DUP2 DUP2 SUB PUSH0 DUP4 ADD MSTORE PUSH2 0x2873 DUP2 PUSH2 0x283A JUMP JUMPDEST SWAP1 POP SWAP2 SWAP1 POP JUMP JUMPDEST PUSH32 0x7265636569766564207A65726F00000000000000000000000000000000000000 PUSH0 DUP3 ADD MSTORE POP JUMP JUMPDEST PUSH0 PUSH2 0x28AE PUSH1 0xD DUP4 PUSH2 0x1ED9 JUMP JUMPDEST SWAP2 POP PUSH2 0x28B9 DUP3 PUSH2 0x287A JUMP JUMPDEST PUSH1 0x20 DUP3 ADD SWAP1 POP SWAP2 SWAP1 POP JUMP JUMPDEST PUSH0 PUSH1 0x20 DUP3 ADD SWAP1 POP DUP2 DUP2 SUB PUSH0 DUP4 ADD MSTORE PUSH2 0x28DB DUP2 PUSH2 0x28A2 JUMP JUMPDEST SWAP1 POP SWAP2 SWAP1 POP JUMP JUMPDEST PUSH0 PUSH1 0xA0 DUP3 ADD SWAP1 POP PUSH2 0x28F5 PUSH0 DUP4 ADD DUP9 PUSH2 0x1D03 JUMP JUMPDEST PUSH2 0x2902 PUSH1 0x20 DUP4 ADD DUP8 PUSH2 0x1A5C JUMP JUMPDEST PUSH2 0x290F PUSH1 0x40 DUP4 ADD DUP7 PUSH2 0x1A5C JUMP JUMPDEST PUSH2 0x291C PUSH1 0x60 DUP4 ADD DUP6 PUSH2 0x1A5C JUMP JUMPDEST PUSH2 0x2929 PUSH1 0x80 DUP4 ADD DUP5 PUSH2 0x1D12 JUMP JUMPDEST SWAP7 SWAP6 POP POP POP POP POP POP JUMP JUMPDEST PUSH32 0x7A65726F206F776E657200000000000000000000000000000000000000000000 PUSH0 DUP3 ADD MSTORE POP JUMP JUMPDEST PUSH0 PUSH2 0x2967 PUSH1 0xA DUP4 PUSH2 0x1ED9 JUMP JUMPDEST SWAP2 POP PUSH2 0x2972 DUP3 PUSH2 0x2933 JUMP JUMPDEST PUSH1 0x20 DUP3 ADD SWAP1 POP SWAP2 SWAP1 POP JUMP JUMPDEST PUSH0 PUSH1 0x20 DUP3 ADD SWAP1 POP DUP2 DUP2 SUB PUSH0 DUP4 ADD MSTORE PUSH2 0x2994 DUP2 PUSH2 0x295B JUMP JUMPDEST SWAP1 POP SWAP2 SWAP1 POP JUMP JUMPDEST PUSH0 PUSH1 0x40 DUP3 ADD SWAP1 POP PUSH2 0x29AE PUSH0 DUP4 ADD DUP6 PUSH2 0x1D03 JUMP JUMPDEST PUSH2 0x29BB PUSH1 0x20 DUP4 ADD DUP5 PUSH2 0x1A5C JUMP JUMPDEST SWAP4 SWAP3 POP POP POP JUMP JUMPDEST PUSH0 PUSH1 0x60 DUP3 ADD SWAP1 POP PUSH2 0x29D5 PUSH0 DUP4 ADD DUP7 PUSH2 0x1D03 JUMP JUMPDEST PUSH2 0x29E2 PUSH1 0x20 DUP4 ADD DUP6 PUSH2 0x1D03 JUMP JUMPDEST PUSH2 0x29EF PUSH1 0x40 DUP4 ADD DUP5 PUSH2 0x1A5C JUMP JUMPDEST SWAP5 SWAP4 POP POP POP POP JUMP JUMPDEST PUSH0 DUP2 MLOAD SWAP1 POP SWAP2 SWAP1 POP JUMP JUMPDEST DUP3 DUP2 DUP4 MCOPY PUSH0 DUP4 DUP4 ADD MSTORE POP POP POP JUMP JUMPDEST PUSH0 PUSH2 0x2A19 DUP3 PUSH2 0x29F7 JUMP JUMPDEST PUSH2 0x2A23 DUP2 DUP6 PUSH2 0x2159 JUMP JUMPDEST SWAP4 POP PUSH2 0x2A33 DUP2 DUP6 PUSH1 0x20 DUP7 ADD PUSH2 0x2A01 JUMP JUMPDEST DUP1 DUP5 ADD SWAP2 POP POP SWAP3 SWAP2 POP POP JUMP JUMPDEST PUSH0 PUSH2 0x2A4A DUP3 DUP5 PUSH2 0x2A0F JUMP JUMPDEST SWAP2 POP DUP2 SWAP1 POP SWAP3 SWAP2 POP POP JUMP JUMPDEST PUSH32 0x45524332303A206C6F772D6C6576656C2063616C6C206661696C656400000000 PUSH0 DUP3 ADD MSTORE POP JUMP JUMPDEST PUSH0 PUSH2 0x2A89 PUSH1 0x1C DUP4 PUSH2 0x1ED9 JUMP JUMPDEST SWAP2 POP PUSH2 0x2A94 DUP3 PUSH2 0x2A55 JUMP JUMPDEST PUSH1 0x20 DUP3 ADD SWAP1 POP SWAP2 SWAP1 POP JUMP JUMPDEST PUSH0 PUSH1 0x20 DUP3 ADD SWAP1 POP DUP2 DUP2 SUB PUSH0 DUP4 ADD MSTORE PUSH2 0x2AB6 DUP2 PUSH2 0x2A7D JUMP JUMPDEST SWAP1 POP SWAP2 SWAP1 POP JUMP JUMPDEST PUSH2 0x2AC6 DUP2 PUSH2 0x1C05 JUMP JUMPDEST DUP2 EQ PUSH2 0x2AD0 JUMPI PUSH0 PUSH0 REVERT JUMPDEST POP JUMP JUMPDEST PUSH0 DUP2 MLOAD SWAP1 POP PUSH2 0x2AE1 DUP2 PUSH2 0x2ABD JUMP JUMPDEST SWAP3 SWAP2 POP POP JUMP JUMPDEST PUSH0 PUSH1 0x20 DUP3 DUP5 SUB SLT ISZERO PUSH2 0x2AFC JUMPI PUSH2 0x2AFB PUSH2 0x1A84 JUMP JUMPDEST JUMPDEST PUSH0 PUSH2 0x2B09 DUP5 DUP3 DUP6 ADD PUSH2 0x2AD3 JUMP JUMPDEST SWAP2 POP POP SWAP3 SWAP2 POP POP JUMP JUMPDEST PUSH32 0x45524332303A206F7065726174696F6E20646964206E6F742073756363656564 PUSH0 DUP3 ADD MSTORE POP JUMP JUMPDEST PUSH0 PUSH2 0x2B46 PUSH1 0x20 DUP4 PUSH2 0x1ED9 JUMP JUMPDEST SWAP2 POP PUSH2 0x2B51 DUP3 PUSH2 0x2B12 JUMP JUMPDEST PUSH1 0x20 DUP3 ADD SWAP1 POP SWAP2 SWAP1 POP JUMP JUMPDEST PUSH0 PUSH1 0x20 DUP3 ADD SWAP1 POP DUP2 DUP2 SUB PUSH0 DUP4 ADD MSTORE PUSH2 0x2B73 DUP2 PUSH2 0x2B3A JUMP JUMPDEST SWAP1 POP SWAP2 SWAP1 POP JUMP INVALID LOG2 PUSH5 0x6970667358 0x22 SLT KECCAK256 ORIGIN 0xA8 NOT COINBASE MCOPY JUMPF 0xCB9B CALLER 0xE SWAP5 0xCA DUPN 0x19 PUSH18 0xE484ACE9DCF917009DD030538857E0099564 PUSH20 0x6F6C634300081E00330000000000000000000000 "
				},
				"gasEstimates": {
					"creation": {
						"codeDepositCost": "2236800",
						"executionCost": "infinite",
						"totalCost": "infinite"
					},
					"external": {
						"": "217",
						"claim(uint256,string)": "infinite",
						"deposit(address,uint256,address,uint256,bytes32)": "infinite",
						"feeBps()": "2426",
						"getPayment(uint256)": "infinite",
						"nextId()": "2514",
						"owner()": "2580",
						"payments(uint256)": "infinite",
						"refund(uint256)": "infinite",
						"renounceOwnership()": "30364",
						"setFeeBps(uint256)": "infinite",
						"transferOwnership(address)": "30705",
						"withdrawNative(uint256)": "infinite"
					}
				},
				"methodIdentifiers": {
					"claim(uint256,string)": "268b15ed",
					"deposit(address,uint256,address,uint256,bytes32)": "96f6044b",
					"feeBps()": "24a9d853",
					"getPayment(uint256)": "3280a836",
					"nextId()": "61b8ce8c",
					"owner()": "8da5cb5b",
					"payments(uint256)": "87d81789",
					"refund(uint256)": "278ecde1",
					"renounceOwnership()": "715018a6",
					"setFeeBps(uint256)": "72c27b62",
					"transferOwnership(address)": "f2fde38b",
					"withdrawNative(uint256)": "84276d81"
				}
			},
			"storageLayout": {
				"storage": [
					{
						"astId": 170,
						"contract": "contracts/MyProject.sol:RemittanceEscrowSecret",
						"label": "_owner",
						"offset": 0,
						"slot": "0",
						"type": "t_address"
					},
					{
						"astId": 265,
						"contract": "contracts/MyProject.sol:RemittanceEscrowSecret",
						"label": "_status",
						"offset": 0,
						"slot": "1",
						"type": "t_uint256"
					},
					{
						"astId": 302,
						"contract": "contracts/MyProject.sol:RemittanceEscrowSecret",
						"label": "feeBps",
						"offset": 0,
						"slot": "2",
						"type": "t_uint256"
					},
					{
						"astId": 304,
						"contract": "contracts/MyProject.sol:RemittanceEscrowSecret",
						"label": "nextId",
						"offset": 0,
						"slot": "3",
						"type": "t_uint256"
					},
					{
						"astId": 330,
						"contract": "contracts/MyProject.sol:RemittanceEscrowSecret",
						"label": "payments",
						"offset": 0,
						"slot": "4",
						"type": "t_mapping(t_uint256,t_struct(Payment)325_storage)"
					}
				],
				"types": {
					"t_address": {
						"encoding": "inplace",
						"label": "address",
						"numberOfBytes": "20"
					},
					"t_bool": {
						"encoding": "inplace",
						"label": "bool",
						"numberOfBytes": "1"
					},
					"t_bytes32": {
						"encoding": "inplace",
						"label": "bytes32",
						"numberOfBytes": "32"
					},
					"t_mapping(t_uint256,t_struct(Payment)325_storage)": {
						"encoding": "mapping",
						"key": "t_uint256",
						"label": "mapping(uint256 => struct RemittanceEscrowSecret.Payment)",
						"numberOfBytes": "32",
						"value": "t_struct(Payment)325_storage"
					},
					"t_struct(Payment)325_storage": {
						"encoding": "inplace",
						"label": "struct RemittanceEscrowSecret.Payment",
						"members": [
							{
								"astId": 306,
								"contract": "contracts/MyProject.sol:RemittanceEscrowSecret",
								"label": "sender",
								"offset": 0,
								"slot": "0",
								"type": "t_address"
							},
							{
								"astId": 308,
								"contract": "contracts/MyProject.sol:RemittanceEscrowSecret",
								"label": "token",
								"offset": 0,
								"slot": "1",
								"type": "t_address"
							},
							{
								"astId": 310,
								"contract": "contracts/MyProject.sol:RemittanceEscrowSecret",
								"label": "amountExpected",
								"offset": 0,
								"slot": "2",
								"type": "t_uint256"
							},
							{
								"astId": 312,
								"contract": "contracts/MyProject.sol:RemittanceEscrowSecret",
								"label": "amountReceived",
								"offset": 0,
								"slot": "3",
								"type": "t_uint256"
							},
							{
								"astId": 314,
								"contract": "contracts/MyProject.sol:RemittanceEscrowSecret",
								"label": "recipient",
								"offset": 0,
								"slot": "4",
								"type": "t_address"
							},
							{
								"astId": 316,
								"contract": "contracts/MyProject.sol:RemittanceEscrowSecret",
								"label": "createdAt",
								"offset": 0,
								"slot": "5",
								"type": "t_uint256"
							},
							{
								"astId": 318,
								"contract": "contracts/MyProject.sol:RemittanceEscrowSecret",
								"label": "deadline",
								"offset": 0,
								"slot": "6",
								"type": "t_uint256"
							},
							{
								"astId": 320,
								"contract": "contracts/MyProject.sol:RemittanceEscrowSecret",
								"label": "secretHash",
								"offset": 0,
								"slot": "7",
								"type": "t_bytes32"
							},
							{
								"astId": 322,
								"contract": "contracts/MyProject.sol:RemittanceEscrowSecret",
								"label": "claimed",
								"offset": 0,
								"slot": "8",
								"type": "t_bool"
							},
							{
								"astId": 324,
								"contract": "contracts/MyProject.sol:RemittanceEscrowSecret",
								"label": "refunded",
								"offset": 1,
								"slot": "8",
								"type": "t_bool"
							}
						],
						"numberOfBytes": "288"
					},
					"t_uint256": {
						"encoding": "inplace",
						"label": "uint256",
						"numberOfBytes": "32"
					}
				}
			},
			"userdoc": {
				"kind": "user",
				"methods": {
					"claim(uint256,string)": {
						"notice": "Người nhận rút tiền bằng secret trước deadline."
					},
					"deposit(address,uint256,address,uint256,bytes32)": {
						"notice": "Nạp tiền vào escrow."
					},
					"refund(uint256)": {
						"notice": "Quá hạn, người gửi được refund."
					}
				},
				"version": 1
			}
		}
	}
}