{
	"contracts/MyProject.sol": {
		"SimpleEscrowAutoRelease": {
			"abi": [
				{
					"inputs": [
						{
							"internalType": "uint256",
							"name": "_feeBps",
							"type": "uint256"
						}
					],
					"stateMutability": "nonpayable",
					"type": "constructor"
				},
				{
					"anonymous": false,
					"inputs": [
						{
							"indexed": true,
							"internalType": "uint256",
							"name": "id",
							"type": "uint256"
						},
						{
							"indexed": true,
							"internalType": "address",
							"name": "sender",
							"type": "address"
						},
						{
							"indexed": false,
							"internalType": "address",
							"name": "token",
							"type": "address"
						},
						{
							"indexed": false,
							"internalType": "uint256",
							"name": "amountExpected",
							"type": "uint256"
						},
						{
							"indexed": false,
							"internalType": "uint256",
							"name": "amountReceived",
							"type": "uint256"
						},
						{
							"indexed": true,
							"internalType": "address",
							"name": "recipient",
							"type": "address"
						},
						{
							"indexed": false,
							"internalType": "uint256",
							"name": "unlockTimestamp",
							"type": "uint256"
						}
					],
					"name": "Deposited",
					"type": "event"
				},
				{
					"anonymous": false,
					"inputs": [
						{
							"indexed": false,
							"internalType": "uint256",
							"name": "oldFeeBps",
							"type": "uint256"
						},
						{
							"indexed": false,
							"internalType": "uint256",
							"name": "newFeeBps",
							"type": "uint256"
						}
					],
					"name": "FeeChanged",
					"type": "event"
				},
				{
					"anonymous": false,
					"inputs": [
						{
							"indexed": true,
							"internalType": "address",
							"name": "token",
							"type": "address"
						},
						{
							"indexed": false,
							"internalType": "uint256",
							"name": "amount",
							"type": "uint256"
						}
					],
					"name": "OwnerWithdrawERC20",
					"type": "event"
				},
				{
					"anonymous": false,
					"inputs": [
						{
							"indexed": false,
							"internalType": "uint256",
							"name": "amount",
							"type": "uint256"
						}
					],
					"name": "OwnerWithdrawNative",
					"type": "event"
				},
				{
					"anonymous": false,
					"inputs": [
						{
							"indexed": true,
							"internalType": "address",
							"name": "previousOwner",
							"type": "address"
						},
						{
							"indexed": true,
							"internalType": "address",
							"name": "newOwner",
							"type": "address"
						}
					],
					"name": "OwnershipTransferred",
					"type": "event"
				},
				{
					"anonymous": false,
					"inputs": [
						{
							"indexed": true,
							"internalType": "uint256",
							"name": "id",
							"type": "uint256"
						},
						{
							"indexed": true,
							"internalType": "address",
							"name": "by",
							"type": "address"
						},
						{
							"indexed": false,
							"internalType": "uint256",
							"name": "payout",
							"type": "uint256"
						},
						{
							"indexed": true,
							"internalType": "address",
							"name": "recipient",
							"type": "address"
						}
					],
					"name": "Released",
					"type": "event"
				},
				{
					"stateMutability": "payable",
					"type": "fallback"
				},
				{
					"inputs": [
						{
							"internalType": "address",
							"name": "token",
							"type": "address"
						},
						{
							"internalType": "uint256",
							"name": "amountExpected",
							"type": "uint256"
						},
						{
							"internalType": "address",
							"name": "recipient",
							"type": "address"
						},
						{
							"internalType": "uint256",
							"name": "unlockTimestamp",
							"type": "uint256"
						}
					],
					"name": "deposit",
					"outputs": [
						{
							"internalType": "uint256",
							"name": "",
							"type": "uint256"
						}
					],
					"stateMutability": "nonpayable",
					"type": "function"
				},
				{
					"inputs": [],
					"name": "feeBps",
					"outputs": [
						{
							"internalType": "uint256",
							"name": "",
							"type": "uint256"
						}
					],
					"stateMutability": "view",
					"type": "function"
				},
				{
					"inputs": [
						{
							"internalType": "uint256",
							"name": "id",
							"type": "uint256"
						}
					],
					"name": "getPayment",
					"outputs": [
						{
							"components": [
								{
									"internalType": "address",
									"name": "sender",
									"type": "address"
								},
								{
									"internalType": "address",
									"name": "token",
									"type": "address"
								},
								{
									"internalType": "uint256",
									"name": "amountExpected",
									"type": "uint256"
								},
								{
									"internalType": "uint256",
									"name": "amountReceived",
									"type": "uint256"
								},
								{
									"internalType": "address",
									"name": "recipient",
									"type": "address"
								},
								{
									"internalType": "uint256",
									"name": "createdAt",
									"type": "uint256"
								},
								{
									"internalType": "uint256",
									"name": "unlockTimestamp",
									"type": "uint256"
								},
								{
									"internalType": "bool",
									"name": "released",
									"type": "bool"
								}
							],
							"internalType": "struct SimpleEscrowAutoRelease.Payment",
							"name": "",
							"type": "tuple"
						}
					],
					"stateMutability": "view",
					"type": "function"
				},
				{
					"inputs": [],
					"name": "nextId",
					"outputs": [
						{
							"internalType": "uint256",
							"name": "",
							"type": "uint256"
						}
					],
					"stateMutability": "view",
					"type": "function"
				},
				{
					"inputs": [],
					"name": "owner",
					"outputs": [
						{
							"internalType": "address",
							"name": "",
							"type": "address"
						}
					],
					"stateMutability": "view",
					"type": "function"
				},
				{
					"inputs": [
						{
							"internalType": "address",
							"name": "token",
							"type": "address"
						},
						{
							"internalType": "uint256",
							"name": "amount",
							"type": "uint256"
						}
					],
					"name": "ownerWithdrawERC20",
					"outputs": [],
					"stateMutability": "nonpayable",
					"type": "function"
				},
				{
					"inputs": [
						{
							"internalType": "uint256",
							"name": "",
							"type": "uint256"
						}
					],
					"name": "payments",
					"outputs": [
						{
							"internalType": "address",
							"name": "sender",
							"type": "address"
						},
						{
							"internalType": "address",
							"name": "token",
							"type": "address"
						},
						{
							"internalType": "uint256",
							"name": "amountExpected",
							"type": "uint256"
						},
						{
							"internalType": "uint256",
							"name": "amountReceived",
							"type": "uint256"
						},
						{
							"internalType": "address",
							"name": "recipient",
							"type": "address"
						},
						{
							"internalType": "uint256",
							"name": "createdAt",
							"type": "uint256"
						},
						{
							"internalType": "uint256",
							"name": "unlockTimestamp",
							"type": "uint256"
						},
						{
							"internalType": "bool",
							"name": "released",
							"type": "bool"
						}
					],
					"stateMutability": "view",
					"type": "function"
				},
				{
					"inputs": [
						{
							"internalType": "uint256",
							"name": "id",
							"type": "uint256"
						}
					],
					"name": "release",
					"outputs": [],
					"stateMutability": "nonpayable",
					"type": "function"
				},
				{
					"inputs": [],
					"name": "renounceOwnership",
					"outputs": [],
					"stateMutability": "nonpayable",
					"type": "function"
				},
				{
					"inputs": [
						{
							"internalType": "uint256",
							"name": "newFeeBps",
							"type": "uint256"
						}
					],
					"name": "setFeeBps",
					"outputs": [],
					"stateMutability": "nonpayable",
					"type": "function"
				},
				{
					"inputs": [
						{
							"internalType": "address",
							"name": "newOwner",
							"type": "address"
						}
					],
					"name": "transferOwnership",
					"outputs": [],
					"stateMutability": "nonpayable",
					"type": "function"
				},
				{
					"inputs": [
						{
							"internalType": "uint256",
							"name": "amount",
							"type": "uint256"
						}
					],
					"name": "withdrawNative",
					"outputs": [],
					"stateMutability": "nonpayable",
					"type": "function"
				},
				{
					"stateMutability": "payable",
					"type": "receive"
				}
			],
			"devdoc": {
				"kind": "dev",
				"methods": {},
				"version": 1
			},
			"evm": {
				"assembly": "    /* \"contracts/MyProject.sol\":3404:7876  contract SimpleEscrowAutoRelease is SimpleOwnable, SimpleReentrancyGuard {... */\n  mstore(0x40, 0x80)\n    /* \"contracts/MyProject.sol\":4451:4585  constructor(uint256 _feeBps) {... */\n  callvalue\n  dup1\n  iszero\n  tag_1\n  jumpi\n  revert(0x00, 0x00)\ntag_1:\n  pop\n  mload(0x40)\n  sub(codesize, bytecodeSize)\n  dup1\n  bytecodeSize\n  dup4\n  codecopy\n  dup2\n  dup2\n  add\n  0x40\n  mstore\n  dup2\n  add\n  swap1\n  tag_2\n  swap2\n  swap1\n  tag_3\n  jump\t// in\ntag_2:\n    /* \"contracts/MyProject.sol\":2492:2502  msg.sender */\n  caller\n    /* \"contracts/MyProject.sol\":2483:2489  _owner */\n  0x00\n  0x00\n    /* \"contracts/MyProject.sol\":2483:2502  _owner = msg.sender */\n  0x0100\n  exp\n  dup2\n  sload\n  dup2\n  0xffffffffffffffffffffffffffffffffffffffff\n  mul\n  not\n  and\n  swap1\n  dup4\n  0xffffffffffffffffffffffffffffffffffffffff\n  and\n  mul\n  or\n  swap1\n  sstore\n  pop\n    /* \"contracts/MyProject.sol\":2550:2556  _owner */\n  0x00\n  0x00\n  swap1\n  sload\n  swap1\n  0x0100\n  exp\n  swap1\n  div\n  0xffffffffffffffffffffffffffffffffffffffff\n  and\n    /* \"contracts/MyProject.sol\":2517:2557  OwnershipTransferred(address(0), _owner) */\n  0xffffffffffffffffffffffffffffffffffffffff\n  and\n    /* \"contracts/MyProject.sol\":2546:2547  0 */\n  0x00\n    /* \"contracts/MyProject.sol\":2517:2557  OwnershipTransferred(address(0), _owner) */\n  0xffffffffffffffffffffffffffffffffffffffff\n  and\n  0x8be0079c531659141344cd1fd0a4f28419497f9722a3daafe3b4186f6b6457e0\n  mload(0x40)\n  mload(0x40)\n  dup1\n  swap2\n  sub\n  swap1\n  log3\n    /* \"contracts/MyProject.sol\":3230:3231  1 */\n  0x01\n    /* \"contracts/MyProject.sol\":3220:3227  _status */\n  dup1\n    /* \"contracts/MyProject.sol\":3220:3231  _status = 1 */\n  dup2\n  swap1\n  sstore\n  pop\n    /* \"contracts/MyProject.sol\":4509:4514  10000 */\n  0x2710\n    /* \"contracts/MyProject.sol\":4498:4505  _feeBps */\n  dup2\n    /* \"contracts/MyProject.sol\":4498:4514  _feeBps <= 10000 */\n  gt\n  iszero\n    /* \"contracts/MyProject.sol\":4490:4532  require(_feeBps <= 10000, \"feeBps<=10000\") */\n  tag_10\n  jumpi\n  mload(0x40)\n  0x08c379a000000000000000000000000000000000000000000000000000000000\n  dup2\n  mstore\n  0x04\n  add\n  tag_11\n  swap1\n  tag_12\n  jump\t// in\ntag_11:\n  mload(0x40)\n  dup1\n  swap2\n  sub\n  swap1\n  revert\ntag_10:\n    /* \"contracts/MyProject.sol\":4551:4558  _feeBps */\n  dup1\n    /* \"contracts/MyProject.sol\":4542:4548  feeBps */\n  0x02\n    /* \"contracts/MyProject.sol\":4542:4558  feeBps = _feeBps */\n  dup2\n  swap1\n  sstore\n  pop\n    /* \"contracts/MyProject.sol\":4577:4578  1 */\n  0x01\n    /* \"contracts/MyProject.sol\":4568:4574  nextId */\n  0x03\n    /* \"contracts/MyProject.sol\":4568:4578  nextId = 1 */\n  dup2\n  swap1\n  sstore\n  pop\n    /* \"contracts/MyProject.sol\":4451:4585  constructor(uint256 _feeBps) {... */\n  pop\n    /* \"contracts/MyProject.sol\":3404:7876  contract SimpleEscrowAutoRelease is SimpleOwnable, SimpleReentrancyGuard {... */\n  jump(tag_13)\n    /* \"#utility.yul\":88:205   */\ntag_15:\n    /* \"#utility.yul\":197:198   */\n  0x00\n    /* \"#utility.yul\":194:195   */\n  0x00\n    /* \"#utility.yul\":187:199   */\n  revert\n    /* \"#utility.yul\":334:411   */\ntag_17:\n    /* \"#utility.yul\":371:378   */\n  0x00\n    /* \"#utility.yul\":400:405   */\n  dup2\n    /* \"#utility.yul\":389:405   */\n  swap1\n  pop\n    /* \"#utility.yul\":334:411   */\n  swap2\n  swap1\n  pop\n  jump\t// out\n    /* \"#utility.yul\":417:539   */\ntag_18:\n    /* \"#utility.yul\":490:514   */\n  tag_29\n    /* \"#utility.yul\":508:513   */\n  dup2\n    /* \"#utility.yul\":490:514   */\n  tag_17\n  jump\t// in\ntag_29:\n    /* \"#utility.yul\":483:488   */\n  dup2\n    /* \"#utility.yul\":480:515   */\n  eq\n    /* \"#utility.yul\":470:533   */\n  tag_30\n  jumpi\n    /* \"#utility.yul\":529:530   */\n  0x00\n    /* \"#utility.yul\":526:527   */\n  0x00\n    /* \"#utility.yul\":519:531   */\n  revert\n    /* \"#utility.yul\":470:533   */\ntag_30:\n    /* \"#utility.yul\":417:539   */\n  pop\n  jump\t// out\n    /* \"#utility.yul\":545:688   */\ntag_19:\n    /* \"#utility.yul\":602:607   */\n  0x00\n    /* \"#utility.yul\":633:639   */\n  dup2\n    /* \"#utility.yul\":627:640   */\n  mload\n    /* \"#utility.yul\":618:640   */\n  swap1\n  pop\n    /* \"#utility.yul\":649:682   */\n  tag_32\n    /* \"#utility.yul\":676:681   */\n  dup2\n    /* \"#utility.yul\":649:682   */\n  tag_18\n  jump\t// in\ntag_32:\n    /* \"#utility.yul\":545:688   */\n  swap3\n  swap2\n  pop\n  pop\n  jump\t// out\n    /* \"#utility.yul\":694:1045   */\ntag_3:\n    /* \"#utility.yul\":764:770   */\n  0x00\n    /* \"#utility.yul\":813:815   */\n  0x20\n    /* \"#utility.yul\":801:810   */\n  dup3\n    /* \"#utility.yul\":792:799   */\n  dup5\n    /* \"#utility.yul\":788:811   */\n  sub\n    /* \"#utility.yul\":784:816   */\n  slt\n    /* \"#utility.yul\":781:900   */\n  iszero\n  tag_34\n  jumpi\n    /* \"#utility.yul\":819:898   */\n  tag_35\n  tag_15\n  jump\t// in\ntag_35:\n    /* \"#utility.yul\":781:900   */\ntag_34:\n    /* \"#utility.yul\":939:940   */\n  0x00\n    /* \"#utility.yul\":964:1028   */\n  tag_36\n    /* \"#utility.yul\":1020:1027   */\n  dup5\n    /* \"#utility.yul\":1011:1017   */\n  dup3\n    /* \"#utility.yul\":1000:1009   */\n  dup6\n    /* \"#utility.yul\":996:1018   */\n  add\n    /* \"#utility.yul\":964:1028   */\n  tag_19\n  jump\t// in\ntag_36:\n    /* \"#utility.yul\":954:1028   */\n  swap2\n  pop\n    /* \"#utility.yul\":910:1038   */\n  pop\n    /* \"#utility.yul\":694:1045   */\n  swap3\n  swap2\n  pop\n  pop\n  jump\t// out\n    /* \"#utility.yul\":1051:1220   */\ntag_20:\n    /* \"#utility.yul\":1135:1146   */\n  0x00\n    /* \"#utility.yul\":1169:1175   */\n  dup3\n    /* \"#utility.yul\":1164:1167   */\n  dup3\n    /* \"#utility.yul\":1157:1176   */\n  mstore\n    /* \"#utility.yul\":1209:1213   */\n  0x20\n    /* \"#utility.yul\":1204:1207   */\n  dup3\n    /* \"#utility.yul\":1200:1214   */\n  add\n    /* \"#utility.yul\":1185:1214   */\n  swap1\n  pop\n    /* \"#utility.yul\":1051:1220   */\n  swap3\n  swap2\n  pop\n  pop\n  jump\t// out\n    /* \"#utility.yul\":1226:1389   */\ntag_21:\n    /* \"#utility.yul\":1366:1381   */\n  0x6665654270733c3d313030303000000000000000000000000000000000000000\n    /* \"#utility.yul\":1362:1363   */\n  0x00\n    /* \"#utility.yul\":1354:1360   */\n  dup3\n    /* \"#utility.yul\":1350:1364   */\n  add\n    /* \"#utility.yul\":1343:1382   */\n  mstore\n    /* \"#utility.yul\":1226:1389   */\n  pop\n  jump\t// out\n    /* \"#utility.yul\":1395:1761   */\ntag_22:\n    /* \"#utility.yul\":1537:1540   */\n  0x00\n    /* \"#utility.yul\":1558:1625   */\n  tag_40\n    /* \"#utility.yul\":1622:1624   */\n  0x0d\n    /* \"#utility.yul\":1617:1620   */\n  dup4\n    /* \"#utility.yul\":1558:1625   */\n  tag_20\n  jump\t// in\ntag_40:\n    /* \"#utility.yul\":1551:1625   */\n  swap2\n  pop\n    /* \"#utility.yul\":1634:1727   */\n  tag_41\n    /* \"#utility.yul\":1723:1726   */\n  dup3\n    /* \"#utility.yul\":1634:1727   */\n  tag_21\n  jump\t// in\ntag_41:\n    /* \"#utility.yul\":1752:1754   */\n  0x20\n    /* \"#utility.yul\":1747:1750   */\n  dup3\n    /* \"#utility.yul\":1743:1755   */\n  add\n    /* \"#utility.yul\":1736:1755   */\n  swap1\n  pop\n    /* \"#utility.yul\":1395:1761   */\n  swap2\n  swap1\n  pop\n  jump\t// out\n    /* \"#utility.yul\":1767:2186   */\ntag_12:\n    /* \"#utility.yul\":1933:1937   */\n  0x00\n    /* \"#utility.yul\":1971:1973   */\n  0x20\n    /* \"#utility.yul\":1960:1969   */\n  dup3\n    /* \"#utility.yul\":1956:1974   */\n  add\n    /* \"#utility.yul\":1948:1974   */\n  swap1\n  pop\n    /* \"#utility.yul\":2020:2029   */\n  dup2\n    /* \"#utility.yul\":2014:2018   */\n  dup2\n    /* \"#utility.yul\":2010:2030   */\n  sub\n    /* \"#utility.yul\":2006:2007   */\n  0x00\n    /* \"#utility.yul\":1995:2004   */\n  dup4\n    /* \"#utility.yul\":1991:2008   */\n  add\n    /* \"#utility.yul\":1984:2031   */\n  mstore\n    /* \"#utility.yul\":2048:2179   */\n  tag_43\n    /* \"#utility.yul\":2174:2178   */\n  dup2\n    /* \"#utility.yul\":2048:2179   */\n  tag_22\n  jump\t// in\ntag_43:\n    /* \"#utility.yul\":2040:2179   */\n  swap1\n  pop\n    /* \"#utility.yul\":1767:2186   */\n  swap2\n  swap1\n  pop\n  jump\t// out\n    /* \"contracts/MyProject.sol\":3404:7876  contract SimpleEscrowAutoRelease is SimpleOwnable, SimpleReentrancyGuard {... */\ntag_13:\n  dataSize(sub_0)\n  dup1\n  dataOffset(sub_0)\n  0x00\n  codecopy\n  0x00\n  return\nstop\n\nsub_0: assembly {\n        /* \"contracts/MyProject.sol\":3404:7876  contract SimpleEscrowAutoRelease is SimpleOwnable, SimpleReentrancyGuard {... */\n      mstore(0x40, 0x80)\n      jumpi(tag_1, lt(calldatasize, 0x04))\n      shr(0xe0, calldataload(0x00))\n      dup1\n      0x72c27b62\n      gt\n      tag_15\n      jumpi\n      dup1\n      0x72c27b62\n      eq\n      tag_9\n      jumpi\n      dup1\n      0x84276d81\n      eq\n      tag_10\n      jumpi\n      dup1\n      0x87d81789\n      eq\n      tag_11\n      jumpi\n      dup1\n      0x8da5cb5b\n      eq\n      tag_12\n      jumpi\n      dup1\n      0x90d25074\n      eq\n      tag_13\n      jumpi\n      dup1\n      0xf2fde38b\n      eq\n      tag_14\n      jumpi\n      jump(tag_2)\n    tag_15:\n      dup1\n      0x24a9d853\n      eq\n      tag_3\n      jumpi\n      dup1\n      0x3280a836\n      eq\n      tag_4\n      jumpi\n      dup1\n      0x37bdc99b\n      eq\n      tag_5\n      jumpi\n      dup1\n      0x45d39b58\n      eq\n      tag_6\n      jumpi\n      dup1\n      0x61b8ce8c\n      eq\n      tag_7\n      jumpi\n      dup1\n      0x715018a6\n      eq\n      tag_8\n      jumpi\n      jump(tag_2)\n    tag_1:\n    tag_2:\n      stop\n        /* \"contracts/MyProject.sol\":3562:3583  uint256 public feeBps */\n    tag_3:\n      callvalue\n      dup1\n      iszero\n      tag_20\n      jumpi\n      revert(0x00, 0x00)\n    tag_20:\n      pop\n      tag_21\n      tag_22\n      jump\t// in\n    tag_21:\n      mload(0x40)\n      tag_23\n      swap2\n      swap1\n      tag_24\n      jump\t// in\n    tag_23:\n      mload(0x40)\n      dup1\n      swap2\n      sub\n      swap1\n      return\n        /* \"contracts/MyProject.sol\":7767:7874  function getPayment(uint256 id) external view returns (Payment memory) {... */\n    tag_4:\n      callvalue\n      dup1\n      iszero\n      tag_25\n      jumpi\n      revert(0x00, 0x00)\n    tag_25:\n      pop\n      tag_26\n      0x04\n      dup1\n      calldatasize\n      sub\n      dup2\n      add\n      swap1\n      tag_27\n      swap2\n      swap1\n      tag_28\n      jump\t// in\n    tag_27:\n      tag_29\n      jump\t// in\n    tag_26:\n      mload(0x40)\n      tag_30\n      swap2\n      swap1\n      tag_31\n      jump\t// in\n    tag_30:\n      mload(0x40)\n      dup1\n      swap2\n      sub\n      swap1\n      return\n        /* \"contracts/MyProject.sol\":6019:6995  function release(uint256 id) external nonReentrant {... */\n    tag_5:\n      callvalue\n      dup1\n      iszero\n      tag_32\n      jumpi\n      revert(0x00, 0x00)\n    tag_32:\n      pop\n      tag_33\n      0x04\n      dup1\n      calldatasize\n      sub\n      dup2\n      add\n      swap1\n      tag_34\n      swap2\n      swap1\n      tag_28\n      jump\t// in\n    tag_34:\n      tag_35\n      jump\t// in\n    tag_33:\n      stop\n        /* \"contracts/MyProject.sol\":7220:7461  function ownerWithdrawERC20(address token, uint256 amount) external onlyOwner {... */\n    tag_6:\n      callvalue\n      dup1\n      iszero\n      tag_36\n      jumpi\n      revert(0x00, 0x00)\n    tag_36:\n      pop\n      tag_37\n      0x04\n      dup1\n      calldatasize\n      sub\n      dup2\n      add\n      swap1\n      tag_38\n      swap2\n      swap1\n      tag_39\n      jump\t// in\n    tag_38:\n      tag_40\n      jump\t// in\n    tag_37:\n      stop\n        /* \"contracts/MyProject.sol\":3601:3622  uint256 public nextId */\n    tag_7:\n      callvalue\n      dup1\n      iszero\n      tag_41\n      jumpi\n      revert(0x00, 0x00)\n    tag_41:\n      pop\n      tag_42\n      tag_43\n      jump\t// in\n    tag_42:\n      mload(0x40)\n      tag_44\n      swap2\n      swap1\n      tag_24\n      jump\t// in\n    tag_44:\n      mload(0x40)\n      dup1\n      swap2\n      sub\n      swap1\n      return\n        /* \"contracts/MyProject.sol\":2961:3098  function renounceOwnership() public onlyOwner {... */\n    tag_8:\n      callvalue\n      dup1\n      iszero\n      tag_45\n      jumpi\n      revert(0x00, 0x00)\n    tag_45:\n      pop\n      tag_46\n      tag_47\n      jump\t// in\n    tag_46:\n      stop\n        /* \"contracts/MyProject.sol\":7024:7214  function setFeeBps(uint256 newFeeBps) external onlyOwner {... */\n    tag_9:\n      callvalue\n      dup1\n      iszero\n      tag_48\n      jumpi\n      revert(0x00, 0x00)\n    tag_48:\n      pop\n      tag_49\n      0x04\n      dup1\n      calldatasize\n      sub\n      dup2\n      add\n      swap1\n      tag_50\n      swap2\n      swap1\n      tag_28\n      jump\t// in\n    tag_50:\n      tag_51\n      jump\t// in\n    tag_49:\n      stop\n        /* \"contracts/MyProject.sol\":7467:7691  function withdrawNative(uint256 amount) external onlyOwner {... */\n    tag_10:\n      callvalue\n      dup1\n      iszero\n      tag_52\n      jumpi\n      revert(0x00, 0x00)\n    tag_52:\n      pop\n      tag_53\n      0x04\n      dup1\n      calldatasize\n      sub\n      dup2\n      add\n      swap1\n      tag_54\n      swap2\n      swap1\n      tag_28\n      jump\t// in\n    tag_54:\n      tag_55\n      jump\t// in\n    tag_53:\n      stop\n        /* \"contracts/MyProject.sol\":3878:3921  mapping(uint256 => Payment) public payments */\n    tag_11:\n      callvalue\n      dup1\n      iszero\n      tag_56\n      jumpi\n      revert(0x00, 0x00)\n    tag_56:\n      pop\n      tag_57\n      0x04\n      dup1\n      calldatasize\n      sub\n      dup2\n      add\n      swap1\n      tag_58\n      swap2\n      swap1\n      tag_28\n      jump\t// in\n    tag_58:\n      tag_59\n      jump\t// in\n    tag_57:\n      mload(0x40)\n      tag_60\n      swap9\n      swap8\n      swap7\n      swap6\n      swap5\n      swap4\n      swap3\n      swap2\n      swap1\n      tag_61\n      jump\t// in\n    tag_60:\n      mload(0x40)\n      dup1\n      swap2\n      sub\n      swap1\n      return\n        /* \"contracts/MyProject.sol\":2570:2647  function owner() public view returns (address) {... */\n    tag_12:\n      callvalue\n      dup1\n      iszero\n      tag_62\n      jumpi\n      revert(0x00, 0x00)\n    tag_62:\n      pop\n      tag_63\n      tag_64\n      jump\t// in\n    tag_63:\n      mload(0x40)\n      tag_65\n      swap2\n      swap1\n      tag_66\n      jump\t// in\n    tag_65:\n      mload(0x40)\n      dup1\n      swap2\n      sub\n      swap1\n      return\n        /* \"contracts/MyProject.sol\":4591:6013  function deposit(... */\n    tag_13:\n      callvalue\n      dup1\n      iszero\n      tag_67\n      jumpi\n      revert(0x00, 0x00)\n    tag_67:\n      pop\n      tag_68\n      0x04\n      dup1\n      calldatasize\n      sub\n      dup2\n      add\n      swap1\n      tag_69\n      swap2\n      swap1\n      tag_70\n      jump\t// in\n    tag_69:\n      tag_71\n      jump\t// in\n    tag_68:\n      mload(0x40)\n      tag_72\n      swap2\n      swap1\n      tag_24\n      jump\t// in\n    tag_72:\n      mload(0x40)\n      dup1\n      swap2\n      sub\n      swap1\n      return\n        /* \"contracts/MyProject.sol\":2751:2955  function transferOwnership(address newOwner) public onlyOwner {... */\n    tag_14:\n      callvalue\n      dup1\n      iszero\n      tag_73\n      jumpi\n      revert(0x00, 0x00)\n    tag_73:\n      pop\n      tag_74\n      0x04\n      dup1\n      calldatasize\n      sub\n      dup2\n      add\n      swap1\n      tag_75\n      swap2\n      swap1\n      tag_76\n      jump\t// in\n    tag_75:\n      tag_77\n      jump\t// in\n    tag_74:\n      stop\n        /* \"contracts/MyProject.sol\":3562:3583  uint256 public feeBps */\n    tag_22:\n      sload(0x02)\n      dup2\n      jump\t// out\n        /* \"contracts/MyProject.sol\":7767:7874  function getPayment(uint256 id) external view returns (Payment memory) {... */\n    tag_29:\n        /* \"contracts/MyProject.sol\":7822:7836  Payment memory */\n      tag_78\n      tag_79\n      jump\t// in\n    tag_78:\n        /* \"contracts/MyProject.sol\":7855:7863  payments */\n      0x04\n        /* \"contracts/MyProject.sol\":7855:7867  payments[id] */\n      0x00\n        /* \"contracts/MyProject.sol\":7864:7866  id */\n      dup4\n        /* \"contracts/MyProject.sol\":7855:7867  payments[id] */\n      dup2\n      mstore\n      0x20\n      add\n      swap1\n      dup2\n      mstore\n      0x20\n      add\n      0x00\n      keccak256\n        /* \"contracts/MyProject.sol\":7848:7867  return payments[id] */\n      mload(0x40)\n      dup1\n      0x0100\n      add\n      0x40\n      mstore\n      swap1\n      dup2\n      0x00\n      dup3\n      add\n      0x00\n      swap1\n      sload\n      swap1\n      0x0100\n      exp\n      swap1\n      div\n      0xffffffffffffffffffffffffffffffffffffffff\n      and\n      0xffffffffffffffffffffffffffffffffffffffff\n      and\n      0xffffffffffffffffffffffffffffffffffffffff\n      and\n      dup2\n      mstore\n      0x20\n      add\n      0x01\n      dup3\n      add\n      0x00\n      swap1\n      sload\n      swap1\n      0x0100\n      exp\n      swap1\n      div\n      0xffffffffffffffffffffffffffffffffffffffff\n      and\n      0xffffffffffffffffffffffffffffffffffffffff\n      and\n      0xffffffffffffffffffffffffffffffffffffffff\n      and\n      dup2\n      mstore\n      0x20\n      add\n      0x02\n      dup3\n      add\n      sload\n      dup2\n      mstore\n      0x20\n      add\n      0x03\n      dup3\n      add\n      sload\n      dup2\n      mstore\n      0x20\n      add\n      0x04\n      dup3\n      add\n      0x00\n      swap1\n      sload\n      swap1\n      0x0100\n      exp\n      swap1\n      div\n      0xffffffffffffffffffffffffffffffffffffffff\n      and\n      0xffffffffffffffffffffffffffffffffffffffff\n      and\n      0xffffffffffffffffffffffffffffffffffffffff\n      and\n      dup2\n      mstore\n      0x20\n      add\n      0x05\n      dup3\n      add\n      sload\n      dup2\n      mstore\n      0x20\n      add\n      0x06\n      dup3\n      add\n      sload\n      dup2\n      mstore\n      0x20\n      add\n      0x07\n      dup3\n      add\n      0x00\n      swap1\n      sload\n      swap1\n      0x0100\n      exp\n      swap1\n      div\n      0xff\n      and\n      iszero\n      iszero\n      iszero\n      iszero\n      dup2\n      mstore\n      pop\n      pop\n      swap1\n      pop\n        /* \"contracts/MyProject.sol\":7767:7874  function getPayment(uint256 id) external view returns (Payment memory) {... */\n      swap2\n      swap1\n      pop\n      jump\t// out\n        /* \"contracts/MyProject.sol\":6019:6995  function release(uint256 id) external nonReentrant {... */\n    tag_35:\n        /* \"contracts/MyProject.sol\":3325:3326  1 */\n      0x01\n        /* \"contracts/MyProject.sol\":3314:3321  _status */\n      dup1\n      sload\n        /* \"contracts/MyProject.sol\":3314:3326  _status == 1 */\n      eq\n        /* \"contracts/MyProject.sol\":3306:3340  require(_status == 1, \"reentrant\") */\n      tag_82\n      jumpi\n      mload(0x40)\n      0x08c379a000000000000000000000000000000000000000000000000000000000\n      dup2\n      mstore\n      0x04\n      add\n      tag_83\n      swap1\n      tag_84\n      jump\t// in\n    tag_83:\n      mload(0x40)\n      dup1\n      swap2\n      sub\n      swap1\n      revert\n    tag_82:\n        /* \"contracts/MyProject.sol\":3360:3361  2 */\n      0x02\n        /* \"contracts/MyProject.sol\":3350:3357  _status */\n      0x01\n        /* \"contracts/MyProject.sol\":3350:3361  _status = 2 */\n      dup2\n      swap1\n      sstore\n      pop\n        /* \"contracts/MyProject.sol\":6080:6097  Payment storage p */\n      0x00\n        /* \"contracts/MyProject.sol\":6100:6108  payments */\n      0x04\n        /* \"contracts/MyProject.sol\":6100:6112  payments[id] */\n      0x00\n        /* \"contracts/MyProject.sol\":6109:6111  id */\n      dup4\n        /* \"contracts/MyProject.sol\":6100:6112  payments[id] */\n      dup2\n      mstore\n      0x20\n      add\n      swap1\n      dup2\n      mstore\n      0x20\n      add\n      0x00\n      keccak256\n        /* \"contracts/MyProject.sol\":6080:6112  Payment storage p = payments[id] */\n      swap1\n      pop\n        /* \"contracts/MyProject.sol\":6149:6150  0 */\n      0x00\n        /* \"contracts/MyProject.sol\":6130:6131  p */\n      dup2\n        /* \"contracts/MyProject.sol\":6130:6146  p.amountReceived */\n      0x03\n      add\n      sload\n        /* \"contracts/MyProject.sol\":6130:6150  p.amountReceived > 0 */\n      gt\n        /* \"contracts/MyProject.sol\":6122:6172  require(p.amountReceived > 0, \"not found or zero\") */\n      tag_86\n      jumpi\n      mload(0x40)\n      0x08c379a000000000000000000000000000000000000000000000000000000000\n      dup2\n      mstore\n      0x04\n      add\n      tag_87\n      swap1\n      tag_88\n      jump\t// in\n    tag_87:\n      mload(0x40)\n      dup1\n      swap2\n      sub\n      swap1\n      revert\n    tag_86:\n        /* \"contracts/MyProject.sol\":6191:6192  p */\n      dup1\n        /* \"contracts/MyProject.sol\":6191:6201  p.released */\n      0x07\n      add\n      0x00\n      swap1\n      sload\n      swap1\n      0x0100\n      exp\n      swap1\n      div\n      0xff\n      and\n        /* \"contracts/MyProject.sol\":6190:6201  !p.released */\n      iszero\n        /* \"contracts/MyProject.sol\":6182:6222  require(!p.released, \"already released\") */\n      tag_89\n      jumpi\n      mload(0x40)\n      0x08c379a000000000000000000000000000000000000000000000000000000000\n      dup2\n      mstore\n      0x04\n      add\n      tag_90\n      swap1\n      tag_91\n      jump\t// in\n    tag_90:\n      mload(0x40)\n      dup1\n      swap2\n      sub\n      swap1\n      revert\n    tag_89:\n        /* \"contracts/MyProject.sol\":6233:6250  bool isAuthorized */\n      0x00\n        /* \"contracts/MyProject.sol\":6268:6269  p */\n      dup2\n        /* \"contracts/MyProject.sol\":6268:6276  p.sender */\n      0x00\n      add\n      0x00\n      swap1\n      sload\n      swap1\n      0x0100\n      exp\n      swap1\n      div\n      0xffffffffffffffffffffffffffffffffffffffff\n      and\n        /* \"contracts/MyProject.sol\":6254:6276  msg.sender == p.sender */\n      0xffffffffffffffffffffffffffffffffffffffff\n      and\n        /* \"contracts/MyProject.sol\":6254:6264  msg.sender */\n      caller\n        /* \"contracts/MyProject.sol\":6254:6276  msg.sender == p.sender */\n      0xffffffffffffffffffffffffffffffffffffffff\n      and\n      eq\n        /* \"contracts/MyProject.sol\":6254:6305  msg.sender == p.sender || msg.sender == p.recipient */\n      dup1\n      tag_92\n      jumpi\n      pop\n        /* \"contracts/MyProject.sol\":6294:6295  p */\n      dup2\n        /* \"contracts/MyProject.sol\":6294:6305  p.recipient */\n      0x04\n      add\n      0x00\n      swap1\n      sload\n      swap1\n      0x0100\n      exp\n      swap1\n      div\n      0xffffffffffffffffffffffffffffffffffffffff\n      and\n        /* \"contracts/MyProject.sol\":6280:6305  msg.sender == p.recipient */\n      0xffffffffffffffffffffffffffffffffffffffff\n      and\n        /* \"contracts/MyProject.sol\":6280:6290  msg.sender */\n      caller\n        /* \"contracts/MyProject.sol\":6280:6305  msg.sender == p.recipient */\n      0xffffffffffffffffffffffffffffffffffffffff\n      and\n      eq\n        /* \"contracts/MyProject.sol\":6254:6305  msg.sender == p.sender || msg.sender == p.recipient */\n    tag_92:\n        /* \"contracts/MyProject.sol\":6254:6330  msg.sender == p.sender || msg.sender == p.recipient || msg.sender == owner() */\n      dup1\n      tag_93\n      jumpi\n      pop\n        /* \"contracts/MyProject.sol\":6323:6330  owner() */\n      tag_94\n        /* \"contracts/MyProject.sol\":6323:6328  owner */\n      tag_64\n        /* \"contracts/MyProject.sol\":6323:6330  owner() */\n      jump\t// in\n    tag_94:\n        /* \"contracts/MyProject.sol\":6309:6330  msg.sender == owner() */\n      0xffffffffffffffffffffffffffffffffffffffff\n      and\n        /* \"contracts/MyProject.sol\":6309:6319  msg.sender */\n      caller\n        /* \"contracts/MyProject.sol\":6309:6330  msg.sender == owner() */\n      0xffffffffffffffffffffffffffffffffffffffff\n      and\n      eq\n        /* \"contracts/MyProject.sol\":6254:6330  msg.sender == p.sender || msg.sender == p.recipient || msg.sender == owner() */\n    tag_93:\n        /* \"contracts/MyProject.sol\":6233:6331  bool isAuthorized = (msg.sender == p.sender || msg.sender == p.recipient || msg.sender == owner()) */\n      swap1\n      pop\n        /* \"contracts/MyProject.sol\":6349:6361  isAuthorized */\n      dup1\n        /* \"contracts/MyProject.sol\":6349:6401  isAuthorized || block.timestamp >= p.unlockTimestamp */\n      dup1\n      tag_95\n      jumpi\n      pop\n        /* \"contracts/MyProject.sol\":6384:6385  p */\n      dup2\n        /* \"contracts/MyProject.sol\":6384:6401  p.unlockTimestamp */\n      0x06\n      add\n      sload\n        /* \"contracts/MyProject.sol\":6365:6380  block.timestamp */\n      timestamp\n        /* \"contracts/MyProject.sol\":6365:6401  block.timestamp >= p.unlockTimestamp */\n      lt\n      iszero\n        /* \"contracts/MyProject.sol\":6349:6401  isAuthorized || block.timestamp >= p.unlockTimestamp */\n    tag_95:\n        /* \"contracts/MyProject.sol\":6341:6420  require(isAuthorized || block.timestamp >= p.unlockTimestamp, \"not authorized\") */\n      tag_96\n      jumpi\n      mload(0x40)\n      0x08c379a000000000000000000000000000000000000000000000000000000000\n      dup2\n      mstore\n      0x04\n      add\n      tag_97\n      swap1\n      tag_98\n      jump\t// in\n    tag_97:\n      mload(0x40)\n      dup1\n      swap2\n      sub\n      swap1\n      revert\n    tag_96:\n        /* \"contracts/MyProject.sol\":6463:6467  true */\n      0x01\n        /* \"contracts/MyProject.sol\":6450:6451  p */\n      dup3\n        /* \"contracts/MyProject.sol\":6450:6460  p.released */\n      0x07\n      add\n      0x00\n        /* \"contracts/MyProject.sol\":6450:6467  p.released = true */\n      0x0100\n      exp\n      dup2\n      sload\n      dup2\n      0xff\n      mul\n      not\n      and\n      swap1\n      dup4\n      iszero\n      iszero\n      mul\n      or\n      swap1\n      sstore\n      pop\n        /* \"contracts/MyProject.sol\":6478:6489  uint256 fee */\n      0x00\n        /* \"contracts/MyProject.sol\":6492:6493  0 */\n      0x00\n        /* \"contracts/MyProject.sol\":6478:6493  uint256 fee = 0 */\n      swap1\n      pop\n        /* \"contracts/MyProject.sol\":6516:6517  0 */\n      0x00\n        /* \"contracts/MyProject.sol\":6507:6513  feeBps */\n      sload(0x02)\n        /* \"contracts/MyProject.sol\":6507:6517  feeBps > 0 */\n      gt\n        /* \"contracts/MyProject.sol\":6503:6700  if (feeBps > 0) {... */\n      iszero\n      tag_99\n      jumpi\n        /* \"contracts/MyProject.sol\":6561:6562  0 */\n      0x00\n        /* \"contracts/MyProject.sol\":6541:6542  p */\n      dup4\n        /* \"contracts/MyProject.sol\":6541:6557  p.amountReceived */\n      0x03\n      add\n      sload\n        /* \"contracts/MyProject.sol\":6541:6562  p.amountReceived == 0 */\n      eq\n        /* \"contracts/MyProject.sol\":6541:6612  p.amountReceived == 0 || p.amountReceived <= type(uint256).max / feeBps */\n      dup1\n      tag_100\n      jumpi\n      pop\n        /* \"contracts/MyProject.sol\":6606:6612  feeBps */\n      sload(0x02)\n        /* \"contracts/MyProject.sol\":6586:6603  type(uint256).max */\n      0xffffffffffffffffffffffffffffffffffffffffffffffffffffffffffffffff\n        /* \"contracts/MyProject.sol\":6586:6612  type(uint256).max / feeBps */\n      tag_101\n      swap2\n      swap1\n      tag_102\n      jump\t// in\n    tag_101:\n        /* \"contracts/MyProject.sol\":6566:6567  p */\n      dup4\n        /* \"contracts/MyProject.sol\":6566:6582  p.amountReceived */\n      0x03\n      add\n      sload\n        /* \"contracts/MyProject.sol\":6566:6612  p.amountReceived <= type(uint256).max / feeBps */\n      gt\n      iszero\n        /* \"contracts/MyProject.sol\":6541:6612  p.amountReceived == 0 || p.amountReceived <= type(uint256).max / feeBps */\n    tag_100:\n        /* \"contracts/MyProject.sol\":6533:6634  require(p.amountReceived == 0 || p.amountReceived <= type(uint256).max / feeBps, \"fee calc overflow\") */\n      tag_103\n      jumpi\n      mload(0x40)\n      0x08c379a000000000000000000000000000000000000000000000000000000000\n      dup2\n      mstore\n      0x04\n      add\n      tag_104\n      swap1\n      tag_105\n      jump\t// in\n    tag_104:\n      mload(0x40)\n      dup1\n      swap2\n      sub\n      swap1\n      revert\n    tag_103:\n        /* \"contracts/MyProject.sol\":6684:6689  10000 */\n      0x2710\n        /* \"contracts/MyProject.sol\":6674:6680  feeBps */\n      sload(0x02)\n        /* \"contracts/MyProject.sol\":6655:6656  p */\n      dup5\n        /* \"contracts/MyProject.sol\":6655:6671  p.amountReceived */\n      0x03\n      add\n      sload\n        /* \"contracts/MyProject.sol\":6655:6680  p.amountReceived * feeBps */\n      tag_106\n      swap2\n      swap1\n      tag_107\n      jump\t// in\n    tag_106:\n        /* \"contracts/MyProject.sol\":6654:6689  (p.amountReceived * feeBps) / 10000 */\n      tag_108\n      swap2\n      swap1\n      tag_102\n      jump\t// in\n    tag_108:\n        /* \"contracts/MyProject.sol\":6648:6689  fee = (p.amountReceived * feeBps) / 10000 */\n      swap1\n      pop\n        /* \"contracts/MyProject.sol\":6503:6700  if (feeBps > 0) {... */\n    tag_99:\n        /* \"contracts/MyProject.sol\":6709:6723  uint256 payout */\n      0x00\n        /* \"contracts/MyProject.sol\":6745:6748  fee */\n      dup2\n        /* \"contracts/MyProject.sol\":6726:6727  p */\n      dup5\n        /* \"contracts/MyProject.sol\":6726:6742  p.amountReceived */\n      0x03\n      add\n      sload\n        /* \"contracts/MyProject.sol\":6726:6748  p.amountReceived - fee */\n      tag_109\n      swap2\n      swap1\n      tag_110\n      jump\t// in\n    tag_109:\n        /* \"contracts/MyProject.sol\":6709:6748  uint256 payout = p.amountReceived - fee */\n      swap1\n      pop\n        /* \"contracts/MyProject.sol\":6783:6835  SafeERC20.safeTransfer(p.token, p.recipient, payout) */\n      tag_111\n        /* \"contracts/MyProject.sol\":6806:6807  p */\n      dup5\n        /* \"contracts/MyProject.sol\":6806:6813  p.token */\n      0x01\n      add\n      0x00\n      swap1\n      sload\n      swap1\n      0x0100\n      exp\n      swap1\n      div\n      0xffffffffffffffffffffffffffffffffffffffff\n      and\n        /* \"contracts/MyProject.sol\":6815:6816  p */\n      dup6\n        /* \"contracts/MyProject.sol\":6815:6826  p.recipient */\n      0x04\n      add\n      0x00\n      swap1\n      sload\n      swap1\n      0x0100\n      exp\n      swap1\n      div\n      0xffffffffffffffffffffffffffffffffffffffff\n      and\n        /* \"contracts/MyProject.sol\":6828:6834  payout */\n      dup4\n        /* \"contracts/MyProject.sol\":6783:6805  SafeERC20.safeTransfer */\n      tag_112\n        /* \"contracts/MyProject.sol\":6783:6835  SafeERC20.safeTransfer(p.token, p.recipient, payout) */\n      jump\t// in\n    tag_111:\n        /* \"contracts/MyProject.sol\":6855:6856  0 */\n      0x00\n        /* \"contracts/MyProject.sol\":6849:6852  fee */\n      dup3\n        /* \"contracts/MyProject.sol\":6849:6856  fee > 0 */\n      gt\n        /* \"contracts/MyProject.sol\":6845:6928  if (fee > 0) {... */\n      iszero\n      tag_113\n      jumpi\n        /* \"contracts/MyProject.sol\":6872:6917  SafeERC20.safeTransfer(p.token, owner(), fee) */\n      tag_114\n        /* \"contracts/MyProject.sol\":6895:6896  p */\n      dup5\n        /* \"contracts/MyProject.sol\":6895:6902  p.token */\n      0x01\n      add\n      0x00\n      swap1\n      sload\n      swap1\n      0x0100\n      exp\n      swap1\n      div\n      0xffffffffffffffffffffffffffffffffffffffff\n      and\n        /* \"contracts/MyProject.sol\":6904:6911  owner() */\n      tag_115\n        /* \"contracts/MyProject.sol\":6904:6909  owner */\n      tag_64\n        /* \"contracts/MyProject.sol\":6904:6911  owner() */\n      jump\t// in\n    tag_115:\n        /* \"contracts/MyProject.sol\":6913:6916  fee */\n      dup5\n        /* \"contracts/MyProject.sol\":6872:6894  SafeERC20.safeTransfer */\n      tag_112\n        /* \"contracts/MyProject.sol\":6872:6917  SafeERC20.safeTransfer(p.token, owner(), fee) */\n      jump\t// in\n    tag_114:\n        /* \"contracts/MyProject.sol\":6845:6928  if (fee > 0) {... */\n    tag_113:\n        /* \"contracts/MyProject.sol\":6976:6977  p */\n      dup4\n        /* \"contracts/MyProject.sol\":6976:6987  p.recipient */\n      0x04\n      add\n      0x00\n      swap1\n      sload\n      swap1\n      0x0100\n      exp\n      swap1\n      div\n      0xffffffffffffffffffffffffffffffffffffffff\n      and\n        /* \"contracts/MyProject.sol\":6943:6988  Released(id, msg.sender, payout, p.recipient) */\n      0xffffffffffffffffffffffffffffffffffffffff\n      and\n        /* \"contracts/MyProject.sol\":6956:6966  msg.sender */\n      caller\n        /* \"contracts/MyProject.sol\":6943:6988  Released(id, msg.sender, payout, p.recipient) */\n      0xffffffffffffffffffffffffffffffffffffffff\n      and\n        /* \"contracts/MyProject.sol\":6952:6954  id */\n      dup7\n        /* \"contracts/MyProject.sol\":6943:6988  Released(id, msg.sender, payout, p.recipient) */\n      0x89ccb81a080f998c6d21f573e5464d693e085cef774481dc4b5c3c0d66ce11da\n        /* \"contracts/MyProject.sol\":6968:6974  payout */\n      dup5\n        /* \"contracts/MyProject.sol\":6943:6988  Released(id, msg.sender, payout, p.recipient) */\n      mload(0x40)\n      tag_116\n      swap2\n      swap1\n      tag_24\n      jump\t// in\n    tag_116:\n      mload(0x40)\n      dup1\n      swap2\n      sub\n      swap1\n      log4\n        /* \"contracts/MyProject.sol\":6070:6995  {... */\n      pop\n      pop\n      pop\n      pop\n        /* \"contracts/MyProject.sol\":3392:3393  1 */\n      0x01\n        /* \"contracts/MyProject.sol\":3382:3389  _status */\n      dup1\n        /* \"contracts/MyProject.sol\":3382:3393  _status = 1 */\n      dup2\n      swap1\n      sstore\n      pop\n        /* \"contracts/MyProject.sol\":6019:6995  function release(uint256 id) external nonReentrant {... */\n      pop\n      jump\t// out\n        /* \"contracts/MyProject.sol\":7220:7461  function ownerWithdrawERC20(address token, uint256 amount) external onlyOwner {... */\n    tag_40:\n        /* \"contracts/MyProject.sol\":2706:2712  _owner */\n      0x00\n      0x00\n      swap1\n      sload\n      swap1\n      0x0100\n      exp\n      swap1\n      div\n      0xffffffffffffffffffffffffffffffffffffffff\n      and\n        /* \"contracts/MyProject.sol\":2692:2712  msg.sender == _owner */\n      0xffffffffffffffffffffffffffffffffffffffff\n      and\n        /* \"contracts/MyProject.sol\":2692:2702  msg.sender */\n      caller\n        /* \"contracts/MyProject.sol\":2692:2712  msg.sender == _owner */\n      0xffffffffffffffffffffffffffffffffffffffff\n      and\n      eq\n        /* \"contracts/MyProject.sol\":2684:2727  require(msg.sender == _owner, \"only owner\") */\n      tag_118\n      jumpi\n      mload(0x40)\n      0x08c379a000000000000000000000000000000000000000000000000000000000\n      dup2\n      mstore\n      0x04\n      add\n      tag_119\n      swap1\n      tag_120\n      jump\t// in\n    tag_119:\n      mload(0x40)\n      dup1\n      swap2\n      sub\n      swap1\n      revert\n    tag_118:\n        /* \"contracts/MyProject.sol\":7333:7334  0 */\n      0x00\n        /* \"contracts/MyProject.sol\":7316:7335  token != address(0) */\n      0xffffffffffffffffffffffffffffffffffffffff\n      and\n        /* \"contracts/MyProject.sol\":7316:7321  token */\n      dup3\n        /* \"contracts/MyProject.sol\":7316:7335  token != address(0) */\n      0xffffffffffffffffffffffffffffffffffffffff\n      and\n      sub\n        /* \"contracts/MyProject.sol\":7308:7350  require(token != address(0), \"token zero\") */\n      tag_122\n      jumpi\n      mload(0x40)\n      0x08c379a000000000000000000000000000000000000000000000000000000000\n      dup2\n      mstore\n      0x04\n      add\n      tag_123\n      swap1\n      tag_124\n      jump\t// in\n    tag_123:\n      mload(0x40)\n      dup1\n      swap2\n      sub\n      swap1\n      revert\n    tag_122:\n        /* \"contracts/MyProject.sol\":7360:7406  SafeERC20.safeTransfer(token, owner(), amount) */\n      tag_125\n        /* \"contracts/MyProject.sol\":7383:7388  token */\n      dup3\n        /* \"contracts/MyProject.sol\":7390:7397  owner() */\n      tag_126\n        /* \"contracts/MyProject.sol\":7390:7395  owner */\n      tag_64\n        /* \"contracts/MyProject.sol\":7390:7397  owner() */\n      jump\t// in\n    tag_126:\n        /* \"contracts/MyProject.sol\":7399:7405  amount */\n      dup4\n        /* \"contracts/MyProject.sol\":7360:7382  SafeERC20.safeTransfer */\n      tag_112\n        /* \"contracts/MyProject.sol\":7360:7406  SafeERC20.safeTransfer(token, owner(), amount) */\n      jump\t// in\n    tag_125:\n        /* \"contracts/MyProject.sol\":7440:7445  token */\n      dup2\n        /* \"contracts/MyProject.sol\":7421:7454  OwnerWithdrawERC20(token, amount) */\n      0xffffffffffffffffffffffffffffffffffffffff\n      and\n      0x8d7d29d557c3b976595a2bb0bff9523a5fb97d560015797deac22d118fffad65\n        /* \"contracts/MyProject.sol\":7447:7453  amount */\n      dup3\n        /* \"contracts/MyProject.sol\":7421:7454  OwnerWithdrawERC20(token, amount) */\n      mload(0x40)\n      tag_127\n      swap2\n      swap1\n      tag_24\n      jump\t// in\n    tag_127:\n      mload(0x40)\n      dup1\n      swap2\n      sub\n      swap1\n      log2\n        /* \"contracts/MyProject.sol\":7220:7461  function ownerWithdrawERC20(address token, uint256 amount) external onlyOwner {... */\n      pop\n      pop\n      jump\t// out\n        /* \"contracts/MyProject.sol\":3601:3622  uint256 public nextId */\n    tag_43:\n      sload(0x03)\n      dup2\n      jump\t// out\n        /* \"contracts/MyProject.sol\":2961:3098  function renounceOwnership() public onlyOwner {... */\n    tag_47:\n        /* \"contracts/MyProject.sol\":2706:2712  _owner */\n      0x00\n      0x00\n      swap1\n      sload\n      swap1\n      0x0100\n      exp\n      swap1\n      div\n      0xffffffffffffffffffffffffffffffffffffffff\n      and\n        /* \"contracts/MyProject.sol\":2692:2712  msg.sender == _owner */\n      0xffffffffffffffffffffffffffffffffffffffff\n      and\n        /* \"contracts/MyProject.sol\":2692:2702  msg.sender */\n      caller\n        /* \"contracts/MyProject.sol\":2692:2712  msg.sender == _owner */\n      0xffffffffffffffffffffffffffffffffffffffff\n      and\n      eq\n        /* \"contracts/MyProject.sol\":2684:2727  require(msg.sender == _owner, \"only owner\") */\n      tag_129\n      jumpi\n      mload(0x40)\n      0x08c379a000000000000000000000000000000000000000000000000000000000\n      dup2\n      mstore\n      0x04\n      add\n      tag_130\n      swap1\n      tag_120\n      jump\t// in\n    tag_130:\n      mload(0x40)\n      dup1\n      swap2\n      sub\n      swap1\n      revert\n    tag_129:\n        /* \"contracts/MyProject.sol\":3059:3060  0 */\n      0x00\n        /* \"contracts/MyProject.sol\":3022:3062  OwnershipTransferred(_owner, address(0)) */\n      0xffffffffffffffffffffffffffffffffffffffff\n      and\n        /* \"contracts/MyProject.sol\":3043:3049  _owner */\n      0x00\n      0x00\n      swap1\n      sload\n      swap1\n      0x0100\n      exp\n      swap1\n      div\n      0xffffffffffffffffffffffffffffffffffffffff\n      and\n        /* \"contracts/MyProject.sol\":3022:3062  OwnershipTransferred(_owner, address(0)) */\n      0xffffffffffffffffffffffffffffffffffffffff\n      and\n      0x8be0079c531659141344cd1fd0a4f28419497f9722a3daafe3b4186f6b6457e0\n      mload(0x40)\n      mload(0x40)\n      dup1\n      swap2\n      sub\n      swap1\n      log3\n        /* \"contracts/MyProject.sol\":3089:3090  0 */\n      0x00\n        /* \"contracts/MyProject.sol\":3072:3078  _owner */\n      0x00\n      0x00\n        /* \"contracts/MyProject.sol\":3072:3091  _owner = address(0) */\n      0x0100\n      exp\n      dup2\n      sload\n      dup2\n      0xffffffffffffffffffffffffffffffffffffffff\n      mul\n      not\n      and\n      swap1\n      dup4\n      0xffffffffffffffffffffffffffffffffffffffff\n      and\n      mul\n      or\n      swap1\n      sstore\n      pop\n        /* \"contracts/MyProject.sol\":2961:3098  function renounceOwnership() public onlyOwner {... */\n      jump\t// out\n        /* \"contracts/MyProject.sol\":7024:7214  function setFeeBps(uint256 newFeeBps) external onlyOwner {... */\n    tag_51:\n        /* \"contracts/MyProject.sol\":2706:2712  _owner */\n      0x00\n      0x00\n      swap1\n      sload\n      swap1\n      0x0100\n      exp\n      swap1\n      div\n      0xffffffffffffffffffffffffffffffffffffffff\n      and\n        /* \"contracts/MyProject.sol\":2692:2712  msg.sender == _owner */\n      0xffffffffffffffffffffffffffffffffffffffff\n      and\n        /* \"contracts/MyProject.sol\":2692:2702  msg.sender */\n      caller\n        /* \"contracts/MyProject.sol\":2692:2712  msg.sender == _owner */\n      0xffffffffffffffffffffffffffffffffffffffff\n      and\n      eq\n        /* \"contracts/MyProject.sol\":2684:2727  require(msg.sender == _owner, \"only owner\") */\n      tag_133\n      jumpi\n      mload(0x40)\n      0x08c379a000000000000000000000000000000000000000000000000000000000\n      dup2\n      mstore\n      0x04\n      add\n      tag_134\n      swap1\n      tag_120\n      jump\t// in\n    tag_134:\n      mload(0x40)\n      dup1\n      swap2\n      sub\n      swap1\n      revert\n    tag_133:\n        /* \"contracts/MyProject.sol\":7112:7117  10000 */\n      0x2710\n        /* \"contracts/MyProject.sol\":7099:7108  newFeeBps */\n      dup2\n        /* \"contracts/MyProject.sol\":7099:7117  newFeeBps <= 10000 */\n      gt\n      iszero\n        /* \"contracts/MyProject.sol\":7091:7135  require(newFeeBps <= 10000, \"feeBps<=10000\") */\n      tag_136\n      jumpi\n      mload(0x40)\n      0x08c379a000000000000000000000000000000000000000000000000000000000\n      dup2\n      mstore\n      0x04\n      add\n      tag_137\n      swap1\n      tag_138\n      jump\t// in\n    tag_137:\n      mload(0x40)\n      dup1\n      swap2\n      sub\n      swap1\n      revert\n    tag_136:\n        /* \"contracts/MyProject.sol\":7150:7179  FeeChanged(feeBps, newFeeBps) */\n      0x5fc463da23c1b063e66f9e352006a7fbe8db7223c455dc429e881a2dfe2f94f1\n        /* \"contracts/MyProject.sol\":7161:7167  feeBps */\n      sload(0x02)\n        /* \"contracts/MyProject.sol\":7169:7178  newFeeBps */\n      dup3\n        /* \"contracts/MyProject.sol\":7150:7179  FeeChanged(feeBps, newFeeBps) */\n      mload(0x40)\n      tag_139\n      swap3\n      swap2\n      swap1\n      tag_140\n      jump\t// in\n    tag_139:\n      mload(0x40)\n      dup1\n      swap2\n      sub\n      swap1\n      log1\n        /* \"contracts/MyProject.sol\":7198:7207  newFeeBps */\n      dup1\n        /* \"contracts/MyProject.sol\":7189:7195  feeBps */\n      0x02\n        /* \"contracts/MyProject.sol\":7189:7207  feeBps = newFeeBps */\n      dup2\n      swap1\n      sstore\n      pop\n        /* \"contracts/MyProject.sol\":7024:7214  function setFeeBps(uint256 newFeeBps) external onlyOwner {... */\n      pop\n      jump\t// out\n        /* \"contracts/MyProject.sol\":7467:7691  function withdrawNative(uint256 amount) external onlyOwner {... */\n    tag_55:\n        /* \"contracts/MyProject.sol\":2706:2712  _owner */\n      0x00\n      0x00\n      swap1\n      sload\n      swap1\n      0x0100\n      exp\n      swap1\n      div\n      0xffffffffffffffffffffffffffffffffffffffff\n      and\n        /* \"contracts/MyProject.sol\":2692:2712  msg.sender == _owner */\n      0xffffffffffffffffffffffffffffffffffffffff\n      and\n        /* \"contracts/MyProject.sol\":2692:2702  msg.sender */\n      caller\n        /* \"contracts/MyProject.sol\":2692:2712  msg.sender == _owner */\n      0xffffffffffffffffffffffffffffffffffffffff\n      and\n      eq\n        /* \"contracts/MyProject.sol\":2684:2727  require(msg.sender == _owner, \"only owner\") */\n      tag_142\n      jumpi\n      mload(0x40)\n      0x08c379a000000000000000000000000000000000000000000000000000000000\n      dup2\n      mstore\n      0x04\n      add\n      tag_143\n      swap1\n      tag_120\n      jump\t// in\n    tag_143:\n      mload(0x40)\n      dup1\n      swap2\n      sub\n      swap1\n      revert\n    tag_142:\n        /* \"contracts/MyProject.sol\":7569:7575  amount */\n      dup1\n        /* \"contracts/MyProject.sol\":7544:7565  address(this).balance */\n      selfbalance\n        /* \"contracts/MyProject.sol\":7544:7575  address(this).balance >= amount */\n      lt\n      iszero\n        /* \"contracts/MyProject.sol\":7536:7599  require(address(this).balance >= amount, \"insufficient native\") */\n      tag_145\n      jumpi\n      mload(0x40)\n      0x08c379a000000000000000000000000000000000000000000000000000000000\n      dup2\n      mstore\n      0x04\n      add\n      tag_146\n      swap1\n      tag_147\n      jump\t// in\n    tag_146:\n      mload(0x40)\n      dup1\n      swap2\n      sub\n      swap1\n      revert\n    tag_145:\n        /* \"contracts/MyProject.sol\":7617:7624  owner() */\n      tag_148\n        /* \"contracts/MyProject.sol\":7617:7622  owner */\n      tag_64\n        /* \"contracts/MyProject.sol\":7617:7624  owner() */\n      jump\t// in\n    tag_148:\n        /* \"contracts/MyProject.sol\":7609:7634  payable(owner()).transfer */\n      0xffffffffffffffffffffffffffffffffffffffff\n      and\n        /* \"contracts/MyProject.sol\":7609:7642  payable(owner()).transfer(amount) */\n      0x08fc\n        /* \"contracts/MyProject.sol\":7635:7641  amount */\n      dup3\n        /* \"contracts/MyProject.sol\":7609:7642  payable(owner()).transfer(amount) */\n      swap1\n      dup2\n      iszero\n      mul\n      swap1\n      mload(0x40)\n      0x00\n      mload(0x40)\n      dup1\n      dup4\n      sub\n      dup2\n      dup6\n      dup9\n      dup9\n      call\n      swap4\n      pop\n      pop\n      pop\n      pop\n      iszero\n      dup1\n      iszero\n      tag_150\n      jumpi\n      returndatacopy(0x00, 0x00, returndatasize)\n      revert(0x00, returndatasize)\n    tag_150:\n      pop\n        /* \"contracts/MyProject.sol\":7657:7684  OwnerWithdrawNative(amount) */\n      0x6e4c84161cdb053c0fd0ad9dfd1b7e4e50a718125358c96a036c95a19eb0a905\n        /* \"contracts/MyProject.sol\":7677:7683  amount */\n      dup2\n        /* \"contracts/MyProject.sol\":7657:7684  OwnerWithdrawNative(amount) */\n      mload(0x40)\n      tag_151\n      swap2\n      swap1\n      tag_24\n      jump\t// in\n    tag_151:\n      mload(0x40)\n      dup1\n      swap2\n      sub\n      swap1\n      log1\n        /* \"contracts/MyProject.sol\":7467:7691  function withdrawNative(uint256 amount) external onlyOwner {... */\n      pop\n      jump\t// out\n        /* \"contracts/MyProject.sol\":3878:3921  mapping(uint256 => Payment) public payments */\n    tag_59:\n      mstore(0x20, 0x04)\n      dup1\n      0x00\n      mstore\n      keccak256(0x00, 0x40)\n      0x00\n      swap2\n      pop\n      swap1\n      pop\n      dup1\n      0x00\n      add\n      0x00\n      swap1\n      sload\n      swap1\n      0x0100\n      exp\n      swap1\n      div\n      0xffffffffffffffffffffffffffffffffffffffff\n      and\n      swap1\n      dup1\n      0x01\n      add\n      0x00\n      swap1\n      sload\n      swap1\n      0x0100\n      exp\n      swap1\n      div\n      0xffffffffffffffffffffffffffffffffffffffff\n      and\n      swap1\n      dup1\n      0x02\n      add\n      sload\n      swap1\n      dup1\n      0x03\n      add\n      sload\n      swap1\n      dup1\n      0x04\n      add\n      0x00\n      swap1\n      sload\n      swap1\n      0x0100\n      exp\n      swap1\n      div\n      0xffffffffffffffffffffffffffffffffffffffff\n      and\n      swap1\n      dup1\n      0x05\n      add\n      sload\n      swap1\n      dup1\n      0x06\n      add\n      sload\n      swap1\n      dup1\n      0x07\n      add\n      0x00\n      swap1\n      sload\n      swap1\n      0x0100\n      exp\n      swap1\n      div\n      0xff\n      and\n      swap1\n      pop\n      dup9\n      jump\t// out\n        /* \"contracts/MyProject.sol\":2570:2647  function owner() public view returns (address) {... */\n    tag_64:\n        /* \"contracts/MyProject.sol\":2608:2615  address */\n      0x00\n        /* \"contracts/MyProject.sol\":2634:2640  _owner */\n      0x00\n      0x00\n      swap1\n      sload\n      swap1\n      0x0100\n      exp\n      swap1\n      div\n      0xffffffffffffffffffffffffffffffffffffffff\n      and\n        /* \"contracts/MyProject.sol\":2627:2640  return _owner */\n      swap1\n      pop\n        /* \"contracts/MyProject.sol\":2570:2647  function owner() public view returns (address) {... */\n      swap1\n      jump\t// out\n        /* \"contracts/MyProject.sol\":4591:6013  function deposit(... */\n    tag_71:\n        /* \"contracts/MyProject.sol\":4747:4754  uint256 */\n      0x00\n        /* \"contracts/MyProject.sol\":4791:4792  0 */\n      0x00\n        /* \"contracts/MyProject.sol\":4774:4793  token != address(0) */\n      0xffffffffffffffffffffffffffffffffffffffff\n      and\n        /* \"contracts/MyProject.sol\":4774:4779  token */\n      dup6\n        /* \"contracts/MyProject.sol\":4774:4793  token != address(0) */\n      0xffffffffffffffffffffffffffffffffffffffff\n      and\n      sub\n        /* \"contracts/MyProject.sol\":4766:4808  require(token != address(0), \"token zero\") */\n      tag_154\n      jumpi\n      mload(0x40)\n      0x08c379a000000000000000000000000000000000000000000000000000000000\n      dup2\n      mstore\n      0x04\n      add\n      tag_155\n      swap1\n      tag_124\n      jump\t// in\n    tag_155:\n      mload(0x40)\n      dup1\n      swap2\n      sub\n      swap1\n      revert\n    tag_154:\n        /* \"contracts/MyProject.sol\":4843:4844  0 */\n      0x00\n        /* \"contracts/MyProject.sol\":4826:4840  amountExpected */\n      dup5\n        /* \"contracts/MyProject.sol\":4826:4844  amountExpected > 0 */\n      gt\n        /* \"contracts/MyProject.sol\":4818:4857  require(amountExpected > 0, \"amount>0\") */\n      tag_156\n      jumpi\n      mload(0x40)\n      0x08c379a000000000000000000000000000000000000000000000000000000000\n      dup2\n      mstore\n      0x04\n      add\n      tag_157\n      swap1\n      tag_158\n      jump\t// in\n    tag_157:\n      mload(0x40)\n      dup1\n      swap2\n      sub\n      swap1\n      revert\n    tag_156:\n        /* \"contracts/MyProject.sol\":4896:4897  0 */\n      0x00\n        /* \"contracts/MyProject.sol\":4875:4898  recipient != address(0) */\n      0xffffffffffffffffffffffffffffffffffffffff\n      and\n        /* \"contracts/MyProject.sol\":4875:4884  recipient */\n      dup4\n        /* \"contracts/MyProject.sol\":4875:4898  recipient != address(0) */\n      0xffffffffffffffffffffffffffffffffffffffff\n      and\n      sub\n        /* \"contracts/MyProject.sol\":4867:4917  require(recipient != address(0), \"recipient zero\") */\n      tag_159\n      jumpi\n      mload(0x40)\n      0x08c379a000000000000000000000000000000000000000000000000000000000\n      dup2\n      mstore\n      0x04\n      add\n      tag_160\n      swap1\n      tag_161\n      jump\t// in\n    tag_160:\n      mload(0x40)\n      dup1\n      swap2\n      sub\n      swap1\n      revert\n    tag_159:\n        /* \"contracts/MyProject.sol\":4972:4974  60 */\n      0x3c\n        /* \"contracts/MyProject.sol\":4954:4969  block.timestamp */\n      timestamp\n        /* \"contracts/MyProject.sol\":4954:4974  block.timestamp + 60 */\n      tag_162\n      swap2\n      swap1\n      tag_163\n      jump\t// in\n    tag_162:\n        /* \"contracts/MyProject.sol\":4935:4950  unlockTimestamp */\n      dup3\n        /* \"contracts/MyProject.sol\":4935:4974  unlockTimestamp >= block.timestamp + 60 */\n      lt\n      iszero\n        /* \"contracts/MyProject.sol\":4927:5003  require(unlockTimestamp >= block.timestamp + 60, \"unlockTimestamp too soon\") */\n      tag_164\n      jumpi\n      mload(0x40)\n      0x08c379a000000000000000000000000000000000000000000000000000000000\n      dup2\n      mstore\n      0x04\n      add\n      tag_165\n      swap1\n      tag_166\n      jump\t// in\n    tag_165:\n      mload(0x40)\n      dup1\n      swap2\n      sub\n      swap1\n      revert\n    tag_164:\n        /* \"contracts/MyProject.sol\":5040:5061  uint256 balanceBefore */\n      0x00\n        /* \"contracts/MyProject.sol\":5071:5076  token */\n      dup6\n        /* \"contracts/MyProject.sol\":5064:5087  IERC20(token).balanceOf */\n      0xffffffffffffffffffffffffffffffffffffffff\n      and\n      0x70a08231\n        /* \"contracts/MyProject.sol\":5096:5100  this */\n      address\n        /* \"contracts/MyProject.sol\":5064:5102  IERC20(token).balanceOf(address(this)) */\n      mload(0x40)\n      dup3\n      0xffffffff\n      and\n      0xe0\n      shl\n      dup2\n      mstore\n      0x04\n      add\n      tag_167\n      swap2\n      swap1\n      tag_66\n      jump\t// in\n    tag_167:\n      0x20\n      mload(0x40)\n      dup1\n      dup4\n      sub\n      dup2\n      dup7\n      gas\n      staticcall\n      iszero\n      dup1\n      iszero\n      tag_169\n      jumpi\n      returndatacopy(0x00, 0x00, returndatasize)\n      revert(0x00, returndatasize)\n    tag_169:\n      pop\n      pop\n      pop\n      pop\n      mload(0x40)\n      returndatasize\n      not(0x1f)\n      0x1f\n      dup3\n      add\n      and\n      dup3\n      add\n      dup1\n      0x40\n      mstore\n      pop\n      dup2\n      add\n      swap1\n      tag_170\n      swap2\n      swap1\n      tag_171\n      jump\t// in\n    tag_170:\n        /* \"contracts/MyProject.sol\":5040:5102  uint256 balanceBefore = IERC20(token).balanceOf(address(this)) */\n      swap1\n      pop\n        /* \"contracts/MyProject.sol\":5144:5220  SafeERC20.safeTransferFrom(token, msg.sender, address(this), amountExpected) */\n      tag_172\n        /* \"contracts/MyProject.sol\":5171:5176  token */\n      dup7\n        /* \"contracts/MyProject.sol\":5178:5188  msg.sender */\n      caller\n        /* \"contracts/MyProject.sol\":5198:5202  this */\n      address\n        /* \"contracts/MyProject.sol\":5205:5219  amountExpected */\n      dup9\n        /* \"contracts/MyProject.sol\":5144:5170  SafeERC20.safeTransferFrom */\n      tag_173\n        /* \"contracts/MyProject.sol\":5144:5220  SafeERC20.safeTransferFrom(token, msg.sender, address(this), amountExpected) */\n      jump\t// in\n    tag_172:\n        /* \"contracts/MyProject.sol\":5256:5276  uint256 balanceAfter */\n      0x00\n        /* \"contracts/MyProject.sol\":5286:5291  token */\n      dup7\n        /* \"contracts/MyProject.sol\":5279:5302  IERC20(token).balanceOf */\n      0xffffffffffffffffffffffffffffffffffffffff\n      and\n      0x70a08231\n        /* \"contracts/MyProject.sol\":5311:5315  this */\n      address\n        /* \"contracts/MyProject.sol\":5279:5317  IERC20(token).balanceOf(address(this)) */\n      mload(0x40)\n      dup3\n      0xffffffff\n      and\n      0xe0\n      shl\n      dup2\n      mstore\n      0x04\n      add\n      tag_174\n      swap2\n      swap1\n      tag_66\n      jump\t// in\n    tag_174:\n      0x20\n      mload(0x40)\n      dup1\n      dup4\n      sub\n      dup2\n      dup7\n      gas\n      staticcall\n      iszero\n      dup1\n      iszero\n      tag_176\n      jumpi\n      returndatacopy(0x00, 0x00, returndatasize)\n      revert(0x00, returndatasize)\n    tag_176:\n      pop\n      pop\n      pop\n      pop\n      mload(0x40)\n      returndatasize\n      not(0x1f)\n      0x1f\n      dup3\n      add\n      and\n      dup3\n      add\n      dup1\n      0x40\n      mstore\n      pop\n      dup2\n      add\n      swap1\n      tag_177\n      swap2\n      swap1\n      tag_171\n      jump\t// in\n    tag_177:\n        /* \"contracts/MyProject.sol\":5256:5317  uint256 balanceAfter = IERC20(token).balanceOf(address(this)) */\n      swap1\n      pop\n        /* \"contracts/MyProject.sol\":5351:5364  balanceBefore */\n      dup2\n        /* \"contracts/MyProject.sol\":5335:5347  balanceAfter */\n      dup2\n        /* \"contracts/MyProject.sol\":5335:5364  balanceAfter >= balanceBefore */\n      lt\n      iszero\n        /* \"contracts/MyProject.sol\":5327:5391  require(balanceAfter >= balanceBefore, \"balance after < before\") */\n      tag_178\n      jumpi\n      mload(0x40)\n      0x08c379a000000000000000000000000000000000000000000000000000000000\n      dup2\n      mstore\n      0x04\n      add\n      tag_179\n      swap1\n      tag_180\n      jump\t// in\n    tag_179:\n      mload(0x40)\n      dup1\n      swap2\n      sub\n      swap1\n      revert\n    tag_178:\n        /* \"contracts/MyProject.sol\":5401:5417  uint256 received */\n      0x00\n        /* \"contracts/MyProject.sol\":5435:5448  balanceBefore */\n      dup3\n        /* \"contracts/MyProject.sol\":5420:5432  balanceAfter */\n      dup3\n        /* \"contracts/MyProject.sol\":5420:5448  balanceAfter - balanceBefore */\n      tag_181\n      swap2\n      swap1\n      tag_110\n      jump\t// in\n    tag_181:\n        /* \"contracts/MyProject.sol\":5401:5448  uint256 received = balanceAfter - balanceBefore */\n      swap1\n      pop\n        /* \"contracts/MyProject.sol\":5477:5478  0 */\n      0x00\n        /* \"contracts/MyProject.sol\":5466:5474  received */\n      dup2\n        /* \"contracts/MyProject.sol\":5466:5478  received > 0 */\n      gt\n        /* \"contracts/MyProject.sol\":5458:5496  require(received > 0, \"received zero\") */\n      tag_182\n      jumpi\n      mload(0x40)\n      0x08c379a000000000000000000000000000000000000000000000000000000000\n      dup2\n      mstore\n      0x04\n      add\n      tag_183\n      swap1\n      tag_184\n      jump\t// in\n    tag_183:\n      mload(0x40)\n      dup1\n      swap2\n      sub\n      swap1\n      revert\n    tag_182:\n        /* \"contracts/MyProject.sol\":5507:5517  uint256 id */\n      0x00\n        /* \"contracts/MyProject.sol\":5520:5526  nextId */\n      sload(0x03)\n        /* \"contracts/MyProject.sol\":5507:5526  uint256 id = nextId */\n      swap1\n      pop\n        /* \"contracts/MyProject.sol\":5551:5859  Payment({... */\n      mload(0x40)\n      dup1\n      0x0100\n      add\n      0x40\n      mstore\n      dup1\n        /* \"contracts/MyProject.sol\":5581:5591  msg.sender */\n      caller\n        /* \"contracts/MyProject.sol\":5551:5859  Payment({... */\n      0xffffffffffffffffffffffffffffffffffffffff\n      and\n      dup2\n      mstore\n      0x20\n      add\n        /* \"contracts/MyProject.sol\":5612:5617  token */\n      dup11\n        /* \"contracts/MyProject.sol\":5551:5859  Payment({... */\n      0xffffffffffffffffffffffffffffffffffffffff\n      and\n      dup2\n      mstore\n      0x20\n      add\n        /* \"contracts/MyProject.sol\":5647:5661  amountExpected */\n      dup10\n        /* \"contracts/MyProject.sol\":5551:5859  Payment({... */\n      dup2\n      mstore\n      0x20\n      add\n        /* \"contracts/MyProject.sol\":5691:5699  received */\n      dup4\n        /* \"contracts/MyProject.sol\":5551:5859  Payment({... */\n      dup2\n      mstore\n      0x20\n      add\n        /* \"contracts/MyProject.sol\":5724:5733  recipient */\n      dup9\n        /* \"contracts/MyProject.sol\":5551:5859  Payment({... */\n      0xffffffffffffffffffffffffffffffffffffffff\n      and\n      dup2\n      mstore\n      0x20\n      add\n        /* \"contracts/MyProject.sol\":5758:5773  block.timestamp */\n      timestamp\n        /* \"contracts/MyProject.sol\":5551:5859  Payment({... */\n      dup2\n      mstore\n      0x20\n      add\n        /* \"contracts/MyProject.sol\":5804:5819  unlockTimestamp */\n      dup8\n        /* \"contracts/MyProject.sol\":5551:5859  Payment({... */\n      dup2\n      mstore\n      0x20\n      add\n        /* \"contracts/MyProject.sol\":5843:5848  false */\n      0x00\n        /* \"contracts/MyProject.sol\":5551:5859  Payment({... */\n      iszero\n      iszero\n      dup2\n      mstore\n      pop\n        /* \"contracts/MyProject.sol\":5536:5544  payments */\n      0x04\n        /* \"contracts/MyProject.sol\":5536:5548  payments[id] */\n      0x00\n        /* \"contracts/MyProject.sol\":5545:5547  id */\n      dup4\n        /* \"contracts/MyProject.sol\":5536:5548  payments[id] */\n      dup2\n      mstore\n      0x20\n      add\n      swap1\n      dup2\n      mstore\n      0x20\n      add\n      0x00\n      keccak256\n        /* \"contracts/MyProject.sol\":5536:5859  payments[id] = Payment({... */\n      0x00\n      dup3\n      add\n      mload\n      dup2\n      0x00\n      add\n      exp(0x0100, 0x00)\n      dup2\n      sload\n      dup2\n      0xffffffffffffffffffffffffffffffffffffffff\n      mul\n      not\n      and\n      swap1\n      dup4\n      0xffffffffffffffffffffffffffffffffffffffff\n      and\n      mul\n      or\n      swap1\n      sstore\n      pop\n      0x20\n      dup3\n      add\n      mload\n      dup2\n      0x01\n      add\n      exp(0x0100, 0x00)\n      dup2\n      sload\n      dup2\n      0xffffffffffffffffffffffffffffffffffffffff\n      mul\n      not\n      and\n      swap1\n      dup4\n      0xffffffffffffffffffffffffffffffffffffffff\n      and\n      mul\n      or\n      swap1\n      sstore\n      pop\n      0x40\n      dup3\n      add\n      mload\n      dup2\n      0x02\n      add\n      sstore\n      0x60\n      dup3\n      add\n      mload\n      dup2\n      0x03\n      add\n      sstore\n      0x80\n      dup3\n      add\n      mload\n      dup2\n      0x04\n      add\n      exp(0x0100, 0x00)\n      dup2\n      sload\n      dup2\n      0xffffffffffffffffffffffffffffffffffffffff\n      mul\n      not\n      and\n      swap1\n      dup4\n      0xffffffffffffffffffffffffffffffffffffffff\n      and\n      mul\n      or\n      swap1\n      sstore\n      pop\n      0xa0\n      dup3\n      add\n      mload\n      dup2\n      0x05\n      add\n      sstore\n      0xc0\n      dup3\n      add\n      mload\n      dup2\n      0x06\n      add\n      sstore\n      0xe0\n      dup3\n      add\n      mload\n      dup2\n      0x07\n      add\n      exp(0x0100, 0x00)\n      dup2\n      sload\n      dup2\n      0xff\n      mul\n      not\n      and\n      swap1\n      dup4\n      iszero\n      iszero\n      mul\n      or\n      swap1\n      sstore\n      pop\n      swap1\n      pop\n      pop\n        /* \"contracts/MyProject.sol\":5884:5885  1 */\n      0x01\n        /* \"contracts/MyProject.sol\":5879:5881  id */\n      dup2\n        /* \"contracts/MyProject.sol\":5879:5885  id + 1 */\n      tag_185\n      swap2\n      swap1\n      tag_163\n      jump\t// in\n    tag_185:\n        /* \"contracts/MyProject.sol\":5870:5876  nextId */\n      0x03\n        /* \"contracts/MyProject.sol\":5870:5885  nextId = id + 1 */\n      dup2\n      swap1\n      sstore\n      pop\n        /* \"contracts/MyProject.sol\":5960:5969  recipient */\n      dup7\n        /* \"contracts/MyProject.sol\":5901:5987  Deposited(id, msg.sender, token, amountExpected, received, recipient, unlockTimestamp) */\n      0xffffffffffffffffffffffffffffffffffffffff\n      and\n        /* \"contracts/MyProject.sol\":5915:5925  msg.sender */\n      caller\n        /* \"contracts/MyProject.sol\":5901:5987  Deposited(id, msg.sender, token, amountExpected, received, recipient, unlockTimestamp) */\n      0xffffffffffffffffffffffffffffffffffffffff\n      and\n        /* \"contracts/MyProject.sol\":5911:5913  id */\n      dup3\n        /* \"contracts/MyProject.sol\":5901:5987  Deposited(id, msg.sender, token, amountExpected, received, recipient, unlockTimestamp) */\n      0x07d069ee8068ff01364b4b02716d89f761325428c736a508dcadbe0def557dca\n        /* \"contracts/MyProject.sol\":5927:5932  token */\n      dup13\n        /* \"contracts/MyProject.sol\":5934:5948  amountExpected */\n      dup13\n        /* \"contracts/MyProject.sol\":5950:5958  received */\n      dup8\n        /* \"contracts/MyProject.sol\":5971:5986  unlockTimestamp */\n      dup13\n        /* \"contracts/MyProject.sol\":5901:5987  Deposited(id, msg.sender, token, amountExpected, received, recipient, unlockTimestamp) */\n      mload(0x40)\n      tag_186\n      swap5\n      swap4\n      swap3\n      swap2\n      swap1\n      tag_187\n      jump\t// in\n    tag_186:\n      mload(0x40)\n      dup1\n      swap2\n      sub\n      swap1\n      log4\n        /* \"contracts/MyProject.sol\":6004:6006  id */\n      dup1\n        /* \"contracts/MyProject.sol\":5997:6006  return id */\n      swap5\n      pop\n      pop\n      pop\n      pop\n      pop\n        /* \"contracts/MyProject.sol\":4591:6013  function deposit(... */\n      swap5\n      swap4\n      pop\n      pop\n      pop\n      pop\n      jump\t// out\n        /* \"contracts/MyProject.sol\":2751:2955  function transferOwnership(address newOwner) public onlyOwner {... */\n    tag_77:\n        /* \"contracts/MyProject.sol\":2706:2712  _owner */\n      0x00\n      0x00\n      swap1\n      sload\n      swap1\n      0x0100\n      exp\n      swap1\n      div\n      0xffffffffffffffffffffffffffffffffffffffff\n      and\n        /* \"contracts/MyProject.sol\":2692:2712  msg.sender == _owner */\n      0xffffffffffffffffffffffffffffffffffffffff\n      and\n        /* \"contracts/MyProject.sol\":2692:2702  msg.sender */\n      caller\n        /* \"contracts/MyProject.sol\":2692:2712  msg.sender == _owner */\n      0xffffffffffffffffffffffffffffffffffffffff\n      and\n      eq\n        /* \"contracts/MyProject.sol\":2684:2727  require(msg.sender == _owner, \"only owner\") */\n      tag_189\n      jumpi\n      mload(0x40)\n      0x08c379a000000000000000000000000000000000000000000000000000000000\n      dup2\n      mstore\n      0x04\n      add\n      tag_190\n      swap1\n      tag_120\n      jump\t// in\n    tag_190:\n      mload(0x40)\n      dup1\n      swap2\n      sub\n      swap1\n      revert\n    tag_189:\n        /* \"contracts/MyProject.sol\":2851:2852  0 */\n      0x00\n        /* \"contracts/MyProject.sol\":2831:2853  newOwner != address(0) */\n      0xffffffffffffffffffffffffffffffffffffffff\n      and\n        /* \"contracts/MyProject.sol\":2831:2839  newOwner */\n      dup2\n        /* \"contracts/MyProject.sol\":2831:2853  newOwner != address(0) */\n      0xffffffffffffffffffffffffffffffffffffffff\n      and\n      sub\n        /* \"contracts/MyProject.sol\":2823:2868  require(newOwner != address(0), \"zero owner\") */\n      tag_192\n      jumpi\n      mload(0x40)\n      0x08c379a000000000000000000000000000000000000000000000000000000000\n      dup2\n      mstore\n      0x04\n      add\n      tag_193\n      swap1\n      tag_194\n      jump\t// in\n    tag_193:\n      mload(0x40)\n      dup1\n      swap2\n      sub\n      swap1\n      revert\n    tag_192:\n        /* \"contracts/MyProject.sol\":2912:2920  newOwner */\n      dup1\n        /* \"contracts/MyProject.sol\":2883:2921  OwnershipTransferred(_owner, newOwner) */\n      0xffffffffffffffffffffffffffffffffffffffff\n      and\n        /* \"contracts/MyProject.sol\":2904:2910  _owner */\n      0x00\n      0x00\n      swap1\n      sload\n      swap1\n      0x0100\n      exp\n      swap1\n      div\n      0xffffffffffffffffffffffffffffffffffffffff\n      and\n        /* \"contracts/MyProject.sol\":2883:2921  OwnershipTransferred(_owner, newOwner) */\n      0xffffffffffffffffffffffffffffffffffffffff\n      and\n      0x8be0079c531659141344cd1fd0a4f28419497f9722a3daafe3b4186f6b6457e0\n      mload(0x40)\n      mload(0x40)\n      dup1\n      swap2\n      sub\n      swap1\n      log3\n        /* \"contracts/MyProject.sol\":2940:2948  newOwner */\n      dup1\n        /* \"contracts/MyProject.sol\":2931:2937  _owner */\n      0x00\n      0x00\n        /* \"contracts/MyProject.sol\":2931:2948  _owner = newOwner */\n      0x0100\n      exp\n      dup2\n      sload\n      dup2\n      0xffffffffffffffffffffffffffffffffffffffff\n      mul\n      not\n      and\n      swap1\n      dup4\n      0xffffffffffffffffffffffffffffffffffffffff\n      and\n      mul\n      or\n      swap1\n      sstore\n      pop\n        /* \"contracts/MyProject.sol\":2751:2955  function transferOwnership(address newOwner) public onlyOwner {... */\n      pop\n      jump\t// out\n        /* \"contracts/MyProject.sol\":1702:1879  function safeTransfer(address token, address to, uint256 value) internal {... */\n    tag_112:\n        /* \"contracts/MyProject.sol\":1785:1872  _callOptionalReturn(token, abi.encodeWithSelector(IERC20.transfer.selector, to, value)) */\n      tag_196\n        /* \"contracts/MyProject.sol\":1805:1810  token */\n      dup4\n        /* \"contracts/MyProject.sol\":1835:1859  IERC20.transfer.selector */\n      shl(0xe0, 0xa9059cbb)\n        /* \"contracts/MyProject.sol\":1861:1863  to */\n      dup5\n        /* \"contracts/MyProject.sol\":1865:1870  value */\n      dup5\n        /* \"contracts/MyProject.sol\":1812:1871  abi.encodeWithSelector(IERC20.transfer.selector, to, value) */\n      add(0x24, mload(0x40))\n      tag_197\n      swap3\n      swap2\n      swap1\n      tag_198\n      jump\t// in\n    tag_197:\n      mload(0x40)\n      0x20\n      dup2\n      dup4\n      sub\n      sub\n      dup2\n      mstore\n      swap1\n      0x40\n      mstore\n      swap1\n      not(0xffffffffffffffffffffffffffffffffffffffffffffffffffffffff)\n      and\n      0x20\n      dup3\n      add\n      dup1\n      mload\n      0xffffffffffffffffffffffffffffffffffffffffffffffffffffffff\n      dup4\n      dup2\n      dup4\n      and\n      or\n      dup4\n      mstore\n      pop\n      pop\n      pop\n      pop\n        /* \"contracts/MyProject.sol\":1785:1804  _callOptionalReturn */\n      tag_199\n        /* \"contracts/MyProject.sol\":1785:1872  _callOptionalReturn(token, abi.encodeWithSelector(IERC20.transfer.selector, to, value)) */\n      jump\t// in\n    tag_196:\n        /* \"contracts/MyProject.sol\":1702:1879  function safeTransfer(address token, address to, uint256 value) internal {... */\n      pop\n      pop\n      pop\n      jump\t// out\n        /* \"contracts/MyProject.sol\":1885:2090  function safeTransferFrom(address token, address from, address to, uint256 value) internal {... */\n    tag_173:\n        /* \"contracts/MyProject.sol\":1986:2083  _callOptionalReturn(token, abi.encodeWithSelector(IERC20.transferFrom.selector, from, to, value)) */\n      tag_201\n        /* \"contracts/MyProject.sol\":2006:2011  token */\n      dup5\n        /* \"contracts/MyProject.sol\":2036:2064  IERC20.transferFrom.selector */\n      shl(0xe0, 0x23b872dd)\n        /* \"contracts/MyProject.sol\":2066:2070  from */\n      dup6\n        /* \"contracts/MyProject.sol\":2072:2074  to */\n      dup6\n        /* \"contracts/MyProject.sol\":2076:2081  value */\n      dup6\n        /* \"contracts/MyProject.sol\":2013:2082  abi.encodeWithSelector(IERC20.transferFrom.selector, from, to, value) */\n      add(0x24, mload(0x40))\n      tag_202\n      swap4\n      swap3\n      swap2\n      swap1\n      tag_203\n      jump\t// in\n    tag_202:\n      mload(0x40)\n      0x20\n      dup2\n      dup4\n      sub\n      sub\n      dup2\n      mstore\n      swap1\n      0x40\n      mstore\n      swap1\n      not(0xffffffffffffffffffffffffffffffffffffffffffffffffffffffff)\n      and\n      0x20\n      dup3\n      add\n      dup1\n      mload\n      0xffffffffffffffffffffffffffffffffffffffffffffffffffffffff\n      dup4\n      dup2\n      dup4\n      and\n      or\n      dup4\n      mstore\n      pop\n      pop\n      pop\n      pop\n        /* \"contracts/MyProject.sol\":1986:2005  _callOptionalReturn */\n      tag_199\n        /* \"contracts/MyProject.sol\":1986:2083  _callOptionalReturn(token, abi.encodeWithSelector(IERC20.transferFrom.selector, from, to, value)) */\n      jump\t// in\n    tag_201:\n        /* \"contracts/MyProject.sol\":1885:2090  function safeTransferFrom(address token, address from, address to, uint256 value) internal {... */\n      pop\n      pop\n      pop\n      pop\n      jump\t// out\n        /* \"contracts/MyProject.sol\":1241:1696  function _callOptionalReturn(address token, bytes memory data) private {... */\n    tag_199:\n        /* \"contracts/MyProject.sol\":1323:1335  bool success */\n      0x00\n        /* \"contracts/MyProject.sol\":1337:1360  bytes memory returndata */\n      0x00\n        /* \"contracts/MyProject.sol\":1364:1369  token */\n      dup4\n        /* \"contracts/MyProject.sol\":1364:1374  token.call */\n      0xffffffffffffffffffffffffffffffffffffffff\n      and\n        /* \"contracts/MyProject.sol\":1375:1379  data */\n      dup4\n        /* \"contracts/MyProject.sol\":1364:1380  token.call(data) */\n      mload(0x40)\n      tag_205\n      swap2\n      swap1\n      tag_206\n      jump\t// in\n    tag_205:\n      0x00\n      mload(0x40)\n      dup1\n      dup4\n      sub\n      dup2\n      0x00\n      dup7\n      gas\n      call\n      swap2\n      pop\n      pop\n      returndatasize\n      dup1\n      0x00\n      dup2\n      eq\n      tag_209\n      jumpi\n      mload(0x40)\n      swap2\n      pop\n      and(add(returndatasize, 0x3f), not(0x1f))\n      dup3\n      add\n      0x40\n      mstore\n      returndatasize\n      dup3\n      mstore\n      returndatasize\n      0x00\n      0x20\n      dup5\n      add\n      returndatacopy\n      jump(tag_208)\n    tag_209:\n      0x60\n      swap2\n      pop\n    tag_208:\n      pop\n        /* \"contracts/MyProject.sol\":1322:1380  (bool success, bytes memory returndata) = token.call(data) */\n      swap2\n      pop\n      swap2\n      pop\n        /* \"contracts/MyProject.sol\":1398:1405  success */\n      dup2\n        /* \"contracts/MyProject.sol\":1390:1438  require(success, \"ERC20: low-level call failed\") */\n      tag_210\n      jumpi\n      mload(0x40)\n      0x08c379a000000000000000000000000000000000000000000000000000000000\n      dup2\n      mstore\n      0x04\n      add\n      tag_211\n      swap1\n      tag_212\n      jump\t// in\n    tag_211:\n      mload(0x40)\n      dup1\n      swap2\n      sub\n      swap1\n      revert\n    tag_210:\n        /* \"contracts/MyProject.sol\":1473:1474  0 */\n      0x00\n        /* \"contracts/MyProject.sol\":1453:1463  returndata */\n      dup2\n        /* \"contracts/MyProject.sol\":1453:1470  returndata.length */\n      mload\n        /* \"contracts/MyProject.sol\":1453:1474  returndata.length > 0 */\n      gt\n        /* \"contracts/MyProject.sol\":1449:1690  if (returndata.length > 0) { // Return data is optional... */\n      iszero\n      tag_213\n      jumpi\n        /* \"contracts/MyProject.sol\":1623:1633  returndata */\n      dup1\n        /* \"contracts/MyProject.sol\":1612:1642  abi.decode(returndata, (bool)) */\n      dup1\n      0x20\n      add\n      swap1\n      mload\n      dup2\n      add\n      swap1\n      tag_214\n      swap2\n      swap1\n      tag_215\n      jump\t// in\n    tag_214:\n        /* \"contracts/MyProject.sol\":1604:1679  require(abi.decode(returndata, (bool)), \"ERC20: operation did not succeed\") */\n      tag_216\n      jumpi\n      mload(0x40)\n      0x08c379a000000000000000000000000000000000000000000000000000000000\n      dup2\n      mstore\n      0x04\n      add\n      tag_217\n      swap1\n      tag_218\n      jump\t// in\n    tag_217:\n      mload(0x40)\n      dup1\n      swap2\n      sub\n      swap1\n      revert\n    tag_216:\n        /* \"contracts/MyProject.sol\":1449:1690  if (returndata.length > 0) { // Return data is optional... */\n    tag_213:\n        /* \"contracts/MyProject.sol\":1312:1696  {... */\n      pop\n      pop\n        /* \"contracts/MyProject.sol\":1241:1696  function _callOptionalReturn(address token, bytes memory data) private {... */\n      pop\n      pop\n      jump\t// out\n    tag_79:\n      mload(0x40)\n      dup1\n      0x0100\n      add\n      0x40\n      mstore\n      dup1\n      and(0xffffffffffffffffffffffffffffffffffffffff, 0x00)\n      dup2\n      mstore\n      0x20\n      add\n      and(0xffffffffffffffffffffffffffffffffffffffff, 0x00)\n      dup2\n      mstore\n      0x20\n      add\n      0x00\n      dup2\n      mstore\n      0x20\n      add\n      0x00\n      dup2\n      mstore\n      0x20\n      add\n      and(0xffffffffffffffffffffffffffffffffffffffff, 0x00)\n      dup2\n      mstore\n      0x20\n      add\n      0x00\n      dup2\n      mstore\n      0x20\n      add\n      0x00\n      dup2\n      mstore\n      0x20\n      add\n      iszero(iszero(0x00))\n      dup2\n      mstore\n      pop\n      swap1\n      jump\t// out\n        /* \"#utility.yul\":7:84   */\n    tag_219:\n        /* \"#utility.yul\":44:51   */\n      0x00\n        /* \"#utility.yul\":73:78   */\n      dup2\n        /* \"#utility.yul\":62:78   */\n      swap1\n      pop\n        /* \"#utility.yul\":7:84   */\n      swap2\n      swap1\n      pop\n      jump\t// out\n        /* \"#utility.yul\":90:208   */\n    tag_220:\n        /* \"#utility.yul\":177:201   */\n      tag_284\n        /* \"#utility.yul\":195:200   */\n      dup2\n        /* \"#utility.yul\":177:201   */\n      tag_219\n      jump\t// in\n    tag_284:\n        /* \"#utility.yul\":172:175   */\n      dup3\n        /* \"#utility.yul\":165:202   */\n      mstore\n        /* \"#utility.yul\":90:208   */\n      pop\n      pop\n      jump\t// out\n        /* \"#utility.yul\":214:436   */\n    tag_24:\n        /* \"#utility.yul\":307:311   */\n      0x00\n        /* \"#utility.yul\":345:347   */\n      0x20\n        /* \"#utility.yul\":334:343   */\n      dup3\n        /* \"#utility.yul\":330:348   */\n      add\n        /* \"#utility.yul\":322:348   */\n      swap1\n      pop\n        /* \"#utility.yul\":358:429   */\n      tag_286\n        /* \"#utility.yul\":426:427   */\n      0x00\n        /* \"#utility.yul\":415:424   */\n      dup4\n        /* \"#utility.yul\":411:428   */\n      add\n        /* \"#utility.yul\":402:408   */\n      dup5\n        /* \"#utility.yul\":358:429   */\n      tag_220\n      jump\t// in\n    tag_286:\n        /* \"#utility.yul\":214:436   */\n      swap3\n      swap2\n      pop\n      pop\n      jump\t// out\n        /* \"#utility.yul\":523:640   */\n    tag_222:\n        /* \"#utility.yul\":632:633   */\n      0x00\n        /* \"#utility.yul\":629:630   */\n      0x00\n        /* \"#utility.yul\":622:634   */\n      revert\n        /* \"#utility.yul\":769:891   */\n    tag_224:\n        /* \"#utility.yul\":842:866   */\n      tag_291\n        /* \"#utility.yul\":860:865   */\n      dup2\n        /* \"#utility.yul\":842:866   */\n      tag_219\n      jump\t// in\n    tag_291:\n        /* \"#utility.yul\":835:840   */\n      dup2\n        /* \"#utility.yul\":832:867   */\n      eq\n        /* \"#utility.yul\":822:885   */\n      tag_292\n      jumpi\n        /* \"#utility.yul\":881:882   */\n      0x00\n        /* \"#utility.yul\":878:879   */\n      0x00\n        /* \"#utility.yul\":871:883   */\n      revert\n        /* \"#utility.yul\":822:885   */\n    tag_292:\n        /* \"#utility.yul\":769:891   */\n      pop\n      jump\t// out\n        /* \"#utility.yul\":897:1036   */\n    tag_225:\n        /* \"#utility.yul\":943:948   */\n      0x00\n        /* \"#utility.yul\":981:987   */\n      dup2\n        /* \"#utility.yul\":968:988   */\n      calldataload\n        /* \"#utility.yul\":959:988   */\n      swap1\n      pop\n        /* \"#utility.yul\":997:1030   */\n      tag_294\n        /* \"#utility.yul\":1024:1029   */\n      dup2\n        /* \"#utility.yul\":997:1030   */\n      tag_224\n      jump\t// in\n    tag_294:\n        /* \"#utility.yul\":897:1036   */\n      swap3\n      swap2\n      pop\n      pop\n      jump\t// out\n        /* \"#utility.yul\":1042:1371   */\n    tag_28:\n        /* \"#utility.yul\":1101:1107   */\n      0x00\n        /* \"#utility.yul\":1150:1152   */\n      0x20\n        /* \"#utility.yul\":1138:1147   */\n      dup3\n        /* \"#utility.yul\":1129:1136   */\n      dup5\n        /* \"#utility.yul\":1125:1148   */\n      sub\n        /* \"#utility.yul\":1121:1153   */\n      slt\n        /* \"#utility.yul\":1118:1237   */\n      iszero\n      tag_296\n      jumpi\n        /* \"#utility.yul\":1156:1235   */\n      tag_297\n      tag_222\n      jump\t// in\n    tag_297:\n        /* \"#utility.yul\":1118:1237   */\n    tag_296:\n        /* \"#utility.yul\":1276:1277   */\n      0x00\n        /* \"#utility.yul\":1301:1354   */\n      tag_298\n        /* \"#utility.yul\":1346:1353   */\n      dup5\n        /* \"#utility.yul\":1337:1343   */\n      dup3\n        /* \"#utility.yul\":1326:1335   */\n      dup6\n        /* \"#utility.yul\":1322:1344   */\n      add\n        /* \"#utility.yul\":1301:1354   */\n      tag_225\n      jump\t// in\n    tag_298:\n        /* \"#utility.yul\":1291:1354   */\n      swap2\n      pop\n        /* \"#utility.yul\":1247:1364   */\n      pop\n        /* \"#utility.yul\":1042:1371   */\n      swap3\n      swap2\n      pop\n      pop\n      jump\t// out\n        /* \"#utility.yul\":1377:1503   */\n    tag_226:\n        /* \"#utility.yul\":1414:1421   */\n      0x00\n        /* \"#utility.yul\":1454:1496   */\n      0xffffffffffffffffffffffffffffffffffffffff\n        /* \"#utility.yul\":1447:1452   */\n      dup3\n        /* \"#utility.yul\":1443:1497   */\n      and\n        /* \"#utility.yul\":1432:1497   */\n      swap1\n      pop\n        /* \"#utility.yul\":1377:1503   */\n      swap2\n      swap1\n      pop\n      jump\t// out\n        /* \"#utility.yul\":1509:1605   */\n    tag_227:\n        /* \"#utility.yul\":1546:1553   */\n      0x00\n        /* \"#utility.yul\":1575:1599   */\n      tag_301\n        /* \"#utility.yul\":1593:1598   */\n      dup3\n        /* \"#utility.yul\":1575:1599   */\n      tag_226\n      jump\t// in\n    tag_301:\n        /* \"#utility.yul\":1564:1599   */\n      swap1\n      pop\n        /* \"#utility.yul\":1509:1605   */\n      swap2\n      swap1\n      pop\n      jump\t// out\n        /* \"#utility.yul\":1611:1719   */\n    tag_228:\n        /* \"#utility.yul\":1688:1712   */\n      tag_303\n        /* \"#utility.yul\":1706:1711   */\n      dup2\n        /* \"#utility.yul\":1688:1712   */\n      tag_227\n      jump\t// in\n    tag_303:\n        /* \"#utility.yul\":1683:1686   */\n      dup3\n        /* \"#utility.yul\":1676:1713   */\n      mstore\n        /* \"#utility.yul\":1611:1719   */\n      pop\n      pop\n      jump\t// out\n        /* \"#utility.yul\":1725:1833   */\n    tag_229:\n        /* \"#utility.yul\":1802:1826   */\n      tag_305\n        /* \"#utility.yul\":1820:1825   */\n      dup2\n        /* \"#utility.yul\":1802:1826   */\n      tag_219\n      jump\t// in\n    tag_305:\n        /* \"#utility.yul\":1797:1800   */\n      dup3\n        /* \"#utility.yul\":1790:1827   */\n      mstore\n        /* \"#utility.yul\":1725:1833   */\n      pop\n      pop\n      jump\t// out\n        /* \"#utility.yul\":1839:1929   */\n    tag_230:\n        /* \"#utility.yul\":1873:1880   */\n      0x00\n        /* \"#utility.yul\":1916:1921   */\n      dup2\n        /* \"#utility.yul\":1909:1922   */\n      iszero\n        /* \"#utility.yul\":1902:1923   */\n      iszero\n        /* \"#utility.yul\":1891:1923   */\n      swap1\n      pop\n        /* \"#utility.yul\":1839:1929   */\n      swap2\n      swap1\n      pop\n      jump\t// out\n        /* \"#utility.yul\":1935:2034   */\n    tag_231:\n        /* \"#utility.yul\":2006:2027   */\n      tag_308\n        /* \"#utility.yul\":2021:2026   */\n      dup2\n        /* \"#utility.yul\":2006:2027   */\n      tag_230\n      jump\t// in\n    tag_308:\n        /* \"#utility.yul\":2001:2004   */\n      dup3\n        /* \"#utility.yul\":1994:2028   */\n      mstore\n        /* \"#utility.yul\":1935:2034   */\n      pop\n      pop\n      jump\t// out\n        /* \"#utility.yul\":2128:3721   */\n    tag_232:\n        /* \"#utility.yul\":2273:2279   */\n      0x0100\n        /* \"#utility.yul\":2268:2271   */\n      dup3\n        /* \"#utility.yul\":2264:2280   */\n      add\n        /* \"#utility.yul\":2364:2368   */\n      0x00\n        /* \"#utility.yul\":2357:2362   */\n      dup3\n        /* \"#utility.yul\":2353:2369   */\n      add\n        /* \"#utility.yul\":2347:2370   */\n      mload\n        /* \"#utility.yul\":2383:2446   */\n      tag_310\n        /* \"#utility.yul\":2440:2444   */\n      0x00\n        /* \"#utility.yul\":2435:2438   */\n      dup6\n        /* \"#utility.yul\":2431:2445   */\n      add\n        /* \"#utility.yul\":2417:2429   */\n      dup3\n        /* \"#utility.yul\":2383:2446   */\n      tag_228\n      jump\t// in\n    tag_310:\n        /* \"#utility.yul\":2290:2456   */\n      pop\n        /* \"#utility.yul\":2539:2543   */\n      0x20\n        /* \"#utility.yul\":2532:2537   */\n      dup3\n        /* \"#utility.yul\":2528:2544   */\n      add\n        /* \"#utility.yul\":2522:2545   */\n      mload\n        /* \"#utility.yul\":2558:2621   */\n      tag_311\n        /* \"#utility.yul\":2615:2619   */\n      0x20\n        /* \"#utility.yul\":2610:2613   */\n      dup6\n        /* \"#utility.yul\":2606:2620   */\n      add\n        /* \"#utility.yul\":2592:2604   */\n      dup3\n        /* \"#utility.yul\":2558:2621   */\n      tag_228\n      jump\t// in\n    tag_311:\n        /* \"#utility.yul\":2466:2631   */\n      pop\n        /* \"#utility.yul\":2723:2727   */\n      0x40\n        /* \"#utility.yul\":2716:2721   */\n      dup3\n        /* \"#utility.yul\":2712:2728   */\n      add\n        /* \"#utility.yul\":2706:2729   */\n      mload\n        /* \"#utility.yul\":2742:2805   */\n      tag_312\n        /* \"#utility.yul\":2799:2803   */\n      0x40\n        /* \"#utility.yul\":2794:2797   */\n      dup6\n        /* \"#utility.yul\":2790:2804   */\n      add\n        /* \"#utility.yul\":2776:2788   */\n      dup3\n        /* \"#utility.yul\":2742:2805   */\n      tag_229\n      jump\t// in\n    tag_312:\n        /* \"#utility.yul\":2641:2815   */\n      pop\n        /* \"#utility.yul\":2907:2911   */\n      0x60\n        /* \"#utility.yul\":2900:2905   */\n      dup3\n        /* \"#utility.yul\":2896:2912   */\n      add\n        /* \"#utility.yul\":2890:2913   */\n      mload\n        /* \"#utility.yul\":2926:2989   */\n      tag_313\n        /* \"#utility.yul\":2983:2987   */\n      0x60\n        /* \"#utility.yul\":2978:2981   */\n      dup6\n        /* \"#utility.yul\":2974:2988   */\n      add\n        /* \"#utility.yul\":2960:2972   */\n      dup3\n        /* \"#utility.yul\":2926:2989   */\n      tag_229\n      jump\t// in\n    tag_313:\n        /* \"#utility.yul\":2825:2999   */\n      pop\n        /* \"#utility.yul\":3086:3090   */\n      0x80\n        /* \"#utility.yul\":3079:3084   */\n      dup3\n        /* \"#utility.yul\":3075:3091   */\n      add\n        /* \"#utility.yul\":3069:3092   */\n      mload\n        /* \"#utility.yul\":3105:3168   */\n      tag_314\n        /* \"#utility.yul\":3162:3166   */\n      0x80\n        /* \"#utility.yul\":3157:3160   */\n      dup6\n        /* \"#utility.yul\":3153:3167   */\n      add\n        /* \"#utility.yul\":3139:3151   */\n      dup3\n        /* \"#utility.yul\":3105:3168   */\n      tag_228\n      jump\t// in\n    tag_314:\n        /* \"#utility.yul\":3009:3178   */\n      pop\n        /* \"#utility.yul\":3265:3269   */\n      0xa0\n        /* \"#utility.yul\":3258:3263   */\n      dup3\n        /* \"#utility.yul\":3254:3270   */\n      add\n        /* \"#utility.yul\":3248:3271   */\n      mload\n        /* \"#utility.yul\":3284:3347   */\n      tag_315\n        /* \"#utility.yul\":3341:3345   */\n      0xa0\n        /* \"#utility.yul\":3336:3339   */\n      dup6\n        /* \"#utility.yul\":3332:3346   */\n      add\n        /* \"#utility.yul\":3318:3330   */\n      dup3\n        /* \"#utility.yul\":3284:3347   */\n      tag_229\n      jump\t// in\n    tag_315:\n        /* \"#utility.yul\":3188:3357   */\n      pop\n        /* \"#utility.yul\":3450:3454   */\n      0xc0\n        /* \"#utility.yul\":3443:3448   */\n      dup3\n        /* \"#utility.yul\":3439:3455   */\n      add\n        /* \"#utility.yul\":3433:3456   */\n      mload\n        /* \"#utility.yul\":3469:3532   */\n      tag_316\n        /* \"#utility.yul\":3526:3530   */\n      0xc0\n        /* \"#utility.yul\":3521:3524   */\n      dup6\n        /* \"#utility.yul\":3517:3531   */\n      add\n        /* \"#utility.yul\":3503:3515   */\n      dup3\n        /* \"#utility.yul\":3469:3532   */\n      tag_229\n      jump\t// in\n    tag_316:\n        /* \"#utility.yul\":3367:3542   */\n      pop\n        /* \"#utility.yul\":3628:3632   */\n      0xe0\n        /* \"#utility.yul\":3621:3626   */\n      dup3\n        /* \"#utility.yul\":3617:3633   */\n      add\n        /* \"#utility.yul\":3611:3634   */\n      mload\n        /* \"#utility.yul\":3647:3704   */\n      tag_317\n        /* \"#utility.yul\":3698:3702   */\n      0xe0\n        /* \"#utility.yul\":3693:3696   */\n      dup6\n        /* \"#utility.yul\":3689:3703   */\n      add\n        /* \"#utility.yul\":3675:3687   */\n      dup3\n        /* \"#utility.yul\":3647:3704   */\n      tag_231\n      jump\t// in\n    tag_317:\n        /* \"#utility.yul\":3552:3714   */\n      pop\n        /* \"#utility.yul\":2242:3721   */\n      pop\n        /* \"#utility.yul\":2128:3721   */\n      pop\n      pop\n      jump\t// out\n        /* \"#utility.yul\":3727:4046   */\n    tag_31:\n        /* \"#utility.yul\":3868:3872   */\n      0x00\n        /* \"#utility.yul\":3906:3909   */\n      0x0100\n        /* \"#utility.yul\":3895:3904   */\n      dup3\n        /* \"#utility.yul\":3891:3910   */\n      add\n        /* \"#utility.yul\":3883:3910   */\n      swap1\n      pop\n        /* \"#utility.yul\":3920:4039   */\n      tag_319\n        /* \"#utility.yul\":4036:4037   */\n      0x00\n        /* \"#utility.yul\":4025:4034   */\n      dup4\n        /* \"#utility.yul\":4021:4038   */\n      add\n        /* \"#utility.yul\":4012:4018   */\n      dup5\n        /* \"#utility.yul\":3920:4039   */\n      tag_232\n      jump\t// in\n    tag_319:\n        /* \"#utility.yul\":3727:4046   */\n      swap3\n      swap2\n      pop\n      pop\n      jump\t// out\n        /* \"#utility.yul\":4052:4174   */\n    tag_233:\n        /* \"#utility.yul\":4125:4149   */\n      tag_321\n        /* \"#utility.yul\":4143:4148   */\n      dup2\n        /* \"#utility.yul\":4125:4149   */\n      tag_227\n      jump\t// in\n    tag_321:\n        /* \"#utility.yul\":4118:4123   */\n      dup2\n        /* \"#utility.yul\":4115:4150   */\n      eq\n        /* \"#utility.yul\":4105:4168   */\n      tag_322\n      jumpi\n        /* \"#utility.yul\":4164:4165   */\n      0x00\n        /* \"#utility.yul\":4161:4162   */\n      0x00\n        /* \"#utility.yul\":4154:4166   */\n      revert\n        /* \"#utility.yul\":4105:4168   */\n    tag_322:\n        /* \"#utility.yul\":4052:4174   */\n      pop\n      jump\t// out\n        /* \"#utility.yul\":4180:4319   */\n    tag_234:\n        /* \"#utility.yul\":4226:4231   */\n      0x00\n        /* \"#utility.yul\":4264:4270   */\n      dup2\n        /* \"#utility.yul\":4251:4271   */\n      calldataload\n        /* \"#utility.yul\":4242:4271   */\n      swap1\n      pop\n        /* \"#utility.yul\":4280:4313   */\n      tag_324\n        /* \"#utility.yul\":4307:4312   */\n      dup2\n        /* \"#utility.yul\":4280:4313   */\n      tag_233\n      jump\t// in\n    tag_324:\n        /* \"#utility.yul\":4180:4319   */\n      swap3\n      swap2\n      pop\n      pop\n      jump\t// out\n        /* \"#utility.yul\":4325:4799   */\n    tag_39:\n        /* \"#utility.yul\":4393:4399   */\n      0x00\n        /* \"#utility.yul\":4401:4407   */\n      0x00\n        /* \"#utility.yul\":4450:4452   */\n      0x40\n        /* \"#utility.yul\":4438:4447   */\n      dup4\n        /* \"#utility.yul\":4429:4436   */\n      dup6\n        /* \"#utility.yul\":4425:4448   */\n      sub\n        /* \"#utility.yul\":4421:4453   */\n      slt\n        /* \"#utility.yul\":4418:4537   */\n      iszero\n      tag_326\n      jumpi\n        /* \"#utility.yul\":4456:4535   */\n      tag_327\n      tag_222\n      jump\t// in\n    tag_327:\n        /* \"#utility.yul\":4418:4537   */\n    tag_326:\n        /* \"#utility.yul\":4576:4577   */\n      0x00\n        /* \"#utility.yul\":4601:4654   */\n      tag_328\n        /* \"#utility.yul\":4646:4653   */\n      dup6\n        /* \"#utility.yul\":4637:4643   */\n      dup3\n        /* \"#utility.yul\":4626:4635   */\n      dup7\n        /* \"#utility.yul\":4622:4644   */\n      add\n        /* \"#utility.yul\":4601:4654   */\n      tag_234\n      jump\t// in\n    tag_328:\n        /* \"#utility.yul\":4591:4654   */\n      swap3\n      pop\n        /* \"#utility.yul\":4547:4664   */\n      pop\n        /* \"#utility.yul\":4703:4705   */\n      0x20\n        /* \"#utility.yul\":4729:4782   */\n      tag_329\n        /* \"#utility.yul\":4774:4781   */\n      dup6\n        /* \"#utility.yul\":4765:4771   */\n      dup3\n        /* \"#utility.yul\":4754:4763   */\n      dup7\n        /* \"#utility.yul\":4750:4772   */\n      add\n        /* \"#utility.yul\":4729:4782   */\n      tag_225\n      jump\t// in\n    tag_329:\n        /* \"#utility.yul\":4719:4782   */\n      swap2\n      pop\n        /* \"#utility.yul\":4674:4792   */\n      pop\n        /* \"#utility.yul\":4325:4799   */\n      swap3\n      pop\n      swap3\n      swap1\n      pop\n      jump\t// out\n        /* \"#utility.yul\":4805:4923   */\n    tag_235:\n        /* \"#utility.yul\":4892:4916   */\n      tag_331\n        /* \"#utility.yul\":4910:4915   */\n      dup2\n        /* \"#utility.yul\":4892:4916   */\n      tag_227\n      jump\t// in\n    tag_331:\n        /* \"#utility.yul\":4887:4890   */\n      dup3\n        /* \"#utility.yul\":4880:4917   */\n      mstore\n        /* \"#utility.yul\":4805:4923   */\n      pop\n      pop\n      jump\t// out\n        /* \"#utility.yul\":4929:5038   */\n    tag_236:\n        /* \"#utility.yul\":5010:5031   */\n      tag_333\n        /* \"#utility.yul\":5025:5030   */\n      dup2\n        /* \"#utility.yul\":5010:5031   */\n      tag_230\n      jump\t// in\n    tag_333:\n        /* \"#utility.yul\":5005:5008   */\n      dup3\n        /* \"#utility.yul\":4998:5032   */\n      mstore\n        /* \"#utility.yul\":4929:5038   */\n      pop\n      pop\n      jump\t// out\n        /* \"#utility.yul\":5044:6029   */\n    tag_61:\n        /* \"#utility.yul\":5327:5331   */\n      0x00\n        /* \"#utility.yul\":5365:5368   */\n      0x0100\n        /* \"#utility.yul\":5354:5363   */\n      dup3\n        /* \"#utility.yul\":5350:5369   */\n      add\n        /* \"#utility.yul\":5342:5369   */\n      swap1\n      pop\n        /* \"#utility.yul\":5379:5450   */\n      tag_335\n        /* \"#utility.yul\":5447:5448   */\n      0x00\n        /* \"#utility.yul\":5436:5445   */\n      dup4\n        /* \"#utility.yul\":5432:5449   */\n      add\n        /* \"#utility.yul\":5423:5429   */\n      dup12\n        /* \"#utility.yul\":5379:5450   */\n      tag_235\n      jump\t// in\n    tag_335:\n        /* \"#utility.yul\":5460:5532   */\n      tag_336\n        /* \"#utility.yul\":5528:5530   */\n      0x20\n        /* \"#utility.yul\":5517:5526   */\n      dup4\n        /* \"#utility.yul\":5513:5531   */\n      add\n        /* \"#utility.yul\":5504:5510   */\n      dup11\n        /* \"#utility.yul\":5460:5532   */\n      tag_235\n      jump\t// in\n    tag_336:\n        /* \"#utility.yul\":5542:5614   */\n      tag_337\n        /* \"#utility.yul\":5610:5612   */\n      0x40\n        /* \"#utility.yul\":5599:5608   */\n      dup4\n        /* \"#utility.yul\":5595:5613   */\n      add\n        /* \"#utility.yul\":5586:5592   */\n      dup10\n        /* \"#utility.yul\":5542:5614   */\n      tag_220\n      jump\t// in\n    tag_337:\n        /* \"#utility.yul\":5624:5696   */\n      tag_338\n        /* \"#utility.yul\":5692:5694   */\n      0x60\n        /* \"#utility.yul\":5681:5690   */\n      dup4\n        /* \"#utility.yul\":5677:5695   */\n      add\n        /* \"#utility.yul\":5668:5674   */\n      dup9\n        /* \"#utility.yul\":5624:5696   */\n      tag_220\n      jump\t// in\n    tag_338:\n        /* \"#utility.yul\":5706:5779   */\n      tag_339\n        /* \"#utility.yul\":5774:5777   */\n      0x80\n        /* \"#utility.yul\":5763:5772   */\n      dup4\n        /* \"#utility.yul\":5759:5778   */\n      add\n        /* \"#utility.yul\":5750:5756   */\n      dup8\n        /* \"#utility.yul\":5706:5779   */\n      tag_235\n      jump\t// in\n    tag_339:\n        /* \"#utility.yul\":5789:5862   */\n      tag_340\n        /* \"#utility.yul\":5857:5860   */\n      0xa0\n        /* \"#utility.yul\":5846:5855   */\n      dup4\n        /* \"#utility.yul\":5842:5861   */\n      add\n        /* \"#utility.yul\":5833:5839   */\n      dup7\n        /* \"#utility.yul\":5789:5862   */\n      tag_220\n      jump\t// in\n    tag_340:\n        /* \"#utility.yul\":5872:5945   */\n      tag_341\n        /* \"#utility.yul\":5940:5943   */\n      0xc0\n        /* \"#utility.yul\":5929:5938   */\n      dup4\n        /* \"#utility.yul\":5925:5944   */\n      add\n        /* \"#utility.yul\":5916:5922   */\n      dup6\n        /* \"#utility.yul\":5872:5945   */\n      tag_220\n      jump\t// in\n    tag_341:\n        /* \"#utility.yul\":5955:6022   */\n      tag_342\n        /* \"#utility.yul\":6017:6020   */\n      0xe0\n        /* \"#utility.yul\":6006:6015   */\n      dup4\n        /* \"#utility.yul\":6002:6021   */\n      add\n        /* \"#utility.yul\":5993:5999   */\n      dup5\n        /* \"#utility.yul\":5955:6022   */\n      tag_236\n      jump\t// in\n    tag_342:\n        /* \"#utility.yul\":5044:6029   */\n      swap10\n      swap9\n      pop\n      pop\n      pop\n      pop\n      pop\n      pop\n      pop\n      pop\n      pop\n      jump\t// out\n        /* \"#utility.yul\":6035:6257   */\n    tag_66:\n        /* \"#utility.yul\":6128:6132   */\n      0x00\n        /* \"#utility.yul\":6166:6168   */\n      0x20\n        /* \"#utility.yul\":6155:6164   */\n      dup3\n        /* \"#utility.yul\":6151:6169   */\n      add\n        /* \"#utility.yul\":6143:6169   */\n      swap1\n      pop\n        /* \"#utility.yul\":6179:6250   */\n      tag_344\n        /* \"#utility.yul\":6247:6248   */\n      0x00\n        /* \"#utility.yul\":6236:6245   */\n      dup4\n        /* \"#utility.yul\":6232:6249   */\n      add\n        /* \"#utility.yul\":6223:6229   */\n      dup5\n        /* \"#utility.yul\":6179:6250   */\n      tag_235\n      jump\t// in\n    tag_344:\n        /* \"#utility.yul\":6035:6257   */\n      swap3\n      swap2\n      pop\n      pop\n      jump\t// out\n        /* \"#utility.yul\":6263:7028   */\n    tag_70:\n        /* \"#utility.yul\":6349:6355   */\n      0x00\n        /* \"#utility.yul\":6357:6363   */\n      0x00\n        /* \"#utility.yul\":6365:6371   */\n      0x00\n        /* \"#utility.yul\":6373:6379   */\n      0x00\n        /* \"#utility.yul\":6422:6425   */\n      0x80\n        /* \"#utility.yul\":6410:6419   */\n      dup6\n        /* \"#utility.yul\":6401:6408   */\n      dup8\n        /* \"#utility.yul\":6397:6420   */\n      sub\n        /* \"#utility.yul\":6393:6426   */\n      slt\n        /* \"#utility.yul\":6390:6510   */\n      iszero\n      tag_346\n      jumpi\n        /* \"#utility.yul\":6429:6508   */\n      tag_347\n      tag_222\n      jump\t// in\n    tag_347:\n        /* \"#utility.yul\":6390:6510   */\n    tag_346:\n        /* \"#utility.yul\":6549:6550   */\n      0x00\n        /* \"#utility.yul\":6574:6627   */\n      tag_348\n        /* \"#utility.yul\":6619:6626   */\n      dup8\n        /* \"#utility.yul\":6610:6616   */\n      dup3\n        /* \"#utility.yul\":6599:6608   */\n      dup9\n        /* \"#utility.yul\":6595:6617   */\n      add\n        /* \"#utility.yul\":6574:6627   */\n      tag_234\n      jump\t// in\n    tag_348:\n        /* \"#utility.yul\":6564:6627   */\n      swap5\n      pop\n        /* \"#utility.yul\":6520:6637   */\n      pop\n        /* \"#utility.yul\":6676:6678   */\n      0x20\n        /* \"#utility.yul\":6702:6755   */\n      tag_349\n        /* \"#utility.yul\":6747:6754   */\n      dup8\n        /* \"#utility.yul\":6738:6744   */\n      dup3\n        /* \"#utility.yul\":6727:6736   */\n      dup9\n        /* \"#utility.yul\":6723:6745   */\n      add\n        /* \"#utility.yul\":6702:6755   */\n      tag_225\n      jump\t// in\n    tag_349:\n        /* \"#utility.yul\":6692:6755   */\n      swap4\n      pop\n        /* \"#utility.yul\":6647:6765   */\n      pop\n        /* \"#utility.yul\":6804:6806   */\n      0x40\n        /* \"#utility.yul\":6830:6883   */\n      tag_350\n        /* \"#utility.yul\":6875:6882   */\n      dup8\n        /* \"#utility.yul\":6866:6872   */\n      dup3\n        /* \"#utility.yul\":6855:6864   */\n      dup9\n        /* \"#utility.yul\":6851:6873   */\n      add\n        /* \"#utility.yul\":6830:6883   */\n      tag_234\n      jump\t// in\n    tag_350:\n        /* \"#utility.yul\":6820:6883   */\n      swap3\n      pop\n        /* \"#utility.yul\":6775:6893   */\n      pop\n        /* \"#utility.yul\":6932:6934   */\n      0x60\n        /* \"#utility.yul\":6958:7011   */\n      tag_351\n        /* \"#utility.yul\":7003:7010   */\n      dup8\n        /* \"#utility.yul\":6994:7000   */\n      dup3\n        /* \"#utility.yul\":6983:6992   */\n      dup9\n        /* \"#utility.yul\":6979:7001   */\n      add\n        /* \"#utility.yul\":6958:7011   */\n      tag_225\n      jump\t// in\n    tag_351:\n        /* \"#utility.yul\":6948:7011   */\n      swap2\n      pop\n        /* \"#utility.yul\":6903:7021   */\n      pop\n        /* \"#utility.yul\":6263:7028   */\n      swap3\n      swap6\n      swap2\n      swap5\n      pop\n      swap3\n      pop\n      jump\t// out\n        /* \"#utility.yul\":7034:7363   */\n    tag_76:\n        /* \"#utility.yul\":7093:7099   */\n      0x00\n        /* \"#utility.yul\":7142:7144   */\n      0x20\n        /* \"#utility.yul\":7130:7139   */\n      dup3\n        /* \"#utility.yul\":7121:7128   */\n      dup5\n        /* \"#utility.yul\":7117:7140   */\n      sub\n        /* \"#utility.yul\":7113:7145   */\n      slt\n        /* \"#utility.yul\":7110:7229   */\n      iszero\n      tag_353\n      jumpi\n        /* \"#utility.yul\":7148:7227   */\n      tag_354\n      tag_222\n      jump\t// in\n    tag_354:\n        /* \"#utility.yul\":7110:7229   */\n    tag_353:\n        /* \"#utility.yul\":7268:7269   */\n      0x00\n        /* \"#utility.yul\":7293:7346   */\n      tag_355\n        /* \"#utility.yul\":7338:7345   */\n      dup5\n        /* \"#utility.yul\":7329:7335   */\n      dup3\n        /* \"#utility.yul\":7318:7327   */\n      dup6\n        /* \"#utility.yul\":7314:7336   */\n      add\n        /* \"#utility.yul\":7293:7346   */\n      tag_234\n      jump\t// in\n    tag_355:\n        /* \"#utility.yul\":7283:7346   */\n      swap2\n      pop\n        /* \"#utility.yul\":7239:7356   */\n      pop\n        /* \"#utility.yul\":7034:7363   */\n      swap3\n      swap2\n      pop\n      pop\n      jump\t// out\n        /* \"#utility.yul\":7369:7538   */\n    tag_237:\n        /* \"#utility.yul\":7453:7464   */\n      0x00\n        /* \"#utility.yul\":7487:7493   */\n      dup3\n        /* \"#utility.yul\":7482:7485   */\n      dup3\n        /* \"#utility.yul\":7475:7494   */\n      mstore\n        /* \"#utility.yul\":7527:7531   */\n      0x20\n        /* \"#utility.yul\":7522:7525   */\n      dup3\n        /* \"#utility.yul\":7518:7532   */\n      add\n        /* \"#utility.yul\":7503:7532   */\n      swap1\n      pop\n        /* \"#utility.yul\":7369:7538   */\n      swap3\n      swap2\n      pop\n      pop\n      jump\t// out\n        /* \"#utility.yul\":7544:7703   */\n    tag_238:\n        /* \"#utility.yul\":7684:7695   */\n      0x7265656e7472616e740000000000000000000000000000000000000000000000\n        /* \"#utility.yul\":7680:7681   */\n      0x00\n        /* \"#utility.yul\":7672:7678   */\n      dup3\n        /* \"#utility.yul\":7668:7682   */\n      add\n        /* \"#utility.yul\":7661:7696   */\n      mstore\n        /* \"#utility.yul\":7544:7703   */\n      pop\n      jump\t// out\n        /* \"#utility.yul\":7709:8074   */\n    tag_239:\n        /* \"#utility.yul\":7851:7854   */\n      0x00\n        /* \"#utility.yul\":7872:7938   */\n      tag_359\n        /* \"#utility.yul\":7936:7937   */\n      0x09\n        /* \"#utility.yul\":7931:7934   */\n      dup4\n        /* \"#utility.yul\":7872:7938   */\n      tag_237\n      jump\t// in\n    tag_359:\n        /* \"#utility.yul\":7865:7938   */\n      swap2\n      pop\n        /* \"#utility.yul\":7947:8040   */\n      tag_360\n        /* \"#utility.yul\":8036:8039   */\n      dup3\n        /* \"#utility.yul\":7947:8040   */\n      tag_238\n      jump\t// in\n    tag_360:\n        /* \"#utility.yul\":8065:8067   */\n      0x20\n        /* \"#utility.yul\":8060:8063   */\n      dup3\n        /* \"#utility.yul\":8056:8068   */\n      add\n        /* \"#utility.yul\":8049:8068   */\n      swap1\n      pop\n        /* \"#utility.yul\":7709:8074   */\n      swap2\n      swap1\n      pop\n      jump\t// out\n        /* \"#utility.yul\":8080:8499   */\n    tag_84:\n        /* \"#utility.yul\":8246:8250   */\n      0x00\n        /* \"#utility.yul\":8284:8286   */\n      0x20\n        /* \"#utility.yul\":8273:8282   */\n      dup3\n        /* \"#utility.yul\":8269:8287   */\n      add\n        /* \"#utility.yul\":8261:8287   */\n      swap1\n      pop\n        /* \"#utility.yul\":8333:8342   */\n      dup2\n        /* \"#utility.yul\":8327:8331   */\n      dup2\n        /* \"#utility.yul\":8323:8343   */\n      sub\n        /* \"#utility.yul\":8319:8320   */\n      0x00\n        /* \"#utility.yul\":8308:8317   */\n      dup4\n        /* \"#utility.yul\":8304:8321   */\n      add\n        /* \"#utility.yul\":8297:8344   */\n      mstore\n        /* \"#utility.yul\":8361:8492   */\n      tag_362\n        /* \"#utility.yul\":8487:8491   */\n      dup2\n        /* \"#utility.yul\":8361:8492   */\n      tag_239\n      jump\t// in\n    tag_362:\n        /* \"#utility.yul\":8353:8492   */\n      swap1\n      pop\n        /* \"#utility.yul\":8080:8499   */\n      swap2\n      swap1\n      pop\n      jump\t// out\n        /* \"#utility.yul\":8505:8672   */\n    tag_240:\n        /* \"#utility.yul\":8645:8664   */\n      0x6e6f7420666f756e64206f72207a65726f000000000000000000000000000000\n        /* \"#utility.yul\":8641:8642   */\n      0x00\n        /* \"#utility.yul\":8633:8639   */\n      dup3\n        /* \"#utility.yul\":8629:8643   */\n      add\n        /* \"#utility.yul\":8622:8665   */\n      mstore\n        /* \"#utility.yul\":8505:8672   */\n      pop\n      jump\t// out\n        /* \"#utility.yul\":8678:9044   */\n    tag_241:\n        /* \"#utility.yul\":8820:8823   */\n      0x00\n        /* \"#utility.yul\":8841:8908   */\n      tag_365\n        /* \"#utility.yul\":8905:8907   */\n      0x11\n        /* \"#utility.yul\":8900:8903   */\n      dup4\n        /* \"#utility.yul\":8841:8908   */\n      tag_237\n      jump\t// in\n    tag_365:\n        /* \"#utility.yul\":8834:8908   */\n      swap2\n      pop\n        /* \"#utility.yul\":8917:9010   */\n      tag_366\n        /* \"#utility.yul\":9006:9009   */\n      dup3\n        /* \"#utility.yul\":8917:9010   */\n      tag_240\n      jump\t// in\n    tag_366:\n        /* \"#utility.yul\":9035:9037   */\n      0x20\n        /* \"#utility.yul\":9030:9033   */\n      dup3\n        /* \"#utility.yul\":9026:9038   */\n      add\n        /* \"#utility.yul\":9019:9038   */\n      swap1\n      pop\n        /* \"#utility.yul\":8678:9044   */\n      swap2\n      swap1\n      pop\n      jump\t// out\n        /* \"#utility.yul\":9050:9469   */\n    tag_88:\n        /* \"#utility.yul\":9216:9220   */\n      0x00\n        /* \"#utility.yul\":9254:9256   */\n      0x20\n        /* \"#utility.yul\":9243:9252   */\n      dup3\n        /* \"#utility.yul\":9239:9257   */\n      add\n        /* \"#utility.yul\":9231:9257   */\n      swap1\n      pop\n        /* \"#utility.yul\":9303:9312   */\n      dup2\n        /* \"#utility.yul\":9297:9301   */\n      dup2\n        /* \"#utility.yul\":9293:9313   */\n      sub\n        /* \"#utility.yul\":9289:9290   */\n      0x00\n        /* \"#utility.yul\":9278:9287   */\n      dup4\n        /* \"#utility.yul\":9274:9291   */\n      add\n        /* \"#utility.yul\":9267:9314   */\n      mstore\n        /* \"#utility.yul\":9331:9462   */\n      tag_368\n        /* \"#utility.yul\":9457:9461   */\n      dup2\n        /* \"#utility.yul\":9331:9462   */\n      tag_241\n      jump\t// in\n    tag_368:\n        /* \"#utility.yul\":9323:9462   */\n      swap1\n      pop\n        /* \"#utility.yul\":9050:9469   */\n      swap2\n      swap1\n      pop\n      jump\t// out\n        /* \"#utility.yul\":9475:9641   */\n    tag_242:\n        /* \"#utility.yul\":9615:9633   */\n      0x616c72656164792072656c656173656400000000000000000000000000000000\n        /* \"#utility.yul\":9611:9612   */\n      0x00\n        /* \"#utility.yul\":9603:9609   */\n      dup3\n        /* \"#utility.yul\":9599:9613   */\n      add\n        /* \"#utility.yul\":9592:9634   */\n      mstore\n        /* \"#utility.yul\":9475:9641   */\n      pop\n      jump\t// out\n        /* \"#utility.yul\":9647:10013   */\n    tag_243:\n        /* \"#utility.yul\":9789:9792   */\n      0x00\n        /* \"#utility.yul\":9810:9877   */\n      tag_371\n        /* \"#utility.yul\":9874:9876   */\n      0x10\n        /* \"#utility.yul\":9869:9872   */\n      dup4\n        /* \"#utility.yul\":9810:9877   */\n      tag_237\n      jump\t// in\n    tag_371:\n        /* \"#utility.yul\":9803:9877   */\n      swap2\n      pop\n        /* \"#utility.yul\":9886:9979   */\n      tag_372\n        /* \"#utility.yul\":9975:9978   */\n      dup3\n        /* \"#utility.yul\":9886:9979   */\n      tag_242\n      jump\t// in\n    tag_372:\n        /* \"#utility.yul\":10004:10006   */\n      0x20\n        /* \"#utility.yul\":9999:10002   */\n      dup3\n        /* \"#utility.yul\":9995:10007   */\n      add\n        /* \"#utility.yul\":9988:10007   */\n      swap1\n      pop\n        /* \"#utility.yul\":9647:10013   */\n      swap2\n      swap1\n      pop\n      jump\t// out\n        /* \"#utility.yul\":10019:10438   */\n    tag_91:\n        /* \"#utility.yul\":10185:10189   */\n      0x00\n        /* \"#utility.yul\":10223:10225   */\n      0x20\n        /* \"#utility.yul\":10212:10221   */\n      dup3\n        /* \"#utility.yul\":10208:10226   */\n      add\n        /* \"#utility.yul\":10200:10226   */\n      swap1\n      pop\n        /* \"#utility.yul\":10272:10281   */\n      dup2\n        /* \"#utility.yul\":10266:10270   */\n      dup2\n        /* \"#utility.yul\":10262:10282   */\n      sub\n        /* \"#utility.yul\":10258:10259   */\n      0x00\n        /* \"#utility.yul\":10247:10256   */\n      dup4\n        /* \"#utility.yul\":10243:10260   */\n      add\n        /* \"#utility.yul\":10236:10283   */\n      mstore\n        /* \"#utility.yul\":10300:10431   */\n      tag_374\n        /* \"#utility.yul\":10426:10430   */\n      dup2\n        /* \"#utility.yul\":10300:10431   */\n      tag_243\n      jump\t// in\n    tag_374:\n        /* \"#utility.yul\":10292:10431   */\n      swap1\n      pop\n        /* \"#utility.yul\":10019:10438   */\n      swap2\n      swap1\n      pop\n      jump\t// out\n        /* \"#utility.yul\":10444:10608   */\n    tag_244:\n        /* \"#utility.yul\":10584:10600   */\n      0x6e6f7420617574686f72697a6564000000000000000000000000000000000000\n        /* \"#utility.yul\":10580:10581   */\n      0x00\n        /* \"#utility.yul\":10572:10578   */\n      dup3\n        /* \"#utility.yul\":10568:10582   */\n      add\n        /* \"#utility.yul\":10561:10601   */\n      mstore\n        /* \"#utility.yul\":10444:10608   */\n      pop\n      jump\t// out\n        /* \"#utility.yul\":10614:10980   */\n    tag_245:\n        /* \"#utility.yul\":10756:10759   */\n      0x00\n        /* \"#utility.yul\":10777:10844   */\n      tag_377\n        /* \"#utility.yul\":10841:10843   */\n      0x0e\n        /* \"#utility.yul\":10836:10839   */\n      dup4\n        /* \"#utility.yul\":10777:10844   */\n      tag_237\n      jump\t// in\n    tag_377:\n        /* \"#utility.yul\":10770:10844   */\n      swap2\n      pop\n        /* \"#utility.yul\":10853:10946   */\n      tag_378\n        /* \"#utility.yul\":10942:10945   */\n      dup3\n        /* \"#utility.yul\":10853:10946   */\n      tag_244\n      jump\t// in\n    tag_378:\n        /* \"#utility.yul\":10971:10973   */\n      0x20\n        /* \"#utility.yul\":10966:10969   */\n      dup3\n        /* \"#utility.yul\":10962:10974   */\n      add\n        /* \"#utility.yul\":10955:10974   */\n      swap1\n      pop\n        /* \"#utility.yul\":10614:10980   */\n      swap2\n      swap1\n      pop\n      jump\t// out\n        /* \"#utility.yul\":10986:11405   */\n    tag_98:\n        /* \"#utility.yul\":11152:11156   */\n      0x00\n        /* \"#utility.yul\":11190:11192   */\n      0x20\n        /* \"#utility.yul\":11179:11188   */\n      dup3\n        /* \"#utility.yul\":11175:11193   */\n      add\n        /* \"#utility.yul\":11167:11193   */\n      swap1\n      pop\n        /* \"#utility.yul\":11239:11248   */\n      dup2\n        /* \"#utility.yul\":11233:11237   */\n      dup2\n        /* \"#utility.yul\":11229:11249   */\n      sub\n        /* \"#utility.yul\":11225:11226   */\n      0x00\n        /* \"#utility.yul\":11214:11223   */\n      dup4\n        /* \"#utility.yul\":11210:11227   */\n      add\n        /* \"#utility.yul\":11203:11250   */\n      mstore\n        /* \"#utility.yul\":11267:11398   */\n      tag_380\n        /* \"#utility.yul\":11393:11397   */\n      dup2\n        /* \"#utility.yul\":11267:11398   */\n      tag_245\n      jump\t// in\n    tag_380:\n        /* \"#utility.yul\":11259:11398   */\n      swap1\n      pop\n        /* \"#utility.yul\":10986:11405   */\n      swap2\n      swap1\n      pop\n      jump\t// out\n        /* \"#utility.yul\":11411:11591   */\n    tag_246:\n        /* \"#utility.yul\":11459:11536   */\n      0x4e487b7100000000000000000000000000000000000000000000000000000000\n        /* \"#utility.yul\":11456:11457   */\n      0x00\n        /* \"#utility.yul\":11449:11537   */\n      mstore\n        /* \"#utility.yul\":11556:11560   */\n      0x12\n        /* \"#utility.yul\":11553:11554   */\n      0x04\n        /* \"#utility.yul\":11546:11561   */\n      mstore\n        /* \"#utility.yul\":11580:11584   */\n      0x24\n        /* \"#utility.yul\":11577:11578   */\n      0x00\n        /* \"#utility.yul\":11570:11585   */\n      revert\n        /* \"#utility.yul\":11597:11777   */\n    tag_247:\n        /* \"#utility.yul\":11645:11722   */\n      0x4e487b7100000000000000000000000000000000000000000000000000000000\n        /* \"#utility.yul\":11642:11643   */\n      0x00\n        /* \"#utility.yul\":11635:11723   */\n      mstore\n        /* \"#utility.yul\":11742:11746   */\n      0x11\n        /* \"#utility.yul\":11739:11740   */\n      0x04\n        /* \"#utility.yul\":11732:11747   */\n      mstore\n        /* \"#utility.yul\":11766:11770   */\n      0x24\n        /* \"#utility.yul\":11763:11764   */\n      0x00\n        /* \"#utility.yul\":11756:11771   */\n      revert\n        /* \"#utility.yul\":11783:11968   */\n    tag_102:\n        /* \"#utility.yul\":11823:11824   */\n      0x00\n        /* \"#utility.yul\":11840:11860   */\n      tag_384\n        /* \"#utility.yul\":11858:11859   */\n      dup3\n        /* \"#utility.yul\":11840:11860   */\n      tag_219\n      jump\t// in\n    tag_384:\n        /* \"#utility.yul\":11835:11860   */\n      swap2\n      pop\n        /* \"#utility.yul\":11874:11894   */\n      tag_385\n        /* \"#utility.yul\":11892:11893   */\n      dup4\n        /* \"#utility.yul\":11874:11894   */\n      tag_219\n      jump\t// in\n    tag_385:\n        /* \"#utility.yul\":11869:11894   */\n      swap3\n      pop\n        /* \"#utility.yul\":11913:11914   */\n      dup3\n        /* \"#utility.yul\":11903:11938   */\n      tag_386\n      jumpi\n        /* \"#utility.yul\":11918:11936   */\n      tag_387\n      tag_246\n      jump\t// in\n    tag_387:\n        /* \"#utility.yul\":11903:11938   */\n    tag_386:\n        /* \"#utility.yul\":11960:11961   */\n      dup3\n        /* \"#utility.yul\":11957:11958   */\n      dup3\n        /* \"#utility.yul\":11953:11962   */\n      div\n        /* \"#utility.yul\":11948:11962   */\n      swap1\n      pop\n        /* \"#utility.yul\":11783:11968   */\n      swap3\n      swap2\n      pop\n      pop\n      jump\t// out\n        /* \"#utility.yul\":11974:12141   */\n    tag_248:\n        /* \"#utility.yul\":12114:12133   */\n      0x6665652063616c63206f766572666c6f77000000000000000000000000000000\n        /* \"#utility.yul\":12110:12111   */\n      0x00\n        /* \"#utility.yul\":12102:12108   */\n      dup3\n        /* \"#utility.yul\":12098:12112   */\n      add\n        /* \"#utility.yul\":12091:12134   */\n      mstore\n        /* \"#utility.yul\":11974:12141   */\n      pop\n      jump\t// out\n        /* \"#utility.yul\":12147:12513   */\n    tag_249:\n        /* \"#utility.yul\":12289:12292   */\n      0x00\n        /* \"#utility.yul\":12310:12377   */\n      tag_390\n        /* \"#utility.yul\":12374:12376   */\n      0x11\n        /* \"#utility.yul\":12369:12372   */\n      dup4\n        /* \"#utility.yul\":12310:12377   */\n      tag_237\n      jump\t// in\n    tag_390:\n        /* \"#utility.yul\":12303:12377   */\n      swap2\n      pop\n        /* \"#utility.yul\":12386:12479   */\n      tag_391\n        /* \"#utility.yul\":12475:12478   */\n      dup3\n        /* \"#utility.yul\":12386:12479   */\n      tag_248\n      jump\t// in\n    tag_391:\n        /* \"#utility.yul\":12504:12506   */\n      0x20\n        /* \"#utility.yul\":12499:12502   */\n      dup3\n        /* \"#utility.yul\":12495:12507   */\n      add\n        /* \"#utility.yul\":12488:12507   */\n      swap1\n      pop\n        /* \"#utility.yul\":12147:12513   */\n      swap2\n      swap1\n      pop\n      jump\t// out\n        /* \"#utility.yul\":12519:12938   */\n    tag_105:\n        /* \"#utility.yul\":12685:12689   */\n      0x00\n        /* \"#utility.yul\":12723:12725   */\n      0x20\n        /* \"#utility.yul\":12712:12721   */\n      dup3\n        /* \"#utility.yul\":12708:12726   */\n      add\n        /* \"#utility.yul\":12700:12726   */\n      swap1\n      pop\n        /* \"#utility.yul\":12772:12781   */\n      dup2\n        /* \"#utility.yul\":12766:12770   */\n      dup2\n        /* \"#utility.yul\":12762:12782   */\n      sub\n        /* \"#utility.yul\":12758:12759   */\n      0x00\n        /* \"#utility.yul\":12747:12756   */\n      dup4\n        /* \"#utility.yul\":12743:12760   */\n      add\n        /* \"#utility.yul\":12736:12783   */\n      mstore\n        /* \"#utility.yul\":12800:12931   */\n      tag_393\n        /* \"#utility.yul\":12926:12930   */\n      dup2\n        /* \"#utility.yul\":12800:12931   */\n      tag_249\n      jump\t// in\n    tag_393:\n        /* \"#utility.yul\":12792:12931   */\n      swap1\n      pop\n        /* \"#utility.yul\":12519:12938   */\n      swap2\n      swap1\n      pop\n      jump\t// out\n        /* \"#utility.yul\":12944:13354   */\n    tag_107:\n        /* \"#utility.yul\":12984:12991   */\n      0x00\n        /* \"#utility.yul\":13007:13027   */\n      tag_395\n        /* \"#utility.yul\":13025:13026   */\n      dup3\n        /* \"#utility.yul\":13007:13027   */\n      tag_219\n      jump\t// in\n    tag_395:\n        /* \"#utility.yul\":13002:13027   */\n      swap2\n      pop\n        /* \"#utility.yul\":13041:13061   */\n      tag_396\n        /* \"#utility.yul\":13059:13060   */\n      dup4\n        /* \"#utility.yul\":13041:13061   */\n      tag_219\n      jump\t// in\n    tag_396:\n        /* \"#utility.yul\":13036:13061   */\n      swap3\n      pop\n        /* \"#utility.yul\":13096:13097   */\n      dup3\n        /* \"#utility.yul\":13093:13094   */\n      dup3\n        /* \"#utility.yul\":13089:13098   */\n      mul\n        /* \"#utility.yul\":13118:13148   */\n      tag_397\n        /* \"#utility.yul\":13136:13147   */\n      dup2\n        /* \"#utility.yul\":13118:13148   */\n      tag_219\n      jump\t// in\n    tag_397:\n        /* \"#utility.yul\":13107:13148   */\n      swap2\n      pop\n        /* \"#utility.yul\":13297:13298   */\n      dup3\n        /* \"#utility.yul\":13288:13295   */\n      dup3\n        /* \"#utility.yul\":13284:13299   */\n      div\n        /* \"#utility.yul\":13281:13282   */\n      dup5\n        /* \"#utility.yul\":13278:13300   */\n      eq\n        /* \"#utility.yul\":13258:13259   */\n      dup4\n        /* \"#utility.yul\":13251:13260   */\n      iszero\n        /* \"#utility.yul\":13231:13314   */\n      or\n        /* \"#utility.yul\":13208:13347   */\n      tag_398\n      jumpi\n        /* \"#utility.yul\":13327:13345   */\n      tag_399\n      tag_247\n      jump\t// in\n    tag_399:\n        /* \"#utility.yul\":13208:13347   */\n    tag_398:\n        /* \"#utility.yul\":12992:13354   */\n      pop\n        /* \"#utility.yul\":12944:13354   */\n      swap3\n      swap2\n      pop\n      pop\n      jump\t// out\n        /* \"#utility.yul\":13360:13554   */\n    tag_110:\n        /* \"#utility.yul\":13400:13404   */\n      0x00\n        /* \"#utility.yul\":13420:13440   */\n      tag_401\n        /* \"#utility.yul\":13438:13439   */\n      dup3\n        /* \"#utility.yul\":13420:13440   */\n      tag_219\n      jump\t// in\n    tag_401:\n        /* \"#utility.yul\":13415:13440   */\n      swap2\n      pop\n        /* \"#utility.yul\":13454:13474   */\n      tag_402\n        /* \"#utility.yul\":13472:13473   */\n      dup4\n        /* \"#utility.yul\":13454:13474   */\n      tag_219\n      jump\t// in\n    tag_402:\n        /* \"#utility.yul\":13449:13474   */\n      swap3\n      pop\n        /* \"#utility.yul\":13498:13499   */\n      dup3\n        /* \"#utility.yul\":13495:13496   */\n      dup3\n        /* \"#utility.yul\":13491:13500   */\n      sub\n        /* \"#utility.yul\":13483:13500   */\n      swap1\n      pop\n        /* \"#utility.yul\":13522:13523   */\n      dup2\n        /* \"#utility.yul\":13516:13520   */\n      dup2\n        /* \"#utility.yul\":13513:13524   */\n      gt\n        /* \"#utility.yul\":13510:13547   */\n      iszero\n      tag_403\n      jumpi\n        /* \"#utility.yul\":13527:13545   */\n      tag_404\n      tag_247\n      jump\t// in\n    tag_404:\n        /* \"#utility.yul\":13510:13547   */\n    tag_403:\n        /* \"#utility.yul\":13360:13554   */\n      swap3\n      swap2\n      pop\n      pop\n      jump\t// out\n        /* \"#utility.yul\":13560:13720   */\n    tag_250:\n        /* \"#utility.yul\":13700:13712   */\n      0x6f6e6c79206f776e657200000000000000000000000000000000000000000000\n        /* \"#utility.yul\":13696:13697   */\n      0x00\n        /* \"#utility.yul\":13688:13694   */\n      dup3\n        /* \"#utility.yul\":13684:13698   */\n      add\n        /* \"#utility.yul\":13677:13713   */\n      mstore\n        /* \"#utility.yul\":13560:13720   */\n      pop\n      jump\t// out\n        /* \"#utility.yul\":13726:14092   */\n    tag_251:\n        /* \"#utility.yul\":13868:13871   */\n      0x00\n        /* \"#utility.yul\":13889:13956   */\n      tag_407\n        /* \"#utility.yul\":13953:13955   */\n      0x0a\n        /* \"#utility.yul\":13948:13951   */\n      dup4\n        /* \"#utility.yul\":13889:13956   */\n      tag_237\n      jump\t// in\n    tag_407:\n        /* \"#utility.yul\":13882:13956   */\n      swap2\n      pop\n        /* \"#utility.yul\":13965:14058   */\n      tag_408\n        /* \"#utility.yul\":14054:14057   */\n      dup3\n        /* \"#utility.yul\":13965:14058   */\n      tag_250\n      jump\t// in\n    tag_408:\n        /* \"#utility.yul\":14083:14085   */\n      0x20\n        /* \"#utility.yul\":14078:14081   */\n      dup3\n        /* \"#utility.yul\":14074:14086   */\n      add\n        /* \"#utility.yul\":14067:14086   */\n      swap1\n      pop\n        /* \"#utility.yul\":13726:14092   */\n      swap2\n      swap1\n      pop\n      jump\t// out\n        /* \"#utility.yul\":14098:14517   */\n    tag_120:\n        /* \"#utility.yul\":14264:14268   */\n      0x00\n        /* \"#utility.yul\":14302:14304   */\n      0x20\n        /* \"#utility.yul\":14291:14300   */\n      dup3\n        /* \"#utility.yul\":14287:14305   */\n      add\n        /* \"#utility.yul\":14279:14305   */\n      swap1\n      pop\n        /* \"#utility.yul\":14351:14360   */\n      dup2\n        /* \"#utility.yul\":14345:14349   */\n      dup2\n        /* \"#utility.yul\":14341:14361   */\n      sub\n        /* \"#utility.yul\":14337:14338   */\n      0x00\n        /* \"#utility.yul\":14326:14335   */\n      dup4\n        /* \"#utility.yul\":14322:14339   */\n      add\n        /* \"#utility.yul\":14315:14362   */\n      mstore\n        /* \"#utility.yul\":14379:14510   */\n      tag_410\n        /* \"#utility.yul\":14505:14509   */\n      dup2\n        /* \"#utility.yul\":14379:14510   */\n      tag_251\n      jump\t// in\n    tag_410:\n        /* \"#utility.yul\":14371:14510   */\n      swap1\n      pop\n        /* \"#utility.yul\":14098:14517   */\n      swap2\n      swap1\n      pop\n      jump\t// out\n        /* \"#utility.yul\":14523:14683   */\n    tag_252:\n        /* \"#utility.yul\":14663:14675   */\n      0x746f6b656e207a65726f00000000000000000000000000000000000000000000\n        /* \"#utility.yul\":14659:14660   */\n      0x00\n        /* \"#utility.yul\":14651:14657   */\n      dup3\n        /* \"#utility.yul\":14647:14661   */\n      add\n        /* \"#utility.yul\":14640:14676   */\n      mstore\n        /* \"#utility.yul\":14523:14683   */\n      pop\n      jump\t// out\n        /* \"#utility.yul\":14689:15055   */\n    tag_253:\n        /* \"#utility.yul\":14831:14834   */\n      0x00\n        /* \"#utility.yul\":14852:14919   */\n      tag_413\n        /* \"#utility.yul\":14916:14918   */\n      0x0a\n        /* \"#utility.yul\":14911:14914   */\n      dup4\n        /* \"#utility.yul\":14852:14919   */\n      tag_237\n      jump\t// in\n    tag_413:\n        /* \"#utility.yul\":14845:14919   */\n      swap2\n      pop\n        /* \"#utility.yul\":14928:15021   */\n      tag_414\n        /* \"#utility.yul\":15017:15020   */\n      dup3\n        /* \"#utility.yul\":14928:15021   */\n      tag_252\n      jump\t// in\n    tag_414:\n        /* \"#utility.yul\":15046:15048   */\n      0x20\n        /* \"#utility.yul\":15041:15044   */\n      dup3\n        /* \"#utility.yul\":15037:15049   */\n      add\n        /* \"#utility.yul\":15030:15049   */\n      swap1\n      pop\n        /* \"#utility.yul\":14689:15055   */\n      swap2\n      swap1\n      pop\n      jump\t// out\n        /* \"#utility.yul\":15061:15480   */\n    tag_124:\n        /* \"#utility.yul\":15227:15231   */\n      0x00\n        /* \"#utility.yul\":15265:15267   */\n      0x20\n        /* \"#utility.yul\":15254:15263   */\n      dup3\n        /* \"#utility.yul\":15250:15268   */\n      add\n        /* \"#utility.yul\":15242:15268   */\n      swap1\n      pop\n        /* \"#utility.yul\":15314:15323   */\n      dup2\n        /* \"#utility.yul\":15308:15312   */\n      dup2\n        /* \"#utility.yul\":15304:15324   */\n      sub\n        /* \"#utility.yul\":15300:15301   */\n      0x00\n        /* \"#utility.yul\":15289:15298   */\n      dup4\n        /* \"#utility.yul\":15285:15302   */\n      add\n        /* \"#utility.yul\":15278:15325   */\n      mstore\n        /* \"#utility.yul\":15342:15473   */\n      tag_416\n        /* \"#utility.yul\":15468:15472   */\n      dup2\n        /* \"#utility.yul\":15342:15473   */\n      tag_253\n      jump\t// in\n    tag_416:\n        /* \"#utility.yul\":15334:15473   */\n      swap1\n      pop\n        /* \"#utility.yul\":15061:15480   */\n      swap2\n      swap1\n      pop\n      jump\t// out\n        /* \"#utility.yul\":15486:15649   */\n    tag_254:\n        /* \"#utility.yul\":15626:15641   */\n      0x6665654270733c3d313030303000000000000000000000000000000000000000\n        /* \"#utility.yul\":15622:15623   */\n      0x00\n        /* \"#utility.yul\":15614:15620   */\n      dup3\n        /* \"#utility.yul\":15610:15624   */\n      add\n        /* \"#utility.yul\":15603:15642   */\n      mstore\n        /* \"#utility.yul\":15486:15649   */\n      pop\n      jump\t// out\n        /* \"#utility.yul\":15655:16021   */\n    tag_255:\n        /* \"#utility.yul\":15797:15800   */\n      0x00\n        /* \"#utility.yul\":15818:15885   */\n      tag_419\n        /* \"#utility.yul\":15882:15884   */\n      0x0d\n        /* \"#utility.yul\":15877:15880   */\n      dup4\n        /* \"#utility.yul\":15818:15885   */\n      tag_237\n      jump\t// in\n    tag_419:\n        /* \"#utility.yul\":15811:15885   */\n      swap2\n      pop\n        /* \"#utility.yul\":15894:15987   */\n      tag_420\n        /* \"#utility.yul\":15983:15986   */\n      dup3\n        /* \"#utility.yul\":15894:15987   */\n      tag_254\n      jump\t// in\n    tag_420:\n        /* \"#utility.yul\":16012:16014   */\n      0x20\n        /* \"#utility.yul\":16007:16010   */\n      dup3\n        /* \"#utility.yul\":16003:16015   */\n      add\n        /* \"#utility.yul\":15996:16015   */\n      swap1\n      pop\n        /* \"#utility.yul\":15655:16021   */\n      swap2\n      swap1\n      pop\n      jump\t// out\n        /* \"#utility.yul\":16027:16446   */\n    tag_138:\n        /* \"#utility.yul\":16193:16197   */\n      0x00\n        /* \"#utility.yul\":16231:16233   */\n      0x20\n        /* \"#utility.yul\":16220:16229   */\n      dup3\n        /* \"#utility.yul\":16216:16234   */\n      add\n        /* \"#utility.yul\":16208:16234   */\n      swap1\n      pop\n        /* \"#utility.yul\":16280:16289   */\n      dup2\n        /* \"#utility.yul\":16274:16278   */\n      dup2\n        /* \"#utility.yul\":16270:16290   */\n      sub\n        /* \"#utility.yul\":16266:16267   */\n      0x00\n        /* \"#utility.yul\":16255:16264   */\n      dup4\n        /* \"#utility.yul\":16251:16268   */\n      add\n        /* \"#utility.yul\":16244:16291   */\n      mstore\n        /* \"#utility.yul\":16308:16439   */\n      tag_422\n        /* \"#utility.yul\":16434:16438   */\n      dup2\n        /* \"#utility.yul\":16308:16439   */\n      tag_255\n      jump\t// in\n    tag_422:\n        /* \"#utility.yul\":16300:16439   */\n      swap1\n      pop\n        /* \"#utility.yul\":16027:16446   */\n      swap2\n      swap1\n      pop\n      jump\t// out\n        /* \"#utility.yul\":16452:16784   */\n    tag_140:\n        /* \"#utility.yul\":16573:16577   */\n      0x00\n        /* \"#utility.yul\":16611:16613   */\n      0x40\n        /* \"#utility.yul\":16600:16609   */\n      dup3\n        /* \"#utility.yul\":16596:16614   */\n      add\n        /* \"#utility.yul\":16588:16614   */\n      swap1\n      pop\n        /* \"#utility.yul\":16624:16695   */\n      tag_424\n        /* \"#utility.yul\":16692:16693   */\n      0x00\n        /* \"#utility.yul\":16681:16690   */\n      dup4\n        /* \"#utility.yul\":16677:16694   */\n      add\n        /* \"#utility.yul\":16668:16674   */\n      dup6\n        /* \"#utility.yul\":16624:16695   */\n      tag_220\n      jump\t// in\n    tag_424:\n        /* \"#utility.yul\":16705:16777   */\n      tag_425\n        /* \"#utility.yul\":16773:16775   */\n      0x20\n        /* \"#utility.yul\":16762:16771   */\n      dup4\n        /* \"#utility.yul\":16758:16776   */\n      add\n        /* \"#utility.yul\":16749:16755   */\n      dup5\n        /* \"#utility.yul\":16705:16777   */\n      tag_220\n      jump\t// in\n    tag_425:\n        /* \"#utility.yul\":16452:16784   */\n      swap4\n      swap3\n      pop\n      pop\n      pop\n      jump\t// out\n        /* \"#utility.yul\":16790:16959   */\n    tag_256:\n        /* \"#utility.yul\":16930:16951   */\n      0x696e73756666696369656e74206e617469766500000000000000000000000000\n        /* \"#utility.yul\":16926:16927   */\n      0x00\n        /* \"#utility.yul\":16918:16924   */\n      dup3\n        /* \"#utility.yul\":16914:16928   */\n      add\n        /* \"#utility.yul\":16907:16952   */\n      mstore\n        /* \"#utility.yul\":16790:16959   */\n      pop\n      jump\t// out\n        /* \"#utility.yul\":16965:17331   */\n    tag_257:\n        /* \"#utility.yul\":17107:17110   */\n      0x00\n        /* \"#utility.yul\":17128:17195   */\n      tag_428\n        /* \"#utility.yul\":17192:17194   */\n      0x13\n        /* \"#utility.yul\":17187:17190   */\n      dup4\n        /* \"#utility.yul\":17128:17195   */\n      tag_237\n      jump\t// in\n    tag_428:\n        /* \"#utility.yul\":17121:17195   */\n      swap2\n      pop\n        /* \"#utility.yul\":17204:17297   */\n      tag_429\n        /* \"#utility.yul\":17293:17296   */\n      dup3\n        /* \"#utility.yul\":17204:17297   */\n      tag_256\n      jump\t// in\n    tag_429:\n        /* \"#utility.yul\":17322:17324   */\n      0x20\n        /* \"#utility.yul\":17317:17320   */\n      dup3\n        /* \"#utility.yul\":17313:17325   */\n      add\n        /* \"#utility.yul\":17306:17325   */\n      swap1\n      pop\n        /* \"#utility.yul\":16965:17331   */\n      swap2\n      swap1\n      pop\n      jump\t// out\n        /* \"#utility.yul\":17337:17756   */\n    tag_147:\n        /* \"#utility.yul\":17503:17507   */\n      0x00\n        /* \"#utility.yul\":17541:17543   */\n      0x20\n        /* \"#utility.yul\":17530:17539   */\n      dup3\n        /* \"#utility.yul\":17526:17544   */\n      add\n        /* \"#utility.yul\":17518:17544   */\n      swap1\n      pop\n        /* \"#utility.yul\":17590:17599   */\n      dup2\n        /* \"#utility.yul\":17584:17588   */\n      dup2\n        /* \"#utility.yul\":17580:17600   */\n      sub\n        /* \"#utility.yul\":17576:17577   */\n      0x00\n        /* \"#utility.yul\":17565:17574   */\n      dup4\n        /* \"#utility.yul\":17561:17578   */\n      add\n        /* \"#utility.yul\":17554:17601   */\n      mstore\n        /* \"#utility.yul\":17618:17749   */\n      tag_431\n        /* \"#utility.yul\":17744:17748   */\n      dup2\n        /* \"#utility.yul\":17618:17749   */\n      tag_257\n      jump\t// in\n    tag_431:\n        /* \"#utility.yul\":17610:17749   */\n      swap1\n      pop\n        /* \"#utility.yul\":17337:17756   */\n      swap2\n      swap1\n      pop\n      jump\t// out\n        /* \"#utility.yul\":17762:17920   */\n    tag_258:\n        /* \"#utility.yul\":17902:17912   */\n      0x616d6f756e743e30000000000000000000000000000000000000000000000000\n        /* \"#utility.yul\":17898:17899   */\n      0x00\n        /* \"#utility.yul\":17890:17896   */\n      dup3\n        /* \"#utility.yul\":17886:17900   */\n      add\n        /* \"#utility.yul\":17879:17913   */\n      mstore\n        /* \"#utility.yul\":17762:17920   */\n      pop\n      jump\t// out\n        /* \"#utility.yul\":17926:18291   */\n    tag_259:\n        /* \"#utility.yul\":18068:18071   */\n      0x00\n        /* \"#utility.yul\":18089:18155   */\n      tag_434\n        /* \"#utility.yul\":18153:18154   */\n      0x08\n        /* \"#utility.yul\":18148:18151   */\n      dup4\n        /* \"#utility.yul\":18089:18155   */\n      tag_237\n      jump\t// in\n    tag_434:\n        /* \"#utility.yul\":18082:18155   */\n      swap2\n      pop\n        /* \"#utility.yul\":18164:18257   */\n      tag_435\n        /* \"#utility.yul\":18253:18256   */\n      dup3\n        /* \"#utility.yul\":18164:18257   */\n      tag_258\n      jump\t// in\n    tag_435:\n        /* \"#utility.yul\":18282:18284   */\n      0x20\n        /* \"#utility.yul\":18277:18280   */\n      dup3\n        /* \"#utility.yul\":18273:18285   */\n      add\n        /* \"#utility.yul\":18266:18285   */\n      swap1\n      pop\n        /* \"#utility.yul\":17926:18291   */\n      swap2\n      swap1\n      pop\n      jump\t// out\n        /* \"#utility.yul\":18297:18716   */\n    tag_158:\n        /* \"#utility.yul\":18463:18467   */\n      0x00\n        /* \"#utility.yul\":18501:18503   */\n      0x20\n        /* \"#utility.yul\":18490:18499   */\n      dup3\n        /* \"#utility.yul\":18486:18504   */\n      add\n        /* \"#utility.yul\":18478:18504   */\n      swap1\n      pop\n        /* \"#utility.yul\":18550:18559   */\n      dup2\n        /* \"#utility.yul\":18544:18548   */\n      dup2\n        /* \"#utility.yul\":18540:18560   */\n      sub\n        /* \"#utility.yul\":18536:18537   */\n      0x00\n        /* \"#utility.yul\":18525:18534   */\n      dup4\n        /* \"#utility.yul\":18521:18538   */\n      add\n        /* \"#utility.yul\":18514:18561   */\n      mstore\n        /* \"#utility.yul\":18578:18709   */\n      tag_437\n        /* \"#utility.yul\":18704:18708   */\n      dup2\n        /* \"#utility.yul\":18578:18709   */\n      tag_259\n      jump\t// in\n    tag_437:\n        /* \"#utility.yul\":18570:18709   */\n      swap1\n      pop\n        /* \"#utility.yul\":18297:18716   */\n      swap2\n      swap1\n      pop\n      jump\t// out\n        /* \"#utility.yul\":18722:18886   */\n    tag_260:\n        /* \"#utility.yul\":18862:18878   */\n      0x726563697069656e74207a65726f000000000000000000000000000000000000\n        /* \"#utility.yul\":18858:18859   */\n      0x00\n        /* \"#utility.yul\":18850:18856   */\n      dup3\n        /* \"#utility.yul\":18846:18860   */\n      add\n        /* \"#utility.yul\":18839:18879   */\n      mstore\n        /* \"#utility.yul\":18722:18886   */\n      pop\n      jump\t// out\n        /* \"#utility.yul\":18892:19258   */\n    tag_261:\n        /* \"#utility.yul\":19034:19037   */\n      0x00\n        /* \"#utility.yul\":19055:19122   */\n      tag_440\n        /* \"#utility.yul\":19119:19121   */\n      0x0e\n        /* \"#utility.yul\":19114:19117   */\n      dup4\n        /* \"#utility.yul\":19055:19122   */\n      tag_237\n      jump\t// in\n    tag_440:\n        /* \"#utility.yul\":19048:19122   */\n      swap2\n      pop\n        /* \"#utility.yul\":19131:19224   */\n      tag_441\n        /* \"#utility.yul\":19220:19223   */\n      dup3\n        /* \"#utility.yul\":19131:19224   */\n      tag_260\n      jump\t// in\n    tag_441:\n        /* \"#utility.yul\":19249:19251   */\n      0x20\n        /* \"#utility.yul\":19244:19247   */\n      dup3\n        /* \"#utility.yul\":19240:19252   */\n      add\n        /* \"#utility.yul\":19233:19252   */\n      swap1\n      pop\n        /* \"#utility.yul\":18892:19258   */\n      swap2\n      swap1\n      pop\n      jump\t// out\n        /* \"#utility.yul\":19264:19683   */\n    tag_161:\n        /* \"#utility.yul\":19430:19434   */\n      0x00\n        /* \"#utility.yul\":19468:19470   */\n      0x20\n        /* \"#utility.yul\":19457:19466   */\n      dup3\n        /* \"#utility.yul\":19453:19471   */\n      add\n        /* \"#utility.yul\":19445:19471   */\n      swap1\n      pop\n        /* \"#utility.yul\":19517:19526   */\n      dup2\n        /* \"#utility.yul\":19511:19515   */\n      dup2\n        /* \"#utility.yul\":19507:19527   */\n      sub\n        /* \"#utility.yul\":19503:19504   */\n      0x00\n        /* \"#utility.yul\":19492:19501   */\n      dup4\n        /* \"#utility.yul\":19488:19505   */\n      add\n        /* \"#utility.yul\":19481:19528   */\n      mstore\n        /* \"#utility.yul\":19545:19676   */\n      tag_443\n        /* \"#utility.yul\":19671:19675   */\n      dup2\n        /* \"#utility.yul\":19545:19676   */\n      tag_261\n      jump\t// in\n    tag_443:\n        /* \"#utility.yul\":19537:19676   */\n      swap1\n      pop\n        /* \"#utility.yul\":19264:19683   */\n      swap2\n      swap1\n      pop\n      jump\t// out\n        /* \"#utility.yul\":19689:19880   */\n    tag_163:\n        /* \"#utility.yul\":19729:19732   */\n      0x00\n        /* \"#utility.yul\":19748:19768   */\n      tag_445\n        /* \"#utility.yul\":19766:19767   */\n      dup3\n        /* \"#utility.yul\":19748:19768   */\n      tag_219\n      jump\t// in\n    tag_445:\n        /* \"#utility.yul\":19743:19768   */\n      swap2\n      pop\n        /* \"#utility.yul\":19782:19802   */\n      tag_446\n        /* \"#utility.yul\":19800:19801   */\n      dup4\n        /* \"#utility.yul\":19782:19802   */\n      tag_219\n      jump\t// in\n    tag_446:\n        /* \"#utility.yul\":19777:19802   */\n      swap3\n      pop\n        /* \"#utility.yul\":19825:19826   */\n      dup3\n        /* \"#utility.yul\":19822:19823   */\n      dup3\n        /* \"#utility.yul\":19818:19827   */\n      add\n        /* \"#utility.yul\":19811:19827   */\n      swap1\n      pop\n        /* \"#utility.yul\":19846:19849   */\n      dup1\n        /* \"#utility.yul\":19843:19844   */\n      dup3\n        /* \"#utility.yul\":19840:19850   */\n      gt\n        /* \"#utility.yul\":19837:19873   */\n      iszero\n      tag_447\n      jumpi\n        /* \"#utility.yul\":19853:19871   */\n      tag_448\n      tag_247\n      jump\t// in\n    tag_448:\n        /* \"#utility.yul\":19837:19873   */\n    tag_447:\n        /* \"#utility.yul\":19689:19880   */\n      swap3\n      swap2\n      pop\n      pop\n      jump\t// out\n        /* \"#utility.yul\":19886:20060   */\n    tag_262:\n        /* \"#utility.yul\":20026:20052   */\n      0x756e6c6f636b54696d657374616d7020746f6f20736f6f6e0000000000000000\n        /* \"#utility.yul\":20022:20023   */\n      0x00\n        /* \"#utility.yul\":20014:20020   */\n      dup3\n        /* \"#utility.yul\":20010:20024   */\n      add\n        /* \"#utility.yul\":20003:20053   */\n      mstore\n        /* \"#utility.yul\":19886:20060   */\n      pop\n      jump\t// out\n        /* \"#utility.yul\":20066:20432   */\n    tag_263:\n        /* \"#utility.yul\":20208:20211   */\n      0x00\n        /* \"#utility.yul\":20229:20296   */\n      tag_451\n        /* \"#utility.yul\":20293:20295   */\n      0x18\n        /* \"#utility.yul\":20288:20291   */\n      dup4\n        /* \"#utility.yul\":20229:20296   */\n      tag_237\n      jump\t// in\n    tag_451:\n        /* \"#utility.yul\":20222:20296   */\n      swap2\n      pop\n        /* \"#utility.yul\":20305:20398   */\n      tag_452\n        /* \"#utility.yul\":20394:20397   */\n      dup3\n        /* \"#utility.yul\":20305:20398   */\n      tag_262\n      jump\t// in\n    tag_452:\n        /* \"#utility.yul\":20423:20425   */\n      0x20\n        /* \"#utility.yul\":20418:20421   */\n      dup3\n        /* \"#utility.yul\":20414:20426   */\n      add\n        /* \"#utility.yul\":20407:20426   */\n      swap1\n      pop\n        /* \"#utility.yul\":20066:20432   */\n      swap2\n      swap1\n      pop\n      jump\t// out\n        /* \"#utility.yul\":20438:20857   */\n    tag_166:\n        /* \"#utility.yul\":20604:20608   */\n      0x00\n        /* \"#utility.yul\":20642:20644   */\n      0x20\n        /* \"#utility.yul\":20631:20640   */\n      dup3\n        /* \"#utility.yul\":20627:20645   */\n      add\n        /* \"#utility.yul\":20619:20645   */\n      swap1\n      pop\n        /* \"#utility.yul\":20691:20700   */\n      dup2\n        /* \"#utility.yul\":20685:20689   */\n      dup2\n        /* \"#utility.yul\":20681:20701   */\n      sub\n        /* \"#utility.yul\":20677:20678   */\n      0x00\n        /* \"#utility.yul\":20666:20675   */\n      dup4\n        /* \"#utility.yul\":20662:20679   */\n      add\n        /* \"#utility.yul\":20655:20702   */\n      mstore\n        /* \"#utility.yul\":20719:20850   */\n      tag_454\n        /* \"#utility.yul\":20845:20849   */\n      dup2\n        /* \"#utility.yul\":20719:20850   */\n      tag_263\n      jump\t// in\n    tag_454:\n        /* \"#utility.yul\":20711:20850   */\n      swap1\n      pop\n        /* \"#utility.yul\":20438:20857   */\n      swap2\n      swap1\n      pop\n      jump\t// out\n        /* \"#utility.yul\":20863:21006   */\n    tag_264:\n        /* \"#utility.yul\":20920:20925   */\n      0x00\n        /* \"#utility.yul\":20951:20957   */\n      dup2\n        /* \"#utility.yul\":20945:20958   */\n      mload\n        /* \"#utility.yul\":20936:20958   */\n      swap1\n      pop\n        /* \"#utility.yul\":20967:21000   */\n      tag_456\n        /* \"#utility.yul\":20994:20999   */\n      dup2\n        /* \"#utility.yul\":20967:21000   */\n      tag_224\n      jump\t// in\n    tag_456:\n        /* \"#utility.yul\":20863:21006   */\n      swap3\n      swap2\n      pop\n      pop\n      jump\t// out\n        /* \"#utility.yul\":21012:21363   */\n    tag_171:\n        /* \"#utility.yul\":21082:21088   */\n      0x00\n        /* \"#utility.yul\":21131:21133   */\n      0x20\n        /* \"#utility.yul\":21119:21128   */\n      dup3\n        /* \"#utility.yul\":21110:21117   */\n      dup5\n        /* \"#utility.yul\":21106:21129   */\n      sub\n        /* \"#utility.yul\":21102:21134   */\n      slt\n        /* \"#utility.yul\":21099:21218   */\n      iszero\n      tag_458\n      jumpi\n        /* \"#utility.yul\":21137:21216   */\n      tag_459\n      tag_222\n      jump\t// in\n    tag_459:\n        /* \"#utility.yul\":21099:21218   */\n    tag_458:\n        /* \"#utility.yul\":21257:21258   */\n      0x00\n        /* \"#utility.yul\":21282:21346   */\n      tag_460\n        /* \"#utility.yul\":21338:21345   */\n      dup5\n        /* \"#utility.yul\":21329:21335   */\n      dup3\n        /* \"#utility.yul\":21318:21327   */\n      dup6\n        /* \"#utility.yul\":21314:21336   */\n      add\n        /* \"#utility.yul\":21282:21346   */\n      tag_264\n      jump\t// in\n    tag_460:\n        /* \"#utility.yul\":21272:21346   */\n      swap2\n      pop\n        /* \"#utility.yul\":21228:21356   */\n      pop\n        /* \"#utility.yul\":21012:21363   */\n      swap3\n      swap2\n      pop\n      pop\n      jump\t// out\n        /* \"#utility.yul\":21369:21541   */\n    tag_265:\n        /* \"#utility.yul\":21509:21533   */\n      0x62616c616e6365206166746572203c206265666f726500000000000000000000\n        /* \"#utility.yul\":21505:21506   */\n      0x00\n        /* \"#utility.yul\":21497:21503   */\n      dup3\n        /* \"#utility.yul\":21493:21507   */\n      add\n        /* \"#utility.yul\":21486:21534   */\n      mstore\n        /* \"#utility.yul\":21369:21541   */\n      pop\n      jump\t// out\n        /* \"#utility.yul\":21547:21913   */\n    tag_266:\n        /* \"#utility.yul\":21689:21692   */\n      0x00\n        /* \"#utility.yul\":21710:21777   */\n      tag_463\n        /* \"#utility.yul\":21774:21776   */\n      0x16\n        /* \"#utility.yul\":21769:21772   */\n      dup4\n        /* \"#utility.yul\":21710:21777   */\n      tag_237\n      jump\t// in\n    tag_463:\n        /* \"#utility.yul\":21703:21777   */\n      swap2\n      pop\n        /* \"#utility.yul\":21786:21879   */\n      tag_464\n        /* \"#utility.yul\":21875:21878   */\n      dup3\n        /* \"#utility.yul\":21786:21879   */\n      tag_265\n      jump\t// in\n    tag_464:\n        /* \"#utility.yul\":21904:21906   */\n      0x20\n        /* \"#utility.yul\":21899:21902   */\n      dup3\n        /* \"#utility.yul\":21895:21907   */\n      add\n        /* \"#utility.yul\":21888:21907   */\n      swap1\n      pop\n        /* \"#utility.yul\":21547:21913   */\n      swap2\n      swap1\n      pop\n      jump\t// out\n        /* \"#utility.yul\":21919:22338   */\n    tag_180:\n        /* \"#utility.yul\":22085:22089   */\n      0x00\n        /* \"#utility.yul\":22123:22125   */\n      0x20\n        /* \"#utility.yul\":22112:22121   */\n      dup3\n        /* \"#utility.yul\":22108:22126   */\n      add\n        /* \"#utility.yul\":22100:22126   */\n      swap1\n      pop\n        /* \"#utility.yul\":22172:22181   */\n      dup2\n        /* \"#utility.yul\":22166:22170   */\n      dup2\n        /* \"#utility.yul\":22162:22182   */\n      sub\n        /* \"#utility.yul\":22158:22159   */\n      0x00\n        /* \"#utility.yul\":22147:22156   */\n      dup4\n        /* \"#utility.yul\":22143:22160   */\n      add\n        /* \"#utility.yul\":22136:22183   */\n      mstore\n        /* \"#utility.yul\":22200:22331   */\n      tag_466\n        /* \"#utility.yul\":22326:22330   */\n      dup2\n        /* \"#utility.yul\":22200:22331   */\n      tag_266\n      jump\t// in\n    tag_466:\n        /* \"#utility.yul\":22192:22331   */\n      swap1\n      pop\n        /* \"#utility.yul\":21919:22338   */\n      swap2\n      swap1\n      pop\n      jump\t// out\n        /* \"#utility.yul\":22344:22507   */\n    tag_267:\n        /* \"#utility.yul\":22484:22499   */\n      0x7265636569766564207a65726f00000000000000000000000000000000000000\n        /* \"#utility.yul\":22480:22481   */\n      0x00\n        /* \"#utility.yul\":22472:22478   */\n      dup3\n        /* \"#utility.yul\":22468:22482   */\n      add\n        /* \"#utility.yul\":22461:22500   */\n      mstore\n        /* \"#utility.yul\":22344:22507   */\n      pop\n      jump\t// out\n        /* \"#utility.yul\":22513:22879   */\n    tag_268:\n        /* \"#utility.yul\":22655:22658   */\n      0x00\n        /* \"#utility.yul\":22676:22743   */\n      tag_469\n        /* \"#utility.yul\":22740:22742   */\n      0x0d\n        /* \"#utility.yul\":22735:22738   */\n      dup4\n        /* \"#utility.yul\":22676:22743   */\n      tag_237\n      jump\t// in\n    tag_469:\n        /* \"#utility.yul\":22669:22743   */\n      swap2\n      pop\n        /* \"#utility.yul\":22752:22845   */\n      tag_470\n        /* \"#utility.yul\":22841:22844   */\n      dup3\n        /* \"#utility.yul\":22752:22845   */\n      tag_267\n      jump\t// in\n    tag_470:\n        /* \"#utility.yul\":22870:22872   */\n      0x20\n        /* \"#utility.yul\":22865:22868   */\n      dup3\n        /* \"#utility.yul\":22861:22873   */\n      add\n        /* \"#utility.yul\":22854:22873   */\n      swap1\n      pop\n        /* \"#utility.yul\":22513:22879   */\n      swap2\n      swap1\n      pop\n      jump\t// out\n        /* \"#utility.yul\":22885:23304   */\n    tag_184:\n        /* \"#utility.yul\":23051:23055   */\n      0x00\n        /* \"#utility.yul\":23089:23091   */\n      0x20\n        /* \"#utility.yul\":23078:23087   */\n      dup3\n        /* \"#utility.yul\":23074:23092   */\n      add\n        /* \"#utility.yul\":23066:23092   */\n      swap1\n      pop\n        /* \"#utility.yul\":23138:23147   */\n      dup2\n        /* \"#utility.yul\":23132:23136   */\n      dup2\n        /* \"#utility.yul\":23128:23148   */\n      sub\n        /* \"#utility.yul\":23124:23125   */\n      0x00\n        /* \"#utility.yul\":23113:23122   */\n      dup4\n        /* \"#utility.yul\":23109:23126   */\n      add\n        /* \"#utility.yul\":23102:23149   */\n      mstore\n        /* \"#utility.yul\":23166:23297   */\n      tag_472\n        /* \"#utility.yul\":23292:23296   */\n      dup2\n        /* \"#utility.yul\":23166:23297   */\n      tag_268\n      jump\t// in\n    tag_472:\n        /* \"#utility.yul\":23158:23297   */\n      swap1\n      pop\n        /* \"#utility.yul\":22885:23304   */\n      swap2\n      swap1\n      pop\n      jump\t// out\n        /* \"#utility.yul\":23310:23863   */\n    tag_187:\n        /* \"#utility.yul\":23487:23491   */\n      0x00\n        /* \"#utility.yul\":23525:23528   */\n      0x80\n        /* \"#utility.yul\":23514:23523   */\n      dup3\n        /* \"#utility.yul\":23510:23529   */\n      add\n        /* \"#utility.yul\":23502:23529   */\n      swap1\n      pop\n        /* \"#utility.yul\":23539:23610   */\n      tag_474\n        /* \"#utility.yul\":23607:23608   */\n      0x00\n        /* \"#utility.yul\":23596:23605   */\n      dup4\n        /* \"#utility.yul\":23592:23609   */\n      add\n        /* \"#utility.yul\":23583:23589   */\n      dup8\n        /* \"#utility.yul\":23539:23610   */\n      tag_235\n      jump\t// in\n    tag_474:\n        /* \"#utility.yul\":23620:23692   */\n      tag_475\n        /* \"#utility.yul\":23688:23690   */\n      0x20\n        /* \"#utility.yul\":23677:23686   */\n      dup4\n        /* \"#utility.yul\":23673:23691   */\n      add\n        /* \"#utility.yul\":23664:23670   */\n      dup7\n        /* \"#utility.yul\":23620:23692   */\n      tag_220\n      jump\t// in\n    tag_475:\n        /* \"#utility.yul\":23702:23774   */\n      tag_476\n        /* \"#utility.yul\":23770:23772   */\n      0x40\n        /* \"#utility.yul\":23759:23768   */\n      dup4\n        /* \"#utility.yul\":23755:23773   */\n      add\n        /* \"#utility.yul\":23746:23752   */\n      dup6\n        /* \"#utility.yul\":23702:23774   */\n      tag_220\n      jump\t// in\n    tag_476:\n        /* \"#utility.yul\":23784:23856   */\n      tag_477\n        /* \"#utility.yul\":23852:23854   */\n      0x60\n        /* \"#utility.yul\":23841:23850   */\n      dup4\n        /* \"#utility.yul\":23837:23855   */\n      add\n        /* \"#utility.yul\":23828:23834   */\n      dup5\n        /* \"#utility.yul\":23784:23856   */\n      tag_220\n      jump\t// in\n    tag_477:\n        /* \"#utility.yul\":23310:23863   */\n      swap6\n      swap5\n      pop\n      pop\n      pop\n      pop\n      pop\n      jump\t// out\n        /* \"#utility.yul\":23869:24029   */\n    tag_269:\n        /* \"#utility.yul\":24009:24021   */\n      0x7a65726f206f776e657200000000000000000000000000000000000000000000\n        /* \"#utility.yul\":24005:24006   */\n      0x00\n        /* \"#utility.yul\":23997:24003   */\n      dup3\n        /* \"#utility.yul\":23993:24007   */\n      add\n        /* \"#utility.yul\":23986:24022   */\n      mstore\n        /* \"#utility.yul\":23869:24029   */\n      pop\n      jump\t// out\n        /* \"#utility.yul\":24035:24401   */\n    tag_270:\n        /* \"#utility.yul\":24177:24180   */\n      0x00\n        /* \"#utility.yul\":24198:24265   */\n      tag_480\n        /* \"#utility.yul\":24262:24264   */\n      0x0a\n        /* \"#utility.yul\":24257:24260   */\n      dup4\n        /* \"#utility.yul\":24198:24265   */\n      tag_237\n      jump\t// in\n    tag_480:\n        /* \"#utility.yul\":24191:24265   */\n      swap2\n      pop\n        /* \"#utility.yul\":24274:24367   */\n      tag_481\n        /* \"#utility.yul\":24363:24366   */\n      dup3\n        /* \"#utility.yul\":24274:24367   */\n      tag_269\n      jump\t// in\n    tag_481:\n        /* \"#utility.yul\":24392:24394   */\n      0x20\n        /* \"#utility.yul\":24387:24390   */\n      dup3\n        /* \"#utility.yul\":24383:24395   */\n      add\n        /* \"#utility.yul\":24376:24395   */\n      swap1\n      pop\n        /* \"#utility.yul\":24035:24401   */\n      swap2\n      swap1\n      pop\n      jump\t// out\n        /* \"#utility.yul\":24407:24826   */\n    tag_194:\n        /* \"#utility.yul\":24573:24577   */\n      0x00\n        /* \"#utility.yul\":24611:24613   */\n      0x20\n        /* \"#utility.yul\":24600:24609   */\n      dup3\n        /* \"#utility.yul\":24596:24614   */\n      add\n        /* \"#utility.yul\":24588:24614   */\n      swap1\n      pop\n        /* \"#utility.yul\":24660:24669   */\n      dup2\n        /* \"#utility.yul\":24654:24658   */\n      dup2\n        /* \"#utility.yul\":24650:24670   */\n      sub\n        /* \"#utility.yul\":24646:24647   */\n      0x00\n        /* \"#utility.yul\":24635:24644   */\n      dup4\n        /* \"#utility.yul\":24631:24648   */\n      add\n        /* \"#utility.yul\":24624:24671   */\n      mstore\n        /* \"#utility.yul\":24688:24819   */\n      tag_483\n        /* \"#utility.yul\":24814:24818   */\n      dup2\n        /* \"#utility.yul\":24688:24819   */\n      tag_270\n      jump\t// in\n    tag_483:\n        /* \"#utility.yul\":24680:24819   */\n      swap1\n      pop\n        /* \"#utility.yul\":24407:24826   */\n      swap2\n      swap1\n      pop\n      jump\t// out\n        /* \"#utility.yul\":24832:25164   */\n    tag_198:\n        /* \"#utility.yul\":24953:24957   */\n      0x00\n        /* \"#utility.yul\":24991:24993   */\n      0x40\n        /* \"#utility.yul\":24980:24989   */\n      dup3\n        /* \"#utility.yul\":24976:24994   */\n      add\n        /* \"#utility.yul\":24968:24994   */\n      swap1\n      pop\n        /* \"#utility.yul\":25004:25075   */\n      tag_485\n        /* \"#utility.yul\":25072:25073   */\n      0x00\n        /* \"#utility.yul\":25061:25070   */\n      dup4\n        /* \"#utility.yul\":25057:25074   */\n      add\n        /* \"#utility.yul\":25048:25054   */\n      dup6\n        /* \"#utility.yul\":25004:25075   */\n      tag_235\n      jump\t// in\n    tag_485:\n        /* \"#utility.yul\":25085:25157   */\n      tag_486\n        /* \"#utility.yul\":25153:25155   */\n      0x20\n        /* \"#utility.yul\":25142:25151   */\n      dup4\n        /* \"#utility.yul\":25138:25156   */\n      add\n        /* \"#utility.yul\":25129:25135   */\n      dup5\n        /* \"#utility.yul\":25085:25157   */\n      tag_220\n      jump\t// in\n    tag_486:\n        /* \"#utility.yul\":24832:25164   */\n      swap4\n      swap3\n      pop\n      pop\n      pop\n      jump\t// out\n        /* \"#utility.yul\":25170:25612   */\n    tag_203:\n        /* \"#utility.yul\":25319:25323   */\n      0x00\n        /* \"#utility.yul\":25357:25359   */\n      0x60\n        /* \"#utility.yul\":25346:25355   */\n      dup3\n        /* \"#utility.yul\":25342:25360   */\n      add\n        /* \"#utility.yul\":25334:25360   */\n      swap1\n      pop\n        /* \"#utility.yul\":25370:25441   */\n      tag_488\n        /* \"#utility.yul\":25438:25439   */\n      0x00\n        /* \"#utility.yul\":25427:25436   */\n      dup4\n        /* \"#utility.yul\":25423:25440   */\n      add\n        /* \"#utility.yul\":25414:25420   */\n      dup7\n        /* \"#utility.yul\":25370:25441   */\n      tag_235\n      jump\t// in\n    tag_488:\n        /* \"#utility.yul\":25451:25523   */\n      tag_489\n        /* \"#utility.yul\":25519:25521   */\n      0x20\n        /* \"#utility.yul\":25508:25517   */\n      dup4\n        /* \"#utility.yul\":25504:25522   */\n      add\n        /* \"#utility.yul\":25495:25501   */\n      dup6\n        /* \"#utility.yul\":25451:25523   */\n      tag_235\n      jump\t// in\n    tag_489:\n        /* \"#utility.yul\":25533:25605   */\n      tag_490\n        /* \"#utility.yul\":25601:25603   */\n      0x40\n        /* \"#utility.yul\":25590:25599   */\n      dup4\n        /* \"#utility.yul\":25586:25604   */\n      add\n        /* \"#utility.yul\":25577:25583   */\n      dup5\n        /* \"#utility.yul\":25533:25605   */\n      tag_220\n      jump\t// in\n    tag_490:\n        /* \"#utility.yul\":25170:25612   */\n      swap5\n      swap4\n      pop\n      pop\n      pop\n      pop\n      jump\t// out\n        /* \"#utility.yul\":25618:25716   */\n    tag_271:\n        /* \"#utility.yul\":25669:25675   */\n      0x00\n        /* \"#utility.yul\":25703:25708   */\n      dup2\n        /* \"#utility.yul\":25697:25709   */\n      mload\n        /* \"#utility.yul\":25687:25709   */\n      swap1\n      pop\n        /* \"#utility.yul\":25618:25716   */\n      swap2\n      swap1\n      pop\n      jump\t// out\n        /* \"#utility.yul\":25722:25869   */\n    tag_272:\n        /* \"#utility.yul\":25823:25834   */\n      0x00\n        /* \"#utility.yul\":25860:25863   */\n      dup2\n        /* \"#utility.yul\":25845:25863   */\n      swap1\n      pop\n        /* \"#utility.yul\":25722:25869   */\n      swap3\n      swap2\n      pop\n      pop\n      jump\t// out\n        /* \"#utility.yul\":25875:26014   */\n    tag_273:\n        /* \"#utility.yul\":25964:25970   */\n      dup3\n        /* \"#utility.yul\":25959:25962   */\n      dup2\n        /* \"#utility.yul\":25954:25957   */\n      dup4\n        /* \"#utility.yul\":25948:25971   */\n      mcopy\n        /* \"#utility.yul\":26005:26006   */\n      0x00\n        /* \"#utility.yul\":25996:26002   */\n      dup4\n        /* \"#utility.yul\":25991:25994   */\n      dup4\n        /* \"#utility.yul\":25987:26003   */\n      add\n        /* \"#utility.yul\":25980:26007   */\n      mstore\n        /* \"#utility.yul\":25875:26014   */\n      pop\n      pop\n      pop\n      jump\t// out\n        /* \"#utility.yul\":26020:26406   */\n    tag_274:\n        /* \"#utility.yul\":26124:26127   */\n      0x00\n        /* \"#utility.yul\":26152:26190   */\n      tag_495\n        /* \"#utility.yul\":26184:26189   */\n      dup3\n        /* \"#utility.yul\":26152:26190   */\n      tag_271\n      jump\t// in\n    tag_495:\n        /* \"#utility.yul\":26206:26294   */\n      tag_496\n        /* \"#utility.yul\":26287:26293   */\n      dup2\n        /* \"#utility.yul\":26282:26285   */\n      dup6\n        /* \"#utility.yul\":26206:26294   */\n      tag_272\n      jump\t// in\n    tag_496:\n        /* \"#utility.yul\":26199:26294   */\n      swap4\n      pop\n        /* \"#utility.yul\":26303:26368   */\n      tag_497\n        /* \"#utility.yul\":26361:26367   */\n      dup2\n        /* \"#utility.yul\":26356:26359   */\n      dup6\n        /* \"#utility.yul\":26349:26353   */\n      0x20\n        /* \"#utility.yul\":26342:26347   */\n      dup7\n        /* \"#utility.yul\":26338:26354   */\n      add\n        /* \"#utility.yul\":26303:26368   */\n      tag_273\n      jump\t// in\n    tag_497:\n        /* \"#utility.yul\":26393:26399   */\n      dup1\n        /* \"#utility.yul\":26388:26391   */\n      dup5\n        /* \"#utility.yul\":26384:26400   */\n      add\n        /* \"#utility.yul\":26377:26400   */\n      swap2\n      pop\n        /* \"#utility.yul\":26128:26406   */\n      pop\n        /* \"#utility.yul\":26020:26406   */\n      swap3\n      swap2\n      pop\n      pop\n      jump\t// out\n        /* \"#utility.yul\":26412:26683   */\n    tag_206:\n        /* \"#utility.yul\":26542:26545   */\n      0x00\n        /* \"#utility.yul\":26564:26657   */\n      tag_499\n        /* \"#utility.yul\":26653:26656   */\n      dup3\n        /* \"#utility.yul\":26644:26650   */\n      dup5\n        /* \"#utility.yul\":26564:26657   */\n      tag_274\n      jump\t// in\n    tag_499:\n        /* \"#utility.yul\":26557:26657   */\n      swap2\n      pop\n        /* \"#utility.yul\":26674:26677   */\n      dup2\n        /* \"#utility.yul\":26667:26677   */\n      swap1\n      pop\n        /* \"#utility.yul\":26412:26683   */\n      swap3\n      swap2\n      pop\n      pop\n      jump\t// out\n        /* \"#utility.yul\":26689:26867   */\n    tag_275:\n        /* \"#utility.yul\":26829:26859   */\n      0x45524332303a206c6f772d6c6576656c2063616c6c206661696c656400000000\n        /* \"#utility.yul\":26825:26826   */\n      0x00\n        /* \"#utility.yul\":26817:26823   */\n      dup3\n        /* \"#utility.yul\":26813:26827   */\n      add\n        /* \"#utility.yul\":26806:26860   */\n      mstore\n        /* \"#utility.yul\":26689:26867   */\n      pop\n      jump\t// out\n        /* \"#utility.yul\":26873:27239   */\n    tag_276:\n        /* \"#utility.yul\":27015:27018   */\n      0x00\n        /* \"#utility.yul\":27036:27103   */\n      tag_502\n        /* \"#utility.yul\":27100:27102   */\n      0x1c\n        /* \"#utility.yul\":27095:27098   */\n      dup4\n        /* \"#utility.yul\":27036:27103   */\n      tag_237\n      jump\t// in\n    tag_502:\n        /* \"#utility.yul\":27029:27103   */\n      swap2\n      pop\n        /* \"#utility.yul\":27112:27205   */\n      tag_503\n        /* \"#utility.yul\":27201:27204   */\n      dup3\n        /* \"#utility.yul\":27112:27205   */\n      tag_275\n      jump\t// in\n    tag_503:\n        /* \"#utility.yul\":27230:27232   */\n      0x20\n        /* \"#utility.yul\":27225:27228   */\n      dup3\n        /* \"#utility.yul\":27221:27233   */\n      add\n        /* \"#utility.yul\":27214:27233   */\n      swap1\n      pop\n        /* \"#utility.yul\":26873:27239   */\n      swap2\n      swap1\n      pop\n      jump\t// out\n        /* \"#utility.yul\":27245:27664   */\n    tag_212:\n        /* \"#utility.yul\":27411:27415   */\n      0x00\n        /* \"#utility.yul\":27449:27451   */\n      0x20\n        /* \"#utility.yul\":27438:27447   */\n      dup3\n        /* \"#utility.yul\":27434:27452   */\n      add\n        /* \"#utility.yul\":27426:27452   */\n      swap1\n      pop\n        /* \"#utility.yul\":27498:27507   */\n      dup2\n        /* \"#utility.yul\":27492:27496   */\n      dup2\n        /* \"#utility.yul\":27488:27508   */\n      sub\n        /* \"#utility.yul\":27484:27485   */\n      0x00\n        /* \"#utility.yul\":27473:27482   */\n      dup4\n        /* \"#utility.yul\":27469:27486   */\n      add\n        /* \"#utility.yul\":27462:27509   */\n      mstore\n        /* \"#utility.yul\":27526:27657   */\n      tag_505\n        /* \"#utility.yul\":27652:27656   */\n      dup2\n        /* \"#utility.yul\":27526:27657   */\n      tag_276\n      jump\t// in\n    tag_505:\n        /* \"#utility.yul\":27518:27657   */\n      swap1\n      pop\n        /* \"#utility.yul\":27245:27664   */\n      swap2\n      swap1\n      pop\n      jump\t// out\n        /* \"#utility.yul\":27670:27786   */\n    tag_277:\n        /* \"#utility.yul\":27740:27761   */\n      tag_507\n        /* \"#utility.yul\":27755:27760   */\n      dup2\n        /* \"#utility.yul\":27740:27761   */\n      tag_230\n      jump\t// in\n    tag_507:\n        /* \"#utility.yul\":27733:27738   */\n      dup2\n        /* \"#utility.yul\":27730:27762   */\n      eq\n        /* \"#utility.yul\":27720:27780   */\n      tag_508\n      jumpi\n        /* \"#utility.yul\":27776:27777   */\n      0x00\n        /* \"#utility.yul\":27773:27774   */\n      0x00\n        /* \"#utility.yul\":27766:27778   */\n      revert\n        /* \"#utility.yul\":27720:27780   */\n    tag_508:\n        /* \"#utility.yul\":27670:27786   */\n      pop\n      jump\t// out\n        /* \"#utility.yul\":27792:27929   */\n    tag_278:\n        /* \"#utility.yul\":27846:27851   */\n      0x00\n        /* \"#utility.yul\":27877:27883   */\n      dup2\n        /* \"#utility.yul\":27871:27884   */\n      mload\n        /* \"#utility.yul\":27862:27884   */\n      swap1\n      pop\n        /* \"#utility.yul\":27893:27923   */\n      tag_510\n        /* \"#utility.yul\":27917:27922   */\n      dup2\n        /* \"#utility.yul\":27893:27923   */\n      tag_277\n      jump\t// in\n    tag_510:\n        /* \"#utility.yul\":27792:27929   */\n      swap3\n      swap2\n      pop\n      pop\n      jump\t// out\n        /* \"#utility.yul\":27935:28280   */\n    tag_215:\n        /* \"#utility.yul\":28002:28008   */\n      0x00\n        /* \"#utility.yul\":28051:28053   */\n      0x20\n        /* \"#utility.yul\":28039:28048   */\n      dup3\n        /* \"#utility.yul\":28030:28037   */\n      dup5\n        /* \"#utility.yul\":28026:28049   */\n      sub\n        /* \"#utility.yul\":28022:28054   */\n      slt\n        /* \"#utility.yul\":28019:28138   */\n      iszero\n      tag_512\n      jumpi\n        /* \"#utility.yul\":28057:28136   */\n      tag_513\n      tag_222\n      jump\t// in\n    tag_513:\n        /* \"#utility.yul\":28019:28138   */\n    tag_512:\n        /* \"#utility.yul\":28177:28178   */\n      0x00\n        /* \"#utility.yul\":28202:28263   */\n      tag_514\n        /* \"#utility.yul\":28255:28262   */\n      dup5\n        /* \"#utility.yul\":28246:28252   */\n      dup3\n        /* \"#utility.yul\":28235:28244   */\n      dup6\n        /* \"#utility.yul\":28231:28253   */\n      add\n        /* \"#utility.yul\":28202:28263   */\n      tag_278\n      jump\t// in\n    tag_514:\n        /* \"#utility.yul\":28192:28263   */\n      swap2\n      pop\n        /* \"#utility.yul\":28148:28273   */\n      pop\n        /* \"#utility.yul\":27935:28280   */\n      swap3\n      swap2\n      pop\n      pop\n      jump\t// out\n        /* \"#utility.yul\":28286:28468   */\n    tag_279:\n        /* \"#utility.yul\":28426:28460   */\n      0x45524332303a206f7065726174696f6e20646964206e6f742073756363656564\n        /* \"#utility.yul\":28422:28423   */\n      0x00\n        /* \"#utility.yul\":28414:28420   */\n      dup3\n        /* \"#utility.yul\":28410:28424   */\n      add\n        /* \"#utility.yul\":28403:28461   */\n      mstore\n        /* \"#utility.yul\":28286:28468   */\n      pop\n      jump\t// out\n        /* \"#utility.yul\":28474:28840   */\n    tag_280:\n        /* \"#utility.yul\":28616:28619   */\n      0x00\n        /* \"#utility.yul\":28637:28704   */\n      tag_517\n        /* \"#utility.yul\":28701:28703   */\n      0x20\n        /* \"#utility.yul\":28696:28699   */\n      dup4\n        /* \"#utility.yul\":28637:28704   */\n      tag_237\n      jump\t// in\n    tag_517:\n        /* \"#utility.yul\":28630:28704   */\n      swap2\n      pop\n        /* \"#utility.yul\":28713:28806   */\n      tag_518\n        /* \"#utility.yul\":28802:28805   */\n      dup3\n        /* \"#utility.yul\":28713:28806   */\n      tag_279\n      jump\t// in\n    tag_518:\n        /* \"#utility.yul\":28831:28833   */\n      0x20\n        /* \"#utility.yul\":28826:28829   */\n      dup3\n        /* \"#utility.yul\":28822:28834   */\n      add\n        /* \"#utility.yul\":28815:28834   */\n      swap1\n      pop\n        /* \"#utility.yul\":28474:28840   */\n      swap2\n      swap1\n      pop\n      jump\t// out\n        /* \"#utility.yul\":28846:29265   */\n    tag_218:\n        /* \"#utility.yul\":29012:29016   */\n      0x00\n        /* \"#utility.yul\":29050:29052   */\n      0x20\n        /* \"#utility.yul\":29039:29048   */\n      dup3\n        /* \"#utility.yul\":29035:29053   */\n      add\n        /* \"#utility.yul\":29027:29053   */\n      swap1\n      pop\n        /* \"#utility.yul\":29099:29108   */\n      dup2\n        /* \"#utility.yul\":29093:29097   */\n      dup2\n        /* \"#utility.yul\":29089:29109   */\n      sub\n        /* \"#utility.yul\":29085:29086   */\n      0x00\n        /* \"#utility.yul\":29074:29083   */\n      dup4\n        /* \"#utility.yul\":29070:29087   */\n      add\n        /* \"#utility.yul\":29063:29110   */\n      mstore\n        /* \"#utility.yul\":29127:29258   */\n      tag_520\n        /* \"#utility.yul\":29253:29257   */\n      dup2\n        /* \"#utility.yul\":29127:29258   */\n      tag_280\n      jump\t// in\n    tag_520:\n        /* \"#utility.yul\":29119:29258   */\n      swap1\n      pop\n        /* \"#utility.yul\":28846:29265   */\n      swap2\n      swap1\n      pop\n      jump\t// out\n\n    auxdata: 0xa26469706673582212207f8071ac5be63e35f15f77550275f1a34124671717e90d107c41f74fab392cf964736f6c634300081e0033\n}\n",
				"bytecode": {
					"linkReferences": {},
					"object": "608060405234801561000f575f5ffd5b5060405161279d38038061279d83398181016040528101906100319190610182565b335f5f6101000a81548173ffffffffffffffffffffffffffffffffffffffff021916908373ffffffffffffffffffffffffffffffffffffffff1602179055505f5f9054906101000a900473ffffffffffffffffffffffffffffffffffffffff1673ffffffffffffffffffffffffffffffffffffffff165f73ffffffffffffffffffffffffffffffffffffffff167f8be0079c531659141344cd1fd0a4f28419497f9722a3daafe3b4186f6b6457e060405160405180910390a360018081905550612710811115610136576040517f08c379a000000000000000000000000000000000000000000000000000000000815260040161012d90610207565b60405180910390fd5b80600281905550600160038190555050610225565b5f5ffd5b5f819050919050565b6101618161014f565b811461016b575f5ffd5b50565b5f8151905061017c81610158565b92915050565b5f602082840312156101975761019661014b565b5b5f6101a48482850161016e565b91505092915050565b5f82825260208201905092915050565b7f6665654270733c3d3130303030000000000000000000000000000000000000005f82015250565b5f6101f1600d836101ad565b91506101fc826101bd565b602082019050919050565b5f6020820190508181035f83015261021e816101e5565b9050919050565b61256b806102325f395ff3fe6080604052600436106100aa575f3560e01c806372c27b621161006357806372c27b62146101a357806384276d81146101cb57806387d81789146101f35780638da5cb5b1461023657806390d2507414610260578063f2fde38b1461029c576100ab565b806324a9d853146100ad5780633280a836146100d757806337bdc99b1461011357806345d39b581461013b57806361b8ce8c14610163578063715018a61461018d576100ab565b5b005b3480156100b8575f5ffd5b506100c16102c4565b6040516100ce919061180c565b60405180910390f35b3480156100e2575f5ffd5b506100fd60048036038101906100f89190611853565b6102ca565b60405161010a9190611986565b60405180910390f35b34801561011e575f5ffd5b5061013960048036038101906101349190611853565b610436565b005b348015610146575f5ffd5b50610161600480360381019061015c91906119ca565b61086d565b005b34801561016e575f5ffd5b506101776109cd565b604051610184919061180c565b60405180910390f35b348015610198575f5ffd5b506101a16109d3565b005b3480156101ae575f5ffd5b506101c960048036038101906101c49190611853565b610b1c565b005b3480156101d6575f5ffd5b506101f160048036038101906101ec9190611853565b610c34565b005b3480156101fe575f5ffd5b5061021960048036038101906102149190611853565b610d8a565b60405161022d989796959493929190611a26565b60405180910390f35b348015610241575f5ffd5b5061024a610e37565b6040516102579190611aa2565b60405180910390f35b34801561026b575f5ffd5b5061028660048036038101906102819190611abb565b610e5e565b604051610293919061180c565b60405180910390f35b3480156102a7575f5ffd5b506102c260048036038101906102bd9190611b1f565b61139f565b005b60025481565b6102d2611773565b60045f8381526020019081526020015f20604051806101000160405290815f82015f9054906101000a900473ffffffffffffffffffffffffffffffffffffffff1673ffffffffffffffffffffffffffffffffffffffff1673ffffffffffffffffffffffffffffffffffffffff168152602001600182015f9054906101000a900473ffffffffffffffffffffffffffffffffffffffff1673ffffffffffffffffffffffffffffffffffffffff1673ffffffffffffffffffffffffffffffffffffffff1681526020016002820154815260200160038201548152602001600482015f9054906101000a900473ffffffffffffffffffffffffffffffffffffffff1673ffffffffffffffffffffffffffffffffffffffff1673ffffffffffffffffffffffffffffffffffffffff1681526020016005820154815260200160068201548152602001600782015f9054906101000a900460ff1615151515815250509050919050565b600180541461047a576040517f08c379a000000000000000000000000000000000000000000000000000000000815260040161047190611ba4565b60405180910390fd5b60026001819055505f60045f8381526020019081526020015f2090505f8160030154116104dc576040517f08c379a00000000000000000000000000000000000000000000000000000000081526004016104d390611c0c565b60405180910390fd5b806007015f9054906101000a900460ff161561052d576040517f08c379a000000000000000000000000000000000000000000000000000000000815260040161052490611c74565b60405180910390fd5b5f815f015f9054906101000a900473ffffffffffffffffffffffffffffffffffffffff1673ffffffffffffffffffffffffffffffffffffffff163373ffffffffffffffffffffffffffffffffffffffff1614806105d85750816004015f9054906101000a900473ffffffffffffffffffffffffffffffffffffffff1673ffffffffffffffffffffffffffffffffffffffff163373ffffffffffffffffffffffffffffffffffffffff16145b8061061557506105e6610e37565b73ffffffffffffffffffffffffffffffffffffffff163373ffffffffffffffffffffffffffffffffffffffff16145b90508080610627575081600601544210155b610666576040517f08c379a000000000000000000000000000000000000000000000000000000000815260040161065d90611cdc565b60405180910390fd5b6001826007015f6101000a81548160ff0219169083151502179055505f5f90505f6002541115610734575f836003015414806106d357506002547fffffffffffffffffffffffffffffffffffffffffffffffffffffffffffffffff6106cb9190611d54565b836003015411155b610712576040517f08c379a000000000000000000000000000000000000000000000000000000000815260040161070990611dce565b60405180910390fd5b61271060025484600301546107279190611dec565b6107319190611d54565b90505b5f8184600301546107459190611e2d565b9050610798846001015f9054906101000a900473ffffffffffffffffffffffffffffffffffffffff16856004015f9054906101000a900473ffffffffffffffffffffffffffffffffffffffff1683611557565b5f8211156107d6576107d5846001015f9054906101000a900473ffffffffffffffffffffffffffffffffffffffff166107cf610e37565b84611557565b5b836004015f9054906101000a900473ffffffffffffffffffffffffffffffffffffffff1673ffffffffffffffffffffffffffffffffffffffff163373ffffffffffffffffffffffffffffffffffffffff16867f89ccb81a080f998c6d21f573e5464d693e085cef774481dc4b5c3c0d66ce11da84604051610857919061180c565b60405180910390a4505050506001808190555050565b5f5f9054906101000a900473ffffffffffffffffffffffffffffffffffffffff1673ffffffffffffffffffffffffffffffffffffffff163373ffffffffffffffffffffffffffffffffffffffff16146108fb576040517f08c379a00000000000000000000000000000000000000000000000000000000081526004016108f290611eaa565b60405180910390fd5b5f73ffffffffffffffffffffffffffffffffffffffff168273ffffffffffffffffffffffffffffffffffffffff1603610969576040517f08c379a000000000000000000000000000000000000000000000000000000000815260040161096090611f12565b60405180910390fd5b61097b82610975610e37565b83611557565b8173ffffffffffffffffffffffffffffffffffffffff167f8d7d29d557c3b976595a2bb0bff9523a5fb97d560015797deac22d118fffad65826040516109c1919061180c565b60405180910390a25050565b60035481565b5f5f9054906101000a900473ffffffffffffffffffffffffffffffffffffffff1673ffffffffffffffffffffffffffffffffffffffff163373ffffffffffffffffffffffffffffffffffffffff1614610a61576040517f08c379a0000000000000000000000000000000000000000000000000000000008152600401610a5890611eaa565b60405180910390fd5b5f73ffffffffffffffffffffffffffffffffffffffff165f5f9054906101000a900473ffffffffffffffffffffffffffffffffffffffff1673ffffffffffffffffffffffffffffffffffffffff167f8be0079c531659141344cd1fd0a4f28419497f9722a3daafe3b4186f6b6457e060405160405180910390a35f5f5f6101000a81548173ffffffffffffffffffffffffffffffffffffffff021916908373ffffffffffffffffffffffffffffffffffffffff160217905550565b5f5f9054906101000a900473ffffffffffffffffffffffffffffffffffffffff1673ffffffffffffffffffffffffffffffffffffffff163373ffffffffffffffffffffffffffffffffffffffff1614610baa576040517f08c379a0000000000000000000000000000000000000000000000000000000008152600401610ba190611eaa565b60405180910390fd5b612710811115610bef576040517f08c379a0000000000000000000000000000000000000000000000000000000008152600401610be690611f7a565b60405180910390fd5b7f5fc463da23c1b063e66f9e352006a7fbe8db7223c455dc429e881a2dfe2f94f160025482604051610c22929190611f98565b60405180910390a18060028190555050565b5f5f9054906101000a900473ffffffffffffffffffffffffffffffffffffffff1673ffffffffffffffffffffffffffffffffffffffff163373ffffffffffffffffffffffffffffffffffffffff1614610cc2576040517f08c379a0000000000000000000000000000000000000000000000000000000008152600401610cb990611eaa565b60405180910390fd5b80471015610d05576040517f08c379a0000000000000000000000000000000000000000000000000000000008152600401610cfc90612009565b60405180910390fd5b610d0d610e37565b73ffffffffffffffffffffffffffffffffffffffff166108fc8290811502906040515f60405180830381858888f19350505050158015610d4f573d5f5f3e3d5ffd5b507f6e4c84161cdb053c0fd0ad9dfd1b7e4e50a718125358c96a036c95a19eb0a90581604051610d7f919061180c565b60405180910390a150565b6004602052805f5260405f205f91509050805f015f9054906101000a900473ffffffffffffffffffffffffffffffffffffffff1690806001015f9054906101000a900473ffffffffffffffffffffffffffffffffffffffff1690806002015490806003015490806004015f9054906101000a900473ffffffffffffffffffffffffffffffffffffffff1690806005015490806006015490806007015f9054906101000a900460ff16905088565b5f5f5f9054906101000a900473ffffffffffffffffffffffffffffffffffffffff16905090565b5f5f73ffffffffffffffffffffffffffffffffffffffff168573ffffffffffffffffffffffffffffffffffffffff1603610ecd576040517f08c379a0000000000000000000000000000000000000000000000000000000008152600401610ec490611f12565b60405180910390fd5b5f8411610f0f576040517f08c379a0000000000000000000000000000000000000000000000000000000008152600401610f0690612071565b60405180910390fd5b5f73ffffffffffffffffffffffffffffffffffffffff168373ffffffffffffffffffffffffffffffffffffffff1603610f7d576040517f08c379a0000000000000000000000000000000000000000000000000000000008152600401610f74906120d9565b60405180910390fd5b603c42610f8a91906120f7565b821015610fcc576040517f08c379a0000000000000000000000000000000000000000000000000000000008152600401610fc390612174565b60405180910390fd5b5f8573ffffffffffffffffffffffffffffffffffffffff166370a08231306040518263ffffffff1660e01b81526004016110069190611aa2565b602060405180830381865afa158015611021573d5f5f3e3d5ffd5b505050506040513d601f19601f8201168201806040525081019061104591906121a6565b9050611053863330886115dd565b5f8673ffffffffffffffffffffffffffffffffffffffff166370a08231306040518263ffffffff1660e01b815260040161108d9190611aa2565b602060405180830381865afa1580156110a8573d5f5f3e3d5ffd5b505050506040513d601f19601f820116820180604052508101906110cc91906121a6565b905081811015611111576040517f08c379a00000000000000000000000000000000000000000000000000000000081526004016111089061221b565b60405180910390fd5b5f828261111e9190611e2d565b90505f8111611162576040517f08c379a000000000000000000000000000000000000000000000000000000000815260040161115990612283565b60405180910390fd5b5f60035490506040518061010001604052803373ffffffffffffffffffffffffffffffffffffffff1681526020018a73ffffffffffffffffffffffffffffffffffffffff1681526020018981526020018381526020018873ffffffffffffffffffffffffffffffffffffffff1681526020014281526020018781526020015f151581525060045f8381526020019081526020015f205f820151815f015f6101000a81548173ffffffffffffffffffffffffffffffffffffffff021916908373ffffffffffffffffffffffffffffffffffffffff1602179055506020820151816001015f6101000a81548173ffffffffffffffffffffffffffffffffffffffff021916908373ffffffffffffffffffffffffffffffffffffffff16021790555060408201518160020155606082015181600301556080820151816004015f6101000a81548173ffffffffffffffffffffffffffffffffffffffff021916908373ffffffffffffffffffffffffffffffffffffffff16021790555060a0820151816005015560c0820151816006015560e0820151816007015f6101000a81548160ff02191690831515021790555090505060018161131e91906120f7565b6003819055508673ffffffffffffffffffffffffffffffffffffffff163373ffffffffffffffffffffffffffffffffffffffff16827f07d069ee8068ff01364b4b02716d89f761325428c736a508dcadbe0def557dca8c8c878c60405161138894939291906122a1565b60405180910390a480945050505050949350505050565b5f5f9054906101000a900473ffffffffffffffffffffffffffffffffffffffff1673ffffffffffffffffffffffffffffffffffffffff163373ffffffffffffffffffffffffffffffffffffffff161461142d576040517f08c379a000000000000000000000000000000000000000000000000000000000815260040161142490611eaa565b60405180910390fd5b5f73ffffffffffffffffffffffffffffffffffffffff168173ffffffffffffffffffffffffffffffffffffffff160361149b576040517f08c379a00000000000000000000000000000000000000000000000000000000081526004016114929061232e565b60405180910390fd5b8073ffffffffffffffffffffffffffffffffffffffff165f5f9054906101000a900473ffffffffffffffffffffffffffffffffffffffff1673ffffffffffffffffffffffffffffffffffffffff167f8be0079c531659141344cd1fd0a4f28419497f9722a3daafe3b4186f6b6457e060405160405180910390a3805f5f6101000a81548173ffffffffffffffffffffffffffffffffffffffff021916908373ffffffffffffffffffffffffffffffffffffffff16021790555050565b6115d88363a9059cbb60e01b848460405160240161157692919061234c565b604051602081830303815290604052907bffffffffffffffffffffffffffffffffffffffffffffffffffffffff19166020820180517bffffffffffffffffffffffffffffffffffffffffffffffffffffffff8381831617835250505050611666565b505050565b611660846323b872dd60e01b8585856040516024016115fe93929190612373565b604051602081830303815290604052907bffffffffffffffffffffffffffffffffffffffffffffffffffffffff19166020820180517bffffffffffffffffffffffffffffffffffffffffffffffffffffffff8381831617835250505050611666565b50505050565b5f5f8373ffffffffffffffffffffffffffffffffffffffff168360405161168d91906123fa565b5f604051808303815f865af19150503d805f81146116c6576040519150601f19603f3d011682016040523d82523d5f602084013e6116cb565b606091505b509150915081611710576040517f08c379a00000000000000000000000000000000000000000000000000000000081526004016117079061245a565b60405180910390fd5b5f8151111561176d578080602001905181019061172d91906124a2565b61176c576040517f08c379a000000000000000000000000000000000000000000000000000000000815260040161176390612517565b60405180910390fd5b5b50505050565b6040518061010001604052805f73ffffffffffffffffffffffffffffffffffffffff1681526020015f73ffffffffffffffffffffffffffffffffffffffff1681526020015f81526020015f81526020015f73ffffffffffffffffffffffffffffffffffffffff1681526020015f81526020015f81526020015f151581525090565b5f819050919050565b611806816117f4565b82525050565b5f60208201905061181f5f8301846117fd565b92915050565b5f5ffd5b611832816117f4565b811461183c575f5ffd5b50565b5f8135905061184d81611829565b92915050565b5f6020828403121561186857611867611825565b5b5f6118758482850161183f565b91505092915050565b5f73ffffffffffffffffffffffffffffffffffffffff82169050919050565b5f6118a78261187e565b9050919050565b6118b78161189d565b82525050565b6118c6816117f4565b82525050565b5f8115159050919050565b6118e0816118cc565b82525050565b61010082015f8201516118fb5f8501826118ae565b50602082015161190e60208501826118ae565b50604082015161192160408501826118bd565b50606082015161193460608501826118bd565b50608082015161194760808501826118ae565b5060a082015161195a60a08501826118bd565b5060c082015161196d60c08501826118bd565b5060e082015161198060e08501826118d7565b50505050565b5f6101008201905061199a5f8301846118e6565b92915050565b6119a98161189d565b81146119b3575f5ffd5b50565b5f813590506119c4816119a0565b92915050565b5f5f604083850312156119e0576119df611825565b5b5f6119ed858286016119b6565b92505060206119fe8582860161183f565b9150509250929050565b611a118161189d565b82525050565b611a20816118cc565b82525050565b5f61010082019050611a3a5f83018b611a08565b611a47602083018a611a08565b611a5460408301896117fd565b611a6160608301886117fd565b611a6e6080830187611a08565b611a7b60a08301866117fd565b611a8860c08301856117fd565b611a9560e0830184611a17565b9998505050505050505050565b5f602082019050611ab55f830184611a08565b92915050565b5f5f5f5f60808587031215611ad357611ad2611825565b5b5f611ae0878288016119b6565b9450506020611af18782880161183f565b9350506040611b02878288016119b6565b9250506060611b138782880161183f565b91505092959194509250565b5f60208284031215611b3457611b33611825565b5b5f611b41848285016119b6565b91505092915050565b5f82825260208201905092915050565b7f7265656e7472616e7400000000000000000000000000000000000000000000005f82015250565b5f611b8e600983611b4a565b9150611b9982611b5a565b602082019050919050565b5f6020820190508181035f830152611bbb81611b82565b9050919050565b7f6e6f7420666f756e64206f72207a65726f0000000000000000000000000000005f82015250565b5f611bf6601183611b4a565b9150611c0182611bc2565b602082019050919050565b5f6020820190508181035f830152611c2381611bea565b9050919050565b7f616c72656164792072656c6561736564000000000000000000000000000000005f82015250565b5f611c5e601083611b4a565b9150611c6982611c2a565b602082019050919050565b5f6020820190508181035f830152611c8b81611c52565b9050919050565b7f6e6f7420617574686f72697a65640000000000000000000000000000000000005f82015250565b5f611cc6600e83611b4a565b9150611cd182611c92565b602082019050919050565b5f6020820190508181035f830152611cf381611cba565b9050919050565b7f4e487b71000000000000000000000000000000000000000000000000000000005f52601260045260245ffd5b7f4e487b71000000000000000000000000000000000000000000000000000000005f52601160045260245ffd5b5f611d5e826117f4565b9150611d69836117f4565b925082611d7957611d78611cfa565b5b828204905092915050565b7f6665652063616c63206f766572666c6f770000000000000000000000000000005f82015250565b5f611db8601183611b4a565b9150611dc382611d84565b602082019050919050565b5f6020820190508181035f830152611de581611dac565b9050919050565b5f611df6826117f4565b9150611e01836117f4565b9250828202611e0f816117f4565b91508282048414831517611e2657611e25611d27565b5b5092915050565b5f611e37826117f4565b9150611e42836117f4565b9250828203905081811115611e5a57611e59611d27565b5b92915050565b7f6f6e6c79206f776e6572000000000000000000000000000000000000000000005f82015250565b5f611e94600a83611b4a565b9150611e9f82611e60565b602082019050919050565b5f6020820190508181035f830152611ec181611e88565b9050919050565b7f746f6b656e207a65726f000000000000000000000000000000000000000000005f82015250565b5f611efc600a83611b4a565b9150611f0782611ec8565b602082019050919050565b5f6020820190508181035f830152611f2981611ef0565b9050919050565b7f6665654270733c3d3130303030000000000000000000000000000000000000005f82015250565b5f611f64600d83611b4a565b9150611f6f82611f30565b602082019050919050565b5f6020820190508181035f830152611f9181611f58565b9050919050565b5f604082019050611fab5f8301856117fd565b611fb860208301846117fd565b9392505050565b7f696e73756666696369656e74206e6174697665000000000000000000000000005f82015250565b5f611ff3601383611b4a565b9150611ffe82611fbf565b602082019050919050565b5f6020820190508181035f83015261202081611fe7565b9050919050565b7f616d6f756e743e300000000000000000000000000000000000000000000000005f82015250565b5f61205b600883611b4a565b915061206682612027565b602082019050919050565b5f6020820190508181035f8301526120888161204f565b9050919050565b7f726563697069656e74207a65726f0000000000000000000000000000000000005f82015250565b5f6120c3600e83611b4a565b91506120ce8261208f565b602082019050919050565b5f6020820190508181035f8301526120f0816120b7565b9050919050565b5f612101826117f4565b915061210c836117f4565b925082820190508082111561212457612123611d27565b5b92915050565b7f756e6c6f636b54696d657374616d7020746f6f20736f6f6e00000000000000005f82015250565b5f61215e601883611b4a565b91506121698261212a565b602082019050919050565b5f6020820190508181035f83015261218b81612152565b9050919050565b5f815190506121a081611829565b92915050565b5f602082840312156121bb576121ba611825565b5b5f6121c884828501612192565b91505092915050565b7f62616c616e6365206166746572203c206265666f7265000000000000000000005f82015250565b5f612205601683611b4a565b9150612210826121d1565b602082019050919050565b5f6020820190508181035f830152612232816121f9565b9050919050565b7f7265636569766564207a65726f000000000000000000000000000000000000005f82015250565b5f61226d600d83611b4a565b915061227882612239565b602082019050919050565b5f6020820190508181035f83015261229a81612261565b9050919050565b5f6080820190506122b45f830187611a08565b6122c160208301866117fd565b6122ce60408301856117fd565b6122db60608301846117fd565b95945050505050565b7f7a65726f206f776e6572000000000000000000000000000000000000000000005f82015250565b5f612318600a83611b4a565b9150612323826122e4565b602082019050919050565b5f6020820190508181035f8301526123458161230c565b9050919050565b5f60408201905061235f5f830185611a08565b61236c60208301846117fd565b9392505050565b5f6060820190506123865f830186611a08565b6123936020830185611a08565b6123a060408301846117fd565b949350505050565b5f81519050919050565b5f81905092915050565b8281835e5f83830152505050565b5f6123d4826123a8565b6123de81856123b2565b93506123ee8185602086016123bc565b80840191505092915050565b5f61240582846123ca565b915081905092915050565b7f45524332303a206c6f772d6c6576656c2063616c6c206661696c6564000000005f82015250565b5f612444601c83611b4a565b915061244f82612410565b602082019050919050565b5f6020820190508181035f83015261247181612438565b9050919050565b612481816118cc565b811461248b575f5ffd5b50565b5f8151905061249c81612478565b92915050565b5f602082840312156124b7576124b6611825565b5b5f6124c48482850161248e565b91505092915050565b7f45524332303a206f7065726174696f6e20646964206e6f7420737563636565645f82015250565b5f612501602083611b4a565b915061250c826124cd565b602082019050919050565b5f6020820190508181035f83015261252e816124f5565b905091905056fea26469706673582212207f8071ac5be63e35f15f77550275f1a34124671717e90d107c41f74fab392cf964736f6c634300081e0033",
					"opcodes": "PUSH1 0x80 PUSH1 0x40 MSTORE CALLVALUE DUP1 ISZERO PUSH2 0xF JUMPI PUSH0 PUSH0 REVERT JUMPDEST POP PUSH1 0x40 MLOAD PUSH2 0x279D CODESIZE SUB DUP1 PUSH2 0x279D DUP4 CODECOPY DUP2 DUP2 ADD PUSH1 0x40 MSTORE DUP2 ADD SWAP1 PUSH2 0x31 SWAP2 SWAP1 PUSH2 0x182 JUMP JUMPDEST CALLER PUSH0 PUSH0 PUSH2 0x100 EXP DUP2 SLOAD DUP2 PUSH20 0xFFFFFFFFFFFFFFFFFFFFFFFFFFFFFFFFFFFFFFFF MUL NOT AND SWAP1 DUP4 PUSH20 0xFFFFFFFFFFFFFFFFFFFFFFFFFFFFFFFFFFFFFFFF AND MUL OR SWAP1 SSTORE POP PUSH0 PUSH0 SWAP1 SLOAD SWAP1 PUSH2 0x100 EXP SWAP1 DIV PUSH20 0xFFFFFFFFFFFFFFFFFFFFFFFFFFFFFFFFFFFFFFFF AND PUSH20 0xFFFFFFFFFFFFFFFFFFFFFFFFFFFFFFFFFFFFFFFF AND PUSH0 PUSH20 0xFFFFFFFFFFFFFFFFFFFFFFFFFFFFFFFFFFFFFFFF AND PUSH32 0x8BE0079C531659141344CD1FD0A4F28419497F9722A3DAAFE3B4186F6B6457E0 PUSH1 0x40 MLOAD PUSH1 0x40 MLOAD DUP1 SWAP2 SUB SWAP1 LOG3 PUSH1 0x1 DUP1 DUP2 SWAP1 SSTORE POP PUSH2 0x2710 DUP2 GT ISZERO PUSH2 0x136 JUMPI PUSH1 0x40 MLOAD PUSH32 0x8C379A000000000000000000000000000000000000000000000000000000000 DUP2 MSTORE PUSH1 0x4 ADD PUSH2 0x12D SWAP1 PUSH2 0x207 JUMP JUMPDEST PUSH1 0x40 MLOAD DUP1 SWAP2 SUB SWAP1 REVERT JUMPDEST DUP1 PUSH1 0x2 DUP2 SWAP1 SSTORE POP PUSH1 0x1 PUSH1 0x3 DUP2 SWAP1 SSTORE POP POP PUSH2 0x225 JUMP JUMPDEST PUSH0 PUSH0 REVERT JUMPDEST PUSH0 DUP2 SWAP1 POP SWAP2 SWAP1 POP JUMP JUMPDEST PUSH2 0x161 DUP2 PUSH2 0x14F JUMP JUMPDEST DUP2 EQ PUSH2 0x16B JUMPI PUSH0 PUSH0 REVERT JUMPDEST POP JUMP JUMPDEST PUSH0 DUP2 MLOAD SWAP1 POP PUSH2 0x17C DUP2 PUSH2 0x158 JUMP JUMPDEST SWAP3 SWAP2 POP POP JUMP JUMPDEST PUSH0 PUSH1 0x20 DUP3 DUP5 SUB SLT ISZERO PUSH2 0x197 JUMPI PUSH2 0x196 PUSH2 0x14B JUMP JUMPDEST JUMPDEST PUSH0 PUSH2 0x1A4 DUP5 DUP3 DUP6 ADD PUSH2 0x16E JUMP JUMPDEST SWAP2 POP POP SWAP3 SWAP2 POP POP JUMP JUMPDEST PUSH0 DUP3 DUP3 MSTORE PUSH1 0x20 DUP3 ADD SWAP1 POP SWAP3 SWAP2 POP POP JUMP JUMPDEST PUSH32 0x6665654270733C3D313030303000000000000000000000000000000000000000 PUSH0 DUP3 ADD MSTORE POP JUMP JUMPDEST PUSH0 PUSH2 0x1F1 PUSH1 0xD DUP4 PUSH2 0x1AD JUMP JUMPDEST SWAP2 POP PUSH2 0x1FC DUP3 PUSH2 0x1BD JUMP JUMPDEST PUSH1 0x20 DUP3 ADD SWAP1 POP SWAP2 SWAP1 POP JUMP JUMPDEST PUSH0 PUSH1 0x20 DUP3 ADD SWAP1 POP DUP2 DUP2 SUB PUSH0 DUP4 ADD MSTORE PUSH2 0x21E DUP2 PUSH2 0x1E5 JUMP JUMPDEST SWAP1 POP SWAP2 SWAP1 POP JUMP JUMPDEST PUSH2 0x256B DUP1 PUSH2 0x232 PUSH0 CODECOPY PUSH0 RETURN INVALID PUSH1 0x80 PUSH1 0x40 MSTORE PUSH1 0x4 CALLDATASIZE LT PUSH2 0xAA JUMPI PUSH0 CALLDATALOAD PUSH1 0xE0 SHR DUP1 PUSH4 0x72C27B62 GT PUSH2 0x63 JUMPI DUP1 PUSH4 0x72C27B62 EQ PUSH2 0x1A3 JUMPI DUP1 PUSH4 0x84276D81 EQ PUSH2 0x1CB JUMPI DUP1 PUSH4 0x87D81789 EQ PUSH2 0x1F3 JUMPI DUP1 PUSH4 0x8DA5CB5B EQ PUSH2 0x236 JUMPI DUP1 PUSH4 0x90D25074 EQ PUSH2 0x260 JUMPI DUP1 PUSH4 0xF2FDE38B EQ PUSH2 0x29C JUMPI PUSH2 0xAB JUMP JUMPDEST DUP1 PUSH4 0x24A9D853 EQ PUSH2 0xAD JUMPI DUP1 PUSH4 0x3280A836 EQ PUSH2 0xD7 JUMPI DUP1 PUSH4 0x37BDC99B EQ PUSH2 0x113 JUMPI DUP1 PUSH4 0x45D39B58 EQ PUSH2 0x13B JUMPI DUP1 PUSH4 0x61B8CE8C EQ PUSH2 0x163 JUMPI DUP1 PUSH4 0x715018A6 EQ PUSH2 0x18D JUMPI PUSH2 0xAB JUMP JUMPDEST JUMPDEST STOP JUMPDEST CALLVALUE DUP1 ISZERO PUSH2 0xB8 JUMPI PUSH0 PUSH0 REVERT JUMPDEST POP PUSH2 0xC1 PUSH2 0x2C4 JUMP JUMPDEST PUSH1 0x40 MLOAD PUSH2 0xCE SWAP2 SWAP1 PUSH2 0x180C JUMP JUMPDEST PUSH1 0x40 MLOAD DUP1 SWAP2 SUB SWAP1 RETURN JUMPDEST CALLVALUE DUP1 ISZERO PUSH2 0xE2 JUMPI PUSH0 PUSH0 REVERT JUMPDEST POP PUSH2 0xFD PUSH1 0x4 DUP1 CALLDATASIZE SUB DUP2 ADD SWAP1 PUSH2 0xF8 SWAP2 SWAP1 PUSH2 0x1853 JUMP JUMPDEST PUSH2 0x2CA JUMP JUMPDEST PUSH1 0x40 MLOAD PUSH2 0x10A SWAP2 SWAP1 PUSH2 0x1986 JUMP JUMPDEST PUSH1 0x40 MLOAD DUP1 SWAP2 SUB SWAP1 RETURN JUMPDEST CALLVALUE DUP1 ISZERO PUSH2 0x11E JUMPI PUSH0 PUSH0 REVERT JUMPDEST POP PUSH2 0x139 PUSH1 0x4 DUP1 CALLDATASIZE SUB DUP2 ADD SWAP1 PUSH2 0x134 SWAP2 SWAP1 PUSH2 0x1853 JUMP JUMPDEST PUSH2 0x436 JUMP JUMPDEST STOP JUMPDEST CALLVALUE DUP1 ISZERO PUSH2 0x146 JUMPI PUSH0 PUSH0 REVERT JUMPDEST POP PUSH2 0x161 PUSH1 0x4 DUP1 CALLDATASIZE SUB DUP2 ADD SWAP1 PUSH2 0x15C SWAP2 SWAP1 PUSH2 0x19CA JUMP JUMPDEST PUSH2 0x86D JUMP JUMPDEST STOP JUMPDEST CALLVALUE DUP1 ISZERO PUSH2 0x16E JUMPI PUSH0 PUSH0 REVERT JUMPDEST POP PUSH2 0x177 PUSH2 0x9CD JUMP JUMPDEST PUSH1 0x40 MLOAD PUSH2 0x184 SWAP2 SWAP1 PUSH2 0x180C JUMP JUMPDEST PUSH1 0x40 MLOAD DUP1 SWAP2 SUB SWAP1 RETURN JUMPDEST CALLVALUE DUP1 ISZERO PUSH2 0x198 JUMPI PUSH0 PUSH0 REVERT JUMPDEST POP PUSH2 0x1A1 PUSH2 0x9D3 JUMP JUMPDEST STOP JUMPDEST CALLVALUE DUP1 ISZERO PUSH2 0x1AE JUMPI PUSH0 PUSH0 REVERT JUMPDEST POP PUSH2 0x1C9 PUSH1 0x4 DUP1 CALLDATASIZE SUB DUP2 ADD SWAP1 PUSH2 0x1C4 SWAP2 SWAP1 PUSH2 0x1853 JUMP JUMPDEST PUSH2 0xB1C JUMP JUMPDEST STOP JUMPDEST CALLVALUE DUP1 ISZERO PUSH2 0x1D6 JUMPI PUSH0 PUSH0 REVERT JUMPDEST POP PUSH2 0x1F1 PUSH1 0x4 DUP1 CALLDATASIZE SUB DUP2 ADD SWAP1 PUSH2 0x1EC SWAP2 SWAP1 PUSH2 0x1853 JUMP JUMPDEST PUSH2 0xC34 JUMP JUMPDEST STOP JUMPDEST CALLVALUE DUP1 ISZERO PUSH2 0x1FE JUMPI PUSH0 PUSH0 REVERT JUMPDEST POP PUSH2 0x219 PUSH1 0x4 DUP1 CALLDATASIZE SUB DUP2 ADD SWAP1 PUSH2 0x214 SWAP2 SWAP1 PUSH2 0x1853 JUMP JUMPDEST PUSH2 0xD8A JUMP JUMPDEST PUSH1 0x40 MLOAD PUSH2 0x22D SWAP9 SWAP8 SWAP7 SWAP6 SWAP5 SWAP4 SWAP3 SWAP2 SWAP1 PUSH2 0x1A26 JUMP JUMPDEST PUSH1 0x40 MLOAD DUP1 SWAP2 SUB SWAP1 RETURN JUMPDEST CALLVALUE DUP1 ISZERO PUSH2 0x241 JUMPI PUSH0 PUSH0 REVERT JUMPDEST POP PUSH2 0x24A PUSH2 0xE37 JUMP JUMPDEST PUSH1 0x40 MLOAD PUSH2 0x257 SWAP2 SWAP1 PUSH2 0x1AA2 JUMP JUMPDEST PUSH1 0x40 MLOAD DUP1 SWAP2 SUB SWAP1 RETURN JUMPDEST CALLVALUE DUP1 ISZERO PUSH2 0x26B JUMPI PUSH0 PUSH0 REVERT JUMPDEST POP PUSH2 0x286 PUSH1 0x4 DUP1 CALLDATASIZE SUB DUP2 ADD SWAP1 PUSH2 0x281 SWAP2 SWAP1 PUSH2 0x1ABB JUMP JUMPDEST PUSH2 0xE5E JUMP JUMPDEST PUSH1 0x40 MLOAD PUSH2 0x293 SWAP2 SWAP1 PUSH2 0x180C JUMP JUMPDEST PUSH1 0x40 MLOAD DUP1 SWAP2 SUB SWAP1 RETURN JUMPDEST CALLVALUE DUP1 ISZERO PUSH2 0x2A7 JUMPI PUSH0 PUSH0 REVERT JUMPDEST POP PUSH2 0x2C2 PUSH1 0x4 DUP1 CALLDATASIZE SUB DUP2 ADD SWAP1 PUSH2 0x2BD SWAP2 SWAP1 PUSH2 0x1B1F JUMP JUMPDEST PUSH2 0x139F JUMP JUMPDEST STOP JUMPDEST PUSH1 0x2 SLOAD DUP2 JUMP JUMPDEST PUSH2 0x2D2 PUSH2 0x1773 JUMP JUMPDEST PUSH1 0x4 PUSH0 DUP4 DUP2 MSTORE PUSH1 0x20 ADD SWAP1 DUP2 MSTORE PUSH1 0x20 ADD PUSH0 KECCAK256 PUSH1 0x40 MLOAD DUP1 PUSH2 0x100 ADD PUSH1 0x40 MSTORE SWAP1 DUP2 PUSH0 DUP3 ADD PUSH0 SWAP1 SLOAD SWAP1 PUSH2 0x100 EXP SWAP1 DIV PUSH20 0xFFFFFFFFFFFFFFFFFFFFFFFFFFFFFFFFFFFFFFFF AND PUSH20 0xFFFFFFFFFFFFFFFFFFFFFFFFFFFFFFFFFFFFFFFF AND PUSH20 0xFFFFFFFFFFFFFFFFFFFFFFFFFFFFFFFFFFFFFFFF AND DUP2 MSTORE PUSH1 0x20 ADD PUSH1 0x1 DUP3 ADD PUSH0 SWAP1 SLOAD SWAP1 PUSH2 0x100 EXP SWAP1 DIV PUSH20 0xFFFFFFFFFFFFFFFFFFFFFFFFFFFFFFFFFFFFFFFF AND PUSH20 0xFFFFFFFFFFFFFFFFFFFFFFFFFFFFFFFFFFFFFFFF AND PUSH20 0xFFFFFFFFFFFFFFFFFFFFFFFFFFFFFFFFFFFFFFFF AND DUP2 MSTORE PUSH1 0x20 ADD PUSH1 0x2 DUP3 ADD SLOAD DUP2 MSTORE PUSH1 0x20 ADD PUSH1 0x3 DUP3 ADD SLOAD DUP2 MSTORE PUSH1 0x20 ADD PUSH1 0x4 DUP3 ADD PUSH0 SWAP1 SLOAD SWAP1 PUSH2 0x100 EXP SWAP1 DIV PUSH20 0xFFFFFFFFFFFFFFFFFFFFFFFFFFFFFFFFFFFFFFFF AND PUSH20 0xFFFFFFFFFFFFFFFFFFFFFFFFFFFFFFFFFFFFFFFF AND PUSH20 0xFFFFFFFFFFFFFFFFFFFFFFFFFFFFFFFFFFFFFFFF AND DUP2 MSTORE PUSH1 0x20 ADD PUSH1 0x5 DUP3 ADD SLOAD DUP2 MSTORE PUSH1 0x20 ADD PUSH1 0x6 DUP3 ADD SLOAD DUP2 MSTORE PUSH1 0x20 ADD PUSH1 0x7 DUP3 ADD PUSH0 SWAP1 SLOAD SWAP1 PUSH2 0x100 EXP SWAP1 DIV PUSH1 0xFF AND ISZERO ISZERO ISZERO ISZERO DUP2 MSTORE POP POP SWAP1 POP SWAP2 SWAP1 POP JUMP JUMPDEST PUSH1 0x1 DUP1 SLOAD EQ PUSH2 0x47A JUMPI PUSH1 0x40 MLOAD PUSH32 0x8C379A000000000000000000000000000000000000000000000000000000000 DUP2 MSTORE PUSH1 0x4 ADD PUSH2 0x471 SWAP1 PUSH2 0x1BA4 JUMP JUMPDEST PUSH1 0x40 MLOAD DUP1 SWAP2 SUB SWAP1 REVERT JUMPDEST PUSH1 0x2 PUSH1 0x1 DUP2 SWAP1 SSTORE POP PUSH0 PUSH1 0x4 PUSH0 DUP4 DUP2 MSTORE PUSH1 0x20 ADD SWAP1 DUP2 MSTORE PUSH1 0x20 ADD PUSH0 KECCAK256 SWAP1 POP PUSH0 DUP2 PUSH1 0x3 ADD SLOAD GT PUSH2 0x4DC JUMPI PUSH1 0x40 MLOAD PUSH32 0x8C379A000000000000000000000000000000000000000000000000000000000 DUP2 MSTORE PUSH1 0x4 ADD PUSH2 0x4D3 SWAP1 PUSH2 0x1C0C JUMP JUMPDEST PUSH1 0x40 MLOAD DUP1 SWAP2 SUB SWAP1 REVERT JUMPDEST DUP1 PUSH1 0x7 ADD PUSH0 SWAP1 SLOAD SWAP1 PUSH2 0x100 EXP SWAP1 DIV PUSH1 0xFF AND ISZERO PUSH2 0x52D JUMPI PUSH1 0x40 MLOAD PUSH32 0x8C379A000000000000000000000000000000000000000000000000000000000 DUP2 MSTORE PUSH1 0x4 ADD PUSH2 0x524 SWAP1 PUSH2 0x1C74 JUMP JUMPDEST PUSH1 0x40 MLOAD DUP1 SWAP2 SUB SWAP1 REVERT JUMPDEST PUSH0 DUP2 PUSH0 ADD PUSH0 SWAP1 SLOAD SWAP1 PUSH2 0x100 EXP SWAP1 DIV PUSH20 0xFFFFFFFFFFFFFFFFFFFFFFFFFFFFFFFFFFFFFFFF AND PUSH20 0xFFFFFFFFFFFFFFFFFFFFFFFFFFFFFFFFFFFFFFFF AND CALLER PUSH20 0xFFFFFFFFFFFFFFFFFFFFFFFFFFFFFFFFFFFFFFFF AND EQ DUP1 PUSH2 0x5D8 JUMPI POP DUP2 PUSH1 0x4 ADD PUSH0 SWAP1 SLOAD SWAP1 PUSH2 0x100 EXP SWAP1 DIV PUSH20 0xFFFFFFFFFFFFFFFFFFFFFFFFFFFFFFFFFFFFFFFF AND PUSH20 0xFFFFFFFFFFFFFFFFFFFFFFFFFFFFFFFFFFFFFFFF AND CALLER PUSH20 0xFFFFFFFFFFFFFFFFFFFFFFFFFFFFFFFFFFFFFFFF AND EQ JUMPDEST DUP1 PUSH2 0x615 JUMPI POP PUSH2 0x5E6 PUSH2 0xE37 JUMP JUMPDEST PUSH20 0xFFFFFFFFFFFFFFFFFFFFFFFFFFFFFFFFFFFFFFFF AND CALLER PUSH20 0xFFFFFFFFFFFFFFFFFFFFFFFFFFFFFFFFFFFFFFFF AND EQ JUMPDEST SWAP1 POP DUP1 DUP1 PUSH2 0x627 JUMPI POP DUP2 PUSH1 0x6 ADD SLOAD TIMESTAMP LT ISZERO JUMPDEST PUSH2 0x666 JUMPI PUSH1 0x40 MLOAD PUSH32 0x8C379A000000000000000000000000000000000000000000000000000000000 DUP2 MSTORE PUSH1 0x4 ADD PUSH2 0x65D SWAP1 PUSH2 0x1CDC JUMP JUMPDEST PUSH1 0x40 MLOAD DUP1 SWAP2 SUB SWAP1 REVERT JUMPDEST PUSH1 0x1 DUP3 PUSH1 0x7 ADD PUSH0 PUSH2 0x100 EXP DUP2 SLOAD DUP2 PUSH1 0xFF MUL NOT AND SWAP1 DUP4 ISZERO ISZERO MUL OR SWAP1 SSTORE POP PUSH0 PUSH0 SWAP1 POP PUSH0 PUSH1 0x2 SLOAD GT ISZERO PUSH2 0x734 JUMPI PUSH0 DUP4 PUSH1 0x3 ADD SLOAD EQ DUP1 PUSH2 0x6D3 JUMPI POP PUSH1 0x2 SLOAD PUSH32 0xFFFFFFFFFFFFFFFFFFFFFFFFFFFFFFFFFFFFFFFFFFFFFFFFFFFFFFFFFFFFFFFF PUSH2 0x6CB SWAP2 SWAP1 PUSH2 0x1D54 JUMP JUMPDEST DUP4 PUSH1 0x3 ADD SLOAD GT ISZERO JUMPDEST PUSH2 0x712 JUMPI PUSH1 0x40 MLOAD PUSH32 0x8C379A000000000000000000000000000000000000000000000000000000000 DUP2 MSTORE PUSH1 0x4 ADD PUSH2 0x709 SWAP1 PUSH2 0x1DCE JUMP JUMPDEST PUSH1 0x40 MLOAD DUP1 SWAP2 SUB SWAP1 REVERT JUMPDEST PUSH2 0x2710 PUSH1 0x2 SLOAD DUP5 PUSH1 0x3 ADD SLOAD PUSH2 0x727 SWAP2 SWAP1 PUSH2 0x1DEC JUMP JUMPDEST PUSH2 0x731 SWAP2 SWAP1 PUSH2 0x1D54 JUMP JUMPDEST SWAP1 POP JUMPDEST PUSH0 DUP2 DUP5 PUSH1 0x3 ADD SLOAD PUSH2 0x745 SWAP2 SWAP1 PUSH2 0x1E2D JUMP JUMPDEST SWAP1 POP PUSH2 0x798 DUP5 PUSH1 0x1 ADD PUSH0 SWAP1 SLOAD SWAP1 PUSH2 0x100 EXP SWAP1 DIV PUSH20 0xFFFFFFFFFFFFFFFFFFFFFFFFFFFFFFFFFFFFFFFF AND DUP6 PUSH1 0x4 ADD PUSH0 SWAP1 SLOAD SWAP1 PUSH2 0x100 EXP SWAP1 DIV PUSH20 0xFFFFFFFFFFFFFFFFFFFFFFFFFFFFFFFFFFFFFFFF AND DUP4 PUSH2 0x1557 JUMP JUMPDEST PUSH0 DUP3 GT ISZERO PUSH2 0x7D6 JUMPI PUSH2 0x7D5 DUP5 PUSH1 0x1 ADD PUSH0 SWAP1 SLOAD SWAP1 PUSH2 0x100 EXP SWAP1 DIV PUSH20 0xFFFFFFFFFFFFFFFFFFFFFFFFFFFFFFFFFFFFFFFF AND PUSH2 0x7CF PUSH2 0xE37 JUMP JUMPDEST DUP5 PUSH2 0x1557 JUMP JUMPDEST JUMPDEST DUP4 PUSH1 0x4 ADD PUSH0 SWAP1 SLOAD SWAP1 PUSH2 0x100 EXP SWAP1 DIV PUSH20 0xFFFFFFFFFFFFFFFFFFFFFFFFFFFFFFFFFFFFFFFF AND PUSH20 0xFFFFFFFFFFFFFFFFFFFFFFFFFFFFFFFFFFFFFFFF AND CALLER PUSH20 0xFFFFFFFFFFFFFFFFFFFFFFFFFFFFFFFFFFFFFFFF AND DUP7 PUSH32 0x89CCB81A080F998C6D21F573E5464D693E085CEF774481DC4B5C3C0D66CE11DA DUP5 PUSH1 0x40 MLOAD PUSH2 0x857 SWAP2 SWAP1 PUSH2 0x180C JUMP JUMPDEST PUSH1 0x40 MLOAD DUP1 SWAP2 SUB SWAP1 LOG4 POP POP POP POP PUSH1 0x1 DUP1 DUP2 SWAP1 SSTORE POP POP JUMP JUMPDEST PUSH0 PUSH0 SWAP1 SLOAD SWAP1 PUSH2 0x100 EXP SWAP1 DIV PUSH20 0xFFFFFFFFFFFFFFFFFFFFFFFFFFFFFFFFFFFFFFFF AND PUSH20 0xFFFFFFFFFFFFFFFFFFFFFFFFFFFFFFFFFFFFFFFF AND CALLER PUSH20 0xFFFFFFFFFFFFFFFFFFFFFFFFFFFFFFFFFFFFFFFF AND EQ PUSH2 0x8FB JUMPI PUSH1 0x40 MLOAD PUSH32 0x8C379A000000000000000000000000000000000000000000000000000000000 DUP2 MSTORE PUSH1 0x4 ADD PUSH2 0x8F2 SWAP1 PUSH2 0x1EAA JUMP JUMPDEST PUSH1 0x40 MLOAD DUP1 SWAP2 SUB SWAP1 REVERT JUMPDEST PUSH0 PUSH20 0xFFFFFFFFFFFFFFFFFFFFFFFFFFFFFFFFFFFFFFFF AND DUP3 PUSH20 0xFFFFFFFFFFFFFFFFFFFFFFFFFFFFFFFFFFFFFFFF AND SUB PUSH2 0x969 JUMPI PUSH1 0x40 MLOAD PUSH32 0x8C379A000000000000000000000000000000000000000000000000000000000 DUP2 MSTORE PUSH1 0x4 ADD PUSH2 0x960 SWAP1 PUSH2 0x1F12 JUMP JUMPDEST PUSH1 0x40 MLOAD DUP1 SWAP2 SUB SWAP1 REVERT JUMPDEST PUSH2 0x97B DUP3 PUSH2 0x975 PUSH2 0xE37 JUMP JUMPDEST DUP4 PUSH2 0x1557 JUMP JUMPDEST DUP2 PUSH20 0xFFFFFFFFFFFFFFFFFFFFFFFFFFFFFFFFFFFFFFFF AND PUSH32 0x8D7D29D557C3B976595A2BB0BFF9523A5FB97D560015797DEAC22D118FFFAD65 DUP3 PUSH1 0x40 MLOAD PUSH2 0x9C1 SWAP2 SWAP1 PUSH2 0x180C JUMP JUMPDEST PUSH1 0x40 MLOAD DUP1 SWAP2 SUB SWAP1 LOG2 POP POP JUMP JUMPDEST PUSH1 0x3 SLOAD DUP2 JUMP JUMPDEST PUSH0 PUSH0 SWAP1 SLOAD SWAP1 PUSH2 0x100 EXP SWAP1 DIV PUSH20 0xFFFFFFFFFFFFFFFFFFFFFFFFFFFFFFFFFFFFFFFF AND PUSH20 0xFFFFFFFFFFFFFFFFFFFFFFFFFFFFFFFFFFFFFFFF AND CALLER PUSH20 0xFFFFFFFFFFFFFFFFFFFFFFFFFFFFFFFFFFFFFFFF AND EQ PUSH2 0xA61 JUMPI PUSH1 0x40 MLOAD PUSH32 0x8C379A000000000000000000000000000000000000000000000000000000000 DUP2 MSTORE PUSH1 0x4 ADD PUSH2 0xA58 SWAP1 PUSH2 0x1EAA JUMP JUMPDEST PUSH1 0x40 MLOAD DUP1 SWAP2 SUB SWAP1 REVERT JUMPDEST PUSH0 PUSH20 0xFFFFFFFFFFFFFFFFFFFFFFFFFFFFFFFFFFFFFFFF AND PUSH0 PUSH0 SWAP1 SLOAD SWAP1 PUSH2 0x100 EXP SWAP1 DIV PUSH20 0xFFFFFFFFFFFFFFFFFFFFFFFFFFFFFFFFFFFFFFFF AND PUSH20 0xFFFFFFFFFFFFFFFFFFFFFFFFFFFFFFFFFFFFFFFF AND PUSH32 0x8BE0079C531659141344CD1FD0A4F28419497F9722A3DAAFE3B4186F6B6457E0 PUSH1 0x40 MLOAD PUSH1 0x40 MLOAD DUP1 SWAP2 SUB SWAP1 LOG3 PUSH0 PUSH0 PUSH0 PUSH2 0x100 EXP DUP2 SLOAD DUP2 PUSH20 0xFFFFFFFFFFFFFFFFFFFFFFFFFFFFFFFFFFFFFFFF MUL NOT AND SWAP1 DUP4 PUSH20 0xFFFFFFFFFFFFFFFFFFFFFFFFFFFFFFFFFFFFFFFF AND MUL OR SWAP1 SSTORE POP JUMP JUMPDEST PUSH0 PUSH0 SWAP1 SLOAD SWAP1 PUSH2 0x100 EXP SWAP1 DIV PUSH20 0xFFFFFFFFFFFFFFFFFFFFFFFFFFFFFFFFFFFFFFFF AND PUSH20 0xFFFFFFFFFFFFFFFFFFFFFFFFFFFFFFFFFFFFFFFF AND CALLER PUSH20 0xFFFFFFFFFFFFFFFFFFFFFFFFFFFFFFFFFFFFFFFF AND EQ PUSH2 0xBAA JUMPI PUSH1 0x40 MLOAD PUSH32 0x8C379A000000000000000000000000000000000000000000000000000000000 DUP2 MSTORE PUSH1 0x4 ADD PUSH2 0xBA1 SWAP1 PUSH2 0x1EAA JUMP JUMPDEST PUSH1 0x40 MLOAD DUP1 SWAP2 SUB SWAP1 REVERT JUMPDEST PUSH2 0x2710 DUP2 GT ISZERO PUSH2 0xBEF JUMPI PUSH1 0x40 MLOAD PUSH32 0x8C379A000000000000000000000000000000000000000000000000000000000 DUP2 MSTORE PUSH1 0x4 ADD PUSH2 0xBE6 SWAP1 PUSH2 0x1F7A JUMP JUMPDEST PUSH1 0x40 MLOAD DUP1 SWAP2 SUB SWAP1 REVERT JUMPDEST PUSH32 0x5FC463DA23C1B063E66F9E352006A7FBE8DB7223C455DC429E881A2DFE2F94F1 PUSH1 0x2 SLOAD DUP3 PUSH1 0x40 MLOAD PUSH2 0xC22 SWAP3 SWAP2 SWAP1 PUSH2 0x1F98 JUMP JUMPDEST PUSH1 0x40 MLOAD DUP1 SWAP2 SUB SWAP1 LOG1 DUP1 PUSH1 0x2 DUP2 SWAP1 SSTORE POP POP JUMP JUMPDEST PUSH0 PUSH0 SWAP1 SLOAD SWAP1 PUSH2 0x100 EXP SWAP1 DIV PUSH20 0xFFFFFFFFFFFFFFFFFFFFFFFFFFFFFFFFFFFFFFFF AND PUSH20 0xFFFFFFFFFFFFFFFFFFFFFFFFFFFFFFFFFFFFFFFF AND CALLER PUSH20 0xFFFFFFFFFFFFFFFFFFFFFFFFFFFFFFFFFFFFFFFF AND EQ PUSH2 0xCC2 JUMPI PUSH1 0x40 MLOAD PUSH32 0x8C379A000000000000000000000000000000000000000000000000000000000 DUP2 MSTORE PUSH1 0x4 ADD PUSH2 0xCB9 SWAP1 PUSH2 0x1EAA JUMP JUMPDEST PUSH1 0x40 MLOAD DUP1 SWAP2 SUB SWAP1 REVERT JUMPDEST DUP1 SELFBALANCE LT ISZERO PUSH2 0xD05 JUMPI PUSH1 0x40 MLOAD PUSH32 0x8C379A000000000000000000000000000000000000000000000000000000000 DUP2 MSTORE PUSH1 0x4 ADD PUSH2 0xCFC SWAP1 PUSH2 0x2009 JUMP JUMPDEST PUSH1 0x40 MLOAD DUP1 SWAP2 SUB SWAP1 REVERT JUMPDEST PUSH2 0xD0D PUSH2 0xE37 JUMP JUMPDEST PUSH20 0xFFFFFFFFFFFFFFFFFFFFFFFFFFFFFFFFFFFFFFFF AND PUSH2 0x8FC DUP3 SWAP1 DUP2 ISZERO MUL SWAP1 PUSH1 0x40 MLOAD PUSH0 PUSH1 0x40 MLOAD DUP1 DUP4 SUB DUP2 DUP6 DUP9 DUP9 CALL SWAP4 POP POP POP POP ISZERO DUP1 ISZERO PUSH2 0xD4F JUMPI RETURNDATASIZE PUSH0 PUSH0 RETURNDATACOPY RETURNDATASIZE PUSH0 REVERT JUMPDEST POP PUSH32 0x6E4C84161CDB053C0FD0AD9DFD1B7E4E50A718125358C96A036C95A19EB0A905 DUP2 PUSH1 0x40 MLOAD PUSH2 0xD7F SWAP2 SWAP1 PUSH2 0x180C JUMP JUMPDEST PUSH1 0x40 MLOAD DUP1 SWAP2 SUB SWAP1 LOG1 POP JUMP JUMPDEST PUSH1 0x4 PUSH1 0x20 MSTORE DUP1 PUSH0 MSTORE PUSH1 0x40 PUSH0 KECCAK256 PUSH0 SWAP2 POP SWAP1 POP DUP1 PUSH0 ADD PUSH0 SWAP1 SLOAD SWAP1 PUSH2 0x100 EXP SWAP1 DIV PUSH20 0xFFFFFFFFFFFFFFFFFFFFFFFFFFFFFFFFFFFFFFFF AND SWAP1 DUP1 PUSH1 0x1 ADD PUSH0 SWAP1 SLOAD SWAP1 PUSH2 0x100 EXP SWAP1 DIV PUSH20 0xFFFFFFFFFFFFFFFFFFFFFFFFFFFFFFFFFFFFFFFF AND SWAP1 DUP1 PUSH1 0x2 ADD SLOAD SWAP1 DUP1 PUSH1 0x3 ADD SLOAD SWAP1 DUP1 PUSH1 0x4 ADD PUSH0 SWAP1 SLOAD SWAP1 PUSH2 0x100 EXP SWAP1 DIV PUSH20 0xFFFFFFFFFFFFFFFFFFFFFFFFFFFFFFFFFFFFFFFF AND SWAP1 DUP1 PUSH1 0x5 ADD SLOAD SWAP1 DUP1 PUSH1 0x6 ADD SLOAD SWAP1 DUP1 PUSH1 0x7 ADD PUSH0 SWAP1 SLOAD SWAP1 PUSH2 0x100 EXP SWAP1 DIV PUSH1 0xFF AND SWAP1 POP DUP9 JUMP JUMPDEST PUSH0 PUSH0 PUSH0 SWAP1 SLOAD SWAP1 PUSH2 0x100 EXP SWAP1 DIV PUSH20 0xFFFFFFFFFFFFFFFFFFFFFFFFFFFFFFFFFFFFFFFF AND SWAP1 POP SWAP1 JUMP JUMPDEST PUSH0 PUSH0 PUSH20 0xFFFFFFFFFFFFFFFFFFFFFFFFFFFFFFFFFFFFFFFF AND DUP6 PUSH20 0xFFFFFFFFFFFFFFFFFFFFFFFFFFFFFFFFFFFFFFFF AND SUB PUSH2 0xECD JUMPI PUSH1 0x40 MLOAD PUSH32 0x8C379A000000000000000000000000000000000000000000000000000000000 DUP2 MSTORE PUSH1 0x4 ADD PUSH2 0xEC4 SWAP1 PUSH2 0x1F12 JUMP JUMPDEST PUSH1 0x40 MLOAD DUP1 SWAP2 SUB SWAP1 REVERT JUMPDEST PUSH0 DUP5 GT PUSH2 0xF0F JUMPI PUSH1 0x40 MLOAD PUSH32 0x8C379A000000000000000000000000000000000000000000000000000000000 DUP2 MSTORE PUSH1 0x4 ADD PUSH2 0xF06 SWAP1 PUSH2 0x2071 JUMP JUMPDEST PUSH1 0x40 MLOAD DUP1 SWAP2 SUB SWAP1 REVERT JUMPDEST PUSH0 PUSH20 0xFFFFFFFFFFFFFFFFFFFFFFFFFFFFFFFFFFFFFFFF AND DUP4 PUSH20 0xFFFFFFFFFFFFFFFFFFFFFFFFFFFFFFFFFFFFFFFF AND SUB PUSH2 0xF7D JUMPI PUSH1 0x40 MLOAD PUSH32 0x8C379A000000000000000000000000000000000000000000000000000000000 DUP2 MSTORE PUSH1 0x4 ADD PUSH2 0xF74 SWAP1 PUSH2 0x20D9 JUMP JUMPDEST PUSH1 0x40 MLOAD DUP1 SWAP2 SUB SWAP1 REVERT JUMPDEST PUSH1 0x3C TIMESTAMP PUSH2 0xF8A SWAP2 SWAP1 PUSH2 0x20F7 JUMP JUMPDEST DUP3 LT ISZERO PUSH2 0xFCC JUMPI PUSH1 0x40 MLOAD PUSH32 0x8C379A000000000000000000000000000000000000000000000000000000000 DUP2 MSTORE PUSH1 0x4 ADD PUSH2 0xFC3 SWAP1 PUSH2 0x2174 JUMP JUMPDEST PUSH1 0x40 MLOAD DUP1 SWAP2 SUB SWAP1 REVERT JUMPDEST PUSH0 DUP6 PUSH20 0xFFFFFFFFFFFFFFFFFFFFFFFFFFFFFFFFFFFFFFFF AND PUSH4 0x70A08231 ADDRESS PUSH1 0x40 MLOAD DUP3 PUSH4 0xFFFFFFFF AND PUSH1 0xE0 SHL DUP2 MSTORE PUSH1 0x4 ADD PUSH2 0x1006 SWAP2 SWAP1 PUSH2 0x1AA2 JUMP JUMPDEST PUSH1 0x20 PUSH1 0x40 MLOAD DUP1 DUP4 SUB DUP2 DUP7 GAS STATICCALL ISZERO DUP1 ISZERO PUSH2 0x1021 JUMPI RETURNDATASIZE PUSH0 PUSH0 RETURNDATACOPY RETURNDATASIZE PUSH0 REVERT JUMPDEST POP POP POP POP PUSH1 0x40 MLOAD RETURNDATASIZE PUSH1 0x1F NOT PUSH1 0x1F DUP3 ADD AND DUP3 ADD DUP1 PUSH1 0x40 MSTORE POP DUP2 ADD SWAP1 PUSH2 0x1045 SWAP2 SWAP1 PUSH2 0x21A6 JUMP JUMPDEST SWAP1 POP PUSH2 0x1053 DUP7 CALLER ADDRESS DUP9 PUSH2 0x15DD JUMP JUMPDEST PUSH0 DUP7 PUSH20 0xFFFFFFFFFFFFFFFFFFFFFFFFFFFFFFFFFFFFFFFF AND PUSH4 0x70A08231 ADDRESS PUSH1 0x40 MLOAD DUP3 PUSH4 0xFFFFFFFF AND PUSH1 0xE0 SHL DUP2 MSTORE PUSH1 0x4 ADD PUSH2 0x108D SWAP2 SWAP1 PUSH2 0x1AA2 JUMP JUMPDEST PUSH1 0x20 PUSH1 0x40 MLOAD DUP1 DUP4 SUB DUP2 DUP7 GAS STATICCALL ISZERO DUP1 ISZERO PUSH2 0x10A8 JUMPI RETURNDATASIZE PUSH0 PUSH0 RETURNDATACOPY RETURNDATASIZE PUSH0 REVERT JUMPDEST POP POP POP POP PUSH1 0x40 MLOAD RETURNDATASIZE PUSH1 0x1F NOT PUSH1 0x1F DUP3 ADD AND DUP3 ADD DUP1 PUSH1 0x40 MSTORE POP DUP2 ADD SWAP1 PUSH2 0x10CC SWAP2 SWAP1 PUSH2 0x21A6 JUMP JUMPDEST SWAP1 POP DUP2 DUP2 LT ISZERO PUSH2 0x1111 JUMPI PUSH1 0x40 MLOAD PUSH32 0x8C379A000000000000000000000000000000000000000000000000000000000 DUP2 MSTORE PUSH1 0x4 ADD PUSH2 0x1108 SWAP1 PUSH2 0x221B JUMP JUMPDEST PUSH1 0x40 MLOAD DUP1 SWAP2 SUB SWAP1 REVERT JUMPDEST PUSH0 DUP3 DUP3 PUSH2 0x111E SWAP2 SWAP1 PUSH2 0x1E2D JUMP JUMPDEST SWAP1 POP PUSH0 DUP2 GT PUSH2 0x1162 JUMPI PUSH1 0x40 MLOAD PUSH32 0x8C379A000000000000000000000000000000000000000000000000000000000 DUP2 MSTORE PUSH1 0x4 ADD PUSH2 0x1159 SWAP1 PUSH2 0x2283 JUMP JUMPDEST PUSH1 0x40 MLOAD DUP1 SWAP2 SUB SWAP1 REVERT JUMPDEST PUSH0 PUSH1 0x3 SLOAD SWAP1 POP PUSH1 0x40 MLOAD DUP1 PUSH2 0x100 ADD PUSH1 0x40 MSTORE DUP1 CALLER PUSH20 0xFFFFFFFFFFFFFFFFFFFFFFFFFFFFFFFFFFFFFFFF AND DUP2 MSTORE PUSH1 0x20 ADD DUP11 PUSH20 0xFFFFFFFFFFFFFFFFFFFFFFFFFFFFFFFFFFFFFFFF AND DUP2 MSTORE PUSH1 0x20 ADD DUP10 DUP2 MSTORE PUSH1 0x20 ADD DUP4 DUP2 MSTORE PUSH1 0x20 ADD DUP9 PUSH20 0xFFFFFFFFFFFFFFFFFFFFFFFFFFFFFFFFFFFFFFFF AND DUP2 MSTORE PUSH1 0x20 ADD TIMESTAMP DUP2 MSTORE PUSH1 0x20 ADD DUP8 DUP2 MSTORE PUSH1 0x20 ADD PUSH0 ISZERO ISZERO DUP2 MSTORE POP PUSH1 0x4 PUSH0 DUP4 DUP2 MSTORE PUSH1 0x20 ADD SWAP1 DUP2 MSTORE PUSH1 0x20 ADD PUSH0 KECCAK256 PUSH0 DUP3 ADD MLOAD DUP2 PUSH0 ADD PUSH0 PUSH2 0x100 EXP DUP2 SLOAD DUP2 PUSH20 0xFFFFFFFFFFFFFFFFFFFFFFFFFFFFFFFFFFFFFFFF MUL NOT AND SWAP1 DUP4 PUSH20 0xFFFFFFFFFFFFFFFFFFFFFFFFFFFFFFFFFFFFFFFF AND MUL OR SWAP1 SSTORE POP PUSH1 0x20 DUP3 ADD MLOAD DUP2 PUSH1 0x1 ADD PUSH0 PUSH2 0x100 EXP DUP2 SLOAD DUP2 PUSH20 0xFFFFFFFFFFFFFFFFFFFFFFFFFFFFFFFFFFFFFFFF MUL NOT AND SWAP1 DUP4 PUSH20 0xFFFFFFFFFFFFFFFFFFFFFFFFFFFFFFFFFFFFFFFF AND MUL OR SWAP1 SSTORE POP PUSH1 0x40 DUP3 ADD MLOAD DUP2 PUSH1 0x2 ADD SSTORE PUSH1 0x60 DUP3 ADD MLOAD DUP2 PUSH1 0x3 ADD SSTORE PUSH1 0x80 DUP3 ADD MLOAD DUP2 PUSH1 0x4 ADD PUSH0 PUSH2 0x100 EXP DUP2 SLOAD DUP2 PUSH20 0xFFFFFFFFFFFFFFFFFFFFFFFFFFFFFFFFFFFFFFFF MUL NOT AND SWAP1 DUP4 PUSH20 0xFFFFFFFFFFFFFFFFFFFFFFFFFFFFFFFFFFFFFFFF AND MUL OR SWAP1 SSTORE POP PUSH1 0xA0 DUP3 ADD MLOAD DUP2 PUSH1 0x5 ADD SSTORE PUSH1 0xC0 DUP3 ADD MLOAD DUP2 PUSH1 0x6 ADD SSTORE PUSH1 0xE0 DUP3 ADD MLOAD DUP2 PUSH1 0x7 ADD PUSH0 PUSH2 0x100 EXP DUP2 SLOAD DUP2 PUSH1 0xFF MUL NOT AND SWAP1 DUP4 ISZERO ISZERO MUL OR SWAP1 SSTORE POP SWAP1 POP POP PUSH1 0x1 DUP2 PUSH2 0x131E SWAP2 SWAP1 PUSH2 0x20F7 JUMP JUMPDEST PUSH1 0x3 DUP2 SWAP1 SSTORE POP DUP7 PUSH20 0xFFFFFFFFFFFFFFFFFFFFFFFFFFFFFFFFFFFFFFFF AND CALLER PUSH20 0xFFFFFFFFFFFFFFFFFFFFFFFFFFFFFFFFFFFFFFFF AND DUP3 PUSH32 0x7D069EE8068FF01364B4B02716D89F761325428C736A508DCADBE0DEF557DCA DUP13 DUP13 DUP8 DUP13 PUSH1 0x40 MLOAD PUSH2 0x1388 SWAP5 SWAP4 SWAP3 SWAP2 SWAP1 PUSH2 0x22A1 JUMP JUMPDEST PUSH1 0x40 MLOAD DUP1 SWAP2 SUB SWAP1 LOG4 DUP1 SWAP5 POP POP POP POP POP SWAP5 SWAP4 POP POP POP POP JUMP JUMPDEST PUSH0 PUSH0 SWAP1 SLOAD SWAP1 PUSH2 0x100 EXP SWAP1 DIV PUSH20 0xFFFFFFFFFFFFFFFFFFFFFFFFFFFFFFFFFFFFFFFF AND PUSH20 0xFFFFFFFFFFFFFFFFFFFFFFFFFFFFFFFFFFFFFFFF AND CALLER PUSH20 0xFFFFFFFFFFFFFFFFFFFFFFFFFFFFFFFFFFFFFFFF AND EQ PUSH2 0x142D JUMPI PUSH1 0x40 MLOAD PUSH32 0x8C379A000000000000000000000000000000000000000000000000000000000 DUP2 MSTORE PUSH1 0x4 ADD PUSH2 0x1424 SWAP1 PUSH2 0x1EAA JUMP JUMPDEST PUSH1 0x40 MLOAD DUP1 SWAP2 SUB SWAP1 REVERT JUMPDEST PUSH0 PUSH20 0xFFFFFFFFFFFFFFFFFFFFFFFFFFFFFFFFFFFFFFFF AND DUP2 PUSH20 0xFFFFFFFFFFFFFFFFFFFFFFFFFFFFFFFFFFFFFFFF AND SUB PUSH2 0x149B JUMPI PUSH1 0x40 MLOAD PUSH32 0x8C379A000000000000000000000000000000000000000000000000000000000 DUP2 MSTORE PUSH1 0x4 ADD PUSH2 0x1492 SWAP1 PUSH2 0x232E JUMP JUMPDEST PUSH1 0x40 MLOAD DUP1 SWAP2 SUB SWAP1 REVERT JUMPDEST DUP1 PUSH20 0xFFFFFFFFFFFFFFFFFFFFFFFFFFFFFFFFFFFFFFFF AND PUSH0 PUSH0 SWAP1 SLOAD SWAP1 PUSH2 0x100 EXP SWAP1 DIV PUSH20 0xFFFFFFFFFFFFFFFFFFFFFFFFFFFFFFFFFFFFFFFF AND PUSH20 0xFFFFFFFFFFFFFFFFFFFFFFFFFFFFFFFFFFFFFFFF AND PUSH32 0x8BE0079C531659141344CD1FD0A4F28419497F9722A3DAAFE3B4186F6B6457E0 PUSH1 0x40 MLOAD PUSH1 0x40 MLOAD DUP1 SWAP2 SUB SWAP1 LOG3 DUP1 PUSH0 PUSH0 PUSH2 0x100 EXP DUP2 SLOAD DUP2 PUSH20 0xFFFFFFFFFFFFFFFFFFFFFFFFFFFFFFFFFFFFFFFF MUL NOT AND SWAP1 DUP4 PUSH20 0xFFFFFFFFFFFFFFFFFFFFFFFFFFFFFFFFFFFFFFFF AND MUL OR SWAP1 SSTORE POP POP JUMP JUMPDEST PUSH2 0x15D8 DUP4 PUSH4 0xA9059CBB PUSH1 0xE0 SHL DUP5 DUP5 PUSH1 0x40 MLOAD PUSH1 0x24 ADD PUSH2 0x1576 SWAP3 SWAP2 SWAP1 PUSH2 0x234C JUMP JUMPDEST PUSH1 0x40 MLOAD PUSH1 0x20 DUP2 DUP4 SUB SUB DUP2 MSTORE SWAP1 PUSH1 0x40 MSTORE SWAP1 PUSH28 0xFFFFFFFFFFFFFFFFFFFFFFFFFFFFFFFFFFFFFFFFFFFFFFFFFFFFFFFF NOT AND PUSH1 0x20 DUP3 ADD DUP1 MLOAD PUSH28 0xFFFFFFFFFFFFFFFFFFFFFFFFFFFFFFFFFFFFFFFFFFFFFFFFFFFFFFFF DUP4 DUP2 DUP4 AND OR DUP4 MSTORE POP POP POP POP PUSH2 0x1666 JUMP JUMPDEST POP POP POP JUMP JUMPDEST PUSH2 0x1660 DUP5 PUSH4 0x23B872DD PUSH1 0xE0 SHL DUP6 DUP6 DUP6 PUSH1 0x40 MLOAD PUSH1 0x24 ADD PUSH2 0x15FE SWAP4 SWAP3 SWAP2 SWAP1 PUSH2 0x2373 JUMP JUMPDEST PUSH1 0x40 MLOAD PUSH1 0x20 DUP2 DUP4 SUB SUB DUP2 MSTORE SWAP1 PUSH1 0x40 MSTORE SWAP1 PUSH28 0xFFFFFFFFFFFFFFFFFFFFFFFFFFFFFFFFFFFFFFFFFFFFFFFFFFFFFFFF NOT AND PUSH1 0x20 DUP3 ADD DUP1 MLOAD PUSH28 0xFFFFFFFFFFFFFFFFFFFFFFFFFFFFFFFFFFFFFFFFFFFFFFFFFFFFFFFF DUP4 DUP2 DUP4 AND OR DUP4 MSTORE POP POP POP POP PUSH2 0x1666 JUMP JUMPDEST POP POP POP POP JUMP JUMPDEST PUSH0 PUSH0 DUP4 PUSH20 0xFFFFFFFFFFFFFFFFFFFFFFFFFFFFFFFFFFFFFFFF AND DUP4 PUSH1 0x40 MLOAD PUSH2 0x168D SWAP2 SWAP1 PUSH2 0x23FA JUMP JUMPDEST PUSH0 PUSH1 0x40 MLOAD DUP1 DUP4 SUB DUP2 PUSH0 DUP7 GAS CALL SWAP2 POP POP RETURNDATASIZE DUP1 PUSH0 DUP2 EQ PUSH2 0x16C6 JUMPI PUSH1 0x40 MLOAD SWAP2 POP PUSH1 0x1F NOT PUSH1 0x3F RETURNDATASIZE ADD AND DUP3 ADD PUSH1 0x40 MSTORE RETURNDATASIZE DUP3 MSTORE RETURNDATASIZE PUSH0 PUSH1 0x20 DUP5 ADD RETURNDATACOPY PUSH2 0x16CB JUMP JUMPDEST PUSH1 0x60 SWAP2 POP JUMPDEST POP SWAP2 POP SWAP2 POP DUP2 PUSH2 0x1710 JUMPI PUSH1 0x40 MLOAD PUSH32 0x8C379A000000000000000000000000000000000000000000000000000000000 DUP2 MSTORE PUSH1 0x4 ADD PUSH2 0x1707 SWAP1 PUSH2 0x245A JUMP JUMPDEST PUSH1 0x40 MLOAD DUP1 SWAP2 SUB SWAP1 REVERT JUMPDEST PUSH0 DUP2 MLOAD GT ISZERO PUSH2 0x176D JUMPI DUP1 DUP1 PUSH1 0x20 ADD SWAP1 MLOAD DUP2 ADD SWAP1 PUSH2 0x172D SWAP2 SWAP1 PUSH2 0x24A2 JUMP JUMPDEST PUSH2 0x176C JUMPI PUSH1 0x40 MLOAD PUSH32 0x8C379A000000000000000000000000000000000000000000000000000000000 DUP2 MSTORE PUSH1 0x4 ADD PUSH2 0x1763 SWAP1 PUSH2 0x2517 JUMP JUMPDEST PUSH1 0x40 MLOAD DUP1 SWAP2 SUB SWAP1 REVERT JUMPDEST JUMPDEST POP POP POP POP JUMP JUMPDEST PUSH1 0x40 MLOAD DUP1 PUSH2 0x100 ADD PUSH1 0x40 MSTORE DUP1 PUSH0 PUSH20 0xFFFFFFFFFFFFFFFFFFFFFFFFFFFFFFFFFFFFFFFF AND DUP2 MSTORE PUSH1 0x20 ADD PUSH0 PUSH20 0xFFFFFFFFFFFFFFFFFFFFFFFFFFFFFFFFFFFFFFFF AND DUP2 MSTORE PUSH1 0x20 ADD PUSH0 DUP2 MSTORE PUSH1 0x20 ADD PUSH0 DUP2 MSTORE PUSH1 0x20 ADD PUSH0 PUSH20 0xFFFFFFFFFFFFFFFFFFFFFFFFFFFFFFFFFFFFFFFF AND DUP2 MSTORE PUSH1 0x20 ADD PUSH0 DUP2 MSTORE PUSH1 0x20 ADD PUSH0 DUP2 MSTORE PUSH1 0x20 ADD PUSH0 ISZERO ISZERO DUP2 MSTORE POP SWAP1 JUMP JUMPDEST PUSH0 DUP2 SWAP1 POP SWAP2 SWAP1 POP JUMP JUMPDEST PUSH2 0x1806 DUP2 PUSH2 0x17F4 JUMP JUMPDEST DUP3 MSTORE POP POP JUMP JUMPDEST PUSH0 PUSH1 0x20 DUP3 ADD SWAP1 POP PUSH2 0x181F PUSH0 DUP4 ADD DUP5 PUSH2 0x17FD JUMP JUMPDEST SWAP3 SWAP2 POP POP JUMP JUMPDEST PUSH0 PUSH0 REVERT JUMPDEST PUSH2 0x1832 DUP2 PUSH2 0x17F4 JUMP JUMPDEST DUP2 EQ PUSH2 0x183C JUMPI PUSH0 PUSH0 REVERT JUMPDEST POP JUMP JUMPDEST PUSH0 DUP2 CALLDATALOAD SWAP1 POP PUSH2 0x184D DUP2 PUSH2 0x1829 JUMP JUMPDEST SWAP3 SWAP2 POP POP JUMP JUMPDEST PUSH0 PUSH1 0x20 DUP3 DUP5 SUB SLT ISZERO PUSH2 0x1868 JUMPI PUSH2 0x1867 PUSH2 0x1825 JUMP JUMPDEST JUMPDEST PUSH0 PUSH2 0x1875 DUP5 DUP3 DUP6 ADD PUSH2 0x183F JUMP JUMPDEST SWAP2 POP POP SWAP3 SWAP2 POP POP JUMP JUMPDEST PUSH0 PUSH20 0xFFFFFFFFFFFFFFFFFFFFFFFFFFFFFFFFFFFFFFFF DUP3 AND SWAP1 POP SWAP2 SWAP1 POP JUMP JUMPDEST PUSH0 PUSH2 0x18A7 DUP3 PUSH2 0x187E JUMP JUMPDEST SWAP1 POP SWAP2 SWAP1 POP JUMP JUMPDEST PUSH2 0x18B7 DUP2 PUSH2 0x189D JUMP JUMPDEST DUP3 MSTORE POP POP JUMP JUMPDEST PUSH2 0x18C6 DUP2 PUSH2 0x17F4 JUMP JUMPDEST DUP3 MSTORE POP POP JUMP JUMPDEST PUSH0 DUP2 ISZERO ISZERO SWAP1 POP SWAP2 SWAP1 POP JUMP JUMPDEST PUSH2 0x18E0 DUP2 PUSH2 0x18CC JUMP JUMPDEST DUP3 MSTORE POP POP JUMP JUMPDEST PUSH2 0x100 DUP3 ADD PUSH0 DUP3 ADD MLOAD PUSH2 0x18FB PUSH0 DUP6 ADD DUP3 PUSH2 0x18AE JUMP JUMPDEST POP PUSH1 0x20 DUP3 ADD MLOAD PUSH2 0x190E PUSH1 0x20 DUP6 ADD DUP3 PUSH2 0x18AE JUMP JUMPDEST POP PUSH1 0x40 DUP3 ADD MLOAD PUSH2 0x1921 PUSH1 0x40 DUP6 ADD DUP3 PUSH2 0x18BD JUMP JUMPDEST POP PUSH1 0x60 DUP3 ADD MLOAD PUSH2 0x1934 PUSH1 0x60 DUP6 ADD DUP3 PUSH2 0x18BD JUMP JUMPDEST POP PUSH1 0x80 DUP3 ADD MLOAD PUSH2 0x1947 PUSH1 0x80 DUP6 ADD DUP3 PUSH2 0x18AE JUMP JUMPDEST POP PUSH1 0xA0 DUP3 ADD MLOAD PUSH2 0x195A PUSH1 0xA0 DUP6 ADD DUP3 PUSH2 0x18BD JUMP JUMPDEST POP PUSH1 0xC0 DUP3 ADD MLOAD PUSH2 0x196D PUSH1 0xC0 DUP6 ADD DUP3 PUSH2 0x18BD JUMP JUMPDEST POP PUSH1 0xE0 DUP3 ADD MLOAD PUSH2 0x1980 PUSH1 0xE0 DUP6 ADD DUP3 PUSH2 0x18D7 JUMP JUMPDEST POP POP POP POP JUMP JUMPDEST PUSH0 PUSH2 0x100 DUP3 ADD SWAP1 POP PUSH2 0x199A PUSH0 DUP4 ADD DUP5 PUSH2 0x18E6 JUMP JUMPDEST SWAP3 SWAP2 POP POP JUMP JUMPDEST PUSH2 0x19A9 DUP2 PUSH2 0x189D JUMP JUMPDEST DUP2 EQ PUSH2 0x19B3 JUMPI PUSH0 PUSH0 REVERT JUMPDEST POP JUMP JUMPDEST PUSH0 DUP2 CALLDATALOAD SWAP1 POP PUSH2 0x19C4 DUP2 PUSH2 0x19A0 JUMP JUMPDEST SWAP3 SWAP2 POP POP JUMP JUMPDEST PUSH0 PUSH0 PUSH1 0x40 DUP4 DUP6 SUB SLT ISZERO PUSH2 0x19E0 JUMPI PUSH2 0x19DF PUSH2 0x1825 JUMP JUMPDEST JUMPDEST PUSH0 PUSH2 0x19ED DUP6 DUP3 DUP7 ADD PUSH2 0x19B6 JUMP JUMPDEST SWAP3 POP POP PUSH1 0x20 PUSH2 0x19FE DUP6 DUP3 DUP7 ADD PUSH2 0x183F JUMP JUMPDEST SWAP2 POP POP SWAP3 POP SWAP3 SWAP1 POP JUMP JUMPDEST PUSH2 0x1A11 DUP2 PUSH2 0x189D JUMP JUMPDEST DUP3 MSTORE POP POP JUMP JUMPDEST PUSH2 0x1A20 DUP2 PUSH2 0x18CC JUMP JUMPDEST DUP3 MSTORE POP POP JUMP JUMPDEST PUSH0 PUSH2 0x100 DUP3 ADD SWAP1 POP PUSH2 0x1A3A PUSH0 DUP4 ADD DUP12 PUSH2 0x1A08 JUMP JUMPDEST PUSH2 0x1A47 PUSH1 0x20 DUP4 ADD DUP11 PUSH2 0x1A08 JUMP JUMPDEST PUSH2 0x1A54 PUSH1 0x40 DUP4 ADD DUP10 PUSH2 0x17FD JUMP JUMPDEST PUSH2 0x1A61 PUSH1 0x60 DUP4 ADD DUP9 PUSH2 0x17FD JUMP JUMPDEST PUSH2 0x1A6E PUSH1 0x80 DUP4 ADD DUP8 PUSH2 0x1A08 JUMP JUMPDEST PUSH2 0x1A7B PUSH1 0xA0 DUP4 ADD DUP7 PUSH2 0x17FD JUMP JUMPDEST PUSH2 0x1A88 PUSH1 0xC0 DUP4 ADD DUP6 PUSH2 0x17FD JUMP JUMPDEST PUSH2 0x1A95 PUSH1 0xE0 DUP4 ADD DUP5 PUSH2 0x1A17 JUMP JUMPDEST SWAP10 SWAP9 POP POP POP POP POP POP POP POP POP JUMP JUMPDEST PUSH0 PUSH1 0x20 DUP3 ADD SWAP1 POP PUSH2 0x1AB5 PUSH0 DUP4 ADD DUP5 PUSH2 0x1A08 JUMP JUMPDEST SWAP3 SWAP2 POP POP JUMP JUMPDEST PUSH0 PUSH0 PUSH0 PUSH0 PUSH1 0x80 DUP6 DUP8 SUB SLT ISZERO PUSH2 0x1AD3 JUMPI PUSH2 0x1AD2 PUSH2 0x1825 JUMP JUMPDEST JUMPDEST PUSH0 PUSH2 0x1AE0 DUP8 DUP3 DUP9 ADD PUSH2 0x19B6 JUMP JUMPDEST SWAP5 POP POP PUSH1 0x20 PUSH2 0x1AF1 DUP8 DUP3 DUP9 ADD PUSH2 0x183F JUMP JUMPDEST SWAP4 POP POP PUSH1 0x40 PUSH2 0x1B02 DUP8 DUP3 DUP9 ADD PUSH2 0x19B6 JUMP JUMPDEST SWAP3 POP POP PUSH1 0x60 PUSH2 0x1B13 DUP8 DUP3 DUP9 ADD PUSH2 0x183F JUMP JUMPDEST SWAP2 POP POP SWAP3 SWAP6 SWAP2 SWAP5 POP SWAP3 POP JUMP JUMPDEST PUSH0 PUSH1 0x20 DUP3 DUP5 SUB SLT ISZERO PUSH2 0x1B34 JUMPI PUSH2 0x1B33 PUSH2 0x1825 JUMP JUMPDEST JUMPDEST PUSH0 PUSH2 0x1B41 DUP5 DUP3 DUP6 ADD PUSH2 0x19B6 JUMP JUMPDEST SWAP2 POP POP SWAP3 SWAP2 POP POP JUMP JUMPDEST PUSH0 DUP3 DUP3 MSTORE PUSH1 0x20 DUP3 ADD SWAP1 POP SWAP3 SWAP2 POP POP JUMP JUMPDEST PUSH32 0x7265656E7472616E740000000000000000000000000000000000000000000000 PUSH0 DUP3 ADD MSTORE POP JUMP JUMPDEST PUSH0 PUSH2 0x1B8E PUSH1 0x9 DUP4 PUSH2 0x1B4A JUMP JUMPDEST SWAP2 POP PUSH2 0x1B99 DUP3 PUSH2 0x1B5A JUMP JUMPDEST PUSH1 0x20 DUP3 ADD SWAP1 POP SWAP2 SWAP1 POP JUMP JUMPDEST PUSH0 PUSH1 0x20 DUP3 ADD SWAP1 POP DUP2 DUP2 SUB PUSH0 DUP4 ADD MSTORE PUSH2 0x1BBB DUP2 PUSH2 0x1B82 JUMP JUMPDEST SWAP1 POP SWAP2 SWAP1 POP JUMP JUMPDEST PUSH32 0x6E6F7420666F756E64206F72207A65726F000000000000000000000000000000 PUSH0 DUP3 ADD MSTORE POP JUMP JUMPDEST PUSH0 PUSH2 0x1BF6 PUSH1 0x11 DUP4 PUSH2 0x1B4A JUMP JUMPDEST SWAP2 POP PUSH2 0x1C01 DUP3 PUSH2 0x1BC2 JUMP JUMPDEST PUSH1 0x20 DUP3 ADD SWAP1 POP SWAP2 SWAP1 POP JUMP JUMPDEST PUSH0 PUSH1 0x20 DUP3 ADD SWAP1 POP DUP2 DUP2 SUB PUSH0 DUP4 ADD MSTORE PUSH2 0x1C23 DUP2 PUSH2 0x1BEA JUMP JUMPDEST SWAP1 POP SWAP2 SWAP1 POP JUMP JUMPDEST PUSH32 0x616C72656164792072656C656173656400000000000000000000000000000000 PUSH0 DUP3 ADD MSTORE POP JUMP JUMPDEST PUSH0 PUSH2 0x1C5E PUSH1 0x10 DUP4 PUSH2 0x1B4A JUMP JUMPDEST SWAP2 POP PUSH2 0x1C69 DUP3 PUSH2 0x1C2A JUMP JUMPDEST PUSH1 0x20 DUP3 ADD SWAP1 POP SWAP2 SWAP1 POP JUMP JUMPDEST PUSH0 PUSH1 0x20 DUP3 ADD SWAP1 POP DUP2 DUP2 SUB PUSH0 DUP4 ADD MSTORE PUSH2 0x1C8B DUP2 PUSH2 0x1C52 JUMP JUMPDEST SWAP1 POP SWAP2 SWAP1 POP JUMP JUMPDEST PUSH32 0x6E6F7420617574686F72697A6564000000000000000000000000000000000000 PUSH0 DUP3 ADD MSTORE POP JUMP JUMPDEST PUSH0 PUSH2 0x1CC6 PUSH1 0xE DUP4 PUSH2 0x1B4A JUMP JUMPDEST SWAP2 POP PUSH2 0x1CD1 DUP3 PUSH2 0x1C92 JUMP JUMPDEST PUSH1 0x20 DUP3 ADD SWAP1 POP SWAP2 SWAP1 POP JUMP JUMPDEST PUSH0 PUSH1 0x20 DUP3 ADD SWAP1 POP DUP2 DUP2 SUB PUSH0 DUP4 ADD MSTORE PUSH2 0x1CF3 DUP2 PUSH2 0x1CBA JUMP JUMPDEST SWAP1 POP SWAP2 SWAP1 POP JUMP JUMPDEST PUSH32 0x4E487B7100000000000000000000000000000000000000000000000000000000 PUSH0 MSTORE PUSH1 0x12 PUSH1 0x4 MSTORE PUSH1 0x24 PUSH0 REVERT JUMPDEST PUSH32 0x4E487B7100000000000000000000000000000000000000000000000000000000 PUSH0 MSTORE PUSH1 0x11 PUSH1 0x4 MSTORE PUSH1 0x24 PUSH0 REVERT JUMPDEST PUSH0 PUSH2 0x1D5E DUP3 PUSH2 0x17F4 JUMP JUMPDEST SWAP2 POP PUSH2 0x1D69 DUP4 PUSH2 0x17F4 JUMP JUMPDEST SWAP3 POP DUP3 PUSH2 0x1D79 JUMPI PUSH2 0x1D78 PUSH2 0x1CFA JUMP JUMPDEST JUMPDEST DUP3 DUP3 DIV SWAP1 POP SWAP3 SWAP2 POP POP JUMP JUMPDEST PUSH32 0x6665652063616C63206F766572666C6F77000000000000000000000000000000 PUSH0 DUP3 ADD MSTORE POP JUMP JUMPDEST PUSH0 PUSH2 0x1DB8 PUSH1 0x11 DUP4 PUSH2 0x1B4A JUMP JUMPDEST SWAP2 POP PUSH2 0x1DC3 DUP3 PUSH2 0x1D84 JUMP JUMPDEST PUSH1 0x20 DUP3 ADD SWAP1 POP SWAP2 SWAP1 POP JUMP JUMPDEST PUSH0 PUSH1 0x20 DUP3 ADD SWAP1 POP DUP2 DUP2 SUB PUSH0 DUP4 ADD MSTORE PUSH2 0x1DE5 DUP2 PUSH2 0x1DAC JUMP JUMPDEST SWAP1 POP SWAP2 SWAP1 POP JUMP JUMPDEST PUSH0 PUSH2 0x1DF6 DUP3 PUSH2 0x17F4 JUMP JUMPDEST SWAP2 POP PUSH2 0x1E01 DUP4 PUSH2 0x17F4 JUMP JUMPDEST SWAP3 POP DUP3 DUP3 MUL PUSH2 0x1E0F DUP2 PUSH2 0x17F4 JUMP JUMPDEST SWAP2 POP DUP3 DUP3 DIV DUP5 EQ DUP4 ISZERO OR PUSH2 0x1E26 JUMPI PUSH2 0x1E25 PUSH2 0x1D27 JUMP JUMPDEST JUMPDEST POP SWAP3 SWAP2 POP POP JUMP JUMPDEST PUSH0 PUSH2 0x1E37 DUP3 PUSH2 0x17F4 JUMP JUMPDEST SWAP2 POP PUSH2 0x1E42 DUP4 PUSH2 0x17F4 JUMP JUMPDEST SWAP3 POP DUP3 DUP3 SUB SWAP1 POP DUP2 DUP2 GT ISZERO PUSH2 0x1E5A JUMPI PUSH2 0x1E59 PUSH2 0x1D27 JUMP JUMPDEST JUMPDEST SWAP3 SWAP2 POP POP JUMP JUMPDEST PUSH32 0x6F6E6C79206F776E657200000000000000000000000000000000000000000000 PUSH0 DUP3 ADD MSTORE POP JUMP JUMPDEST PUSH0 PUSH2 0x1E94 PUSH1 0xA DUP4 PUSH2 0x1B4A JUMP JUMPDEST SWAP2 POP PUSH2 0x1E9F DUP3 PUSH2 0x1E60 JUMP JUMPDEST PUSH1 0x20 DUP3 ADD SWAP1 POP SWAP2 SWAP1 POP JUMP JUMPDEST PUSH0 PUSH1 0x20 DUP3 ADD SWAP1 POP DUP2 DUP2 SUB PUSH0 DUP4 ADD MSTORE PUSH2 0x1EC1 DUP2 PUSH2 0x1E88 JUMP JUMPDEST SWAP1 POP SWAP2 SWAP1 POP JUMP JUMPDEST PUSH32 0x746F6B656E207A65726F00000000000000000000000000000000000000000000 PUSH0 DUP3 ADD MSTORE POP JUMP JUMPDEST PUSH0 PUSH2 0x1EFC PUSH1 0xA DUP4 PUSH2 0x1B4A JUMP JUMPDEST SWAP2 POP PUSH2 0x1F07 DUP3 PUSH2 0x1EC8 JUMP JUMPDEST PUSH1 0x20 DUP3 ADD SWAP1 POP SWAP2 SWAP1 POP JUMP JUMPDEST PUSH0 PUSH1 0x20 DUP3 ADD SWAP1 POP DUP2 DUP2 SUB PUSH0 DUP4 ADD MSTORE PUSH2 0x1F29 DUP2 PUSH2 0x1EF0 JUMP JUMPDEST SWAP1 POP SWAP2 SWAP1 POP JUMP JUMPDEST PUSH32 0x6665654270733C3D313030303000000000000000000000000000000000000000 PUSH0 DUP3 ADD MSTORE POP JUMP JUMPDEST PUSH0 PUSH2 0x1F64 PUSH1 0xD DUP4 PUSH2 0x1B4A JUMP JUMPDEST SWAP2 POP PUSH2 0x1F6F DUP3 PUSH2 0x1F30 JUMP JUMPDEST PUSH1 0x20 DUP3 ADD SWAP1 POP SWAP2 SWAP1 POP JUMP JUMPDEST PUSH0 PUSH1 0x20 DUP3 ADD SWAP1 POP DUP2 DUP2 SUB PUSH0 DUP4 ADD MSTORE PUSH2 0x1F91 DUP2 PUSH2 0x1F58 JUMP JUMPDEST SWAP1 POP SWAP2 SWAP1 POP JUMP JUMPDEST PUSH0 PUSH1 0x40 DUP3 ADD SWAP1 POP PUSH2 0x1FAB PUSH0 DUP4 ADD DUP6 PUSH2 0x17FD JUMP JUMPDEST PUSH2 0x1FB8 PUSH1 0x20 DUP4 ADD DUP5 PUSH2 0x17FD JUMP JUMPDEST SWAP4 SWAP3 POP POP POP JUMP JUMPDEST PUSH32 0x696E73756666696369656E74206E617469766500000000000000000000000000 PUSH0 DUP3 ADD MSTORE POP JUMP JUMPDEST PUSH0 PUSH2 0x1FF3 PUSH1 0x13 DUP4 PUSH2 0x1B4A JUMP JUMPDEST SWAP2 POP PUSH2 0x1FFE DUP3 PUSH2 0x1FBF JUMP JUMPDEST PUSH1 0x20 DUP3 ADD SWAP1 POP SWAP2 SWAP1 POP JUMP JUMPDEST PUSH0 PUSH1 0x20 DUP3 ADD SWAP1 POP DUP2 DUP2 SUB PUSH0 DUP4 ADD MSTORE PUSH2 0x2020 DUP2 PUSH2 0x1FE7 JUMP JUMPDEST SWAP1 POP SWAP2 SWAP1 POP JUMP JUMPDEST PUSH32 0x616D6F756E743E30000000000000000000000000000000000000000000000000 PUSH0 DUP3 ADD MSTORE POP JUMP JUMPDEST PUSH0 PUSH2 0x205B PUSH1 0x8 DUP4 PUSH2 0x1B4A JUMP JUMPDEST SWAP2 POP PUSH2 0x2066 DUP3 PUSH2 0x2027 JUMP JUMPDEST PUSH1 0x20 DUP3 ADD SWAP1 POP SWAP2 SWAP1 POP JUMP JUMPDEST PUSH0 PUSH1 0x20 DUP3 ADD SWAP1 POP DUP2 DUP2 SUB PUSH0 DUP4 ADD MSTORE PUSH2 0x2088 DUP2 PUSH2 0x204F JUMP JUMPDEST SWAP1 POP SWAP2 SWAP1 POP JUMP JUMPDEST PUSH32 0x726563697069656E74207A65726F000000000000000000000000000000000000 PUSH0 DUP3 ADD MSTORE POP JUMP JUMPDEST PUSH0 PUSH2 0x20C3 PUSH1 0xE DUP4 PUSH2 0x1B4A JUMP JUMPDEST SWAP2 POP PUSH2 0x20CE DUP3 PUSH2 0x208F JUMP JUMPDEST PUSH1 0x20 DUP3 ADD SWAP1 POP SWAP2 SWAP1 POP JUMP JUMPDEST PUSH0 PUSH1 0x20 DUP3 ADD SWAP1 POP DUP2 DUP2 SUB PUSH0 DUP4 ADD MSTORE PUSH2 0x20F0 DUP2 PUSH2 0x20B7 JUMP JUMPDEST SWAP1 POP SWAP2 SWAP1 POP JUMP JUMPDEST PUSH0 PUSH2 0x2101 DUP3 PUSH2 0x17F4 JUMP JUMPDEST SWAP2 POP PUSH2 0x210C DUP4 PUSH2 0x17F4 JUMP JUMPDEST SWAP3 POP DUP3 DUP3 ADD SWAP1 POP DUP1 DUP3 GT ISZERO PUSH2 0x2124 JUMPI PUSH2 0x2123 PUSH2 0x1D27 JUMP JUMPDEST JUMPDEST SWAP3 SWAP2 POP POP JUMP JUMPDEST PUSH32 0x756E6C6F636B54696D657374616D7020746F6F20736F6F6E0000000000000000 PUSH0 DUP3 ADD MSTORE POP JUMP JUMPDEST PUSH0 PUSH2 0x215E PUSH1 0x18 DUP4 PUSH2 0x1B4A JUMP JUMPDEST SWAP2 POP PUSH2 0x2169 DUP3 PUSH2 0x212A JUMP JUMPDEST PUSH1 0x20 DUP3 ADD SWAP1 POP SWAP2 SWAP1 POP JUMP JUMPDEST PUSH0 PUSH1 0x20 DUP3 ADD SWAP1 POP DUP2 DUP2 SUB PUSH0 DUP4 ADD MSTORE PUSH2 0x218B DUP2 PUSH2 0x2152 JUMP JUMPDEST SWAP1 POP SWAP2 SWAP1 POP JUMP JUMPDEST PUSH0 DUP2 MLOAD SWAP1 POP PUSH2 0x21A0 DUP2 PUSH2 0x1829 JUMP JUMPDEST SWAP3 SWAP2 POP POP JUMP JUMPDEST PUSH0 PUSH1 0x20 DUP3 DUP5 SUB SLT ISZERO PUSH2 0x21BB JUMPI PUSH2 0x21BA PUSH2 0x1825 JUMP JUMPDEST JUMPDEST PUSH0 PUSH2 0x21C8 DUP5 DUP3 DUP6 ADD PUSH2 0x2192 JUMP JUMPDEST SWAP2 POP POP SWAP3 SWAP2 POP POP JUMP JUMPDEST PUSH32 0x62616C616E6365206166746572203C206265666F726500000000000000000000 PUSH0 DUP3 ADD MSTORE POP JUMP JUMPDEST PUSH0 PUSH2 0x2205 PUSH1 0x16 DUP4 PUSH2 0x1B4A JUMP JUMPDEST SWAP2 POP PUSH2 0x2210 DUP3 PUSH2 0x21D1 JUMP JUMPDEST PUSH1 0x20 DUP3 ADD SWAP1 POP SWAP2 SWAP1 POP JUMP JUMPDEST PUSH0 PUSH1 0x20 DUP3 ADD SWAP1 POP DUP2 DUP2 SUB PUSH0 DUP4 ADD MSTORE PUSH2 0x2232 DUP2 PUSH2 0x21F9 JUMP JUMPDEST SWAP1 POP SWAP2 SWAP1 POP JUMP JUMPDEST PUSH32 0x7265636569766564207A65726F00000000000000000000000000000000000000 PUSH0 DUP3 ADD MSTORE POP JUMP JUMPDEST PUSH0 PUSH2 0x226D PUSH1 0xD DUP4 PUSH2 0x1B4A JUMP JUMPDEST SWAP2 POP PUSH2 0x2278 DUP3 PUSH2 0x2239 JUMP JUMPDEST PUSH1 0x20 DUP3 ADD SWAP1 POP SWAP2 SWAP1 POP JUMP JUMPDEST PUSH0 PUSH1 0x20 DUP3 ADD SWAP1 POP DUP2 DUP2 SUB PUSH0 DUP4 ADD MSTORE PUSH2 0x229A DUP2 PUSH2 0x2261 JUMP JUMPDEST SWAP1 POP SWAP2 SWAP1 POP JUMP JUMPDEST PUSH0 PUSH1 0x80 DUP3 ADD SWAP1 POP PUSH2 0x22B4 PUSH0 DUP4 ADD DUP8 PUSH2 0x1A08 JUMP JUMPDEST PUSH2 0x22C1 PUSH1 0x20 DUP4 ADD DUP7 PUSH2 0x17FD JUMP JUMPDEST PUSH2 0x22CE PUSH1 0x40 DUP4 ADD DUP6 PUSH2 0x17FD JUMP JUMPDEST PUSH2 0x22DB PUSH1 0x60 DUP4 ADD DUP5 PUSH2 0x17FD JUMP JUMPDEST SWAP6 SWAP5 POP POP POP POP POP JUMP JUMPDEST PUSH32 0x7A65726F206F776E657200000000000000000000000000000000000000000000 PUSH0 DUP3 ADD MSTORE POP JUMP JUMPDEST PUSH0 PUSH2 0x2318 PUSH1 0xA DUP4 PUSH2 0x1B4A JUMP JUMPDEST SWAP2 POP PUSH2 0x2323 DUP3 PUSH2 0x22E4 JUMP JUMPDEST PUSH1 0x20 DUP3 ADD SWAP1 POP SWAP2 SWAP1 POP JUMP JUMPDEST PUSH0 PUSH1 0x20 DUP3 ADD SWAP1 POP DUP2 DUP2 SUB PUSH0 DUP4 ADD MSTORE PUSH2 0x2345 DUP2 PUSH2 0x230C JUMP JUMPDEST SWAP1 POP SWAP2 SWAP1 POP JUMP JUMPDEST PUSH0 PUSH1 0x40 DUP3 ADD SWAP1 POP PUSH2 0x235F PUSH0 DUP4 ADD DUP6 PUSH2 0x1A08 JUMP JUMPDEST PUSH2 0x236C PUSH1 0x20 DUP4 ADD DUP5 PUSH2 0x17FD JUMP JUMPDEST SWAP4 SWAP3 POP POP POP JUMP JUMPDEST PUSH0 PUSH1 0x60 DUP3 ADD SWAP1 POP PUSH2 0x2386 PUSH0 DUP4 ADD DUP7 PUSH2 0x1A08 JUMP JUMPDEST PUSH2 0x2393 PUSH1 0x20 DUP4 ADD DUP6 PUSH2 0x1A08 JUMP JUMPDEST PUSH2 0x23A0 PUSH1 0x40 DUP4 ADD DUP5 PUSH2 0x17FD JUMP JUMPDEST SWAP5 SWAP4 POP POP POP POP JUMP JUMPDEST PUSH0 DUP2 MLOAD SWAP1 POP SWAP2 SWAP1 POP JUMP JUMPDEST PUSH0 DUP2 SWAP1 POP SWAP3 SWAP2 POP POP JUMP JUMPDEST DUP3 DUP2 DUP4 MCOPY PUSH0 DUP4 DUP4 ADD MSTORE POP POP POP JUMP JUMPDEST PUSH0 PUSH2 0x23D4 DUP3 PUSH2 0x23A8 JUMP JUMPDEST PUSH2 0x23DE DUP2 DUP6 PUSH2 0x23B2 JUMP JUMPDEST SWAP4 POP PUSH2 0x23EE DUP2 DUP6 PUSH1 0x20 DUP7 ADD PUSH2 0x23BC JUMP JUMPDEST DUP1 DUP5 ADD SWAP2 POP POP SWAP3 SWAP2 POP POP JUMP JUMPDEST PUSH0 PUSH2 0x2405 DUP3 DUP5 PUSH2 0x23CA JUMP JUMPDEST SWAP2 POP DUP2 SWAP1 POP SWAP3 SWAP2 POP POP JUMP JUMPDEST PUSH32 0x45524332303A206C6F772D6C6576656C2063616C6C206661696C656400000000 PUSH0 DUP3 ADD MSTORE POP JUMP JUMPDEST PUSH0 PUSH2 0x2444 PUSH1 0x1C DUP4 PUSH2 0x1B4A JUMP JUMPDEST SWAP2 POP PUSH2 0x244F DUP3 PUSH2 0x2410 JUMP JUMPDEST PUSH1 0x20 DUP3 ADD SWAP1 POP SWAP2 SWAP1 POP JUMP JUMPDEST PUSH0 PUSH1 0x20 DUP3 ADD SWAP1 POP DUP2 DUP2 SUB PUSH0 DUP4 ADD MSTORE PUSH2 0x2471 DUP2 PUSH2 0x2438 JUMP JUMPDEST SWAP1 POP SWAP2 SWAP1 POP JUMP JUMPDEST PUSH2 0x2481 DUP2 PUSH2 0x18CC JUMP JUMPDEST DUP2 EQ PUSH2 0x248B JUMPI PUSH0 PUSH0 REVERT JUMPDEST POP JUMP JUMPDEST PUSH0 DUP2 MLOAD SWAP1 POP PUSH2 0x249C DUP2 PUSH2 0x2478 JUMP JUMPDEST SWAP3 SWAP2 POP POP JUMP JUMPDEST PUSH0 PUSH1 0x20 DUP3 DUP5 SUB SLT ISZERO PUSH2 0x24B7 JUMPI PUSH2 0x24B6 PUSH2 0x1825 JUMP JUMPDEST JUMPDEST PUSH0 PUSH2 0x24C4 DUP5 DUP3 DUP6 ADD PUSH2 0x248E JUMP JUMPDEST SWAP2 POP POP SWAP3 SWAP2 POP POP JUMP JUMPDEST PUSH32 0x45524332303A206F7065726174696F6E20646964206E6F742073756363656564 PUSH0 DUP3 ADD MSTORE POP JUMP JUMPDEST PUSH0 PUSH2 0x2501 PUSH1 0x20 DUP4 PUSH2 0x1B4A JUMP JUMPDEST SWAP2 POP PUSH2 0x250C DUP3 PUSH2 0x24CD JUMP JUMPDEST PUSH1 0x20 DUP3 ADD SWAP1 POP SWAP2 SWAP1 POP JUMP JUMPDEST PUSH0 PUSH1 0x20 DUP3 ADD SWAP1 POP DUP2 DUP2 SUB PUSH0 DUP4 ADD MSTORE PUSH2 0x252E DUP2 PUSH2 0x24F5 JUMP JUMPDEST SWAP1 POP SWAP2 SWAP1 POP JUMP INVALID LOG2 PUSH5 0x6970667358 0x22 SLT KECCAK256 PUSH32 0x8071AC5BE63E35F15F77550275F1A34124671717E90D107C41F74FAB392CF964 PUSH20 0x6F6C634300081E00330000000000000000000000 "
				},
				"gasEstimates": {
					"creation": {
						"codeDepositCost": "1915800",
						"executionCost": "infinite",
						"totalCost": "infinite"
					},
					"external": {
						"": "217",
						"deposit(address,uint256,address,uint256)": "infinite",
						"feeBps()": "2426",
						"getPayment(uint256)": "infinite",
						"nextId()": "2514",
						"owner()": "2580",
						"ownerWithdrawERC20(address,uint256)": "infinite",
						"payments(uint256)": "infinite",
						"release(uint256)": "infinite",
						"renounceOwnership()": "30364",
						"setFeeBps(uint256)": "infinite",
						"transferOwnership(address)": "30705",
						"withdrawNative(uint256)": "infinite"
					}
				},
				"methodIdentifiers": {
					"deposit(address,uint256,address,uint256)": "90d25074",
					"feeBps()": "24a9d853",
					"getPayment(uint256)": "3280a836",
					"nextId()": "61b8ce8c",
					"owner()": "8da5cb5b",
					"ownerWithdrawERC20(address,uint256)": "45d39b58",
					"payments(uint256)": "87d81789",
					"release(uint256)": "37bdc99b",
					"renounceOwnership()": "715018a6",
					"setFeeBps(uint256)": "72c27b62",
					"transferOwnership(address)": "f2fde38b",
					"withdrawNative(uint256)": "84276d81"
				}
			},
			"storageLayout": {
				"storage": [
					{
						"astId": 170,
						"contract": "contracts/MyProject.sol:SimpleEscrowAutoRelease",
						"label": "_owner",
						"offset": 0,
						"slot": "0",
						"type": "t_address"
					},
					{
						"astId": 265,
						"contract": "contracts/MyProject.sol:SimpleEscrowAutoRelease",
						"label": "_status",
						"offset": 0,
						"slot": "1",
						"type": "t_uint256"
					},
					{
						"astId": 302,
						"contract": "contracts/MyProject.sol:SimpleEscrowAutoRelease",
						"label": "feeBps",
						"offset": 0,
						"slot": "2",
						"type": "t_uint256"
					},
					{
						"astId": 304,
						"contract": "contracts/MyProject.sol:SimpleEscrowAutoRelease",
						"label": "nextId",
						"offset": 0,
						"slot": "3",
						"type": "t_uint256"
					},
					{
						"astId": 326,
						"contract": "contracts/MyProject.sol:SimpleEscrowAutoRelease",
						"label": "payments",
						"offset": 0,
						"slot": "4",
						"type": "t_mapping(t_uint256,t_struct(Payment)321_storage)"
					}
				],
				"types": {
					"t_address": {
						"encoding": "inplace",
						"label": "address",
						"numberOfBytes": "20"
					},
					"t_bool": {
						"encoding": "inplace",
						"label": "bool",
						"numberOfBytes": "1"
					},
					"t_mapping(t_uint256,t_struct(Payment)321_storage)": {
						"encoding": "mapping",
						"key": "t_uint256",
						"label": "mapping(uint256 => struct SimpleEscrowAutoRelease.Payment)",
						"numberOfBytes": "32",
						"value": "t_struct(Payment)321_storage"
					},
					"t_struct(Payment)321_storage": {
						"encoding": "inplace",
						"label": "struct SimpleEscrowAutoRelease.Payment",
						"members": [
							{
								"astId": 306,
								"contract": "contracts/MyProject.sol:SimpleEscrowAutoRelease",
								"label": "sender",
								"offset": 0,
								"slot": "0",
								"type": "t_address"
							},
							{
								"astId": 308,
								"contract": "contracts/MyProject.sol:SimpleEscrowAutoRelease",
								"label": "token",
								"offset": 0,
								"slot": "1",
								"type": "t_address"
							},
							{
								"astId": 310,
								"contract": "contracts/MyProject.sol:SimpleEscrowAutoRelease",
								"label": "amountExpected",
								"offset": 0,
								"slot": "2",
								"type": "t_uint256"
							},
							{
								"astId": 312,
								"contract": "contracts/MyProject.sol:SimpleEscrowAutoRelease",
								"label": "amountReceived",
								"offset": 0,
								"slot": "3",
								"type": "t_uint256"
							},
							{
								"astId": 314,
								"contract": "contracts/MyProject.sol:SimpleEscrowAutoRelease",
								"label": "recipient",
								"offset": 0,
								"slot": "4",
								"type": "t_address"
							},
							{
								"astId": 316,
								"contract": "contracts/MyProject.sol:SimpleEscrowAutoRelease",
								"label": "createdAt",
								"offset": 0,
								"slot": "5",
								"type": "t_uint256"
							},
							{
								"astId": 318,
								"contract": "contracts/MyProject.sol:SimpleEscrowAutoRelease",
								"label": "unlockTimestamp",
								"offset": 0,
								"slot": "6",
								"type": "t_uint256"
							},
							{
								"astId": 320,
								"contract": "contracts/MyProject.sol:SimpleEscrowAutoRelease",
								"label": "released",
								"offset": 0,
								"slot": "7",
								"type": "t_bool"
							}
						],
						"numberOfBytes": "256"
					},
					"t_uint256": {
						"encoding": "inplace",
						"label": "uint256",
						"numberOfBytes": "32"
					}
				}
			},
			"userdoc": {
				"kind": "user",
				"methods": {},
				"version": 1
			}
		}
	}
}