{
	"contracts/MyToken.sol": {
		"SimpleEscrowAutoRelease": {
			"abi": [
				{
					"inputs": [
						{
							"internalType": "uint256",
							"name": "_feeBps",
							"type": "uint256"
						}
					],
					"stateMutability": "nonpayable",
					"type": "constructor"
				},
				{
					"inputs": [
						{
							"internalType": "address",
							"name": "owner",
							"type": "address"
						}
					],
					"name": "OwnableInvalidOwner",
					"type": "error"
				},
				{
					"inputs": [
						{
							"internalType": "address",
							"name": "account",
							"type": "address"
						}
					],
					"name": "OwnableUnauthorizedAccount",
					"type": "error"
				},
				{
					"inputs": [
						{
							"internalType": "address",
							"name": "token",
							"type": "address"
						}
					],
					"name": "SafeERC20FailedOperation",
					"type": "error"
				},
				{
					"anonymous": false,
					"inputs": [
						{
							"indexed": true,
							"internalType": "uint256",
							"name": "id",
							"type": "uint256"
						},
						{
							"indexed": true,
							"internalType": "address",
							"name": "sender",
							"type": "address"
						},
						{
							"indexed": false,
							"internalType": "address",
							"name": "token",
							"type": "address"
						},
						{
							"indexed": false,
							"internalType": "uint256",
							"name": "amountExpected",
							"type": "uint256"
						},
						{
							"indexed": false,
							"internalType": "uint256",
							"name": "amountReceived",
							"type": "uint256"
						},
						{
							"indexed": true,
							"internalType": "address",
							"name": "recipient",
							"type": "address"
						},
						{
							"indexed": false,
							"internalType": "uint256",
							"name": "unlockTimestamp",
							"type": "uint256"
						}
					],
					"name": "Deposited",
					"type": "event"
				},
				{
					"anonymous": false,
					"inputs": [
						{
							"indexed": false,
							"internalType": "uint256",
							"name": "oldFeeBps",
							"type": "uint256"
						},
						{
							"indexed": false,
							"internalType": "uint256",
							"name": "newFeeBps",
							"type": "uint256"
						}
					],
					"name": "FeeChanged",
					"type": "event"
				},
				{
					"anonymous": false,
					"inputs": [
						{
							"indexed": true,
							"internalType": "address",
							"name": "token",
							"type": "address"
						},
						{
							"indexed": false,
							"internalType": "uint256",
							"name": "amount",
							"type": "uint256"
						}
					],
					"name": "OwnerWithdrawERC20",
					"type": "event"
				},
				{
					"anonymous": false,
					"inputs": [
						{
							"indexed": false,
							"internalType": "uint256",
							"name": "amount",
							"type": "uint256"
						}
					],
					"name": "OwnerWithdrawNative",
					"type": "event"
				},
				{
					"anonymous": false,
					"inputs": [
						{
							"indexed": true,
							"internalType": "address",
							"name": "previousOwner",
							"type": "address"
						},
						{
							"indexed": true,
							"internalType": "address",
							"name": "newOwner",
							"type": "address"
						}
					],
					"name": "OwnershipTransferred",
					"type": "event"
				},
				{
					"anonymous": false,
					"inputs": [
						{
							"indexed": true,
							"internalType": "uint256",
							"name": "id",
							"type": "uint256"
						},
						{
							"indexed": true,
							"internalType": "address",
							"name": "by",
							"type": "address"
						},
						{
							"indexed": false,
							"internalType": "uint256",
							"name": "payout",
							"type": "uint256"
						},
						{
							"indexed": true,
							"internalType": "address",
							"name": "recipient",
							"type": "address"
						}
					],
					"name": "Released",
					"type": "event"
				},
				{
					"stateMutability": "payable",
					"type": "fallback"
				},
				{
					"inputs": [
						{
							"internalType": "address",
							"name": "token",
							"type": "address"
						},
						{
							"internalType": "uint256",
							"name": "amountExpected",
							"type": "uint256"
						},
						{
							"internalType": "address",
							"name": "recipient",
							"type": "address"
						},
						{
							"internalType": "uint256",
							"name": "unlockTimestamp",
							"type": "uint256"
						}
					],
					"name": "deposit",
					"outputs": [
						{
							"internalType": "uint256",
							"name": "",
							"type": "uint256"
						}
					],
					"stateMutability": "nonpayable",
					"type": "function"
				},
				{
					"inputs": [],
					"name": "feeBps",
					"outputs": [
						{
							"internalType": "uint256",
							"name": "",
							"type": "uint256"
						}
					],
					"stateMutability": "view",
					"type": "function"
				},
				{
					"inputs": [
						{
							"internalType": "uint256",
							"name": "id",
							"type": "uint256"
						}
					],
					"name": "getPayment",
					"outputs": [
						{
							"components": [
								{
									"internalType": "address",
									"name": "sender",
									"type": "address"
								},
								{
									"internalType": "address",
									"name": "token",
									"type": "address"
								},
								{
									"internalType": "uint256",
									"name": "amountExpected",
									"type": "uint256"
								},
								{
									"internalType": "uint256",
									"name": "amountReceived",
									"type": "uint256"
								},
								{
									"internalType": "address",
									"name": "recipient",
									"type": "address"
								},
								{
									"internalType": "uint256",
									"name": "createdAt",
									"type": "uint256"
								},
								{
									"internalType": "uint256",
									"name": "unlockTimestamp",
									"type": "uint256"
								},
								{
									"internalType": "bool",
									"name": "released",
									"type": "bool"
								}
							],
							"internalType": "struct SimpleEscrowAutoRelease.Payment",
							"name": "",
							"type": "tuple"
						}
					],
					"stateMutability": "view",
					"type": "function"
				},
				{
					"inputs": [],
					"name": "nextId",
					"outputs": [
						{
							"internalType": "uint256",
							"name": "",
							"type": "uint256"
						}
					],
					"stateMutability": "view",
					"type": "function"
				},
				{
					"inputs": [],
					"name": "owner",
					"outputs": [
						{
							"internalType": "address",
							"name": "",
							"type": "address"
						}
					],
					"stateMutability": "view",
					"type": "function"
				},
				{
					"inputs": [
						{
							"internalType": "address",
							"name": "token",
							"type": "address"
						},
						{
							"internalType": "uint256",
							"name": "amount",
							"type": "uint256"
						}
					],
					"name": "ownerWithdrawERC20",
					"outputs": [],
					"stateMutability": "nonpayable",
					"type": "function"
				},
				{
					"inputs": [
						{
							"internalType": "uint256",
							"name": "",
							"type": "uint256"
						}
					],
					"name": "payments",
					"outputs": [
						{
							"internalType": "address",
							"name": "sender",
							"type": "address"
						},
						{
							"internalType": "address",
							"name": "token",
							"type": "address"
						},
						{
							"internalType": "uint256",
							"name": "amountExpected",
							"type": "uint256"
						},
						{
							"internalType": "uint256",
							"name": "amountReceived",
							"type": "uint256"
						},
						{
							"internalType": "address",
							"name": "recipient",
							"type": "address"
						},
						{
							"internalType": "uint256",
							"name": "createdAt",
							"type": "uint256"
						},
						{
							"internalType": "uint256",
							"name": "unlockTimestamp",
							"type": "uint256"
						},
						{
							"internalType": "bool",
							"name": "released",
							"type": "bool"
						}
					],
					"stateMutability": "view",
					"type": "function"
				},
				{
					"inputs": [
						{
							"internalType": "uint256",
							"name": "id",
							"type": "uint256"
						}
					],
					"name": "release",
					"outputs": [],
					"stateMutability": "nonpayable",
					"type": "function"
				},
				{
					"inputs": [],
					"name": "renounceOwnership",
					"outputs": [],
					"stateMutability": "nonpayable",
					"type": "function"
				},
				{
					"inputs": [
						{
							"internalType": "uint256",
							"name": "newFeeBps",
							"type": "uint256"
						}
					],
					"name": "setFeeBps",
					"outputs": [],
					"stateMutability": "nonpayable",
					"type": "function"
				},
				{
					"inputs": [
						{
							"internalType": "address",
							"name": "newOwner",
							"type": "address"
						}
					],
					"name": "transferOwnership",
					"outputs": [],
					"stateMutability": "nonpayable",
					"type": "function"
				},
				{
					"inputs": [
						{
							"internalType": "uint256",
							"name": "amount",
							"type": "uint256"
						}
					],
					"name": "withdrawNative",
					"outputs": [],
					"stateMutability": "nonpayable",
					"type": "function"
				},
				{
					"stateMutability": "payable",
					"type": "receive"
				}
			],
			"devdoc": {
				"errors": {
					"OwnableInvalidOwner(address)": [
						{
							"details": "The owner is not a valid owner account. (eg. `address(0)`)"
						}
					],
					"OwnableUnauthorizedAccount(address)": [
						{
							"details": "The caller account is not authorized to perform an operation."
						}
					],
					"SafeERC20FailedOperation(address)": [
						{
							"details": "An operation with an ERC-20 token failed."
						}
					]
				},
				"kind": "dev",
				"methods": {
					"constructor": {
						"details": "Constructor sets initial fee and owner. Note: Ownable(msg.sender) required for OpenZeppelin v5+ where Ownable constructor expects initial owner."
					},
					"deposit(address,uint256,address,uint256)": {
						"params": {
							"amountExpected": "amount in token smallest unit the sender expects to deposit (must approve this amount)",
							"recipient": "recipient address",
							"token": "ERC20 token address (cannot be zero)",
							"unlockTimestamp": "unix timestamp after which anyone may call release() if not released"
						},
						"returns": {
							"_0": "id payment id Notes: - We record actual received amount by checking balance before/after safeTransferFrom. - unlockTimestamp must be at least `block.timestamp + 60` (1 minute) to avoid immediate release abuse."
						}
					},
					"owner()": {
						"details": "Returns the address of the current owner."
					},
					"renounceOwnership()": {
						"details": "Leaves the contract without owner. It will not be possible to call `onlyOwner` functions. Can only be called by the current owner. NOTE: Renouncing ownership will leave the contract without an owner, thereby disabling any functionality that is only available to the owner."
					},
					"transferOwnership(address)": {
						"details": "Transfers ownership of the contract to a new account (`newOwner`). Can only be called by the current owner."
					}
				},
				"version": 1
			},
			"evm": {
				"assembly": "    /* \"contracts/MyToken.sol\":719:6686  contract SimpleEscrowAutoRelease is Ownable, ReentrancyGuard {... */\n  mstore(0x40, 0x80)\n    /* \"contracts/MyToken.sol\":2072:2226  constructor(uint256 _feeBps) Ownable(msg.sender) {... */\n  callvalue\n  dup1\n  iszero\n  tag_1\n  jumpi\n  revert(0x00, 0x00)\ntag_1:\n  pop\n  mload(0x40)\n  sub(codesize, bytecodeSize)\n  dup1\n  bytecodeSize\n  dup4\n  codecopy\n  dup2\n  dup2\n  add\n  0x40\n  mstore\n  dup2\n  add\n  swap1\n  tag_2\n  swap2\n  swap1\n  tag_3\n  jump\t// in\ntag_2:\n    /* \"contracts/MyToken.sol\":2109:2119  msg.sender */\n  caller\n    /* \"@openzeppelin/contracts/access/Ownable.sol\":1297:1298  0 */\n  0x00\n    /* \"@openzeppelin/contracts/access/Ownable.sol\":1273:1299  initialOwner == address(0) */\n  0xffffffffffffffffffffffffffffffffffffffff\n  and\n    /* \"@openzeppelin/contracts/access/Ownable.sol\":1273:1285  initialOwner */\n  dup2\n    /* \"@openzeppelin/contracts/access/Ownable.sol\":1273:1299  initialOwner == address(0) */\n  0xffffffffffffffffffffffffffffffffffffffff\n  and\n  sub\n    /* \"@openzeppelin/contracts/access/Ownable.sol\":1269:1364  if (initialOwner == address(0)) {... */\n  tag_8\n  jumpi\n    /* \"@openzeppelin/contracts/access/Ownable.sol\":1350:1351  0 */\n  0x00\n    /* \"@openzeppelin/contracts/access/Ownable.sol\":1322:1353  OwnableInvalidOwner(address(0)) */\n  mload(0x40)\n  0x1e4fbdf700000000000000000000000000000000000000000000000000000000\n  dup2\n  mstore\n  0x04\n  add\n  tag_9\n  swap2\n  swap1\n  tag_10\n  jump\t// in\ntag_9:\n  mload(0x40)\n  dup1\n  swap2\n  sub\n  swap1\n  revert\n    /* \"@openzeppelin/contracts/access/Ownable.sol\":1269:1364  if (initialOwner == address(0)) {... */\ntag_8:\n    /* \"@openzeppelin/contracts/access/Ownable.sol\":1373:1405  _transferOwnership(initialOwner) */\n  tag_11\n    /* \"@openzeppelin/contracts/access/Ownable.sol\":1392:1404  initialOwner */\n  dup2\n    /* \"@openzeppelin/contracts/access/Ownable.sol\":1373:1391  _transferOwnership */\n  shl(0x20, tag_12)\n    /* \"@openzeppelin/contracts/access/Ownable.sol\":1373:1405  _transferOwnership(initialOwner) */\n  0x20\n  shr\n  jump\t// in\ntag_11:\n    /* \"@openzeppelin/contracts/access/Ownable.sol\":1225:1412  constructor(address initialOwner) {... */\n  pop\n    /* \"@openzeppelin/contracts/security/ReentrancyGuard.sol\":1716:1717  1 */\n  0x01\n    /* \"@openzeppelin/contracts/security/ReentrancyGuard.sol\":1821:1828  _status */\n  dup1\n    /* \"@openzeppelin/contracts/security/ReentrancyGuard.sol\":1821:1843  _status = _NOT_ENTERED */\n  dup2\n  swap1\n  sstore\n  pop\n    /* \"contracts/MyToken.sol\":2150:2155  10000 */\n  0x2710\n    /* \"contracts/MyToken.sol\":2139:2146  _feeBps */\n  dup2\n    /* \"contracts/MyToken.sol\":2139:2155  _feeBps <= 10000 */\n  gt\n  iszero\n    /* \"contracts/MyToken.sol\":2131:2173  require(_feeBps <= 10000, \"feeBps<=10000\") */\n  tag_15\n  jumpi\n  mload(0x40)\n  0x08c379a000000000000000000000000000000000000000000000000000000000\n  dup2\n  mstore\n  0x04\n  add\n  tag_16\n  swap1\n  tag_17\n  jump\t// in\ntag_16:\n  mload(0x40)\n  dup1\n  swap2\n  sub\n  swap1\n  revert\ntag_15:\n    /* \"contracts/MyToken.sol\":2192:2199  _feeBps */\n  dup1\n    /* \"contracts/MyToken.sol\":2183:2189  feeBps */\n  0x02\n    /* \"contracts/MyToken.sol\":2183:2199  feeBps = _feeBps */\n  dup2\n  swap1\n  sstore\n  pop\n    /* \"contracts/MyToken.sol\":2218:2219  1 */\n  0x01\n    /* \"contracts/MyToken.sol\":2209:2215  nextId */\n  0x03\n    /* \"contracts/MyToken.sol\":2209:2219  nextId = 1 */\n  dup2\n  swap1\n  sstore\n  pop\n    /* \"contracts/MyToken.sol\":2072:2226  constructor(uint256 _feeBps) Ownable(msg.sender) {... */\n  pop\n    /* \"contracts/MyToken.sol\":719:6686  contract SimpleEscrowAutoRelease is Ownable, ReentrancyGuard {... */\n  jump(tag_18)\n    /* \"@openzeppelin/contracts/access/Ownable.sol\":2912:3099  function _transferOwnership(address newOwner) internal virtual {... */\ntag_12:\n    /* \"@openzeppelin/contracts/access/Ownable.sol\":2985:3001  address oldOwner */\n  0x00\n    /* \"@openzeppelin/contracts/access/Ownable.sol\":3004:3010  _owner */\n  0x00\n  0x00\n  swap1\n  sload\n  swap1\n  0x0100\n  exp\n  swap1\n  div\n  0xffffffffffffffffffffffffffffffffffffffff\n  and\n    /* \"@openzeppelin/contracts/access/Ownable.sol\":2985:3010  address oldOwner = _owner */\n  swap1\n  pop\n    /* \"@openzeppelin/contracts/access/Ownable.sol\":3029:3037  newOwner */\n  dup2\n    /* \"@openzeppelin/contracts/access/Ownable.sol\":3020:3026  _owner */\n  0x00\n  0x00\n    /* \"@openzeppelin/contracts/access/Ownable.sol\":3020:3037  _owner = newOwner */\n  0x0100\n  exp\n  dup2\n  sload\n  dup2\n  0xffffffffffffffffffffffffffffffffffffffff\n  mul\n  not\n  and\n  swap1\n  dup4\n  0xffffffffffffffffffffffffffffffffffffffff\n  and\n  mul\n  or\n  swap1\n  sstore\n  pop\n    /* \"@openzeppelin/contracts/access/Ownable.sol\":3083:3091  newOwner */\n  dup2\n    /* \"@openzeppelin/contracts/access/Ownable.sol\":3052:3092  OwnershipTransferred(oldOwner, newOwner) */\n  0xffffffffffffffffffffffffffffffffffffffff\n  and\n    /* \"@openzeppelin/contracts/access/Ownable.sol\":3073:3081  oldOwner */\n  dup2\n    /* \"@openzeppelin/contracts/access/Ownable.sol\":3052:3092  OwnershipTransferred(oldOwner, newOwner) */\n  0xffffffffffffffffffffffffffffffffffffffff\n  and\n  0x8be0079c531659141344cd1fd0a4f28419497f9722a3daafe3b4186f6b6457e0\n  mload(0x40)\n  mload(0x40)\n  dup1\n  swap2\n  sub\n  swap1\n  log3\n    /* \"@openzeppelin/contracts/access/Ownable.sol\":2975:3099  {... */\n  pop\n    /* \"@openzeppelin/contracts/access/Ownable.sol\":2912:3099  function _transferOwnership(address newOwner) internal virtual {... */\n  pop\n  jump\t// out\n    /* \"#utility.yul\":88:205   */\ntag_21:\n    /* \"#utility.yul\":197:198   */\n  0x00\n    /* \"#utility.yul\":194:195   */\n  0x00\n    /* \"#utility.yul\":187:199   */\n  revert\n    /* \"#utility.yul\":334:411   */\ntag_23:\n    /* \"#utility.yul\":371:378   */\n  0x00\n    /* \"#utility.yul\":400:405   */\n  dup2\n    /* \"#utility.yul\":389:405   */\n  swap1\n  pop\n    /* \"#utility.yul\":334:411   */\n  swap2\n  swap1\n  pop\n  jump\t// out\n    /* \"#utility.yul\":417:539   */\ntag_24:\n    /* \"#utility.yul\":490:514   */\n  tag_38\n    /* \"#utility.yul\":508:513   */\n  dup2\n    /* \"#utility.yul\":490:514   */\n  tag_23\n  jump\t// in\ntag_38:\n    /* \"#utility.yul\":483:488   */\n  dup2\n    /* \"#utility.yul\":480:515   */\n  eq\n    /* \"#utility.yul\":470:533   */\n  tag_39\n  jumpi\n    /* \"#utility.yul\":529:530   */\n  0x00\n    /* \"#utility.yul\":526:527   */\n  0x00\n    /* \"#utility.yul\":519:531   */\n  revert\n    /* \"#utility.yul\":470:533   */\ntag_39:\n    /* \"#utility.yul\":417:539   */\n  pop\n  jump\t// out\n    /* \"#utility.yul\":545:688   */\ntag_25:\n    /* \"#utility.yul\":602:607   */\n  0x00\n    /* \"#utility.yul\":633:639   */\n  dup2\n    /* \"#utility.yul\":627:640   */\n  mload\n    /* \"#utility.yul\":618:640   */\n  swap1\n  pop\n    /* \"#utility.yul\":649:682   */\n  tag_41\n    /* \"#utility.yul\":676:681   */\n  dup2\n    /* \"#utility.yul\":649:682   */\n  tag_24\n  jump\t// in\ntag_41:\n    /* \"#utility.yul\":545:688   */\n  swap3\n  swap2\n  pop\n  pop\n  jump\t// out\n    /* \"#utility.yul\":694:1045   */\ntag_3:\n    /* \"#utility.yul\":764:770   */\n  0x00\n    /* \"#utility.yul\":813:815   */\n  0x20\n    /* \"#utility.yul\":801:810   */\n  dup3\n    /* \"#utility.yul\":792:799   */\n  dup5\n    /* \"#utility.yul\":788:811   */\n  sub\n    /* \"#utility.yul\":784:816   */\n  slt\n    /* \"#utility.yul\":781:900   */\n  iszero\n  tag_43\n  jumpi\n    /* \"#utility.yul\":819:898   */\n  tag_44\n  tag_21\n  jump\t// in\ntag_44:\n    /* \"#utility.yul\":781:900   */\ntag_43:\n    /* \"#utility.yul\":939:940   */\n  0x00\n    /* \"#utility.yul\":964:1028   */\n  tag_45\n    /* \"#utility.yul\":1020:1027   */\n  dup5\n    /* \"#utility.yul\":1011:1017   */\n  dup3\n    /* \"#utility.yul\":1000:1009   */\n  dup6\n    /* \"#utility.yul\":996:1018   */\n  add\n    /* \"#utility.yul\":964:1028   */\n  tag_25\n  jump\t// in\ntag_45:\n    /* \"#utility.yul\":954:1028   */\n  swap2\n  pop\n    /* \"#utility.yul\":910:1038   */\n  pop\n    /* \"#utility.yul\":694:1045   */\n  swap3\n  swap2\n  pop\n  pop\n  jump\t// out\n    /* \"#utility.yul\":1051:1177   */\ntag_26:\n    /* \"#utility.yul\":1088:1095   */\n  0x00\n    /* \"#utility.yul\":1128:1170   */\n  0xffffffffffffffffffffffffffffffffffffffff\n    /* \"#utility.yul\":1121:1126   */\n  dup3\n    /* \"#utility.yul\":1117:1171   */\n  and\n    /* \"#utility.yul\":1106:1171   */\n  swap1\n  pop\n    /* \"#utility.yul\":1051:1177   */\n  swap2\n  swap1\n  pop\n  jump\t// out\n    /* \"#utility.yul\":1183:1279   */\ntag_27:\n    /* \"#utility.yul\":1220:1227   */\n  0x00\n    /* \"#utility.yul\":1249:1273   */\n  tag_48\n    /* \"#utility.yul\":1267:1272   */\n  dup3\n    /* \"#utility.yul\":1249:1273   */\n  tag_26\n  jump\t// in\ntag_48:\n    /* \"#utility.yul\":1238:1273   */\n  swap1\n  pop\n    /* \"#utility.yul\":1183:1279   */\n  swap2\n  swap1\n  pop\n  jump\t// out\n    /* \"#utility.yul\":1285:1403   */\ntag_28:\n    /* \"#utility.yul\":1372:1396   */\n  tag_50\n    /* \"#utility.yul\":1390:1395   */\n  dup2\n    /* \"#utility.yul\":1372:1396   */\n  tag_27\n  jump\t// in\ntag_50:\n    /* \"#utility.yul\":1367:1370   */\n  dup3\n    /* \"#utility.yul\":1360:1397   */\n  mstore\n    /* \"#utility.yul\":1285:1403   */\n  pop\n  pop\n  jump\t// out\n    /* \"#utility.yul\":1409:1631   */\ntag_10:\n    /* \"#utility.yul\":1502:1506   */\n  0x00\n    /* \"#utility.yul\":1540:1542   */\n  0x20\n    /* \"#utility.yul\":1529:1538   */\n  dup3\n    /* \"#utility.yul\":1525:1543   */\n  add\n    /* \"#utility.yul\":1517:1543   */\n  swap1\n  pop\n    /* \"#utility.yul\":1553:1624   */\n  tag_52\n    /* \"#utility.yul\":1621:1622   */\n  0x00\n    /* \"#utility.yul\":1610:1619   */\n  dup4\n    /* \"#utility.yul\":1606:1623   */\n  add\n    /* \"#utility.yul\":1597:1603   */\n  dup5\n    /* \"#utility.yul\":1553:1624   */\n  tag_28\n  jump\t// in\ntag_52:\n    /* \"#utility.yul\":1409:1631   */\n  swap3\n  swap2\n  pop\n  pop\n  jump\t// out\n    /* \"#utility.yul\":1637:1806   */\ntag_29:\n    /* \"#utility.yul\":1721:1732   */\n  0x00\n    /* \"#utility.yul\":1755:1761   */\n  dup3\n    /* \"#utility.yul\":1750:1753   */\n  dup3\n    /* \"#utility.yul\":1743:1762   */\n  mstore\n    /* \"#utility.yul\":1795:1799   */\n  0x20\n    /* \"#utility.yul\":1790:1793   */\n  dup3\n    /* \"#utility.yul\":1786:1800   */\n  add\n    /* \"#utility.yul\":1771:1800   */\n  swap1\n  pop\n    /* \"#utility.yul\":1637:1806   */\n  swap3\n  swap2\n  pop\n  pop\n  jump\t// out\n    /* \"#utility.yul\":1812:1975   */\ntag_30:\n    /* \"#utility.yul\":1952:1967   */\n  0x6665654270733c3d313030303000000000000000000000000000000000000000\n    /* \"#utility.yul\":1948:1949   */\n  0x00\n    /* \"#utility.yul\":1940:1946   */\n  dup3\n    /* \"#utility.yul\":1936:1950   */\n  add\n    /* \"#utility.yul\":1929:1968   */\n  mstore\n    /* \"#utility.yul\":1812:1975   */\n  pop\n  jump\t// out\n    /* \"#utility.yul\":1981:2347   */\ntag_31:\n    /* \"#utility.yul\":2123:2126   */\n  0x00\n    /* \"#utility.yul\":2144:2211   */\n  tag_56\n    /* \"#utility.yul\":2208:2210   */\n  0x0d\n    /* \"#utility.yul\":2203:2206   */\n  dup4\n    /* \"#utility.yul\":2144:2211   */\n  tag_29\n  jump\t// in\ntag_56:\n    /* \"#utility.yul\":2137:2211   */\n  swap2\n  pop\n    /* \"#utility.yul\":2220:2313   */\n  tag_57\n    /* \"#utility.yul\":2309:2312   */\n  dup3\n    /* \"#utility.yul\":2220:2313   */\n  tag_30\n  jump\t// in\ntag_57:\n    /* \"#utility.yul\":2338:2340   */\n  0x20\n    /* \"#utility.yul\":2333:2336   */\n  dup3\n    /* \"#utility.yul\":2329:2341   */\n  add\n    /* \"#utility.yul\":2322:2341   */\n  swap1\n  pop\n    /* \"#utility.yul\":1981:2347   */\n  swap2\n  swap1\n  pop\n  jump\t// out\n    /* \"#utility.yul\":2353:2772   */\ntag_17:\n    /* \"#utility.yul\":2519:2523   */\n  0x00\n    /* \"#utility.yul\":2557:2559   */\n  0x20\n    /* \"#utility.yul\":2546:2555   */\n  dup3\n    /* \"#utility.yul\":2542:2560   */\n  add\n    /* \"#utility.yul\":2534:2560   */\n  swap1\n  pop\n    /* \"#utility.yul\":2606:2615   */\n  dup2\n    /* \"#utility.yul\":2600:2604   */\n  dup2\n    /* \"#utility.yul\":2596:2616   */\n  sub\n    /* \"#utility.yul\":2592:2593   */\n  0x00\n    /* \"#utility.yul\":2581:2590   */\n  dup4\n    /* \"#utility.yul\":2577:2594   */\n  add\n    /* \"#utility.yul\":2570:2617   */\n  mstore\n    /* \"#utility.yul\":2634:2765   */\n  tag_59\n    /* \"#utility.yul\":2760:2764   */\n  dup2\n    /* \"#utility.yul\":2634:2765   */\n  tag_31\n  jump\t// in\ntag_59:\n    /* \"#utility.yul\":2626:2765   */\n  swap1\n  pop\n    /* \"#utility.yul\":2353:2772   */\n  swap2\n  swap1\n  pop\n  jump\t// out\n    /* \"contracts/MyToken.sol\":719:6686  contract SimpleEscrowAutoRelease is Ownable, ReentrancyGuard {... */\ntag_18:\n  dataSize(sub_0)\n  dup1\n  dataOffset(sub_0)\n  0x00\n  codecopy\n  0x00\n  return\nstop\n\nsub_0: assembly {\n        /* \"contracts/MyToken.sol\":719:6686  contract SimpleEscrowAutoRelease is Ownable, ReentrancyGuard {... */\n      mstore(0x40, 0x80)\n      jumpi(tag_1, lt(calldatasize, 0x04))\n      shr(0xe0, calldataload(0x00))\n      dup1\n      0x72c27b62\n      gt\n      tag_15\n      jumpi\n      dup1\n      0x72c27b62\n      eq\n      tag_9\n      jumpi\n      dup1\n      0x84276d81\n      eq\n      tag_10\n      jumpi\n      dup1\n      0x87d81789\n      eq\n      tag_11\n      jumpi\n      dup1\n      0x8da5cb5b\n      eq\n      tag_12\n      jumpi\n      dup1\n      0x90d25074\n      eq\n      tag_13\n      jumpi\n      dup1\n      0xf2fde38b\n      eq\n      tag_14\n      jumpi\n      jump(tag_2)\n    tag_15:\n      dup1\n      0x24a9d853\n      eq\n      tag_3\n      jumpi\n      dup1\n      0x3280a836\n      eq\n      tag_4\n      jumpi\n      dup1\n      0x37bdc99b\n      eq\n      tag_5\n      jumpi\n      dup1\n      0x45d39b58\n      eq\n      tag_6\n      jumpi\n      dup1\n      0x61b8ce8c\n      eq\n      tag_7\n      jumpi\n      dup1\n      0x715018a6\n      eq\n      tag_8\n      jumpi\n      jump(tag_2)\n    tag_1:\n    tag_2:\n      stop\n        /* \"contracts/MyToken.sol\":819:840  uint256 public feeBps */\n    tag_3:\n      callvalue\n      dup1\n      iszero\n      tag_20\n      jumpi\n      revert(0x00, 0x00)\n    tag_20:\n      pop\n      tag_21\n      tag_22\n      jump\t// in\n    tag_21:\n      mload(0x40)\n      tag_23\n      swap2\n      swap1\n      tag_24\n      jump\t// in\n    tag_23:\n      mload(0x40)\n      dup1\n      swap2\n      sub\n      swap1\n      return\n        /* \"contracts/MyToken.sol\":6577:6684  function getPayment(uint256 id) external view returns (Payment memory) {... */\n    tag_4:\n      callvalue\n      dup1\n      iszero\n      tag_25\n      jumpi\n      revert(0x00, 0x00)\n    tag_25:\n      pop\n      tag_26\n      0x04\n      dup1\n      calldatasize\n      sub\n      dup2\n      add\n      swap1\n      tag_27\n      swap2\n      swap1\n      tag_28\n      jump\t// in\n    tag_27:\n      tag_29\n      jump\t// in\n    tag_26:\n      mload(0x40)\n      tag_30\n      swap2\n      swap1\n      tag_31\n      jump\t// in\n    tag_30:\n      mload(0x40)\n      dup1\n      swap2\n      sub\n      swap1\n      return\n        /* \"contracts/MyToken.sol\":4589:5758  function release(uint256 id) external nonReentrant {... */\n    tag_5:\n      callvalue\n      dup1\n      iszero\n      tag_32\n      jumpi\n      revert(0x00, 0x00)\n    tag_32:\n      pop\n      tag_33\n      0x04\n      dup1\n      calldatasize\n      sub\n      dup2\n      add\n      swap1\n      tag_34\n      swap2\n      swap1\n      tag_28\n      jump\t// in\n    tag_34:\n      tag_35\n      jump\t// in\n    tag_33:\n      stop\n        /* \"contracts/MyToken.sol\":5983:6221  function ownerWithdrawERC20(address token, uint256 amount) external onlyOwner {... */\n    tag_6:\n      callvalue\n      dup1\n      iszero\n      tag_36\n      jumpi\n      revert(0x00, 0x00)\n    tag_36:\n      pop\n      tag_37\n      0x04\n      dup1\n      calldatasize\n      sub\n      dup2\n      add\n      swap1\n      tag_38\n      swap2\n      swap1\n      tag_39\n      jump\t// in\n    tag_38:\n      tag_40\n      jump\t// in\n    tag_37:\n      stop\n        /* \"contracts/MyToken.sol\":880:901  uint256 public nextId */\n    tag_7:\n      callvalue\n      dup1\n      iszero\n      tag_41\n      jumpi\n      revert(0x00, 0x00)\n    tag_41:\n      pop\n      tag_42\n      tag_43\n      jump\t// in\n    tag_42:\n      mload(0x40)\n      tag_44\n      swap2\n      swap1\n      tag_24\n      jump\t// in\n    tag_44:\n      mload(0x40)\n      dup1\n      swap2\n      sub\n      swap1\n      return\n        /* \"@openzeppelin/contracts/access/Ownable.sol\":2293:2394  function renounceOwnership() public virtual onlyOwner {... */\n    tag_8:\n      callvalue\n      dup1\n      iszero\n      tag_45\n      jumpi\n      revert(0x00, 0x00)\n    tag_45:\n      pop\n      tag_46\n      tag_47\n      jump\t// in\n    tag_46:\n      stop\n        /* \"contracts/MyToken.sol\":5787:5977  function setFeeBps(uint256 newFeeBps) external onlyOwner {... */\n    tag_9:\n      callvalue\n      dup1\n      iszero\n      tag_48\n      jumpi\n      revert(0x00, 0x00)\n    tag_48:\n      pop\n      tag_49\n      0x04\n      dup1\n      calldatasize\n      sub\n      dup2\n      add\n      swap1\n      tag_50\n      swap2\n      swap1\n      tag_28\n      jump\t// in\n    tag_50:\n      tag_51\n      jump\t// in\n    tag_49:\n      stop\n        /* \"contracts/MyToken.sol\":6227:6451  function withdrawNative(uint256 amount) external onlyOwner {... */\n    tag_10:\n      callvalue\n      dup1\n      iszero\n      tag_52\n      jumpi\n      revert(0x00, 0x00)\n    tag_52:\n      pop\n      tag_53\n      0x04\n      dup1\n      calldatasize\n      sub\n      dup2\n      add\n      swap1\n      tag_54\n      swap2\n      swap1\n      tag_28\n      jump\t// in\n    tag_54:\n      tag_55\n      jump\t// in\n    tag_53:\n      stop\n        /* \"contracts/MyToken.sol\":1319:1362  mapping(uint256 => Payment) public payments */\n    tag_11:\n      callvalue\n      dup1\n      iszero\n      tag_56\n      jumpi\n      revert(0x00, 0x00)\n    tag_56:\n      pop\n      tag_57\n      0x04\n      dup1\n      calldatasize\n      sub\n      dup2\n      add\n      swap1\n      tag_58\n      swap2\n      swap1\n      tag_28\n      jump\t// in\n    tag_58:\n      tag_59\n      jump\t// in\n    tag_57:\n      mload(0x40)\n      tag_60\n      swap9\n      swap8\n      swap7\n      swap6\n      swap5\n      swap4\n      swap3\n      swap2\n      swap1\n      tag_61\n      jump\t// in\n    tag_60:\n      mload(0x40)\n      dup1\n      swap2\n      sub\n      swap1\n      return\n        /* \"@openzeppelin/contracts/access/Ownable.sol\":1638:1723  function owner() public view virtual returns (address) {... */\n    tag_12:\n      callvalue\n      dup1\n      iszero\n      tag_62\n      jumpi\n      revert(0x00, 0x00)\n    tag_62:\n      pop\n      tag_63\n      tag_64\n      jump\t// in\n    tag_63:\n      mload(0x40)\n      tag_65\n      swap2\n      swap1\n      tag_66\n      jump\t// in\n    tag_65:\n      mload(0x40)\n      dup1\n      swap2\n      sub\n      swap1\n      return\n        /* \"contracts/MyToken.sol\":2858:4375  function deposit(... */\n    tag_13:\n      callvalue\n      dup1\n      iszero\n      tag_67\n      jumpi\n      revert(0x00, 0x00)\n    tag_67:\n      pop\n      tag_68\n      0x04\n      dup1\n      calldatasize\n      sub\n      dup2\n      add\n      swap1\n      tag_69\n      swap2\n      swap1\n      tag_70\n      jump\t// in\n    tag_69:\n      tag_71\n      jump\t// in\n    tag_68:\n      mload(0x40)\n      tag_72\n      swap2\n      swap1\n      tag_24\n      jump\t// in\n    tag_72:\n      mload(0x40)\n      dup1\n      swap2\n      sub\n      swap1\n      return\n        /* \"@openzeppelin/contracts/access/Ownable.sol\":2543:2758  function transferOwnership(address newOwner) public virtual onlyOwner {... */\n    tag_14:\n      callvalue\n      dup1\n      iszero\n      tag_73\n      jumpi\n      revert(0x00, 0x00)\n    tag_73:\n      pop\n      tag_74\n      0x04\n      dup1\n      calldatasize\n      sub\n      dup2\n      add\n      swap1\n      tag_75\n      swap2\n      swap1\n      tag_76\n      jump\t// in\n    tag_75:\n      tag_77\n      jump\t// in\n    tag_74:\n      stop\n        /* \"contracts/MyToken.sol\":819:840  uint256 public feeBps */\n    tag_22:\n      sload(0x02)\n      dup2\n      jump\t// out\n        /* \"contracts/MyToken.sol\":6577:6684  function getPayment(uint256 id) external view returns (Payment memory) {... */\n    tag_29:\n        /* \"contracts/MyToken.sol\":6632:6646  Payment memory */\n      tag_78\n      tag_79\n      jump\t// in\n    tag_78:\n        /* \"contracts/MyToken.sol\":6665:6673  payments */\n      0x04\n        /* \"contracts/MyToken.sol\":6665:6677  payments[id] */\n      0x00\n        /* \"contracts/MyToken.sol\":6674:6676  id */\n      dup4\n        /* \"contracts/MyToken.sol\":6665:6677  payments[id] */\n      dup2\n      mstore\n      0x20\n      add\n      swap1\n      dup2\n      mstore\n      0x20\n      add\n      0x00\n      keccak256\n        /* \"contracts/MyToken.sol\":6658:6677  return payments[id] */\n      mload(0x40)\n      dup1\n      0x0100\n      add\n      0x40\n      mstore\n      swap1\n      dup2\n      0x00\n      dup3\n      add\n      0x00\n      swap1\n      sload\n      swap1\n      0x0100\n      exp\n      swap1\n      div\n      0xffffffffffffffffffffffffffffffffffffffff\n      and\n      0xffffffffffffffffffffffffffffffffffffffff\n      and\n      0xffffffffffffffffffffffffffffffffffffffff\n      and\n      dup2\n      mstore\n      0x20\n      add\n      0x01\n      dup3\n      add\n      0x00\n      swap1\n      sload\n      swap1\n      0x0100\n      exp\n      swap1\n      div\n      0xffffffffffffffffffffffffffffffffffffffff\n      and\n      0xffffffffffffffffffffffffffffffffffffffff\n      and\n      0xffffffffffffffffffffffffffffffffffffffff\n      and\n      dup2\n      mstore\n      0x20\n      add\n      0x02\n      dup3\n      add\n      sload\n      dup2\n      mstore\n      0x20\n      add\n      0x03\n      dup3\n      add\n      sload\n      dup2\n      mstore\n      0x20\n      add\n      0x04\n      dup3\n      add\n      0x00\n      swap1\n      sload\n      swap1\n      0x0100\n      exp\n      swap1\n      div\n      0xffffffffffffffffffffffffffffffffffffffff\n      and\n      0xffffffffffffffffffffffffffffffffffffffff\n      and\n      0xffffffffffffffffffffffffffffffffffffffff\n      and\n      dup2\n      mstore\n      0x20\n      add\n      0x05\n      dup3\n      add\n      sload\n      dup2\n      mstore\n      0x20\n      add\n      0x06\n      dup3\n      add\n      sload\n      dup2\n      mstore\n      0x20\n      add\n      0x07\n      dup3\n      add\n      0x00\n      swap1\n      sload\n      swap1\n      0x0100\n      exp\n      swap1\n      div\n      0xff\n      and\n      iszero\n      iszero\n      iszero\n      iszero\n      dup2\n      mstore\n      pop\n      pop\n      swap1\n      pop\n        /* \"contracts/MyToken.sol\":6577:6684  function getPayment(uint256 id) external view returns (Payment memory) {... */\n      swap2\n      swap1\n      pop\n      jump\t// out\n        /* \"contracts/MyToken.sol\":4589:5758  function release(uint256 id) external nonReentrant {... */\n    tag_35:\n        /* \"@openzeppelin/contracts/security/ReentrancyGuard.sol\":2261:2282  _nonReentrantBefore() */\n      tag_82\n        /* \"@openzeppelin/contracts/security/ReentrancyGuard.sol\":2261:2280  _nonReentrantBefore */\n      tag_83\n        /* \"@openzeppelin/contracts/security/ReentrancyGuard.sol\":2261:2282  _nonReentrantBefore() */\n      jump\t// in\n    tag_82:\n        /* \"contracts/MyToken.sol\":4650:4667  Payment storage p */\n      0x00\n        /* \"contracts/MyToken.sol\":4670:4678  payments */\n      0x04\n        /* \"contracts/MyToken.sol\":4670:4682  payments[id] */\n      0x00\n        /* \"contracts/MyToken.sol\":4679:4681  id */\n      dup4\n        /* \"contracts/MyToken.sol\":4670:4682  payments[id] */\n      dup2\n      mstore\n      0x20\n      add\n      swap1\n      dup2\n      mstore\n      0x20\n      add\n      0x00\n      keccak256\n        /* \"contracts/MyToken.sol\":4650:4682  Payment storage p = payments[id] */\n      swap1\n      pop\n        /* \"contracts/MyToken.sol\":4719:4720  0 */\n      0x00\n        /* \"contracts/MyToken.sol\":4700:4701  p */\n      dup2\n        /* \"contracts/MyToken.sol\":4700:4716  p.amountReceived */\n      0x03\n      add\n      sload\n        /* \"contracts/MyToken.sol\":4700:4720  p.amountReceived > 0 */\n      gt\n        /* \"contracts/MyToken.sol\":4692:4742  require(p.amountReceived > 0, \"not found or zero\") */\n      tag_85\n      jumpi\n      mload(0x40)\n      0x08c379a000000000000000000000000000000000000000000000000000000000\n      dup2\n      mstore\n      0x04\n      add\n      tag_86\n      swap1\n      tag_87\n      jump\t// in\n    tag_86:\n      mload(0x40)\n      dup1\n      swap2\n      sub\n      swap1\n      revert\n    tag_85:\n        /* \"contracts/MyToken.sol\":4761:4762  p */\n      dup1\n        /* \"contracts/MyToken.sol\":4761:4771  p.released */\n      0x07\n      add\n      0x00\n      swap1\n      sload\n      swap1\n      0x0100\n      exp\n      swap1\n      div\n      0xff\n      and\n        /* \"contracts/MyToken.sol\":4760:4771  !p.released */\n      iszero\n        /* \"contracts/MyToken.sol\":4752:4792  require(!p.released, \"already released\") */\n      tag_88\n      jumpi\n      mload(0x40)\n      0x08c379a000000000000000000000000000000000000000000000000000000000\n      dup2\n      mstore\n      0x04\n      add\n      tag_89\n      swap1\n      tag_90\n      jump\t// in\n    tag_89:\n      mload(0x40)\n      dup1\n      swap2\n      sub\n      swap1\n      revert\n    tag_88:\n        /* \"contracts/MyToken.sol\":4884:4901  bool isAuthorized */\n      0x00\n        /* \"contracts/MyToken.sol\":4919:4920  p */\n      dup2\n        /* \"contracts/MyToken.sol\":4919:4927  p.sender */\n      0x00\n      add\n      0x00\n      swap1\n      sload\n      swap1\n      0x0100\n      exp\n      swap1\n      div\n      0xffffffffffffffffffffffffffffffffffffffff\n      and\n        /* \"contracts/MyToken.sol\":4905:4927  msg.sender == p.sender */\n      0xffffffffffffffffffffffffffffffffffffffff\n      and\n        /* \"contracts/MyToken.sol\":4905:4915  msg.sender */\n      caller\n        /* \"contracts/MyToken.sol\":4905:4927  msg.sender == p.sender */\n      0xffffffffffffffffffffffffffffffffffffffff\n      and\n      eq\n        /* \"contracts/MyToken.sol\":4905:4956  msg.sender == p.sender || msg.sender == p.recipient */\n      dup1\n      tag_91\n      jumpi\n      pop\n        /* \"contracts/MyToken.sol\":4945:4946  p */\n      dup2\n        /* \"contracts/MyToken.sol\":4945:4956  p.recipient */\n      0x04\n      add\n      0x00\n      swap1\n      sload\n      swap1\n      0x0100\n      exp\n      swap1\n      div\n      0xffffffffffffffffffffffffffffffffffffffff\n      and\n        /* \"contracts/MyToken.sol\":4931:4956  msg.sender == p.recipient */\n      0xffffffffffffffffffffffffffffffffffffffff\n      and\n        /* \"contracts/MyToken.sol\":4931:4941  msg.sender */\n      caller\n        /* \"contracts/MyToken.sol\":4931:4956  msg.sender == p.recipient */\n      0xffffffffffffffffffffffffffffffffffffffff\n      and\n      eq\n        /* \"contracts/MyToken.sol\":4905:4956  msg.sender == p.sender || msg.sender == p.recipient */\n    tag_91:\n        /* \"contracts/MyToken.sol\":4905:4981  msg.sender == p.sender || msg.sender == p.recipient || msg.sender == owner() */\n      dup1\n      tag_92\n      jumpi\n      pop\n        /* \"contracts/MyToken.sol\":4974:4981  owner() */\n      tag_93\n        /* \"contracts/MyToken.sol\":4974:4979  owner */\n      tag_64\n        /* \"contracts/MyToken.sol\":4974:4981  owner() */\n      jump\t// in\n    tag_93:\n        /* \"contracts/MyToken.sol\":4960:4981  msg.sender == owner() */\n      0xffffffffffffffffffffffffffffffffffffffff\n      and\n        /* \"contracts/MyToken.sol\":4960:4970  msg.sender */\n      caller\n        /* \"contracts/MyToken.sol\":4960:4981  msg.sender == owner() */\n      0xffffffffffffffffffffffffffffffffffffffff\n      and\n      eq\n        /* \"contracts/MyToken.sol\":4905:4981  msg.sender == p.sender || msg.sender == p.recipient || msg.sender == owner() */\n    tag_92:\n        /* \"contracts/MyToken.sol\":4884:4982  bool isAuthorized = (msg.sender == p.sender || msg.sender == p.recipient || msg.sender == owner()) */\n      swap1\n      pop\n        /* \"contracts/MyToken.sol\":5000:5012  isAuthorized */\n      dup1\n        /* \"contracts/MyToken.sol\":5000:5052  isAuthorized || block.timestamp >= p.unlockTimestamp */\n      dup1\n      tag_94\n      jumpi\n      pop\n        /* \"contracts/MyToken.sol\":5035:5036  p */\n      dup2\n        /* \"contracts/MyToken.sol\":5035:5052  p.unlockTimestamp */\n      0x06\n      add\n      sload\n        /* \"contracts/MyToken.sol\":5016:5031  block.timestamp */\n      timestamp\n        /* \"contracts/MyToken.sol\":5016:5052  block.timestamp >= p.unlockTimestamp */\n      lt\n      iszero\n        /* \"contracts/MyToken.sol\":5000:5052  isAuthorized || block.timestamp >= p.unlockTimestamp */\n    tag_94:\n        /* \"contracts/MyToken.sol\":4992:5071  require(isAuthorized || block.timestamp >= p.unlockTimestamp, \"not authorized\") */\n      tag_95\n      jumpi\n      mload(0x40)\n      0x08c379a000000000000000000000000000000000000000000000000000000000\n      dup2\n      mstore\n      0x04\n      add\n      tag_96\n      swap1\n      tag_97\n      jump\t// in\n    tag_96:\n      mload(0x40)\n      dup1\n      swap2\n      sub\n      swap1\n      revert\n    tag_95:\n        /* \"contracts/MyToken.sol\":5120:5124  true */\n      0x01\n        /* \"contracts/MyToken.sol\":5107:5108  p */\n      dup3\n        /* \"contracts/MyToken.sol\":5107:5117  p.released */\n      0x07\n      add\n      0x00\n        /* \"contracts/MyToken.sol\":5107:5124  p.released = true */\n      0x0100\n      exp\n      dup2\n      sload\n      dup2\n      0xff\n      mul\n      not\n      and\n      swap1\n      dup4\n      iszero\n      iszero\n      mul\n      or\n      swap1\n      sstore\n      pop\n        /* \"contracts/MyToken.sol\":5214:5225  uint256 fee */\n      0x00\n        /* \"contracts/MyToken.sol\":5228:5229  0 */\n      0x00\n        /* \"contracts/MyToken.sol\":5214:5229  uint256 fee = 0 */\n      swap1\n      pop\n        /* \"contracts/MyToken.sol\":5252:5253  0 */\n      0x00\n        /* \"contracts/MyToken.sol\":5243:5249  feeBps */\n      sload(0x02)\n        /* \"contracts/MyToken.sol\":5243:5253  feeBps > 0 */\n      gt\n        /* \"contracts/MyToken.sol\":5239:5436  if (feeBps > 0) {... */\n      iszero\n      tag_98\n      jumpi\n        /* \"contracts/MyToken.sol\":5297:5298  0 */\n      0x00\n        /* \"contracts/MyToken.sol\":5277:5278  p */\n      dup4\n        /* \"contracts/MyToken.sol\":5277:5293  p.amountReceived */\n      0x03\n      add\n      sload\n        /* \"contracts/MyToken.sol\":5277:5298  p.amountReceived == 0 */\n      eq\n        /* \"contracts/MyToken.sol\":5277:5348  p.amountReceived == 0 || p.amountReceived <= type(uint256).max / feeBps */\n      dup1\n      tag_99\n      jumpi\n      pop\n        /* \"contracts/MyToken.sol\":5342:5348  feeBps */\n      sload(0x02)\n        /* \"contracts/MyToken.sol\":5322:5339  type(uint256).max */\n      0xffffffffffffffffffffffffffffffffffffffffffffffffffffffffffffffff\n        /* \"contracts/MyToken.sol\":5322:5348  type(uint256).max / feeBps */\n      tag_100\n      swap2\n      swap1\n      tag_101\n      jump\t// in\n    tag_100:\n        /* \"contracts/MyToken.sol\":5302:5303  p */\n      dup4\n        /* \"contracts/MyToken.sol\":5302:5318  p.amountReceived */\n      0x03\n      add\n      sload\n        /* \"contracts/MyToken.sol\":5302:5348  p.amountReceived <= type(uint256).max / feeBps */\n      gt\n      iszero\n        /* \"contracts/MyToken.sol\":5277:5348  p.amountReceived == 0 || p.amountReceived <= type(uint256).max / feeBps */\n    tag_99:\n        /* \"contracts/MyToken.sol\":5269:5370  require(p.amountReceived == 0 || p.amountReceived <= type(uint256).max / feeBps, \"fee calc overflow\") */\n      tag_102\n      jumpi\n      mload(0x40)\n      0x08c379a000000000000000000000000000000000000000000000000000000000\n      dup2\n      mstore\n      0x04\n      add\n      tag_103\n      swap1\n      tag_104\n      jump\t// in\n    tag_103:\n      mload(0x40)\n      dup1\n      swap2\n      sub\n      swap1\n      revert\n    tag_102:\n        /* \"contracts/MyToken.sol\":5420:5425  10000 */\n      0x2710\n        /* \"contracts/MyToken.sol\":5410:5416  feeBps */\n      sload(0x02)\n        /* \"contracts/MyToken.sol\":5391:5392  p */\n      dup5\n        /* \"contracts/MyToken.sol\":5391:5407  p.amountReceived */\n      0x03\n      add\n      sload\n        /* \"contracts/MyToken.sol\":5391:5416  p.amountReceived * feeBps */\n      tag_105\n      swap2\n      swap1\n      tag_106\n      jump\t// in\n    tag_105:\n        /* \"contracts/MyToken.sol\":5390:5425  (p.amountReceived * feeBps) / 10000 */\n      tag_107\n      swap2\n      swap1\n      tag_101\n      jump\t// in\n    tag_107:\n        /* \"contracts/MyToken.sol\":5384:5425  fee = (p.amountReceived * feeBps) / 10000 */\n      swap1\n      pop\n        /* \"contracts/MyToken.sol\":5239:5436  if (feeBps > 0) {... */\n    tag_98:\n        /* \"contracts/MyToken.sol\":5445:5459  uint256 payout */\n      0x00\n        /* \"contracts/MyToken.sol\":5481:5484  fee */\n      dup2\n        /* \"contracts/MyToken.sol\":5462:5463  p */\n      dup5\n        /* \"contracts/MyToken.sol\":5462:5478  p.amountReceived */\n      0x03\n      add\n      sload\n        /* \"contracts/MyToken.sol\":5462:5484  p.amountReceived - fee */\n      tag_108\n      swap2\n      swap1\n      tag_109\n      jump\t// in\n    tag_108:\n        /* \"contracts/MyToken.sol\":5445:5484  uint256 payout = p.amountReceived - fee */\n      swap1\n      pop\n        /* \"contracts/MyToken.sol\":5552:5601  IERC20(p.token).safeTransfer(p.recipient, payout) */\n      tag_110\n        /* \"contracts/MyToken.sol\":5581:5582  p */\n      dup5\n        /* \"contracts/MyToken.sol\":5581:5592  p.recipient */\n      0x04\n      add\n      0x00\n      swap1\n      sload\n      swap1\n      0x0100\n      exp\n      swap1\n      div\n      0xffffffffffffffffffffffffffffffffffffffff\n      and\n        /* \"contracts/MyToken.sol\":5594:5600  payout */\n      dup3\n        /* \"contracts/MyToken.sol\":5559:5560  p */\n      dup7\n        /* \"contracts/MyToken.sol\":5559:5566  p.token */\n      0x01\n      add\n      0x00\n      swap1\n      sload\n      swap1\n      0x0100\n      exp\n      swap1\n      div\n      0xffffffffffffffffffffffffffffffffffffffff\n      and\n        /* \"contracts/MyToken.sol\":5552:5580  IERC20(p.token).safeTransfer */\n      0xffffffffffffffffffffffffffffffffffffffff\n      and\n      tag_111\n      swap1\n        /* \"contracts/MyToken.sol\":5552:5601  IERC20(p.token).safeTransfer(p.recipient, payout) */\n      swap3\n      swap2\n      swap1\n      0xffffffff\n      and\n      jump\t// in\n    tag_110:\n        /* \"contracts/MyToken.sol\":5621:5622  0 */\n      0x00\n        /* \"contracts/MyToken.sol\":5615:5618  fee */\n      dup3\n        /* \"contracts/MyToken.sol\":5615:5622  fee > 0 */\n      gt\n        /* \"contracts/MyToken.sol\":5611:5691  if (fee > 0) {... */\n      iszero\n      tag_112\n      jumpi\n        /* \"contracts/MyToken.sol\":5638:5680  IERC20(p.token).safeTransfer(owner(), fee) */\n      tag_113\n        /* \"contracts/MyToken.sol\":5667:5674  owner() */\n      tag_114\n        /* \"contracts/MyToken.sol\":5667:5672  owner */\n      tag_64\n        /* \"contracts/MyToken.sol\":5667:5674  owner() */\n      jump\t// in\n    tag_114:\n        /* \"contracts/MyToken.sol\":5676:5679  fee */\n      dup4\n        /* \"contracts/MyToken.sol\":5645:5646  p */\n      dup7\n        /* \"contracts/MyToken.sol\":5645:5652  p.token */\n      0x01\n      add\n      0x00\n      swap1\n      sload\n      swap1\n      0x0100\n      exp\n      swap1\n      div\n      0xffffffffffffffffffffffffffffffffffffffff\n      and\n        /* \"contracts/MyToken.sol\":5638:5666  IERC20(p.token).safeTransfer */\n      0xffffffffffffffffffffffffffffffffffffffff\n      and\n      tag_111\n      swap1\n        /* \"contracts/MyToken.sol\":5638:5680  IERC20(p.token).safeTransfer(owner(), fee) */\n      swap3\n      swap2\n      swap1\n      0xffffffff\n      and\n      jump\t// in\n    tag_113:\n        /* \"contracts/MyToken.sol\":5611:5691  if (fee > 0) {... */\n    tag_112:\n        /* \"contracts/MyToken.sol\":5739:5740  p */\n      dup4\n        /* \"contracts/MyToken.sol\":5739:5750  p.recipient */\n      0x04\n      add\n      0x00\n      swap1\n      sload\n      swap1\n      0x0100\n      exp\n      swap1\n      div\n      0xffffffffffffffffffffffffffffffffffffffff\n      and\n        /* \"contracts/MyToken.sol\":5706:5751  Released(id, msg.sender, payout, p.recipient) */\n      0xffffffffffffffffffffffffffffffffffffffff\n      and\n        /* \"contracts/MyToken.sol\":5719:5729  msg.sender */\n      caller\n        /* \"contracts/MyToken.sol\":5706:5751  Released(id, msg.sender, payout, p.recipient) */\n      0xffffffffffffffffffffffffffffffffffffffff\n      and\n        /* \"contracts/MyToken.sol\":5715:5717  id */\n      dup7\n        /* \"contracts/MyToken.sol\":5706:5751  Released(id, msg.sender, payout, p.recipient) */\n      0x89ccb81a080f998c6d21f573e5464d693e085cef774481dc4b5c3c0d66ce11da\n        /* \"contracts/MyToken.sol\":5731:5737  payout */\n      dup5\n        /* \"contracts/MyToken.sol\":5706:5751  Released(id, msg.sender, payout, p.recipient) */\n      mload(0x40)\n      tag_115\n      swap2\n      swap1\n      tag_24\n      jump\t// in\n    tag_115:\n      mload(0x40)\n      dup1\n      swap2\n      sub\n      swap1\n      log4\n        /* \"contracts/MyToken.sol\":4640:5758  {... */\n      pop\n      pop\n      pop\n      pop\n        /* \"@openzeppelin/contracts/security/ReentrancyGuard.sol\":2303:2323  _nonReentrantAfter() */\n      tag_116\n        /* \"@openzeppelin/contracts/security/ReentrancyGuard.sol\":2303:2321  _nonReentrantAfter */\n      tag_117\n        /* \"@openzeppelin/contracts/security/ReentrancyGuard.sol\":2303:2323  _nonReentrantAfter() */\n      jump\t// in\n    tag_116:\n        /* \"contracts/MyToken.sol\":4589:5758  function release(uint256 id) external nonReentrant {... */\n      pop\n      jump\t// out\n        /* \"contracts/MyToken.sol\":5983:6221  function ownerWithdrawERC20(address token, uint256 amount) external onlyOwner {... */\n    tag_40:\n        /* \"@openzeppelin/contracts/access/Ownable.sol\":1531:1544  _checkOwner() */\n      tag_119\n        /* \"@openzeppelin/contracts/access/Ownable.sol\":1531:1542  _checkOwner */\n      tag_120\n        /* \"@openzeppelin/contracts/access/Ownable.sol\":1531:1544  _checkOwner() */\n      jump\t// in\n    tag_119:\n        /* \"contracts/MyToken.sol\":6096:6097  0 */\n      0x00\n        /* \"contracts/MyToken.sol\":6079:6098  token != address(0) */\n      0xffffffffffffffffffffffffffffffffffffffff\n      and\n        /* \"contracts/MyToken.sol\":6079:6084  token */\n      dup3\n        /* \"contracts/MyToken.sol\":6079:6098  token != address(0) */\n      0xffffffffffffffffffffffffffffffffffffffff\n      and\n      sub\n        /* \"contracts/MyToken.sol\":6071:6113  require(token != address(0), \"token zero\") */\n      tag_122\n      jumpi\n      mload(0x40)\n      0x08c379a000000000000000000000000000000000000000000000000000000000\n      dup2\n      mstore\n      0x04\n      add\n      tag_123\n      swap1\n      tag_124\n      jump\t// in\n    tag_123:\n      mload(0x40)\n      dup1\n      swap2\n      sub\n      swap1\n      revert\n    tag_122:\n        /* \"contracts/MyToken.sol\":6123:6166  IERC20(token).safeTransfer(owner(), amount) */\n      tag_125\n        /* \"contracts/MyToken.sol\":6150:6157  owner() */\n      tag_126\n        /* \"contracts/MyToken.sol\":6150:6155  owner */\n      tag_64\n        /* \"contracts/MyToken.sol\":6150:6157  owner() */\n      jump\t// in\n    tag_126:\n        /* \"contracts/MyToken.sol\":6159:6165  amount */\n      dup3\n        /* \"contracts/MyToken.sol\":6130:6135  token */\n      dup5\n        /* \"contracts/MyToken.sol\":6123:6149  IERC20(token).safeTransfer */\n      0xffffffffffffffffffffffffffffffffffffffff\n      and\n      tag_111\n      swap1\n        /* \"contracts/MyToken.sol\":6123:6166  IERC20(token).safeTransfer(owner(), amount) */\n      swap3\n      swap2\n      swap1\n      0xffffffff\n      and\n      jump\t// in\n    tag_125:\n        /* \"contracts/MyToken.sol\":6200:6205  token */\n      dup2\n        /* \"contracts/MyToken.sol\":6181:6214  OwnerWithdrawERC20(token, amount) */\n      0xffffffffffffffffffffffffffffffffffffffff\n      and\n      0x8d7d29d557c3b976595a2bb0bff9523a5fb97d560015797deac22d118fffad65\n        /* \"contracts/MyToken.sol\":6207:6213  amount */\n      dup3\n        /* \"contracts/MyToken.sol\":6181:6214  OwnerWithdrawERC20(token, amount) */\n      mload(0x40)\n      tag_127\n      swap2\n      swap1\n      tag_24\n      jump\t// in\n    tag_127:\n      mload(0x40)\n      dup1\n      swap2\n      sub\n      swap1\n      log2\n        /* \"contracts/MyToken.sol\":5983:6221  function ownerWithdrawERC20(address token, uint256 amount) external onlyOwner {... */\n      pop\n      pop\n      jump\t// out\n        /* \"contracts/MyToken.sol\":880:901  uint256 public nextId */\n    tag_43:\n      sload(0x03)\n      dup2\n      jump\t// out\n        /* \"@openzeppelin/contracts/access/Ownable.sol\":2293:2394  function renounceOwnership() public virtual onlyOwner {... */\n    tag_47:\n        /* \"@openzeppelin/contracts/access/Ownable.sol\":1531:1544  _checkOwner() */\n      tag_129\n        /* \"@openzeppelin/contracts/access/Ownable.sol\":1531:1542  _checkOwner */\n      tag_120\n        /* \"@openzeppelin/contracts/access/Ownable.sol\":1531:1544  _checkOwner() */\n      jump\t// in\n    tag_129:\n        /* \"@openzeppelin/contracts/access/Ownable.sol\":2357:2387  _transferOwnership(address(0)) */\n      tag_131\n        /* \"@openzeppelin/contracts/access/Ownable.sol\":2384:2385  0 */\n      0x00\n        /* \"@openzeppelin/contracts/access/Ownable.sol\":2357:2375  _transferOwnership */\n      tag_132\n        /* \"@openzeppelin/contracts/access/Ownable.sol\":2357:2387  _transferOwnership(address(0)) */\n      jump\t// in\n    tag_131:\n        /* \"@openzeppelin/contracts/access/Ownable.sol\":2293:2394  function renounceOwnership() public virtual onlyOwner {... */\n      jump\t// out\n        /* \"contracts/MyToken.sol\":5787:5977  function setFeeBps(uint256 newFeeBps) external onlyOwner {... */\n    tag_51:\n        /* \"@openzeppelin/contracts/access/Ownable.sol\":1531:1544  _checkOwner() */\n      tag_134\n        /* \"@openzeppelin/contracts/access/Ownable.sol\":1531:1542  _checkOwner */\n      tag_120\n        /* \"@openzeppelin/contracts/access/Ownable.sol\":1531:1544  _checkOwner() */\n      jump\t// in\n    tag_134:\n        /* \"contracts/MyToken.sol\":5875:5880  10000 */\n      0x2710\n        /* \"contracts/MyToken.sol\":5862:5871  newFeeBps */\n      dup2\n        /* \"contracts/MyToken.sol\":5862:5880  newFeeBps <= 10000 */\n      gt\n      iszero\n        /* \"contracts/MyToken.sol\":5854:5898  require(newFeeBps <= 10000, \"feeBps<=10000\") */\n      tag_136\n      jumpi\n      mload(0x40)\n      0x08c379a000000000000000000000000000000000000000000000000000000000\n      dup2\n      mstore\n      0x04\n      add\n      tag_137\n      swap1\n      tag_138\n      jump\t// in\n    tag_137:\n      mload(0x40)\n      dup1\n      swap2\n      sub\n      swap1\n      revert\n    tag_136:\n        /* \"contracts/MyToken.sol\":5913:5942  FeeChanged(feeBps, newFeeBps) */\n      0x5fc463da23c1b063e66f9e352006a7fbe8db7223c455dc429e881a2dfe2f94f1\n        /* \"contracts/MyToken.sol\":5924:5930  feeBps */\n      sload(0x02)\n        /* \"contracts/MyToken.sol\":5932:5941  newFeeBps */\n      dup3\n        /* \"contracts/MyToken.sol\":5913:5942  FeeChanged(feeBps, newFeeBps) */\n      mload(0x40)\n      tag_139\n      swap3\n      swap2\n      swap1\n      tag_140\n      jump\t// in\n    tag_139:\n      mload(0x40)\n      dup1\n      swap2\n      sub\n      swap1\n      log1\n        /* \"contracts/MyToken.sol\":5961:5970  newFeeBps */\n      dup1\n        /* \"contracts/MyToken.sol\":5952:5958  feeBps */\n      0x02\n        /* \"contracts/MyToken.sol\":5952:5970  feeBps = newFeeBps */\n      dup2\n      swap1\n      sstore\n      pop\n        /* \"contracts/MyToken.sol\":5787:5977  function setFeeBps(uint256 newFeeBps) external onlyOwner {... */\n      pop\n      jump\t// out\n        /* \"contracts/MyToken.sol\":6227:6451  function withdrawNative(uint256 amount) external onlyOwner {... */\n    tag_55:\n        /* \"@openzeppelin/contracts/access/Ownable.sol\":1531:1544  _checkOwner() */\n      tag_142\n        /* \"@openzeppelin/contracts/access/Ownable.sol\":1531:1542  _checkOwner */\n      tag_120\n        /* \"@openzeppelin/contracts/access/Ownable.sol\":1531:1544  _checkOwner() */\n      jump\t// in\n    tag_142:\n        /* \"contracts/MyToken.sol\":6329:6335  amount */\n      dup1\n        /* \"contracts/MyToken.sol\":6304:6325  address(this).balance */\n      selfbalance\n        /* \"contracts/MyToken.sol\":6304:6335  address(this).balance >= amount */\n      lt\n      iszero\n        /* \"contracts/MyToken.sol\":6296:6359  require(address(this).balance >= amount, \"insufficient native\") */\n      tag_144\n      jumpi\n      mload(0x40)\n      0x08c379a000000000000000000000000000000000000000000000000000000000\n      dup2\n      mstore\n      0x04\n      add\n      tag_145\n      swap1\n      tag_146\n      jump\t// in\n    tag_145:\n      mload(0x40)\n      dup1\n      swap2\n      sub\n      swap1\n      revert\n    tag_144:\n        /* \"contracts/MyToken.sol\":6377:6384  owner() */\n      tag_147\n        /* \"contracts/MyToken.sol\":6377:6382  owner */\n      tag_64\n        /* \"contracts/MyToken.sol\":6377:6384  owner() */\n      jump\t// in\n    tag_147:\n        /* \"contracts/MyToken.sol\":6369:6394  payable(owner()).transfer */\n      0xffffffffffffffffffffffffffffffffffffffff\n      and\n        /* \"contracts/MyToken.sol\":6369:6402  payable(owner()).transfer(amount) */\n      0x08fc\n        /* \"contracts/MyToken.sol\":6395:6401  amount */\n      dup3\n        /* \"contracts/MyToken.sol\":6369:6402  payable(owner()).transfer(amount) */\n      swap1\n      dup2\n      iszero\n      mul\n      swap1\n      mload(0x40)\n      0x00\n      mload(0x40)\n      dup1\n      dup4\n      sub\n      dup2\n      dup6\n      dup9\n      dup9\n      call\n      swap4\n      pop\n      pop\n      pop\n      pop\n      iszero\n      dup1\n      iszero\n      tag_149\n      jumpi\n      returndatacopy(0x00, 0x00, returndatasize)\n      revert(0x00, returndatasize)\n    tag_149:\n      pop\n        /* \"contracts/MyToken.sol\":6417:6444  OwnerWithdrawNative(amount) */\n      0x6e4c84161cdb053c0fd0ad9dfd1b7e4e50a718125358c96a036c95a19eb0a905\n        /* \"contracts/MyToken.sol\":6437:6443  amount */\n      dup2\n        /* \"contracts/MyToken.sol\":6417:6444  OwnerWithdrawNative(amount) */\n      mload(0x40)\n      tag_150\n      swap2\n      swap1\n      tag_24\n      jump\t// in\n    tag_150:\n      mload(0x40)\n      dup1\n      swap2\n      sub\n      swap1\n      log1\n        /* \"contracts/MyToken.sol\":6227:6451  function withdrawNative(uint256 amount) external onlyOwner {... */\n      pop\n      jump\t// out\n        /* \"contracts/MyToken.sol\":1319:1362  mapping(uint256 => Payment) public payments */\n    tag_59:\n      mstore(0x20, 0x04)\n      dup1\n      0x00\n      mstore\n      keccak256(0x00, 0x40)\n      0x00\n      swap2\n      pop\n      swap1\n      pop\n      dup1\n      0x00\n      add\n      0x00\n      swap1\n      sload\n      swap1\n      0x0100\n      exp\n      swap1\n      div\n      0xffffffffffffffffffffffffffffffffffffffff\n      and\n      swap1\n      dup1\n      0x01\n      add\n      0x00\n      swap1\n      sload\n      swap1\n      0x0100\n      exp\n      swap1\n      div\n      0xffffffffffffffffffffffffffffffffffffffff\n      and\n      swap1\n      dup1\n      0x02\n      add\n      sload\n      swap1\n      dup1\n      0x03\n      add\n      sload\n      swap1\n      dup1\n      0x04\n      add\n      0x00\n      swap1\n      sload\n      swap1\n      0x0100\n      exp\n      swap1\n      div\n      0xffffffffffffffffffffffffffffffffffffffff\n      and\n      swap1\n      dup1\n      0x05\n      add\n      sload\n      swap1\n      dup1\n      0x06\n      add\n      sload\n      swap1\n      dup1\n      0x07\n      add\n      0x00\n      swap1\n      sload\n      swap1\n      0x0100\n      exp\n      swap1\n      div\n      0xff\n      and\n      swap1\n      pop\n      dup9\n      jump\t// out\n        /* \"@openzeppelin/contracts/access/Ownable.sol\":1638:1723  function owner() public view virtual returns (address) {... */\n    tag_64:\n        /* \"@openzeppelin/contracts/access/Ownable.sol\":1684:1691  address */\n      0x00\n        /* \"@openzeppelin/contracts/access/Ownable.sol\":1710:1716  _owner */\n      0x00\n      0x00\n      swap1\n      sload\n      swap1\n      0x0100\n      exp\n      swap1\n      div\n      0xffffffffffffffffffffffffffffffffffffffff\n      and\n        /* \"@openzeppelin/contracts/access/Ownable.sol\":1703:1716  return _owner */\n      swap1\n      pop\n        /* \"@openzeppelin/contracts/access/Ownable.sol\":1638:1723  function owner() public view virtual returns (address) {... */\n      swap1\n      jump\t// out\n        /* \"contracts/MyToken.sol\":2858:4375  function deposit(... */\n    tag_71:\n        /* \"contracts/MyToken.sol\":3014:3021  uint256 */\n      0x00\n        /* \"contracts/MyToken.sol\":3058:3059  0 */\n      0x00\n        /* \"contracts/MyToken.sol\":3041:3060  token != address(0) */\n      0xffffffffffffffffffffffffffffffffffffffff\n      and\n        /* \"contracts/MyToken.sol\":3041:3046  token */\n      dup6\n        /* \"contracts/MyToken.sol\":3041:3060  token != address(0) */\n      0xffffffffffffffffffffffffffffffffffffffff\n      and\n      sub\n        /* \"contracts/MyToken.sol\":3033:3075  require(token != address(0), \"token zero\") */\n      tag_153\n      jumpi\n      mload(0x40)\n      0x08c379a000000000000000000000000000000000000000000000000000000000\n      dup2\n      mstore\n      0x04\n      add\n      tag_154\n      swap1\n      tag_124\n      jump\t// in\n    tag_154:\n      mload(0x40)\n      dup1\n      swap2\n      sub\n      swap1\n      revert\n    tag_153:\n        /* \"contracts/MyToken.sol\":3110:3111  0 */\n      0x00\n        /* \"contracts/MyToken.sol\":3093:3107  amountExpected */\n      dup5\n        /* \"contracts/MyToken.sol\":3093:3111  amountExpected > 0 */\n      gt\n        /* \"contracts/MyToken.sol\":3085:3124  require(amountExpected > 0, \"amount>0\") */\n      tag_155\n      jumpi\n      mload(0x40)\n      0x08c379a000000000000000000000000000000000000000000000000000000000\n      dup2\n      mstore\n      0x04\n      add\n      tag_156\n      swap1\n      tag_157\n      jump\t// in\n    tag_156:\n      mload(0x40)\n      dup1\n      swap2\n      sub\n      swap1\n      revert\n    tag_155:\n        /* \"contracts/MyToken.sol\":3163:3164  0 */\n      0x00\n        /* \"contracts/MyToken.sol\":3142:3165  recipient != address(0) */\n      0xffffffffffffffffffffffffffffffffffffffff\n      and\n        /* \"contracts/MyToken.sol\":3142:3151  recipient */\n      dup4\n        /* \"contracts/MyToken.sol\":3142:3165  recipient != address(0) */\n      0xffffffffffffffffffffffffffffffffffffffff\n      and\n      sub\n        /* \"contracts/MyToken.sol\":3134:3184  require(recipient != address(0), \"recipient zero\") */\n      tag_158\n      jumpi\n      mload(0x40)\n      0x08c379a000000000000000000000000000000000000000000000000000000000\n      dup2\n      mstore\n      0x04\n      add\n      tag_159\n      swap1\n      tag_160\n      jump\t// in\n    tag_159:\n      mload(0x40)\n      dup1\n      swap2\n      sub\n      swap1\n      revert\n    tag_158:\n        /* \"contracts/MyToken.sol\":3239:3241  60 */\n      0x3c\n        /* \"contracts/MyToken.sol\":3221:3236  block.timestamp */\n      timestamp\n        /* \"contracts/MyToken.sol\":3221:3241  block.timestamp + 60 */\n      tag_161\n      swap2\n      swap1\n      tag_162\n      jump\t// in\n    tag_161:\n        /* \"contracts/MyToken.sol\":3202:3217  unlockTimestamp */\n      dup3\n        /* \"contracts/MyToken.sol\":3202:3241  unlockTimestamp >= block.timestamp + 60 */\n      lt\n      iszero\n        /* \"contracts/MyToken.sol\":3194:3270  require(unlockTimestamp >= block.timestamp + 60, \"unlockTimestamp too soon\") */\n      tag_163\n      jumpi\n      mload(0x40)\n      0x08c379a000000000000000000000000000000000000000000000000000000000\n      dup2\n      mstore\n      0x04\n      add\n      tag_164\n      swap1\n      tag_165\n      jump\t// in\n    tag_164:\n      mload(0x40)\n      dup1\n      swap2\n      sub\n      swap1\n      revert\n    tag_163:\n        /* \"contracts/MyToken.sol\":3332:3353  uint256 balanceBefore */\n      0x00\n        /* \"contracts/MyToken.sol\":3363:3368  token */\n      dup6\n        /* \"contracts/MyToken.sol\":3356:3379  IERC20(token).balanceOf */\n      0xffffffffffffffffffffffffffffffffffffffff\n      and\n      0x70a08231\n        /* \"contracts/MyToken.sol\":3388:3392  this */\n      address\n        /* \"contracts/MyToken.sol\":3356:3394  IERC20(token).balanceOf(address(this)) */\n      mload(0x40)\n      dup3\n      0xffffffff\n      and\n      0xe0\n      shl\n      dup2\n      mstore\n      0x04\n      add\n      tag_166\n      swap2\n      swap1\n      tag_66\n      jump\t// in\n    tag_166:\n      0x20\n      mload(0x40)\n      dup1\n      dup4\n      sub\n      dup2\n      dup7\n      gas\n      staticcall\n      iszero\n      dup1\n      iszero\n      tag_168\n      jumpi\n      returndatacopy(0x00, 0x00, returndatasize)\n      revert(0x00, returndatasize)\n    tag_168:\n      pop\n      pop\n      pop\n      pop\n      mload(0x40)\n      returndatasize\n      not(0x1f)\n      0x1f\n      dup3\n      add\n      and\n      dup3\n      add\n      dup1\n      0x40\n      mstore\n      pop\n      dup2\n      add\n      swap1\n      tag_169\n      swap2\n      swap1\n      tag_170\n      jump\t// in\n    tag_169:\n        /* \"contracts/MyToken.sol\":3332:3394  uint256 balanceBefore = IERC20(token).balanceOf(address(this)) */\n      swap1\n      pop\n        /* \"contracts/MyToken.sol\":3477:3550  IERC20(token).safeTransferFrom(msg.sender, address(this), amountExpected) */\n      tag_171\n        /* \"contracts/MyToken.sol\":3508:3518  msg.sender */\n      caller\n        /* \"contracts/MyToken.sol\":3528:3532  this */\n      address\n        /* \"contracts/MyToken.sol\":3535:3549  amountExpected */\n      dup8\n        /* \"contracts/MyToken.sol\":3484:3489  token */\n      dup10\n        /* \"contracts/MyToken.sol\":3477:3507  IERC20(token).safeTransferFrom */\n      0xffffffffffffffffffffffffffffffffffffffff\n      and\n      tag_172\n      swap1\n        /* \"contracts/MyToken.sol\":3477:3550  IERC20(token).safeTransferFrom(msg.sender, address(this), amountExpected) */\n      swap4\n      swap3\n      swap2\n      swap1\n      0xffffffff\n      and\n      jump\t// in\n    tag_171:\n        /* \"contracts/MyToken.sol\":3617:3637  uint256 balanceAfter */\n      0x00\n        /* \"contracts/MyToken.sol\":3647:3652  token */\n      dup7\n        /* \"contracts/MyToken.sol\":3640:3663  IERC20(token).balanceOf */\n      0xffffffffffffffffffffffffffffffffffffffff\n      and\n      0x70a08231\n        /* \"contracts/MyToken.sol\":3672:3676  this */\n      address\n        /* \"contracts/MyToken.sol\":3640:3678  IERC20(token).balanceOf(address(this)) */\n      mload(0x40)\n      dup3\n      0xffffffff\n      and\n      0xe0\n      shl\n      dup2\n      mstore\n      0x04\n      add\n      tag_173\n      swap2\n      swap1\n      tag_66\n      jump\t// in\n    tag_173:\n      0x20\n      mload(0x40)\n      dup1\n      dup4\n      sub\n      dup2\n      dup7\n      gas\n      staticcall\n      iszero\n      dup1\n      iszero\n      tag_175\n      jumpi\n      returndatacopy(0x00, 0x00, returndatasize)\n      revert(0x00, returndatasize)\n    tag_175:\n      pop\n      pop\n      pop\n      pop\n      mload(0x40)\n      returndatasize\n      not(0x1f)\n      0x1f\n      dup3\n      add\n      and\n      dup3\n      add\n      dup1\n      0x40\n      mstore\n      pop\n      dup2\n      add\n      swap1\n      tag_176\n      swap2\n      swap1\n      tag_170\n      jump\t// in\n    tag_176:\n        /* \"contracts/MyToken.sol\":3617:3678  uint256 balanceAfter = IERC20(token).balanceOf(address(this)) */\n      swap1\n      pop\n        /* \"contracts/MyToken.sol\":3712:3725  balanceBefore */\n      dup2\n        /* \"contracts/MyToken.sol\":3696:3708  balanceAfter */\n      dup2\n        /* \"contracts/MyToken.sol\":3696:3725  balanceAfter >= balanceBefore */\n      lt\n      iszero\n        /* \"contracts/MyToken.sol\":3688:3752  require(balanceAfter >= balanceBefore, \"balance after < before\") */\n      tag_177\n      jumpi\n      mload(0x40)\n      0x08c379a000000000000000000000000000000000000000000000000000000000\n      dup2\n      mstore\n      0x04\n      add\n      tag_178\n      swap1\n      tag_179\n      jump\t// in\n    tag_178:\n      mload(0x40)\n      dup1\n      swap2\n      sub\n      swap1\n      revert\n    tag_177:\n        /* \"contracts/MyToken.sol\":3763:3779  uint256 received */\n      0x00\n        /* \"contracts/MyToken.sol\":3797:3810  balanceBefore */\n      dup3\n        /* \"contracts/MyToken.sol\":3782:3794  balanceAfter */\n      dup3\n        /* \"contracts/MyToken.sol\":3782:3810  balanceAfter - balanceBefore */\n      tag_180\n      swap2\n      swap1\n      tag_109\n      jump\t// in\n    tag_180:\n        /* \"contracts/MyToken.sol\":3763:3810  uint256 received = balanceAfter - balanceBefore */\n      swap1\n      pop\n        /* \"contracts/MyToken.sol\":3839:3840  0 */\n      0x00\n        /* \"contracts/MyToken.sol\":3828:3836  received */\n      dup2\n        /* \"contracts/MyToken.sol\":3828:3840  received > 0 */\n      gt\n        /* \"contracts/MyToken.sol\":3820:3858  require(received > 0, \"received zero\") */\n      tag_181\n      jumpi\n      mload(0x40)\n      0x08c379a000000000000000000000000000000000000000000000000000000000\n      dup2\n      mstore\n      0x04\n      add\n      tag_182\n      swap1\n      tag_183\n      jump\t// in\n    tag_182:\n      mload(0x40)\n      dup1\n      swap2\n      sub\n      swap1\n      revert\n    tag_181:\n        /* \"contracts/MyToken.sol\":3869:3879  uint256 id */\n      0x00\n        /* \"contracts/MyToken.sol\":3882:3888  nextId */\n      sload(0x03)\n        /* \"contracts/MyToken.sol\":3869:3888  uint256 id = nextId */\n      swap1\n      pop\n        /* \"contracts/MyToken.sol\":3913:4221  Payment({... */\n      mload(0x40)\n      dup1\n      0x0100\n      add\n      0x40\n      mstore\n      dup1\n        /* \"contracts/MyToken.sol\":3943:3953  msg.sender */\n      caller\n        /* \"contracts/MyToken.sol\":3913:4221  Payment({... */\n      0xffffffffffffffffffffffffffffffffffffffff\n      and\n      dup2\n      mstore\n      0x20\n      add\n        /* \"contracts/MyToken.sol\":3974:3979  token */\n      dup11\n        /* \"contracts/MyToken.sol\":3913:4221  Payment({... */\n      0xffffffffffffffffffffffffffffffffffffffff\n      and\n      dup2\n      mstore\n      0x20\n      add\n        /* \"contracts/MyToken.sol\":4009:4023  amountExpected */\n      dup10\n        /* \"contracts/MyToken.sol\":3913:4221  Payment({... */\n      dup2\n      mstore\n      0x20\n      add\n        /* \"contracts/MyToken.sol\":4053:4061  received */\n      dup4\n        /* \"contracts/MyToken.sol\":3913:4221  Payment({... */\n      dup2\n      mstore\n      0x20\n      add\n        /* \"contracts/MyToken.sol\":4086:4095  recipient */\n      dup9\n        /* \"contracts/MyToken.sol\":3913:4221  Payment({... */\n      0xffffffffffffffffffffffffffffffffffffffff\n      and\n      dup2\n      mstore\n      0x20\n      add\n        /* \"contracts/MyToken.sol\":4120:4135  block.timestamp */\n      timestamp\n        /* \"contracts/MyToken.sol\":3913:4221  Payment({... */\n      dup2\n      mstore\n      0x20\n      add\n        /* \"contracts/MyToken.sol\":4166:4181  unlockTimestamp */\n      dup8\n        /* \"contracts/MyToken.sol\":3913:4221  Payment({... */\n      dup2\n      mstore\n      0x20\n      add\n        /* \"contracts/MyToken.sol\":4205:4210  false */\n      0x00\n        /* \"contracts/MyToken.sol\":3913:4221  Payment({... */\n      iszero\n      iszero\n      dup2\n      mstore\n      pop\n        /* \"contracts/MyToken.sol\":3898:3906  payments */\n      0x04\n        /* \"contracts/MyToken.sol\":3898:3910  payments[id] */\n      0x00\n        /* \"contracts/MyToken.sol\":3907:3909  id */\n      dup4\n        /* \"contracts/MyToken.sol\":3898:3910  payments[id] */\n      dup2\n      mstore\n      0x20\n      add\n      swap1\n      dup2\n      mstore\n      0x20\n      add\n      0x00\n      keccak256\n        /* \"contracts/MyToken.sol\":3898:4221  payments[id] = Payment({... */\n      0x00\n      dup3\n      add\n      mload\n      dup2\n      0x00\n      add\n      exp(0x0100, 0x00)\n      dup2\n      sload\n      dup2\n      0xffffffffffffffffffffffffffffffffffffffff\n      mul\n      not\n      and\n      swap1\n      dup4\n      0xffffffffffffffffffffffffffffffffffffffff\n      and\n      mul\n      or\n      swap1\n      sstore\n      pop\n      0x20\n      dup3\n      add\n      mload\n      dup2\n      0x01\n      add\n      exp(0x0100, 0x00)\n      dup2\n      sload\n      dup2\n      0xffffffffffffffffffffffffffffffffffffffff\n      mul\n      not\n      and\n      swap1\n      dup4\n      0xffffffffffffffffffffffffffffffffffffffff\n      and\n      mul\n      or\n      swap1\n      sstore\n      pop\n      0x40\n      dup3\n      add\n      mload\n      dup2\n      0x02\n      add\n      sstore\n      0x60\n      dup3\n      add\n      mload\n      dup2\n      0x03\n      add\n      sstore\n      0x80\n      dup3\n      add\n      mload\n      dup2\n      0x04\n      add\n      exp(0x0100, 0x00)\n      dup2\n      sload\n      dup2\n      0xffffffffffffffffffffffffffffffffffffffff\n      mul\n      not\n      and\n      swap1\n      dup4\n      0xffffffffffffffffffffffffffffffffffffffff\n      and\n      mul\n      or\n      swap1\n      sstore\n      pop\n      0xa0\n      dup3\n      add\n      mload\n      dup2\n      0x05\n      add\n      sstore\n      0xc0\n      dup3\n      add\n      mload\n      dup2\n      0x06\n      add\n      sstore\n      0xe0\n      dup3\n      add\n      mload\n      dup2\n      0x07\n      add\n      exp(0x0100, 0x00)\n      dup2\n      sload\n      dup2\n      0xff\n      mul\n      not\n      and\n      swap1\n      dup4\n      iszero\n      iszero\n      mul\n      or\n      swap1\n      sstore\n      pop\n      swap1\n      pop\n      pop\n        /* \"contracts/MyToken.sol\":4246:4247  1 */\n      0x01\n        /* \"contracts/MyToken.sol\":4241:4243  id */\n      dup2\n        /* \"contracts/MyToken.sol\":4241:4247  id + 1 */\n      tag_184\n      swap2\n      swap1\n      tag_162\n      jump\t// in\n    tag_184:\n        /* \"contracts/MyToken.sol\":4232:4238  nextId */\n      0x03\n        /* \"contracts/MyToken.sol\":4232:4247  nextId = id + 1 */\n      dup2\n      swap1\n      sstore\n      pop\n        /* \"contracts/MyToken.sol\":4322:4331  recipient */\n      dup7\n        /* \"contracts/MyToken.sol\":4263:4349  Deposited(id, msg.sender, token, amountExpected, received, recipient, unlockTimestamp) */\n      0xffffffffffffffffffffffffffffffffffffffff\n      and\n        /* \"contracts/MyToken.sol\":4277:4287  msg.sender */\n      caller\n        /* \"contracts/MyToken.sol\":4263:4349  Deposited(id, msg.sender, token, amountExpected, received, recipient, unlockTimestamp) */\n      0xffffffffffffffffffffffffffffffffffffffff\n      and\n        /* \"contracts/MyToken.sol\":4273:4275  id */\n      dup3\n        /* \"contracts/MyToken.sol\":4263:4349  Deposited(id, msg.sender, token, amountExpected, received, recipient, unlockTimestamp) */\n      0x07d069ee8068ff01364b4b02716d89f761325428c736a508dcadbe0def557dca\n        /* \"contracts/MyToken.sol\":4289:4294  token */\n      dup13\n        /* \"contracts/MyToken.sol\":4296:4310  amountExpected */\n      dup13\n        /* \"contracts/MyToken.sol\":4312:4320  received */\n      dup8\n        /* \"contracts/MyToken.sol\":4333:4348  unlockTimestamp */\n      dup13\n        /* \"contracts/MyToken.sol\":4263:4349  Deposited(id, msg.sender, token, amountExpected, received, recipient, unlockTimestamp) */\n      mload(0x40)\n      tag_185\n      swap5\n      swap4\n      swap3\n      swap2\n      swap1\n      tag_186\n      jump\t// in\n    tag_185:\n      mload(0x40)\n      dup1\n      swap2\n      sub\n      swap1\n      log4\n        /* \"contracts/MyToken.sol\":4366:4368  id */\n      dup1\n        /* \"contracts/MyToken.sol\":4359:4368  return id */\n      swap5\n      pop\n      pop\n      pop\n      pop\n      pop\n        /* \"contracts/MyToken.sol\":2858:4375  function deposit(... */\n      swap5\n      swap4\n      pop\n      pop\n      pop\n      pop\n      jump\t// out\n        /* \"@openzeppelin/contracts/access/Ownable.sol\":2543:2758  function transferOwnership(address newOwner) public virtual onlyOwner {... */\n    tag_77:\n        /* \"@openzeppelin/contracts/access/Ownable.sol\":1531:1544  _checkOwner() */\n      tag_188\n        /* \"@openzeppelin/contracts/access/Ownable.sol\":1531:1542  _checkOwner */\n      tag_120\n        /* \"@openzeppelin/contracts/access/Ownable.sol\":1531:1544  _checkOwner() */\n      jump\t// in\n    tag_188:\n        /* \"@openzeppelin/contracts/access/Ownable.sol\":2647:2648  0 */\n      0x00\n        /* \"@openzeppelin/contracts/access/Ownable.sol\":2627:2649  newOwner == address(0) */\n      0xffffffffffffffffffffffffffffffffffffffff\n      and\n        /* \"@openzeppelin/contracts/access/Ownable.sol\":2627:2635  newOwner */\n      dup2\n        /* \"@openzeppelin/contracts/access/Ownable.sol\":2627:2649  newOwner == address(0) */\n      0xffffffffffffffffffffffffffffffffffffffff\n      and\n      sub\n        /* \"@openzeppelin/contracts/access/Ownable.sol\":2623:2714  if (newOwner == address(0)) {... */\n      tag_190\n      jumpi\n        /* \"@openzeppelin/contracts/access/Ownable.sol\":2700:2701  0 */\n      0x00\n        /* \"@openzeppelin/contracts/access/Ownable.sol\":2672:2703  OwnableInvalidOwner(address(0)) */\n      mload(0x40)\n      0x1e4fbdf700000000000000000000000000000000000000000000000000000000\n      dup2\n      mstore\n      0x04\n      add\n      tag_191\n      swap2\n      swap1\n      tag_66\n      jump\t// in\n    tag_191:\n      mload(0x40)\n      dup1\n      swap2\n      sub\n      swap1\n      revert\n        /* \"@openzeppelin/contracts/access/Ownable.sol\":2623:2714  if (newOwner == address(0)) {... */\n    tag_190:\n        /* \"@openzeppelin/contracts/access/Ownable.sol\":2723:2751  _transferOwnership(newOwner) */\n      tag_192\n        /* \"@openzeppelin/contracts/access/Ownable.sol\":2742:2750  newOwner */\n      dup2\n        /* \"@openzeppelin/contracts/access/Ownable.sol\":2723:2741  _transferOwnership */\n      tag_132\n        /* \"@openzeppelin/contracts/access/Ownable.sol\":2723:2751  _transferOwnership(newOwner) */\n      jump\t// in\n    tag_192:\n        /* \"@openzeppelin/contracts/access/Ownable.sol\":2543:2758  function transferOwnership(address newOwner) public virtual onlyOwner {... */\n      pop\n      jump\t// out\n        /* \"@openzeppelin/contracts/security/ReentrancyGuard.sol\":2336:2623  function _nonReentrantBefore() private {... */\n    tag_83:\n        /* \"@openzeppelin/contracts/security/ReentrancyGuard.sol\":1759:1760  2 */\n      0x02\n        /* \"@openzeppelin/contracts/security/ReentrancyGuard.sol\":2468:2475  _status */\n      sload(0x01)\n        /* \"@openzeppelin/contracts/security/ReentrancyGuard.sol\":2468:2487  _status != _ENTERED */\n      sub\n        /* \"@openzeppelin/contracts/security/ReentrancyGuard.sol\":2460:2523  require(_status != _ENTERED, \"ReentrancyGuard: reentrant call\") */\n      tag_194\n      jumpi\n      mload(0x40)\n      0x08c379a000000000000000000000000000000000000000000000000000000000\n      dup2\n      mstore\n      0x04\n      add\n      tag_195\n      swap1\n      tag_196\n      jump\t// in\n    tag_195:\n      mload(0x40)\n      dup1\n      swap2\n      sub\n      swap1\n      revert\n    tag_194:\n        /* \"@openzeppelin/contracts/security/ReentrancyGuard.sol\":1759:1760  2 */\n      0x02\n        /* \"@openzeppelin/contracts/security/ReentrancyGuard.sol\":2598:2605  _status */\n      0x01\n        /* \"@openzeppelin/contracts/security/ReentrancyGuard.sol\":2598:2616  _status = _ENTERED */\n      dup2\n      swap1\n      sstore\n      pop\n        /* \"@openzeppelin/contracts/security/ReentrancyGuard.sol\":2336:2623  function _nonReentrantBefore() private {... */\n      jump\t// out\n        /* \"@openzeppelin/contracts/token/ERC20/utils/SafeERC20.sol\":1219:1379  function safeTransfer(IERC20 token, address to, uint256 value) internal {... */\n    tag_111:\n        /* \"@openzeppelin/contracts/token/ERC20/utils/SafeERC20.sol\":1301:1372  _callOptionalReturn(token, abi.encodeCall(token.transfer, (to, value))) */\n      tag_198\n        /* \"@openzeppelin/contracts/token/ERC20/utils/SafeERC20.sol\":1321:1326  token */\n      dup4\n        /* \"@openzeppelin/contracts/token/ERC20/utils/SafeERC20.sol\":1343:1348  token */\n      dup5\n        /* \"@openzeppelin/contracts/token/ERC20/utils/SafeERC20.sol\":1343:1357  token.transfer */\n      0xffffffffffffffffffffffffffffffffffffffff\n      and\n      0xa9059cbb\n        /* \"@openzeppelin/contracts/token/ERC20/utils/SafeERC20.sol\":1360:1362  to */\n      dup6\n        /* \"@openzeppelin/contracts/token/ERC20/utils/SafeERC20.sol\":1364:1369  value */\n      dup6\n        /* \"@openzeppelin/contracts/token/ERC20/utils/SafeERC20.sol\":1328:1371  abi.encodeCall(token.transfer, (to, value)) */\n      add(0x24, mload(0x40))\n      tag_199\n      swap3\n      swap2\n      swap1\n      tag_200\n      jump\t// in\n    tag_199:\n      mload(0x40)\n      0x20\n      dup2\n      dup4\n      sub\n      sub\n      dup2\n      mstore\n      swap1\n      0x40\n      mstore\n      swap2\n      pop\n      0xe0\n      shl\n      0x20\n      dup3\n      add\n      dup1\n      mload\n      0xffffffffffffffffffffffffffffffffffffffffffffffffffffffff\n      dup4\n      dup2\n      dup4\n      and\n      or\n      dup4\n      mstore\n      pop\n      pop\n      pop\n      pop\n        /* \"@openzeppelin/contracts/token/ERC20/utils/SafeERC20.sol\":1301:1320  _callOptionalReturn */\n      tag_201\n        /* \"@openzeppelin/contracts/token/ERC20/utils/SafeERC20.sol\":1301:1372  _callOptionalReturn(token, abi.encodeCall(token.transfer, (to, value))) */\n      jump\t// in\n    tag_198:\n        /* \"@openzeppelin/contracts/token/ERC20/utils/SafeERC20.sol\":1219:1379  function safeTransfer(IERC20 token, address to, uint256 value) internal {... */\n      pop\n      pop\n      pop\n      jump\t// out\n        /* \"@openzeppelin/contracts/security/ReentrancyGuard.sol\":2629:2838  function _nonReentrantAfter() private {... */\n    tag_117:\n        /* \"@openzeppelin/contracts/security/ReentrancyGuard.sol\":1716:1717  1 */\n      0x01\n        /* \"@openzeppelin/contracts/security/ReentrancyGuard.sol\":2809:2816  _status */\n      dup1\n        /* \"@openzeppelin/contracts/security/ReentrancyGuard.sol\":2809:2831  _status = _NOT_ENTERED */\n      dup2\n      swap1\n      sstore\n      pop\n        /* \"@openzeppelin/contracts/security/ReentrancyGuard.sol\":2629:2838  function _nonReentrantAfter() private {... */\n      jump\t// out\n        /* \"@openzeppelin/contracts/access/Ownable.sol\":1796:1958  function _checkOwner() internal view virtual {... */\n    tag_120:\n        /* \"@openzeppelin/contracts/access/Ownable.sol\":1866:1878  _msgSender() */\n      tag_204\n        /* \"@openzeppelin/contracts/access/Ownable.sol\":1866:1876  _msgSender */\n      tag_205\n        /* \"@openzeppelin/contracts/access/Ownable.sol\":1866:1878  _msgSender() */\n      jump\t// in\n    tag_204:\n        /* \"@openzeppelin/contracts/access/Ownable.sol\":1855:1878  owner() != _msgSender() */\n      0xffffffffffffffffffffffffffffffffffffffff\n      and\n        /* \"@openzeppelin/contracts/access/Ownable.sol\":1855:1862  owner() */\n      tag_206\n        /* \"@openzeppelin/contracts/access/Ownable.sol\":1855:1860  owner */\n      tag_64\n        /* \"@openzeppelin/contracts/access/Ownable.sol\":1855:1862  owner() */\n      jump\t// in\n    tag_206:\n        /* \"@openzeppelin/contracts/access/Ownable.sol\":1855:1878  owner() != _msgSender() */\n      0xffffffffffffffffffffffffffffffffffffffff\n      and\n      eq\n        /* \"@openzeppelin/contracts/access/Ownable.sol\":1851:1952  if (owner() != _msgSender()) {... */\n      tag_207\n      jumpi\n        /* \"@openzeppelin/contracts/access/Ownable.sol\":1928:1940  _msgSender() */\n      tag_208\n        /* \"@openzeppelin/contracts/access/Ownable.sol\":1928:1938  _msgSender */\n      tag_205\n        /* \"@openzeppelin/contracts/access/Ownable.sol\":1928:1940  _msgSender() */\n      jump\t// in\n    tag_208:\n        /* \"@openzeppelin/contracts/access/Ownable.sol\":1901:1941  OwnableUnauthorizedAccount(_msgSender()) */\n      mload(0x40)\n      0x118cdaa700000000000000000000000000000000000000000000000000000000\n      dup2\n      mstore\n      0x04\n      add\n      tag_209\n      swap2\n      swap1\n      tag_66\n      jump\t// in\n    tag_209:\n      mload(0x40)\n      dup1\n      swap2\n      sub\n      swap1\n      revert\n        /* \"@openzeppelin/contracts/access/Ownable.sol\":1851:1952  if (owner() != _msgSender()) {... */\n    tag_207:\n        /* \"@openzeppelin/contracts/access/Ownable.sol\":1796:1958  function _checkOwner() internal view virtual {... */\n      jump\t// out\n        /* \"@openzeppelin/contracts/access/Ownable.sol\":2912:3099  function _transferOwnership(address newOwner) internal virtual {... */\n    tag_132:\n        /* \"@openzeppelin/contracts/access/Ownable.sol\":2985:3001  address oldOwner */\n      0x00\n        /* \"@openzeppelin/contracts/access/Ownable.sol\":3004:3010  _owner */\n      0x00\n      0x00\n      swap1\n      sload\n      swap1\n      0x0100\n      exp\n      swap1\n      div\n      0xffffffffffffffffffffffffffffffffffffffff\n      and\n        /* \"@openzeppelin/contracts/access/Ownable.sol\":2985:3010  address oldOwner = _owner */\n      swap1\n      pop\n        /* \"@openzeppelin/contracts/access/Ownable.sol\":3029:3037  newOwner */\n      dup2\n        /* \"@openzeppelin/contracts/access/Ownable.sol\":3020:3026  _owner */\n      0x00\n      0x00\n        /* \"@openzeppelin/contracts/access/Ownable.sol\":3020:3037  _owner = newOwner */\n      0x0100\n      exp\n      dup2\n      sload\n      dup2\n      0xffffffffffffffffffffffffffffffffffffffff\n      mul\n      not\n      and\n      swap1\n      dup4\n      0xffffffffffffffffffffffffffffffffffffffff\n      and\n      mul\n      or\n      swap1\n      sstore\n      pop\n        /* \"@openzeppelin/contracts/access/Ownable.sol\":3083:3091  newOwner */\n      dup2\n        /* \"@openzeppelin/contracts/access/Ownable.sol\":3052:3092  OwnershipTransferred(oldOwner, newOwner) */\n      0xffffffffffffffffffffffffffffffffffffffff\n      and\n        /* \"@openzeppelin/contracts/access/Ownable.sol\":3073:3081  oldOwner */\n      dup2\n        /* \"@openzeppelin/contracts/access/Ownable.sol\":3052:3092  OwnershipTransferred(oldOwner, newOwner) */\n      0xffffffffffffffffffffffffffffffffffffffff\n      and\n      0x8be0079c531659141344cd1fd0a4f28419497f9722a3daafe3b4186f6b6457e0\n      mload(0x40)\n      mload(0x40)\n      dup1\n      swap2\n      sub\n      swap1\n      log3\n        /* \"@openzeppelin/contracts/access/Ownable.sol\":2975:3099  {... */\n      pop\n        /* \"@openzeppelin/contracts/access/Ownable.sol\":2912:3099  function _transferOwnership(address newOwner) internal virtual {... */\n      pop\n      jump\t// out\n        /* \"@openzeppelin/contracts/token/ERC20/utils/SafeERC20.sol\":1618:1806  function safeTransferFrom(IERC20 token, address from, address to, uint256 value) internal {... */\n    tag_172:\n        /* \"@openzeppelin/contracts/token/ERC20/utils/SafeERC20.sol\":1718:1799  _callOptionalReturn(token, abi.encodeCall(token.transferFrom, (from, to, value))) */\n      tag_212\n        /* \"@openzeppelin/contracts/token/ERC20/utils/SafeERC20.sol\":1738:1743  token */\n      dup5\n        /* \"@openzeppelin/contracts/token/ERC20/utils/SafeERC20.sol\":1760:1765  token */\n      dup6\n        /* \"@openzeppelin/contracts/token/ERC20/utils/SafeERC20.sol\":1760:1778  token.transferFrom */\n      0xffffffffffffffffffffffffffffffffffffffff\n      and\n      0x23b872dd\n        /* \"@openzeppelin/contracts/token/ERC20/utils/SafeERC20.sol\":1781:1785  from */\n      dup7\n        /* \"@openzeppelin/contracts/token/ERC20/utils/SafeERC20.sol\":1787:1789  to */\n      dup7\n        /* \"@openzeppelin/contracts/token/ERC20/utils/SafeERC20.sol\":1791:1796  value */\n      dup7\n        /* \"@openzeppelin/contracts/token/ERC20/utils/SafeERC20.sol\":1745:1798  abi.encodeCall(token.transferFrom, (from, to, value)) */\n      add(0x24, mload(0x40))\n      tag_213\n      swap4\n      swap3\n      swap2\n      swap1\n      tag_214\n      jump\t// in\n    tag_213:\n      mload(0x40)\n      0x20\n      dup2\n      dup4\n      sub\n      sub\n      dup2\n      mstore\n      swap1\n      0x40\n      mstore\n      swap2\n      pop\n      0xe0\n      shl\n      0x20\n      dup3\n      add\n      dup1\n      mload\n      0xffffffffffffffffffffffffffffffffffffffffffffffffffffffff\n      dup4\n      dup2\n      dup4\n      and\n      or\n      dup4\n      mstore\n      pop\n      pop\n      pop\n      pop\n        /* \"@openzeppelin/contracts/token/ERC20/utils/SafeERC20.sol\":1718:1737  _callOptionalReturn */\n      tag_201\n        /* \"@openzeppelin/contracts/token/ERC20/utils/SafeERC20.sol\":1718:1799  _callOptionalReturn(token, abi.encodeCall(token.transferFrom, (from, to, value))) */\n      jump\t// in\n    tag_212:\n        /* \"@openzeppelin/contracts/token/ERC20/utils/SafeERC20.sol\":1618:1806  function safeTransferFrom(IERC20 token, address from, address to, uint256 value) internal {... */\n      pop\n      pop\n      pop\n      pop\n      jump\t// out\n        /* \"@openzeppelin/contracts/token/ERC20/utils/SafeERC20.sol\":8370:9090  function _callOptionalReturn(IERC20 token, bytes memory data) private {... */\n    tag_201:\n        /* \"@openzeppelin/contracts/token/ERC20/utils/SafeERC20.sol\":8450:8468  uint256 returnSize */\n      0x00\n        /* \"@openzeppelin/contracts/token/ERC20/utils/SafeERC20.sol\":8478:8497  uint256 returnValue */\n      0x00\n        /* \"@openzeppelin/contracts/token/ERC20/utils/SafeERC20.sol\":8616:8620  0x20 */\n      0x20\n        /* \"@openzeppelin/contracts/token/ERC20/utils/SafeERC20.sol\":8613:8614  0 */\n      0x00\n        /* \"@openzeppelin/contracts/token/ERC20/utils/SafeERC20.sol\":8606:8610  data */\n      dup5\n        /* \"@openzeppelin/contracts/token/ERC20/utils/SafeERC20.sol\":8600:8611  mload(data) */\n      mload\n        /* \"@openzeppelin/contracts/token/ERC20/utils/SafeERC20.sol\":8593:8597  0x20 */\n      0x20\n        /* \"@openzeppelin/contracts/token/ERC20/utils/SafeERC20.sol\":8587:8591  data */\n      dup7\n        /* \"@openzeppelin/contracts/token/ERC20/utils/SafeERC20.sol\":8583:8598  add(data, 0x20) */\n      add\n        /* \"@openzeppelin/contracts/token/ERC20/utils/SafeERC20.sol\":8580:8581  0 */\n      0x00\n        /* \"@openzeppelin/contracts/token/ERC20/utils/SafeERC20.sol\":8573:8578  token */\n      dup9\n        /* \"@openzeppelin/contracts/token/ERC20/utils/SafeERC20.sol\":8566:8571  gas() */\n      gas\n        /* \"@openzeppelin/contracts/token/ERC20/utils/SafeERC20.sol\":8561:8621  call(gas(), token, 0, add(data, 0x20), mload(data), 0, 0x20) */\n      call\n        /* \"@openzeppelin/contracts/token/ERC20/utils/SafeERC20.sol\":8673:8680  success */\n      dup1\n        /* \"@openzeppelin/contracts/token/ERC20/utils/SafeERC20.sol\":8663:8839  if iszero(success) {... */\n      tag_216\n      jumpi\n        /* \"@openzeppelin/contracts/token/ERC20/utils/SafeERC20.sol\":8717:8721  0x40 */\n      0x40\n        /* \"@openzeppelin/contracts/token/ERC20/utils/SafeERC20.sol\":8711:8722  mload(0x40) */\n      mload\n        /* \"@openzeppelin/contracts/token/ERC20/utils/SafeERC20.sol\":8762:8778  returndatasize() */\n      returndatasize\n        /* \"@openzeppelin/contracts/token/ERC20/utils/SafeERC20.sol\":8759:8760  0 */\n      0x00\n        /* \"@openzeppelin/contracts/token/ERC20/utils/SafeERC20.sol\":8754:8757  ptr */\n      dup3\n        /* \"@openzeppelin/contracts/token/ERC20/utils/SafeERC20.sol\":8739:8779  returndatacopy(ptr, 0, returndatasize()) */\n      returndatacopy\n        /* \"@openzeppelin/contracts/token/ERC20/utils/SafeERC20.sol\":8808:8824  returndatasize() */\n      returndatasize\n        /* \"@openzeppelin/contracts/token/ERC20/utils/SafeERC20.sol\":8803:8806  ptr */\n      dup2\n        /* \"@openzeppelin/contracts/token/ERC20/utils/SafeERC20.sol\":8796:8825  revert(ptr, returndatasize()) */\n      revert\n        /* \"@openzeppelin/contracts/token/ERC20/utils/SafeERC20.sol\":8663:8839  if iszero(success) {... */\n    tag_216:\n        /* \"@openzeppelin/contracts/token/ERC20/utils/SafeERC20.sol\":8866:8882  returndatasize() */\n      returndatasize\n        /* \"@openzeppelin/contracts/token/ERC20/utils/SafeERC20.sol\":8852:8882  returnSize := returndatasize() */\n      swap3\n      pop\n        /* \"@openzeppelin/contracts/token/ERC20/utils/SafeERC20.sol\":8916:8917  0 */\n      0x00\n        /* \"@openzeppelin/contracts/token/ERC20/utils/SafeERC20.sol\":8910:8918  mload(0) */\n      mload\n        /* \"@openzeppelin/contracts/token/ERC20/utils/SafeERC20.sol\":8895:8918  returnValue := mload(0) */\n      swap2\n      pop\n        /* \"@openzeppelin/contracts/token/ERC20/utils/SafeERC20.sol\":8532:8928  {... */\n      pop\n        /* \"@openzeppelin/contracts/token/ERC20/utils/SafeERC20.sol\":8956:8957  0 */\n      0x00\n        /* \"@openzeppelin/contracts/token/ERC20/utils/SafeERC20.sol\":8942:8952  returnSize */\n      dup3\n        /* \"@openzeppelin/contracts/token/ERC20/utils/SafeERC20.sol\":8942:8957  returnSize == 0 */\n      eq\n        /* \"@openzeppelin/contracts/token/ERC20/utils/SafeERC20.sol\":8942:9010  returnSize == 0 ? address(token).code.length == 0 : returnValue != 1 */\n      tag_217\n      jumpi\n        /* \"@openzeppelin/contracts/token/ERC20/utils/SafeERC20.sol\":9009:9010  1 */\n      0x01\n        /* \"@openzeppelin/contracts/token/ERC20/utils/SafeERC20.sol\":8994:9005  returnValue */\n      dup2\n        /* \"@openzeppelin/contracts/token/ERC20/utils/SafeERC20.sol\":8994:9010  returnValue != 1 */\n      eq\n      iszero\n        /* \"@openzeppelin/contracts/token/ERC20/utils/SafeERC20.sol\":8942:9010  returnSize == 0 ? address(token).code.length == 0 : returnValue != 1 */\n      jump(tag_218)\n    tag_217:\n        /* \"@openzeppelin/contracts/token/ERC20/utils/SafeERC20.sol\":8990:8991  0 */\n      0x00\n        /* \"@openzeppelin/contracts/token/ERC20/utils/SafeERC20.sol\":8968:8973  token */\n      dup5\n        /* \"@openzeppelin/contracts/token/ERC20/utils/SafeERC20.sol\":8960:8986  address(token).code.length */\n      0xffffffffffffffffffffffffffffffffffffffff\n      and\n      extcodesize\n        /* \"@openzeppelin/contracts/token/ERC20/utils/SafeERC20.sol\":8960:8991  address(token).code.length == 0 */\n      eq\n        /* \"@openzeppelin/contracts/token/ERC20/utils/SafeERC20.sol\":8942:9010  returnSize == 0 ? address(token).code.length == 0 : returnValue != 1 */\n    tag_218:\n        /* \"@openzeppelin/contracts/token/ERC20/utils/SafeERC20.sol\":8938:9084  if (returnSize == 0 ? address(token).code.length == 0 : returnValue != 1) {... */\n      iszero\n      tag_219\n      jumpi\n        /* \"@openzeppelin/contracts/token/ERC20/utils/SafeERC20.sol\":9066:9071  token */\n      dup4\n        /* \"@openzeppelin/contracts/token/ERC20/utils/SafeERC20.sol\":9033:9073  SafeERC20FailedOperation(address(token)) */\n      mload(0x40)\n      0x5274afe700000000000000000000000000000000000000000000000000000000\n      dup2\n      mstore\n      0x04\n      add\n      tag_220\n      swap2\n      swap1\n      tag_66\n      jump\t// in\n    tag_220:\n      mload(0x40)\n      dup1\n      swap2\n      sub\n      swap1\n      revert\n        /* \"@openzeppelin/contracts/token/ERC20/utils/SafeERC20.sol\":8938:9084  if (returnSize == 0 ? address(token).code.length == 0 : returnValue != 1) {... */\n    tag_219:\n        /* \"@openzeppelin/contracts/token/ERC20/utils/SafeERC20.sol\":8440:9090  {... */\n      pop\n      pop\n        /* \"@openzeppelin/contracts/token/ERC20/utils/SafeERC20.sol\":8370:9090  function _callOptionalReturn(IERC20 token, bytes memory data) private {... */\n      pop\n      pop\n      jump\t// out\n        /* \"@openzeppelin/contracts/utils/Context.sol\":656:752  function _msgSender() internal view virtual returns (address) {... */\n    tag_205:\n        /* \"@openzeppelin/contracts/utils/Context.sol\":709:716  address */\n      0x00\n        /* \"@openzeppelin/contracts/utils/Context.sol\":735:745  msg.sender */\n      caller\n        /* \"@openzeppelin/contracts/utils/Context.sol\":728:745  return msg.sender */\n      swap1\n      pop\n        /* \"@openzeppelin/contracts/utils/Context.sol\":656:752  function _msgSender() internal view virtual returns (address) {... */\n      swap1\n      jump\t// out\n    tag_79:\n      mload(0x40)\n      dup1\n      0x0100\n      add\n      0x40\n      mstore\n      dup1\n      and(0xffffffffffffffffffffffffffffffffffffffff, 0x00)\n      dup2\n      mstore\n      0x20\n      add\n      and(0xffffffffffffffffffffffffffffffffffffffff, 0x00)\n      dup2\n      mstore\n      0x20\n      add\n      0x00\n      dup2\n      mstore\n      0x20\n      add\n      0x00\n      dup2\n      mstore\n      0x20\n      add\n      and(0xffffffffffffffffffffffffffffffffffffffff, 0x00)\n      dup2\n      mstore\n      0x20\n      add\n      0x00\n      dup2\n      mstore\n      0x20\n      add\n      0x00\n      dup2\n      mstore\n      0x20\n      add\n      iszero(iszero(0x00))\n      dup2\n      mstore\n      pop\n      swap1\n      jump\t// out\n        /* \"#utility.yul\":7:84   */\n    tag_222:\n        /* \"#utility.yul\":44:51   */\n      0x00\n        /* \"#utility.yul\":73:78   */\n      dup2\n        /* \"#utility.yul\":62:78   */\n      swap1\n      pop\n        /* \"#utility.yul\":7:84   */\n      swap2\n      swap1\n      pop\n      jump\t// out\n        /* \"#utility.yul\":90:208   */\n    tag_223:\n        /* \"#utility.yul\":177:201   */\n      tag_273\n        /* \"#utility.yul\":195:200   */\n      dup2\n        /* \"#utility.yul\":177:201   */\n      tag_222\n      jump\t// in\n    tag_273:\n        /* \"#utility.yul\":172:175   */\n      dup3\n        /* \"#utility.yul\":165:202   */\n      mstore\n        /* \"#utility.yul\":90:208   */\n      pop\n      pop\n      jump\t// out\n        /* \"#utility.yul\":214:436   */\n    tag_24:\n        /* \"#utility.yul\":307:311   */\n      0x00\n        /* \"#utility.yul\":345:347   */\n      0x20\n        /* \"#utility.yul\":334:343   */\n      dup3\n        /* \"#utility.yul\":330:348   */\n      add\n        /* \"#utility.yul\":322:348   */\n      swap1\n      pop\n        /* \"#utility.yul\":358:429   */\n      tag_275\n        /* \"#utility.yul\":426:427   */\n      0x00\n        /* \"#utility.yul\":415:424   */\n      dup4\n        /* \"#utility.yul\":411:428   */\n      add\n        /* \"#utility.yul\":402:408   */\n      dup5\n        /* \"#utility.yul\":358:429   */\n      tag_223\n      jump\t// in\n    tag_275:\n        /* \"#utility.yul\":214:436   */\n      swap3\n      swap2\n      pop\n      pop\n      jump\t// out\n        /* \"#utility.yul\":523:640   */\n    tag_225:\n        /* \"#utility.yul\":632:633   */\n      0x00\n        /* \"#utility.yul\":629:630   */\n      0x00\n        /* \"#utility.yul\":622:634   */\n      revert\n        /* \"#utility.yul\":769:891   */\n    tag_227:\n        /* \"#utility.yul\":842:866   */\n      tag_280\n        /* \"#utility.yul\":860:865   */\n      dup2\n        /* \"#utility.yul\":842:866   */\n      tag_222\n      jump\t// in\n    tag_280:\n        /* \"#utility.yul\":835:840   */\n      dup2\n        /* \"#utility.yul\":832:867   */\n      eq\n        /* \"#utility.yul\":822:885   */\n      tag_281\n      jumpi\n        /* \"#utility.yul\":881:882   */\n      0x00\n        /* \"#utility.yul\":878:879   */\n      0x00\n        /* \"#utility.yul\":871:883   */\n      revert\n        /* \"#utility.yul\":822:885   */\n    tag_281:\n        /* \"#utility.yul\":769:891   */\n      pop\n      jump\t// out\n        /* \"#utility.yul\":897:1036   */\n    tag_228:\n        /* \"#utility.yul\":943:948   */\n      0x00\n        /* \"#utility.yul\":981:987   */\n      dup2\n        /* \"#utility.yul\":968:988   */\n      calldataload\n        /* \"#utility.yul\":959:988   */\n      swap1\n      pop\n        /* \"#utility.yul\":997:1030   */\n      tag_283\n        /* \"#utility.yul\":1024:1029   */\n      dup2\n        /* \"#utility.yul\":997:1030   */\n      tag_227\n      jump\t// in\n    tag_283:\n        /* \"#utility.yul\":897:1036   */\n      swap3\n      swap2\n      pop\n      pop\n      jump\t// out\n        /* \"#utility.yul\":1042:1371   */\n    tag_28:\n        /* \"#utility.yul\":1101:1107   */\n      0x00\n        /* \"#utility.yul\":1150:1152   */\n      0x20\n        /* \"#utility.yul\":1138:1147   */\n      dup3\n        /* \"#utility.yul\":1129:1136   */\n      dup5\n        /* \"#utility.yul\":1125:1148   */\n      sub\n        /* \"#utility.yul\":1121:1153   */\n      slt\n        /* \"#utility.yul\":1118:1237   */\n      iszero\n      tag_285\n      jumpi\n        /* \"#utility.yul\":1156:1235   */\n      tag_286\n      tag_225\n      jump\t// in\n    tag_286:\n        /* \"#utility.yul\":1118:1237   */\n    tag_285:\n        /* \"#utility.yul\":1276:1277   */\n      0x00\n        /* \"#utility.yul\":1301:1354   */\n      tag_287\n        /* \"#utility.yul\":1346:1353   */\n      dup5\n        /* \"#utility.yul\":1337:1343   */\n      dup3\n        /* \"#utility.yul\":1326:1335   */\n      dup6\n        /* \"#utility.yul\":1322:1344   */\n      add\n        /* \"#utility.yul\":1301:1354   */\n      tag_228\n      jump\t// in\n    tag_287:\n        /* \"#utility.yul\":1291:1354   */\n      swap2\n      pop\n        /* \"#utility.yul\":1247:1364   */\n      pop\n        /* \"#utility.yul\":1042:1371   */\n      swap3\n      swap2\n      pop\n      pop\n      jump\t// out\n        /* \"#utility.yul\":1377:1503   */\n    tag_229:\n        /* \"#utility.yul\":1414:1421   */\n      0x00\n        /* \"#utility.yul\":1454:1496   */\n      0xffffffffffffffffffffffffffffffffffffffff\n        /* \"#utility.yul\":1447:1452   */\n      dup3\n        /* \"#utility.yul\":1443:1497   */\n      and\n        /* \"#utility.yul\":1432:1497   */\n      swap1\n      pop\n        /* \"#utility.yul\":1377:1503   */\n      swap2\n      swap1\n      pop\n      jump\t// out\n        /* \"#utility.yul\":1509:1605   */\n    tag_230:\n        /* \"#utility.yul\":1546:1553   */\n      0x00\n        /* \"#utility.yul\":1575:1599   */\n      tag_290\n        /* \"#utility.yul\":1593:1598   */\n      dup3\n        /* \"#utility.yul\":1575:1599   */\n      tag_229\n      jump\t// in\n    tag_290:\n        /* \"#utility.yul\":1564:1599   */\n      swap1\n      pop\n        /* \"#utility.yul\":1509:1605   */\n      swap2\n      swap1\n      pop\n      jump\t// out\n        /* \"#utility.yul\":1611:1719   */\n    tag_231:\n        /* \"#utility.yul\":1688:1712   */\n      tag_292\n        /* \"#utility.yul\":1706:1711   */\n      dup2\n        /* \"#utility.yul\":1688:1712   */\n      tag_230\n      jump\t// in\n    tag_292:\n        /* \"#utility.yul\":1683:1686   */\n      dup3\n        /* \"#utility.yul\":1676:1713   */\n      mstore\n        /* \"#utility.yul\":1611:1719   */\n      pop\n      pop\n      jump\t// out\n        /* \"#utility.yul\":1725:1833   */\n    tag_232:\n        /* \"#utility.yul\":1802:1826   */\n      tag_294\n        /* \"#utility.yul\":1820:1825   */\n      dup2\n        /* \"#utility.yul\":1802:1826   */\n      tag_222\n      jump\t// in\n    tag_294:\n        /* \"#utility.yul\":1797:1800   */\n      dup3\n        /* \"#utility.yul\":1790:1827   */\n      mstore\n        /* \"#utility.yul\":1725:1833   */\n      pop\n      pop\n      jump\t// out\n        /* \"#utility.yul\":1839:1929   */\n    tag_233:\n        /* \"#utility.yul\":1873:1880   */\n      0x00\n        /* \"#utility.yul\":1916:1921   */\n      dup2\n        /* \"#utility.yul\":1909:1922   */\n      iszero\n        /* \"#utility.yul\":1902:1923   */\n      iszero\n        /* \"#utility.yul\":1891:1923   */\n      swap1\n      pop\n        /* \"#utility.yul\":1839:1929   */\n      swap2\n      swap1\n      pop\n      jump\t// out\n        /* \"#utility.yul\":1935:2034   */\n    tag_234:\n        /* \"#utility.yul\":2006:2027   */\n      tag_297\n        /* \"#utility.yul\":2021:2026   */\n      dup2\n        /* \"#utility.yul\":2006:2027   */\n      tag_233\n      jump\t// in\n    tag_297:\n        /* \"#utility.yul\":2001:2004   */\n      dup3\n        /* \"#utility.yul\":1994:2028   */\n      mstore\n        /* \"#utility.yul\":1935:2034   */\n      pop\n      pop\n      jump\t// out\n        /* \"#utility.yul\":2128:3721   */\n    tag_235:\n        /* \"#utility.yul\":2273:2279   */\n      0x0100\n        /* \"#utility.yul\":2268:2271   */\n      dup3\n        /* \"#utility.yul\":2264:2280   */\n      add\n        /* \"#utility.yul\":2364:2368   */\n      0x00\n        /* \"#utility.yul\":2357:2362   */\n      dup3\n        /* \"#utility.yul\":2353:2369   */\n      add\n        /* \"#utility.yul\":2347:2370   */\n      mload\n        /* \"#utility.yul\":2383:2446   */\n      tag_299\n        /* \"#utility.yul\":2440:2444   */\n      0x00\n        /* \"#utility.yul\":2435:2438   */\n      dup6\n        /* \"#utility.yul\":2431:2445   */\n      add\n        /* \"#utility.yul\":2417:2429   */\n      dup3\n        /* \"#utility.yul\":2383:2446   */\n      tag_231\n      jump\t// in\n    tag_299:\n        /* \"#utility.yul\":2290:2456   */\n      pop\n        /* \"#utility.yul\":2539:2543   */\n      0x20\n        /* \"#utility.yul\":2532:2537   */\n      dup3\n        /* \"#utility.yul\":2528:2544   */\n      add\n        /* \"#utility.yul\":2522:2545   */\n      mload\n        /* \"#utility.yul\":2558:2621   */\n      tag_300\n        /* \"#utility.yul\":2615:2619   */\n      0x20\n        /* \"#utility.yul\":2610:2613   */\n      dup6\n        /* \"#utility.yul\":2606:2620   */\n      add\n        /* \"#utility.yul\":2592:2604   */\n      dup3\n        /* \"#utility.yul\":2558:2621   */\n      tag_231\n      jump\t// in\n    tag_300:\n        /* \"#utility.yul\":2466:2631   */\n      pop\n        /* \"#utility.yul\":2723:2727   */\n      0x40\n        /* \"#utility.yul\":2716:2721   */\n      dup3\n        /* \"#utility.yul\":2712:2728   */\n      add\n        /* \"#utility.yul\":2706:2729   */\n      mload\n        /* \"#utility.yul\":2742:2805   */\n      tag_301\n        /* \"#utility.yul\":2799:2803   */\n      0x40\n        /* \"#utility.yul\":2794:2797   */\n      dup6\n        /* \"#utility.yul\":2790:2804   */\n      add\n        /* \"#utility.yul\":2776:2788   */\n      dup3\n        /* \"#utility.yul\":2742:2805   */\n      tag_232\n      jump\t// in\n    tag_301:\n        /* \"#utility.yul\":2641:2815   */\n      pop\n        /* \"#utility.yul\":2907:2911   */\n      0x60\n        /* \"#utility.yul\":2900:2905   */\n      dup3\n        /* \"#utility.yul\":2896:2912   */\n      add\n        /* \"#utility.yul\":2890:2913   */\n      mload\n        /* \"#utility.yul\":2926:2989   */\n      tag_302\n        /* \"#utility.yul\":2983:2987   */\n      0x60\n        /* \"#utility.yul\":2978:2981   */\n      dup6\n        /* \"#utility.yul\":2974:2988   */\n      add\n        /* \"#utility.yul\":2960:2972   */\n      dup3\n        /* \"#utility.yul\":2926:2989   */\n      tag_232\n      jump\t// in\n    tag_302:\n        /* \"#utility.yul\":2825:2999   */\n      pop\n        /* \"#utility.yul\":3086:3090   */\n      0x80\n        /* \"#utility.yul\":3079:3084   */\n      dup3\n        /* \"#utility.yul\":3075:3091   */\n      add\n        /* \"#utility.yul\":3069:3092   */\n      mload\n        /* \"#utility.yul\":3105:3168   */\n      tag_303\n        /* \"#utility.yul\":3162:3166   */\n      0x80\n        /* \"#utility.yul\":3157:3160   */\n      dup6\n        /* \"#utility.yul\":3153:3167   */\n      add\n        /* \"#utility.yul\":3139:3151   */\n      dup3\n        /* \"#utility.yul\":3105:3168   */\n      tag_231\n      jump\t// in\n    tag_303:\n        /* \"#utility.yul\":3009:3178   */\n      pop\n        /* \"#utility.yul\":3265:3269   */\n      0xa0\n        /* \"#utility.yul\":3258:3263   */\n      dup3\n        /* \"#utility.yul\":3254:3270   */\n      add\n        /* \"#utility.yul\":3248:3271   */\n      mload\n        /* \"#utility.yul\":3284:3347   */\n      tag_304\n        /* \"#utility.yul\":3341:3345   */\n      0xa0\n        /* \"#utility.yul\":3336:3339   */\n      dup6\n        /* \"#utility.yul\":3332:3346   */\n      add\n        /* \"#utility.yul\":3318:3330   */\n      dup3\n        /* \"#utility.yul\":3284:3347   */\n      tag_232\n      jump\t// in\n    tag_304:\n        /* \"#utility.yul\":3188:3357   */\n      pop\n        /* \"#utility.yul\":3450:3454   */\n      0xc0\n        /* \"#utility.yul\":3443:3448   */\n      dup3\n        /* \"#utility.yul\":3439:3455   */\n      add\n        /* \"#utility.yul\":3433:3456   */\n      mload\n        /* \"#utility.yul\":3469:3532   */\n      tag_305\n        /* \"#utility.yul\":3526:3530   */\n      0xc0\n        /* \"#utility.yul\":3521:3524   */\n      dup6\n        /* \"#utility.yul\":3517:3531   */\n      add\n        /* \"#utility.yul\":3503:3515   */\n      dup3\n        /* \"#utility.yul\":3469:3532   */\n      tag_232\n      jump\t// in\n    tag_305:\n        /* \"#utility.yul\":3367:3542   */\n      pop\n        /* \"#utility.yul\":3628:3632   */\n      0xe0\n        /* \"#utility.yul\":3621:3626   */\n      dup3\n        /* \"#utility.yul\":3617:3633   */\n      add\n        /* \"#utility.yul\":3611:3634   */\n      mload\n        /* \"#utility.yul\":3647:3704   */\n      tag_306\n        /* \"#utility.yul\":3698:3702   */\n      0xe0\n        /* \"#utility.yul\":3693:3696   */\n      dup6\n        /* \"#utility.yul\":3689:3703   */\n      add\n        /* \"#utility.yul\":3675:3687   */\n      dup3\n        /* \"#utility.yul\":3647:3704   */\n      tag_234\n      jump\t// in\n    tag_306:\n        /* \"#utility.yul\":3552:3714   */\n      pop\n        /* \"#utility.yul\":2242:3721   */\n      pop\n        /* \"#utility.yul\":2128:3721   */\n      pop\n      pop\n      jump\t// out\n        /* \"#utility.yul\":3727:4046   */\n    tag_31:\n        /* \"#utility.yul\":3868:3872   */\n      0x00\n        /* \"#utility.yul\":3906:3909   */\n      0x0100\n        /* \"#utility.yul\":3895:3904   */\n      dup3\n        /* \"#utility.yul\":3891:3910   */\n      add\n        /* \"#utility.yul\":3883:3910   */\n      swap1\n      pop\n        /* \"#utility.yul\":3920:4039   */\n      tag_308\n        /* \"#utility.yul\":4036:4037   */\n      0x00\n        /* \"#utility.yul\":4025:4034   */\n      dup4\n        /* \"#utility.yul\":4021:4038   */\n      add\n        /* \"#utility.yul\":4012:4018   */\n      dup5\n        /* \"#utility.yul\":3920:4039   */\n      tag_235\n      jump\t// in\n    tag_308:\n        /* \"#utility.yul\":3727:4046   */\n      swap3\n      swap2\n      pop\n      pop\n      jump\t// out\n        /* \"#utility.yul\":4052:4174   */\n    tag_236:\n        /* \"#utility.yul\":4125:4149   */\n      tag_310\n        /* \"#utility.yul\":4143:4148   */\n      dup2\n        /* \"#utility.yul\":4125:4149   */\n      tag_230\n      jump\t// in\n    tag_310:\n        /* \"#utility.yul\":4118:4123   */\n      dup2\n        /* \"#utility.yul\":4115:4150   */\n      eq\n        /* \"#utility.yul\":4105:4168   */\n      tag_311\n      jumpi\n        /* \"#utility.yul\":4164:4165   */\n      0x00\n        /* \"#utility.yul\":4161:4162   */\n      0x00\n        /* \"#utility.yul\":4154:4166   */\n      revert\n        /* \"#utility.yul\":4105:4168   */\n    tag_311:\n        /* \"#utility.yul\":4052:4174   */\n      pop\n      jump\t// out\n        /* \"#utility.yul\":4180:4319   */\n    tag_237:\n        /* \"#utility.yul\":4226:4231   */\n      0x00\n        /* \"#utility.yul\":4264:4270   */\n      dup2\n        /* \"#utility.yul\":4251:4271   */\n      calldataload\n        /* \"#utility.yul\":4242:4271   */\n      swap1\n      pop\n        /* \"#utility.yul\":4280:4313   */\n      tag_313\n        /* \"#utility.yul\":4307:4312   */\n      dup2\n        /* \"#utility.yul\":4280:4313   */\n      tag_236\n      jump\t// in\n    tag_313:\n        /* \"#utility.yul\":4180:4319   */\n      swap3\n      swap2\n      pop\n      pop\n      jump\t// out\n        /* \"#utility.yul\":4325:4799   */\n    tag_39:\n        /* \"#utility.yul\":4393:4399   */\n      0x00\n        /* \"#utility.yul\":4401:4407   */\n      0x00\n        /* \"#utility.yul\":4450:4452   */\n      0x40\n        /* \"#utility.yul\":4438:4447   */\n      dup4\n        /* \"#utility.yul\":4429:4436   */\n      dup6\n        /* \"#utility.yul\":4425:4448   */\n      sub\n        /* \"#utility.yul\":4421:4453   */\n      slt\n        /* \"#utility.yul\":4418:4537   */\n      iszero\n      tag_315\n      jumpi\n        /* \"#utility.yul\":4456:4535   */\n      tag_316\n      tag_225\n      jump\t// in\n    tag_316:\n        /* \"#utility.yul\":4418:4537   */\n    tag_315:\n        /* \"#utility.yul\":4576:4577   */\n      0x00\n        /* \"#utility.yul\":4601:4654   */\n      tag_317\n        /* \"#utility.yul\":4646:4653   */\n      dup6\n        /* \"#utility.yul\":4637:4643   */\n      dup3\n        /* \"#utility.yul\":4626:4635   */\n      dup7\n        /* \"#utility.yul\":4622:4644   */\n      add\n        /* \"#utility.yul\":4601:4654   */\n      tag_237\n      jump\t// in\n    tag_317:\n        /* \"#utility.yul\":4591:4654   */\n      swap3\n      pop\n        /* \"#utility.yul\":4547:4664   */\n      pop\n        /* \"#utility.yul\":4703:4705   */\n      0x20\n        /* \"#utility.yul\":4729:4782   */\n      tag_318\n        /* \"#utility.yul\":4774:4781   */\n      dup6\n        /* \"#utility.yul\":4765:4771   */\n      dup3\n        /* \"#utility.yul\":4754:4763   */\n      dup7\n        /* \"#utility.yul\":4750:4772   */\n      add\n        /* \"#utility.yul\":4729:4782   */\n      tag_228\n      jump\t// in\n    tag_318:\n        /* \"#utility.yul\":4719:4782   */\n      swap2\n      pop\n        /* \"#utility.yul\":4674:4792   */\n      pop\n        /* \"#utility.yul\":4325:4799   */\n      swap3\n      pop\n      swap3\n      swap1\n      pop\n      jump\t// out\n        /* \"#utility.yul\":4805:4923   */\n    tag_238:\n        /* \"#utility.yul\":4892:4916   */\n      tag_320\n        /* \"#utility.yul\":4910:4915   */\n      dup2\n        /* \"#utility.yul\":4892:4916   */\n      tag_230\n      jump\t// in\n    tag_320:\n        /* \"#utility.yul\":4887:4890   */\n      dup3\n        /* \"#utility.yul\":4880:4917   */\n      mstore\n        /* \"#utility.yul\":4805:4923   */\n      pop\n      pop\n      jump\t// out\n        /* \"#utility.yul\":4929:5038   */\n    tag_239:\n        /* \"#utility.yul\":5010:5031   */\n      tag_322\n        /* \"#utility.yul\":5025:5030   */\n      dup2\n        /* \"#utility.yul\":5010:5031   */\n      tag_233\n      jump\t// in\n    tag_322:\n        /* \"#utility.yul\":5005:5008   */\n      dup3\n        /* \"#utility.yul\":4998:5032   */\n      mstore\n        /* \"#utility.yul\":4929:5038   */\n      pop\n      pop\n      jump\t// out\n        /* \"#utility.yul\":5044:6029   */\n    tag_61:\n        /* \"#utility.yul\":5327:5331   */\n      0x00\n        /* \"#utility.yul\":5365:5368   */\n      0x0100\n        /* \"#utility.yul\":5354:5363   */\n      dup3\n        /* \"#utility.yul\":5350:5369   */\n      add\n        /* \"#utility.yul\":5342:5369   */\n      swap1\n      pop\n        /* \"#utility.yul\":5379:5450   */\n      tag_324\n        /* \"#utility.yul\":5447:5448   */\n      0x00\n        /* \"#utility.yul\":5436:5445   */\n      dup4\n        /* \"#utility.yul\":5432:5449   */\n      add\n        /* \"#utility.yul\":5423:5429   */\n      dup12\n        /* \"#utility.yul\":5379:5450   */\n      tag_238\n      jump\t// in\n    tag_324:\n        /* \"#utility.yul\":5460:5532   */\n      tag_325\n        /* \"#utility.yul\":5528:5530   */\n      0x20\n        /* \"#utility.yul\":5517:5526   */\n      dup4\n        /* \"#utility.yul\":5513:5531   */\n      add\n        /* \"#utility.yul\":5504:5510   */\n      dup11\n        /* \"#utility.yul\":5460:5532   */\n      tag_238\n      jump\t// in\n    tag_325:\n        /* \"#utility.yul\":5542:5614   */\n      tag_326\n        /* \"#utility.yul\":5610:5612   */\n      0x40\n        /* \"#utility.yul\":5599:5608   */\n      dup4\n        /* \"#utility.yul\":5595:5613   */\n      add\n        /* \"#utility.yul\":5586:5592   */\n      dup10\n        /* \"#utility.yul\":5542:5614   */\n      tag_223\n      jump\t// in\n    tag_326:\n        /* \"#utility.yul\":5624:5696   */\n      tag_327\n        /* \"#utility.yul\":5692:5694   */\n      0x60\n        /* \"#utility.yul\":5681:5690   */\n      dup4\n        /* \"#utility.yul\":5677:5695   */\n      add\n        /* \"#utility.yul\":5668:5674   */\n      dup9\n        /* \"#utility.yul\":5624:5696   */\n      tag_223\n      jump\t// in\n    tag_327:\n        /* \"#utility.yul\":5706:5779   */\n      tag_328\n        /* \"#utility.yul\":5774:5777   */\n      0x80\n        /* \"#utility.yul\":5763:5772   */\n      dup4\n        /* \"#utility.yul\":5759:5778   */\n      add\n        /* \"#utility.yul\":5750:5756   */\n      dup8\n        /* \"#utility.yul\":5706:5779   */\n      tag_238\n      jump\t// in\n    tag_328:\n        /* \"#utility.yul\":5789:5862   */\n      tag_329\n        /* \"#utility.yul\":5857:5860   */\n      0xa0\n        /* \"#utility.yul\":5846:5855   */\n      dup4\n        /* \"#utility.yul\":5842:5861   */\n      add\n        /* \"#utility.yul\":5833:5839   */\n      dup7\n        /* \"#utility.yul\":5789:5862   */\n      tag_223\n      jump\t// in\n    tag_329:\n        /* \"#utility.yul\":5872:5945   */\n      tag_330\n        /* \"#utility.yul\":5940:5943   */\n      0xc0\n        /* \"#utility.yul\":5929:5938   */\n      dup4\n        /* \"#utility.yul\":5925:5944   */\n      add\n        /* \"#utility.yul\":5916:5922   */\n      dup6\n        /* \"#utility.yul\":5872:5945   */\n      tag_223\n      jump\t// in\n    tag_330:\n        /* \"#utility.yul\":5955:6022   */\n      tag_331\n        /* \"#utility.yul\":6017:6020   */\n      0xe0\n        /* \"#utility.yul\":6006:6015   */\n      dup4\n        /* \"#utility.yul\":6002:6021   */\n      add\n        /* \"#utility.yul\":5993:5999   */\n      dup5\n        /* \"#utility.yul\":5955:6022   */\n      tag_239\n      jump\t// in\n    tag_331:\n        /* \"#utility.yul\":5044:6029   */\n      swap10\n      swap9\n      pop\n      pop\n      pop\n      pop\n      pop\n      pop\n      pop\n      pop\n      pop\n      jump\t// out\n        /* \"#utility.yul\":6035:6257   */\n    tag_66:\n        /* \"#utility.yul\":6128:6132   */\n      0x00\n        /* \"#utility.yul\":6166:6168   */\n      0x20\n        /* \"#utility.yul\":6155:6164   */\n      dup3\n        /* \"#utility.yul\":6151:6169   */\n      add\n        /* \"#utility.yul\":6143:6169   */\n      swap1\n      pop\n        /* \"#utility.yul\":6179:6250   */\n      tag_333\n        /* \"#utility.yul\":6247:6248   */\n      0x00\n        /* \"#utility.yul\":6236:6245   */\n      dup4\n        /* \"#utility.yul\":6232:6249   */\n      add\n        /* \"#utility.yul\":6223:6229   */\n      dup5\n        /* \"#utility.yul\":6179:6250   */\n      tag_238\n      jump\t// in\n    tag_333:\n        /* \"#utility.yul\":6035:6257   */\n      swap3\n      swap2\n      pop\n      pop\n      jump\t// out\n        /* \"#utility.yul\":6263:7028   */\n    tag_70:\n        /* \"#utility.yul\":6349:6355   */\n      0x00\n        /* \"#utility.yul\":6357:6363   */\n      0x00\n        /* \"#utility.yul\":6365:6371   */\n      0x00\n        /* \"#utility.yul\":6373:6379   */\n      0x00\n        /* \"#utility.yul\":6422:6425   */\n      0x80\n        /* \"#utility.yul\":6410:6419   */\n      dup6\n        /* \"#utility.yul\":6401:6408   */\n      dup8\n        /* \"#utility.yul\":6397:6420   */\n      sub\n        /* \"#utility.yul\":6393:6426   */\n      slt\n        /* \"#utility.yul\":6390:6510   */\n      iszero\n      tag_335\n      jumpi\n        /* \"#utility.yul\":6429:6508   */\n      tag_336\n      tag_225\n      jump\t// in\n    tag_336:\n        /* \"#utility.yul\":6390:6510   */\n    tag_335:\n        /* \"#utility.yul\":6549:6550   */\n      0x00\n        /* \"#utility.yul\":6574:6627   */\n      tag_337\n        /* \"#utility.yul\":6619:6626   */\n      dup8\n        /* \"#utility.yul\":6610:6616   */\n      dup3\n        /* \"#utility.yul\":6599:6608   */\n      dup9\n        /* \"#utility.yul\":6595:6617   */\n      add\n        /* \"#utility.yul\":6574:6627   */\n      tag_237\n      jump\t// in\n    tag_337:\n        /* \"#utility.yul\":6564:6627   */\n      swap5\n      pop\n        /* \"#utility.yul\":6520:6637   */\n      pop\n        /* \"#utility.yul\":6676:6678   */\n      0x20\n        /* \"#utility.yul\":6702:6755   */\n      tag_338\n        /* \"#utility.yul\":6747:6754   */\n      dup8\n        /* \"#utility.yul\":6738:6744   */\n      dup3\n        /* \"#utility.yul\":6727:6736   */\n      dup9\n        /* \"#utility.yul\":6723:6745   */\n      add\n        /* \"#utility.yul\":6702:6755   */\n      tag_228\n      jump\t// in\n    tag_338:\n        /* \"#utility.yul\":6692:6755   */\n      swap4\n      pop\n        /* \"#utility.yul\":6647:6765   */\n      pop\n        /* \"#utility.yul\":6804:6806   */\n      0x40\n        /* \"#utility.yul\":6830:6883   */\n      tag_339\n        /* \"#utility.yul\":6875:6882   */\n      dup8\n        /* \"#utility.yul\":6866:6872   */\n      dup3\n        /* \"#utility.yul\":6855:6864   */\n      dup9\n        /* \"#utility.yul\":6851:6873   */\n      add\n        /* \"#utility.yul\":6830:6883   */\n      tag_237\n      jump\t// in\n    tag_339:\n        /* \"#utility.yul\":6820:6883   */\n      swap3\n      pop\n        /* \"#utility.yul\":6775:6893   */\n      pop\n        /* \"#utility.yul\":6932:6934   */\n      0x60\n        /* \"#utility.yul\":6958:7011   */\n      tag_340\n        /* \"#utility.yul\":7003:7010   */\n      dup8\n        /* \"#utility.yul\":6994:7000   */\n      dup3\n        /* \"#utility.yul\":6983:6992   */\n      dup9\n        /* \"#utility.yul\":6979:7001   */\n      add\n        /* \"#utility.yul\":6958:7011   */\n      tag_228\n      jump\t// in\n    tag_340:\n        /* \"#utility.yul\":6948:7011   */\n      swap2\n      pop\n        /* \"#utility.yul\":6903:7021   */\n      pop\n        /* \"#utility.yul\":6263:7028   */\n      swap3\n      swap6\n      swap2\n      swap5\n      pop\n      swap3\n      pop\n      jump\t// out\n        /* \"#utility.yul\":7034:7363   */\n    tag_76:\n        /* \"#utility.yul\":7093:7099   */\n      0x00\n        /* \"#utility.yul\":7142:7144   */\n      0x20\n        /* \"#utility.yul\":7130:7139   */\n      dup3\n        /* \"#utility.yul\":7121:7128   */\n      dup5\n        /* \"#utility.yul\":7117:7140   */\n      sub\n        /* \"#utility.yul\":7113:7145   */\n      slt\n        /* \"#utility.yul\":7110:7229   */\n      iszero\n      tag_342\n      jumpi\n        /* \"#utility.yul\":7148:7227   */\n      tag_343\n      tag_225\n      jump\t// in\n    tag_343:\n        /* \"#utility.yul\":7110:7229   */\n    tag_342:\n        /* \"#utility.yul\":7268:7269   */\n      0x00\n        /* \"#utility.yul\":7293:7346   */\n      tag_344\n        /* \"#utility.yul\":7338:7345   */\n      dup5\n        /* \"#utility.yul\":7329:7335   */\n      dup3\n        /* \"#utility.yul\":7318:7327   */\n      dup6\n        /* \"#utility.yul\":7314:7336   */\n      add\n        /* \"#utility.yul\":7293:7346   */\n      tag_237\n      jump\t// in\n    tag_344:\n        /* \"#utility.yul\":7283:7346   */\n      swap2\n      pop\n        /* \"#utility.yul\":7239:7356   */\n      pop\n        /* \"#utility.yul\":7034:7363   */\n      swap3\n      swap2\n      pop\n      pop\n      jump\t// out\n        /* \"#utility.yul\":7369:7538   */\n    tag_240:\n        /* \"#utility.yul\":7453:7464   */\n      0x00\n        /* \"#utility.yul\":7487:7493   */\n      dup3\n        /* \"#utility.yul\":7482:7485   */\n      dup3\n        /* \"#utility.yul\":7475:7494   */\n      mstore\n        /* \"#utility.yul\":7527:7531   */\n      0x20\n        /* \"#utility.yul\":7522:7525   */\n      dup3\n        /* \"#utility.yul\":7518:7532   */\n      add\n        /* \"#utility.yul\":7503:7532   */\n      swap1\n      pop\n        /* \"#utility.yul\":7369:7538   */\n      swap3\n      swap2\n      pop\n      pop\n      jump\t// out\n        /* \"#utility.yul\":7544:7711   */\n    tag_241:\n        /* \"#utility.yul\":7684:7703   */\n      0x6e6f7420666f756e64206f72207a65726f000000000000000000000000000000\n        /* \"#utility.yul\":7680:7681   */\n      0x00\n        /* \"#utility.yul\":7672:7678   */\n      dup3\n        /* \"#utility.yul\":7668:7682   */\n      add\n        /* \"#utility.yul\":7661:7704   */\n      mstore\n        /* \"#utility.yul\":7544:7711   */\n      pop\n      jump\t// out\n        /* \"#utility.yul\":7717:8083   */\n    tag_242:\n        /* \"#utility.yul\":7859:7862   */\n      0x00\n        /* \"#utility.yul\":7880:7947   */\n      tag_348\n        /* \"#utility.yul\":7944:7946   */\n      0x11\n        /* \"#utility.yul\":7939:7942   */\n      dup4\n        /* \"#utility.yul\":7880:7947   */\n      tag_240\n      jump\t// in\n    tag_348:\n        /* \"#utility.yul\":7873:7947   */\n      swap2\n      pop\n        /* \"#utility.yul\":7956:8049   */\n      tag_349\n        /* \"#utility.yul\":8045:8048   */\n      dup3\n        /* \"#utility.yul\":7956:8049   */\n      tag_241\n      jump\t// in\n    tag_349:\n        /* \"#utility.yul\":8074:8076   */\n      0x20\n        /* \"#utility.yul\":8069:8072   */\n      dup3\n        /* \"#utility.yul\":8065:8077   */\n      add\n        /* \"#utility.yul\":8058:8077   */\n      swap1\n      pop\n        /* \"#utility.yul\":7717:8083   */\n      swap2\n      swap1\n      pop\n      jump\t// out\n        /* \"#utility.yul\":8089:8508   */\n    tag_87:\n        /* \"#utility.yul\":8255:8259   */\n      0x00\n        /* \"#utility.yul\":8293:8295   */\n      0x20\n        /* \"#utility.yul\":8282:8291   */\n      dup3\n        /* \"#utility.yul\":8278:8296   */\n      add\n        /* \"#utility.yul\":8270:8296   */\n      swap1\n      pop\n        /* \"#utility.yul\":8342:8351   */\n      dup2\n        /* \"#utility.yul\":8336:8340   */\n      dup2\n        /* \"#utility.yul\":8332:8352   */\n      sub\n        /* \"#utility.yul\":8328:8329   */\n      0x00\n        /* \"#utility.yul\":8317:8326   */\n      dup4\n        /* \"#utility.yul\":8313:8330   */\n      add\n        /* \"#utility.yul\":8306:8353   */\n      mstore\n        /* \"#utility.yul\":8370:8501   */\n      tag_351\n        /* \"#utility.yul\":8496:8500   */\n      dup2\n        /* \"#utility.yul\":8370:8501   */\n      tag_242\n      jump\t// in\n    tag_351:\n        /* \"#utility.yul\":8362:8501   */\n      swap1\n      pop\n        /* \"#utility.yul\":8089:8508   */\n      swap2\n      swap1\n      pop\n      jump\t// out\n        /* \"#utility.yul\":8514:8680   */\n    tag_243:\n        /* \"#utility.yul\":8654:8672   */\n      0x616c72656164792072656c656173656400000000000000000000000000000000\n        /* \"#utility.yul\":8650:8651   */\n      0x00\n        /* \"#utility.yul\":8642:8648   */\n      dup3\n        /* \"#utility.yul\":8638:8652   */\n      add\n        /* \"#utility.yul\":8631:8673   */\n      mstore\n        /* \"#utility.yul\":8514:8680   */\n      pop\n      jump\t// out\n        /* \"#utility.yul\":8686:9052   */\n    tag_244:\n        /* \"#utility.yul\":8828:8831   */\n      0x00\n        /* \"#utility.yul\":8849:8916   */\n      tag_354\n        /* \"#utility.yul\":8913:8915   */\n      0x10\n        /* \"#utility.yul\":8908:8911   */\n      dup4\n        /* \"#utility.yul\":8849:8916   */\n      tag_240\n      jump\t// in\n    tag_354:\n        /* \"#utility.yul\":8842:8916   */\n      swap2\n      pop\n        /* \"#utility.yul\":8925:9018   */\n      tag_355\n        /* \"#utility.yul\":9014:9017   */\n      dup3\n        /* \"#utility.yul\":8925:9018   */\n      tag_243\n      jump\t// in\n    tag_355:\n        /* \"#utility.yul\":9043:9045   */\n      0x20\n        /* \"#utility.yul\":9038:9041   */\n      dup3\n        /* \"#utility.yul\":9034:9046   */\n      add\n        /* \"#utility.yul\":9027:9046   */\n      swap1\n      pop\n        /* \"#utility.yul\":8686:9052   */\n      swap2\n      swap1\n      pop\n      jump\t// out\n        /* \"#utility.yul\":9058:9477   */\n    tag_90:\n        /* \"#utility.yul\":9224:9228   */\n      0x00\n        /* \"#utility.yul\":9262:9264   */\n      0x20\n        /* \"#utility.yul\":9251:9260   */\n      dup3\n        /* \"#utility.yul\":9247:9265   */\n      add\n        /* \"#utility.yul\":9239:9265   */\n      swap1\n      pop\n        /* \"#utility.yul\":9311:9320   */\n      dup2\n        /* \"#utility.yul\":9305:9309   */\n      dup2\n        /* \"#utility.yul\":9301:9321   */\n      sub\n        /* \"#utility.yul\":9297:9298   */\n      0x00\n        /* \"#utility.yul\":9286:9295   */\n      dup4\n        /* \"#utility.yul\":9282:9299   */\n      add\n        /* \"#utility.yul\":9275:9322   */\n      mstore\n        /* \"#utility.yul\":9339:9470   */\n      tag_357\n        /* \"#utility.yul\":9465:9469   */\n      dup2\n        /* \"#utility.yul\":9339:9470   */\n      tag_244\n      jump\t// in\n    tag_357:\n        /* \"#utility.yul\":9331:9470   */\n      swap1\n      pop\n        /* \"#utility.yul\":9058:9477   */\n      swap2\n      swap1\n      pop\n      jump\t// out\n        /* \"#utility.yul\":9483:9647   */\n    tag_245:\n        /* \"#utility.yul\":9623:9639   */\n      0x6e6f7420617574686f72697a6564000000000000000000000000000000000000\n        /* \"#utility.yul\":9619:9620   */\n      0x00\n        /* \"#utility.yul\":9611:9617   */\n      dup3\n        /* \"#utility.yul\":9607:9621   */\n      add\n        /* \"#utility.yul\":9600:9640   */\n      mstore\n        /* \"#utility.yul\":9483:9647   */\n      pop\n      jump\t// out\n        /* \"#utility.yul\":9653:10019   */\n    tag_246:\n        /* \"#utility.yul\":9795:9798   */\n      0x00\n        /* \"#utility.yul\":9816:9883   */\n      tag_360\n        /* \"#utility.yul\":9880:9882   */\n      0x0e\n        /* \"#utility.yul\":9875:9878   */\n      dup4\n        /* \"#utility.yul\":9816:9883   */\n      tag_240\n      jump\t// in\n    tag_360:\n        /* \"#utility.yul\":9809:9883   */\n      swap2\n      pop\n        /* \"#utility.yul\":9892:9985   */\n      tag_361\n        /* \"#utility.yul\":9981:9984   */\n      dup3\n        /* \"#utility.yul\":9892:9985   */\n      tag_245\n      jump\t// in\n    tag_361:\n        /* \"#utility.yul\":10010:10012   */\n      0x20\n        /* \"#utility.yul\":10005:10008   */\n      dup3\n        /* \"#utility.yul\":10001:10013   */\n      add\n        /* \"#utility.yul\":9994:10013   */\n      swap1\n      pop\n        /* \"#utility.yul\":9653:10019   */\n      swap2\n      swap1\n      pop\n      jump\t// out\n        /* \"#utility.yul\":10025:10444   */\n    tag_97:\n        /* \"#utility.yul\":10191:10195   */\n      0x00\n        /* \"#utility.yul\":10229:10231   */\n      0x20\n        /* \"#utility.yul\":10218:10227   */\n      dup3\n        /* \"#utility.yul\":10214:10232   */\n      add\n        /* \"#utility.yul\":10206:10232   */\n      swap1\n      pop\n        /* \"#utility.yul\":10278:10287   */\n      dup2\n        /* \"#utility.yul\":10272:10276   */\n      dup2\n        /* \"#utility.yul\":10268:10288   */\n      sub\n        /* \"#utility.yul\":10264:10265   */\n      0x00\n        /* \"#utility.yul\":10253:10262   */\n      dup4\n        /* \"#utility.yul\":10249:10266   */\n      add\n        /* \"#utility.yul\":10242:10289   */\n      mstore\n        /* \"#utility.yul\":10306:10437   */\n      tag_363\n        /* \"#utility.yul\":10432:10436   */\n      dup2\n        /* \"#utility.yul\":10306:10437   */\n      tag_246\n      jump\t// in\n    tag_363:\n        /* \"#utility.yul\":10298:10437   */\n      swap1\n      pop\n        /* \"#utility.yul\":10025:10444   */\n      swap2\n      swap1\n      pop\n      jump\t// out\n        /* \"#utility.yul\":10450:10630   */\n    tag_247:\n        /* \"#utility.yul\":10498:10575   */\n      0x4e487b7100000000000000000000000000000000000000000000000000000000\n        /* \"#utility.yul\":10495:10496   */\n      0x00\n        /* \"#utility.yul\":10488:10576   */\n      mstore\n        /* \"#utility.yul\":10595:10599   */\n      0x12\n        /* \"#utility.yul\":10592:10593   */\n      0x04\n        /* \"#utility.yul\":10585:10600   */\n      mstore\n        /* \"#utility.yul\":10619:10623   */\n      0x24\n        /* \"#utility.yul\":10616:10617   */\n      0x00\n        /* \"#utility.yul\":10609:10624   */\n      revert\n        /* \"#utility.yul\":10636:10816   */\n    tag_248:\n        /* \"#utility.yul\":10684:10761   */\n      0x4e487b7100000000000000000000000000000000000000000000000000000000\n        /* \"#utility.yul\":10681:10682   */\n      0x00\n        /* \"#utility.yul\":10674:10762   */\n      mstore\n        /* \"#utility.yul\":10781:10785   */\n      0x11\n        /* \"#utility.yul\":10778:10779   */\n      0x04\n        /* \"#utility.yul\":10771:10786   */\n      mstore\n        /* \"#utility.yul\":10805:10809   */\n      0x24\n        /* \"#utility.yul\":10802:10803   */\n      0x00\n        /* \"#utility.yul\":10795:10810   */\n      revert\n        /* \"#utility.yul\":10822:11007   */\n    tag_101:\n        /* \"#utility.yul\":10862:10863   */\n      0x00\n        /* \"#utility.yul\":10879:10899   */\n      tag_367\n        /* \"#utility.yul\":10897:10898   */\n      dup3\n        /* \"#utility.yul\":10879:10899   */\n      tag_222\n      jump\t// in\n    tag_367:\n        /* \"#utility.yul\":10874:10899   */\n      swap2\n      pop\n        /* \"#utility.yul\":10913:10933   */\n      tag_368\n        /* \"#utility.yul\":10931:10932   */\n      dup4\n        /* \"#utility.yul\":10913:10933   */\n      tag_222\n      jump\t// in\n    tag_368:\n        /* \"#utility.yul\":10908:10933   */\n      swap3\n      pop\n        /* \"#utility.yul\":10952:10953   */\n      dup3\n        /* \"#utility.yul\":10942:10977   */\n      tag_369\n      jumpi\n        /* \"#utility.yul\":10957:10975   */\n      tag_370\n      tag_247\n      jump\t// in\n    tag_370:\n        /* \"#utility.yul\":10942:10977   */\n    tag_369:\n        /* \"#utility.yul\":10999:11000   */\n      dup3\n        /* \"#utility.yul\":10996:10997   */\n      dup3\n        /* \"#utility.yul\":10992:11001   */\n      div\n        /* \"#utility.yul\":10987:11001   */\n      swap1\n      pop\n        /* \"#utility.yul\":10822:11007   */\n      swap3\n      swap2\n      pop\n      pop\n      jump\t// out\n        /* \"#utility.yul\":11013:11180   */\n    tag_249:\n        /* \"#utility.yul\":11153:11172   */\n      0x6665652063616c63206f766572666c6f77000000000000000000000000000000\n        /* \"#utility.yul\":11149:11150   */\n      0x00\n        /* \"#utility.yul\":11141:11147   */\n      dup3\n        /* \"#utility.yul\":11137:11151   */\n      add\n        /* \"#utility.yul\":11130:11173   */\n      mstore\n        /* \"#utility.yul\":11013:11180   */\n      pop\n      jump\t// out\n        /* \"#utility.yul\":11186:11552   */\n    tag_250:\n        /* \"#utility.yul\":11328:11331   */\n      0x00\n        /* \"#utility.yul\":11349:11416   */\n      tag_373\n        /* \"#utility.yul\":11413:11415   */\n      0x11\n        /* \"#utility.yul\":11408:11411   */\n      dup4\n        /* \"#utility.yul\":11349:11416   */\n      tag_240\n      jump\t// in\n    tag_373:\n        /* \"#utility.yul\":11342:11416   */\n      swap2\n      pop\n        /* \"#utility.yul\":11425:11518   */\n      tag_374\n        /* \"#utility.yul\":11514:11517   */\n      dup3\n        /* \"#utility.yul\":11425:11518   */\n      tag_249\n      jump\t// in\n    tag_374:\n        /* \"#utility.yul\":11543:11545   */\n      0x20\n        /* \"#utility.yul\":11538:11541   */\n      dup3\n        /* \"#utility.yul\":11534:11546   */\n      add\n        /* \"#utility.yul\":11527:11546   */\n      swap1\n      pop\n        /* \"#utility.yul\":11186:11552   */\n      swap2\n      swap1\n      pop\n      jump\t// out\n        /* \"#utility.yul\":11558:11977   */\n    tag_104:\n        /* \"#utility.yul\":11724:11728   */\n      0x00\n        /* \"#utility.yul\":11762:11764   */\n      0x20\n        /* \"#utility.yul\":11751:11760   */\n      dup3\n        /* \"#utility.yul\":11747:11765   */\n      add\n        /* \"#utility.yul\":11739:11765   */\n      swap1\n      pop\n        /* \"#utility.yul\":11811:11820   */\n      dup2\n        /* \"#utility.yul\":11805:11809   */\n      dup2\n        /* \"#utility.yul\":11801:11821   */\n      sub\n        /* \"#utility.yul\":11797:11798   */\n      0x00\n        /* \"#utility.yul\":11786:11795   */\n      dup4\n        /* \"#utility.yul\":11782:11799   */\n      add\n        /* \"#utility.yul\":11775:11822   */\n      mstore\n        /* \"#utility.yul\":11839:11970   */\n      tag_376\n        /* \"#utility.yul\":11965:11969   */\n      dup2\n        /* \"#utility.yul\":11839:11970   */\n      tag_250\n      jump\t// in\n    tag_376:\n        /* \"#utility.yul\":11831:11970   */\n      swap1\n      pop\n        /* \"#utility.yul\":11558:11977   */\n      swap2\n      swap1\n      pop\n      jump\t// out\n        /* \"#utility.yul\":11983:12393   */\n    tag_106:\n        /* \"#utility.yul\":12023:12030   */\n      0x00\n        /* \"#utility.yul\":12046:12066   */\n      tag_378\n        /* \"#utility.yul\":12064:12065   */\n      dup3\n        /* \"#utility.yul\":12046:12066   */\n      tag_222\n      jump\t// in\n    tag_378:\n        /* \"#utility.yul\":12041:12066   */\n      swap2\n      pop\n        /* \"#utility.yul\":12080:12100   */\n      tag_379\n        /* \"#utility.yul\":12098:12099   */\n      dup4\n        /* \"#utility.yul\":12080:12100   */\n      tag_222\n      jump\t// in\n    tag_379:\n        /* \"#utility.yul\":12075:12100   */\n      swap3\n      pop\n        /* \"#utility.yul\":12135:12136   */\n      dup3\n        /* \"#utility.yul\":12132:12133   */\n      dup3\n        /* \"#utility.yul\":12128:12137   */\n      mul\n        /* \"#utility.yul\":12157:12187   */\n      tag_380\n        /* \"#utility.yul\":12175:12186   */\n      dup2\n        /* \"#utility.yul\":12157:12187   */\n      tag_222\n      jump\t// in\n    tag_380:\n        /* \"#utility.yul\":12146:12187   */\n      swap2\n      pop\n        /* \"#utility.yul\":12336:12337   */\n      dup3\n        /* \"#utility.yul\":12327:12334   */\n      dup3\n        /* \"#utility.yul\":12323:12338   */\n      div\n        /* \"#utility.yul\":12320:12321   */\n      dup5\n        /* \"#utility.yul\":12317:12339   */\n      eq\n        /* \"#utility.yul\":12297:12298   */\n      dup4\n        /* \"#utility.yul\":12290:12299   */\n      iszero\n        /* \"#utility.yul\":12270:12353   */\n      or\n        /* \"#utility.yul\":12247:12386   */\n      tag_381\n      jumpi\n        /* \"#utility.yul\":12366:12384   */\n      tag_382\n      tag_248\n      jump\t// in\n    tag_382:\n        /* \"#utility.yul\":12247:12386   */\n    tag_381:\n        /* \"#utility.yul\":12031:12393   */\n      pop\n        /* \"#utility.yul\":11983:12393   */\n      swap3\n      swap2\n      pop\n      pop\n      jump\t// out\n        /* \"#utility.yul\":12399:12593   */\n    tag_109:\n        /* \"#utility.yul\":12439:12443   */\n      0x00\n        /* \"#utility.yul\":12459:12479   */\n      tag_384\n        /* \"#utility.yul\":12477:12478   */\n      dup3\n        /* \"#utility.yul\":12459:12479   */\n      tag_222\n      jump\t// in\n    tag_384:\n        /* \"#utility.yul\":12454:12479   */\n      swap2\n      pop\n        /* \"#utility.yul\":12493:12513   */\n      tag_385\n        /* \"#utility.yul\":12511:12512   */\n      dup4\n        /* \"#utility.yul\":12493:12513   */\n      tag_222\n      jump\t// in\n    tag_385:\n        /* \"#utility.yul\":12488:12513   */\n      swap3\n      pop\n        /* \"#utility.yul\":12537:12538   */\n      dup3\n        /* \"#utility.yul\":12534:12535   */\n      dup3\n        /* \"#utility.yul\":12530:12539   */\n      sub\n        /* \"#utility.yul\":12522:12539   */\n      swap1\n      pop\n        /* \"#utility.yul\":12561:12562   */\n      dup2\n        /* \"#utility.yul\":12555:12559   */\n      dup2\n        /* \"#utility.yul\":12552:12563   */\n      gt\n        /* \"#utility.yul\":12549:12586   */\n      iszero\n      tag_386\n      jumpi\n        /* \"#utility.yul\":12566:12584   */\n      tag_387\n      tag_248\n      jump\t// in\n    tag_387:\n        /* \"#utility.yul\":12549:12586   */\n    tag_386:\n        /* \"#utility.yul\":12399:12593   */\n      swap3\n      swap2\n      pop\n      pop\n      jump\t// out\n        /* \"#utility.yul\":12599:12759   */\n    tag_251:\n        /* \"#utility.yul\":12739:12751   */\n      0x746f6b656e207a65726f00000000000000000000000000000000000000000000\n        /* \"#utility.yul\":12735:12736   */\n      0x00\n        /* \"#utility.yul\":12727:12733   */\n      dup3\n        /* \"#utility.yul\":12723:12737   */\n      add\n        /* \"#utility.yul\":12716:12752   */\n      mstore\n        /* \"#utility.yul\":12599:12759   */\n      pop\n      jump\t// out\n        /* \"#utility.yul\":12765:13131   */\n    tag_252:\n        /* \"#utility.yul\":12907:12910   */\n      0x00\n        /* \"#utility.yul\":12928:12995   */\n      tag_390\n        /* \"#utility.yul\":12992:12994   */\n      0x0a\n        /* \"#utility.yul\":12987:12990   */\n      dup4\n        /* \"#utility.yul\":12928:12995   */\n      tag_240\n      jump\t// in\n    tag_390:\n        /* \"#utility.yul\":12921:12995   */\n      swap2\n      pop\n        /* \"#utility.yul\":13004:13097   */\n      tag_391\n        /* \"#utility.yul\":13093:13096   */\n      dup3\n        /* \"#utility.yul\":13004:13097   */\n      tag_251\n      jump\t// in\n    tag_391:\n        /* \"#utility.yul\":13122:13124   */\n      0x20\n        /* \"#utility.yul\":13117:13120   */\n      dup3\n        /* \"#utility.yul\":13113:13125   */\n      add\n        /* \"#utility.yul\":13106:13125   */\n      swap1\n      pop\n        /* \"#utility.yul\":12765:13131   */\n      swap2\n      swap1\n      pop\n      jump\t// out\n        /* \"#utility.yul\":13137:13556   */\n    tag_124:\n        /* \"#utility.yul\":13303:13307   */\n      0x00\n        /* \"#utility.yul\":13341:13343   */\n      0x20\n        /* \"#utility.yul\":13330:13339   */\n      dup3\n        /* \"#utility.yul\":13326:13344   */\n      add\n        /* \"#utility.yul\":13318:13344   */\n      swap1\n      pop\n        /* \"#utility.yul\":13390:13399   */\n      dup2\n        /* \"#utility.yul\":13384:13388   */\n      dup2\n        /* \"#utility.yul\":13380:13400   */\n      sub\n        /* \"#utility.yul\":13376:13377   */\n      0x00\n        /* \"#utility.yul\":13365:13374   */\n      dup4\n        /* \"#utility.yul\":13361:13378   */\n      add\n        /* \"#utility.yul\":13354:13401   */\n      mstore\n        /* \"#utility.yul\":13418:13549   */\n      tag_393\n        /* \"#utility.yul\":13544:13548   */\n      dup2\n        /* \"#utility.yul\":13418:13549   */\n      tag_252\n      jump\t// in\n    tag_393:\n        /* \"#utility.yul\":13410:13549   */\n      swap1\n      pop\n        /* \"#utility.yul\":13137:13556   */\n      swap2\n      swap1\n      pop\n      jump\t// out\n        /* \"#utility.yul\":13562:13725   */\n    tag_253:\n        /* \"#utility.yul\":13702:13717   */\n      0x6665654270733c3d313030303000000000000000000000000000000000000000\n        /* \"#utility.yul\":13698:13699   */\n      0x00\n        /* \"#utility.yul\":13690:13696   */\n      dup3\n        /* \"#utility.yul\":13686:13700   */\n      add\n        /* \"#utility.yul\":13679:13718   */\n      mstore\n        /* \"#utility.yul\":13562:13725   */\n      pop\n      jump\t// out\n        /* \"#utility.yul\":13731:14097   */\n    tag_254:\n        /* \"#utility.yul\":13873:13876   */\n      0x00\n        /* \"#utility.yul\":13894:13961   */\n      tag_396\n        /* \"#utility.yul\":13958:13960   */\n      0x0d\n        /* \"#utility.yul\":13953:13956   */\n      dup4\n        /* \"#utility.yul\":13894:13961   */\n      tag_240\n      jump\t// in\n    tag_396:\n        /* \"#utility.yul\":13887:13961   */\n      swap2\n      pop\n        /* \"#utility.yul\":13970:14063   */\n      tag_397\n        /* \"#utility.yul\":14059:14062   */\n      dup3\n        /* \"#utility.yul\":13970:14063   */\n      tag_253\n      jump\t// in\n    tag_397:\n        /* \"#utility.yul\":14088:14090   */\n      0x20\n        /* \"#utility.yul\":14083:14086   */\n      dup3\n        /* \"#utility.yul\":14079:14091   */\n      add\n        /* \"#utility.yul\":14072:14091   */\n      swap1\n      pop\n        /* \"#utility.yul\":13731:14097   */\n      swap2\n      swap1\n      pop\n      jump\t// out\n        /* \"#utility.yul\":14103:14522   */\n    tag_138:\n        /* \"#utility.yul\":14269:14273   */\n      0x00\n        /* \"#utility.yul\":14307:14309   */\n      0x20\n        /* \"#utility.yul\":14296:14305   */\n      dup3\n        /* \"#utility.yul\":14292:14310   */\n      add\n        /* \"#utility.yul\":14284:14310   */\n      swap1\n      pop\n        /* \"#utility.yul\":14356:14365   */\n      dup2\n        /* \"#utility.yul\":14350:14354   */\n      dup2\n        /* \"#utility.yul\":14346:14366   */\n      sub\n        /* \"#utility.yul\":14342:14343   */\n      0x00\n        /* \"#utility.yul\":14331:14340   */\n      dup4\n        /* \"#utility.yul\":14327:14344   */\n      add\n        /* \"#utility.yul\":14320:14367   */\n      mstore\n        /* \"#utility.yul\":14384:14515   */\n      tag_399\n        /* \"#utility.yul\":14510:14514   */\n      dup2\n        /* \"#utility.yul\":14384:14515   */\n      tag_254\n      jump\t// in\n    tag_399:\n        /* \"#utility.yul\":14376:14515   */\n      swap1\n      pop\n        /* \"#utility.yul\":14103:14522   */\n      swap2\n      swap1\n      pop\n      jump\t// out\n        /* \"#utility.yul\":14528:14860   */\n    tag_140:\n        /* \"#utility.yul\":14649:14653   */\n      0x00\n        /* \"#utility.yul\":14687:14689   */\n      0x40\n        /* \"#utility.yul\":14676:14685   */\n      dup3\n        /* \"#utility.yul\":14672:14690   */\n      add\n        /* \"#utility.yul\":14664:14690   */\n      swap1\n      pop\n        /* \"#utility.yul\":14700:14771   */\n      tag_401\n        /* \"#utility.yul\":14768:14769   */\n      0x00\n        /* \"#utility.yul\":14757:14766   */\n      dup4\n        /* \"#utility.yul\":14753:14770   */\n      add\n        /* \"#utility.yul\":14744:14750   */\n      dup6\n        /* \"#utility.yul\":14700:14771   */\n      tag_223\n      jump\t// in\n    tag_401:\n        /* \"#utility.yul\":14781:14853   */\n      tag_402\n        /* \"#utility.yul\":14849:14851   */\n      0x20\n        /* \"#utility.yul\":14838:14847   */\n      dup4\n        /* \"#utility.yul\":14834:14852   */\n      add\n        /* \"#utility.yul\":14825:14831   */\n      dup5\n        /* \"#utility.yul\":14781:14853   */\n      tag_223\n      jump\t// in\n    tag_402:\n        /* \"#utility.yul\":14528:14860   */\n      swap4\n      swap3\n      pop\n      pop\n      pop\n      jump\t// out\n        /* \"#utility.yul\":14866:15035   */\n    tag_255:\n        /* \"#utility.yul\":15006:15027   */\n      0x696e73756666696369656e74206e617469766500000000000000000000000000\n        /* \"#utility.yul\":15002:15003   */\n      0x00\n        /* \"#utility.yul\":14994:15000   */\n      dup3\n        /* \"#utility.yul\":14990:15004   */\n      add\n        /* \"#utility.yul\":14983:15028   */\n      mstore\n        /* \"#utility.yul\":14866:15035   */\n      pop\n      jump\t// out\n        /* \"#utility.yul\":15041:15407   */\n    tag_256:\n        /* \"#utility.yul\":15183:15186   */\n      0x00\n        /* \"#utility.yul\":15204:15271   */\n      tag_405\n        /* \"#utility.yul\":15268:15270   */\n      0x13\n        /* \"#utility.yul\":15263:15266   */\n      dup4\n        /* \"#utility.yul\":15204:15271   */\n      tag_240\n      jump\t// in\n    tag_405:\n        /* \"#utility.yul\":15197:15271   */\n      swap2\n      pop\n        /* \"#utility.yul\":15280:15373   */\n      tag_406\n        /* \"#utility.yul\":15369:15372   */\n      dup3\n        /* \"#utility.yul\":15280:15373   */\n      tag_255\n      jump\t// in\n    tag_406:\n        /* \"#utility.yul\":15398:15400   */\n      0x20\n        /* \"#utility.yul\":15393:15396   */\n      dup3\n        /* \"#utility.yul\":15389:15401   */\n      add\n        /* \"#utility.yul\":15382:15401   */\n      swap1\n      pop\n        /* \"#utility.yul\":15041:15407   */\n      swap2\n      swap1\n      pop\n      jump\t// out\n        /* \"#utility.yul\":15413:15832   */\n    tag_146:\n        /* \"#utility.yul\":15579:15583   */\n      0x00\n        /* \"#utility.yul\":15617:15619   */\n      0x20\n        /* \"#utility.yul\":15606:15615   */\n      dup3\n        /* \"#utility.yul\":15602:15620   */\n      add\n        /* \"#utility.yul\":15594:15620   */\n      swap1\n      pop\n        /* \"#utility.yul\":15666:15675   */\n      dup2\n        /* \"#utility.yul\":15660:15664   */\n      dup2\n        /* \"#utility.yul\":15656:15676   */\n      sub\n        /* \"#utility.yul\":15652:15653   */\n      0x00\n        /* \"#utility.yul\":15641:15650   */\n      dup4\n        /* \"#utility.yul\":15637:15654   */\n      add\n        /* \"#utility.yul\":15630:15677   */\n      mstore\n        /* \"#utility.yul\":15694:15825   */\n      tag_408\n        /* \"#utility.yul\":15820:15824   */\n      dup2\n        /* \"#utility.yul\":15694:15825   */\n      tag_256\n      jump\t// in\n    tag_408:\n        /* \"#utility.yul\":15686:15825   */\n      swap1\n      pop\n        /* \"#utility.yul\":15413:15832   */\n      swap2\n      swap1\n      pop\n      jump\t// out\n        /* \"#utility.yul\":15838:15996   */\n    tag_257:\n        /* \"#utility.yul\":15978:15988   */\n      0x616d6f756e743e30000000000000000000000000000000000000000000000000\n        /* \"#utility.yul\":15974:15975   */\n      0x00\n        /* \"#utility.yul\":15966:15972   */\n      dup3\n        /* \"#utility.yul\":15962:15976   */\n      add\n        /* \"#utility.yul\":15955:15989   */\n      mstore\n        /* \"#utility.yul\":15838:15996   */\n      pop\n      jump\t// out\n        /* \"#utility.yul\":16002:16367   */\n    tag_258:\n        /* \"#utility.yul\":16144:16147   */\n      0x00\n        /* \"#utility.yul\":16165:16231   */\n      tag_411\n        /* \"#utility.yul\":16229:16230   */\n      0x08\n        /* \"#utility.yul\":16224:16227   */\n      dup4\n        /* \"#utility.yul\":16165:16231   */\n      tag_240\n      jump\t// in\n    tag_411:\n        /* \"#utility.yul\":16158:16231   */\n      swap2\n      pop\n        /* \"#utility.yul\":16240:16333   */\n      tag_412\n        /* \"#utility.yul\":16329:16332   */\n      dup3\n        /* \"#utility.yul\":16240:16333   */\n      tag_257\n      jump\t// in\n    tag_412:\n        /* \"#utility.yul\":16358:16360   */\n      0x20\n        /* \"#utility.yul\":16353:16356   */\n      dup3\n        /* \"#utility.yul\":16349:16361   */\n      add\n        /* \"#utility.yul\":16342:16361   */\n      swap1\n      pop\n        /* \"#utility.yul\":16002:16367   */\n      swap2\n      swap1\n      pop\n      jump\t// out\n        /* \"#utility.yul\":16373:16792   */\n    tag_157:\n        /* \"#utility.yul\":16539:16543   */\n      0x00\n        /* \"#utility.yul\":16577:16579   */\n      0x20\n        /* \"#utility.yul\":16566:16575   */\n      dup3\n        /* \"#utility.yul\":16562:16580   */\n      add\n        /* \"#utility.yul\":16554:16580   */\n      swap1\n      pop\n        /* \"#utility.yul\":16626:16635   */\n      dup2\n        /* \"#utility.yul\":16620:16624   */\n      dup2\n        /* \"#utility.yul\":16616:16636   */\n      sub\n        /* \"#utility.yul\":16612:16613   */\n      0x00\n        /* \"#utility.yul\":16601:16610   */\n      dup4\n        /* \"#utility.yul\":16597:16614   */\n      add\n        /* \"#utility.yul\":16590:16637   */\n      mstore\n        /* \"#utility.yul\":16654:16785   */\n      tag_414\n        /* \"#utility.yul\":16780:16784   */\n      dup2\n        /* \"#utility.yul\":16654:16785   */\n      tag_258\n      jump\t// in\n    tag_414:\n        /* \"#utility.yul\":16646:16785   */\n      swap1\n      pop\n        /* \"#utility.yul\":16373:16792   */\n      swap2\n      swap1\n      pop\n      jump\t// out\n        /* \"#utility.yul\":16798:16962   */\n    tag_259:\n        /* \"#utility.yul\":16938:16954   */\n      0x726563697069656e74207a65726f000000000000000000000000000000000000\n        /* \"#utility.yul\":16934:16935   */\n      0x00\n        /* \"#utility.yul\":16926:16932   */\n      dup3\n        /* \"#utility.yul\":16922:16936   */\n      add\n        /* \"#utility.yul\":16915:16955   */\n      mstore\n        /* \"#utility.yul\":16798:16962   */\n      pop\n      jump\t// out\n        /* \"#utility.yul\":16968:17334   */\n    tag_260:\n        /* \"#utility.yul\":17110:17113   */\n      0x00\n        /* \"#utility.yul\":17131:17198   */\n      tag_417\n        /* \"#utility.yul\":17195:17197   */\n      0x0e\n        /* \"#utility.yul\":17190:17193   */\n      dup4\n        /* \"#utility.yul\":17131:17198   */\n      tag_240\n      jump\t// in\n    tag_417:\n        /* \"#utility.yul\":17124:17198   */\n      swap2\n      pop\n        /* \"#utility.yul\":17207:17300   */\n      tag_418\n        /* \"#utility.yul\":17296:17299   */\n      dup3\n        /* \"#utility.yul\":17207:17300   */\n      tag_259\n      jump\t// in\n    tag_418:\n        /* \"#utility.yul\":17325:17327   */\n      0x20\n        /* \"#utility.yul\":17320:17323   */\n      dup3\n        /* \"#utility.yul\":17316:17328   */\n      add\n        /* \"#utility.yul\":17309:17328   */\n      swap1\n      pop\n        /* \"#utility.yul\":16968:17334   */\n      swap2\n      swap1\n      pop\n      jump\t// out\n        /* \"#utility.yul\":17340:17759   */\n    tag_160:\n        /* \"#utility.yul\":17506:17510   */\n      0x00\n        /* \"#utility.yul\":17544:17546   */\n      0x20\n        /* \"#utility.yul\":17533:17542   */\n      dup3\n        /* \"#utility.yul\":17529:17547   */\n      add\n        /* \"#utility.yul\":17521:17547   */\n      swap1\n      pop\n        /* \"#utility.yul\":17593:17602   */\n      dup2\n        /* \"#utility.yul\":17587:17591   */\n      dup2\n        /* \"#utility.yul\":17583:17603   */\n      sub\n        /* \"#utility.yul\":17579:17580   */\n      0x00\n        /* \"#utility.yul\":17568:17577   */\n      dup4\n        /* \"#utility.yul\":17564:17581   */\n      add\n        /* \"#utility.yul\":17557:17604   */\n      mstore\n        /* \"#utility.yul\":17621:17752   */\n      tag_420\n        /* \"#utility.yul\":17747:17751   */\n      dup2\n        /* \"#utility.yul\":17621:17752   */\n      tag_260\n      jump\t// in\n    tag_420:\n        /* \"#utility.yul\":17613:17752   */\n      swap1\n      pop\n        /* \"#utility.yul\":17340:17759   */\n      swap2\n      swap1\n      pop\n      jump\t// out\n        /* \"#utility.yul\":17765:17956   */\n    tag_162:\n        /* \"#utility.yul\":17805:17808   */\n      0x00\n        /* \"#utility.yul\":17824:17844   */\n      tag_422\n        /* \"#utility.yul\":17842:17843   */\n      dup3\n        /* \"#utility.yul\":17824:17844   */\n      tag_222\n      jump\t// in\n    tag_422:\n        /* \"#utility.yul\":17819:17844   */\n      swap2\n      pop\n        /* \"#utility.yul\":17858:17878   */\n      tag_423\n        /* \"#utility.yul\":17876:17877   */\n      dup4\n        /* \"#utility.yul\":17858:17878   */\n      tag_222\n      jump\t// in\n    tag_423:\n        /* \"#utility.yul\":17853:17878   */\n      swap3\n      pop\n        /* \"#utility.yul\":17901:17902   */\n      dup3\n        /* \"#utility.yul\":17898:17899   */\n      dup3\n        /* \"#utility.yul\":17894:17903   */\n      add\n        /* \"#utility.yul\":17887:17903   */\n      swap1\n      pop\n        /* \"#utility.yul\":17922:17925   */\n      dup1\n        /* \"#utility.yul\":17919:17920   */\n      dup3\n        /* \"#utility.yul\":17916:17926   */\n      gt\n        /* \"#utility.yul\":17913:17949   */\n      iszero\n      tag_424\n      jumpi\n        /* \"#utility.yul\":17929:17947   */\n      tag_425\n      tag_248\n      jump\t// in\n    tag_425:\n        /* \"#utility.yul\":17913:17949   */\n    tag_424:\n        /* \"#utility.yul\":17765:17956   */\n      swap3\n      swap2\n      pop\n      pop\n      jump\t// out\n        /* \"#utility.yul\":17962:18136   */\n    tag_261:\n        /* \"#utility.yul\":18102:18128   */\n      0x756e6c6f636b54696d657374616d7020746f6f20736f6f6e0000000000000000\n        /* \"#utility.yul\":18098:18099   */\n      0x00\n        /* \"#utility.yul\":18090:18096   */\n      dup3\n        /* \"#utility.yul\":18086:18100   */\n      add\n        /* \"#utility.yul\":18079:18129   */\n      mstore\n        /* \"#utility.yul\":17962:18136   */\n      pop\n      jump\t// out\n        /* \"#utility.yul\":18142:18508   */\n    tag_262:\n        /* \"#utility.yul\":18284:18287   */\n      0x00\n        /* \"#utility.yul\":18305:18372   */\n      tag_428\n        /* \"#utility.yul\":18369:18371   */\n      0x18\n        /* \"#utility.yul\":18364:18367   */\n      dup4\n        /* \"#utility.yul\":18305:18372   */\n      tag_240\n      jump\t// in\n    tag_428:\n        /* \"#utility.yul\":18298:18372   */\n      swap2\n      pop\n        /* \"#utility.yul\":18381:18474   */\n      tag_429\n        /* \"#utility.yul\":18470:18473   */\n      dup3\n        /* \"#utility.yul\":18381:18474   */\n      tag_261\n      jump\t// in\n    tag_429:\n        /* \"#utility.yul\":18499:18501   */\n      0x20\n        /* \"#utility.yul\":18494:18497   */\n      dup3\n        /* \"#utility.yul\":18490:18502   */\n      add\n        /* \"#utility.yul\":18483:18502   */\n      swap1\n      pop\n        /* \"#utility.yul\":18142:18508   */\n      swap2\n      swap1\n      pop\n      jump\t// out\n        /* \"#utility.yul\":18514:18933   */\n    tag_165:\n        /* \"#utility.yul\":18680:18684   */\n      0x00\n        /* \"#utility.yul\":18718:18720   */\n      0x20\n        /* \"#utility.yul\":18707:18716   */\n      dup3\n        /* \"#utility.yul\":18703:18721   */\n      add\n        /* \"#utility.yul\":18695:18721   */\n      swap1\n      pop\n        /* \"#utility.yul\":18767:18776   */\n      dup2\n        /* \"#utility.yul\":18761:18765   */\n      dup2\n        /* \"#utility.yul\":18757:18777   */\n      sub\n        /* \"#utility.yul\":18753:18754   */\n      0x00\n        /* \"#utility.yul\":18742:18751   */\n      dup4\n        /* \"#utility.yul\":18738:18755   */\n      add\n        /* \"#utility.yul\":18731:18778   */\n      mstore\n        /* \"#utility.yul\":18795:18926   */\n      tag_431\n        /* \"#utility.yul\":18921:18925   */\n      dup2\n        /* \"#utility.yul\":18795:18926   */\n      tag_262\n      jump\t// in\n    tag_431:\n        /* \"#utility.yul\":18787:18926   */\n      swap1\n      pop\n        /* \"#utility.yul\":18514:18933   */\n      swap2\n      swap1\n      pop\n      jump\t// out\n        /* \"#utility.yul\":18939:19082   */\n    tag_263:\n        /* \"#utility.yul\":18996:19001   */\n      0x00\n        /* \"#utility.yul\":19027:19033   */\n      dup2\n        /* \"#utility.yul\":19021:19034   */\n      mload\n        /* \"#utility.yul\":19012:19034   */\n      swap1\n      pop\n        /* \"#utility.yul\":19043:19076   */\n      tag_433\n        /* \"#utility.yul\":19070:19075   */\n      dup2\n        /* \"#utility.yul\":19043:19076   */\n      tag_227\n      jump\t// in\n    tag_433:\n        /* \"#utility.yul\":18939:19082   */\n      swap3\n      swap2\n      pop\n      pop\n      jump\t// out\n        /* \"#utility.yul\":19088:19439   */\n    tag_170:\n        /* \"#utility.yul\":19158:19164   */\n      0x00\n        /* \"#utility.yul\":19207:19209   */\n      0x20\n        /* \"#utility.yul\":19195:19204   */\n      dup3\n        /* \"#utility.yul\":19186:19193   */\n      dup5\n        /* \"#utility.yul\":19182:19205   */\n      sub\n        /* \"#utility.yul\":19178:19210   */\n      slt\n        /* \"#utility.yul\":19175:19294   */\n      iszero\n      tag_435\n      jumpi\n        /* \"#utility.yul\":19213:19292   */\n      tag_436\n      tag_225\n      jump\t// in\n    tag_436:\n        /* \"#utility.yul\":19175:19294   */\n    tag_435:\n        /* \"#utility.yul\":19333:19334   */\n      0x00\n        /* \"#utility.yul\":19358:19422   */\n      tag_437\n        /* \"#utility.yul\":19414:19421   */\n      dup5\n        /* \"#utility.yul\":19405:19411   */\n      dup3\n        /* \"#utility.yul\":19394:19403   */\n      dup6\n        /* \"#utility.yul\":19390:19412   */\n      add\n        /* \"#utility.yul\":19358:19422   */\n      tag_263\n      jump\t// in\n    tag_437:\n        /* \"#utility.yul\":19348:19422   */\n      swap2\n      pop\n        /* \"#utility.yul\":19304:19432   */\n      pop\n        /* \"#utility.yul\":19088:19439   */\n      swap3\n      swap2\n      pop\n      pop\n      jump\t// out\n        /* \"#utility.yul\":19445:19617   */\n    tag_264:\n        /* \"#utility.yul\":19585:19609   */\n      0x62616c616e6365206166746572203c206265666f726500000000000000000000\n        /* \"#utility.yul\":19581:19582   */\n      0x00\n        /* \"#utility.yul\":19573:19579   */\n      dup3\n        /* \"#utility.yul\":19569:19583   */\n      add\n        /* \"#utility.yul\":19562:19610   */\n      mstore\n        /* \"#utility.yul\":19445:19617   */\n      pop\n      jump\t// out\n        /* \"#utility.yul\":19623:19989   */\n    tag_265:\n        /* \"#utility.yul\":19765:19768   */\n      0x00\n        /* \"#utility.yul\":19786:19853   */\n      tag_440\n        /* \"#utility.yul\":19850:19852   */\n      0x16\n        /* \"#utility.yul\":19845:19848   */\n      dup4\n        /* \"#utility.yul\":19786:19853   */\n      tag_240\n      jump\t// in\n    tag_440:\n        /* \"#utility.yul\":19779:19853   */\n      swap2\n      pop\n        /* \"#utility.yul\":19862:19955   */\n      tag_441\n        /* \"#utility.yul\":19951:19954   */\n      dup3\n        /* \"#utility.yul\":19862:19955   */\n      tag_264\n      jump\t// in\n    tag_441:\n        /* \"#utility.yul\":19980:19982   */\n      0x20\n        /* \"#utility.yul\":19975:19978   */\n      dup3\n        /* \"#utility.yul\":19971:19983   */\n      add\n        /* \"#utility.yul\":19964:19983   */\n      swap1\n      pop\n        /* \"#utility.yul\":19623:19989   */\n      swap2\n      swap1\n      pop\n      jump\t// out\n        /* \"#utility.yul\":19995:20414   */\n    tag_179:\n        /* \"#utility.yul\":20161:20165   */\n      0x00\n        /* \"#utility.yul\":20199:20201   */\n      0x20\n        /* \"#utility.yul\":20188:20197   */\n      dup3\n        /* \"#utility.yul\":20184:20202   */\n      add\n        /* \"#utility.yul\":20176:20202   */\n      swap1\n      pop\n        /* \"#utility.yul\":20248:20257   */\n      dup2\n        /* \"#utility.yul\":20242:20246   */\n      dup2\n        /* \"#utility.yul\":20238:20258   */\n      sub\n        /* \"#utility.yul\":20234:20235   */\n      0x00\n        /* \"#utility.yul\":20223:20232   */\n      dup4\n        /* \"#utility.yul\":20219:20236   */\n      add\n        /* \"#utility.yul\":20212:20259   */\n      mstore\n        /* \"#utility.yul\":20276:20407   */\n      tag_443\n        /* \"#utility.yul\":20402:20406   */\n      dup2\n        /* \"#utility.yul\":20276:20407   */\n      tag_265\n      jump\t// in\n    tag_443:\n        /* \"#utility.yul\":20268:20407   */\n      swap1\n      pop\n        /* \"#utility.yul\":19995:20414   */\n      swap2\n      swap1\n      pop\n      jump\t// out\n        /* \"#utility.yul\":20420:20583   */\n    tag_266:\n        /* \"#utility.yul\":20560:20575   */\n      0x7265636569766564207a65726f00000000000000000000000000000000000000\n        /* \"#utility.yul\":20556:20557   */\n      0x00\n        /* \"#utility.yul\":20548:20554   */\n      dup3\n        /* \"#utility.yul\":20544:20558   */\n      add\n        /* \"#utility.yul\":20537:20576   */\n      mstore\n        /* \"#utility.yul\":20420:20583   */\n      pop\n      jump\t// out\n        /* \"#utility.yul\":20589:20955   */\n    tag_267:\n        /* \"#utility.yul\":20731:20734   */\n      0x00\n        /* \"#utility.yul\":20752:20819   */\n      tag_446\n        /* \"#utility.yul\":20816:20818   */\n      0x0d\n        /* \"#utility.yul\":20811:20814   */\n      dup4\n        /* \"#utility.yul\":20752:20819   */\n      tag_240\n      jump\t// in\n    tag_446:\n        /* \"#utility.yul\":20745:20819   */\n      swap2\n      pop\n        /* \"#utility.yul\":20828:20921   */\n      tag_447\n        /* \"#utility.yul\":20917:20920   */\n      dup3\n        /* \"#utility.yul\":20828:20921   */\n      tag_266\n      jump\t// in\n    tag_447:\n        /* \"#utility.yul\":20946:20948   */\n      0x20\n        /* \"#utility.yul\":20941:20944   */\n      dup3\n        /* \"#utility.yul\":20937:20949   */\n      add\n        /* \"#utility.yul\":20930:20949   */\n      swap1\n      pop\n        /* \"#utility.yul\":20589:20955   */\n      swap2\n      swap1\n      pop\n      jump\t// out\n        /* \"#utility.yul\":20961:21380   */\n    tag_183:\n        /* \"#utility.yul\":21127:21131   */\n      0x00\n        /* \"#utility.yul\":21165:21167   */\n      0x20\n        /* \"#utility.yul\":21154:21163   */\n      dup3\n        /* \"#utility.yul\":21150:21168   */\n      add\n        /* \"#utility.yul\":21142:21168   */\n      swap1\n      pop\n        /* \"#utility.yul\":21214:21223   */\n      dup2\n        /* \"#utility.yul\":21208:21212   */\n      dup2\n        /* \"#utility.yul\":21204:21224   */\n      sub\n        /* \"#utility.yul\":21200:21201   */\n      0x00\n        /* \"#utility.yul\":21189:21198   */\n      dup4\n        /* \"#utility.yul\":21185:21202   */\n      add\n        /* \"#utility.yul\":21178:21225   */\n      mstore\n        /* \"#utility.yul\":21242:21373   */\n      tag_449\n        /* \"#utility.yul\":21368:21372   */\n      dup2\n        /* \"#utility.yul\":21242:21373   */\n      tag_267\n      jump\t// in\n    tag_449:\n        /* \"#utility.yul\":21234:21373   */\n      swap1\n      pop\n        /* \"#utility.yul\":20961:21380   */\n      swap2\n      swap1\n      pop\n      jump\t// out\n        /* \"#utility.yul\":21386:21939   */\n    tag_186:\n        /* \"#utility.yul\":21563:21567   */\n      0x00\n        /* \"#utility.yul\":21601:21604   */\n      0x80\n        /* \"#utility.yul\":21590:21599   */\n      dup3\n        /* \"#utility.yul\":21586:21605   */\n      add\n        /* \"#utility.yul\":21578:21605   */\n      swap1\n      pop\n        /* \"#utility.yul\":21615:21686   */\n      tag_451\n        /* \"#utility.yul\":21683:21684   */\n      0x00\n        /* \"#utility.yul\":21672:21681   */\n      dup4\n        /* \"#utility.yul\":21668:21685   */\n      add\n        /* \"#utility.yul\":21659:21665   */\n      dup8\n        /* \"#utility.yul\":21615:21686   */\n      tag_238\n      jump\t// in\n    tag_451:\n        /* \"#utility.yul\":21696:21768   */\n      tag_452\n        /* \"#utility.yul\":21764:21766   */\n      0x20\n        /* \"#utility.yul\":21753:21762   */\n      dup4\n        /* \"#utility.yul\":21749:21767   */\n      add\n        /* \"#utility.yul\":21740:21746   */\n      dup7\n        /* \"#utility.yul\":21696:21768   */\n      tag_223\n      jump\t// in\n    tag_452:\n        /* \"#utility.yul\":21778:21850   */\n      tag_453\n        /* \"#utility.yul\":21846:21848   */\n      0x40\n        /* \"#utility.yul\":21835:21844   */\n      dup4\n        /* \"#utility.yul\":21831:21849   */\n      add\n        /* \"#utility.yul\":21822:21828   */\n      dup6\n        /* \"#utility.yul\":21778:21850   */\n      tag_223\n      jump\t// in\n    tag_453:\n        /* \"#utility.yul\":21860:21932   */\n      tag_454\n        /* \"#utility.yul\":21928:21930   */\n      0x60\n        /* \"#utility.yul\":21917:21926   */\n      dup4\n        /* \"#utility.yul\":21913:21931   */\n      add\n        /* \"#utility.yul\":21904:21910   */\n      dup5\n        /* \"#utility.yul\":21860:21932   */\n      tag_223\n      jump\t// in\n    tag_454:\n        /* \"#utility.yul\":21386:21939   */\n      swap6\n      swap5\n      pop\n      pop\n      pop\n      pop\n      pop\n      jump\t// out\n        /* \"#utility.yul\":21945:22126   */\n    tag_268:\n        /* \"#utility.yul\":22085:22118   */\n      0x5265656e7472616e637947756172643a207265656e7472616e742063616c6c00\n        /* \"#utility.yul\":22081:22082   */\n      0x00\n        /* \"#utility.yul\":22073:22079   */\n      dup3\n        /* \"#utility.yul\":22069:22083   */\n      add\n        /* \"#utility.yul\":22062:22119   */\n      mstore\n        /* \"#utility.yul\":21945:22126   */\n      pop\n      jump\t// out\n        /* \"#utility.yul\":22132:22498   */\n    tag_269:\n        /* \"#utility.yul\":22274:22277   */\n      0x00\n        /* \"#utility.yul\":22295:22362   */\n      tag_457\n        /* \"#utility.yul\":22359:22361   */\n      0x1f\n        /* \"#utility.yul\":22354:22357   */\n      dup4\n        /* \"#utility.yul\":22295:22362   */\n      tag_240\n      jump\t// in\n    tag_457:\n        /* \"#utility.yul\":22288:22362   */\n      swap2\n      pop\n        /* \"#utility.yul\":22371:22464   */\n      tag_458\n        /* \"#utility.yul\":22460:22463   */\n      dup3\n        /* \"#utility.yul\":22371:22464   */\n      tag_268\n      jump\t// in\n    tag_458:\n        /* \"#utility.yul\":22489:22491   */\n      0x20\n        /* \"#utility.yul\":22484:22487   */\n      dup3\n        /* \"#utility.yul\":22480:22492   */\n      add\n        /* \"#utility.yul\":22473:22492   */\n      swap1\n      pop\n        /* \"#utility.yul\":22132:22498   */\n      swap2\n      swap1\n      pop\n      jump\t// out\n        /* \"#utility.yul\":22504:22923   */\n    tag_196:\n        /* \"#utility.yul\":22670:22674   */\n      0x00\n        /* \"#utility.yul\":22708:22710   */\n      0x20\n        /* \"#utility.yul\":22697:22706   */\n      dup3\n        /* \"#utility.yul\":22693:22711   */\n      add\n        /* \"#utility.yul\":22685:22711   */\n      swap1\n      pop\n        /* \"#utility.yul\":22757:22766   */\n      dup2\n        /* \"#utility.yul\":22751:22755   */\n      dup2\n        /* \"#utility.yul\":22747:22767   */\n      sub\n        /* \"#utility.yul\":22743:22744   */\n      0x00\n        /* \"#utility.yul\":22732:22741   */\n      dup4\n        /* \"#utility.yul\":22728:22745   */\n      add\n        /* \"#utility.yul\":22721:22768   */\n      mstore\n        /* \"#utility.yul\":22785:22916   */\n      tag_460\n        /* \"#utility.yul\":22911:22915   */\n      dup2\n        /* \"#utility.yul\":22785:22916   */\n      tag_269\n      jump\t// in\n    tag_460:\n        /* \"#utility.yul\":22777:22916   */\n      swap1\n      pop\n        /* \"#utility.yul\":22504:22923   */\n      swap2\n      swap1\n      pop\n      jump\t// out\n        /* \"#utility.yul\":22929:23261   */\n    tag_200:\n        /* \"#utility.yul\":23050:23054   */\n      0x00\n        /* \"#utility.yul\":23088:23090   */\n      0x40\n        /* \"#utility.yul\":23077:23086   */\n      dup3\n        /* \"#utility.yul\":23073:23091   */\n      add\n        /* \"#utility.yul\":23065:23091   */\n      swap1\n      pop\n        /* \"#utility.yul\":23101:23172   */\n      tag_462\n        /* \"#utility.yul\":23169:23170   */\n      0x00\n        /* \"#utility.yul\":23158:23167   */\n      dup4\n        /* \"#utility.yul\":23154:23171   */\n      add\n        /* \"#utility.yul\":23145:23151   */\n      dup6\n        /* \"#utility.yul\":23101:23172   */\n      tag_238\n      jump\t// in\n    tag_462:\n        /* \"#utility.yul\":23182:23254   */\n      tag_463\n        /* \"#utility.yul\":23250:23252   */\n      0x20\n        /* \"#utility.yul\":23239:23248   */\n      dup4\n        /* \"#utility.yul\":23235:23253   */\n      add\n        /* \"#utility.yul\":23226:23232   */\n      dup5\n        /* \"#utility.yul\":23182:23254   */\n      tag_223\n      jump\t// in\n    tag_463:\n        /* \"#utility.yul\":22929:23261   */\n      swap4\n      swap3\n      pop\n      pop\n      pop\n      jump\t// out\n        /* \"#utility.yul\":23267:23709   */\n    tag_214:\n        /* \"#utility.yul\":23416:23420   */\n      0x00\n        /* \"#utility.yul\":23454:23456   */\n      0x60\n        /* \"#utility.yul\":23443:23452   */\n      dup3\n        /* \"#utility.yul\":23439:23457   */\n      add\n        /* \"#utility.yul\":23431:23457   */\n      swap1\n      pop\n        /* \"#utility.yul\":23467:23538   */\n      tag_465\n        /* \"#utility.yul\":23535:23536   */\n      0x00\n        /* \"#utility.yul\":23524:23533   */\n      dup4\n        /* \"#utility.yul\":23520:23537   */\n      add\n        /* \"#utility.yul\":23511:23517   */\n      dup7\n        /* \"#utility.yul\":23467:23538   */\n      tag_238\n      jump\t// in\n    tag_465:\n        /* \"#utility.yul\":23548:23620   */\n      tag_466\n        /* \"#utility.yul\":23616:23618   */\n      0x20\n        /* \"#utility.yul\":23605:23614   */\n      dup4\n        /* \"#utility.yul\":23601:23619   */\n      add\n        /* \"#utility.yul\":23592:23598   */\n      dup6\n        /* \"#utility.yul\":23548:23620   */\n      tag_238\n      jump\t// in\n    tag_466:\n        /* \"#utility.yul\":23630:23702   */\n      tag_467\n        /* \"#utility.yul\":23698:23700   */\n      0x40\n        /* \"#utility.yul\":23687:23696   */\n      dup4\n        /* \"#utility.yul\":23683:23701   */\n      add\n        /* \"#utility.yul\":23674:23680   */\n      dup5\n        /* \"#utility.yul\":23630:23702   */\n      tag_223\n      jump\t// in\n    tag_467:\n        /* \"#utility.yul\":23267:23709   */\n      swap5\n      swap4\n      pop\n      pop\n      pop\n      pop\n      jump\t// out\n\n    auxdata: 0xa26469706673582212204e6977336490ee45ba508f451bd19e123c988a342b435631c655e70c69134d7864736f6c634300081e0033\n}\n",
				"bytecode": {
					"linkReferences": {},
					"object": "608060405234801561000f575f5ffd5b5060405161238a38038061238a8339818101604052810190610031919061020b565b335f73ffffffffffffffffffffffffffffffffffffffff168173ffffffffffffffffffffffffffffffffffffffff16036100a2575f6040517f1e4fbdf70000000000000000000000000000000000000000000000000000000081526004016100999190610275565b60405180910390fd5b6100b18161011360201b60201c565b50600180819055506127108111156100fe576040517f08c379a00000000000000000000000000000000000000000000000000000000081526004016100f5906102e8565b60405180910390fd5b80600281905550600160038190555050610306565b5f5f5f9054906101000a900473ffffffffffffffffffffffffffffffffffffffff169050815f5f6101000a81548173ffffffffffffffffffffffffffffffffffffffff021916908373ffffffffffffffffffffffffffffffffffffffff1602179055508173ffffffffffffffffffffffffffffffffffffffff168173ffffffffffffffffffffffffffffffffffffffff167f8be0079c531659141344cd1fd0a4f28419497f9722a3daafe3b4186f6b6457e060405160405180910390a35050565b5f5ffd5b5f819050919050565b6101ea816101d8565b81146101f4575f5ffd5b50565b5f81519050610205816101e1565b92915050565b5f602082840312156102205761021f6101d4565b5b5f61022d848285016101f7565b91505092915050565b5f73ffffffffffffffffffffffffffffffffffffffff82169050919050565b5f61025f82610236565b9050919050565b61026f81610255565b82525050565b5f6020820190506102885f830184610266565b92915050565b5f82825260208201905092915050565b7f6665654270733c3d3130303030000000000000000000000000000000000000005f82015250565b5f6102d2600d8361028e565b91506102dd8261029e565b602082019050919050565b5f6020820190508181035f8301526102ff816102c6565b9050919050565b612077806103135f395ff3fe6080604052600436106100aa575f3560e01c806372c27b621161006357806372c27b62146101a357806384276d81146101cb57806387d81789146101f35780638da5cb5b1461023657806390d2507414610260578063f2fde38b1461029c576100ab565b806324a9d853146100ad5780633280a836146100d757806337bdc99b1461011357806345d39b581461013b57806361b8ce8c14610163578063715018a61461018d576100ab565b5b005b3480156100b8575f5ffd5b506100c16102c4565b6040516100ce9190611575565b60405180910390f35b3480156100e2575f5ffd5b506100fd60048036038101906100f891906115bc565b6102ca565b60405161010a91906116ef565b60405180910390f35b34801561011e575f5ffd5b50610139600480360381019061013491906115bc565b610436565b005b348015610146575f5ffd5b50610161600480360381019061015c9190611733565b61086a565b005b34801561016e575f5ffd5b50610177610964565b6040516101849190611575565b60405180910390f35b348015610198575f5ffd5b506101a161096a565b005b3480156101ae575f5ffd5b506101c960048036038101906101c491906115bc565b61097d565b005b3480156101d6575f5ffd5b506101f160048036038101906101ec91906115bc565b610a0f565b005b3480156101fe575f5ffd5b50610219600480360381019061021491906115bc565b610adf565b60405161022d98979695949392919061178f565b60405180910390f35b348015610241575f5ffd5b5061024a610b8c565b604051610257919061180b565b60405180910390f35b34801561026b575f5ffd5b5061028660048036038101906102819190611824565b610bb3565b6040516102939190611575565b60405180910390f35b3480156102a7575f5ffd5b506102c260048036038101906102bd9190611888565b611115565b005b60025481565b6102d26114dc565b60045f8381526020019081526020015f20604051806101000160405290815f82015f9054906101000a900473ffffffffffffffffffffffffffffffffffffffff1673ffffffffffffffffffffffffffffffffffffffff1673ffffffffffffffffffffffffffffffffffffffff168152602001600182015f9054906101000a900473ffffffffffffffffffffffffffffffffffffffff1673ffffffffffffffffffffffffffffffffffffffff1673ffffffffffffffffffffffffffffffffffffffff1681526020016002820154815260200160038201548152602001600482015f9054906101000a900473ffffffffffffffffffffffffffffffffffffffff1673ffffffffffffffffffffffffffffffffffffffff1673ffffffffffffffffffffffffffffffffffffffff1681526020016005820154815260200160068201548152602001600782015f9054906101000a900460ff1615151515815250509050919050565b61043e611199565b5f60045f8381526020019081526020015f2090505f816003015411610498576040517f08c379a000000000000000000000000000000000000000000000000000000000815260040161048f9061190d565b60405180910390fd5b806007015f9054906101000a900460ff16156104e9576040517f08c379a00000000000000000000000000000000000000000000000000000000081526004016104e090611975565b60405180910390fd5b5f815f015f9054906101000a900473ffffffffffffffffffffffffffffffffffffffff1673ffffffffffffffffffffffffffffffffffffffff163373ffffffffffffffffffffffffffffffffffffffff1614806105945750816004015f9054906101000a900473ffffffffffffffffffffffffffffffffffffffff1673ffffffffffffffffffffffffffffffffffffffff163373ffffffffffffffffffffffffffffffffffffffff16145b806105d157506105a2610b8c565b73ffffffffffffffffffffffffffffffffffffffff163373ffffffffffffffffffffffffffffffffffffffff16145b905080806105e3575081600601544210155b610622576040517f08c379a0000000000000000000000000000000000000000000000000000000008152600401610619906119dd565b60405180910390fd5b6001826007015f6101000a81548160ff0219169083151502179055505f5f90505f60025411156106f0575f8360030154148061068f57506002547fffffffffffffffffffffffffffffffffffffffffffffffffffffffffffffffff6106879190611a55565b836003015411155b6106ce576040517f08c379a00000000000000000000000000000000000000000000000000000000081526004016106c590611acf565b60405180910390fd5b61271060025484600301546106e39190611aed565b6106ed9190611a55565b90505b5f8184600301546107019190611b2e565b9050610774846004015f9054906101000a900473ffffffffffffffffffffffffffffffffffffffff1682866001015f9054906101000a900473ffffffffffffffffffffffffffffffffffffffff1673ffffffffffffffffffffffffffffffffffffffff166111e89092919063ffffffff16565b5f8211156107d2576107d1610787610b8c565b83866001015f9054906101000a900473ffffffffffffffffffffffffffffffffffffffff1673ffffffffffffffffffffffffffffffffffffffff166111e89092919063ffffffff16565b5b836004015f9054906101000a900473ffffffffffffffffffffffffffffffffffffffff1673ffffffffffffffffffffffffffffffffffffffff163373ffffffffffffffffffffffffffffffffffffffff16867f89ccb81a080f998c6d21f573e5464d693e085cef774481dc4b5c3c0d66ce11da846040516108539190611575565b60405180910390a450505050610867611267565b50565b610872611270565b5f73ffffffffffffffffffffffffffffffffffffffff168273ffffffffffffffffffffffffffffffffffffffff16036108e0576040517f08c379a00000000000000000000000000000000000000000000000000000000081526004016108d790611bab565b60405180910390fd5b6109126108eb610b8c565b828473ffffffffffffffffffffffffffffffffffffffff166111e89092919063ffffffff16565b8173ffffffffffffffffffffffffffffffffffffffff167f8d7d29d557c3b976595a2bb0bff9523a5fb97d560015797deac22d118fffad65826040516109589190611575565b60405180910390a25050565b60035481565b610972611270565b61097b5f6112f7565b565b610985611270565b6127108111156109ca576040517f08c379a00000000000000000000000000000000000000000000000000000000081526004016109c190611c13565b60405180910390fd5b7f5fc463da23c1b063e66f9e352006a7fbe8db7223c455dc429e881a2dfe2f94f1600254826040516109fd929190611c31565b60405180910390a18060028190555050565b610a17611270565b80471015610a5a576040517f08c379a0000000000000000000000000000000000000000000000000000000008152600401610a5190611ca2565b60405180910390fd5b610a62610b8c565b73ffffffffffffffffffffffffffffffffffffffff166108fc8290811502906040515f60405180830381858888f19350505050158015610aa4573d5f5f3e3d5ffd5b507f6e4c84161cdb053c0fd0ad9dfd1b7e4e50a718125358c96a036c95a19eb0a90581604051610ad49190611575565b60405180910390a150565b6004602052805f5260405f205f91509050805f015f9054906101000a900473ffffffffffffffffffffffffffffffffffffffff1690806001015f9054906101000a900473ffffffffffffffffffffffffffffffffffffffff1690806002015490806003015490806004015f9054906101000a900473ffffffffffffffffffffffffffffffffffffffff1690806005015490806006015490806007015f9054906101000a900460ff16905088565b5f5f5f9054906101000a900473ffffffffffffffffffffffffffffffffffffffff16905090565b5f5f73ffffffffffffffffffffffffffffffffffffffff168573ffffffffffffffffffffffffffffffffffffffff1603610c22576040517f08c379a0000000000000000000000000000000000000000000000000000000008152600401610c1990611bab565b60405180910390fd5b5f8411610c64576040517f08c379a0000000000000000000000000000000000000000000000000000000008152600401610c5b90611d0a565b60405180910390fd5b5f73ffffffffffffffffffffffffffffffffffffffff168373ffffffffffffffffffffffffffffffffffffffff1603610cd2576040517f08c379a0000000000000000000000000000000000000000000000000000000008152600401610cc990611d72565b60405180910390fd5b603c42610cdf9190611d90565b821015610d21576040517f08c379a0000000000000000000000000000000000000000000000000000000008152600401610d1890611e0d565b60405180910390fd5b5f8573ffffffffffffffffffffffffffffffffffffffff166370a08231306040518263ffffffff1660e01b8152600401610d5b919061180b565b602060405180830381865afa158015610d76573d5f5f3e3d5ffd5b505050506040513d601f19601f82011682018060405250810190610d9a9190611e3f565b9050610dc93330878973ffffffffffffffffffffffffffffffffffffffff166113b8909392919063ffffffff16565b5f8673ffffffffffffffffffffffffffffffffffffffff166370a08231306040518263ffffffff1660e01b8152600401610e03919061180b565b602060405180830381865afa158015610e1e573d5f5f3e3d5ffd5b505050506040513d601f19601f82011682018060405250810190610e429190611e3f565b905081811015610e87576040517f08c379a0000000000000000000000000000000000000000000000000000000008152600401610e7e90611eb4565b60405180910390fd5b5f8282610e949190611b2e565b90505f8111610ed8576040517f08c379a0000000000000000000000000000000000000000000000000000000008152600401610ecf90611f1c565b60405180910390fd5b5f60035490506040518061010001604052803373ffffffffffffffffffffffffffffffffffffffff1681526020018a73ffffffffffffffffffffffffffffffffffffffff1681526020018981526020018381526020018873ffffffffffffffffffffffffffffffffffffffff1681526020014281526020018781526020015f151581525060045f8381526020019081526020015f205f820151815f015f6101000a81548173ffffffffffffffffffffffffffffffffffffffff021916908373ffffffffffffffffffffffffffffffffffffffff1602179055506020820151816001015f6101000a81548173ffffffffffffffffffffffffffffffffffffffff021916908373ffffffffffffffffffffffffffffffffffffffff16021790555060408201518160020155606082015181600301556080820151816004015f6101000a81548173ffffffffffffffffffffffffffffffffffffffff021916908373ffffffffffffffffffffffffffffffffffffffff16021790555060a0820151816005015560c0820151816006015560e0820151816007015f6101000a81548160ff0219169083151502179055509050506001816110949190611d90565b6003819055508673ffffffffffffffffffffffffffffffffffffffff163373ffffffffffffffffffffffffffffffffffffffff16827f07d069ee8068ff01364b4b02716d89f761325428c736a508dcadbe0def557dca8c8c878c6040516110fe9493929190611f3a565b60405180910390a480945050505050949350505050565b61111d611270565b5f73ffffffffffffffffffffffffffffffffffffffff168173ffffffffffffffffffffffffffffffffffffffff160361118d575f6040517f1e4fbdf7000000000000000000000000000000000000000000000000000000008152600401611184919061180b565b60405180910390fd5b611196816112f7565b50565b6002600154036111de576040517f08c379a00000000000000000000000000000000000000000000000000000000081526004016111d590611fc7565b60405180910390fd5b6002600181905550565b611262838473ffffffffffffffffffffffffffffffffffffffff1663a9059cbb858560405160240161121b929190611fe5565b604051602081830303815290604052915060e01b6020820180517bffffffffffffffffffffffffffffffffffffffffffffffffffffffff838183161783525050505061143a565b505050565b60018081905550565b6112786114d5565b73ffffffffffffffffffffffffffffffffffffffff16611296610b8c565b73ffffffffffffffffffffffffffffffffffffffff16146112f5576112b96114d5565b6040517f118cdaa70000000000000000000000000000000000000000000000000000000081526004016112ec919061180b565b60405180910390fd5b565b5f5f5f9054906101000a900473ffffffffffffffffffffffffffffffffffffffff169050815f5f6101000a81548173ffffffffffffffffffffffffffffffffffffffff021916908373ffffffffffffffffffffffffffffffffffffffff1602179055508173ffffffffffffffffffffffffffffffffffffffff168173ffffffffffffffffffffffffffffffffffffffff167f8be0079c531659141344cd1fd0a4f28419497f9722a3daafe3b4186f6b6457e060405160405180910390a35050565b611434848573ffffffffffffffffffffffffffffffffffffffff166323b872dd8686866040516024016113ed9392919061200c565b604051602081830303815290604052915060e01b6020820180517bffffffffffffffffffffffffffffffffffffffffffffffffffffffff838183161783525050505061143a565b50505050565b5f5f60205f8451602086015f885af180611459576040513d5f823e3d81fd5b3d92505f519150505f821461147257600181141561148d565b5f8473ffffffffffffffffffffffffffffffffffffffff163b145b156114cf57836040517f5274afe70000000000000000000000000000000000000000000000000000000081526004016114c6919061180b565b60405180910390fd5b50505050565b5f33905090565b6040518061010001604052805f73ffffffffffffffffffffffffffffffffffffffff1681526020015f73ffffffffffffffffffffffffffffffffffffffff1681526020015f81526020015f81526020015f73ffffffffffffffffffffffffffffffffffffffff1681526020015f81526020015f81526020015f151581525090565b5f819050919050565b61156f8161155d565b82525050565b5f6020820190506115885f830184611566565b92915050565b5f5ffd5b61159b8161155d565b81146115a5575f5ffd5b50565b5f813590506115b681611592565b92915050565b5f602082840312156115d1576115d061158e565b5b5f6115de848285016115a8565b91505092915050565b5f73ffffffffffffffffffffffffffffffffffffffff82169050919050565b5f611610826115e7565b9050919050565b61162081611606565b82525050565b61162f8161155d565b82525050565b5f8115159050919050565b61164981611635565b82525050565b61010082015f8201516116645f850182611617565b5060208201516116776020850182611617565b50604082015161168a6040850182611626565b50606082015161169d6060850182611626565b5060808201516116b06080850182611617565b5060a08201516116c360a0850182611626565b5060c08201516116d660c0850182611626565b5060e08201516116e960e0850182611640565b50505050565b5f610100820190506117035f83018461164f565b92915050565b61171281611606565b811461171c575f5ffd5b50565b5f8135905061172d81611709565b92915050565b5f5f604083850312156117495761174861158e565b5b5f6117568582860161171f565b9250506020611767858286016115a8565b9150509250929050565b61177a81611606565b82525050565b61178981611635565b82525050565b5f610100820190506117a35f83018b611771565b6117b0602083018a611771565b6117bd6040830189611566565b6117ca6060830188611566565b6117d76080830187611771565b6117e460a0830186611566565b6117f160c0830185611566565b6117fe60e0830184611780565b9998505050505050505050565b5f60208201905061181e5f830184611771565b92915050565b5f5f5f5f6080858703121561183c5761183b61158e565b5b5f6118498782880161171f565b945050602061185a878288016115a8565b935050604061186b8782880161171f565b925050606061187c878288016115a8565b91505092959194509250565b5f6020828403121561189d5761189c61158e565b5b5f6118aa8482850161171f565b91505092915050565b5f82825260208201905092915050565b7f6e6f7420666f756e64206f72207a65726f0000000000000000000000000000005f82015250565b5f6118f76011836118b3565b9150611902826118c3565b602082019050919050565b5f6020820190508181035f830152611924816118eb565b9050919050565b7f616c72656164792072656c6561736564000000000000000000000000000000005f82015250565b5f61195f6010836118b3565b915061196a8261192b565b602082019050919050565b5f6020820190508181035f83015261198c81611953565b9050919050565b7f6e6f7420617574686f72697a65640000000000000000000000000000000000005f82015250565b5f6119c7600e836118b3565b91506119d282611993565b602082019050919050565b5f6020820190508181035f8301526119f4816119bb565b9050919050565b7f4e487b71000000000000000000000000000000000000000000000000000000005f52601260045260245ffd5b7f4e487b71000000000000000000000000000000000000000000000000000000005f52601160045260245ffd5b5f611a5f8261155d565b9150611a6a8361155d565b925082611a7a57611a796119fb565b5b828204905092915050565b7f6665652063616c63206f766572666c6f770000000000000000000000000000005f82015250565b5f611ab96011836118b3565b9150611ac482611a85565b602082019050919050565b5f6020820190508181035f830152611ae681611aad565b9050919050565b5f611af78261155d565b9150611b028361155d565b9250828202611b108161155d565b91508282048414831517611b2757611b26611a28565b5b5092915050565b5f611b388261155d565b9150611b438361155d565b9250828203905081811115611b5b57611b5a611a28565b5b92915050565b7f746f6b656e207a65726f000000000000000000000000000000000000000000005f82015250565b5f611b95600a836118b3565b9150611ba082611b61565b602082019050919050565b5f6020820190508181035f830152611bc281611b89565b9050919050565b7f6665654270733c3d3130303030000000000000000000000000000000000000005f82015250565b5f611bfd600d836118b3565b9150611c0882611bc9565b602082019050919050565b5f6020820190508181035f830152611c2a81611bf1565b9050919050565b5f604082019050611c445f830185611566565b611c516020830184611566565b9392505050565b7f696e73756666696369656e74206e6174697665000000000000000000000000005f82015250565b5f611c8c6013836118b3565b9150611c9782611c58565b602082019050919050565b5f6020820190508181035f830152611cb981611c80565b9050919050565b7f616d6f756e743e300000000000000000000000000000000000000000000000005f82015250565b5f611cf46008836118b3565b9150611cff82611cc0565b602082019050919050565b5f6020820190508181035f830152611d2181611ce8565b9050919050565b7f726563697069656e74207a65726f0000000000000000000000000000000000005f82015250565b5f611d5c600e836118b3565b9150611d6782611d28565b602082019050919050565b5f6020820190508181035f830152611d8981611d50565b9050919050565b5f611d9a8261155d565b9150611da58361155d565b9250828201905080821115611dbd57611dbc611a28565b5b92915050565b7f756e6c6f636b54696d657374616d7020746f6f20736f6f6e00000000000000005f82015250565b5f611df76018836118b3565b9150611e0282611dc3565b602082019050919050565b5f6020820190508181035f830152611e2481611deb565b9050919050565b5f81519050611e3981611592565b92915050565b5f60208284031215611e5457611e5361158e565b5b5f611e6184828501611e2b565b91505092915050565b7f62616c616e6365206166746572203c206265666f7265000000000000000000005f82015250565b5f611e9e6016836118b3565b9150611ea982611e6a565b602082019050919050565b5f6020820190508181035f830152611ecb81611e92565b9050919050565b7f7265636569766564207a65726f000000000000000000000000000000000000005f82015250565b5f611f06600d836118b3565b9150611f1182611ed2565b602082019050919050565b5f6020820190508181035f830152611f3381611efa565b9050919050565b5f608082019050611f4d5f830187611771565b611f5a6020830186611566565b611f676040830185611566565b611f746060830184611566565b95945050505050565b7f5265656e7472616e637947756172643a207265656e7472616e742063616c6c005f82015250565b5f611fb1601f836118b3565b9150611fbc82611f7d565b602082019050919050565b5f6020820190508181035f830152611fde81611fa5565b9050919050565b5f604082019050611ff85f830185611771565b6120056020830184611566565b9392505050565b5f60608201905061201f5f830186611771565b61202c6020830185611771565b6120396040830184611566565b94935050505056fea26469706673582212204e6977336490ee45ba508f451bd19e123c988a342b435631c655e70c69134d7864736f6c634300081e0033",
					"opcodes": "PUSH1 0x80 PUSH1 0x40 MSTORE CALLVALUE DUP1 ISZERO PUSH2 0xF JUMPI PUSH0 PUSH0 REVERT JUMPDEST POP PUSH1 0x40 MLOAD PUSH2 0x238A CODESIZE SUB DUP1 PUSH2 0x238A DUP4 CODECOPY DUP2 DUP2 ADD PUSH1 0x40 MSTORE DUP2 ADD SWAP1 PUSH2 0x31 SWAP2 SWAP1 PUSH2 0x20B JUMP JUMPDEST CALLER PUSH0 PUSH20 0xFFFFFFFFFFFFFFFFFFFFFFFFFFFFFFFFFFFFFFFF AND DUP2 PUSH20 0xFFFFFFFFFFFFFFFFFFFFFFFFFFFFFFFFFFFFFFFF AND SUB PUSH2 0xA2 JUMPI PUSH0 PUSH1 0x40 MLOAD PUSH32 0x1E4FBDF700000000000000000000000000000000000000000000000000000000 DUP2 MSTORE PUSH1 0x4 ADD PUSH2 0x99 SWAP2 SWAP1 PUSH2 0x275 JUMP JUMPDEST PUSH1 0x40 MLOAD DUP1 SWAP2 SUB SWAP1 REVERT JUMPDEST PUSH2 0xB1 DUP2 PUSH2 0x113 PUSH1 0x20 SHL PUSH1 0x20 SHR JUMP JUMPDEST POP PUSH1 0x1 DUP1 DUP2 SWAP1 SSTORE POP PUSH2 0x2710 DUP2 GT ISZERO PUSH2 0xFE JUMPI PUSH1 0x40 MLOAD PUSH32 0x8C379A000000000000000000000000000000000000000000000000000000000 DUP2 MSTORE PUSH1 0x4 ADD PUSH2 0xF5 SWAP1 PUSH2 0x2E8 JUMP JUMPDEST PUSH1 0x40 MLOAD DUP1 SWAP2 SUB SWAP1 REVERT JUMPDEST DUP1 PUSH1 0x2 DUP2 SWAP1 SSTORE POP PUSH1 0x1 PUSH1 0x3 DUP2 SWAP1 SSTORE POP POP PUSH2 0x306 JUMP JUMPDEST PUSH0 PUSH0 PUSH0 SWAP1 SLOAD SWAP1 PUSH2 0x100 EXP SWAP1 DIV PUSH20 0xFFFFFFFFFFFFFFFFFFFFFFFFFFFFFFFFFFFFFFFF AND SWAP1 POP DUP2 PUSH0 PUSH0 PUSH2 0x100 EXP DUP2 SLOAD DUP2 PUSH20 0xFFFFFFFFFFFFFFFFFFFFFFFFFFFFFFFFFFFFFFFF MUL NOT AND SWAP1 DUP4 PUSH20 0xFFFFFFFFFFFFFFFFFFFFFFFFFFFFFFFFFFFFFFFF AND MUL OR SWAP1 SSTORE POP DUP2 PUSH20 0xFFFFFFFFFFFFFFFFFFFFFFFFFFFFFFFFFFFFFFFF AND DUP2 PUSH20 0xFFFFFFFFFFFFFFFFFFFFFFFFFFFFFFFFFFFFFFFF AND PUSH32 0x8BE0079C531659141344CD1FD0A4F28419497F9722A3DAAFE3B4186F6B6457E0 PUSH1 0x40 MLOAD PUSH1 0x40 MLOAD DUP1 SWAP2 SUB SWAP1 LOG3 POP POP JUMP JUMPDEST PUSH0 PUSH0 REVERT JUMPDEST PUSH0 DUP2 SWAP1 POP SWAP2 SWAP1 POP JUMP JUMPDEST PUSH2 0x1EA DUP2 PUSH2 0x1D8 JUMP JUMPDEST DUP2 EQ PUSH2 0x1F4 JUMPI PUSH0 PUSH0 REVERT JUMPDEST POP JUMP JUMPDEST PUSH0 DUP2 MLOAD SWAP1 POP PUSH2 0x205 DUP2 PUSH2 0x1E1 JUMP JUMPDEST SWAP3 SWAP2 POP POP JUMP JUMPDEST PUSH0 PUSH1 0x20 DUP3 DUP5 SUB SLT ISZERO PUSH2 0x220 JUMPI PUSH2 0x21F PUSH2 0x1D4 JUMP JUMPDEST JUMPDEST PUSH0 PUSH2 0x22D DUP5 DUP3 DUP6 ADD PUSH2 0x1F7 JUMP JUMPDEST SWAP2 POP POP SWAP3 SWAP2 POP POP JUMP JUMPDEST PUSH0 PUSH20 0xFFFFFFFFFFFFFFFFFFFFFFFFFFFFFFFFFFFFFFFF DUP3 AND SWAP1 POP SWAP2 SWAP1 POP JUMP JUMPDEST PUSH0 PUSH2 0x25F DUP3 PUSH2 0x236 JUMP JUMPDEST SWAP1 POP SWAP2 SWAP1 POP JUMP JUMPDEST PUSH2 0x26F DUP2 PUSH2 0x255 JUMP JUMPDEST DUP3 MSTORE POP POP JUMP JUMPDEST PUSH0 PUSH1 0x20 DUP3 ADD SWAP1 POP PUSH2 0x288 PUSH0 DUP4 ADD DUP5 PUSH2 0x266 JUMP JUMPDEST SWAP3 SWAP2 POP POP JUMP JUMPDEST PUSH0 DUP3 DUP3 MSTORE PUSH1 0x20 DUP3 ADD SWAP1 POP SWAP3 SWAP2 POP POP JUMP JUMPDEST PUSH32 0x6665654270733C3D313030303000000000000000000000000000000000000000 PUSH0 DUP3 ADD MSTORE POP JUMP JUMPDEST PUSH0 PUSH2 0x2D2 PUSH1 0xD DUP4 PUSH2 0x28E JUMP JUMPDEST SWAP2 POP PUSH2 0x2DD DUP3 PUSH2 0x29E JUMP JUMPDEST PUSH1 0x20 DUP3 ADD SWAP1 POP SWAP2 SWAP1 POP JUMP JUMPDEST PUSH0 PUSH1 0x20 DUP3 ADD SWAP1 POP DUP2 DUP2 SUB PUSH0 DUP4 ADD MSTORE PUSH2 0x2FF DUP2 PUSH2 0x2C6 JUMP JUMPDEST SWAP1 POP SWAP2 SWAP1 POP JUMP JUMPDEST PUSH2 0x2077 DUP1 PUSH2 0x313 PUSH0 CODECOPY PUSH0 RETURN INVALID PUSH1 0x80 PUSH1 0x40 MSTORE PUSH1 0x4 CALLDATASIZE LT PUSH2 0xAA JUMPI PUSH0 CALLDATALOAD PUSH1 0xE0 SHR DUP1 PUSH4 0x72C27B62 GT PUSH2 0x63 JUMPI DUP1 PUSH4 0x72C27B62 EQ PUSH2 0x1A3 JUMPI DUP1 PUSH4 0x84276D81 EQ PUSH2 0x1CB JUMPI DUP1 PUSH4 0x87D81789 EQ PUSH2 0x1F3 JUMPI DUP1 PUSH4 0x8DA5CB5B EQ PUSH2 0x236 JUMPI DUP1 PUSH4 0x90D25074 EQ PUSH2 0x260 JUMPI DUP1 PUSH4 0xF2FDE38B EQ PUSH2 0x29C JUMPI PUSH2 0xAB JUMP JUMPDEST DUP1 PUSH4 0x24A9D853 EQ PUSH2 0xAD JUMPI DUP1 PUSH4 0x3280A836 EQ PUSH2 0xD7 JUMPI DUP1 PUSH4 0x37BDC99B EQ PUSH2 0x113 JUMPI DUP1 PUSH4 0x45D39B58 EQ PUSH2 0x13B JUMPI DUP1 PUSH4 0x61B8CE8C EQ PUSH2 0x163 JUMPI DUP1 PUSH4 0x715018A6 EQ PUSH2 0x18D JUMPI PUSH2 0xAB JUMP JUMPDEST JUMPDEST STOP JUMPDEST CALLVALUE DUP1 ISZERO PUSH2 0xB8 JUMPI PUSH0 PUSH0 REVERT JUMPDEST POP PUSH2 0xC1 PUSH2 0x2C4 JUMP JUMPDEST PUSH1 0x40 MLOAD PUSH2 0xCE SWAP2 SWAP1 PUSH2 0x1575 JUMP JUMPDEST PUSH1 0x40 MLOAD DUP1 SWAP2 SUB SWAP1 RETURN JUMPDEST CALLVALUE DUP1 ISZERO PUSH2 0xE2 JUMPI PUSH0 PUSH0 REVERT JUMPDEST POP PUSH2 0xFD PUSH1 0x4 DUP1 CALLDATASIZE SUB DUP2 ADD SWAP1 PUSH2 0xF8 SWAP2 SWAP1 PUSH2 0x15BC JUMP JUMPDEST PUSH2 0x2CA JUMP JUMPDEST PUSH1 0x40 MLOAD PUSH2 0x10A SWAP2 SWAP1 PUSH2 0x16EF JUMP JUMPDEST PUSH1 0x40 MLOAD DUP1 SWAP2 SUB SWAP1 RETURN JUMPDEST CALLVALUE DUP1 ISZERO PUSH2 0x11E JUMPI PUSH0 PUSH0 REVERT JUMPDEST POP PUSH2 0x139 PUSH1 0x4 DUP1 CALLDATASIZE SUB DUP2 ADD SWAP1 PUSH2 0x134 SWAP2 SWAP1 PUSH2 0x15BC JUMP JUMPDEST PUSH2 0x436 JUMP JUMPDEST STOP JUMPDEST CALLVALUE DUP1 ISZERO PUSH2 0x146 JUMPI PUSH0 PUSH0 REVERT JUMPDEST POP PUSH2 0x161 PUSH1 0x4 DUP1 CALLDATASIZE SUB DUP2 ADD SWAP1 PUSH2 0x15C SWAP2 SWAP1 PUSH2 0x1733 JUMP JUMPDEST PUSH2 0x86A JUMP JUMPDEST STOP JUMPDEST CALLVALUE DUP1 ISZERO PUSH2 0x16E JUMPI PUSH0 PUSH0 REVERT JUMPDEST POP PUSH2 0x177 PUSH2 0x964 JUMP JUMPDEST PUSH1 0x40 MLOAD PUSH2 0x184 SWAP2 SWAP1 PUSH2 0x1575 JUMP JUMPDEST PUSH1 0x40 MLOAD DUP1 SWAP2 SUB SWAP1 RETURN JUMPDEST CALLVALUE DUP1 ISZERO PUSH2 0x198 JUMPI PUSH0 PUSH0 REVERT JUMPDEST POP PUSH2 0x1A1 PUSH2 0x96A JUMP JUMPDEST STOP JUMPDEST CALLVALUE DUP1 ISZERO PUSH2 0x1AE JUMPI PUSH0 PUSH0 REVERT JUMPDEST POP PUSH2 0x1C9 PUSH1 0x4 DUP1 CALLDATASIZE SUB DUP2 ADD SWAP1 PUSH2 0x1C4 SWAP2 SWAP1 PUSH2 0x15BC JUMP JUMPDEST PUSH2 0x97D JUMP JUMPDEST STOP JUMPDEST CALLVALUE DUP1 ISZERO PUSH2 0x1D6 JUMPI PUSH0 PUSH0 REVERT JUMPDEST POP PUSH2 0x1F1 PUSH1 0x4 DUP1 CALLDATASIZE SUB DUP2 ADD SWAP1 PUSH2 0x1EC SWAP2 SWAP1 PUSH2 0x15BC JUMP JUMPDEST PUSH2 0xA0F JUMP JUMPDEST STOP JUMPDEST CALLVALUE DUP1 ISZERO PUSH2 0x1FE JUMPI PUSH0 PUSH0 REVERT JUMPDEST POP PUSH2 0x219 PUSH1 0x4 DUP1 CALLDATASIZE SUB DUP2 ADD SWAP1 PUSH2 0x214 SWAP2 SWAP1 PUSH2 0x15BC JUMP JUMPDEST PUSH2 0xADF JUMP JUMPDEST PUSH1 0x40 MLOAD PUSH2 0x22D SWAP9 SWAP8 SWAP7 SWAP6 SWAP5 SWAP4 SWAP3 SWAP2 SWAP1 PUSH2 0x178F JUMP JUMPDEST PUSH1 0x40 MLOAD DUP1 SWAP2 SUB SWAP1 RETURN JUMPDEST CALLVALUE DUP1 ISZERO PUSH2 0x241 JUMPI PUSH0 PUSH0 REVERT JUMPDEST POP PUSH2 0x24A PUSH2 0xB8C JUMP JUMPDEST PUSH1 0x40 MLOAD PUSH2 0x257 SWAP2 SWAP1 PUSH2 0x180B JUMP JUMPDEST PUSH1 0x40 MLOAD DUP1 SWAP2 SUB SWAP1 RETURN JUMPDEST CALLVALUE DUP1 ISZERO PUSH2 0x26B JUMPI PUSH0 PUSH0 REVERT JUMPDEST POP PUSH2 0x286 PUSH1 0x4 DUP1 CALLDATASIZE SUB DUP2 ADD SWAP1 PUSH2 0x281 SWAP2 SWAP1 PUSH2 0x1824 JUMP JUMPDEST PUSH2 0xBB3 JUMP JUMPDEST PUSH1 0x40 MLOAD PUSH2 0x293 SWAP2 SWAP1 PUSH2 0x1575 JUMP JUMPDEST PUSH1 0x40 MLOAD DUP1 SWAP2 SUB SWAP1 RETURN JUMPDEST CALLVALUE DUP1 ISZERO PUSH2 0x2A7 JUMPI PUSH0 PUSH0 REVERT JUMPDEST POP PUSH2 0x2C2 PUSH1 0x4 DUP1 CALLDATASIZE SUB DUP2 ADD SWAP1 PUSH2 0x2BD SWAP2 SWAP1 PUSH2 0x1888 JUMP JUMPDEST PUSH2 0x1115 JUMP JUMPDEST STOP JUMPDEST PUSH1 0x2 SLOAD DUP2 JUMP JUMPDEST PUSH2 0x2D2 PUSH2 0x14DC JUMP JUMPDEST PUSH1 0x4 PUSH0 DUP4 DUP2 MSTORE PUSH1 0x20 ADD SWAP1 DUP2 MSTORE PUSH1 0x20 ADD PUSH0 KECCAK256 PUSH1 0x40 MLOAD DUP1 PUSH2 0x100 ADD PUSH1 0x40 MSTORE SWAP1 DUP2 PUSH0 DUP3 ADD PUSH0 SWAP1 SLOAD SWAP1 PUSH2 0x100 EXP SWAP1 DIV PUSH20 0xFFFFFFFFFFFFFFFFFFFFFFFFFFFFFFFFFFFFFFFF AND PUSH20 0xFFFFFFFFFFFFFFFFFFFFFFFFFFFFFFFFFFFFFFFF AND PUSH20 0xFFFFFFFFFFFFFFFFFFFFFFFFFFFFFFFFFFFFFFFF AND DUP2 MSTORE PUSH1 0x20 ADD PUSH1 0x1 DUP3 ADD PUSH0 SWAP1 SLOAD SWAP1 PUSH2 0x100 EXP SWAP1 DIV PUSH20 0xFFFFFFFFFFFFFFFFFFFFFFFFFFFFFFFFFFFFFFFF AND PUSH20 0xFFFFFFFFFFFFFFFFFFFFFFFFFFFFFFFFFFFFFFFF AND PUSH20 0xFFFFFFFFFFFFFFFFFFFFFFFFFFFFFFFFFFFFFFFF AND DUP2 MSTORE PUSH1 0x20 ADD PUSH1 0x2 DUP3 ADD SLOAD DUP2 MSTORE PUSH1 0x20 ADD PUSH1 0x3 DUP3 ADD SLOAD DUP2 MSTORE PUSH1 0x20 ADD PUSH1 0x4 DUP3 ADD PUSH0 SWAP1 SLOAD SWAP1 PUSH2 0x100 EXP SWAP1 DIV PUSH20 0xFFFFFFFFFFFFFFFFFFFFFFFFFFFFFFFFFFFFFFFF AND PUSH20 0xFFFFFFFFFFFFFFFFFFFFFFFFFFFFFFFFFFFFFFFF AND PUSH20 0xFFFFFFFFFFFFFFFFFFFFFFFFFFFFFFFFFFFFFFFF AND DUP2 MSTORE PUSH1 0x20 ADD PUSH1 0x5 DUP3 ADD SLOAD DUP2 MSTORE PUSH1 0x20 ADD PUSH1 0x6 DUP3 ADD SLOAD DUP2 MSTORE PUSH1 0x20 ADD PUSH1 0x7 DUP3 ADD PUSH0 SWAP1 SLOAD SWAP1 PUSH2 0x100 EXP SWAP1 DIV PUSH1 0xFF AND ISZERO ISZERO ISZERO ISZERO DUP2 MSTORE POP POP SWAP1 POP SWAP2 SWAP1 POP JUMP JUMPDEST PUSH2 0x43E PUSH2 0x1199 JUMP JUMPDEST PUSH0 PUSH1 0x4 PUSH0 DUP4 DUP2 MSTORE PUSH1 0x20 ADD SWAP1 DUP2 MSTORE PUSH1 0x20 ADD PUSH0 KECCAK256 SWAP1 POP PUSH0 DUP2 PUSH1 0x3 ADD SLOAD GT PUSH2 0x498 JUMPI PUSH1 0x40 MLOAD PUSH32 0x8C379A000000000000000000000000000000000000000000000000000000000 DUP2 MSTORE PUSH1 0x4 ADD PUSH2 0x48F SWAP1 PUSH2 0x190D JUMP JUMPDEST PUSH1 0x40 MLOAD DUP1 SWAP2 SUB SWAP1 REVERT JUMPDEST DUP1 PUSH1 0x7 ADD PUSH0 SWAP1 SLOAD SWAP1 PUSH2 0x100 EXP SWAP1 DIV PUSH1 0xFF AND ISZERO PUSH2 0x4E9 JUMPI PUSH1 0x40 MLOAD PUSH32 0x8C379A000000000000000000000000000000000000000000000000000000000 DUP2 MSTORE PUSH1 0x4 ADD PUSH2 0x4E0 SWAP1 PUSH2 0x1975 JUMP JUMPDEST PUSH1 0x40 MLOAD DUP1 SWAP2 SUB SWAP1 REVERT JUMPDEST PUSH0 DUP2 PUSH0 ADD PUSH0 SWAP1 SLOAD SWAP1 PUSH2 0x100 EXP SWAP1 DIV PUSH20 0xFFFFFFFFFFFFFFFFFFFFFFFFFFFFFFFFFFFFFFFF AND PUSH20 0xFFFFFFFFFFFFFFFFFFFFFFFFFFFFFFFFFFFFFFFF AND CALLER PUSH20 0xFFFFFFFFFFFFFFFFFFFFFFFFFFFFFFFFFFFFFFFF AND EQ DUP1 PUSH2 0x594 JUMPI POP DUP2 PUSH1 0x4 ADD PUSH0 SWAP1 SLOAD SWAP1 PUSH2 0x100 EXP SWAP1 DIV PUSH20 0xFFFFFFFFFFFFFFFFFFFFFFFFFFFFFFFFFFFFFFFF AND PUSH20 0xFFFFFFFFFFFFFFFFFFFFFFFFFFFFFFFFFFFFFFFF AND CALLER PUSH20 0xFFFFFFFFFFFFFFFFFFFFFFFFFFFFFFFFFFFFFFFF AND EQ JUMPDEST DUP1 PUSH2 0x5D1 JUMPI POP PUSH2 0x5A2 PUSH2 0xB8C JUMP JUMPDEST PUSH20 0xFFFFFFFFFFFFFFFFFFFFFFFFFFFFFFFFFFFFFFFF AND CALLER PUSH20 0xFFFFFFFFFFFFFFFFFFFFFFFFFFFFFFFFFFFFFFFF AND EQ JUMPDEST SWAP1 POP DUP1 DUP1 PUSH2 0x5E3 JUMPI POP DUP2 PUSH1 0x6 ADD SLOAD TIMESTAMP LT ISZERO JUMPDEST PUSH2 0x622 JUMPI PUSH1 0x40 MLOAD PUSH32 0x8C379A000000000000000000000000000000000000000000000000000000000 DUP2 MSTORE PUSH1 0x4 ADD PUSH2 0x619 SWAP1 PUSH2 0x19DD JUMP JUMPDEST PUSH1 0x40 MLOAD DUP1 SWAP2 SUB SWAP1 REVERT JUMPDEST PUSH1 0x1 DUP3 PUSH1 0x7 ADD PUSH0 PUSH2 0x100 EXP DUP2 SLOAD DUP2 PUSH1 0xFF MUL NOT AND SWAP1 DUP4 ISZERO ISZERO MUL OR SWAP1 SSTORE POP PUSH0 PUSH0 SWAP1 POP PUSH0 PUSH1 0x2 SLOAD GT ISZERO PUSH2 0x6F0 JUMPI PUSH0 DUP4 PUSH1 0x3 ADD SLOAD EQ DUP1 PUSH2 0x68F JUMPI POP PUSH1 0x2 SLOAD PUSH32 0xFFFFFFFFFFFFFFFFFFFFFFFFFFFFFFFFFFFFFFFFFFFFFFFFFFFFFFFFFFFFFFFF PUSH2 0x687 SWAP2 SWAP1 PUSH2 0x1A55 JUMP JUMPDEST DUP4 PUSH1 0x3 ADD SLOAD GT ISZERO JUMPDEST PUSH2 0x6CE JUMPI PUSH1 0x40 MLOAD PUSH32 0x8C379A000000000000000000000000000000000000000000000000000000000 DUP2 MSTORE PUSH1 0x4 ADD PUSH2 0x6C5 SWAP1 PUSH2 0x1ACF JUMP JUMPDEST PUSH1 0x40 MLOAD DUP1 SWAP2 SUB SWAP1 REVERT JUMPDEST PUSH2 0x2710 PUSH1 0x2 SLOAD DUP5 PUSH1 0x3 ADD SLOAD PUSH2 0x6E3 SWAP2 SWAP1 PUSH2 0x1AED JUMP JUMPDEST PUSH2 0x6ED SWAP2 SWAP1 PUSH2 0x1A55 JUMP JUMPDEST SWAP1 POP JUMPDEST PUSH0 DUP2 DUP5 PUSH1 0x3 ADD SLOAD PUSH2 0x701 SWAP2 SWAP1 PUSH2 0x1B2E JUMP JUMPDEST SWAP1 POP PUSH2 0x774 DUP5 PUSH1 0x4 ADD PUSH0 SWAP1 SLOAD SWAP1 PUSH2 0x100 EXP SWAP1 DIV PUSH20 0xFFFFFFFFFFFFFFFFFFFFFFFFFFFFFFFFFFFFFFFF AND DUP3 DUP7 PUSH1 0x1 ADD PUSH0 SWAP1 SLOAD SWAP1 PUSH2 0x100 EXP SWAP1 DIV PUSH20 0xFFFFFFFFFFFFFFFFFFFFFFFFFFFFFFFFFFFFFFFF AND PUSH20 0xFFFFFFFFFFFFFFFFFFFFFFFFFFFFFFFFFFFFFFFF AND PUSH2 0x11E8 SWAP1 SWAP3 SWAP2 SWAP1 PUSH4 0xFFFFFFFF AND JUMP JUMPDEST PUSH0 DUP3 GT ISZERO PUSH2 0x7D2 JUMPI PUSH2 0x7D1 PUSH2 0x787 PUSH2 0xB8C JUMP JUMPDEST DUP4 DUP7 PUSH1 0x1 ADD PUSH0 SWAP1 SLOAD SWAP1 PUSH2 0x100 EXP SWAP1 DIV PUSH20 0xFFFFFFFFFFFFFFFFFFFFFFFFFFFFFFFFFFFFFFFF AND PUSH20 0xFFFFFFFFFFFFFFFFFFFFFFFFFFFFFFFFFFFFFFFF AND PUSH2 0x11E8 SWAP1 SWAP3 SWAP2 SWAP1 PUSH4 0xFFFFFFFF AND JUMP JUMPDEST JUMPDEST DUP4 PUSH1 0x4 ADD PUSH0 SWAP1 SLOAD SWAP1 PUSH2 0x100 EXP SWAP1 DIV PUSH20 0xFFFFFFFFFFFFFFFFFFFFFFFFFFFFFFFFFFFFFFFF AND PUSH20 0xFFFFFFFFFFFFFFFFFFFFFFFFFFFFFFFFFFFFFFFF AND CALLER PUSH20 0xFFFFFFFFFFFFFFFFFFFFFFFFFFFFFFFFFFFFFFFF AND DUP7 PUSH32 0x89CCB81A080F998C6D21F573E5464D693E085CEF774481DC4B5C3C0D66CE11DA DUP5 PUSH1 0x40 MLOAD PUSH2 0x853 SWAP2 SWAP1 PUSH2 0x1575 JUMP JUMPDEST PUSH1 0x40 MLOAD DUP1 SWAP2 SUB SWAP1 LOG4 POP POP POP POP PUSH2 0x867 PUSH2 0x1267 JUMP JUMPDEST POP JUMP JUMPDEST PUSH2 0x872 PUSH2 0x1270 JUMP JUMPDEST PUSH0 PUSH20 0xFFFFFFFFFFFFFFFFFFFFFFFFFFFFFFFFFFFFFFFF AND DUP3 PUSH20 0xFFFFFFFFFFFFFFFFFFFFFFFFFFFFFFFFFFFFFFFF AND SUB PUSH2 0x8E0 JUMPI PUSH1 0x40 MLOAD PUSH32 0x8C379A000000000000000000000000000000000000000000000000000000000 DUP2 MSTORE PUSH1 0x4 ADD PUSH2 0x8D7 SWAP1 PUSH2 0x1BAB JUMP JUMPDEST PUSH1 0x40 MLOAD DUP1 SWAP2 SUB SWAP1 REVERT JUMPDEST PUSH2 0x912 PUSH2 0x8EB PUSH2 0xB8C JUMP JUMPDEST DUP3 DUP5 PUSH20 0xFFFFFFFFFFFFFFFFFFFFFFFFFFFFFFFFFFFFFFFF AND PUSH2 0x11E8 SWAP1 SWAP3 SWAP2 SWAP1 PUSH4 0xFFFFFFFF AND JUMP JUMPDEST DUP2 PUSH20 0xFFFFFFFFFFFFFFFFFFFFFFFFFFFFFFFFFFFFFFFF AND PUSH32 0x8D7D29D557C3B976595A2BB0BFF9523A5FB97D560015797DEAC22D118FFFAD65 DUP3 PUSH1 0x40 MLOAD PUSH2 0x958 SWAP2 SWAP1 PUSH2 0x1575 JUMP JUMPDEST PUSH1 0x40 MLOAD DUP1 SWAP2 SUB SWAP1 LOG2 POP POP JUMP JUMPDEST PUSH1 0x3 SLOAD DUP2 JUMP JUMPDEST PUSH2 0x972 PUSH2 0x1270 JUMP JUMPDEST PUSH2 0x97B PUSH0 PUSH2 0x12F7 JUMP JUMPDEST JUMP JUMPDEST PUSH2 0x985 PUSH2 0x1270 JUMP JUMPDEST PUSH2 0x2710 DUP2 GT ISZERO PUSH2 0x9CA JUMPI PUSH1 0x40 MLOAD PUSH32 0x8C379A000000000000000000000000000000000000000000000000000000000 DUP2 MSTORE PUSH1 0x4 ADD PUSH2 0x9C1 SWAP1 PUSH2 0x1C13 JUMP JUMPDEST PUSH1 0x40 MLOAD DUP1 SWAP2 SUB SWAP1 REVERT JUMPDEST PUSH32 0x5FC463DA23C1B063E66F9E352006A7FBE8DB7223C455DC429E881A2DFE2F94F1 PUSH1 0x2 SLOAD DUP3 PUSH1 0x40 MLOAD PUSH2 0x9FD SWAP3 SWAP2 SWAP1 PUSH2 0x1C31 JUMP JUMPDEST PUSH1 0x40 MLOAD DUP1 SWAP2 SUB SWAP1 LOG1 DUP1 PUSH1 0x2 DUP2 SWAP1 SSTORE POP POP JUMP JUMPDEST PUSH2 0xA17 PUSH2 0x1270 JUMP JUMPDEST DUP1 SELFBALANCE LT ISZERO PUSH2 0xA5A JUMPI PUSH1 0x40 MLOAD PUSH32 0x8C379A000000000000000000000000000000000000000000000000000000000 DUP2 MSTORE PUSH1 0x4 ADD PUSH2 0xA51 SWAP1 PUSH2 0x1CA2 JUMP JUMPDEST PUSH1 0x40 MLOAD DUP1 SWAP2 SUB SWAP1 REVERT JUMPDEST PUSH2 0xA62 PUSH2 0xB8C JUMP JUMPDEST PUSH20 0xFFFFFFFFFFFFFFFFFFFFFFFFFFFFFFFFFFFFFFFF AND PUSH2 0x8FC DUP3 SWAP1 DUP2 ISZERO MUL SWAP1 PUSH1 0x40 MLOAD PUSH0 PUSH1 0x40 MLOAD DUP1 DUP4 SUB DUP2 DUP6 DUP9 DUP9 CALL SWAP4 POP POP POP POP ISZERO DUP1 ISZERO PUSH2 0xAA4 JUMPI RETURNDATASIZE PUSH0 PUSH0 RETURNDATACOPY RETURNDATASIZE PUSH0 REVERT JUMPDEST POP PUSH32 0x6E4C84161CDB053C0FD0AD9DFD1B7E4E50A718125358C96A036C95A19EB0A905 DUP2 PUSH1 0x40 MLOAD PUSH2 0xAD4 SWAP2 SWAP1 PUSH2 0x1575 JUMP JUMPDEST PUSH1 0x40 MLOAD DUP1 SWAP2 SUB SWAP1 LOG1 POP JUMP JUMPDEST PUSH1 0x4 PUSH1 0x20 MSTORE DUP1 PUSH0 MSTORE PUSH1 0x40 PUSH0 KECCAK256 PUSH0 SWAP2 POP SWAP1 POP DUP1 PUSH0 ADD PUSH0 SWAP1 SLOAD SWAP1 PUSH2 0x100 EXP SWAP1 DIV PUSH20 0xFFFFFFFFFFFFFFFFFFFFFFFFFFFFFFFFFFFFFFFF AND SWAP1 DUP1 PUSH1 0x1 ADD PUSH0 SWAP1 SLOAD SWAP1 PUSH2 0x100 EXP SWAP1 DIV PUSH20 0xFFFFFFFFFFFFFFFFFFFFFFFFFFFFFFFFFFFFFFFF AND SWAP1 DUP1 PUSH1 0x2 ADD SLOAD SWAP1 DUP1 PUSH1 0x3 ADD SLOAD SWAP1 DUP1 PUSH1 0x4 ADD PUSH0 SWAP1 SLOAD SWAP1 PUSH2 0x100 EXP SWAP1 DIV PUSH20 0xFFFFFFFFFFFFFFFFFFFFFFFFFFFFFFFFFFFFFFFF AND SWAP1 DUP1 PUSH1 0x5 ADD SLOAD SWAP1 DUP1 PUSH1 0x6 ADD SLOAD SWAP1 DUP1 PUSH1 0x7 ADD PUSH0 SWAP1 SLOAD SWAP1 PUSH2 0x100 EXP SWAP1 DIV PUSH1 0xFF AND SWAP1 POP DUP9 JUMP JUMPDEST PUSH0 PUSH0 PUSH0 SWAP1 SLOAD SWAP1 PUSH2 0x100 EXP SWAP1 DIV PUSH20 0xFFFFFFFFFFFFFFFFFFFFFFFFFFFFFFFFFFFFFFFF AND SWAP1 POP SWAP1 JUMP JUMPDEST PUSH0 PUSH0 PUSH20 0xFFFFFFFFFFFFFFFFFFFFFFFFFFFFFFFFFFFFFFFF AND DUP6 PUSH20 0xFFFFFFFFFFFFFFFFFFFFFFFFFFFFFFFFFFFFFFFF AND SUB PUSH2 0xC22 JUMPI PUSH1 0x40 MLOAD PUSH32 0x8C379A000000000000000000000000000000000000000000000000000000000 DUP2 MSTORE PUSH1 0x4 ADD PUSH2 0xC19 SWAP1 PUSH2 0x1BAB JUMP JUMPDEST PUSH1 0x40 MLOAD DUP1 SWAP2 SUB SWAP1 REVERT JUMPDEST PUSH0 DUP5 GT PUSH2 0xC64 JUMPI PUSH1 0x40 MLOAD PUSH32 0x8C379A000000000000000000000000000000000000000000000000000000000 DUP2 MSTORE PUSH1 0x4 ADD PUSH2 0xC5B SWAP1 PUSH2 0x1D0A JUMP JUMPDEST PUSH1 0x40 MLOAD DUP1 SWAP2 SUB SWAP1 REVERT JUMPDEST PUSH0 PUSH20 0xFFFFFFFFFFFFFFFFFFFFFFFFFFFFFFFFFFFFFFFF AND DUP4 PUSH20 0xFFFFFFFFFFFFFFFFFFFFFFFFFFFFFFFFFFFFFFFF AND SUB PUSH2 0xCD2 JUMPI PUSH1 0x40 MLOAD PUSH32 0x8C379A000000000000000000000000000000000000000000000000000000000 DUP2 MSTORE PUSH1 0x4 ADD PUSH2 0xCC9 SWAP1 PUSH2 0x1D72 JUMP JUMPDEST PUSH1 0x40 MLOAD DUP1 SWAP2 SUB SWAP1 REVERT JUMPDEST PUSH1 0x3C TIMESTAMP PUSH2 0xCDF SWAP2 SWAP1 PUSH2 0x1D90 JUMP JUMPDEST DUP3 LT ISZERO PUSH2 0xD21 JUMPI PUSH1 0x40 MLOAD PUSH32 0x8C379A000000000000000000000000000000000000000000000000000000000 DUP2 MSTORE PUSH1 0x4 ADD PUSH2 0xD18 SWAP1 PUSH2 0x1E0D JUMP JUMPDEST PUSH1 0x40 MLOAD DUP1 SWAP2 SUB SWAP1 REVERT JUMPDEST PUSH0 DUP6 PUSH20 0xFFFFFFFFFFFFFFFFFFFFFFFFFFFFFFFFFFFFFFFF AND PUSH4 0x70A08231 ADDRESS PUSH1 0x40 MLOAD DUP3 PUSH4 0xFFFFFFFF AND PUSH1 0xE0 SHL DUP2 MSTORE PUSH1 0x4 ADD PUSH2 0xD5B SWAP2 SWAP1 PUSH2 0x180B JUMP JUMPDEST PUSH1 0x20 PUSH1 0x40 MLOAD DUP1 DUP4 SUB DUP2 DUP7 GAS STATICCALL ISZERO DUP1 ISZERO PUSH2 0xD76 JUMPI RETURNDATASIZE PUSH0 PUSH0 RETURNDATACOPY RETURNDATASIZE PUSH0 REVERT JUMPDEST POP POP POP POP PUSH1 0x40 MLOAD RETURNDATASIZE PUSH1 0x1F NOT PUSH1 0x1F DUP3 ADD AND DUP3 ADD DUP1 PUSH1 0x40 MSTORE POP DUP2 ADD SWAP1 PUSH2 0xD9A SWAP2 SWAP1 PUSH2 0x1E3F JUMP JUMPDEST SWAP1 POP PUSH2 0xDC9 CALLER ADDRESS DUP8 DUP10 PUSH20 0xFFFFFFFFFFFFFFFFFFFFFFFFFFFFFFFFFFFFFFFF AND PUSH2 0x13B8 SWAP1 SWAP4 SWAP3 SWAP2 SWAP1 PUSH4 0xFFFFFFFF AND JUMP JUMPDEST PUSH0 DUP7 PUSH20 0xFFFFFFFFFFFFFFFFFFFFFFFFFFFFFFFFFFFFFFFF AND PUSH4 0x70A08231 ADDRESS PUSH1 0x40 MLOAD DUP3 PUSH4 0xFFFFFFFF AND PUSH1 0xE0 SHL DUP2 MSTORE PUSH1 0x4 ADD PUSH2 0xE03 SWAP2 SWAP1 PUSH2 0x180B JUMP JUMPDEST PUSH1 0x20 PUSH1 0x40 MLOAD DUP1 DUP4 SUB DUP2 DUP7 GAS STATICCALL ISZERO DUP1 ISZERO PUSH2 0xE1E JUMPI RETURNDATASIZE PUSH0 PUSH0 RETURNDATACOPY RETURNDATASIZE PUSH0 REVERT JUMPDEST POP POP POP POP PUSH1 0x40 MLOAD RETURNDATASIZE PUSH1 0x1F NOT PUSH1 0x1F DUP3 ADD AND DUP3 ADD DUP1 PUSH1 0x40 MSTORE POP DUP2 ADD SWAP1 PUSH2 0xE42 SWAP2 SWAP1 PUSH2 0x1E3F JUMP JUMPDEST SWAP1 POP DUP2 DUP2 LT ISZERO PUSH2 0xE87 JUMPI PUSH1 0x40 MLOAD PUSH32 0x8C379A000000000000000000000000000000000000000000000000000000000 DUP2 MSTORE PUSH1 0x4 ADD PUSH2 0xE7E SWAP1 PUSH2 0x1EB4 JUMP JUMPDEST PUSH1 0x40 MLOAD DUP1 SWAP2 SUB SWAP1 REVERT JUMPDEST PUSH0 DUP3 DUP3 PUSH2 0xE94 SWAP2 SWAP1 PUSH2 0x1B2E JUMP JUMPDEST SWAP1 POP PUSH0 DUP2 GT PUSH2 0xED8 JUMPI PUSH1 0x40 MLOAD PUSH32 0x8C379A000000000000000000000000000000000000000000000000000000000 DUP2 MSTORE PUSH1 0x4 ADD PUSH2 0xECF SWAP1 PUSH2 0x1F1C JUMP JUMPDEST PUSH1 0x40 MLOAD DUP1 SWAP2 SUB SWAP1 REVERT JUMPDEST PUSH0 PUSH1 0x3 SLOAD SWAP1 POP PUSH1 0x40 MLOAD DUP1 PUSH2 0x100 ADD PUSH1 0x40 MSTORE DUP1 CALLER PUSH20 0xFFFFFFFFFFFFFFFFFFFFFFFFFFFFFFFFFFFFFFFF AND DUP2 MSTORE PUSH1 0x20 ADD DUP11 PUSH20 0xFFFFFFFFFFFFFFFFFFFFFFFFFFFFFFFFFFFFFFFF AND DUP2 MSTORE PUSH1 0x20 ADD DUP10 DUP2 MSTORE PUSH1 0x20 ADD DUP4 DUP2 MSTORE PUSH1 0x20 ADD DUP9 PUSH20 0xFFFFFFFFFFFFFFFFFFFFFFFFFFFFFFFFFFFFFFFF AND DUP2 MSTORE PUSH1 0x20 ADD TIMESTAMP DUP2 MSTORE PUSH1 0x20 ADD DUP8 DUP2 MSTORE PUSH1 0x20 ADD PUSH0 ISZERO ISZERO DUP2 MSTORE POP PUSH1 0x4 PUSH0 DUP4 DUP2 MSTORE PUSH1 0x20 ADD SWAP1 DUP2 MSTORE PUSH1 0x20 ADD PUSH0 KECCAK256 PUSH0 DUP3 ADD MLOAD DUP2 PUSH0 ADD PUSH0 PUSH2 0x100 EXP DUP2 SLOAD DUP2 PUSH20 0xFFFFFFFFFFFFFFFFFFFFFFFFFFFFFFFFFFFFFFFF MUL NOT AND SWAP1 DUP4 PUSH20 0xFFFFFFFFFFFFFFFFFFFFFFFFFFFFFFFFFFFFFFFF AND MUL OR SWAP1 SSTORE POP PUSH1 0x20 DUP3 ADD MLOAD DUP2 PUSH1 0x1 ADD PUSH0 PUSH2 0x100 EXP DUP2 SLOAD DUP2 PUSH20 0xFFFFFFFFFFFFFFFFFFFFFFFFFFFFFFFFFFFFFFFF MUL NOT AND SWAP1 DUP4 PUSH20 0xFFFFFFFFFFFFFFFFFFFFFFFFFFFFFFFFFFFFFFFF AND MUL OR SWAP1 SSTORE POP PUSH1 0x40 DUP3 ADD MLOAD DUP2 PUSH1 0x2 ADD SSTORE PUSH1 0x60 DUP3 ADD MLOAD DUP2 PUSH1 0x3 ADD SSTORE PUSH1 0x80 DUP3 ADD MLOAD DUP2 PUSH1 0x4 ADD PUSH0 PUSH2 0x100 EXP DUP2 SLOAD DUP2 PUSH20 0xFFFFFFFFFFFFFFFFFFFFFFFFFFFFFFFFFFFFFFFF MUL NOT AND SWAP1 DUP4 PUSH20 0xFFFFFFFFFFFFFFFFFFFFFFFFFFFFFFFFFFFFFFFF AND MUL OR SWAP1 SSTORE POP PUSH1 0xA0 DUP3 ADD MLOAD DUP2 PUSH1 0x5 ADD SSTORE PUSH1 0xC0 DUP3 ADD MLOAD DUP2 PUSH1 0x6 ADD SSTORE PUSH1 0xE0 DUP3 ADD MLOAD DUP2 PUSH1 0x7 ADD PUSH0 PUSH2 0x100 EXP DUP2 SLOAD DUP2 PUSH1 0xFF MUL NOT AND SWAP1 DUP4 ISZERO ISZERO MUL OR SWAP1 SSTORE POP SWAP1 POP POP PUSH1 0x1 DUP2 PUSH2 0x1094 SWAP2 SWAP1 PUSH2 0x1D90 JUMP JUMPDEST PUSH1 0x3 DUP2 SWAP1 SSTORE POP DUP7 PUSH20 0xFFFFFFFFFFFFFFFFFFFFFFFFFFFFFFFFFFFFFFFF AND CALLER PUSH20 0xFFFFFFFFFFFFFFFFFFFFFFFFFFFFFFFFFFFFFFFF AND DUP3 PUSH32 0x7D069EE8068FF01364B4B02716D89F761325428C736A508DCADBE0DEF557DCA DUP13 DUP13 DUP8 DUP13 PUSH1 0x40 MLOAD PUSH2 0x10FE SWAP5 SWAP4 SWAP3 SWAP2 SWAP1 PUSH2 0x1F3A JUMP JUMPDEST PUSH1 0x40 MLOAD DUP1 SWAP2 SUB SWAP1 LOG4 DUP1 SWAP5 POP POP POP POP POP SWAP5 SWAP4 POP POP POP POP JUMP JUMPDEST PUSH2 0x111D PUSH2 0x1270 JUMP JUMPDEST PUSH0 PUSH20 0xFFFFFFFFFFFFFFFFFFFFFFFFFFFFFFFFFFFFFFFF AND DUP2 PUSH20 0xFFFFFFFFFFFFFFFFFFFFFFFFFFFFFFFFFFFFFFFF AND SUB PUSH2 0x118D JUMPI PUSH0 PUSH1 0x40 MLOAD PUSH32 0x1E4FBDF700000000000000000000000000000000000000000000000000000000 DUP2 MSTORE PUSH1 0x4 ADD PUSH2 0x1184 SWAP2 SWAP1 PUSH2 0x180B JUMP JUMPDEST PUSH1 0x40 MLOAD DUP1 SWAP2 SUB SWAP1 REVERT JUMPDEST PUSH2 0x1196 DUP2 PUSH2 0x12F7 JUMP JUMPDEST POP JUMP JUMPDEST PUSH1 0x2 PUSH1 0x1 SLOAD SUB PUSH2 0x11DE JUMPI PUSH1 0x40 MLOAD PUSH32 0x8C379A000000000000000000000000000000000000000000000000000000000 DUP2 MSTORE PUSH1 0x4 ADD PUSH2 0x11D5 SWAP1 PUSH2 0x1FC7 JUMP JUMPDEST PUSH1 0x40 MLOAD DUP1 SWAP2 SUB SWAP1 REVERT JUMPDEST PUSH1 0x2 PUSH1 0x1 DUP2 SWAP1 SSTORE POP JUMP JUMPDEST PUSH2 0x1262 DUP4 DUP5 PUSH20 0xFFFFFFFFFFFFFFFFFFFFFFFFFFFFFFFFFFFFFFFF AND PUSH4 0xA9059CBB DUP6 DUP6 PUSH1 0x40 MLOAD PUSH1 0x24 ADD PUSH2 0x121B SWAP3 SWAP2 SWAP1 PUSH2 0x1FE5 JUMP JUMPDEST PUSH1 0x40 MLOAD PUSH1 0x20 DUP2 DUP4 SUB SUB DUP2 MSTORE SWAP1 PUSH1 0x40 MSTORE SWAP2 POP PUSH1 0xE0 SHL PUSH1 0x20 DUP3 ADD DUP1 MLOAD PUSH28 0xFFFFFFFFFFFFFFFFFFFFFFFFFFFFFFFFFFFFFFFFFFFFFFFFFFFFFFFF DUP4 DUP2 DUP4 AND OR DUP4 MSTORE POP POP POP POP PUSH2 0x143A JUMP JUMPDEST POP POP POP JUMP JUMPDEST PUSH1 0x1 DUP1 DUP2 SWAP1 SSTORE POP JUMP JUMPDEST PUSH2 0x1278 PUSH2 0x14D5 JUMP JUMPDEST PUSH20 0xFFFFFFFFFFFFFFFFFFFFFFFFFFFFFFFFFFFFFFFF AND PUSH2 0x1296 PUSH2 0xB8C JUMP JUMPDEST PUSH20 0xFFFFFFFFFFFFFFFFFFFFFFFFFFFFFFFFFFFFFFFF AND EQ PUSH2 0x12F5 JUMPI PUSH2 0x12B9 PUSH2 0x14D5 JUMP JUMPDEST PUSH1 0x40 MLOAD PUSH32 0x118CDAA700000000000000000000000000000000000000000000000000000000 DUP2 MSTORE PUSH1 0x4 ADD PUSH2 0x12EC SWAP2 SWAP1 PUSH2 0x180B JUMP JUMPDEST PUSH1 0x40 MLOAD DUP1 SWAP2 SUB SWAP1 REVERT JUMPDEST JUMP JUMPDEST PUSH0 PUSH0 PUSH0 SWAP1 SLOAD SWAP1 PUSH2 0x100 EXP SWAP1 DIV PUSH20 0xFFFFFFFFFFFFFFFFFFFFFFFFFFFFFFFFFFFFFFFF AND SWAP1 POP DUP2 PUSH0 PUSH0 PUSH2 0x100 EXP DUP2 SLOAD DUP2 PUSH20 0xFFFFFFFFFFFFFFFFFFFFFFFFFFFFFFFFFFFFFFFF MUL NOT AND SWAP1 DUP4 PUSH20 0xFFFFFFFFFFFFFFFFFFFFFFFFFFFFFFFFFFFFFFFF AND MUL OR SWAP1 SSTORE POP DUP2 PUSH20 0xFFFFFFFFFFFFFFFFFFFFFFFFFFFFFFFFFFFFFFFF AND DUP2 PUSH20 0xFFFFFFFFFFFFFFFFFFFFFFFFFFFFFFFFFFFFFFFF AND PUSH32 0x8BE0079C531659141344CD1FD0A4F28419497F9722A3DAAFE3B4186F6B6457E0 PUSH1 0x40 MLOAD PUSH1 0x40 MLOAD DUP1 SWAP2 SUB SWAP1 LOG3 POP POP JUMP JUMPDEST PUSH2 0x1434 DUP5 DUP6 PUSH20 0xFFFFFFFFFFFFFFFFFFFFFFFFFFFFFFFFFFFFFFFF AND PUSH4 0x23B872DD DUP7 DUP7 DUP7 PUSH1 0x40 MLOAD PUSH1 0x24 ADD PUSH2 0x13ED SWAP4 SWAP3 SWAP2 SWAP1 PUSH2 0x200C JUMP JUMPDEST PUSH1 0x40 MLOAD PUSH1 0x20 DUP2 DUP4 SUB SUB DUP2 MSTORE SWAP1 PUSH1 0x40 MSTORE SWAP2 POP PUSH1 0xE0 SHL PUSH1 0x20 DUP3 ADD DUP1 MLOAD PUSH28 0xFFFFFFFFFFFFFFFFFFFFFFFFFFFFFFFFFFFFFFFFFFFFFFFFFFFFFFFF DUP4 DUP2 DUP4 AND OR DUP4 MSTORE POP POP POP POP PUSH2 0x143A JUMP JUMPDEST POP POP POP POP JUMP JUMPDEST PUSH0 PUSH0 PUSH1 0x20 PUSH0 DUP5 MLOAD PUSH1 0x20 DUP7 ADD PUSH0 DUP9 GAS CALL DUP1 PUSH2 0x1459 JUMPI PUSH1 0x40 MLOAD RETURNDATASIZE PUSH0 DUP3 RETURNDATACOPY RETURNDATASIZE DUP2 REVERT JUMPDEST RETURNDATASIZE SWAP3 POP PUSH0 MLOAD SWAP2 POP POP PUSH0 DUP3 EQ PUSH2 0x1472 JUMPI PUSH1 0x1 DUP2 EQ ISZERO PUSH2 0x148D JUMP JUMPDEST PUSH0 DUP5 PUSH20 0xFFFFFFFFFFFFFFFFFFFFFFFFFFFFFFFFFFFFFFFF AND EXTCODESIZE EQ JUMPDEST ISZERO PUSH2 0x14CF JUMPI DUP4 PUSH1 0x40 MLOAD PUSH32 0x5274AFE700000000000000000000000000000000000000000000000000000000 DUP2 MSTORE PUSH1 0x4 ADD PUSH2 0x14C6 SWAP2 SWAP1 PUSH2 0x180B JUMP JUMPDEST PUSH1 0x40 MLOAD DUP1 SWAP2 SUB SWAP1 REVERT JUMPDEST POP POP POP POP JUMP JUMPDEST PUSH0 CALLER SWAP1 POP SWAP1 JUMP JUMPDEST PUSH1 0x40 MLOAD DUP1 PUSH2 0x100 ADD PUSH1 0x40 MSTORE DUP1 PUSH0 PUSH20 0xFFFFFFFFFFFFFFFFFFFFFFFFFFFFFFFFFFFFFFFF AND DUP2 MSTORE PUSH1 0x20 ADD PUSH0 PUSH20 0xFFFFFFFFFFFFFFFFFFFFFFFFFFFFFFFFFFFFFFFF AND DUP2 MSTORE PUSH1 0x20 ADD PUSH0 DUP2 MSTORE PUSH1 0x20 ADD PUSH0 DUP2 MSTORE PUSH1 0x20 ADD PUSH0 PUSH20 0xFFFFFFFFFFFFFFFFFFFFFFFFFFFFFFFFFFFFFFFF AND DUP2 MSTORE PUSH1 0x20 ADD PUSH0 DUP2 MSTORE PUSH1 0x20 ADD PUSH0 DUP2 MSTORE PUSH1 0x20 ADD PUSH0 ISZERO ISZERO DUP2 MSTORE POP SWAP1 JUMP JUMPDEST PUSH0 DUP2 SWAP1 POP SWAP2 SWAP1 POP JUMP JUMPDEST PUSH2 0x156F DUP2 PUSH2 0x155D JUMP JUMPDEST DUP3 MSTORE POP POP JUMP JUMPDEST PUSH0 PUSH1 0x20 DUP3 ADD SWAP1 POP PUSH2 0x1588 PUSH0 DUP4 ADD DUP5 PUSH2 0x1566 JUMP JUMPDEST SWAP3 SWAP2 POP POP JUMP JUMPDEST PUSH0 PUSH0 REVERT JUMPDEST PUSH2 0x159B DUP2 PUSH2 0x155D JUMP JUMPDEST DUP2 EQ PUSH2 0x15A5 JUMPI PUSH0 PUSH0 REVERT JUMPDEST POP JUMP JUMPDEST PUSH0 DUP2 CALLDATALOAD SWAP1 POP PUSH2 0x15B6 DUP2 PUSH2 0x1592 JUMP JUMPDEST SWAP3 SWAP2 POP POP JUMP JUMPDEST PUSH0 PUSH1 0x20 DUP3 DUP5 SUB SLT ISZERO PUSH2 0x15D1 JUMPI PUSH2 0x15D0 PUSH2 0x158E JUMP JUMPDEST JUMPDEST PUSH0 PUSH2 0x15DE DUP5 DUP3 DUP6 ADD PUSH2 0x15A8 JUMP JUMPDEST SWAP2 POP POP SWAP3 SWAP2 POP POP JUMP JUMPDEST PUSH0 PUSH20 0xFFFFFFFFFFFFFFFFFFFFFFFFFFFFFFFFFFFFFFFF DUP3 AND SWAP1 POP SWAP2 SWAP1 POP JUMP JUMPDEST PUSH0 PUSH2 0x1610 DUP3 PUSH2 0x15E7 JUMP JUMPDEST SWAP1 POP SWAP2 SWAP1 POP JUMP JUMPDEST PUSH2 0x1620 DUP2 PUSH2 0x1606 JUMP JUMPDEST DUP3 MSTORE POP POP JUMP JUMPDEST PUSH2 0x162F DUP2 PUSH2 0x155D JUMP JUMPDEST DUP3 MSTORE POP POP JUMP JUMPDEST PUSH0 DUP2 ISZERO ISZERO SWAP1 POP SWAP2 SWAP1 POP JUMP JUMPDEST PUSH2 0x1649 DUP2 PUSH2 0x1635 JUMP JUMPDEST DUP3 MSTORE POP POP JUMP JUMPDEST PUSH2 0x100 DUP3 ADD PUSH0 DUP3 ADD MLOAD PUSH2 0x1664 PUSH0 DUP6 ADD DUP3 PUSH2 0x1617 JUMP JUMPDEST POP PUSH1 0x20 DUP3 ADD MLOAD PUSH2 0x1677 PUSH1 0x20 DUP6 ADD DUP3 PUSH2 0x1617 JUMP JUMPDEST POP PUSH1 0x40 DUP3 ADD MLOAD PUSH2 0x168A PUSH1 0x40 DUP6 ADD DUP3 PUSH2 0x1626 JUMP JUMPDEST POP PUSH1 0x60 DUP3 ADD MLOAD PUSH2 0x169D PUSH1 0x60 DUP6 ADD DUP3 PUSH2 0x1626 JUMP JUMPDEST POP PUSH1 0x80 DUP3 ADD MLOAD PUSH2 0x16B0 PUSH1 0x80 DUP6 ADD DUP3 PUSH2 0x1617 JUMP JUMPDEST POP PUSH1 0xA0 DUP3 ADD MLOAD PUSH2 0x16C3 PUSH1 0xA0 DUP6 ADD DUP3 PUSH2 0x1626 JUMP JUMPDEST POP PUSH1 0xC0 DUP3 ADD MLOAD PUSH2 0x16D6 PUSH1 0xC0 DUP6 ADD DUP3 PUSH2 0x1626 JUMP JUMPDEST POP PUSH1 0xE0 DUP3 ADD MLOAD PUSH2 0x16E9 PUSH1 0xE0 DUP6 ADD DUP3 PUSH2 0x1640 JUMP JUMPDEST POP POP POP POP JUMP JUMPDEST PUSH0 PUSH2 0x100 DUP3 ADD SWAP1 POP PUSH2 0x1703 PUSH0 DUP4 ADD DUP5 PUSH2 0x164F JUMP JUMPDEST SWAP3 SWAP2 POP POP JUMP JUMPDEST PUSH2 0x1712 DUP2 PUSH2 0x1606 JUMP JUMPDEST DUP2 EQ PUSH2 0x171C JUMPI PUSH0 PUSH0 REVERT JUMPDEST POP JUMP JUMPDEST PUSH0 DUP2 CALLDATALOAD SWAP1 POP PUSH2 0x172D DUP2 PUSH2 0x1709 JUMP JUMPDEST SWAP3 SWAP2 POP POP JUMP JUMPDEST PUSH0 PUSH0 PUSH1 0x40 DUP4 DUP6 SUB SLT ISZERO PUSH2 0x1749 JUMPI PUSH2 0x1748 PUSH2 0x158E JUMP JUMPDEST JUMPDEST PUSH0 PUSH2 0x1756 DUP6 DUP3 DUP7 ADD PUSH2 0x171F JUMP JUMPDEST SWAP3 POP POP PUSH1 0x20 PUSH2 0x1767 DUP6 DUP3 DUP7 ADD PUSH2 0x15A8 JUMP JUMPDEST SWAP2 POP POP SWAP3 POP SWAP3 SWAP1 POP JUMP JUMPDEST PUSH2 0x177A DUP2 PUSH2 0x1606 JUMP JUMPDEST DUP3 MSTORE POP POP JUMP JUMPDEST PUSH2 0x1789 DUP2 PUSH2 0x1635 JUMP JUMPDEST DUP3 MSTORE POP POP JUMP JUMPDEST PUSH0 PUSH2 0x100 DUP3 ADD SWAP1 POP PUSH2 0x17A3 PUSH0 DUP4 ADD DUP12 PUSH2 0x1771 JUMP JUMPDEST PUSH2 0x17B0 PUSH1 0x20 DUP4 ADD DUP11 PUSH2 0x1771 JUMP JUMPDEST PUSH2 0x17BD PUSH1 0x40 DUP4 ADD DUP10 PUSH2 0x1566 JUMP JUMPDEST PUSH2 0x17CA PUSH1 0x60 DUP4 ADD DUP9 PUSH2 0x1566 JUMP JUMPDEST PUSH2 0x17D7 PUSH1 0x80 DUP4 ADD DUP8 PUSH2 0x1771 JUMP JUMPDEST PUSH2 0x17E4 PUSH1 0xA0 DUP4 ADD DUP7 PUSH2 0x1566 JUMP JUMPDEST PUSH2 0x17F1 PUSH1 0xC0 DUP4 ADD DUP6 PUSH2 0x1566 JUMP JUMPDEST PUSH2 0x17FE PUSH1 0xE0 DUP4 ADD DUP5 PUSH2 0x1780 JUMP JUMPDEST SWAP10 SWAP9 POP POP POP POP POP POP POP POP POP JUMP JUMPDEST PUSH0 PUSH1 0x20 DUP3 ADD SWAP1 POP PUSH2 0x181E PUSH0 DUP4 ADD DUP5 PUSH2 0x1771 JUMP JUMPDEST SWAP3 SWAP2 POP POP JUMP JUMPDEST PUSH0 PUSH0 PUSH0 PUSH0 PUSH1 0x80 DUP6 DUP8 SUB SLT ISZERO PUSH2 0x183C JUMPI PUSH2 0x183B PUSH2 0x158E JUMP JUMPDEST JUMPDEST PUSH0 PUSH2 0x1849 DUP8 DUP3 DUP9 ADD PUSH2 0x171F JUMP JUMPDEST SWAP5 POP POP PUSH1 0x20 PUSH2 0x185A DUP8 DUP3 DUP9 ADD PUSH2 0x15A8 JUMP JUMPDEST SWAP4 POP POP PUSH1 0x40 PUSH2 0x186B DUP8 DUP3 DUP9 ADD PUSH2 0x171F JUMP JUMPDEST SWAP3 POP POP PUSH1 0x60 PUSH2 0x187C DUP8 DUP3 DUP9 ADD PUSH2 0x15A8 JUMP JUMPDEST SWAP2 POP POP SWAP3 SWAP6 SWAP2 SWAP5 POP SWAP3 POP JUMP JUMPDEST PUSH0 PUSH1 0x20 DUP3 DUP5 SUB SLT ISZERO PUSH2 0x189D JUMPI PUSH2 0x189C PUSH2 0x158E JUMP JUMPDEST JUMPDEST PUSH0 PUSH2 0x18AA DUP5 DUP3 DUP6 ADD PUSH2 0x171F JUMP JUMPDEST SWAP2 POP POP SWAP3 SWAP2 POP POP JUMP JUMPDEST PUSH0 DUP3 DUP3 MSTORE PUSH1 0x20 DUP3 ADD SWAP1 POP SWAP3 SWAP2 POP POP JUMP JUMPDEST PUSH32 0x6E6F7420666F756E64206F72207A65726F000000000000000000000000000000 PUSH0 DUP3 ADD MSTORE POP JUMP JUMPDEST PUSH0 PUSH2 0x18F7 PUSH1 0x11 DUP4 PUSH2 0x18B3 JUMP JUMPDEST SWAP2 POP PUSH2 0x1902 DUP3 PUSH2 0x18C3 JUMP JUMPDEST PUSH1 0x20 DUP3 ADD SWAP1 POP SWAP2 SWAP1 POP JUMP JUMPDEST PUSH0 PUSH1 0x20 DUP3 ADD SWAP1 POP DUP2 DUP2 SUB PUSH0 DUP4 ADD MSTORE PUSH2 0x1924 DUP2 PUSH2 0x18EB JUMP JUMPDEST SWAP1 POP SWAP2 SWAP1 POP JUMP JUMPDEST PUSH32 0x616C72656164792072656C656173656400000000000000000000000000000000 PUSH0 DUP3 ADD MSTORE POP JUMP JUMPDEST PUSH0 PUSH2 0x195F PUSH1 0x10 DUP4 PUSH2 0x18B3 JUMP JUMPDEST SWAP2 POP PUSH2 0x196A DUP3 PUSH2 0x192B JUMP JUMPDEST PUSH1 0x20 DUP3 ADD SWAP1 POP SWAP2 SWAP1 POP JUMP JUMPDEST PUSH0 PUSH1 0x20 DUP3 ADD SWAP1 POP DUP2 DUP2 SUB PUSH0 DUP4 ADD MSTORE PUSH2 0x198C DUP2 PUSH2 0x1953 JUMP JUMPDEST SWAP1 POP SWAP2 SWAP1 POP JUMP JUMPDEST PUSH32 0x6E6F7420617574686F72697A6564000000000000000000000000000000000000 PUSH0 DUP3 ADD MSTORE POP JUMP JUMPDEST PUSH0 PUSH2 0x19C7 PUSH1 0xE DUP4 PUSH2 0x18B3 JUMP JUMPDEST SWAP2 POP PUSH2 0x19D2 DUP3 PUSH2 0x1993 JUMP JUMPDEST PUSH1 0x20 DUP3 ADD SWAP1 POP SWAP2 SWAP1 POP JUMP JUMPDEST PUSH0 PUSH1 0x20 DUP3 ADD SWAP1 POP DUP2 DUP2 SUB PUSH0 DUP4 ADD MSTORE PUSH2 0x19F4 DUP2 PUSH2 0x19BB JUMP JUMPDEST SWAP1 POP SWAP2 SWAP1 POP JUMP JUMPDEST PUSH32 0x4E487B7100000000000000000000000000000000000000000000000000000000 PUSH0 MSTORE PUSH1 0x12 PUSH1 0x4 MSTORE PUSH1 0x24 PUSH0 REVERT JUMPDEST PUSH32 0x4E487B7100000000000000000000000000000000000000000000000000000000 PUSH0 MSTORE PUSH1 0x11 PUSH1 0x4 MSTORE PUSH1 0x24 PUSH0 REVERT JUMPDEST PUSH0 PUSH2 0x1A5F DUP3 PUSH2 0x155D JUMP JUMPDEST SWAP2 POP PUSH2 0x1A6A DUP4 PUSH2 0x155D JUMP JUMPDEST SWAP3 POP DUP3 PUSH2 0x1A7A JUMPI PUSH2 0x1A79 PUSH2 0x19FB JUMP JUMPDEST JUMPDEST DUP3 DUP3 DIV SWAP1 POP SWAP3 SWAP2 POP POP JUMP JUMPDEST PUSH32 0x6665652063616C63206F766572666C6F77000000000000000000000000000000 PUSH0 DUP3 ADD MSTORE POP JUMP JUMPDEST PUSH0 PUSH2 0x1AB9 PUSH1 0x11 DUP4 PUSH2 0x18B3 JUMP JUMPDEST SWAP2 POP PUSH2 0x1AC4 DUP3 PUSH2 0x1A85 JUMP JUMPDEST PUSH1 0x20 DUP3 ADD SWAP1 POP SWAP2 SWAP1 POP JUMP JUMPDEST PUSH0 PUSH1 0x20 DUP3 ADD SWAP1 POP DUP2 DUP2 SUB PUSH0 DUP4 ADD MSTORE PUSH2 0x1AE6 DUP2 PUSH2 0x1AAD JUMP JUMPDEST SWAP1 POP SWAP2 SWAP1 POP JUMP JUMPDEST PUSH0 PUSH2 0x1AF7 DUP3 PUSH2 0x155D JUMP JUMPDEST SWAP2 POP PUSH2 0x1B02 DUP4 PUSH2 0x155D JUMP JUMPDEST SWAP3 POP DUP3 DUP3 MUL PUSH2 0x1B10 DUP2 PUSH2 0x155D JUMP JUMPDEST SWAP2 POP DUP3 DUP3 DIV DUP5 EQ DUP4 ISZERO OR PUSH2 0x1B27 JUMPI PUSH2 0x1B26 PUSH2 0x1A28 JUMP JUMPDEST JUMPDEST POP SWAP3 SWAP2 POP POP JUMP JUMPDEST PUSH0 PUSH2 0x1B38 DUP3 PUSH2 0x155D JUMP JUMPDEST SWAP2 POP PUSH2 0x1B43 DUP4 PUSH2 0x155D JUMP JUMPDEST SWAP3 POP DUP3 DUP3 SUB SWAP1 POP DUP2 DUP2 GT ISZERO PUSH2 0x1B5B JUMPI PUSH2 0x1B5A PUSH2 0x1A28 JUMP JUMPDEST JUMPDEST SWAP3 SWAP2 POP POP JUMP JUMPDEST PUSH32 0x746F6B656E207A65726F00000000000000000000000000000000000000000000 PUSH0 DUP3 ADD MSTORE POP JUMP JUMPDEST PUSH0 PUSH2 0x1B95 PUSH1 0xA DUP4 PUSH2 0x18B3 JUMP JUMPDEST SWAP2 POP PUSH2 0x1BA0 DUP3 PUSH2 0x1B61 JUMP JUMPDEST PUSH1 0x20 DUP3 ADD SWAP1 POP SWAP2 SWAP1 POP JUMP JUMPDEST PUSH0 PUSH1 0x20 DUP3 ADD SWAP1 POP DUP2 DUP2 SUB PUSH0 DUP4 ADD MSTORE PUSH2 0x1BC2 DUP2 PUSH2 0x1B89 JUMP JUMPDEST SWAP1 POP SWAP2 SWAP1 POP JUMP JUMPDEST PUSH32 0x6665654270733C3D313030303000000000000000000000000000000000000000 PUSH0 DUP3 ADD MSTORE POP JUMP JUMPDEST PUSH0 PUSH2 0x1BFD PUSH1 0xD DUP4 PUSH2 0x18B3 JUMP JUMPDEST SWAP2 POP PUSH2 0x1C08 DUP3 PUSH2 0x1BC9 JUMP JUMPDEST PUSH1 0x20 DUP3 ADD SWAP1 POP SWAP2 SWAP1 POP JUMP JUMPDEST PUSH0 PUSH1 0x20 DUP3 ADD SWAP1 POP DUP2 DUP2 SUB PUSH0 DUP4 ADD MSTORE PUSH2 0x1C2A DUP2 PUSH2 0x1BF1 JUMP JUMPDEST SWAP1 POP SWAP2 SWAP1 POP JUMP JUMPDEST PUSH0 PUSH1 0x40 DUP3 ADD SWAP1 POP PUSH2 0x1C44 PUSH0 DUP4 ADD DUP6 PUSH2 0x1566 JUMP JUMPDEST PUSH2 0x1C51 PUSH1 0x20 DUP4 ADD DUP5 PUSH2 0x1566 JUMP JUMPDEST SWAP4 SWAP3 POP POP POP JUMP JUMPDEST PUSH32 0x696E73756666696369656E74206E617469766500000000000000000000000000 PUSH0 DUP3 ADD MSTORE POP JUMP JUMPDEST PUSH0 PUSH2 0x1C8C PUSH1 0x13 DUP4 PUSH2 0x18B3 JUMP JUMPDEST SWAP2 POP PUSH2 0x1C97 DUP3 PUSH2 0x1C58 JUMP JUMPDEST PUSH1 0x20 DUP3 ADD SWAP1 POP SWAP2 SWAP1 POP JUMP JUMPDEST PUSH0 PUSH1 0x20 DUP3 ADD SWAP1 POP DUP2 DUP2 SUB PUSH0 DUP4 ADD MSTORE PUSH2 0x1CB9 DUP2 PUSH2 0x1C80 JUMP JUMPDEST SWAP1 POP SWAP2 SWAP1 POP JUMP JUMPDEST PUSH32 0x616D6F756E743E30000000000000000000000000000000000000000000000000 PUSH0 DUP3 ADD MSTORE POP JUMP JUMPDEST PUSH0 PUSH2 0x1CF4 PUSH1 0x8 DUP4 PUSH2 0x18B3 JUMP JUMPDEST SWAP2 POP PUSH2 0x1CFF DUP3 PUSH2 0x1CC0 JUMP JUMPDEST PUSH1 0x20 DUP3 ADD SWAP1 POP SWAP2 SWAP1 POP JUMP JUMPDEST PUSH0 PUSH1 0x20 DUP3 ADD SWAP1 POP DUP2 DUP2 SUB PUSH0 DUP4 ADD MSTORE PUSH2 0x1D21 DUP2 PUSH2 0x1CE8 JUMP JUMPDEST SWAP1 POP SWAP2 SWAP1 POP JUMP JUMPDEST PUSH32 0x726563697069656E74207A65726F000000000000000000000000000000000000 PUSH0 DUP3 ADD MSTORE POP JUMP JUMPDEST PUSH0 PUSH2 0x1D5C PUSH1 0xE DUP4 PUSH2 0x18B3 JUMP JUMPDEST SWAP2 POP PUSH2 0x1D67 DUP3 PUSH2 0x1D28 JUMP JUMPDEST PUSH1 0x20 DUP3 ADD SWAP1 POP SWAP2 SWAP1 POP JUMP JUMPDEST PUSH0 PUSH1 0x20 DUP3 ADD SWAP1 POP DUP2 DUP2 SUB PUSH0 DUP4 ADD MSTORE PUSH2 0x1D89 DUP2 PUSH2 0x1D50 JUMP JUMPDEST SWAP1 POP SWAP2 SWAP1 POP JUMP JUMPDEST PUSH0 PUSH2 0x1D9A DUP3 PUSH2 0x155D JUMP JUMPDEST SWAP2 POP PUSH2 0x1DA5 DUP4 PUSH2 0x155D JUMP JUMPDEST SWAP3 POP DUP3 DUP3 ADD SWAP1 POP DUP1 DUP3 GT ISZERO PUSH2 0x1DBD JUMPI PUSH2 0x1DBC PUSH2 0x1A28 JUMP JUMPDEST JUMPDEST SWAP3 SWAP2 POP POP JUMP JUMPDEST PUSH32 0x756E6C6F636B54696D657374616D7020746F6F20736F6F6E0000000000000000 PUSH0 DUP3 ADD MSTORE POP JUMP JUMPDEST PUSH0 PUSH2 0x1DF7 PUSH1 0x18 DUP4 PUSH2 0x18B3 JUMP JUMPDEST SWAP2 POP PUSH2 0x1E02 DUP3 PUSH2 0x1DC3 JUMP JUMPDEST PUSH1 0x20 DUP3 ADD SWAP1 POP SWAP2 SWAP1 POP JUMP JUMPDEST PUSH0 PUSH1 0x20 DUP3 ADD SWAP1 POP DUP2 DUP2 SUB PUSH0 DUP4 ADD MSTORE PUSH2 0x1E24 DUP2 PUSH2 0x1DEB JUMP JUMPDEST SWAP1 POP SWAP2 SWAP1 POP JUMP JUMPDEST PUSH0 DUP2 MLOAD SWAP1 POP PUSH2 0x1E39 DUP2 PUSH2 0x1592 JUMP JUMPDEST SWAP3 SWAP2 POP POP JUMP JUMPDEST PUSH0 PUSH1 0x20 DUP3 DUP5 SUB SLT ISZERO PUSH2 0x1E54 JUMPI PUSH2 0x1E53 PUSH2 0x158E JUMP JUMPDEST JUMPDEST PUSH0 PUSH2 0x1E61 DUP5 DUP3 DUP6 ADD PUSH2 0x1E2B JUMP JUMPDEST SWAP2 POP POP SWAP3 SWAP2 POP POP JUMP JUMPDEST PUSH32 0x62616C616E6365206166746572203C206265666F726500000000000000000000 PUSH0 DUP3 ADD MSTORE POP JUMP JUMPDEST PUSH0 PUSH2 0x1E9E PUSH1 0x16 DUP4 PUSH2 0x18B3 JUMP JUMPDEST SWAP2 POP PUSH2 0x1EA9 DUP3 PUSH2 0x1E6A JUMP JUMPDEST PUSH1 0x20 DUP3 ADD SWAP1 POP SWAP2 SWAP1 POP JUMP JUMPDEST PUSH0 PUSH1 0x20 DUP3 ADD SWAP1 POP DUP2 DUP2 SUB PUSH0 DUP4 ADD MSTORE PUSH2 0x1ECB DUP2 PUSH2 0x1E92 JUMP JUMPDEST SWAP1 POP SWAP2 SWAP1 POP JUMP JUMPDEST PUSH32 0x7265636569766564207A65726F00000000000000000000000000000000000000 PUSH0 DUP3 ADD MSTORE POP JUMP JUMPDEST PUSH0 PUSH2 0x1F06 PUSH1 0xD DUP4 PUSH2 0x18B3 JUMP JUMPDEST SWAP2 POP PUSH2 0x1F11 DUP3 PUSH2 0x1ED2 JUMP JUMPDEST PUSH1 0x20 DUP3 ADD SWAP1 POP SWAP2 SWAP1 POP JUMP JUMPDEST PUSH0 PUSH1 0x20 DUP3 ADD SWAP1 POP DUP2 DUP2 SUB PUSH0 DUP4 ADD MSTORE PUSH2 0x1F33 DUP2 PUSH2 0x1EFA JUMP JUMPDEST SWAP1 POP SWAP2 SWAP1 POP JUMP JUMPDEST PUSH0 PUSH1 0x80 DUP3 ADD SWAP1 POP PUSH2 0x1F4D PUSH0 DUP4 ADD DUP8 PUSH2 0x1771 JUMP JUMPDEST PUSH2 0x1F5A PUSH1 0x20 DUP4 ADD DUP7 PUSH2 0x1566 JUMP JUMPDEST PUSH2 0x1F67 PUSH1 0x40 DUP4 ADD DUP6 PUSH2 0x1566 JUMP JUMPDEST PUSH2 0x1F74 PUSH1 0x60 DUP4 ADD DUP5 PUSH2 0x1566 JUMP JUMPDEST SWAP6 SWAP5 POP POP POP POP POP JUMP JUMPDEST PUSH32 0x5265656E7472616E637947756172643A207265656E7472616E742063616C6C00 PUSH0 DUP3 ADD MSTORE POP JUMP JUMPDEST PUSH0 PUSH2 0x1FB1 PUSH1 0x1F DUP4 PUSH2 0x18B3 JUMP JUMPDEST SWAP2 POP PUSH2 0x1FBC DUP3 PUSH2 0x1F7D JUMP JUMPDEST PUSH1 0x20 DUP3 ADD SWAP1 POP SWAP2 SWAP1 POP JUMP JUMPDEST PUSH0 PUSH1 0x20 DUP3 ADD SWAP1 POP DUP2 DUP2 SUB PUSH0 DUP4 ADD MSTORE PUSH2 0x1FDE DUP2 PUSH2 0x1FA5 JUMP JUMPDEST SWAP1 POP SWAP2 SWAP1 POP JUMP JUMPDEST PUSH0 PUSH1 0x40 DUP3 ADD SWAP1 POP PUSH2 0x1FF8 PUSH0 DUP4 ADD DUP6 PUSH2 0x1771 JUMP JUMPDEST PUSH2 0x2005 PUSH1 0x20 DUP4 ADD DUP5 PUSH2 0x1566 JUMP JUMPDEST SWAP4 SWAP3 POP POP POP JUMP JUMPDEST PUSH0 PUSH1 0x60 DUP3 ADD SWAP1 POP PUSH2 0x201F PUSH0 DUP4 ADD DUP7 PUSH2 0x1771 JUMP JUMPDEST PUSH2 0x202C PUSH1 0x20 DUP4 ADD DUP6 PUSH2 0x1771 JUMP JUMPDEST PUSH2 0x2039 PUSH1 0x40 DUP4 ADD DUP5 PUSH2 0x1566 JUMP JUMPDEST SWAP5 SWAP4 POP POP POP POP JUMP INVALID LOG2 PUSH5 0x6970667358 0x22 SLT KECCAK256 0x4E PUSH10 0x77336490EE45BA508F45 SHL DATALOADN 0x9E12 EXTCODECOPY SWAP9 DUP11 CALLVALUE 0x2B NUMBER JUMP BALANCE 0xC6 SSTORE SWAPN 0xC PUSH10 0x134D7864736F6C634300 ADDMOD 0x1E STOP CALLER "
				},
				"gasEstimates": {
					"creation": {
						"codeDepositCost": "1662200",
						"executionCost": "infinite",
						"totalCost": "infinite"
					},
					"external": {
						"": "217",
						"deposit(address,uint256,address,uint256)": "infinite",
						"feeBps()": "2426",
						"getPayment(uint256)": "infinite",
						"nextId()": "2514",
						"owner()": "2580",
						"ownerWithdrawERC20(address,uint256)": "infinite",
						"payments(uint256)": "infinite",
						"release(uint256)": "infinite",
						"renounceOwnership()": "infinite",
						"setFeeBps(uint256)": "infinite",
						"transferOwnership(address)": "infinite",
						"withdrawNative(uint256)": "infinite"
					}
				},
				"methodIdentifiers": {
					"deposit(address,uint256,address,uint256)": "90d25074",
					"feeBps()": "24a9d853",
					"getPayment(uint256)": "3280a836",
					"nextId()": "61b8ce8c",
					"owner()": "8da5cb5b",
					"ownerWithdrawERC20(address,uint256)": "45d39b58",
					"payments(uint256)": "87d81789",
					"release(uint256)": "37bdc99b",
					"renounceOwnership()": "715018a6",
					"setFeeBps(uint256)": "72c27b62",
					"transferOwnership(address)": "f2fde38b",
					"withdrawNative(uint256)": "84276d81"
				}
			},
			"storageLayout": {
				"storage": [
					{
						"astId": 8,
						"contract": "contracts/MyToken.sol:SimpleEscrowAutoRelease",
						"label": "_owner",
						"offset": 0,
						"slot": "0",
						"type": "t_address"
					},
					{
						"astId": 248,
						"contract": "contracts/MyToken.sol:SimpleEscrowAutoRelease",
						"label": "_status",
						"offset": 0,
						"slot": "1",
						"type": "t_uint256"
					},
					{
						"astId": 902,
						"contract": "contracts/MyToken.sol:SimpleEscrowAutoRelease",
						"label": "feeBps",
						"offset": 0,
						"slot": "2",
						"type": "t_uint256"
					},
					{
						"astId": 904,
						"contract": "contracts/MyToken.sol:SimpleEscrowAutoRelease",
						"label": "nextId",
						"offset": 0,
						"slot": "3",
						"type": "t_uint256"
					},
					{
						"astId": 926,
						"contract": "contracts/MyToken.sol:SimpleEscrowAutoRelease",
						"label": "payments",
						"offset": 0,
						"slot": "4",
						"type": "t_mapping(t_uint256,t_struct(Payment)921_storage)"
					}
				],
				"types": {
					"t_address": {
						"encoding": "inplace",
						"label": "address",
						"numberOfBytes": "20"
					},
					"t_bool": {
						"encoding": "inplace",
						"label": "bool",
						"numberOfBytes": "1"
					},
					"t_mapping(t_uint256,t_struct(Payment)921_storage)": {
						"encoding": "mapping",
						"key": "t_uint256",
						"label": "mapping(uint256 => struct SimpleEscrowAutoRelease.Payment)",
						"numberOfBytes": "32",
						"value": "t_struct(Payment)921_storage"
					},
					"t_struct(Payment)921_storage": {
						"encoding": "inplace",
						"label": "struct SimpleEscrowAutoRelease.Payment",
						"members": [
							{
								"astId": 906,
								"contract": "contracts/MyToken.sol:SimpleEscrowAutoRelease",
								"label": "sender",
								"offset": 0,
								"slot": "0",
								"type": "t_address"
							},
							{
								"astId": 908,
								"contract": "contracts/MyToken.sol:SimpleEscrowAutoRelease",
								"label": "token",
								"offset": 0,
								"slot": "1",
								"type": "t_address"
							},
							{
								"astId": 910,
								"contract": "contracts/MyToken.sol:SimpleEscrowAutoRelease",
								"label": "amountExpected",
								"offset": 0,
								"slot": "2",
								"type": "t_uint256"
							},
							{
								"astId": 912,
								"contract": "contracts/MyToken.sol:SimpleEscrowAutoRelease",
								"label": "amountReceived",
								"offset": 0,
								"slot": "3",
								"type": "t_uint256"
							},
							{
								"astId": 914,
								"contract": "contracts/MyToken.sol:SimpleEscrowAutoRelease",
								"label": "recipient",
								"offset": 0,
								"slot": "4",
								"type": "t_address"
							},
							{
								"astId": 916,
								"contract": "contracts/MyToken.sol:SimpleEscrowAutoRelease",
								"label": "createdAt",
								"offset": 0,
								"slot": "5",
								"type": "t_uint256"
							},
							{
								"astId": 918,
								"contract": "contracts/MyToken.sol:SimpleEscrowAutoRelease",
								"label": "unlockTimestamp",
								"offset": 0,
								"slot": "6",
								"type": "t_uint256"
							},
							{
								"astId": 920,
								"contract": "contracts/MyToken.sol:SimpleEscrowAutoRelease",
								"label": "released",
								"offset": 0,
								"slot": "7",
								"type": "t_bool"
							}
						],
						"numberOfBytes": "256"
					},
					"t_uint256": {
						"encoding": "inplace",
						"label": "uint256",
						"numberOfBytes": "32"
					}
				}
			},
			"userdoc": {
				"kind": "user",
				"methods": {
					"deposit(address,uint256,address,uint256)": {
						"notice": "Deposit tokens into escrow."
					},
					"release(uint256)": {
						"notice": "Release funds to recipient. - Can be called by sender, recipient, owner anytime. - After unlockTimestamp, anyone can call release() to avoid funds locked forever."
					}
				},
				"version": 1
			}
		}
	}
}